{
    "_format": "hh-sol-artifact-1",
    "contractName": "Amm",
    "sourceName": "contracts/amm/Amm.sol",
    "abi": [
        {
            "inputs": [],
            "stateMutability": "nonpayable",
            "type": "constructor"
        },
        {
            "anonymous": false,
            "inputs": [
                {
                    "indexed": true,
                    "internalType": "address",
                    "name": "provider",
                    "type": "address"
                },
                {
                    "indexed": false,
                    "internalType": "uint256",
                    "name": "amount0",
                    "type": "uint256"
                },
                {
                    "indexed": false,
                    "internalType": "uint256",
                    "name": "amount1",
                    "type": "uint256"
                },
                {
                    "indexed": false,
                    "internalType": "uint256",
                    "name": "liquidity",
                    "type": "uint256"
                },
                {
                    "indexed": false,
                    "internalType": "uint256",
                    "name": "totalLiquidity",
                    "type": "uint256"
                }
            ],
            "name": "AddLiquidity",
            "type": "event"
        },
        {
            "anonymous": false,
            "inputs": [
                {
                    "indexed": false,
                    "internalType": "address",
                    "name": "sender",
                    "type": "address"
                },
                {
                    "indexed": false,
                    "internalType": "uint256",
                    "name": "amountIn",
                    "type": "uint256"
                },
                {
                    "indexed": false,
                    "internalType": "uint256",
                    "name": "amountOut",
                    "type": "uint256"
                },
                {
                    "indexed": false,
                    "internalType": "uint256",
                    "name": "priceAfter",
                    "type": "uint256"
                },
                {
                    "indexed": false,
                    "internalType": "bool",
                    "name": "isSell",
                    "type": "bool"
                }
            ],
            "name": "CalcPriceAfterSwap",
            "type": "event"
        },
        {
            "anonymous": false,
            "inputs": [
                {
                    "indexed": true,
                    "internalType": "uint256",
                    "name": "deadline",
                    "type": "uint256"
                },
                {
                    "indexed": false,
                    "internalType": "uint256",
                    "name": "adjustmentStep",
                    "type": "uint256"
                },
                {
                    "indexed": false,
                    "internalType": "uint256",
                    "name": "maHalfTime",
                    "type": "uint256"
                }
            ],
            "name": "CommitNewParameters",
            "type": "event"
        },
        {
            "anonymous": false,
            "inputs": [
                {
                    "indexed": false,
                    "internalType": "uint256",
                    "name": "adjustmentStep",
                    "type": "uint256"
                },
                {
                    "indexed": false,
                    "internalType": "uint256",
                    "name": "maHalfTime",
                    "type": "uint256"
                }
            ],
            "name": "NewParameters",
            "type": "event"
        },
        {
            "anonymous": false,
            "inputs": [
                {
                    "indexed": false,
                    "internalType": "uint256",
                    "name": "initialA",
                    "type": "uint256"
                },
                {
                    "indexed": false,
                    "internalType": "uint256",
                    "name": "futureA",
                    "type": "uint256"
                },
                {
                    "indexed": false,
                    "internalType": "uint256",
                    "name": "initialGamma",
                    "type": "uint256"
                },
                {
                    "indexed": false,
                    "internalType": "uint256",
                    "name": "futureGamma",
                    "type": "uint256"
                },
                {
                    "indexed": false,
                    "internalType": "uint256",
                    "name": "initialTime",
                    "type": "uint256"
                },
                {
                    "indexed": false,
                    "internalType": "uint256",
                    "name": "futureTime",
                    "type": "uint256"
                }
            ],
            "name": "RampAgamma",
            "type": "event"
        },
        {
            "anonymous": false,
            "inputs": [
                {
                    "indexed": true,
                    "internalType": "address",
                    "name": "provider",
                    "type": "address"
                },
                {
                    "indexed": false,
                    "internalType": "uint256",
                    "name": "amount0",
                    "type": "uint256"
                },
                {
                    "indexed": false,
                    "internalType": "uint256",
                    "name": "amount1",
                    "type": "uint256"
                },
                {
                    "indexed": false,
                    "internalType": "uint256",
                    "name": "liquidity",
                    "type": "uint256"
                },
                {
                    "indexed": false,
                    "internalType": "uint256",
                    "name": "totalLiquidity",
                    "type": "uint256"
                }
            ],
            "name": "RemoveLiquidity",
            "type": "event"
        },
        {
            "anonymous": false,
            "inputs": [
                {
                    "indexed": false,
                    "internalType": "address",
                    "name": "sender",
                    "type": "address"
                },
                {
                    "indexed": false,
                    "internalType": "uint256",
                    "name": "accumulatedFees",
                    "type": "uint256"
                },
                {
                    "indexed": false,
                    "internalType": "uint256",
                    "name": "loss",
                    "type": "uint256"
                },
                {
                    "indexed": false,
                    "internalType": "uint256",
                    "name": "newD",
                    "type": "uint256"
                },
                {
                    "indexed": false,
                    "internalType": "uint256",
                    "name": "priceScale",
                    "type": "uint256"
                },
                {
                    "indexed": false,
                    "internalType": "uint256",
                    "name": "priceOracle",
                    "type": "uint256"
                }
            ],
            "name": "Repegging",
            "type": "event"
        },
        {
            "anonymous": false,
            "inputs": [
                {
                    "indexed": false,
                    "internalType": "uint256",
                    "name": "currentA",
                    "type": "uint256"
                },
                {
                    "indexed": false,
                    "internalType": "uint256",
                    "name": "currentGamma",
                    "type": "uint256"
                },
                {
                    "indexed": false,
                    "internalType": "uint256",
                    "name": "time",
                    "type": "uint256"
                }
            ],
            "name": "StopRampA",
            "type": "event"
        },
        {
            "anonymous": false,
            "inputs": [
                {
                    "indexed": true,
                    "internalType": "address",
                    "name": "buyer",
                    "type": "address"
                },
                {
                    "indexed": false,
                    "internalType": "uint256",
                    "name": "i",
                    "type": "uint256"
                },
                {
                    "indexed": false,
                    "internalType": "uint256",
                    "name": "dx",
                    "type": "uint256"
                },
                {
                    "indexed": false,
                    "internalType": "uint256",
                    "name": "j",
                    "type": "uint256"
                },
                {
                    "indexed": false,
                    "internalType": "uint256",
                    "name": "dy",
                    "type": "uint256"
                },
                {
                    "indexed": false,
                    "internalType": "bool",
                    "name": "isSell",
                    "type": "bool"
                }
            ],
            "name": "TokenExchange",
            "type": "event"
        },
        {
            "anonymous": false,
            "inputs": [
                {
                    "indexed": false,
                    "internalType": "uint256",
                    "name": "cap",
                    "type": "uint256"
                }
            ],
            "name": "TotalValueLockedCapChanged",
            "type": "event"
        },
        {
            "inputs": [
                {
                    "internalType": "uint256",
                    "name": "amount0Desired",
                    "type": "uint256"
                },
                {
                    "internalType": "uint256",
                    "name": "amount1Desired",
                    "type": "uint256"
                },
                {
                    "internalType": "uint256",
                    "name": "minLiquidity",
                    "type": "uint256"
                }
            ],
            "name": "addLiquidity",
            "outputs": [
                {
                    "internalType": "uint256",
                    "name": "",
                    "type": "uint256"
                },
                {
                    "internalType": "uint256",
                    "name": "",
                    "type": "uint256"
                },
                {
                    "internalType": "uint256",
                    "name": "",
                    "type": "uint256"
                }
            ],
            "stateMutability": "nonpayable",
            "type": "function"
        },
        {
            "inputs": [],
            "name": "applyNewParameters",
            "outputs": [],
            "stateMutability": "nonpayable",
            "type": "function"
        },
        {
            "inputs": [
                {
                    "internalType": "uint256",
                    "name": "amount0Desired",
                    "type": "uint256"
                },
                {
                    "internalType": "uint256",
                    "name": "amount1Desired",
                    "type": "uint256"
                }
            ],
            "name": "calcLiquidityByTokenAmounts",
            "outputs": [
                {
                    "internalType": "uint256",
                    "name": "",
                    "type": "uint256"
                }
            ],
            "stateMutability": "view",
            "type": "function"
        },
        {
            "inputs": [
                {
                    "internalType": "uint256",
                    "name": "liquidity",
                    "type": "uint256"
                }
            ],
            "name": "calcTokenAmountsByLiquidity",
            "outputs": [
                {
                    "internalType": "uint256",
                    "name": "amount0",
                    "type": "uint256"
                },
                {
                    "internalType": "uint256",
                    "name": "amount1",
                    "type": "uint256"
                }
            ],
            "stateMutability": "view",
            "type": "function"
        },
        {
            "inputs": [
                {
                    "internalType": "uint256",
                    "name": "newAdjustmentStep",
                    "type": "uint256"
                },
                {
                    "internalType": "uint256",
                    "name": "newMAHalfTime",
                    "type": "uint256"
                }
            ],
            "name": "commitNewParameters",
            "outputs": [],
            "stateMutability": "nonpayable",
            "type": "function"
        },
        {
            "inputs": [],
            "name": "getA",
            "outputs": [
                {
                    "internalType": "uint256",
                    "name": "",
                    "type": "uint256"
                }
            ],
            "stateMutability": "view",
            "type": "function"
        },
        {
            "inputs": [
                {
                    "internalType": "uint256",
                    "name": "i",
                    "type": "uint256"
                }
            ],
            "name": "getBalances",
            "outputs": [
                {
                    "internalType": "uint256",
                    "name": "",
                    "type": "uint256"
                }
            ],
            "stateMutability": "view",
            "type": "function"
        },
        {
            "inputs": [
                {
                    "internalType": "uint256",
                    "name": "i",
                    "type": "uint256"
                }
            ],
            "name": "getCoins",
            "outputs": [
                {
                    "internalType": "address",
                    "name": "",
                    "type": "address"
                }
            ],
            "stateMutability": "view",
            "type": "function"
        },
        {
            "inputs": [
                {
                    "internalType": "uint256",
                    "name": "i",
                    "type": "uint256"
                },
                {
                    "internalType": "uint256",
                    "name": "j",
                    "type": "uint256"
                },
                {
                    "internalType": "uint256",
                    "name": "dx",
                    "type": "uint256"
                },
                {
                    "internalType": "bool",
                    "name": "isSell",
                    "type": "bool"
                }
            ],
            "name": "getDy",
            "outputs": [
                {
                    "internalType": "uint256",
                    "name": "",
                    "type": "uint256"
                }
            ],
            "stateMutability": "view",
            "type": "function"
        },
        {
            "inputs": [],
            "name": "getGamma",
            "outputs": [
                {
                    "internalType": "uint256",
                    "name": "",
                    "type": "uint256"
                }
            ],
            "stateMutability": "view",
            "type": "function"
        },
        {
            "inputs": [],
            "name": "getPriceCurrent",
            "outputs": [
                {
                    "internalType": "uint256",
                    "name": "",
                    "type": "uint256"
                }
            ],
            "stateMutability": "view",
            "type": "function"
        },
        {
            "inputs": [],
            "name": "getPriceLast",
            "outputs": [
                {
                    "internalType": "uint256",
                    "name": "",
                    "type": "uint256"
                }
            ],
            "stateMutability": "view",
            "type": "function"
        },
        {
            "inputs": [],
            "name": "getPriceOracle",
            "outputs": [
                {
                    "internalType": "uint256",
                    "name": "",
                    "type": "uint256"
                }
            ],
            "stateMutability": "view",
            "type": "function"
        },
        {
            "inputs": [],
            "name": "getPriceScale",
            "outputs": [
                {
                    "internalType": "uint256",
                    "name": "",
                    "type": "uint256"
                }
            ],
            "stateMutability": "view",
            "type": "function"
        },
        {
            "inputs": [
                {
                    "internalType": "uint256",
                    "name": "roundId",
                    "type": "uint256"
                }
            ],
            "name": "getRoundData",
            "outputs": [
                {
                    "internalType": "uint256",
                    "name": "",
                    "type": "uint256"
                },
                {
                    "internalType": "uint256",
                    "name": "",
                    "type": "uint256"
                },
                {
                    "internalType": "uint256",
                    "name": "",
                    "type": "uint256"
                }
            ],
            "stateMutability": "view",
            "type": "function"
        },
        {
            "inputs": [],
            "name": "getTotalLiquidity",
            "outputs": [
                {
                    "internalType": "uint256",
                    "name": "",
                    "type": "uint256"
                }
            ],
            "stateMutability": "view",
            "type": "function"
        },
        {
            "inputs": [],
            "name": "getTotalVauleLockedCap",
            "outputs": [
                {
                    "internalType": "uint256",
                    "name": "",
                    "type": "uint256"
                }
            ],
            "stateMutability": "view",
            "type": "function"
        },
        {
            "inputs": [
                {
                    "internalType": "uint256",
                    "name": "interval",
                    "type": "uint256"
                }
            ],
            "name": "getTwapMarkPrice",
            "outputs": [
                {
                    "internalType": "uint256",
                    "name": "",
                    "type": "uint256"
                }
            ],
            "stateMutability": "view",
            "type": "function"
        },
        {
            "inputs": [
                {
                    "components": [
                        {
                            "internalType": "uint256",
                            "name": "A",
                            "type": "uint256"
                        },
                        {
                            "internalType": "uint256",
                            "name": "gamma",
                            "type": "uint256"
                        },
                        {
                            "internalType": "uint256",
                            "name": "adjustmentStep",
                            "type": "uint256"
                        },
                        {
                            "internalType": "uint256",
                            "name": "maHalfTime",
                            "type": "uint256"
                        },
                        {
                            "internalType": "uint256",
                            "name": "initialPrice",
                            "type": "uint256"
                        },
                        {
                            "internalType": "address",
                            "name": "baseToken",
                            "type": "address"
                        },
                        {
                            "internalType": "address",
                            "name": "quoteToken",
                            "type": "address"
                        }
                    ],
                    "internalType": "struct IAmm.InitializeParams",
                    "name": "params",
                    "type": "tuple"
                }
            ],
            "name": "initialize",
            "outputs": [],
            "stateMutability": "nonpayable",
            "type": "function"
        },
        {
            "inputs": [],
            "name": "latestRoundData",
            "outputs": [
                {
                    "internalType": "uint256",
                    "name": "",
                    "type": "uint256"
                },
                {
                    "internalType": "uint256",
                    "name": "",
                    "type": "uint256"
                },
                {
                    "internalType": "uint256",
                    "name": "",
                    "type": "uint256"
                }
            ],
            "stateMutability": "view",
            "type": "function"
        },
        {
            "inputs": [
                {
                    "internalType": "uint256",
                    "name": "futureA",
                    "type": "uint256"
                },
                {
                    "internalType": "uint256",
                    "name": "futureGamma",
                    "type": "uint256"
                },
                {
                    "internalType": "uint256",
                    "name": "futureTime",
                    "type": "uint256"
                }
            ],
            "name": "rampAGamma",
            "outputs": [],
            "stateMutability": "nonpayable",
            "type": "function"
        },
        {
            "inputs": [
                {
                    "internalType": "uint256",
                    "name": "liquidity",
                    "type": "uint256"
                },
                {
                    "internalType": "uint256",
                    "name": "minAmount0",
                    "type": "uint256"
                },
                {
                    "internalType": "uint256",
                    "name": "minAmount1",
                    "type": "uint256"
                }
            ],
            "name": "removeLiquidity",
            "outputs": [
                {
                    "internalType": "uint256",
                    "name": "amount0",
                    "type": "uint256"
                },
                {
                    "internalType": "uint256",
                    "name": "amount1",
                    "type": "uint256"
                }
            ],
            "stateMutability": "nonpayable",
            "type": "function"
        },
        {
            "inputs": [],
            "name": "revertNewParameters",
            "outputs": [],
            "stateMutability": "nonpayable",
            "type": "function"
        },
        {
            "inputs": [
                {
                    "internalType": "uint256",
                    "name": "cap",
                    "type": "uint256"
                }
            ],
            "name": "setTotalVauleLockedCap",
            "outputs": [],
            "stateMutability": "nonpayable",
            "type": "function"
        },
        {
            "inputs": [
                {
                    "internalType": "uint256",
                    "name": "i",
                    "type": "uint256"
                },
                {
                    "internalType": "uint256",
                    "name": "j",
                    "type": "uint256"
                },
                {
                    "internalType": "uint256",
                    "name": "dx",
                    "type": "uint256"
                },
                {
                    "internalType": "bool",
                    "name": "isSell",
                    "type": "bool"
                }
            ],
            "name": "simulatedSwap",
            "outputs": [
                {
                    "internalType": "uint256",
                    "name": "priceAfter",
                    "type": "uint256"
                },
                {
                    "internalType": "uint256",
                    "name": "amount0",
                    "type": "uint256"
                },
                {
                    "internalType": "uint256",
                    "name": "amount1",
                    "type": "uint256"
                }
            ],
            "stateMutability": "nonpayable",
            "type": "function"
        },
        {
            "inputs": [
                {
                    "internalType": "uint256",
                    "name": "i",
                    "type": "uint256"
                },
                {
                    "internalType": "uint256",
                    "name": "j",
                    "type": "uint256"
                },
                {
                    "internalType": "uint256",
                    "name": "dx",
                    "type": "uint256"
                },
                {
                    "internalType": "uint256",
                    "name": "dyLimit",
                    "type": "uint256"
                },
                {
                    "internalType": "bool",
                    "name": "isSell",
                    "type": "bool"
                }
            ],
            "name": "simulatedSwapInternal",
            "outputs": [
                {
                    "internalType": "uint256",
                    "name": "",
                    "type": "uint256"
                }
            ],
            "stateMutability": "nonpayable",
            "type": "function"
        },
        {
            "inputs": [],
            "name": "stopRampAGamma",
            "outputs": [],
            "stateMutability": "nonpayable",
            "type": "function"
        },
        {
            "inputs": [
                {
                    "internalType": "uint256",
                    "name": "i",
                    "type": "uint256"
                },
                {
                    "internalType": "uint256",
                    "name": "j",
                    "type": "uint256"
                },
                {
                    "internalType": "uint256",
                    "name": "dx",
                    "type": "uint256"
                },
                {
                    "internalType": "uint256",
                    "name": "dyLimit",
                    "type": "uint256"
                },
                {
                    "internalType": "bool",
                    "name": "isSell",
                    "type": "bool"
                }
            ],
            "name": "swap",
            "outputs": [
                {
                    "internalType": "uint256",
                    "name": "",
                    "type": "uint256"
                }
            ],
            "stateMutability": "nonpayable",
            "type": "function"
        }
    ],
    "bytecode": "0x608060405234801561001057600080fd5b50600780546001600160a01b03191633179055615d8880620000336000396000f3fe608060405234801561001057600080fd5b50600436106101c45760003560e01c8063743eaf0d116100f9578063cf4e669611610097578063d46300fd11610071578063d46300fd1461037b578063e57f156514610383578063fca513a81461038b578063feaf968c14610393576101c4565b8063cf4e66961461034d578063d1cd61c114610360578063d2c9663614610373576101c4565b8063857620e1116100d3578063857620e114610317578063b136fb9b1461032a578063b26e64be14610332578063cde5d81b14610345576101c4565b8063743eaf0d146102e95780637b2369d4146102fc5780637c1152b914610304576101c4565b806335c990e31161016657806364d225131161014057806364d22513146102a85780636f1f3e7c146102b05780637158a538146102c357806372471890146102d6576101c4565b806335c990e31461026f578063422f104314610282578063490adbaf14610295576101c4565b80630e3f707c116101a25780630e3f707c1461022a57806329cddf221461024a5780633473fbe51461025f57806335c7e92514610267576101c4565b80630720da52146101c95780630721547e146101f4578063084fa68b14610215575b600080fd5b6101dc6101d736600461504c565b61039b565b6040516101eb939291906159d8565b60405180910390f35b61020761020236600461504c565b610409565b6040516101eb9291906159ca565b61022861022336600461509d565b610528565b005b61023d61023836600461504c565b610953565b6040516101eb91906151a2565b610252610989565b6040516101eb91906159c1565b6102526109a1565b610252610a2e565b61025261027d36600461504c565b610a34565b6101dc61029036600461509d565b610b9c565b6102526102a336600461504c565b61135f565b61025261138a565b6102286102be36600461504c565b611390565b6102526102d1366004615135565b611486565b6102526102e43660046150f5565b611559565b6102286102f7366004614fd8565b6115cd565b610252611802565b6101dc6103123660046150f5565b611808565b61020761032536600461509d565b6119ff565b610228611e2b565b610252610340366004615135565b611f7c565b610228611fac565b61025261035b36600461507c565b612069565b61022861036e36600461507c565b6123d7565b610252612563565b610252612569565b61022861257a565b6102526126b9565b6101dc6126bf565b600080600080601685815481106103c257634e487b7160e01b600052603260045260246000fd5b600091825260209182902060408051606081018252600393909302909101805480845260018201549484018590526002909101549290910182905297919650945092505050565b600080600183116104355760405162461bcd60e51b815260040161042c90615941565b60405180910390fd5b6000600254116104575760405162461bcd60e51b815260040161042c90615474565b6002548311156104795760405162461bcd60e51b815260040161042c906154b7565b610484600184615c44565b925061048e614d8c565b60005b60028160ff161015610515576002548560088360ff16600281106104c557634e487b7160e01b600052603260045260246000fd5b01546104d19190615be6565b6104db9190615a9f565b828260ff16600281106104fe57634e487b7160e01b600052603260045260246000fd5b60200201528061050d81615cc9565b915050610491565b5080516020909101519094909350915050565b600760009054906101000a90046001600160a01b03166001600160a01b031663893d20e86040518163ffffffff1660e01b815260040160206040518083038186803b15801561057657600080fd5b505afa15801561058a573d6000803e3d6000fd5b505050506040513d601f19601f820116820180604052508101906105ae9190614f10565b6001600160a01b0316336001600160a01b0316146105de5760405162461bcd60e51b815260040161042c906159a1565b6001600a6127106105f0600280615b05565b6105fa9190615be6565b6106049190615a9f565b61060e9190615c44565b831161062c5760405162461bcd60e51b815260040161042c9061578b565b61271061063a600280615b05565b6106449190615be6565b61065190620186a0615be6565b61065c906001615a87565b831061067a5760405162461bcd60e51b815260040161042c906153f3565b61068a60016402540be400615c44565b82116106a85760405162461bcd60e51b815260040161042c90615434565b6106ba66470de4df8200006001615a87565b82106106d85760405162461bcd60e51b815260040161042c906152ab565b6106e6600162015180615c44565b600f546106f39190615a87565b6106fb61276a565b116107185760405162461bcd60e51b815260040161042c90615894565b610726600162015180615c44565b61072e61276a565b6107389190615a87565b81116107565760405162461bcd60e51b815260040161042c906158d5565b600061076061276e565b9050600061077682825b6020020151608061287c565b905061078a818360015b60200201516128bc565b82519091506000906107a487670de0b6b3a7640000615be6565b6107ae9190615a9f565b90506107c3600a670de0b6b3a7640000615be6565b6107ce906001615a87565b81106107ec5760405162461bcd60e51b815260040161042c90615413565b6001610801600a670de0b6b3a7640000615a9f565b61080b9190615c44565b81116108295760405162461bcd60e51b815260040161042c90615370565b602083015161084086670de0b6b3a7640000615be6565b61084a9190615a9f565b905061085f600a670de0b6b3a7640000615be6565b61086a906001615a87565b81106108885760405162461bcd60e51b815260040161042c906157cb565b600161089d600a670de0b6b3a7640000615a9f565b6108a79190615c44565b81116108c55760405162461bcd60e51b815260040161042c906155ee565b600e8290556108d261276a565b600f5560006108e287608061287c565b90506108ee81876128bc565b60138690556012819055845160208601519192507fe35f0559b0642164e286b30df2077ec3a05426617a25db7578fd20ba39a6cd059189908961092f61276a565b8a60405161094296959493929190615a2e565b60405180910390a150505050505050565b6000600c826002811061097657634e487b7160e01b600052603260045260246000fd5b01546001600160a01b031690505b919050565b600061099361276e565b60015b602002015190505b90565b60025460009015610a275760006109c26001600064174876e8006001611559565b6109cf9062989680615be6565b905060006109e76001600064174876e8006000611559565b6109f49062989680615be6565b9050816005541015610a085750905061099e565b806005541115610a1b57915061099e9050565b6005549250505061099e565b5060035490565b60025490565b600080600080610a426126bf565b9250925092508460001480610a55575082155b15610a64575091506109849050565b600085610a6f61276a565b610a799190615c44565b905080821015610a8f5782945050505050610984565b81600081610a9b61276a565b610aa59190615c44565b90506000610ab38287615be6565b905060005b87610aeb5782610ad2578698505050505050505050610984565b610adc8383615a9f565b98505050505050505050610984565b610af6600189615c44565b9750600080610b048a61039b565b9250925050868111610b3757610b1a8787615c44565b610b249083615be6565b610b2e9085615a87565b93505050610b6f565b610b418187615c44565b9250610b4d8383615be6565b610b579085615a87565b9350610b638386615a87565b94508095505050610ab8565b81610b84578698505050505050505050610984565b610b8e8a83615a9f565b9a9950505050505050505050565b60075460408051637153966760e11b815290516000928392839233926001600160a01b03169163e2a72cce916004808301926020929190829003018186803b158015610be757600080fd5b505afa158015610bfb573d6000803e3d6000fd5b505050506040513d601f19601f82011682018060405250810190610c1f9190614f10565b6001600160a01b031614610c455760405162461bcd60e51b815260040161042c906154d7565b60008611610c655760405162461bcd60e51b815260040161042c90615676565b60008511610c855760405162461bcd60e51b815260040161042c9061532f565b6000610c8f6109a1565b60408051808201909152888152602081018890526008549192509015801590610cb9575060095415155b15610d2b57610cd588600860005b0154600860015b01546128c0565b602082018190528710610cea57878152610d26565b610cfe87600860015b015460086000610cce565b808252881015610d1e57634e487b7160e01b600052600160045260246000fd5b602081018790525b610d8f565b6402540be400610d71610d59670de0b6b3a7640000610d4a868c615be6565b610d549190615a9f565b61292a565b610d628b61292a565b610d6c9190615c05565b612957565b1115610d8f5760405162461bcd60e51b815260040161042c90615920565b60195481516020830151670de0b6b3a764000090610dae908690615be6565b610db89190615a9f565b610dc29190615a87565b10610ddf5760405162461bcd60e51b815260040161042c9061530c565b610de7614daa565b610def61276e565b81526040805180820191829052610e269160089060029082845b815481526020019060010190808311610e09575050505050612980565b60208201819052610e3690612980565b606082015260005b60028160ff161015610f13576000838260ff1660028110610e6f57634e487b7160e01b600052603260045260246000fd5b602002015183602001518360ff1660028110610e9b57634e487b7160e01b600052603260045260246000fd5b6020020151610eaa9190615a87565b90508083602001518360ff1660028110610ed457634e487b7160e01b600052603260045260246000fd5b602002015280600860ff841660028110610efe57634e487b7160e01b600052603260045260246000fd5b01555080610f0b81615cc9565b915050610e3e565b50600b54600354600091610f2691615be6565b90506040518060400160405280600a600060028110610f5557634e487b7160e01b600052603260045260246000fd5b0154602085015151610f679190615be6565b8152602001670de0b6b3a7640000838560200151600160028110610f9b57634e487b7160e01b600052603260045260246000fd5b6020020151610faa9190615be6565b610fb49190615a9f565b9052602083015260408051808201909152600a546060840151518291610fd991615be6565b8152602001670de0b6b3a764000083856060015160016002811061100d57634e487b7160e01b600052603260045260246000fd5b602002015161101c9190615be6565b6110269190615a9f565b9052606083015260005b60028160ff1610156111c3576000848260ff166002811061106157634e487b7160e01b600052603260045260246000fd5b602002015111156111b157600c8160ff166002811061109057634e487b7160e01b600052603260045260246000fd5b01546007546040805163c575ff7960e01b815290516001600160a01b03938416936323b872dd93169163c575ff79916004808301926020929190829003018186803b1580156110de57600080fd5b505afa1580156110f2573d6000803e3d6000fd5b505050506040513d601f19601f820116820180604052508101906111169190614f10565b30878560ff166002811061113a57634e487b7160e01b600052603260045260246000fd5b60200201516040518463ffffffff1660e01b815260040161115d939291906151b6565b602060405180830381600087803b15801561117757600080fd5b505af115801561118b573d6000803e3d6000fd5b505050506040513d601f19601f820116820180604052508101906111af9190614f2c565b505b806111bb81615cc9565b915050611030565b506013548015611205578251805160209091015160608501516111e7929190612a08565b6040840152806111f561276a565b106112005760016013555b61120e565b60005460408401525b82518051602091820151918501516000926112299291612a08565b90506000808560400151111561126657600254604086015161124b8483615be6565b6112559190615a9f565b61125f9190615c44565b9050611272565b61126f82612ff8565b90505b600081116112925760405162461bcd60e51b815260040161042c9061557a565b80600260008282546112a49190615a87565b90915550506040850151156112cd576112c885600001518660200151600085613052565b6112d3565b60008290555b8a8110156112f35760405162461bcd60e51b815260040161042c90615748565b6112fb6131bd565b8551602087015160025460405133937fd92dda7384b5f0fa573be9bbf63d63ac81a5bbb08ebc31f00c0f066e502396099361133b939192909187916159ee565b60405180910390a28551602090960151959d959c509a509398505050505050505050565b60006008826002811061138257634e487b7160e01b600052603260045260246000fd5b015492915050565b60195490565b600760009054906101000a90046001600160a01b03166001600160a01b031663893d20e86040518163ffffffff1660e01b815260040160206040518083038186803b1580156113de57600080fd5b505afa1580156113f2573d6000803e3d6000fd5b505050506040513d601f19601f820116820180604052508101906114169190614f10565b6001600160a01b0316336001600160a01b0316146114465760405162461bcd60e51b815260040161042c906159a1565b60198190556040517fe57153f539c09242aa5bdd2499bcff6c6895cbd51ff636f6e29c10619f3e9a889061147b9083906159c1565b60405180910390a150565b6000336001600160a01b0316600760009054906101000a90046001600160a01b03166001600160a01b03166355338fc16040518163ffffffff1660e01b815260040160206040518083038186803b1580156114e057600080fd5b505afa1580156114f4573d6000803e3d6000fd5b505050506040513d601f19601f820116820180604052508101906115189190614f10565b6001600160a01b03161461153e5760405162461bcd60e51b815260040161042c906157ab565b61154d868686868660006132e9565b90505b95945050505050565b60008385141561157b5760405162461bcd60e51b815260040161042c9061582c565b6002851061159b5760405162461bcd60e51b815260040161042c90615289565b600284106115bb5760405162461bcd60e51b815260040161042c90615289565b61155085858585600054600354613dcc565b6007546001600160a01b0316331480156115ea5750601a5460ff16155b6116065760405162461bcd60e51b815260040161042c906156e0565b60006116178260000151608061287c565b90506116278183602001516128bc565b600e819055601281905560408301516010556060830151601155608083015160038190556004819055600555905061165d61276a565b6006556040805180820190915260c08301516001600160a01b03908116825260a084015116602082015261169590600c906002614de3565b5060408051808201808352600c5463313ce56760e01b9091529151909182916001600160a01b039091169063313ce56790604480850191602091818703018186803b1580156116e357600080fd5b505afa1580156116f7573d6000803e3d6000fd5b505050506040513d601f19601f8201168201806040525081019061171b9190615181565b611726906012615c5b565b61173190600a615b14565b8152600d546040805163313ce56760e01b815290516020938401936001600160a01b039093169263313ce5679260048082019391829003018186803b15801561177957600080fd5b505afa15801561178d573d6000803e3d6000fd5b505050506040513d601f19601f820116820180604052508101906117b19190615181565b6117bc906012615c5b565b6117c790600a615b14565b90526117d790600a906002614e37565b506117ee670de0b6b3a7640000633b9aca00615be6565b6019555050601a805460ff19166001179055565b60055490565b60008060008587141561182d5760405162461bcd60e51b815260040161042c9061582c565b6002871061184d5760405162461bcd60e51b815260040161042c90615289565b6002861061186d5760405162461bcd60e51b815260040161042c90615289565b600061187b88888888611559565b604051635937325f60e11b8152909150309063b26e64be906118a9908b908b908b9087908c90600401615a09565b602060405180830381600087803b1580156118c357600080fd5b505af19250505080156118f3575060408051601f3d908101601f191682019092526118f091810190615064565b60015b6119f2573d808015611921576040519150601f19603f3d011682016040523d82523d6000602084013e611926565b606091505b508051606014611985576044815110156119525760405162461bcd60e51b815260040161042c906156b6565b6004810190508080602001905181019061196c9190614f48565b60405162461bcd60e51b815260040161042c9190615256565b60008060008380602001905181019061199e91906150c8565b9250925092507f182545acfa9866c9c4fd113da282045b564d223273f9041051a60c78733f0fae338383868d6040516119db9594939291906151f3565b60405180910390a1919650945092506119f5915050565b50505b9450945094915050565b600080336001600160a01b0316600760009054906101000a90046001600160a01b03166001600160a01b031663e2a72cce6040518163ffffffff1660e01b815260040160206040518083038186803b158015611a5a57600080fd5b505afa158015611a6e573d6000803e3d6000fd5b505050506040513d601f19601f82011682018060405250810190611a929190614f10565b6001600160a01b031614611ab85760405162461bcd60e51b815260040161042c906154d7565b60018511611ad85760405162461bcd60e51b815260040161042c9061555a565b600254851115611afa5760405162461bcd60e51b815260040161042c906154b7565b600280549086906000611b0d8385615c44565b9091555060009050611b20600188615c44565b6040805180820191829052600880548252929350600092611b5592600290600960208501808311610e09575050505050612980565b905060005b60028160ff161015611d895760008484848460ff1660028110611b8d57634e487b7160e01b600052603260045260246000fd5b6020020151611b9c9190615be6565b611ba69190615a9f565b905060ff821615611bb75787611bb9565b885b811015611bd85760405162461bcd60e51b815260040161042c90615494565b80838360ff1660028110611bfc57634e487b7160e01b600052603260045260246000fd5b6020020151611c0b9190615c44565b60088360ff1660028110611c2f57634e487b7160e01b600052603260045260246000fd5b0155808360ff841660028110611c5557634e487b7160e01b600052603260045260246000fd5b6020020152600c60ff831660028110611c7e57634e487b7160e01b600052603260045260246000fd5b01546007546040805163c575ff7960e01b815290516001600160a01b039384169363a9059cbb93169163c575ff79916004808301926020929190829003018186803b158015611ccc57600080fd5b505afa158015611ce0573d6000803e3d6000fd5b505050506040513d601f19601f82011682018060405250810190611d049190614f10565b836040518363ffffffff1660e01b8152600401611d229291906151da565b602060405180830381600087803b158015611d3c57600080fd5b505af1158015611d50573d6000803e3d6000fd5b505050506040513d601f19601f82011682018060405250810190611d749190614f2c565b50508080611d8190615cc9565b915050611b5a565b5060025415611dc0578282600054611da19190615be6565b611dab9190615a9f565b600054611db89190615c44565b600055611dc5565b600080555b611dcd6131bd565b8051602082015160025460405133937f0c7095efab4844307a2d270e6feda743289e3f8bd8a4fa71bc0006ef39bb779393611e0d93919290918e916159ee565b60405180910390a28051602090910151909890975095505050505050565b600760009054906101000a90046001600160a01b03166001600160a01b031663893d20e86040518163ffffffff1660e01b815260040160206040518083038186803b158015611e7957600080fd5b505afa158015611e8d573d6000803e3d6000fd5b505050506040513d601f19601f82011682018060405250810190611eb19190614f10565b6001600160a01b0316336001600160a01b031614611ee15760405162461bcd60e51b815260040161042c906159a1565b600154611eec61276a565b1015611f0a5760405162461bcd60e51b815260040161042c906157ec565b600154611f295760405162461bcd60e51b815260040161042c90615708565b6000600155601454601081905560155460118190556040517f466000346b59ec4877e51eb5253518b5238b636e596b47be2a6ab1fe6fdfc31f90611f7090849084906159ca565b60405180910390a15050565b6000333014611f9d5760405162461bcd60e51b815260040161042c90615728565b61154d868686868660016132e9565b600760009054906101000a90046001600160a01b03166001600160a01b031663893d20e86040518163ffffffff1660e01b815260040160206040518083038186803b158015611ffa57600080fd5b505afa15801561200e573d6000803e3d6000fd5b505050506040513d601f19601f820116820180604052508101906120329190614f10565b6001600160a01b0316336001600160a01b0316146120625760405162461bcd60e51b815260040161042c906159a1565b6000600155565b600080831161208a5760405162461bcd60e51b815260040161042c9061534f565b600082116120aa5760405162461bcd60e51b815260040161042c9061560f565b6040805180820190915283815260208101839052600854158015906120d0575060095415155b15612131576120e28460086000610cc7565b6020820181905283106120f75783815261212c565b6121048360086001610cf3565b80825284101561212457634e487b7160e01b600052600160045260246000fd5b602081018390525b61217f565b6402540be400612161612158670de0b6b3a764000061214e6109a1565b610d4a9088615be6565b610d628761292a565b111561217f5760405162461bcd60e51b815260040161042c90615630565b600061218961276e565b60408051808201918290526008805482529293506000926121be92600290600960208501808311610e09575050505050612980565b905060006121cb82612980565b905060005b60028160ff161015612276576000858260ff166002811061220157634e487b7160e01b600052603260045260246000fd5b6020020151848360ff166002811061222957634e487b7160e01b600052603260045260246000fd5b60200201516122389190615a87565b905080848360ff166002811061225e57634e487b7160e01b600052603260045260246000fd5b6020020152508061226e81615cc9565b9150506121d0565b5060408051808201909152600a548351829161229191615be6565b8152600b54600354602086810151930192670de0b6b3a764000092916122b691615be6565b6122c09190615be6565b6122ca9190615a9f565b905260408051808201909152600a548351929450909182916122eb91615be6565b8152600b54600354602085810151930192670de0b6b3a7640000929161231091615be6565b61231a9190615be6565b6123249190615a9f565b9052601354909150600090801561234e5784516020860151612347919085612a08565b9150612354565b60005491505b845160208601516000916123689187612a08565b90506000831561239b57600254846123808483615be6565b61238a9190615a9f565b6123949190615c44565b90506123a7565b6123a482612ff8565b90505b600081116123c75760405162461bcd60e51b815260040161042c90615454565b9750505050505050505b92915050565b600760009054906101000a90046001600160a01b03166001600160a01b031663893d20e86040518163ffffffff1660e01b815260040160206040518083038186803b15801561242557600080fd5b505afa158015612439573d6000803e3d6000fd5b505050506040513d601f19601f8201168201806040525081019061245d9190614f10565b6001600160a01b0316336001600160a01b03161461248d5760405162461bcd60e51b815260040161042c906159a1565b600154156124ad5760405162461bcd60e51b815260040161042c90615517565b670de0b6b3a76400008211156124c35760105491505b62093a808110156124f357600081116124ee5760405162461bcd60e51b815260040161042c90615538565b6124f8565b506011545b60006203f48061250661276a565b6125109190615a87565b60018190556014849055601583905560405190915081907f4e8638fc6a89dd8fbbec493ad3e9f2f3c58eefd065477a51884f81cee52b611b9061255690869086906159ca565b60405180910390a2505050565b60035490565b600061257361276e565b6000610996565b600760009054906101000a90046001600160a01b03166001600160a01b031663893d20e86040518163ffffffff1660e01b815260040160206040518083038186803b1580156125c857600080fd5b505afa1580156125dc573d6000803e3d6000fd5b505050506040513d601f19601f820116820180604052508101906126009190614f10565b6001600160a01b0316336001600160a01b0316146126305760405162461bcd60e51b815260040161042c906159a1565b600061263a61276e565b90506000612648828261076a565b905061265681836001610780565b600e8190556012819055905061266a61276a565b600f5561267561276a565b601355815160208301517f5f0e7fba3d100c9e19446e1c92fe436f0a9a22fe99669360e4fdd6d3de2fc28491906126aa61276a565b604051611f70939291906159d8565b60045490565b601654600090819081906126ea5760006126d76109a1565b6126df61276a565b925092509250612765565b6016546000906126fc90600190615c44565b905060006016828154811061272157634e487b7160e01b600052603260045260246000fd5b600091825260209182902060408051606081018252600390930290910180548084526001820154948401859052600290910154929091018290529650909450925050505b909192565b4290565b612776614d8c565b601354601254600061278f826001600160801b0361402c565b9050600061279f83607f1961287c565b9050836127aa61276a565b101561285e57600e54600f546127c08187615c44565b9550806127cb61276a565b6127d59190615c44565b905060006127e38288615c44565b9050866127f08386615be6565b826127fd86607f1961287c565b6128079190615be6565b6128119190615a87565b61281b9190615a9f565b9350866128288387615be6565b8261283a866001600160801b0361402c565b6128449190615be6565b61284e9190615a87565b6128589190615a9f565b94505050505b60405180604001604052808281526020018381525094505050505090565b6000808213156128995761288f82612957565b83901b90506123d1565b60008212156128b5576128ab82612957565b83901c90506123d1565b5090919050565b1790565b60008084116128e15760405162461bcd60e51b815260040161042c90615391565b6000831180156128f15750600082115b61290d5760405162461bcd60e51b815260040161042c906153b0565b826129188386615be6565b6129229190615a9f565b949350505050565b60006001600160ff1b038211156129535760405162461bcd60e51b815260040161042c9061584c565b5090565b6000808212156129775761297261296d83614030565b61405e565b6123d1565b6123d18261405e565b612988614d8c565b612990614d8c565b60005b60028160ff161015612a0157838160ff16600281106129c257634e487b7160e01b600052603260045260246000fd5b6020020151828260ff16600281106129ea57634e487b7160e01b600052603260045260246000fd5b6020020152806129f981615cc9565b915050612993565b5092915050565b60006001600a612710612a1c600280615b05565b612a269190615be6565b612a309190615a9f565b612a3a9190615c44565b84118015612a765750612710612a51600280615b05565b612a5b9190615be6565b612a6890620186a0615be6565b612a73906001615a87565b84105b612a925760405162461bcd60e51b815260040161042c906154f7565b612aa260016402540be400615c44565b83118015612ac05750612abd66470de4df8200006001615a87565b83105b612adc5760405162461bcd60e51b815260040161042c9061576b565b6000612ae783612980565b602081015181519192501115612b1157506040805180820190915260208381015182528351908201525b8051633b9ac9ff108015612b33575080516d314dc6448d9338c15b0a00000001115b612b4f5760405162461bcd60e51b815260040161042c9061580b565b80516020820151655af3107a3fff9190612b7190670de0b6b3a7640000615be6565b612b7b9190615a9f565b11612b985760405162461bcd60e51b815260040161042c906152cb565b6000612ba5826000614080565b612bb0906002615be6565b60208301518351919250600091612bc79190615a87565b905060005b60ff8160ff161015612fd857826000612be58280615be6565b60208701518751612bf7600280615b14565b612c0990670de0b6b3a7640000615be6565b612c139190615be6565b612c1d9190615be6565b612c279190615a9f565b90506000612c3d8a670de0b6b3a7640000615a87565b905081811115612c6357612c518282615c44565b612c5c906001615a87565b9050612c7b565b612c6d8183615c44565b612c78906001615a87565b90505b60008b612710838d8181612c978d670de0b6b3a7640000615be6565b612ca19190615a9f565b612cab9190615be6565b612cb59190615a9f565b612cbf9190615be6565b612cc99190615be6565b612cd39190615a9f565b905060008284612cec6002671bc16d674ec80000615be6565b612cf69190615be6565b612d009190615a9f565b90506000670de0b6b3a7640000612d178a84615be6565b612d219190615a9f565b85612d2d600286615be6565b612d379190615a9f565b670de0b6b3a7640000612d4a858c615be6565b612d549190615a9f565b612d5e908b615a87565b612d689190615a87565b612d729190615c44565b9050600081612d818a82615a87565b612d8b908c615be6565b612d959190615a9f565b9050600082612da48c80615be6565b612dae9190615a9f565b905086670de0b6b3a76400001115612e1f5786612dd381670de0b6b3a7640000615c44565b670de0b6b3a7640000612de68689615a9f565b612df0908f615be6565b612dfa9190615a9f565b612e049190615be6565b612e0e9190615a9f565b612e189082615a87565b9050612e7a565b86612e32670de0b6b3a764000082615c44565b670de0b6b3a7640000612e458689615a9f565b612e4f908f615be6565b612e599190615a9f565b612e639190615be6565b612e6d9190615a9f565b612e779082615c44565b90505b80821115612e9357612e8c8183615c44565b9a50612eac565b6002612e9f8383615c44565b612ea99190615a9f565b9a505b6000888c1115612ec757612ec0898d615c44565b9050612ed4565b612ed18c8a615c44565b90505b612ee5662386f26fc100008d614172565b612ef582655af3107a4000615be6565b1015612fbc5760005b60028160ff161015612fa65760008e8260ff1660028110612f2f57634e487b7160e01b600052603260045260246000fd5b6020020151905060008e612f4b83670de0b6b3a7640000615be6565b612f559190615a9f565b9050662386f26fc0ffff81118015612f75575068056bc75e2d6310000181105b612f915760405162461bcd60e51b815260040161042c90615696565b50508080612f9e90615cc9565b915050612efe565b508b9d5050505050505050505050505050612ff1565b5050505050505050508080612fd090615cc9565b915050612bcc565b5060405162461bcd60e51b815260040161042c906158f6565b9392505050565b60008060405180604001604052806002856130139190615a9f565b815260200160026003546130279190615be6565b613039670de0b6b3a764000087615be6565b6130439190615a9f565b90529050612ff1816001614080565b60045460035460055460065461306661276a565b8110156131045760115460006130aa828461307f61276a565b6130899190615c44565b61309b90670de0b6b3a7640000615be6565b6130a59190615a9f565b614182565b9050670de0b6b3a76400006130bf8288615be6565b6130d183670de0b6b3a7640000615c44565b6130db9087615be6565b6130e59190615a87565b6130ef9190615a9f565b600481905595506130fe61276a565b60065550505b848061311f57885160208a015161311c91908a612a08565b90505b861561312d578692506131a2565b600061313889612980565b805190915060009061314e90620f424090615a9f565b825190915081908390613162908390615a87565b9052508a5160208c015161317a91908486600161431c565b60208b01516131899190615c44565b6131938288615be6565b61319d9190615a9f565b945050505b60058390556131b289898361493c565b505050505050505050565b600760009054906101000a90046001600160a01b03166001600160a01b03166355338fc16040518163ffffffff1660e01b815260040160206040518083038186803b15801561320b57600080fd5b505afa15801561321f573d6000803e3d6000fd5b505050506040513d601f19601f820116820180604052508101906132439190614f10565b600d54604051632d62674960e11b81526001600160a01b0392831692635ac4ce9292613274929116906004016151a2565b600060405180830381600087803b15801561328e57600080fd5b505af11580156132a2573d6000803e3d6000fd5b505060408051808201918290526008805482526132d8945090925090600290600960208501808311610e09575050505050612980565b6132e6906017906002614e37565b50565b60008587141561330b5760405162461bcd60e51b815260040161042c9061582c565b6002871061332b5760405162461bcd60e51b815260040161042c90615289565b6002861061334b5760405162461bcd60e51b815260040161042c90615289565b6000851161336b5760405162461bcd60e51b815260040161042c906152ec565b613373614e65565b61337b61276e565b815260408051808201918290526008805482526133ac92600290600960208501808311610e09575050505050612980565b6020820181905287600281106133d257634e487b7160e01b600052603260045260246000fd5b60200201518160800181815250508060200151886002811061340457634e487b7160e01b600052603260045260246000fd5b602002015160a08201528361342857858160a001516134239190615c44565b613438565b858160a001516134389190615a87565b8160200151896002811061345c57634e487b7160e01b600052603260045260246000fd5b6020020181815250508060200151886002811061348957634e487b7160e01b600052603260045260246000fd5b6020020151600889600281106134af57634e487b7160e01b600052603260045260246000fd5b015560408051808201909152600a5460208301515182916134cf91615be6565b8152600b54600354602085810151810151930192670de0b6b3a764000092916134f791615be6565b6135019190615be6565b61350b9190615a9f565b90526020820152600a5460c0820152600b5460e0820152600188141561353c57600b5460c0820152600a5460e08201525b601354801561364e578160c001518260a00181815161355b9190615be6565b905250881561358f57670de0b6b3a76400006003548360a0015161357f9190615be6565b6135899190615a9f565b60a08301525b600082602001518a600281106135b557634e487b7160e01b600052603260045260246000fd5b602002015190508260a0015183602001518b600281106135e557634e487b7160e01b600052603260045260246000fd5b6020020152825161360a90600060200201518451600160200201518560200151612a08565b600055602083015181908b6002811061363357634e487b7160e01b600052603260045260246000fd5b60200201528161364161276a565b1061364c5760016013555b505b506007546040805163c575ff7960e01b815290516000926001600160a01b03169163c575ff79916004808301926020929190829003018186803b15801561369457600080fd5b505afa1580156136a8573d6000803e3d6000fd5b505050506040513d601f19601f820116820180604052508101906136cc9190614f10565b9050841561395357600c89600281106136f557634e487b7160e01b600052603260045260246000fd5b01546040516323b872dd60e01b81526001600160a01b03909116906323b872dd9061372890849030908c906004016151b6565b602060405180830381600087803b15801561374257600080fd5b505af1158015613756573d6000803e3d6000fd5b505050506040513d601f19601f8201168201806040525081019061377a9190614f2c565b5081518051602091820151918401516000546137989391908c61431c565b826020015189600281106137bc57634e487b7160e01b600052603260045260246000fd5b60200201516137cb9190615c44565b925082826020015189600281106137f257634e487b7160e01b600052603260045260246000fd5b602002018181516138039190615c44565b905250613811600184615c44565b9250871561383b5760035461382e670de0b6b3a764000085615be6565b6138389190615a9f565b92505b60e082015161384a9084615a9f565b92508583101561386c5760405162461bcd60e51b815260040161042c906153cf565b828260800181815161387e9190615c44565b9052506080820151600889600281106138a757634e487b7160e01b600052603260045260246000fd5b0155600c88600281106138ca57634e487b7160e01b600052603260045260246000fd5b015460405163a9059cbb60e01b81526001600160a01b039091169063a9059cbb906138fb90849087906004016151da565b602060405180830381600087803b15801561391557600080fd5b505af1158015613929573d6000803e3d6000fd5b505050506040513d601f19601f8201168201806040525081019061394d9190614f2c565b50613bd5565b600c896002811061397457634e487b7160e01b600052603260045260246000fd5b015460405163a9059cbb60e01b81526001600160a01b039091169063a9059cbb906139a59084908b906004016151da565b602060405180830381600087803b1580156139bf57600080fd5b505af11580156139d3573d6000803e3d6000fd5b505050506040513d601f19601f820116820180604052508101906139f79190614f2c565b5081602001518860028110613a1c57634e487b7160e01b600052603260045260246000fd5b60200201518251613a45906000602002015184516001602002015185602001516000548d61431c565b613a4f9190615c44565b92508282602001518960028110613a7657634e487b7160e01b600052603260045260246000fd5b60200201818151613a879190615a87565b905250613a95600184615a87565b92508715613abf57600354613ab2670de0b6b3a764000085615be6565b613abc9190615a9f565b92505b60e0820151613ace9084615a9f565b925085831115613af05760405162461bcd60e51b815260040161042c90615652565b8282608001818151613b029190615a87565b905250608082015160088960028110613b2b57634e487b7160e01b600052603260045260246000fd5b0155600c8860028110613b4e57634e487b7160e01b600052603260045260246000fd5b01546040516323b872dd60e01b81526001600160a01b03909116906323b872dd90613b81908490309088906004016151b6565b602060405180830381600087803b158015613b9b57600080fd5b505af1158015613baf573d6000803e3d6000fd5b505050506040513d601f19601f82011682018060405250810190613bd39190614f2c565b505b8160e0015182608001818151613beb9190615be6565b9052508715613c1f57670de0b6b3a76400006003548360800151613c0f9190615be6565b613c199190615a9f565b60808301525b816080015182602001518960028110613c4857634e487b7160e01b600052603260045260246000fd5b6020020152620186a087118015613c615750620186a083115b15613ce05760008260c0015188613c789190615be6565b905060008360e0015185613c8c9190615be6565b90508a613cba5780613ca683670de0b6b3a7640000615be6565b613cb09190615a9f565b6040850152613cdd565b81613ccd82670de0b6b3a7640000615be6565b613cd79190615a9f565b60408501525b50505b613cf98260000151836020015184604001516000613052565b6000613d036109a1565b90508415613d2257604051818152886020820152846040820152606081fd5b6040805160608101825260168054825260208201849052918101613d4461276a565b90528154600181810184556000938452602093849020835160039093020191825592820151928101929092556040908101516002909201919091555133907f06fd8c5d0f3f8e8499ff366a63225d36df3872a842b5b4a6ad0183926f3da18690613db7908d908c908e908a908d90615a09565b60405180910390a25050509695505050505050565b600080600a60010154613ddf9084615be6565b6040805180820191829052600880548252929350600092613e1492600290600960208501808311610e09575050505050612980565b90506000613e2061276e565b60135490915015613e475780516020820151613e449190613e3f614cbd565b612a08565b95505b86613e815787828b60028110613e6d57634e487b7160e01b600052603260045260246000fd5b6020020151613e7c9190615c44565b613eb1565b87828b60028110613ea257634e487b7160e01b600052603260045260246000fd5b6020020151613eb19190615a87565b828b60028110613ed157634e487b7160e01b600052603260045260246000fd5b602002015260408051808201909152600a5483518291613ef091615be6565b8152602001670de0b6b3a7640000858560016020020151613f119190615be6565b613f1b9190615a9f565b905281516020830151919350600091613f379190858a8e61431c565b9050600088613f7f57838b60028110613f6057634e487b7160e01b600052603260045260246000fd5b6020020151613f6f9083615c44565b613f7a906001615a87565b613fbb565b600182858d60028110613fa257634e487b7160e01b600052603260045260246000fd5b6020020151613fb19190615c44565b613fbb9190615c44565b905081848c60028110613fde57634e487b7160e01b600052603260045260246000fd5b60200201528a1561400d5784613ffc670de0b6b3a764000083615be6565b6140069190615a9f565b905061401d565b600a5461401a9082615a9f565b90505b9b9a5050505050505050505050565b1690565b6000600160ff1b82136140555760405162461bcd60e51b815260040161042c90615960565b6123d182615ce9565b6000808212156129535760405162461bcd60e51b815260040161042c90615599565b60008061408c84612980565b905082801561409f575060208101518151105b156140be57506040805180820190915260208481015182528451908201525b80516000805b60ff8160ff161015612fd85760208401518451849160029183916140e791615be6565b6140f19190615a9f565b6140fb9086615a87565b6141059190615a9f565b935080841115614120576141198185615c44565b925061412d565b61412a8482615c44565b92505b60018311158061414d57508361414b84670de0b6b3a7640000615be6565b105b1561415f5783955050505050506123d1565b508061416a81615cc9565b9150506140c4565b6000818310156128b55750919050565b600080614197670de0b6b3a764000084615a9f565b905060006141ad82670de0b6b3a7640000615be6565b6141b79085615c44565b9050603b8211156141cd57600092505050610984565b60006141da836002615b05565b6141ec90670de0b6b3a7640000615a9f565b9050816141fd579250610984915050565b670de0b6b3a76400006706f05b59d3b2000081600060015b610100811015612fd857600061423382670de0b6b3a7640000615be6565b90506000614249670de0b6b3a764000083615c44565b9050808911156142675761425d818a615c44565b9315939050614274565b6142718982615c44565b90505b81670de0b6b3a76400006142888884615be6565b6142929190615a9f565b61429c9089615be6565b6142a69190615a9f565b965083156142bf576142b88786615c44565b94506142cc565b6142c98786615a87565b94505b6402540be40087101561430757670de0b6b3a76400006142ec868a615be6565b6142f69190615a9f565b9a5050505050505050505050610984565b5050808061431490615cae565b915050614215565b60006001600a612710614330600280615b05565b61433a9190615be6565b6143449190615a9f565b61434e9190615c44565b8611801561438a5750612710614365600280615b05565b61436f9190615be6565b61437c90620186a0615be6565b614387906001615a87565b86105b6143a65760405162461bcd60e51b815260040161042c906154f7565b6143b660016402540be400615c44565b851180156143d457506143d166470de4df8200006001615a87565b85105b6143f05760405162461bcd60e51b815260040161042c9061576b565b67016345785d89ffff8311801561441457506d314dc6448d9338c15b0a0000000183105b6144305760405162461bcd60e51b815260040161042c906155ce565b614438614eb6565b84614444846001615c44565b6002811061446257634e487b7160e01b600052603260045260246000fd5b60200201518152614474600280615b14565b81516144809190615be6565b61448b600286615b14565b6144959190615a9f565b6040820152805184906144b16002670de0b6b3a7640000615be6565b6144bb9190615be6565b6144c59190615a9f565b608082015260016144de6002662386f26fc10000615be6565b6144e89190615c44565b816080015111801561451b5750614509600268056bc75e2d63100000615be6565b614514906001615a87565b8160800151105b6145375760405162461bcd60e51b815260040161042c90615696565b61456f614568655af3107a400083600001516145539190615a9f565b614563655af3107a400088615a9f565b614172565b6064614172565b60c082015260005b60ff8160ff161015612fd857604082015160208301819052608083015186916002916145a39190615be6565b6145ad9190615be6565b6145b79190615a9f565b6060830152604082015182516145cd9190615a87565b60e08301526145e487670de0b6b3a7640000615a87565b60a083018190526060830151101561461f5781606001518260a0015161460a9190615c44565b614615906001615a87565b60a0830152614644565b8160a0015182606001516146339190615c44565b61463e906001615a87565b60a08301525b60a08201516000908990612710908a81816146678c670de0b6b3a7640000615be6565b6146719190615a9f565b61467b9190615be6565b6146859190615a9f565b61468f9190615be6565b6146999190615be6565b6146a39190615a9f565b905060008360a001518460600151671bc16d674ec800006146c49190615be6565b6146ce9190615a9f565b6146e090670de0b6b3a7640000615a87565b9050600082828660e001516146f59190615be6565b604087015161470c90670de0b6b3a7640000615be6565b6147169190615a87565b6147209190615a87565b9050600061472e838a615be6565b90508082101561475857600286602001516147499190615a9f565b60408701525061492a92505050565b6147628183615c44565b915060008660400151836147769190615a9f565b905060006147848287615a9f565b90506000886060015182670de0b6b3a76400006147a19190615be6565b6147ab9190615a9f565b836147be8e670de0b6b3a7640000615be6565b6147c89088615a87565b6147d29190615a9f565b6147dc9190615a87565b9050828960e00151670de0b6b3a76400006147f79190615be6565b6148019190615a9f565b61480b9083615a87565b91508181101561483057600289602001516148269190615a9f565b60408a0152614840565b61483a8282615c44565b60408a01525b600089602001518a60400151111561486d5789602001518a604001516148669190615c44565b9050614884565b89604001518a602001516148819190615c44565b90505b6148a28a60c00151655af3107a40008c604001516145639190615a9f565b8110156149215760008d8b60400151670de0b6b3a76400006148c49190615be6565b6148ce9190615a9f565b9050662386f26fc0ffff811180156148ee575068056bc75e2d6310000181105b61490a5760405162461bcd60e51b815260040161042c906158b5565b8a604001519b505050505050505050505050611550565b50505050505050505b8061493481615cc9565b915050614577565b6000600354600454670de0b6b3a76400006149579190615be6565b6149619190615a9f565b9050670de0b6b3a764000081111561498c57614985670de0b6b3a764000082615c44565b90506149a1565b61499e81670de0b6b3a7640000615c44565b90505b6010546000906149b690614563600a85615a9f565b905080821115614cb05760006149ca614d3d565b905060008082136149dc5760006149df565b60015b6009549091506149ee83612957565b6149f9906002615be6565b1015614cad576000614a1b60016000614a1186612957565b858a600354613dcc565b905060008560045486614a2e9190615be6565b614a388789615c44565b600354614a459190615be6565b614a4f9190615a87565b614a599190615a9f565b9050600060405180604001604052808a600060028110614a8957634e487b7160e01b600052603260045260246000fd5b60200201518152602001600354848c600160028110614ab857634e487b7160e01b600052603260045260246000fd5b6020020151614ac79190615be6565b614ad19190615a9f565b90528a5160208c0151919250600091614aeb919084612a08565b90506000614b0760016000614aff8a612957565b898689613dcc565b90506000600760009054906101000a90046001600160a01b03166001600160a01b03166355338fc16040518163ffffffff1660e01b815260040160206040518083038186803b158015614b5957600080fd5b505afa158015614b6d573d6000803e3d6000fd5b505050506040513d601f19601f82011682018060405250810190614b919190614f10565b600d54604051638e9dafdb60e01b81526001600160a01b0392831692638e9dafdb92614bc2929116906004016151a2565b60206040518083038186803b158015614bda57600080fd5b505afa158015614bee573d6000803e3d6000fd5b505050506040513d601f19601f82011682018060405250810190614c129190615064565b90506000614c2b614c228861292a565b610d628561292a565b9050614c38816002615be6565b821115614ca557614c476131bd565b600386905560008490556004546040517f3a18146952241c39559c93edc7a200367f24fc588422227359fa7ddc2778e03c91614c8d913391869186918a918d9190615223565b60405180910390a15050505050505050505050614cb8565b505050505050505b50505b505060008190555b505050565b614cc5614d8c565b60408051808201909152600a546008548291614ce091615be6565b8152602001670de0b6b3a7640000600354600a600160028110614d1357634e487b7160e01b600052603260045260246000fd5b0154600954614d229190615be6565b614d2c9190615be6565b614d369190615a9f565b9052905090565b601854600090614d6257600954614d5b90610d549061271090615a9f565b905061099e565b614d71601760015b015461292a565b614d7d60086001614d6a565b614d879190615c05565b905090565b60405180604001604052806002906020820280368337509192915050565b6040518060800160405280614dbd614d8c565b8152602001614dca614d8c565b815260200160008152602001614dde614d8c565b905290565b8260028101928215614e2b579160200282015b82811115614e2b57825182546001600160a01b0319166001600160a01b03909116178255602090920191600190910190614df6565b50612953929150614efb565b8260028101928215614e2b579160200282015b82811115614e2b578251825591602001919060010190614e4a565b604051806101000160405280614e79614d8c565b8152602001614e86614d8c565b81526020016000815260200160008152602001600081526020016000815260200160008152602001600081525090565b60405180610100016040528060008152602001600081526020016000815260200160008152602001600081526020016000815260200160008152602001600081525090565b5b808211156129535760008155600101614efc565b600060208284031215614f21578081fd5b8151612ff181615d2f565b600060208284031215614f3d578081fd5b8151612ff181615d44565b600060208284031215614f59578081fd5b815167ffffffffffffffff80821115614f70578283fd5b818401915084601f830112614f83578283fd5b815181811115614f9557614f95615d19565b614fa8601f8201601f1916602001615a56565b9150808252856020828501011115614fbe578384fd5b614fcf816020840160208601615c7e565b50949350505050565b600060e08284031215614fe9578081fd5b614ff360e0615a56565b823581526020830135602082015260408301356040820152606083013560608201526080830135608082015260a083013561502d81615d2f565b60a082015260c083013561504081615d2f565b60c08201529392505050565b60006020828403121561505d578081fd5b5035919050565b600060208284031215615075578081fd5b5051919050565b6000806040838503121561508e578081fd5b50508035926020909101359150565b6000806000606084860312156150b1578081fd5b505081359360208301359350604090920135919050565b6000806000606084860312156150dc578283fd5b8351925060208401519150604084015190509250925092565b6000806000806080858703121561510a578081fd5b843593506020850135925060408501359150606085013561512a81615d44565b939692955090935050565b600080600080600060a0868803121561514c578081fd5b85359450602086013593506040860135925060608601359150608086013561517381615d44565b809150509295509295909350565b600060208284031215615192578081fd5b815160ff81168114612ff1578182fd5b6001600160a01b0391909116815260200190565b6001600160a01b039384168152919092166020820152604081019190915260600190565b6001600160a01b03929092168252602082015260400190565b6001600160a01b039590951685526020850193909352604084019190915260608301521515608082015260a00190565b6001600160a01b03969096168652602086019490945260408501929092526060840152608083015260a082015260c00190565b6000602082528251806020840152615275816040850160208701615c7e565b601f01601f19169190910160400192915050565b60208082526008908201526720a6afa1a4a7a7a960c11b604082015260600190565b602080825260069082015265105357d1d51360d21b604082015260600190565b60208082526007908201526641575f5553424d60c81b604082015260600190565b6020808252600690820152650414d5f4149360d41b604082015260600190565b602080825260099082015268414d5f475454564c4360b81b604082015260600190565b6020808252600690820152650414d5f4241360d41b604082015260600190565b6020808252600790820152660414d5f435141360cc1b604082015260600190565b602080825260079082015266414d5f4143545360c81b604082015260600190565b602080825260059082015264414d5f494160d81b604082015260600190565b602080825260059082015264105357d25360da1b604082015260600190565b6020808252600a9082015269414d5f4f53505753454960b01b604082015260600190565b602080825260069082015265105357d0551360d21b604082015260600190565b602080825260079082015266105357d050d51360ca1b604082015260600190565b602080825260069082015265414d5f47545360d01b604082015260600190565b602080825260069082015265414d5f434e4d60d01b604082015260600190565b60208082526006908201526520a6afaa262d60d11b604082015260600190565b602080825260099082015268105357d3d4d415d49360ba1b604082015260600190565b60208082526006908201526520a6afa627a360d11b604082015260600190565b6020808252600690820152650414d5f4f4c560d41b604082015260600190565b60208082526006908201526541575f55534160d01b604082015260600190565b6020808252600790820152660414d5f41444e360cc1b604082015260600190565b6020808252600890820152670414d5f4d414854360c41b604082015260600190565b60208082526006908201526520a6afa624ad60d11b604082015260600190565b602080825260059082015264414d5f4e4d60d81b604082015260600190565b6020808252818101527f53616665436173743a2076616c7565206d75737420626520706f736974697665604082015260600190565b6020808252600690820152651055d7d554d160d21b604082015260600190565b602080825260079082015266414d5f4743545360c81b604082015260600190565b6020808252600790820152660414d5f434241360cc1b604082015260600190565b602080825260089082015267414d5f434942494160c01b604082015260600190565b6020808252600a9082015269414d5f4f53505753454f60b01b604082015260600190565b6020808252600690820152650414d5f5141360d41b604082015260600190565b602080825260069082015265082aebeaaa6b60d31b604082015260600190565b60208082526010908201526f2ab732bc3832b1ba32b21032b93937b960811b604082015260600190565b6020808252600e908201526d20a6a69d102327a92124a22222a760911b604082015260600190565b60208082526006908201526520a6afa0a22d60d11b604082015260600190565b602080825260069082015265414d5f4f414d60d01b604082015260600190565b602080825260099082015268105357d3d4d415d05360ba1b604082015260600190565b60208082526006908201526541575f55534760d01b604082015260600190565b602080825260069082015265414d5f41545360d01b604082015260600190565b602080825260069082015265105357d3d35560d21b604082015260600190565b602080825260079082015266105357d1d0d51360ca1b604082015260600190565b602080825260059082015264105357d25560da1b604082015260600190565b60208082526007908201526641575f5553514d60c81b604082015260600190565b602080825260069082015265414d5f53434960d01b604082015260600190565b60208082526028908201527f53616665436173743a2076616c756520646f65736e27742066697420696e2061604082015267371034b73a191a9b60c11b606082015260800190565b602080825260079082015266414d5f4354545360c81b604082015260600190565b60208082526006908201526541575f55535960d01b604082015260600190565b602080825260079082015266414d5f4654545360c81b604082015260600190565b60208082526010908201526f446964206e6f7420636f6e766572676560801b604082015260600190565b602080825260079082015266414d5f4942494160c81b604082015260600190565b60208082526005908201526420a6afa62d60d91b604082015260600190565b60208082526021908201527f4661697274726164654d6174683a20696e76657273696f6e206f766572666c6f6040820152607760f81b606082015260800190565b602080825260069082015265414d5f4f464f60d01b604082015260600190565b90815260200190565b918252602082015260400190565b9283526020830191909152604082015260600190565b93845260208401929092526040830152606082015260800190565b9485526020850193909352604084019190915260608301521515608082015260a00190565b958652602086019490945260408501929092526060840152608083015260a082015260c00190565b604051601f8201601f1916810167ffffffffffffffff81118282101715615a7f57615a7f615d19565b604052919050565b60008219821115615a9a57615a9a615d03565b500190565b600082615aba57634e487b7160e01b81526012600452602481fd5b500490565b80825b6001808611615ad15750615afc565b818704821115615ae357615ae3615d03565b80861615615af057918102915b9490941c938002615ac2565b94509492505050565b6000612ff16000198484615b22565b6000612ff160001960ff8516845b600082615b3157506001612ff1565b81615b3e57506000612ff1565b8160018114615b545760028114615b5e57615b8b565b6001915050612ff1565b60ff841115615b6f57615b6f615d03565b6001841b915084821115615b8557615b85615d03565b50612ff1565b5060208310610133831016604e8410600b8410161715615bbe575081810a83811115615bb957615bb9615d03565b612ff1565b615bcb8484846001615abf565b808604821115615bdd57615bdd615d03565b02949350505050565b6000816000190483118215151615615c0057615c00615d03565b500290565b60008083128015600160ff1b850184121615615c2357615c23615d03565b6001600160ff1b0384018313811615615c3e57615c3e615d03565b50500390565b600082821015615c5657615c56615d03565b500390565b600060ff821660ff841680821015615c7557615c75615d03565b90039392505050565b60005b83811015615c99578181015183820152602001615c81565b83811115615ca8576000848401525b50505050565b6000600019821415615cc257615cc2615d03565b5060010190565b600060ff821660ff811415615ce057615ce0615d03565b60010192915050565b6000600160ff1b821415615cff57615cff615d03565b0390565b634e487b7160e01b600052601160045260246000fd5b634e487b7160e01b600052604160045260246000fd5b6001600160a01b03811681146132e657600080fd5b80151581146132e657600080fdfea264697066735822122045f386a3bd5f6ff92aa2476005ae66e614b2b4afdad0ee6714ae536cb57f735f64736f6c63430008010033",
    "linkReferences": {},
    "deployedLinkReferences": {}
}