{
  "_format": "hh-sol-artifact-1",
  "contractName": "Amm",
  "sourceName": "contracts/amm/Amm.sol",
  "abi": [
    {
      "anonymous": false,
      "inputs": [
        {
          "indexed": true,
          "internalType": "address",
          "name": "provider",
          "type": "address"
        },
        {
          "indexed": false,
          "internalType": "uint256",
          "name": "amount0",
          "type": "uint256"
        },
        {
          "indexed": false,
          "internalType": "uint256",
          "name": "amount1",
          "type": "uint256"
        },
        {
          "indexed": false,
          "internalType": "uint256",
          "name": "liquidity",
          "type": "uint256"
        },
        {
          "indexed": false,
          "internalType": "uint256",
          "name": "totalLiquidity",
          "type": "uint256"
        }
      ],
      "name": "AddLiquidity",
      "type": "event"
    },
    {
      "anonymous": false,
      "inputs": [
        {
          "indexed": false,
          "internalType": "address",
          "name": "sender",
          "type": "address"
        },
        {
          "indexed": false,
          "internalType": "uint256",
          "name": "amountIn",
          "type": "uint256"
        },
        {
          "indexed": false,
          "internalType": "uint256",
          "name": "amountOut",
          "type": "uint256"
        },
        {
          "indexed": false,
          "internalType": "uint256",
          "name": "priceAfter",
          "type": "uint256"
        },
        {
          "indexed": false,
          "internalType": "bool",
          "name": "isSell",
          "type": "bool"
        }
      ],
      "name": "CalcPriceAfterSwap",
      "type": "event"
    },
    {
      "anonymous": false,
      "inputs": [
        {
          "indexed": false,
          "internalType": "address",
          "name": "clearingHouse",
          "type": "address"
        }
      ],
      "name": "ClearingHouseChanged",
      "type": "event"
    },
    {
      "anonymous": false,
      "inputs": [
        {
          "indexed": true,
          "internalType": "uint256",
          "name": "deadline",
          "type": "uint256"
        },
        {
          "indexed": false,
          "internalType": "uint256",
          "name": "adjustmentStep",
          "type": "uint256"
        },
        {
          "indexed": false,
          "internalType": "uint256",
          "name": "maHalfTime",
          "type": "uint256"
        }
      ],
      "name": "CommitNewParameters",
      "type": "event"
    },
    {
      "anonymous": false,
      "inputs": [
        {
          "indexed": false,
          "internalType": "address",
          "name": "liquidityProvider",
          "type": "address"
        }
      ],
      "name": "LiquidityProviderChanged",
      "type": "event"
    },
    {
      "anonymous": false,
      "inputs": [
        {
          "indexed": false,
          "internalType": "address",
          "name": "marketTaker",
          "type": "address"
        }
      ],
      "name": "MarketTakerChanged",
      "type": "event"
    },
    {
      "anonymous": false,
      "inputs": [
        {
          "indexed": false,
          "internalType": "uint256",
          "name": "adjustmentStep",
          "type": "uint256"
        },
        {
          "indexed": false,
          "internalType": "uint256",
          "name": "maHalfTime",
          "type": "uint256"
        }
      ],
      "name": "NewParameters",
      "type": "event"
    },
    {
      "anonymous": false,
      "inputs": [
        {
          "indexed": true,
          "internalType": "address",
          "name": "previousOwner",
          "type": "address"
        },
        {
          "indexed": true,
          "internalType": "address",
          "name": "newOwner",
          "type": "address"
        }
      ],
      "name": "OwnershipTransferred",
      "type": "event"
    },
    {
      "anonymous": false,
      "inputs": [
        {
          "indexed": false,
          "internalType": "address",
          "name": "account",
          "type": "address"
        }
      ],
      "name": "Paused",
      "type": "event"
    },
    {
      "anonymous": false,
      "inputs": [
        {
          "indexed": false,
          "internalType": "uint256",
          "name": "initialA",
          "type": "uint256"
        },
        {
          "indexed": false,
          "internalType": "uint256",
          "name": "futureA",
          "type": "uint256"
        },
        {
          "indexed": false,
          "internalType": "uint256",
          "name": "initialGamma",
          "type": "uint256"
        },
        {
          "indexed": false,
          "internalType": "uint256",
          "name": "futureGamma",
          "type": "uint256"
        },
        {
          "indexed": false,
          "internalType": "uint256",
          "name": "initialTime",
          "type": "uint256"
        },
        {
          "indexed": false,
          "internalType": "uint256",
          "name": "futureTime",
          "type": "uint256"
        }
      ],
      "name": "RampAgamma",
      "type": "event"
    },
    {
      "anonymous": false,
      "inputs": [
        {
          "indexed": true,
          "internalType": "address",
          "name": "provider",
          "type": "address"
        },
        {
          "indexed": false,
          "internalType": "uint256",
          "name": "amount0",
          "type": "uint256"
        },
        {
          "indexed": false,
          "internalType": "uint256",
          "name": "amount1",
          "type": "uint256"
        },
        {
          "indexed": false,
          "internalType": "uint256",
          "name": "liquidity",
          "type": "uint256"
        },
        {
          "indexed": false,
          "internalType": "uint256",
          "name": "totalLiquidity",
          "type": "uint256"
        }
      ],
      "name": "RemoveLiquidity",
      "type": "event"
    },
    {
      "anonymous": false,
      "inputs": [
        {
          "indexed": false,
          "internalType": "address",
          "name": "sender",
          "type": "address"
        },
        {
          "indexed": false,
          "internalType": "uint256",
          "name": "accumulatedFees",
          "type": "uint256"
        },
        {
          "indexed": false,
          "internalType": "uint256",
          "name": "loss",
          "type": "uint256"
        },
        {
          "indexed": false,
          "internalType": "uint256",
          "name": "newD",
          "type": "uint256"
        },
        {
          "indexed": false,
          "internalType": "uint256",
          "name": "priceScale",
          "type": "uint256"
        },
        {
          "indexed": false,
          "internalType": "uint256",
          "name": "priceOracle",
          "type": "uint256"
        }
      ],
      "name": "Repegging",
      "type": "event"
    },
    {
      "anonymous": false,
      "inputs": [
        {
          "indexed": false,
          "internalType": "uint256",
          "name": "currentA",
          "type": "uint256"
        },
        {
          "indexed": false,
          "internalType": "uint256",
          "name": "currentGamma",
          "type": "uint256"
        },
        {
          "indexed": false,
          "internalType": "uint256",
          "name": "time",
          "type": "uint256"
        }
      ],
      "name": "StopRampA",
      "type": "event"
    },
    {
      "anonymous": false,
      "inputs": [
        {
          "indexed": true,
          "internalType": "address",
          "name": "buyer",
          "type": "address"
        },
        {
          "indexed": false,
          "internalType": "uint256",
          "name": "i",
          "type": "uint256"
        },
        {
          "indexed": false,
          "internalType": "uint256",
          "name": "dx",
          "type": "uint256"
        },
        {
          "indexed": false,
          "internalType": "uint256",
          "name": "j",
          "type": "uint256"
        },
        {
          "indexed": false,
          "internalType": "uint256",
          "name": "dy",
          "type": "uint256"
        },
        {
          "indexed": false,
          "internalType": "bool",
          "name": "isSell",
          "type": "bool"
        }
      ],
      "name": "TokenExchange",
      "type": "event"
    },
    {
      "anonymous": false,
      "inputs": [
        {
          "indexed": false,
          "internalType": "uint256",
          "name": "cap",
          "type": "uint256"
        }
      ],
      "name": "TotalValueLockedCapChanged",
      "type": "event"
    },
    {
      "anonymous": false,
      "inputs": [
        {
          "indexed": false,
          "internalType": "address",
          "name": "account",
          "type": "address"
        }
      ],
      "name": "Unpaused",
      "type": "event"
    },
    {
      "inputs": [
        {
          "internalType": "uint256",
          "name": "amount0Desired",
          "type": "uint256"
        },
        {
          "internalType": "uint256",
          "name": "amount1Desired",
          "type": "uint256"
        },
        {
          "internalType": "uint256",
          "name": "minLiquidity",
          "type": "uint256"
        }
      ],
      "name": "addLiquidity",
      "outputs": [
        {
          "internalType": "uint256",
          "name": "",
          "type": "uint256"
        },
        {
          "internalType": "uint256",
          "name": "",
          "type": "uint256"
        },
        {
          "internalType": "uint256",
          "name": "",
          "type": "uint256"
        }
      ],
      "stateMutability": "nonpayable",
      "type": "function"
    },
    {
      "inputs": [],
      "name": "applyNewParameters",
      "outputs": [],
      "stateMutability": "nonpayable",
      "type": "function"
    },
    {
      "inputs": [
        {
          "internalType": "uint256",
          "name": "amount0Desired",
          "type": "uint256"
        },
        {
          "internalType": "uint256",
          "name": "amount1Desired",
          "type": "uint256"
        }
      ],
      "name": "calcLiquidityByTokenAmounts",
      "outputs": [
        {
          "internalType": "uint256",
          "name": "",
          "type": "uint256"
        }
      ],
      "stateMutability": "view",
      "type": "function"
    },
    {
      "inputs": [
        {
          "internalType": "uint256",
          "name": "liquidity",
          "type": "uint256"
        }
      ],
      "name": "calcTokenAmountsByLiquidity",
      "outputs": [
        {
          "internalType": "uint256",
          "name": "amount0",
          "type": "uint256"
        },
        {
          "internalType": "uint256",
          "name": "amount1",
          "type": "uint256"
        }
      ],
      "stateMutability": "view",
      "type": "function"
    },
    {
      "inputs": [],
      "name": "candidate",
      "outputs": [
        {
          "internalType": "address",
          "name": "",
          "type": "address"
        }
      ],
      "stateMutability": "view",
      "type": "function"
    },
    {
      "inputs": [
        {
          "internalType": "uint256",
          "name": "newAdjustmentStep",
          "type": "uint256"
        },
        {
          "internalType": "uint256",
          "name": "newMAHalfTime",
          "type": "uint256"
        }
      ],
      "name": "commitNewParameters",
      "outputs": [],
      "stateMutability": "nonpayable",
      "type": "function"
    },
    {
      "inputs": [],
      "name": "getA",
      "outputs": [
        {
          "internalType": "uint256",
          "name": "",
          "type": "uint256"
        }
      ],
      "stateMutability": "view",
      "type": "function"
    },
    {
      "inputs": [
        {
          "internalType": "uint256",
          "name": "i",
          "type": "uint256"
        }
      ],
      "name": "getBalances",
      "outputs": [
        {
          "internalType": "uint256",
          "name": "",
          "type": "uint256"
        }
      ],
      "stateMutability": "view",
      "type": "function"
    },
    {
      "inputs": [
        {
          "internalType": "uint256",
          "name": "i",
          "type": "uint256"
        }
      ],
      "name": "getCoins",
      "outputs": [
        {
          "internalType": "address",
          "name": "",
          "type": "address"
        }
      ],
      "stateMutability": "view",
      "type": "function"
    },
    {
      "inputs": [
        {
          "internalType": "uint256",
          "name": "i",
          "type": "uint256"
        },
        {
          "internalType": "uint256",
          "name": "j",
          "type": "uint256"
        },
        {
          "internalType": "uint256",
          "name": "dx",
          "type": "uint256"
        },
        {
          "internalType": "bool",
          "name": "isSell",
          "type": "bool"
        }
      ],
      "name": "getDy",
      "outputs": [
        {
          "internalType": "uint256",
          "name": "",
          "type": "uint256"
        }
      ],
      "stateMutability": "view",
      "type": "function"
    },
    {
      "inputs": [],
      "name": "getGamma",
      "outputs": [
        {
          "internalType": "uint256",
          "name": "",
          "type": "uint256"
        }
      ],
      "stateMutability": "view",
      "type": "function"
    },
    {
      "inputs": [],
      "name": "getPriceCurrent",
      "outputs": [
        {
          "internalType": "uint256",
          "name": "",
          "type": "uint256"
        }
      ],
      "stateMutability": "view",
      "type": "function"
    },
    {
      "inputs": [],
      "name": "getPriceLast",
      "outputs": [
        {
          "internalType": "uint256",
          "name": "",
          "type": "uint256"
        }
      ],
      "stateMutability": "view",
      "type": "function"
    },
    {
      "inputs": [],
      "name": "getPriceOracle",
      "outputs": [
        {
          "internalType": "uint256",
          "name": "",
          "type": "uint256"
        }
      ],
      "stateMutability": "view",
      "type": "function"
    },
    {
      "inputs": [],
      "name": "getPriceScale",
      "outputs": [
        {
          "internalType": "uint256",
          "name": "",
          "type": "uint256"
        }
      ],
      "stateMutability": "view",
      "type": "function"
    },
    {
      "inputs": [
        {
          "internalType": "uint256",
          "name": "roundId",
          "type": "uint256"
        }
      ],
      "name": "getRoundData",
      "outputs": [
        {
          "internalType": "uint256",
          "name": "",
          "type": "uint256"
        },
        {
          "internalType": "uint256",
          "name": "",
          "type": "uint256"
        },
        {
          "internalType": "uint256",
          "name": "",
          "type": "uint256"
        }
      ],
      "stateMutability": "view",
      "type": "function"
    },
    {
      "inputs": [],
      "name": "getTotalLiquidity",
      "outputs": [
        {
          "internalType": "uint256",
          "name": "",
          "type": "uint256"
        }
      ],
      "stateMutability": "view",
      "type": "function"
    },
    {
      "inputs": [],
      "name": "getTotalVauleLockedCap",
      "outputs": [
        {
          "internalType": "uint256",
          "name": "",
          "type": "uint256"
        }
      ],
      "stateMutability": "view",
      "type": "function"
    },
    {
      "inputs": [
        {
          "internalType": "uint256",
          "name": "interval",
          "type": "uint256"
        }
      ],
      "name": "getTwapMarkPrice",
      "outputs": [
        {
          "internalType": "uint256",
          "name": "",
          "type": "uint256"
        }
      ],
      "stateMutability": "view",
      "type": "function"
    },
    {
      "inputs": [
        {
          "components": [
            {
              "internalType": "uint256",
              "name": "A",
              "type": "uint256"
            },
            {
              "internalType": "uint256",
              "name": "gamma",
              "type": "uint256"
            },
            {
              "internalType": "uint256",
              "name": "adjustmentStep",
              "type": "uint256"
            },
            {
              "internalType": "uint256",
              "name": "maHalfTime",
              "type": "uint256"
            },
            {
              "internalType": "uint256",
              "name": "initialPrice",
              "type": "uint256"
            },
            {
              "internalType": "address",
              "name": "baseToken",
              "type": "address"
            },
            {
              "internalType": "address",
              "name": "quoteToken",
              "type": "address"
            },
            {
              "internalType": "address",
              "name": "clearingHouse",
              "type": "address"
            },
            {
              "internalType": "address",
              "name": "marketTaker",
              "type": "address"
            },
            {
              "internalType": "address",
              "name": "liquidityProvider",
              "type": "address"
            }
          ],
          "internalType": "struct IAmm.InitializeParams",
          "name": "params",
          "type": "tuple"
        }
      ],
      "name": "initialize",
      "outputs": [],
      "stateMutability": "nonpayable",
      "type": "function"
    },
    {
      "inputs": [],
      "name": "latestRoundData",
      "outputs": [
        {
          "internalType": "uint256",
          "name": "",
          "type": "uint256"
        },
        {
          "internalType": "uint256",
          "name": "",
          "type": "uint256"
        },
        {
          "internalType": "uint256",
          "name": "",
          "type": "uint256"
        }
      ],
      "stateMutability": "view",
      "type": "function"
    },
    {
      "inputs": [],
      "name": "owner",
      "outputs": [
        {
          "internalType": "address",
          "name": "",
          "type": "address"
        }
      ],
      "stateMutability": "view",
      "type": "function"
    },
    {
      "inputs": [],
      "name": "pause",
      "outputs": [],
      "stateMutability": "nonpayable",
      "type": "function"
    },
    {
      "inputs": [],
      "name": "paused",
      "outputs": [
        {
          "internalType": "bool",
          "name": "",
          "type": "bool"
        }
      ],
      "stateMutability": "view",
      "type": "function"
    },
    {
      "inputs": [
        {
          "internalType": "uint256",
          "name": "futureA",
          "type": "uint256"
        },
        {
          "internalType": "uint256",
          "name": "futureGamma",
          "type": "uint256"
        },
        {
          "internalType": "uint256",
          "name": "futureTime",
          "type": "uint256"
        }
      ],
      "name": "rampAGamma",
      "outputs": [],
      "stateMutability": "nonpayable",
      "type": "function"
    },
    {
      "inputs": [
        {
          "internalType": "uint256",
          "name": "liquidity",
          "type": "uint256"
        },
        {
          "internalType": "uint256",
          "name": "minAmount0",
          "type": "uint256"
        },
        {
          "internalType": "uint256",
          "name": "minAmount1",
          "type": "uint256"
        }
      ],
      "name": "removeLiquidity",
      "outputs": [
        {
          "internalType": "uint256",
          "name": "amount0",
          "type": "uint256"
        },
        {
          "internalType": "uint256",
          "name": "amount1",
          "type": "uint256"
        }
      ],
      "stateMutability": "nonpayable",
      "type": "function"
    },
    {
      "inputs": [],
      "name": "renounceOwnership",
      "outputs": [],
      "stateMutability": "nonpayable",
      "type": "function"
    },
    {
      "inputs": [],
      "name": "revertNewParameters",
      "outputs": [],
      "stateMutability": "nonpayable",
      "type": "function"
    },
    {
      "inputs": [
        {
          "internalType": "address",
          "name": "clearingHouseArg",
          "type": "address"
        }
      ],
      "name": "setClearingHouse",
      "outputs": [],
      "stateMutability": "nonpayable",
      "type": "function"
    },
    {
      "inputs": [
        {
          "internalType": "address",
          "name": "liquidityProviderArg",
          "type": "address"
        }
      ],
      "name": "setLiquidityProvider",
      "outputs": [],
      "stateMutability": "nonpayable",
      "type": "function"
    },
    {
      "inputs": [
        {
          "internalType": "address",
          "name": "marketTakerArg",
          "type": "address"
        }
      ],
      "name": "setMarketTaker",
      "outputs": [],
      "stateMutability": "nonpayable",
      "type": "function"
    },
    {
      "inputs": [
        {
          "internalType": "address",
          "name": "newOwner",
          "type": "address"
        }
      ],
      "name": "setOwner",
      "outputs": [],
      "stateMutability": "nonpayable",
      "type": "function"
    },
    {
      "inputs": [
        {
          "internalType": "uint256",
          "name": "cap",
          "type": "uint256"
        }
      ],
      "name": "setTotalVauleLockedCap",
      "outputs": [],
      "stateMutability": "nonpayable",
      "type": "function"
    },
    {
      "inputs": [
        {
          "internalType": "uint256",
          "name": "i",
          "type": "uint256"
        },
        {
          "internalType": "uint256",
          "name": "j",
          "type": "uint256"
        },
        {
          "internalType": "uint256",
          "name": "dx",
          "type": "uint256"
        },
        {
          "internalType": "bool",
          "name": "isSell",
          "type": "bool"
        }
      ],
      "name": "simulatedSwap",
      "outputs": [
        {
          "internalType": "uint256",
          "name": "priceAfter",
          "type": "uint256"
        },
        {
          "internalType": "uint256",
          "name": "amount0",
          "type": "uint256"
        },
        {
          "internalType": "uint256",
          "name": "amount1",
          "type": "uint256"
        }
      ],
      "stateMutability": "nonpayable",
      "type": "function"
    },
    {
      "inputs": [
        {
          "internalType": "uint256",
          "name": "i",
          "type": "uint256"
        },
        {
          "internalType": "uint256",
          "name": "j",
          "type": "uint256"
        },
        {
          "internalType": "uint256",
          "name": "dx",
          "type": "uint256"
        },
        {
          "internalType": "uint256",
          "name": "dyLimit",
          "type": "uint256"
        },
        {
          "internalType": "bool",
          "name": "isSell",
          "type": "bool"
        }
      ],
      "name": "simulatedSwapInternal",
      "outputs": [
        {
          "internalType": "uint256",
          "name": "",
          "type": "uint256"
        }
      ],
      "stateMutability": "nonpayable",
      "type": "function"
    },
    {
      "inputs": [],
      "name": "stopRampAGamma",
      "outputs": [],
      "stateMutability": "nonpayable",
      "type": "function"
    },
    {
      "inputs": [
        {
          "internalType": "uint256",
          "name": "i",
          "type": "uint256"
        },
        {
          "internalType": "uint256",
          "name": "j",
          "type": "uint256"
        },
        {
          "internalType": "uint256",
          "name": "dx",
          "type": "uint256"
        },
        {
          "internalType": "uint256",
          "name": "dyLimit",
          "type": "uint256"
        },
        {
          "internalType": "bool",
          "name": "isSell",
          "type": "bool"
        }
      ],
      "name": "swap",
      "outputs": [
        {
          "internalType": "uint256",
          "name": "",
          "type": "uint256"
        }
      ],
      "stateMutability": "nonpayable",
      "type": "function"
    },
    {
      "inputs": [],
      "name": "unpause",
      "outputs": [],
      "stateMutability": "nonpayable",
      "type": "function"
    },
    {
      "inputs": [],
      "name": "updateOwner",
      "outputs": [],
      "stateMutability": "nonpayable",
      "type": "function"
    }
  ],
  "bytecode": "0x608060405234801561001057600080fd5b50615eb480620000216000396000f3fe608060405234801561001057600080fd5b506004361061023d5760003560e01c8063724718901161013b578063cf4e6696116100b8578063e57f15651161007c578063e57f156514610467578063e624c4bc1461046f578063fca513a814610482578063fcddb3cc1461048a578063feaf968c1461049d5761023d565b8063cf4e66961461041e578063d1cd61c114610431578063d2c9663614610444578063d46300fd1461044c578063e0b09a06146104545761023d565b80638da5cb5b116100ff5780638da5cb5b146103eb578063b136fb9b146103f3578063b26e64be146103fb578063bc5920ba1461040e578063cde5d81b146104165761023d565b806372471890146103a25780637b2369d4146103b55780637c1152b9146103bd5780638456cb59146103d0578063857620e1146103d85761023d565b80633f4ba83a116101c957806364d225131161018d57806364d22513146103645780636c8381f81461036c5780636f1f3e7c14610374578063715018a6146103875780637158a5381461038f5761023d565b80633f4ba83a1461030e578063422f104314610316578063449323d814610329578063490adbaf1461033c5780635c975abb1461034f5761023d565b806313af40351161021057806313af4035146102c357806329cddf22146102d65780633473fbe5146102eb57806335c7e925146102f357806335c990e3146102fb5761023d565b80630720da52146102425780630721547e1461026d578063084fa68b1461028e5780630e3f707c146102a3575b600080fd5b61025561025036600461505a565b6104a5565b60405161026493929190615b38565b60405180910390f35b61028061027b36600461505a565b610514565b604051610264929190615ae1565b6102a161029c3660046150ab565b610634565b005b6102b66102b136600461505a565b6109ed565b60405161026491906151d9565b6102a16102d1366004614eec565b610a24565b6102de610b07565b6040516102649190615ad8565b6102de610b1f565b6102de610bb0565b6102de61030936600461505a565b610bb6565b6102a1610d1e565b6102556103243660046150ab565b610d67565b6102a1610337366004614eec565b6115c3565b6102de61034a36600461505a565b611687565b6103576116b3565b604051610264919061528d565b6102de6116bc565b6102b66116c3565b6102a161038236600461505a565b6116d2565b6102a1611747565b6102de61039d366004615143565b6117dc565b6102de6103b0366004615103565b61187f565b6102de6118ff565b6102556103cb366004615103565b611906565b6102a1611b34565b6102806103e63660046150ab565b611b7b565b6102b6611f25565b6102a1611f34565b6102de610409366004615143565b61203f565b6102a1612089565b6102a161214c565b6102de61042c36600461508a565b612192565b6102a161043f36600461508a565b612608565b6102de612721565b6102de612728565b6102a1610462366004614fb2565b612739565b6102a16129ee565b6102a161047d366004614eec565b612ac6565b6102de612b7f565b6102a1610498366004614eec565b612b86565b610255612c3f565b60008060008061011585815481106104cd57634e487b7160e01b600052603260045260246000fd5b600091825260209182902060408051606081018252600393909302909101805480845260018201549484018590526002909101549290910182905297919650945092505050565b600080600183116105405760405162461bcd60e51b815260040161053790615a21565b60405180910390fd5b600060ff54116105625760405162461bcd60e51b815260040161053790615545565b60ff548311156105845760405162461bcd60e51b815260040161053790615588565b61058f600184615da4565b9250610599614d96565b60005b60028160ff1610156106215760ff54856101078360ff16600281106105d157634e487b7160e01b600052603260045260246000fd5b01546105dd9190615d46565b6105e79190615bff565b828260ff166002811061060a57634e487b7160e01b600052603260045260246000fd5b60200201528061061981615e0a565b91505061059c565b5080516020909101519094909350915050565b61063c612ced565b6001600160a01b031661064d611f25565b6001600160a01b0316146106735760405162461bcd60e51b8152600401610537906155e8565b6001600a612710610685600280615c65565b61068f9190615d46565b6106999190615bff565b6106a39190615da4565b83116106c15760405162461bcd60e51b81526004016105379061586c565b6127106106cf600280615c65565b6106d99190615d46565b6106e690620186a0615d46565b6106f1906001615be7565b831061070f5760405162461bcd60e51b8152600401610537906154a3565b61071f60016402540be400615da4565b821161073d5760405162461bcd60e51b8152600401610537906154e4565b61074f66470de4df8200006001615be7565b821061076d5760405162461bcd60e51b8152600401610537906152ed565b61077b600162015180615da4565b61010e546107899190615be7565b610791612cfc565b116107ae5760405162461bcd60e51b815260040161053790615975565b6107bc600162015180615da4565b6107c4612cfc565b6107ce9190615be7565b81116107ec5760405162461bcd60e51b815260040161053790615996565b60006107f6612d00565b9050600061080c82825b60200201516080612e12565b9050610820818360015b6020020151612e52565b825190915060009061083a87670de0b6b3a7640000615d46565b6108449190615bff565b9050610859600a670de0b6b3a7640000615d46565b610864906001615be7565b81106108825760405162461bcd60e51b8152600401610537906154c3565b6001610897600a670de0b6b3a7640000615bff565b6108a19190615da4565b81116108bf5760405162461bcd60e51b815260040161053790615400565b60208301516108d686670de0b6b3a7640000615d46565b6108e09190615bff565b90506108f5600a670de0b6b3a7640000615d46565b610900906001615be7565b811061091e5760405162461bcd60e51b8152600401610537906158ac565b6001610933600a670de0b6b3a7640000615bff565b61093d9190615da4565b811161095b5760405162461bcd60e51b815260040161053790615737565b61010d829055610969612cfc565b61010e55600061097a876080612e12565b90506109868187612e52565b610112869055610111819055845160208601519192507fe35f0559b0642164e286b30df2077ec3a05426617a25db7578fd20ba39a6cd05918990896109c9612cfc565b8a6040516109dc96959493929190615b8e565b60405180910390a150505050505050565b600061010b8260028110610a1157634e487b7160e01b600052603260045260246000fd5b01546001600160a01b031690505b919050565b610a2c612ced565b6001600160a01b0316610a3d611f25565b6001600160a01b031614610a635760405162461bcd60e51b8152600401610537906155e8565b6001600160a01b038116610a895760405162461bcd60e51b815260040161053790615ab8565b6033546001600160a01b0382811691161415610ab75760405162461bcd60e51b8152600401610537906155a8565b6034546001600160a01b0382811691161415610ae55760405162461bcd60e51b81526004016105379061545f565b603480546001600160a01b0319166001600160a01b0392909216919091179055565b6000610b11612d00565b60015b602002015190505b90565b60ff5460009015610ba8576000610b406001600064174876e800600161187f565b610b4d9062989680615d46565b90506000610b656001600064174876e800600061187f565b610b729062989680615d46565b905081610102541015610b8757509050610b1c565b80610102541115610b9b579150610b1c9050565b6101025492505050610b1c565b506101005490565b60ff5490565b600080600080610bc4612c3f565b9250925092508460001480610bd7575082155b15610be657509150610a1f9050565b600085610bf1612cfc565b610bfb9190615da4565b905080821015610c115782945050505050610a1f565b81600081610c1d612cfc565b610c279190615da4565b90506000610c358287615d46565b905060005b87610c6d5782610c54578698505050505050505050610a1f565b610c5e8383615bff565b98505050505050505050610a1f565b610c78600189615da4565b9750600080610c868a6104a5565b9250925050868111610cb957610c9c8787615da4565b610ca69083615d46565b610cb09085615be7565b93505050610cf1565b610cc38187615da4565b9250610ccf8383615d46565b610cd99085615be7565b9350610ce58386615be7565b94508095505050610c3a565b81610d06578698505050505050505050610a1f565b610d108a83615bff565b9a9950505050505050505050565b610d26612ced565b6001600160a01b0316610d37611f25565b6001600160a01b031614610d5d5760405162461bcd60e51b8152600401610537906155e8565b610d65612e56565b565b6000806000610d746116b3565b15610d915760405162461bcd60e51b81526004016105379061568a565b600260cb541415610db45760405162461bcd60e51b815260040161053790615a40565b600260cb55610dc1612ced565b610106546001600160a01b03908116911614610def5760405162461bcd60e51b8152600401610537906155c8565b60008611610e0f5760405162461bcd60e51b8152600401610537906157bf565b60008511610e2f5760405162461bcd60e51b81526004016105379061539e565b6000610e39610b1f565b6040805180820190915288815260208101889052610107549192509015801590610e6557506101085415155b15610edb57610e838861010760005b015461010760015b0154612ec4565b602082018190528710610e9857878152610ed6565b610eae8761010760015b01546101076000610e7c565b808252881015610ece57634e487b7160e01b600052600160045260246000fd5b602081018790525b610f3f565b6402540be400610f21610f09670de0b6b3a7640000610efa868c615d46565b610f049190615bff565b612f26565b610f128b612f26565b610f1c9190615d65565b612f53565b1115610f3f5760405162461bcd60e51b8152600401610537906159e1565b6101185481516020830151670de0b6b3a764000090610f5f908690615d46565b610f699190615bff565b610f739190615be7565b10610f905760405162461bcd60e51b81526004016105379061537b565b610f98614db4565b610fa0612d00565b81526040805180820191829052610fd8916101079060029082845b815481526020019060010190808311610fbb575050505050612f7c565b60208201819052610fe890612f7c565b606082015260005b60028160ff1610156110c6576000838260ff166002811061102157634e487b7160e01b600052603260045260246000fd5b602002015183602001518360ff166002811061104d57634e487b7160e01b600052603260045260246000fd5b602002015161105c9190615be7565b90508083602001518360ff166002811061108657634e487b7160e01b600052603260045260246000fd5b60200201528061010760ff8416600281106110b157634e487b7160e01b600052603260045260246000fd5b015550806110be81615e0a565b915050610ff0565b5061010a54610100546000916110db91615d46565b9050604051806040016040528061010960006002811061110b57634e487b7160e01b600052603260045260246000fd5b015460208501515161111d9190615d46565b8152602001670de0b6b3a764000083856020015160016002811061115157634e487b7160e01b600052603260045260246000fd5b60200201516111609190615d46565b61116a9190615bff565b905260208301526040805180820190915261010954606084015151829161119091615d46565b8152602001670de0b6b3a76400008385606001516001600281106111c457634e487b7160e01b600052603260045260246000fd5b60200201516111d39190615d46565b6111dd9190615bff565b9052606083015260005b60028160ff16101561130e576000848260ff166002811061121857634e487b7160e01b600052603260045260246000fd5b602002015111156112fc5761010b8160ff166002811061124857634e487b7160e01b600052603260045260246000fd5b0154610104546001600160a01b03918216916323b872dd9116308760ff86166002811061128557634e487b7160e01b600052603260045260246000fd5b60200201516040518463ffffffff1660e01b81526004016112a8939291906151ed565b602060405180830381600087803b1580156112c257600080fd5b505af11580156112d6573d6000803e3d6000fd5b505050506040513d601f19601f820116820180604052508101906112fa9190614f06565b505b8061130681615e0a565b9150506111e7565b506101125480156113d157825180516020909101516060850151604051630eeec14f60e11b815273__$02a049080fc263d5eb822a1008e5b660f8$__93631ddd829e93611362939192909190600401615aef565b60206040518083038186803b15801561137a57600080fd5b505af415801561138e573d6000803e3d6000fd5b505050506040513d601f19601f820116820180604052508101906113b29190615072565b6040840152806113c0612cfc565b106113cc576001610112555b6113da565b60fd5460408401525b8251805160209182015191850151604051630eeec14f60e11b815260009373__$02a049080fc263d5eb822a1008e5b660f8$__93631ddd829e9361142393919291600401615aef565b60206040518083038186803b15801561143b57600080fd5b505af415801561144f573d6000803e3d6000fd5b505050506040513d601f19601f820116820180604052508101906114739190615072565b9050600080856040015111156114b05760ff5460408601516114958483615d46565b61149f9190615bff565b6114a99190615da4565b90506114bc565b6114b982613004565b90505b600081116114dc5760405162461bcd60e51b81526004016105379061566b565b8060ff60008282546114ee9190615be7565b90915550506040850151156115175761151285600001518660200151600085613066565b61151d565b60fd8290555b8a81101561153d5760405162461bcd60e51b815260040161053790615849565b611545613351565b61154d612ced565b6001600160a01b03167fd92dda7384b5f0fa573be9bbf63d63ac81a5bbb08ebc31f00c0f066e502396098760006020020151886001602002015160ff5460405161159a9392918791615b4e565b60405180910390a28551602090960151600160cb55959d959c509a509398505050505050505050565b6115cb612ced565b6001600160a01b03166115dc611f25565b6001600160a01b0316146116025760405162461bcd60e51b8152600401610537906155e8565b611614816001600160a01b03166133ff565b6116305760405162461bcd60e51b8152600401610537906153be565b61010480546001600160a01b0319166001600160a01b0383161790556040517fd0654f5900f9e7e4e605a19334306e6a2786bbf960ac0484a4c12feb6428fe2f9061167c9083906151d9565b60405180910390a150565b600061010782600281106116ab57634e487b7160e01b600052603260045260246000fd5b015492915050565b60675460ff1690565b6101185490565b6034546001600160a01b031690565b6116da612ced565b6001600160a01b03166116eb611f25565b6001600160a01b0316146117115760405162461bcd60e51b8152600401610537906155e8565b6101188190556040517fe57153f539c09242aa5bdd2499bcff6c6895cbd51ff636f6e29c10619f3e9a889061167c908390615ad8565b61174f612ced565b6001600160a01b0316611760611f25565b6001600160a01b0316146117865760405162461bcd60e51b8152600401610537906155e8565b6033546040516000916001600160a01b0316907f8be0079c531659141344cd1fd0a4f28419497f9722a3daafe3b4186f6b6457e0908390a3603380546001600160a01b0319908116909155603480549091169055565b60006117e66116b3565b156118035760405162461bcd60e51b81526004016105379061568a565b600260cb5414156118265760405162461bcd60e51b815260040161053790615a40565b600260cb55611833612ced565b610105546001600160a01b039081169116146118615760405162461bcd60e51b81526004016105379061588c565b61187086868686866000613405565b600160cb559695505050505050565b6000838514156118a15760405162461bcd60e51b81526004016105379061590d565b600285106118c15760405162461bcd60e51b8152600401610537906152cb565b600284106118e15760405162461bcd60e51b8152600401610537906152cb565b6118f48585858560fd5461010054614018565b90505b949350505050565b6101025490565b6000806000600260cb54141561192e5760405162461bcd60e51b815260040161053790615a40565b600260cb55868614156119535760405162461bcd60e51b81526004016105379061590d565b600287106119735760405162461bcd60e51b8152600401610537906152cb565b600286106119935760405162461bcd60e51b8152600401610537906152cb565b60006119a18888888861187f565b604051635937325f60e11b8152909150309063b26e64be906119cf908b908b908b9087908c90600401615b69565b602060405180830381600087803b1580156119e957600080fd5b505af1925050508015611a19575060408051601f3d908101601f19168201909252611a1691810190615072565b60015b611b1f573d808015611a47576040519150601f19603f3d011682016040523d82523d6000602084013e611a4c565b606091505b508051606014611aab57604481511015611a785760405162461bcd60e51b8152600401610537906157df565b60048101905080806020019051810190611a929190614f22565b60405162461bcd60e51b81526004016105379190615298565b600080600083806020019051810190611ac491906150d6565b9250925092507f182545acfa9866c9c4fd113da282045b564d223273f9041051a60c78733f0fae611af3612ced565b8383868d604051611b0895949392919061522a565b60405180910390a191965094509250611b22915050565b50505b600160cb819055509450945094915050565b611b3c612ced565b6001600160a01b0316611b4d611f25565b6001600160a01b031614611b735760405162461bcd60e51b8152600401610537906155e8565b610d65614384565b600080611b866116b3565b15611ba35760405162461bcd60e51b81526004016105379061568a565b600260cb541415611bc65760405162461bcd60e51b815260040161053790615a40565b600260cb55611bd3612ced565b610106546001600160a01b03908116911614611c015760405162461bcd60e51b8152600401610537906155c8565b60018511611c215760405162461bcd60e51b81526004016105379061564b565b60ff54851115611c435760405162461bcd60e51b815260040161053790615588565b60ff80549086906000611c568385615da4565b9091555060009050611c69600188615da4565b604080518082019182905261010780548252929350600092611ca09260029061010860208501808311610fbb575050505050612f7c565b905060005b60028160ff161015611e685760008484848460ff1660028110611cd857634e487b7160e01b600052603260045260246000fd5b6020020151611ce79190615d46565b611cf19190615bff565b905060ff821615611d025787611d04565b885b811015611d235760405162461bcd60e51b815260040161053790615565565b80838360ff1660028110611d4757634e487b7160e01b600052603260045260246000fd5b6020020151611d569190615da4565b6101078360ff1660028110611d7b57634e487b7160e01b600052603260045260246000fd5b0155808360ff841660028110611da157634e487b7160e01b600052603260045260246000fd5b602002015261010b60ff831660028110611dcb57634e487b7160e01b600052603260045260246000fd5b01546101045460405163a9059cbb60e01b81526001600160a01b039283169263a9059cbb92611e01929116908590600401615211565b602060405180830381600087803b158015611e1b57600080fd5b505af1158015611e2f573d6000803e3d6000fd5b505050506040513d601f19601f82011682018060405250810190611e539190614f06565b50508080611e6090615e0a565b915050611ca5565b5060ff5415611e9f57828260fd54611e809190615d46565b611e8a9190615bff565b60fd54611e979190615da4565b60fd55611ea5565b600060fd555b611ead613351565b611eb5612ced565b6001600160a01b03167f0c7095efab4844307a2d270e6feda743289e3f8bd8a4fa71bc0006ef39bb77938260006020020151836001602002015160ff54604051611f029392918e91615b4e565b60405180910390a28051602090910151600160cb55909890975095505050505050565b6033546001600160a01b031690565b600260cb541415611f575760405162461bcd60e51b815260040161053790615a40565b600260cb55611f64612ced565b6001600160a01b0316611f75611f25565b6001600160a01b031614611f9b5760405162461bcd60e51b8152600401610537906155e8565b60fe54611fa6612cfc565b1015611fc45760405162461bcd60e51b8152600401610537906158ee565b60fe54611fe35760405162461bcd60e51b815260040161053790615809565b600060fe556101135461010f819055610114546101108190556040517f466000346b59ec4877e51eb5253518b5238b636e596b47be2a6ab1fe6fdfc31f9061202e9084908490615ae1565b60405180910390a15050600160cb55565b60003061204a612ced565b6001600160a01b0316146120705760405162461bcd60e51b815260040161053790615829565b61207f86868686866001613405565b9695505050505050565b6034546001600160a01b03166120b15760405162461bcd60e51b815260040161053790615a02565b6120b9612ced565b6034546001600160a01b039081169116146120e65760405162461bcd60e51b81526004016105379061530d565b6034546033546040516001600160a01b0392831692909116907f8be0079c531659141344cd1fd0a4f28419497f9722a3daafe3b4186f6b6457e090600090a360348054603380546001600160a01b03199081166001600160a01b03841617909155169055565b612154612ced565b6001600160a01b0316612165611f25565b6001600160a01b03161461218b5760405162461bcd60e51b8152600401610537906155e8565b600060fe55565b60008083116121b35760405162461bcd60e51b8152600401610537906153df565b600082116121d35760405162461bcd60e51b815260040161053790615758565b604080518082019091528381526020810183905261010754158015906121fb57506101085415155b1561225e5761220e846101076000610e74565b60208201819052831061222357838152612259565b612231836101076001610ea2565b80825284101561225157634e487b7160e01b600052600160045260246000fd5b602081018390525b6122ac565b6402540be40061228e612285670de0b6b3a764000061227b610b1f565b610efa9088615d46565b610f1287612f26565b11156122ac5760405162461bcd60e51b815260040161053790615779565b60006122b6612d00565b6040805180820191829052610107805482529293506000926122ed9260029061010860208501808311610fbb575050505050612f7c565b905060006122fa82612f7c565b905060005b60028160ff1610156123a5576000858260ff166002811061233057634e487b7160e01b600052603260045260246000fd5b6020020151848360ff166002811061235857634e487b7160e01b600052603260045260246000fd5b60200201516123679190615be7565b905080848360ff166002811061238d57634e487b7160e01b600052603260045260246000fd5b6020020152508061239d81615e0a565b9150506122ff565b506040805180820190915261010954835182916123c191615d46565b815261010a5461010054602086810151930192670de0b6b3a764000092916123e891615d46565b6123f29190615d46565b6123fc9190615bff565b9052604080518082019091526101095483519294509091829161241e91615d46565b815261010a5461010054602085810151930192670de0b6b3a7640000929161244591615d46565b61244f9190615d46565b6124599190615bff565b90526101125490915060009080156125005784516020860151604051630eeec14f60e11b815273__$02a049080fc263d5eb822a1008e5b660f8$__92631ddd829e926124a9928890600401615aef565b60206040518083038186803b1580156124c157600080fd5b505af41580156124d5573d6000803e3d6000fd5b505050506040513d601f19601f820116820180604052508101906124f99190615072565b9150612506565b60fd5491505b84516020860151604051630eeec14f60e11b815260009273__$02a049080fc263d5eb822a1008e5b660f8$__92631ddd829e926125499291908a90600401615aef565b60206040518083038186803b15801561256157600080fd5b505af4158015612575573d6000803e3d6000fd5b505050506040513d601f19601f820116820180604052508101906125999190615072565b9050600083156125cc5760ff54846125b18483615d46565b6125bb9190615bff565b6125c59190615da4565b90506125d8565b6125d582613004565b90505b600081116125f85760405162461bcd60e51b815260040161053790615525565b9750505050505050505b92915050565b612610612ced565b6001600160a01b0316612621611f25565b6001600160a01b0316146126475760405162461bcd60e51b8152600401610537906155e8565b60fe54156126675760405162461bcd60e51b815260040161053790615608565b670de0b6b3a764000082111561267e5761010f5491505b62093a808110156126ae57600081116126a95760405162461bcd60e51b815260040161053790615629565b6126b4565b50610110545b60006203f4806126c2612cfc565b6126cc9190615be7565b60fe81905561011384905561011483905560405190915081907f4e8638fc6a89dd8fbbec493ad3e9f2f3c58eefd065477a51884f81cee52b611b906127149086908690615ae1565b60405180910390a2505050565b6101005490565b6000612732612d00565b6000610b14565b600054610100900460ff1680612752575060005460ff16155b61276e5760405162461bcd60e51b8152600401610537906156e9565b600054610100900460ff16158015612799576000805460ff1961ff0019909116610100171660011790555b6127a16143df565b6127a9614463565b60006127ba83600001516080612e12565b90506127ca818460200151612e52565b61010d819055610111819055604084015161010f556060840151610110556080840151610100819055610101819055610102559050612807612cfc565b610103556040805180820190915260c08401516001600160a01b03908116825260a08501511660208201526128419061010b906002614ded565b506040805180820180835261010b5463313ce56760e01b9091529151909182916001600160a01b039091169063313ce56790604480850191602091818703018186803b15801561289057600080fd5b505afa1580156128a4573d6000803e3d6000fd5b505050506040513d601f19601f820116820180604052508101906128c8919061518f565b6128d3906012615dbb565b6128de90600a615c74565b815261010c546040805163313ce56760e01b815290516020938401936001600160a01b039093169263313ce5679260048082019391829003018186803b15801561292757600080fd5b505afa15801561293b573d6000803e3d6000fd5b505050506040513d601f19601f8201168201806040525081019061295f919061518f565b61296a906012615dbb565b61297590600a615c74565b905261298690610109906002614e41565b505060e082015161010480546001600160a01b039283166001600160a01b0319918216179091556101008401516101058054918416918316919091179055610120840151610106805491909316911617905580156129ea576000805461ff00191690555b5050565b6129f6612ced565b6001600160a01b0316612a07611f25565b6001600160a01b031614612a2d5760405162461bcd60e51b8152600401610537906155e8565b6000612a37612d00565b90506000612a458282610800565b9050612a5381836001610816565b61010d8190556101118190559050612a69612cfc565b61010e55612a75612cfc565b61011255815160208301517f5f0e7fba3d100c9e19446e1c92fe436f0a9a22fe99669360e4fdd6d3de2fc2849190612aab612cfc565b604051612aba93929190615b38565b60405180910390a15050565b612ace612ced565b6001600160a01b0316612adf611f25565b6001600160a01b031614612b055760405162461bcd60e51b8152600401610537906155e8565b612b17816001600160a01b03166133ff565b612b335760405162461bcd60e51b8152600401610537906158cd565b61010680546001600160a01b0319166001600160a01b0383161790556040517fd68c74a31e45de4ca3e36ed3e6bec55457a3395ed3dac21202032b95ffda73989061167c9083906151d9565b6101015490565b612b8e612ced565b6001600160a01b0316612b9f611f25565b6001600160a01b031614612bc55760405162461bcd60e51b8152600401610537906155e8565b612bd7816001600160a01b03166133ff565b612bf35760405162461bcd60e51b815260040161053790615504565b61010580546001600160a01b0319166001600160a01b0383161790556040517f73051d125b9033e2af07cc2b08e0953fd5f7a1b48b372b1b8e13fd136b30c8829061167c9083906151d9565b6101155460009081908190612c6b576000612c58610b1f565b612c60612cfc565b925092509250612ce8565b61011554600090612c7e90600190615da4565b905060006101158281548110612ca457634e487b7160e01b600052603260045260246000fd5b600091825260209182902060408051606081018252600390930290910180548084526001820154948401859052600290910154929091018290529650909450925050505b909192565b6000612cf76144cb565b905090565b4290565b612d08614d96565b61011254610111546000612d23826001600160801b036144cf565b90506000612d3383607f19612e12565b905083612d3e612cfc565b1015612df45761010d5461010e54612d568187615da4565b955080612d61612cfc565b612d6b9190615da4565b90506000612d798288615da4565b905086612d868386615d46565b82612d9386607f19612e12565b612d9d9190615d46565b612da79190615be7565b612db19190615bff565b935086612dbe8387615d46565b82612dd0866001600160801b036144cf565b612dda9190615d46565b612de49190615be7565b612dee9190615bff565b94505050505b60405180604001604052808281526020018381525094505050505090565b600080821315612e2f57612e2582612f53565b83901b9050612602565b6000821215612e4b57612e4182612f53565b83901c9050612602565b5090919050565b1790565b612e5e6116b3565b612e7a5760405162461bcd60e51b81526004016105379061534d565b6067805460ff191690557f5db9ee0a495bf2e6ff9c91a7834c1ba4fdd244a5e8aa4e537bd38aeae4b073aa612ead612ced565b604051612eba91906151d9565b60405180910390a1565b6000808411612ee55760405162461bcd60e51b815260040161053790615421565b600083118015612ef55750600082115b612f115760405162461bcd60e51b815260040161053790615440565b82612f1c8386615d46565b6118f79190615bff565b60006001600160ff1b03821115612f4f5760405162461bcd60e51b81526004016105379061592d565b5090565b600080821215612f7357612f6e612f69836144d3565b614501565b612602565b61260282614501565b612f84614d96565b612f8c614d96565b60005b60028160ff161015612ffd57838160ff1660028110612fbe57634e487b7160e01b600052603260045260246000fd5b6020020151828260ff1660028110612fe657634e487b7160e01b600052603260045260246000fd5b602002015280612ff581615e0a565b915050612f8f565b5092915050565b600080604051806040016040528060028561301f9190615bff565b81526020016002610100546130349190615d46565b613046670de0b6b3a764000087615d46565b6130509190615bff565b9052905061305f816001614523565b9392505050565b6101015461010054610102546101035461307e612cfc565b81101561319d5761011054600073__$02a049080fc263d5eb822a1008e5b660f8$__63f0c2c52c83856130af612cfc565b6130b99190615da4565b6130cb90670de0b6b3a7640000615d46565b6130d59190615bff565b6040518263ffffffff1660e01b81526004016130f19190615ad8565b60206040518083038186803b15801561310957600080fd5b505af415801561311d573d6000803e3d6000fd5b505050506040513d601f19601f820116820180604052508101906131419190615072565b9050670de0b6b3a76400006131568288615d46565b61316883670de0b6b3a7640000615da4565b6131729087615d46565b61317c9190615be7565b6131869190615bff565b6101018190559550613196612cfc565b6101035550505b848061323457885160208a0151604051630eeec14f60e11b815273__$02a049080fc263d5eb822a1008e5b660f8$__92631ddd829e926131e1928d90600401615aef565b60206040518083038186803b1580156131f957600080fd5b505af415801561320d573d6000803e3d6000fd5b505050506040513d601f19601f820116820180604052508101906132319190615072565b90505b861561324257869250613335565b600061324d89612f7c565b805190915060009061326390620f424090615bff565b825190915081908390613277908390615be7565b9052508a5160208c0151604051630f14f68360e41b815273__$02a049080fc263d5eb822a1008e5b660f8$__9263f14f6830926132bd9287908990600190600401615b0a565b60206040518083038186803b1580156132d557600080fd5b505af41580156132e9573d6000803e3d6000fd5b505050506040513d601f19601f8201168201806040525081019061330d9190615072565b60208b015161331c9190615da4565b6133268288615d46565b6133309190615bff565b945050505b61010283905561334689898361462e565b505050505050505050565b6101055461010c54604051632d62674960e11b81526001600160a01b0392831692635ac4ce9292613387929116906004016151d9565b600060405180830381600087803b1580156133a157600080fd5b505af11580156133b5573d6000803e3d6000fd5b50506040805180820191829052610107805482526133ed94509092509060029061010860208501808311610fbb575050505050612f7c565b6133fc90610116906002614e41565b50565b3b151590565b6000858714156134275760405162461bcd60e51b81526004016105379061590d565b600287106134475760405162461bcd60e51b8152600401610537906152cb565b600286106134675760405162461bcd60e51b8152600401610537906152cb565b600085116134875760405162461bcd60e51b81526004016105379061532d565b61348f614e6f565b613497612d00565b81526040805180820191829052610107805482526134ca9260029061010860208501808311610fbb575050505050612f7c565b6020820181905287600281106134f057634e487b7160e01b600052603260045260246000fd5b60200201518160800181815250508060200151886002811061352257634e487b7160e01b600052603260045260246000fd5b602002015160a08201528361354657858160a001516135419190615da4565b613556565b858160a001516135569190615be7565b8160200151896002811061357a57634e487b7160e01b600052603260045260246000fd5b602002018181525050806020015188600281106135a757634e487b7160e01b600052603260045260246000fd5b602002015161010789600281106135ce57634e487b7160e01b600052603260045260246000fd5b0155604080518082019091526101095460208301515182916135ef91615d46565b815261010a5461010054602085810151810151930192670de0b6b3a7640000929161361991615d46565b6136239190615d46565b61362d9190615bff565b905260208201526101095460c082015261010a5460e082015260018814156136625761010a5460c08201526101095460e08201525b6101125480156137f2578160c001518260a0018181516136829190615d46565b90525088156136b757670de0b6b3a7640000610100548360a001516136a79190615d46565b6136b19190615bff565b60a08301525b600082602001518a600281106136dd57634e487b7160e01b600052603260045260246000fd5b602002015190508260a0015183602001518b6002811061370d57634e487b7160e01b600052603260045260246000fd5b60209081029190910191909152835180519082015191850151604051630eeec14f60e11b815273__$02a049080fc263d5eb822a1008e5b660f8$__93631ddd829e9361375d939092600401615aef565b60206040518083038186803b15801561377557600080fd5b505af4158015613789573d6000803e3d6000fd5b505050506040513d601f19601f820116820180604052508101906137ad9190615072565b60fd55602083015181908b600281106137d657634e487b7160e01b600052603260045260246000fd5b6020020152816137e4612cfc565b106137f0576001610112555b505b508315613b085761010b886002811061381b57634e487b7160e01b600052603260045260246000fd5b0154610104546040516323b872dd60e01b81526001600160a01b03928316926323b872dd926138539291169030908b906004016151ed565b602060405180830381600087803b15801561386d57600080fd5b505af1158015613881573d6000803e3d6000fd5b505050506040513d601f19601f820116820180604052508101906138a59190614f06565b50805180516020918201519183015160fd54604051630f14f68360e41b815273__$02a049080fc263d5eb822a1008e5b660f8$__9463f14f6830946138f594909391929091908e90600401615b0a565b60206040518083038186803b15801561390d57600080fd5b505af4158015613921573d6000803e3d6000fd5b505050506040513d601f19601f820116820180604052508101906139459190615072565b8160200151886002811061396957634e487b7160e01b600052603260045260246000fd5b60200201516139789190615da4565b9150818160200151886002811061399f57634e487b7160e01b600052603260045260246000fd5b602002018181516139b09190615da4565b9052506139be600183615da4565b915086156139e957610100546139dc670de0b6b3a764000084615d46565b6139e69190615bff565b91505b60e08101516139f89083615bff565b915084821015613a1a5760405162461bcd60e51b81526004016105379061547f565b8181608001818151613a2c9190615da4565b90525060808101516101078860028110613a5657634e487b7160e01b600052603260045260246000fd5b015561010b8760028110613a7a57634e487b7160e01b600052603260045260246000fd5b01546101045460405163a9059cbb60e01b81526001600160a01b039283169263a9059cbb92613ab0929116908690600401615211565b602060405180830381600087803b158015613aca57600080fd5b505af1158015613ade573d6000803e3d6000fd5b505050506040513d601f19601f82011682018060405250810190613b029190614f06565b50613e15565b61010b8860028110613b2a57634e487b7160e01b600052603260045260246000fd5b01546101045460405163a9059cbb60e01b81526001600160a01b039283169263a9059cbb92613b60929116908a90600401615211565b602060405180830381600087803b158015613b7a57600080fd5b505af1158015613b8e573d6000803e3d6000fd5b505050506040513d601f19601f82011682018060405250810190613bb29190614f06565b5080602001518760028110613bd757634e487b7160e01b600052603260045260246000fd5b6020908102919091015182518051908301519284015160fd54604051630f14f68360e41b8152939473__$02a049080fc263d5eb822a1008e5b660f8$__9463f14f683094613c2d94909390918f90600401615b0a565b60206040518083038186803b158015613c4557600080fd5b505af4158015613c59573d6000803e3d6000fd5b505050506040513d601f19601f82011682018060405250810190613c7d9190615072565b613c879190615da4565b91508181602001518860028110613cae57634e487b7160e01b600052603260045260246000fd5b60200201818151613cbf9190615be7565b905250613ccd600183615be7565b91508615613cf85761010054613ceb670de0b6b3a764000084615d46565b613cf59190615bff565b91505b60e0810151613d079083615bff565b915084821115613d295760405162461bcd60e51b81526004016105379061579b565b8181608001818151613d3b9190615be7565b90525060808101516101078860028110613d6557634e487b7160e01b600052603260045260246000fd5b015561010b8760028110613d8957634e487b7160e01b600052603260045260246000fd5b0154610104546040516323b872dd60e01b81526001600160a01b03928316926323b872dd92613dc192911690309087906004016151ed565b602060405180830381600087803b158015613ddb57600080fd5b505af1158015613def573d6000803e3d6000fd5b505050506040513d601f19601f82011682018060405250810190613e139190614f06565b505b8060e0015181608001818151613e2b9190615d46565b9052508615613e6057670de0b6b3a7640000610100548260800151613e509190615d46565b613e5a9190615bff565b60808201525b806080015181602001518860028110613e8957634e487b7160e01b600052603260045260246000fd5b6020020152620186a086118015613ea25750620186a082115b15613f215760008160c0015187613eb99190615d46565b905060008260e0015184613ecd9190615d46565b905089613efb5780613ee783670de0b6b3a7640000615d46565b613ef19190615bff565b6040840152613f1e565b81613f0e82670de0b6b3a7640000615d46565b613f189190615bff565b60408401525b50505b613f3a8160000151826020015183604001516000613066565b6000613f44610b1f565b90508315613f6357604051818152876020820152836040820152606081fd5b604080516060810182526101158054825260208201849052918101613f86612cfc565b905281546001818101845560009384526020938490208351600390930201918255928201519281019290925560400151600290910155613fc4612ced565b6001600160a01b03167f06fd8c5d0f3f8e8499ff366a63225d36df3872a842b5b4a6ad0183926f3da1868a898b878a604051614004959493929190615b69565b60405180910390a250509695505050505050565b6000806101096001015461402c9084615d46565b6040805180820191829052610107805482529293506000926140639260029061010860208501808311610fbb575050505050612f7c565b9050600061406f612d00565b6101125490915015614117578051602082015173__$02a049080fc263d5eb822a1008e5b660f8$__91631ddd829e916140a66149a1565b6040518463ffffffff1660e01b81526004016140c493929190615aef565b60206040518083038186803b1580156140dc57600080fd5b505af41580156140f0573d6000803e3d6000fd5b505050506040513d601f19601f820116820180604052508101906141149190615072565b95505b866141515787828b6002811061413d57634e487b7160e01b600052603260045260246000fd5b602002015161414c9190615da4565b614181565b87828b6002811061417257634e487b7160e01b600052603260045260246000fd5b60200201516141819190615be7565b828b600281106141a157634e487b7160e01b600052603260045260246000fd5b60200201526040805180820190915261010954835182916141c191615d46565b8152602001670de0b6b3a76400008585600160200201516141e29190615d46565b6141ec9190615bff565b90529150600073__$02a049080fc263d5eb822a1008e5b660f8$__63f14f6830838360200201518460016020020151868b8f6040518663ffffffff1660e01b815260040161423e959493929190615b0a565b60206040518083038186803b15801561425657600080fd5b505af415801561426a573d6000803e3d6000fd5b505050506040513d601f19601f8201168201806040525081019061428e9190615072565b90506000886142d657838b600281106142b757634e487b7160e01b600052603260045260246000fd5b60200201516142c69083615da4565b6142d1906001615be7565b614312565b600182858d600281106142f957634e487b7160e01b600052603260045260246000fd5b60200201516143089190615da4565b6143129190615da4565b905081848c6002811061433557634e487b7160e01b600052603260045260246000fd5b60200201528a156143645784614353670de0b6b3a764000083615d46565b61435d9190615bff565b9050614375565b610109546143729082615bff565b90505b9b9a5050505050505050505050565b61438c6116b3565b156143a95760405162461bcd60e51b81526004016105379061568a565b6067805460ff191660011790557f62e78cea01bee320cd4e420270b5ea74000d11b0c9f74754ebdbfc544b05a258612ead612ced565b600054610100900460ff16806143f8575060005460ff16155b6144145760405162461bcd60e51b8152600401610537906156e9565b600054610100900460ff1615801561443f576000805460ff1961ff0019909116610100171660011790555b614447614a26565b61444f614afa565b80156133fc576000805461ff001916905550565b600054610100900460ff168061447c575060005460ff16155b6144985760405162461bcd60e51b8152600401610537906156e9565b600054610100900460ff161580156144c3576000805460ff1961ff0019909116610100171660011790555b61444f614b6a565b3390565b1690565b6000600160ff1b82136144f85760405162461bcd60e51b815260040161053790615a77565b61260282615e2a565b600080821215612f4f5760405162461bcd60e51b8152600401610537906156b4565b60008061452f84612f7c565b9050828015614542575060208101518151105b1561456157506040805180820190915260208481015182528451908201525b80516000805b60ff8160ff16101561461557602084015184518491600291839161458a91615d46565b6145949190615bff565b61459e9086615be7565b6145a89190615bff565b9350808411156145c3576145bc8185615da4565b92506145d0565b6145cd8482615da4565b92505b6001831115806145f05750836145ee84670de0b6b3a7640000615d46565b105b15614602578395505050505050612602565b508061460d81615e0a565b915050614567565b5060405162461bcd60e51b8152600401610537906159b7565b60006101005461010154670de0b6b3a764000061464b9190615d46565b6146559190615bff565b9050670de0b6b3a764000081111561468057614679670de0b6b3a764000082615da4565b9050614695565b61469281670de0b6b3a7640000615da4565b90505b61010f546000906146b0906146ab600a85615bff565b614be3565b9050808211156149945760006146c4614bf3565b905060008082136146d65760006146d9565b60015b905060006146f8600160006146ed86612f53565b858a61010054614018565b9050600085610101548661470c9190615d46565b6147168789615da4565b610100546147249190615d46565b61472e9190615be7565b6147389190615bff565b9050600060405180604001604052808a60006002811061476857634e487b7160e01b600052603260045260246000fd5b6020020151815260200161010054848c60016002811061479857634e487b7160e01b600052603260045260246000fd5b60200201516147a79190615d46565b6147b19190615bff565b90528a5160208c0151604051630eeec14f60e11b815292935060009273__$02a049080fc263d5eb822a1008e5b660f8$__92631ddd829e926147f7928790600401615aef565b60206040518083038186803b15801561480f57600080fd5b505af4158015614823573d6000803e3d6000fd5b505050506040513d601f19601f820116820180604052508101906148479190615072565b905060006148636001600061485b8a612f53565b898689614018565b6101055461010c54604051638e9dafdb60e01b81529293506000926001600160a01b0392831692638e9dafdb9261489f929116906004016151d9565b60206040518083038186803b1580156148b757600080fd5b505afa1580156148cb573d6000803e3d6000fd5b505050506040513d601f19601f820116820180604052508101906148ef9190615072565b905060006149086148ff88612f26565b610f1285612f26565b9050614915816002615d46565b82111561498a57614924613351565b61010086905560fd8490557f3a18146952241c39559c93edc7a200367f24fc588422227359fa7ddc2778e03c614958612ced565b8383878a610101546040516149729695949392919061525a565b60405180910390a1505050505050505050505061499c565b5050505050505050505b505060fd8190555b505050565b6149a9614d96565b60408051808201909152610109546101075482916149c691615d46565b8152602001670de0b6b3a7640000610100546101096001600281106149fb57634e487b7160e01b600052603260045260246000fd5b015461010854614a0b9190615d46565b614a159190615d46565b614a1f9190615bff565b9052905090565b600054610100900460ff1680614a3f575060005460ff16155b614a5b5760405162461bcd60e51b8152600401610537906156e9565b600054610100900460ff16158015614a86576000805460ff1961ff0019909116610100171660011790555b614a8e614c41565b6000614a98612ced565b603380546001600160a01b0319166001600160a01b038316908117909155604051919250906000907f8be0079c531659141344cd1fd0a4f28419497f9722a3daafe3b4186f6b6457e0908290a35080156133fc576000805461ff001916905550565b600054610100900460ff1680614b13575060005460ff16155b614b2f5760405162461bcd60e51b8152600401610537906156e9565b600054610100900460ff16158015614b5a576000805460ff1961ff0019909116610100171660011790555b614b62614ca5565b61444f614d18565b600054610100900460ff1680614b83575060005460ff16155b614b9f5760405162461bcd60e51b8152600401610537906156e9565b600054610100900460ff16158015614bca576000805460ff1961ff0019909116610100171660011790555b600160cb5580156133fc576000805461ff001916905550565b600081831015612e4b5750919050565b61011754600090614c1a5761010854614c1390610f049061271090615bff565b9050610b1c565b614c2a61011660015b0154612f26565b614c376101076001614c23565b612cf79190615d65565b600054610100900460ff1680614c5a575060005460ff16155b614c765760405162461bcd60e51b8152600401610537906156e9565b600054610100900460ff16158015614ca1576000805460ff1961ff0019909116610100171660011790555b61444f5b600054610100900460ff1680614cbe575060005460ff16155b614cda5760405162461bcd60e51b8152600401610537906156e9565b600054610100900460ff1615801561444f576000805460ff1961ff00199091166101001716600117905580156133fc576000805461ff001916905550565b600054610100900460ff1680614d31575060005460ff16155b614d4d5760405162461bcd60e51b8152600401610537906156e9565b600054610100900460ff16158015614d78576000805460ff1961ff0019909116610100171660011790555b6067805460ff1916905580156133fc576000805461ff001916905550565b60405180604001604052806002906020820280368337509192915050565b6040518060800160405280614dc7614d96565b8152602001614dd4614d96565b815260200160008152602001614de8614d96565b905290565b8260028101928215614e35579160200282015b82811115614e3557825182546001600160a01b0319166001600160a01b03909116178255602090920191600190910190614e00565b50612f4f929150614ec0565b8260028101928215614e35579160200282015b82811115614e35578251825591602001919060010190614e54565b604051806101000160405280614e83614d96565b8152602001614e90614d96565b81526020016000815260200160008152602001600081526020016000815260200160008152602001600081525090565b5b80821115612f4f5760008155600101614ec1565b80356001600160a01b0381168114610a1f57600080fd5b600060208284031215614efd578081fd5b61305f82614ed5565b600060208284031215614f17578081fd5b815161305f81615e70565b600060208284031215614f33578081fd5b815167ffffffffffffffff80821115614f4a578283fd5b818401915084601f830112614f5d578283fd5b815181811115614f6f57614f6f615e5a565b614f82601f8201601f1916602001615bb6565b9150808252856020828501011115614f98578384fd5b614fa9816020840160208601615dde565b50949350505050565b6000610140808385031215614fc5578182fd5b614fce81615bb6565b9050823581526020830135602082015260408301356040820152606083013560608201526080830135608082015261500860a08401614ed5565b60a082015261501960c08401614ed5565b60c082015261502a60e08401614ed5565b60e082015261010061503d818501614ed5565b9082015261012061504f848201614ed5565b908201529392505050565b60006020828403121561506b578081fd5b5035919050565b600060208284031215615083578081fd5b5051919050565b6000806040838503121561509c578081fd5b50508035926020909101359150565b6000806000606084860312156150bf578081fd5b505081359360208301359350604090920135919050565b6000806000606084860312156150ea578283fd5b8351925060208401519150604084015190509250925092565b60008060008060808587031215615118578081fd5b843593506020850135925060408501359150606085013561513881615e70565b939692955090935050565b600080600080600060a0868803121561515a578081fd5b85359450602086013593506040860135925060608601359150608086013561518181615e70565b809150509295509295909350565b6000602082840312156151a0578081fd5b815160ff8116811461305f578182fd5b8060005b60028110156151d35781518452602093840193909101906001016151b4565b50505050565b6001600160a01b0391909116815260200190565b6001600160a01b039384168152919092166020820152604081019190915260600190565b6001600160a01b03929092168252602082015260400190565b6001600160a01b039590951685526020850193909352604084019190915260608301521515608082015260a00190565b6001600160a01b03969096168652602086019490945260408501929092526060840152608083015260a082015260c00190565b901515815260200190565b60006020825282518060208401526152b7816040850160208701615dde565b601f01601f19169190910160400192915050565b60208082526008908201526720a6afa1a4a7a7a960c11b604082015260600190565b602080825260069082015265105357d1d51360d21b604082015260600190565b602080825260069082015265534f5f434e4360d01b604082015260600190565b6020808252600690820152650414d5f4149360d41b604082015260600190565b60208082526014908201527314185d5cd8589b194e881b9bdd081c185d5cd95960621b604082015260600190565b602080825260099082015268414d5f475454564c4360b81b604082015260600190565b6020808252600690820152650414d5f4241360d41b604082015260600190565b602080825260079082015266414d5f43484e4360c81b604082015260600190565b6020808252600790820152660414d5f435141360cc1b604082015260600190565b602080825260079082015266414d5f4143545360c81b604082015260600190565b602080825260059082015264414d5f494160d81b604082015260600190565b602080825260059082015264105357d25360da1b604082015260600190565b602080825260069082015265534f5f53414360d01b604082015260600190565b6020808252600a9082015269414d5f4f53505753454960b01b604082015260600190565b602080825260069082015265105357d0551360d21b604082015260600190565b602080825260079082015266105357d050d51360ca1b604082015260600190565b602080825260069082015265414d5f47545360d01b604082015260600190565b602080825260079082015266414d5f4d544e4360c81b604082015260600190565b602080825260069082015265414d5f434e4d60d01b604082015260600190565b60208082526006908201526520a6afaa262d60d11b604082015260600190565b602080825260099082015268105357d3d4d415d49360ba1b604082015260600190565b60208082526006908201526520a6afa627a360d11b604082015260600190565b602080825260069082015265534f5f53414f60d01b604082015260600190565b6020808252600690820152650414d5f4f4c560d41b604082015260600190565b602080825260069082015265534f5f434e4f60d01b604082015260600190565b6020808252600790820152660414d5f41444e360cc1b604082015260600190565b6020808252600890820152670414d5f4d414854360c41b604082015260600190565b60208082526006908201526520a6afa624ad60d11b604082015260600190565b602080825260059082015264414d5f4e4d60d81b604082015260600190565b60208082526010908201526f14185d5cd8589b194e881c185d5cd95960821b604082015260600190565b6020808252818101527f53616665436173743a2076616c7565206d75737420626520706f736974697665604082015260600190565b6020808252602e908201527f496e697469616c697a61626c653a20636f6e747261637420697320616c72656160408201526d191e481a5b9a5d1a585b1a5e995960921b606082015260800190565b602080825260079082015266414d5f4743545360c81b604082015260600190565b6020808252600790820152660414d5f434241360cc1b604082015260600190565b602080825260089082015267414d5f434942494160c01b604082015260600190565b6020808252600a9082015269414d5f4f53505753454f60b01b604082015260600190565b6020808252600690820152650414d5f5141360d41b604082015260600190565b60208082526010908201526f2ab732bc3832b1ba32b21032b93937b960811b604082015260600190565b60208082526006908201526520a6afa0a22d60d11b604082015260600190565b602080825260069082015265414d5f4f414d60d01b604082015260600190565b602080825260099082015268105357d3d4d415d05360ba1b604082015260600190565b602080825260069082015265414d5f41545360d01b604082015260600190565b602080825260069082015265105357d3d35560d21b604082015260600190565b602080825260079082015266105357d1d0d51360ca1b604082015260600190565b602080825260079082015266414d5f4c504e4360c81b604082015260600190565b602080825260059082015264105357d25560da1b604082015260600190565b602080825260069082015265414d5f53434960d01b604082015260600190565b60208082526028908201527f53616665436173743a2076616c756520646f65736e27742066697420696e2061604082015267371034b73a191a9b60c11b606082015260800190565b602080825260079082015266414d5f4354545360c81b604082015260600190565b602080825260079082015266414d5f4654545360c81b604082015260600190565b60208082526010908201526f446964206e6f7420636f6e766572676560801b604082015260600190565b602080825260079082015266414d5f4942494160c81b604082015260600190565b6020808252600590820152640534f5f43360dc1b604082015260600190565b60208082526005908201526420a6afa62d60d91b604082015260600190565b6020808252601f908201527f5265656e7472616e637947756172643a207265656e7472616e742063616c6c00604082015260600190565b60208082526021908201527f4661697274726164654d6174683a20696e76657273696f6e206f766572666c6f6040820152607760f81b606082015260800190565b6020808252600690820152650534f5f4e57360d41b604082015260600190565b90815260200190565b918252602082015260400190565b83815260208101839052608081016118f760408301846151b0565b8581526020810185905260c08101615b2560408301866151b0565b608082019390935260a001529392505050565b9283526020830191909152604082015260600190565b93845260208401929092526040830152606082015260800190565b9485526020850193909352604084019190915260608301521515608082015260a00190565b958652602086019490945260408501929092526060840152608083015260a082015260c00190565b604051601f8201601f1916810167ffffffffffffffff81118282101715615bdf57615bdf615e5a565b604052919050565b60008219821115615bfa57615bfa615e44565b500190565b600082615c1a57634e487b7160e01b81526012600452602481fd5b500490565b80825b6001808611615c315750615c5c565b818704821115615c4357615c43615e44565b80861615615c5057918102915b9490941c938002615c22565b94509492505050565b600061305f6000198484615c82565b600061305f60001960ff8516845b600082615c915750600161305f565b81615c9e5750600061305f565b8160018114615cb45760028114615cbe57615ceb565b600191505061305f565b60ff841115615ccf57615ccf615e44565b6001841b915084821115615ce557615ce5615e44565b5061305f565b5060208310610133831016604e8410600b8410161715615d1e575081810a83811115615d1957615d19615e44565b61305f565b615d2b8484846001615c1f565b808604821115615d3d57615d3d615e44565b02949350505050565b6000816000190483118215151615615d6057615d60615e44565b500290565b60008083128015600160ff1b850184121615615d8357615d83615e44565b6001600160ff1b0384018313811615615d9e57615d9e615e44565b50500390565b600082821015615db657615db6615e44565b500390565b600060ff821660ff841680821015615dd557615dd5615e44565b90039392505050565b60005b83811015615df9578181015183820152602001615de1565b838111156151d35750506000910152565b600060ff821660ff811415615e2157615e21615e44565b60010192915050565b6000600160ff1b821415615e4057615e40615e44565b0390565b634e487b7160e01b600052601160045260246000fd5b634e487b7160e01b600052604160045260246000fd5b80151581146133fc57600080fdfea2646970667358221220d523ff80370b72d2e0bcbe941bca41723eb72a27b834b7c612cbcf3bb72bb9d764736f6c63430008010033",
  "linkReferences": {
    "contracts/lib/AmmLib.sol": {
      "AmmLib": [
        {
          "length": 20,
          "start": 4952
        },
        {
          "length": 20,
          "start": 5147
        },
        {
          "length": 20,
          "start": 9378
        },
        {
          "length": 20,
          "start": 9536
        },
        {
          "length": 20,
          "start": 12462
        },
        {
          "length": 20,
          "start": 12762
        },
        {
          "length": 20,
          "start": 12977
        },
        {
          "length": 20,
          "start": 14166
        },
        {
          "length": 20,
          "start": 14567
        },
        {
          "length": 20,
          "start": 15394
        },
        {
          "length": 20,
          "start": 16549
        },
        {
          "length": 20,
          "start": 16917
        },
        {
          "length": 20,
          "start": 18416
        }
      ]
    }
  },
  "deployedLinkReferences": {
    "contracts/lib/AmmLib.sol": {
      "AmmLib": [
        {
          "length": 20,
          "start": 4919
        },
        {
          "length": 20,
          "start": 5114
        },
        {
          "length": 20,
          "start": 9345
        },
        {
          "length": 20,
          "start": 9503
        },
        {
          "length": 20,
          "start": 12429
        },
        {
          "length": 20,
          "start": 12729
        },
        {
          "length": 20,
          "start": 12944
        },
        {
          "length": 20,
          "start": 14133
        },
        {
          "length": 20,
          "start": 14534
        },
        {
          "length": 20,
          "start": 15361
        },
        {
          "length": 20,
          "start": 16516
        },
        {
          "length": 20,
          "start": 16884
        },
        {
          "length": 20,
          "start": 18383
        }
      ]
    }
  }
}