{
    "_format": "hh-sol-artifact-1",
    "contractName": "AmmCurve",
    "sourceName": "contracts/amm/AmmCurve.sol",
    "abi": [
        {
            "anonymous": false,
            "inputs": [
                {
                    "indexed": true,
                    "internalType": "address",
                    "name": "previousOwner",
                    "type": "address"
                },
                {
                    "indexed": true,
                    "internalType": "address",
                    "name": "newOwner",
                    "type": "address"
                }
            ],
            "name": "OwnershipTransferred",
            "type": "event"
        },
        {
            "inputs": [
                {
                    "internalType": "address",
                    "name": "baseToken",
                    "type": "address"
                },
                {
                    "internalType": "uint256",
                    "name": "amount0Desired",
                    "type": "uint256"
                },
                {
                    "internalType": "uint256",
                    "name": "amount1Desired",
                    "type": "uint256"
                },
                {
                    "internalType": "uint256",
                    "name": "minLiquidity",
                    "type": "uint256"
                }
            ],
            "name": "addLiquidity",
            "outputs": [
                {
                    "internalType": "uint256",
                    "name": "",
                    "type": "uint256"
                },
                {
                    "internalType": "uint256",
                    "name": "",
                    "type": "uint256"
                },
                {
                    "internalType": "uint256",
                    "name": "",
                    "type": "uint256"
                }
            ],
            "stateMutability": "nonpayable",
            "type": "function"
        },
        {
            "inputs": [
                {
                    "internalType": "address",
                    "name": "baseToken",
                    "type": "address"
                },
                {
                    "internalType": "uint256",
                    "name": "amount0Desired",
                    "type": "uint256"
                },
                {
                    "internalType": "uint256",
                    "name": "amount1Desired",
                    "type": "uint256"
                }
            ],
            "name": "calcLiquidityByTokenAmounts",
            "outputs": [
                {
                    "internalType": "uint256",
                    "name": "",
                    "type": "uint256"
                }
            ],
            "stateMutability": "view",
            "type": "function"
        },
        {
            "inputs": [
                {
                    "internalType": "address",
                    "name": "baseToken",
                    "type": "address"
                },
                {
                    "internalType": "uint256",
                    "name": "liquidity",
                    "type": "uint256"
                }
            ],
            "name": "calcTokenAmountsByLiquidity",
            "outputs": [
                {
                    "internalType": "uint256",
                    "name": "amount0",
                    "type": "uint256"
                },
                {
                    "internalType": "uint256",
                    "name": "amount1",
                    "type": "uint256"
                }
            ],
            "stateMutability": "view",
            "type": "function"
        },
        {
            "inputs": [],
            "name": "candidate",
            "outputs": [
                {
                    "internalType": "address",
                    "name": "",
                    "type": "address"
                }
            ],
            "stateMutability": "view",
            "type": "function"
        },
        {
            "inputs": [],
            "name": "factory",
            "outputs": [
                {
                    "internalType": "address",
                    "name": "",
                    "type": "address"
                }
            ],
            "stateMutability": "view",
            "type": "function"
        },
        {
            "inputs": [
                {
                    "internalType": "address",
                    "name": "baseToken",
                    "type": "address"
                }
            ],
            "name": "getAdminFeeRatio",
            "outputs": [
                {
                    "internalType": "uint256",
                    "name": "",
                    "type": "uint256"
                }
            ],
            "stateMutability": "view",
            "type": "function"
        },
        {
            "inputs": [],
            "name": "getAdminFeeReceiver",
            "outputs": [
                {
                    "internalType": "address",
                    "name": "",
                    "type": "address"
                }
            ],
            "stateMutability": "view",
            "type": "function"
        },
        {
            "inputs": [
                {
                    "internalType": "address",
                    "name": "baseToken",
                    "type": "address"
                },
                {
                    "internalType": "uint256",
                    "name": "i",
                    "type": "uint256"
                }
            ],
            "name": "getBalances",
            "outputs": [
                {
                    "internalType": "uint256",
                    "name": "",
                    "type": "uint256"
                }
            ],
            "stateMutability": "view",
            "type": "function"
        },
        {
            "inputs": [
                {
                    "internalType": "address",
                    "name": "baseToken",
                    "type": "address"
                }
            ],
            "name": "getCoinBalances",
            "outputs": [
                {
                    "internalType": "uint256[2]",
                    "name": "",
                    "type": "uint256[2]"
                }
            ],
            "stateMutability": "view",
            "type": "function"
        },
        {
            "inputs": [
                {
                    "internalType": "address",
                    "name": "baseToken",
                    "type": "address"
                },
                {
                    "internalType": "uint256",
                    "name": "i",
                    "type": "uint256"
                }
            ],
            "name": "getCoins",
            "outputs": [
                {
                    "internalType": "address",
                    "name": "",
                    "type": "address"
                }
            ],
            "stateMutability": "view",
            "type": "function"
        },
        {
            "inputs": [
                {
                    "internalType": "address",
                    "name": "baseToken",
                    "type": "address"
                },
                {
                    "internalType": "uint256",
                    "name": "i",
                    "type": "uint256"
                },
                {
                    "internalType": "uint256",
                    "name": "j",
                    "type": "uint256"
                },
                {
                    "internalType": "uint256",
                    "name": "dy",
                    "type": "uint256"
                }
            ],
            "name": "getDx",
            "outputs": [
                {
                    "internalType": "uint256",
                    "name": "",
                    "type": "uint256"
                },
                {
                    "internalType": "uint256",
                    "name": "",
                    "type": "uint256"
                }
            ],
            "stateMutability": "view",
            "type": "function"
        },
        {
            "inputs": [
                {
                    "internalType": "address",
                    "name": "baseToken",
                    "type": "address"
                },
                {
                    "internalType": "uint256",
                    "name": "i",
                    "type": "uint256"
                },
                {
                    "internalType": "uint256",
                    "name": "j",
                    "type": "uint256"
                },
                {
                    "internalType": "uint256",
                    "name": "dx",
                    "type": "uint256"
                }
            ],
            "name": "getDy",
            "outputs": [
                {
                    "internalType": "uint256",
                    "name": "",
                    "type": "uint256"
                },
                {
                    "internalType": "uint256",
                    "name": "",
                    "type": "uint256"
                }
            ],
            "stateMutability": "view",
            "type": "function"
        },
        {
            "inputs": [
                {
                    "internalType": "address",
                    "name": "baseToken",
                    "type": "address"
                }
            ],
            "name": "getPool",
            "outputs": [
                {
                    "internalType": "address",
                    "name": "",
                    "type": "address"
                }
            ],
            "stateMutability": "view",
            "type": "function"
        },
        {
            "inputs": [
                {
                    "internalType": "address",
                    "name": "baseToken",
                    "type": "address"
                }
            ],
            "name": "getPriceCurrent",
            "outputs": [
                {
                    "internalType": "uint256",
                    "name": "",
                    "type": "uint256"
                }
            ],
            "stateMutability": "view",
            "type": "function"
        },
        {
            "inputs": [
                {
                    "internalType": "address",
                    "name": "baseToken",
                    "type": "address"
                }
            ],
            "name": "getPriceLast",
            "outputs": [
                {
                    "internalType": "uint256",
                    "name": "",
                    "type": "uint256"
                }
            ],
            "stateMutability": "view",
            "type": "function"
        },
        {
            "inputs": [
                {
                    "internalType": "address",
                    "name": "baseToken",
                    "type": "address"
                }
            ],
            "name": "getPriceOracle",
            "outputs": [
                {
                    "internalType": "uint256",
                    "name": "",
                    "type": "uint256"
                }
            ],
            "stateMutability": "view",
            "type": "function"
        },
        {
            "inputs": [
                {
                    "internalType": "address",
                    "name": "baseToken",
                    "type": "address"
                }
            ],
            "name": "getPriceScale",
            "outputs": [
                {
                    "internalType": "uint256",
                    "name": "",
                    "type": "uint256"
                }
            ],
            "stateMutability": "view",
            "type": "function"
        },
        {
            "inputs": [
                {
                    "internalType": "address",
                    "name": "baseToken",
                    "type": "address"
                }
            ],
            "name": "getTotalLiquidity",
            "outputs": [
                {
                    "internalType": "uint256",
                    "name": "",
                    "type": "uint256"
                }
            ],
            "stateMutability": "view",
            "type": "function"
        },
        {
            "inputs": [
                {
                    "internalType": "address",
                    "name": "baseToken",
                    "type": "address"
                },
                {
                    "internalType": "uint256",
                    "name": "interval",
                    "type": "uint256"
                }
            ],
            "name": "getTwapMarkPrice",
            "outputs": [
                {
                    "internalType": "uint256",
                    "name": "",
                    "type": "uint256"
                }
            ],
            "stateMutability": "view",
            "type": "function"
        },
        {
            "inputs": [
                {
                    "internalType": "address",
                    "name": "baseToken",
                    "type": "address"
                }
            ],
            "name": "hasPool",
            "outputs": [
                {
                    "internalType": "bool",
                    "name": "",
                    "type": "bool"
                }
            ],
            "stateMutability": "view",
            "type": "function"
        },
        {
            "inputs": [
                {
                    "internalType": "address",
                    "name": "factoryArg",
                    "type": "address"
                }
            ],
            "name": "initialize",
            "outputs": [],
            "stateMutability": "nonpayable",
            "type": "function"
        },
        {
            "inputs": [],
            "name": "liquidityProvider",
            "outputs": [
                {
                    "internalType": "address",
                    "name": "",
                    "type": "address"
                }
            ],
            "stateMutability": "view",
            "type": "function"
        },
        {
            "inputs": [],
            "name": "marketTaker",
            "outputs": [
                {
                    "internalType": "address",
                    "name": "",
                    "type": "address"
                }
            ],
            "stateMutability": "view",
            "type": "function"
        },
        {
            "inputs": [
                {
                    "internalType": "address",
                    "name": "baseToken",
                    "type": "address"
                }
            ],
            "name": "midFee",
            "outputs": [
                {
                    "internalType": "uint256",
                    "name": "",
                    "type": "uint256"
                }
            ],
            "stateMutability": "view",
            "type": "function"
        },
        {
            "inputs": [],
            "name": "owner",
            "outputs": [
                {
                    "internalType": "address",
                    "name": "",
                    "type": "address"
                }
            ],
            "stateMutability": "view",
            "type": "function"
        },
        {
            "inputs": [
                {
                    "internalType": "address",
                    "name": "baseToken",
                    "type": "address"
                },
                {
                    "internalType": "uint256",
                    "name": "liquidity",
                    "type": "uint256"
                },
                {
                    "internalType": "uint256",
                    "name": "minAmount0",
                    "type": "uint256"
                },
                {
                    "internalType": "uint256",
                    "name": "minAmount1",
                    "type": "uint256"
                }
            ],
            "name": "removeLiquidity",
            "outputs": [
                {
                    "internalType": "uint256",
                    "name": "amount0",
                    "type": "uint256"
                },
                {
                    "internalType": "uint256",
                    "name": "amount1",
                    "type": "uint256"
                }
            ],
            "stateMutability": "nonpayable",
            "type": "function"
        },
        {
            "inputs": [],
            "name": "renounceOwnership",
            "outputs": [],
            "stateMutability": "nonpayable",
            "type": "function"
        },
        {
            "inputs": [
                {
                    "internalType": "address",
                    "name": "liquidityProviderArg",
                    "type": "address"
                }
            ],
            "name": "setLiquidityProvider",
            "outputs": [],
            "stateMutability": "nonpayable",
            "type": "function"
        },
        {
            "inputs": [
                {
                    "internalType": "address",
                    "name": "marketTakerArg",
                    "type": "address"
                }
            ],
            "name": "setMarketTaker",
            "outputs": [],
            "stateMutability": "nonpayable",
            "type": "function"
        },
        {
            "inputs": [
                {
                    "internalType": "address",
                    "name": "newOwner",
                    "type": "address"
                }
            ],
            "name": "setOwner",
            "outputs": [],
            "stateMutability": "nonpayable",
            "type": "function"
        },
        {
            "inputs": [
                {
                    "internalType": "address",
                    "name": "baseToken",
                    "type": "address"
                },
                {
                    "internalType": "uint256",
                    "name": "i",
                    "type": "uint256"
                },
                {
                    "internalType": "uint256",
                    "name": "j",
                    "type": "uint256"
                },
                {
                    "internalType": "uint256",
                    "name": "dx",
                    "type": "uint256"
                }
            ],
            "name": "simulatedSwap",
            "outputs": [
                {
                    "internalType": "uint256",
                    "name": "priceAfter",
                    "type": "uint256"
                },
                {
                    "internalType": "uint256",
                    "name": "amount0",
                    "type": "uint256"
                },
                {
                    "internalType": "uint256",
                    "name": "amount1",
                    "type": "uint256"
                }
            ],
            "stateMutability": "nonpayable",
            "type": "function"
        },
        {
            "inputs": [
                {
                    "internalType": "address",
                    "name": "baseToken",
                    "type": "address"
                },
                {
                    "internalType": "uint256",
                    "name": "i",
                    "type": "uint256"
                },
                {
                    "internalType": "uint256",
                    "name": "j",
                    "type": "uint256"
                },
                {
                    "internalType": "uint256",
                    "name": "dx",
                    "type": "uint256"
                },
                {
                    "internalType": "uint256",
                    "name": "dyLimit",
                    "type": "uint256"
                }
            ],
            "name": "simulatedSwapInternal",
            "outputs": [
                {
                    "internalType": "uint256",
                    "name": "",
                    "type": "uint256"
                },
                {
                    "internalType": "uint256",
                    "name": "",
                    "type": "uint256"
                }
            ],
            "stateMutability": "nonpayable",
            "type": "function"
        },
        {
            "inputs": [
                {
                    "internalType": "address",
                    "name": "baseToken",
                    "type": "address"
                },
                {
                    "internalType": "uint256",
                    "name": "i",
                    "type": "uint256"
                },
                {
                    "internalType": "uint256",
                    "name": "j",
                    "type": "uint256"
                },
                {
                    "internalType": "uint256",
                    "name": "dx",
                    "type": "uint256"
                },
                {
                    "internalType": "uint256",
                    "name": "dyLimit",
                    "type": "uint256"
                }
            ],
            "name": "swap",
            "outputs": [
                {
                    "internalType": "uint256",
                    "name": "",
                    "type": "uint256"
                },
                {
                    "internalType": "uint256",
                    "name": "",
                    "type": "uint256"
                }
            ],
            "stateMutability": "nonpayable",
            "type": "function"
        },
        {
            "inputs": [],
            "name": "totalVauleLockedCap",
            "outputs": [
                {
                    "internalType": "uint256",
                    "name": "",
                    "type": "uint256"
                }
            ],
            "stateMutability": "view",
            "type": "function"
        },
        {
            "inputs": [],
            "name": "updateOwner",
            "outputs": [],
            "stateMutability": "nonpayable",
            "type": "function"
        },
        {
            "inputs": [
                {
                    "internalType": "uint256",
                    "name": "totalVauleLockedCapArg",
                    "type": "uint256"
                }
            ],
            "name": "updateTotalVauleLockedCap",
            "outputs": [],
            "stateMutability": "nonpayable",
            "type": "function"
        }
    ],
    "bytecode": "0x608060405234801561001057600080fd5b50612bba806100206000396000f3fe608060405234801561001057600080fd5b506004361061021c5760003560e01c80637fdc9fc811610125578063bbe4f6db116100ad578063cc8409281161007c578063cc84092814610472578063e624c4bc14610485578063e9a387b014610498578063fb39b424146104a0578063fcddb3cc146104b35761021c565b8063bbe4f6db1461043c578063bc5920ba1461044f578063c45a015514610457578063c4d66de81461045f5761021c565b8063993a3a5c116100f4578063993a3a5c146103dd5780639a5f60e5146103f05780639de8ef7914610403578063a27a64b214610416578063a70bba67146104295761021c565b80637fdc9fc8146103a7578063803841b7146103ba5780638da5cb5b146103c257806393ca2f8a146103ca5761021c565b8063564cd092116101a85780636c8381f8116101775780636c8381f814610350578063715018a61461035857806373b53e931461036057806374d6c4a6146103815780637d4dd954146103945761021c565b8063564cd0921461030d5780635b8bec55146103205780635d44444b1461033557806360adc8ab146103485761021c565b80632b7746f1116101ef5780632b7746f1146102a15780633a5ad779146102b457806349cf2a61146102c75780634a4f0db3146102da578063508d501d146102fa5761021c565b80631246dbf51461022157806313af40351461024a5780631ece366a1461025f578063235679a114610281575b600080fd5b61023461022f3660046121d4565b6104c6565b6040516102419190612512565b60405180910390f35b61025d6102583660046121d4565b61054f565b005b61027261026d36600461226b565b61063b565b604051610241939291906129ee565b61029461028f36600461220c565b6108c2565b604051610241919061251d565b6102946102af3660046121d4565b610a2e565b6102946102c23660046121d4565b610aa9565b6102726102d536600461226b565b610aec565b6102ed6102e83660046121d4565b610ca1565b60405161024191906124e9565b6102946103083660046121d4565b610dd2565b61029461031b366004612237565b610e23565b610328611038565b60405161024191906124a7565b6102946103433660046121d4565b611047565b61032861108a565b610328611099565b61025d6110a8565b61037361036e36600461226b565b61113d565b6040516102419291906129e0565b61037361038f3660046122a5565b611239565b6103736103a236600461220c565b611278565b6102946103b536600461220c565b611382565b610328611408565b61032861148a565b6103736103d836600461226b565b611499565b61025d6103eb3660046123fe565b6115cb565b6103736103fe3660046122a5565b61160f565b6102946104113660046121d4565b61164d565b6102946104243660046121d4565b611713565b61032861043736600461220c565b611756565b61032861044a3660046121d4565b6117dc565b61025d61185d565b610328611920565b61025d61046d3660046121d4565b61192f565b61037361048036600461226b565b6119f6565b61025d6104933660046121d4565b611a94565b610294611af5565b6102946104ae3660046121d4565b611afb565b61025d6104c13660046121d4565b611ba5565b6069546040516372971b3f60e01b81526000916001600160a01b0316906372971b3f906104f79085906004016124a7565b60206040518083038186803b15801561050f57600080fd5b505afa158015610523573d6000803e3d6000fd5b505050506040513d601f19601f82011682018060405250810190610547919061234e565b90505b919050565b610557611c06565b6001600160a01b031661056861148a565b6001600160a01b0316146105975760405162461bcd60e51b815260040161058e906126fd565b60405180910390fd5b6001600160a01b0381166105bd5760405162461bcd60e51b815260040161058e90612993565b6033546001600160a01b03828116911614156105eb5760405162461bcd60e51b815260040161058e906126bd565b6034546001600160a01b03828116911614156106195760405162461bcd60e51b815260040161058e9061265d565b603480546001600160a01b0319166001600160a01b0392909216919091179055565b606b54600090819081906001600160a01b0316331461066c5760405162461bcd60e51b815260040161058e906126dd565b6000861161068c5760405162461bcd60e51b815260040161058e906127e1565b600085116106ac5760405162461bcd60e51b815260040161058e906125de565b604080518082019091528681526020810186905260006106cb89610ca1565b905060006106d88a611afb565b8251909150158015906106ee5750602082015115155b156107655761070e898360005b60200201518460015b6020020151611c0a565b60208401819052881061072357888352610760565b610738888360015b6020020151846000610704565b80845289101561075857634e487b7160e01b600052600160045260246000fd5b602083018890525b6107c9565b6402540be4006107ab610793670de0b6b3a7640000610784858d612a88565b61078e9190612a68565b611c74565b61079c8c611c74565b6107a69190612aa7565b611ca1565b11156107c95760405162461bcd60e51b815260040161058e906128f3565b60685483516020850151670de0b6b3a7640000906107e8908590612a88565b6107f29190612a68565b6107fc9190612a50565b106108195760405162461bcd60e51b815260040161058e906125bb565b60006108248b6117dc565b6001600160a01b0316630b4c7e4d858a6040518363ffffffff1660e01b81526004016108519291906124f7565b602060405180830381600087803b15801561086b57600080fd5b505af115801561087f573d6000803e3d6000fd5b505050506040513d601f19601f820116820180604052508101906108a39190612416565b84516020909501519497509395509293505050505b9450945094915050565b6000806000806108d186611cca565b92509250925084600014806108e4575082155b156108f357509150610a289050565b6000856108fe611d78565b6109089190612ae6565b90508082101561091e5782945050505050610a28565b8160008161092a611d78565b6109349190612ae6565b905060006109428287612a88565b905060005b8761097a5782610961578698505050505050505050610a28565b61096b8383612a68565b98505050505050505050610a28565b610985600189612ae6565b97506000806109938a611d7c565b92509250508681116109c6576109a98787612ae6565b6109b39083612a88565b6109bd9085612a50565b935050506109fe565b6109d08187612ae6565b92506109dc8383612a88565b6109e69085612a50565b93506109f28386612a50565b94508095505050610947565b81610a13578698505050505050505050610a28565b610a1d8a83612a68565b985050505050505050505b92915050565b6000610a39826117dc565b6001600160a01b03166386fc88d36040518163ffffffff1660e01b815260040160206040518083038186803b158015610a7157600080fd5b505afa158015610a85573d6000803e3d6000fd5b505050506040513d601f19601f820116820180604052508101906105479190612416565b6000610ab4826117dc565b6001600160a01b031663b9e8c9fd6040518163ffffffff1660e01b815260040160206040518083038186803b158015610a7157600080fd5b600080600084861415610b115760405162461bcd60e51b815260040161058e9061288b565b60028610610b315760405162461bcd60e51b815260040161058e90612559565b60028510610b515760405162461bcd60e51b815260040161058e90612559565b6000610b5f8888888861113d565b50604051633a6b625360e11b815290915030906374d6c4a690610b8e908b908b908b908b9088906004016124bb565b6040805180830381600087803b158015610ba757600080fd5b505af1925050508015610bd7575060408051601f3d908101601f19168201909252610bd49181019061242e565b60015b610c94573d808015610c05576040519150601f19603f3d011682016040523d82523d6000602084013e610c0a565b606091505b508051606014610c6957604481511015610c365760405162461bcd60e51b815260040161058e90612821565b60048101905080806020019051810190610c50919061236e565b60405162461bcd60e51b815260040161058e9190612526565b600080600083806020019051810190610c829190612451565b919950975095506108b8945050505050565b5050509450945094915050565b610ca96121b6565b6000610cb4836117dc565b6001600160a01b0316634903b0d160006040518263ffffffff1660e01b8152600401610ce0919061251d565b60206040518083038186803b158015610cf857600080fd5b505afa158015610d0c573d6000803e3d6000fd5b505050506040513d601f19601f82011682018060405250810190610d309190612416565b90506000610d3d846117dc565b6001600160a01b0316634903b0d160016040518263ffffffff1660e01b8152600401610d69919061251d565b60206040518083038186803b158015610d8157600080fd5b505afa158015610d95573d6000803e3d6000fd5b505050506040513d601f19601f82011682018060405250810190610db99190612416565b6040805180820190915292835260208301525092915050565b6069546000906001600160a01b031663d88bf68d610def846117dc565b6040518263ffffffff1660e01b8152600401610e0b91906124a7565b60206040518083038186803b158015610a7157600080fd5b6000808311610e445760405162461bcd60e51b815260040161058e906125fe565b60008211610e645760405162461bcd60e51b815260040161058e906127c0565b60408051808201909152838152602081018390526000610e8386610ca1565b90506000610e9087611afb565b825190915015801590610ea65750602082015115155b15610f0557610eb7868360006106fb565b602084018190528510610ecc57858352610f00565b610ed88583600161072b565b808452861015610ef857634e487b7160e01b600052600160045260246000fd5b602083018590525b610f57565b6402540be400610f2d610f24670de0b6b3a7640000610784858a612a88565b61079c89611c74565b1115610f4b5760405162461bcd60e51b815260040161058e906128f3565b60009350505050611031565b60685483516020850151670de0b6b3a764000090610f76908590612a88565b610f809190612a68565b610f8a9190612a50565b10610fa75760405162461bcd60e51b815260040161058e906125bb565b610fb0876117dc565b6001600160a01b0316638d8ea727846040518263ffffffff1660e01b8152600401610fdb91906124e9565b60206040518083038186803b158015610ff357600080fd5b505afa158015611007573d6000803e3d6000fd5b505050506040513d601f19601f8201168201806040525081019061102b9190612416565b93505050505b9392505050565b606b546001600160a01b031681565b6000611052826117dc565b6001600160a01b03166392526c0c6040518163ffffffff1660e01b815260040160206040518083038186803b158015610a7157600080fd5b606a546001600160a01b031681565b6034546001600160a01b031690565b6110b0611c06565b6001600160a01b03166110c161148a565b6001600160a01b0316146110e75760405162461bcd60e51b815260040161058e906126fd565b6033546040516000916001600160a01b0316907f8be0079c531659141344cd1fd0a4f28419497f9722a3daafe3b4186f6b6457e0908390a3603380546001600160a01b0319908116909155603480549091169055565b600080838514156111605760405162461bcd60e51b815260040161058e9061288b565b600285106111805760405162461bcd60e51b815260040161058e90612559565b600284106111a05760405162461bcd60e51b815260040161058e90612559565b6000806111ac886117dc565b6001600160a01b031663556d6e9f8888886040518463ffffffff1660e01b81526004016111db939291906129ee565b604080518083038186803b1580156111f257600080fd5b505afa158015611206573d6000803e3d6000fd5b505050506040513d601f19601f8201168201806040525081019061122a919061242e565b90999098509650505050505050565b60008033301461125b5760405162461bcd60e51b815260040161058e9061284b565b61126a87878787876001611dea565b915091509550959350505050565b6000806001831161129b5760405162461bcd60e51b815260040161058e90612933565b60006112a68561164d565b9050600081116112c85760405162461bcd60e51b815260040161058e9061267d565b808411156112e85760405162461bcd60e51b815260040161058e9061269d565b60006112f3866117dc565b6001600160a01b0316633077059f866040518263ffffffff1660e01b815260040161131e919061251d565b604080518083038186803b15801561133557600080fd5b505afa158015611349573d6000803e3d6000fd5b505050506040513d601f19601f8201168201806040525081019061136d91906122e8565b80516020909101519097909650945050505050565b600061138d836117dc565b6001600160a01b0316634903b0d1836040518263ffffffff1660e01b81526004016113b8919061251d565b60206040518083038186803b1580156113d057600080fd5b505afa1580156113e4573d6000803e3d6000fd5b505050506040513d601f19601f820116820180604052508101906110319190612416565b6069546040805163cab4d3db60e01b815290516000926001600160a01b03169163cab4d3db916004808301926020929190829003018186803b15801561144d57600080fd5b505afa158015611461573d6000803e3d6000fd5b505050506040513d601f19601f8201168201806040525081019061148591906121f0565b905090565b6033546001600160a01b031690565b606b5460009081906001600160a01b031633146114c85760405162461bcd60e51b815260040161058e906126dd565b600185116114e85760405162461bcd60e51b815260040161058e9061271d565b60006114f38761164d565b9050808611156115155760405162461bcd60e51b815260040161058e9061269d565b6000611520886117dc565b6001600160a01b0316633eb1719f8860405180604001604052808a815260200189815250306040518463ffffffff1660e01b8152600401611563939291906129b3565b6040805180830381600087803b15801561157c57600080fd5b505af1158015611590573d6000803e3d6000fd5b505050506040513d601f19601f820116820180604052508101906115b491906122e8565b805160209091015190999098509650505050505050565b6115d3611c06565b6001600160a01b03166115e461148a565b6001600160a01b03161461160a5760405162461bcd60e51b815260040161058e906126fd565b606855565b606a5460009081906001600160a01b0316331461163e5760405162461bcd60e51b815260040161058e9061286b565b61126a87878787876000611dea565b60695460009081906001600160a01b031663977d912261166c856117dc565b6040518263ffffffff1660e01b815260040161168891906124a7565b60206040518083038186803b1580156116a057600080fd5b505afa1580156116b4573d6000803e3d6000fd5b505050506040513d601f19601f820116820180604052508101906116d891906121f0565b9050806001600160a01b03166318160ddd6040518163ffffffff1660e01b815260040160206040518083038186803b1580156113d057600080fd5b600061171e826117dc565b6001600160a01b031663c146bf946040518163ffffffff1660e01b815260040160206040518083038186803b158015610a7157600080fd5b6000611761836117dc565b6001600160a01b031663c6610657836040518263ffffffff1660e01b815260040161178c919061251d565b60206040518083038186803b1580156117a457600080fd5b505afa1580156117b8573d6000803e3d6000fd5b505050506040513d601f19601f8201168201806040525081019061103191906121f0565b6069546040516353eb076960e11b81526000916001600160a01b03169063a7d60ed29061180d9085906004016124a7565b60206040518083038186803b15801561182557600080fd5b505afa158015611839573d6000803e3d6000fd5b505050506040513d601f19601f8201168201806040525081019061054791906121f0565b6034546001600160a01b03166118855760405162461bcd60e51b815260040161058e90612914565b61188d611c06565b6034546001600160a01b039081169116146118ba5760405162461bcd60e51b815260040161058e9061257b565b6034546033546040516001600160a01b0392831692909116907f8be0079c531659141344cd1fd0a4f28419497f9722a3daafe3b4186f6b6457e090600090a360348054603380546001600160a01b03199081166001600160a01b03841617909155169055565b6069546001600160a01b031681565b600054610100900460ff1680611948575060005460ff16155b6119645760405162461bcd60e51b815260040161058e90612772565b600054610100900460ff1615801561198f576000805460ff1961ff0019909116610100171660011790555b611997611f9c565b6119a9826001600160a01b0316612071565b6119c55760405162461bcd60e51b815260040161058e90612801565b606980546001600160a01b0319166001600160a01b03841617905580156119f2576000805461ff00191690555b5050565b60008083851415611a195760405162461bcd60e51b815260040161058e9061288b565b60028510611a395760405162461bcd60e51b815260040161058e90612559565b60028410611a595760405162461bcd60e51b815260040161058e90612559565b600080611a65886117dc565b6001600160a01b03166337ed3a7a8888886040518463ffffffff1660e01b81526004016111db939291906129ee565b611a9c611c06565b6001600160a01b0316611aad61148a565b6001600160a01b031614611ad35760405162461bcd60e51b815260040161058e906126fd565b606b80546001600160a01b0319166001600160a01b0392909216919091179055565b60685481565b600080611b078361164d565b90508015611b9c576000611b24846001600064174876e80061113d565b5090506000611b3c856000600164174876e8006119f6565b509050611b4c8262989680612a88565b9150611b5b8162989680612a88565b90506000611b6886611713565b905082811015611b7e578294505050505061054a565b81811115611b915750925061054a915050565b935061054a92505050565b61103183610aa9565b611bad611c06565b6001600160a01b0316611bbe61148a565b6001600160a01b031614611be45760405162461bcd60e51b815260040161058e906126fd565b606a80546001600160a01b0319166001600160a01b0392909216919091179055565b3390565b6000808411611c2b5760405162461bcd60e51b815260040161058e9061261f565b600083118015611c3b5750600082115b611c575760405162461bcd60e51b815260040161058e9061263e565b82611c628386612a88565b611c6c9190612a68565b949350505050565b60006001600160ff1b03821115611c9d5760405162461bcd60e51b815260040161058e906128ab565b5090565b600080821215611cc157611cbc611cb783612077565b6120a5565b610547565b610547826120a5565b60675460009081908190611cf6576000611ce385611afb565b611ceb611d78565b925092509250611d71565b606754600090611d0890600190612ae6565b9050600060678281548110611d2d57634e487b7160e01b600052603260045260246000fd5b600091825260209182902060408051606081018252600390930290910180548084526001820154948401859052600290910154929091018290529650909450925050505b9193909250565b4290565b60008060008060678581548110611da357634e487b7160e01b600052603260045260246000fd5b600091825260209182902060408051606081018252600393909302909101805480845260018201549484018590526002909101549290910182905297919650945092505050565b60008085871415611e0d5760405162461bcd60e51b815260040161058e9061288b565b60028710611e2d5760405162461bcd60e51b815260040161058e90612559565b60028610611e4d5760405162461bcd60e51b815260040161058e90612559565b60008511611e6d5760405162461bcd60e51b815260040161058e9061259b565b600080611e798a6117dc565b6001600160a01b0316635b41b9088a8a8a8a6040518563ffffffff1660e01b8152600401611eaa9493929190612a04565b6040805180830381600087803b158015611ec357600080fd5b505af1158015611ed7573d6000803e3d6000fd5b505050506040513d601f19601f82011682018060405250810190611efb919061242e565b915091508415611f29576000611f108b611afb565b9050604051818152886020820152836040820152606081fd5b606760405180606001604052806067805490508152602001611f4a8d611afb565b8152602001611f57611d78565b90528154600180820184556000938452602093849020835160039093020191825592820151928101929092556040015160029091015590999098509650505050505050565b600054610100900460ff1680611fb5575060005460ff16155b611fd15760405162461bcd60e51b815260040161058e90612772565b600054610100900460ff16158015611ffc576000805460ff1961ff0019909116610100171660011790555b6120046120c7565b600061200e611c06565b603380546001600160a01b0319166001600160a01b038316908117909155604051919250906000907f8be0079c531659141344cd1fd0a4f28419497f9722a3daafe3b4186f6b6457e0908290a350801561206e576000805461ff00191690555b50565b3b151590565b6000600160ff1b821361209c5760405162461bcd60e51b815260040161058e90612952565b61054782612b29565b600080821215611c9d5760405162461bcd60e51b815260040161058e9061273d565b600054610100900460ff16806120e0575060005460ff16155b6120fc5760405162461bcd60e51b815260040161058e90612772565b600054610100900460ff16158015612127576000805460ff1961ff0019909116610100171660011790555b61212f612143565b801561206e576000805461ff001916905550565b600054610100900460ff168061215c575060005460ff16155b6121785760405162461bcd60e51b815260040161058e90612772565b600054610100900460ff1615801561212f576000805460ff1961ff001990911661010017166001179055801561206e576000805461ff001916905550565b60405180604001604052806002906020820280368337509192915050565b6000602082840312156121e5578081fd5b813561103181612b6f565b600060208284031215612201578081fd5b815161103181612b6f565b6000806040838503121561221e578081fd5b823561222981612b6f565b946020939093013593505050565b60008060006060848603121561224b578081fd5b833561225681612b6f565b95602085013595506040909401359392505050565b60008060008060808587031215612280578081fd5b843561228b81612b6f565b966020860135965060408601359560600135945092505050565b600080600080600060a086880312156122bc578081fd5b85356122c781612b6f565b97602087013597506040870135966060810135965060800135945092505050565b6000604082840312156122f9578081fd5b82601f830112612307578081fd5b6123116040612a1f565b808385604086011115612322578384fd5b835b6002811015612343578151845260209384019390910190600101612324565b509095945050505050565b60006020828403121561235f578081fd5b81518015158114611031578182fd5b60006020828403121561237f578081fd5b815167ffffffffffffffff80821115612396578283fd5b818401915084601f8301126123a9578283fd5b8151818111156123bb576123bb612b59565b6123ce601f8201601f1916602001612a1f565b91508082528560208285010111156123e4578384fd5b6123f5816020840160208601612afd565b50949350505050565b60006020828403121561240f578081fd5b5035919050565b600060208284031215612427578081fd5b5051919050565b60008060408385031215612440578182fd5b505080516020909101519092909150565b600080600060608486031215612465578283fd5b8351925060208401519150604084015190509250925092565b8060005b60028110156124a1578151845260209384019390910190600101612482565b50505050565b6001600160a01b0391909116815260200190565b6001600160a01b03959095168552602085019390935260408401919091526060830152608082015260a00190565b60408101610a28828461247e565b60608101612505828561247e565b8260408301529392505050565b901515815260200190565b90815260200190565b6000602082528251806020840152612545816040850160208701612afd565b601f01601f19169190910160400192915050565b60208082526008908201526720a6afa1a4a7a7a960c11b604082015260600190565b602080825260069082015265534f5f434e4360d01b604082015260600190565b6020808252600690820152650414d5f4149360d41b604082015260600190565b602080825260099082015268414d5f475454564c4360b81b604082015260600190565b6020808252600690820152650414d5f4241360d41b604082015260600190565b6020808252600790820152660414d5f435141360cc1b604082015260600190565b602080825260059082015264414d5f494160d81b604082015260600190565b602080825260059082015264105357d25360da1b604082015260600190565b602080825260069082015265534f5f53414360d01b604082015260600190565b60208082526006908201526520a6afaa262d60d11b604082015260600190565b60208082526006908201526520a6afa627a360d11b604082015260600190565b602080825260069082015265534f5f53414f60d01b604082015260600190565b6020808252600690820152650414d5f4f4c560d41b604082015260600190565b602080825260069082015265534f5f434e4f60d01b604082015260600190565b60208082526006908201526520a6afa624ad60d11b604082015260600190565b6020808252818101527f53616665436173743a2076616c7565206d75737420626520706f736974697665604082015260600190565b6020808252602e908201527f496e697469616c697a61626c653a20636f6e747261637420697320616c72656160408201526d191e481a5b9a5d1a585b1a5e995960921b606082015260800190565b6020808252600790820152660414d5f434241360cc1b604082015260600190565b6020808252600690820152650414d5f5141360d41b604082015260600190565b602080825260069082015265414d5f464e4360d01b604082015260600190565b60208082526010908201526f2ab732bc3832b1ba32b21032b93937b960811b604082015260600190565b602080825260069082015265414d5f4f414d60d01b604082015260600190565b602080825260069082015265105357d3d35560d21b604082015260600190565b602080825260069082015265414d5f53434960d01b604082015260600190565b60208082526028908201527f53616665436173743a2076616c756520646f65736e27742066697420696e2061604082015267371034b73a191a9b60c11b606082015260800190565b602080825260079082015266414d5f4942494160c81b604082015260600190565b6020808252600590820152640534f5f43360dc1b604082015260600190565b60208082526005908201526420a6afa62d60d91b604082015260600190565b60208082526021908201527f4661697274726164654d6174683a20696e76657273696f6e206f766572666c6f6040820152607760f81b606082015260800190565b6020808252600690820152650534f5f4e57360d41b604082015260600190565b838152608081016129c7602083018561247e565b6001600160a01b03929092166060919091015292915050565b918252602082015260400190565b9283526020830191909152604082015260600190565b93845260208401929092526040830152606082015260800190565b604051601f8201601f1916810167ffffffffffffffff81118282101715612a4857612a48612b59565b604052919050565b60008219821115612a6357612a63612b43565b500190565b600082612a8357634e487b7160e01b81526012600452602481fd5b500490565b6000816000190483118215151615612aa257612aa2612b43565b500290565b60008083128015600160ff1b850184121615612ac557612ac5612b43565b6001600160ff1b0384018313811615612ae057612ae0612b43565b50500390565b600082821015612af857612af8612b43565b500390565b60005b83811015612b18578181015183820152602001612b00565b838111156124a15750506000910152565b6000600160ff1b821415612b3f57612b3f612b43565b0390565b634e487b7160e01b600052601160045260246000fd5b634e487b7160e01b600052604160045260246000fd5b6001600160a01b038116811461206e57600080fdfea26469706673582212204e255c5987f9756afe6e5a343e4a7525acf1e8b21f273011546af1c048f3c41664736f6c63430008010033",
    "linkReferences": {},
    "deployedLinkReferences": {}
}