{
    "_format": "hh-sol-artifact-1",
    "contractName": "AmmFactory",
    "sourceName": "contracts/amm/AmmFactory.sol",
    "abi": [
        {
            "anonymous": false,
            "inputs": [
                {
                    "indexed": true,
                    "internalType": "address",
                    "name": "baseToken",
                    "type": "address"
                },
                {
                    "indexed": true,
                    "internalType": "uint24",
                    "name": "exchangeFeeRatio",
                    "type": "uint24"
                },
                {
                    "indexed": true,
                    "internalType": "address",
                    "name": "amm",
                    "type": "address"
                }
            ],
            "name": "AmmAdded",
            "type": "event"
        },
        {
            "anonymous": false,
            "inputs": [
                {
                    "indexed": false,
                    "internalType": "address",
                    "name": "baseToken",
                    "type": "address"
                },
                {
                    "indexed": false,
                    "internalType": "uint24",
                    "name": "exchangeFeeRatio",
                    "type": "uint24"
                }
            ],
            "name": "ExchangeFeeRatioChanged",
            "type": "event"
        },
        {
            "anonymous": false,
            "inputs": [
                {
                    "indexed": false,
                    "internalType": "uint24",
                    "name": "insuranceFundFeeRatio",
                    "type": "uint24"
                }
            ],
            "name": "InsuranceFundFeeRatioChanged",
            "type": "event"
        },
        {
            "anonymous": false,
            "inputs": [
                {
                    "indexed": true,
                    "internalType": "address",
                    "name": "previousOwner",
                    "type": "address"
                },
                {
                    "indexed": true,
                    "internalType": "address",
                    "name": "newOwner",
                    "type": "address"
                }
            ],
            "name": "OwnershipTransferred",
            "type": "event"
        },
        {
            "inputs": [],
            "name": "candidate",
            "outputs": [
                {
                    "internalType": "address",
                    "name": "",
                    "type": "address"
                }
            ],
            "stateMutability": "view",
            "type": "function"
        },
        {
            "inputs": [
                {
                    "internalType": "uint256",
                    "name": "A",
                    "type": "uint256"
                },
                {
                    "internalType": "uint256",
                    "name": "gamma",
                    "type": "uint256"
                },
                {
                    "internalType": "uint256",
                    "name": "adjustmentStep",
                    "type": "uint256"
                },
                {
                    "internalType": "uint256",
                    "name": "maHalfTime",
                    "type": "uint256"
                },
                {
                    "internalType": "uint256",
                    "name": "initialPrice",
                    "type": "uint256"
                },
                {
                    "internalType": "uint24",
                    "name": "exchangeFeeRatio",
                    "type": "uint24"
                },
                {
                    "internalType": "address",
                    "name": "baseToken",
                    "type": "address"
                }
            ],
            "name": "createAmm",
            "outputs": [
                {
                    "internalType": "address",
                    "name": "amm",
                    "type": "address"
                }
            ],
            "stateMutability": "nonpayable",
            "type": "function"
        },
        {
            "inputs": [
                {
                    "internalType": "address",
                    "name": "baseToken",
                    "type": "address"
                }
            ],
            "name": "getAmm",
            "outputs": [
                {
                    "internalType": "address",
                    "name": "",
                    "type": "address"
                }
            ],
            "stateMutability": "view",
            "type": "function"
        },
        {
            "inputs": [
                {
                    "internalType": "address",
                    "name": "baseToken",
                    "type": "address"
                }
            ],
            "name": "getAmmInfo",
            "outputs": [
                {
                    "components": [
                        {
                            "internalType": "address",
                            "name": "amm",
                            "type": "address"
                        },
                        {
                            "internalType": "uint24",
                            "name": "exchangeFeeRatio",
                            "type": "uint24"
                        },
                        {
                            "internalType": "uint24",
                            "name": "insuranceFundFeeRatio",
                            "type": "uint24"
                        }
                    ],
                    "internalType": "struct IAmmFactory.AmmInfo",
                    "name": "",
                    "type": "tuple"
                }
            ],
            "stateMutability": "view",
            "type": "function"
        },
        {
            "inputs": [],
            "name": "getClearingHouse",
            "outputs": [
                {
                    "internalType": "address",
                    "name": "",
                    "type": "address"
                }
            ],
            "stateMutability": "view",
            "type": "function"
        },
        {
            "inputs": [
                {
                    "internalType": "address",
                    "name": "baseToken",
                    "type": "address"
                }
            ],
            "name": "getExchangeFeeRatio",
            "outputs": [
                {
                    "internalType": "uint24",
                    "name": "",
                    "type": "uint24"
                }
            ],
            "stateMutability": "view",
            "type": "function"
        },
        {
            "inputs": [
                {
                    "internalType": "address",
                    "name": "baseToken",
                    "type": "address"
                }
            ],
            "name": "getInsuranceFundFeeRatio",
            "outputs": [
                {
                    "internalType": "uint24",
                    "name": "",
                    "type": "uint24"
                }
            ],
            "stateMutability": "view",
            "type": "function"
        },
        {
            "inputs": [],
            "name": "getLiquidityProvider",
            "outputs": [
                {
                    "internalType": "address",
                    "name": "",
                    "type": "address"
                }
            ],
            "stateMutability": "view",
            "type": "function"
        },
        {
            "inputs": [],
            "name": "getMarketTaker",
            "outputs": [
                {
                    "internalType": "address",
                    "name": "",
                    "type": "address"
                }
            ],
            "stateMutability": "view",
            "type": "function"
        },
        {
            "inputs": [],
            "name": "getOwner",
            "outputs": [
                {
                    "internalType": "address",
                    "name": "",
                    "type": "address"
                }
            ],
            "stateMutability": "view",
            "type": "function"
        },
        {
            "inputs": [],
            "name": "getQuoteToken",
            "outputs": [
                {
                    "internalType": "address",
                    "name": "",
                    "type": "address"
                }
            ],
            "stateMutability": "view",
            "type": "function"
        },
        {
            "inputs": [
                {
                    "internalType": "address",
                    "name": "baseToken",
                    "type": "address"
                }
            ],
            "name": "hasAmm",
            "outputs": [
                {
                    "internalType": "bool",
                    "name": "",
                    "type": "bool"
                }
            ],
            "stateMutability": "view",
            "type": "function"
        },
        {
            "inputs": [
                {
                    "internalType": "address",
                    "name": "quoteTokenArg",
                    "type": "address"
                },
                {
                    "internalType": "address",
                    "name": "ammViewArg",
                    "type": "address"
                }
            ],
            "name": "initialize",
            "outputs": [],
            "stateMutability": "nonpayable",
            "type": "function"
        },
        {
            "inputs": [],
            "name": "owner",
            "outputs": [
                {
                    "internalType": "address",
                    "name": "",
                    "type": "address"
                }
            ],
            "stateMutability": "view",
            "type": "function"
        },
        {
            "inputs": [],
            "name": "renounceOwnership",
            "outputs": [],
            "stateMutability": "nonpayable",
            "type": "function"
        },
        {
            "inputs": [
                {
                    "internalType": "address",
                    "name": "clearingHouseArg",
                    "type": "address"
                }
            ],
            "name": "setClearingHouse",
            "outputs": [],
            "stateMutability": "nonpayable",
            "type": "function"
        },
        {
            "inputs": [
                {
                    "internalType": "address",
                    "name": "baseToken",
                    "type": "address"
                },
                {
                    "internalType": "uint24",
                    "name": "exchangeFeeRatio",
                    "type": "uint24"
                }
            ],
            "name": "setExchangeFeeRatio",
            "outputs": [],
            "stateMutability": "nonpayable",
            "type": "function"
        },
        {
            "inputs": [
                {
                    "internalType": "address",
                    "name": "baseToken",
                    "type": "address"
                },
                {
                    "internalType": "uint24",
                    "name": "insuranceFundFeeRatioArg",
                    "type": "uint24"
                }
            ],
            "name": "setInsuranceFundFeeRatio",
            "outputs": [],
            "stateMutability": "nonpayable",
            "type": "function"
        },
        {
            "inputs": [
                {
                    "internalType": "address",
                    "name": "liquidityProviderArg",
                    "type": "address"
                }
            ],
            "name": "setLiquidityProvider",
            "outputs": [],
            "stateMutability": "nonpayable",
            "type": "function"
        },
        {
            "inputs": [
                {
                    "internalType": "address",
                    "name": "marketTakerArg",
                    "type": "address"
                }
            ],
            "name": "setMarketTaker",
            "outputs": [],
            "stateMutability": "nonpayable",
            "type": "function"
        },
        {
            "inputs": [
                {
                    "internalType": "address",
                    "name": "newOwner",
                    "type": "address"
                }
            ],
            "name": "setOwner",
            "outputs": [],
            "stateMutability": "nonpayable",
            "type": "function"
        },
        {
            "inputs": [],
            "name": "updateOwner",
            "outputs": [],
            "stateMutability": "nonpayable",
            "type": "function"
        }
    ],
    "bytecode": "0x608060405234801561001057600080fd5b50611aa7806100206000396000f3fe608060405234801561001057600080fd5b50600436106101425760003560e01c80637fbec653116100b8578063c575ff791161007c578063c575ff7914610269578063da48611114610271578063e2a72cce14610284578063e624c4bc1461028c578063f75ad90a1461029f578063fcddb3cc146102b257610142565b80637fbec6531461021e578063893d20e8146102315780638da5cb5b14610239578063b02dd21114610241578063bc5920ba1461026157610142565b80634a64d67d1161010a5780634a64d67d146101be57806354f4e599146101d357806355338fc1146101e65780636c8381f8146101ee5780636ea7507b146101f6578063715018a61461021657610142565b806308ff49ad1461014757806313af4035146101705780633feb421214610185578063449323d814610198578063485cc955146101ab575b600080fd5b61015a61015536600461144b565b6102c5565b6040516101679190611a4b565b60405180910390f35b61018361017e36600461144b565b6102e9565b005b61018361019336600461149e565b6103d5565b6101836101a636600461144b565b6104a3565b6101836101b936600461146c565b610504565b6101c661060f565b6040516101679190611673565b6101836101e136600461149e565b61061e565b6101c6610728565b6101c6610737565b61020961020436600461144b565b610746565b60405161016791906119be565b6101836107e0565b61015a61022c36600461144b565b610875565b6101c66108d2565b6101c66108e1565b61025461024f36600461144b565b6108f0565b60405161016791906116a5565b610183610910565b6101c66109d3565b6101c661027f3660046115c9565b6109e2565b6101c6610be7565b61018361029a36600461144b565b610bf6565b6101c66102ad36600461144b565b610c57565b6101836102c036600461144b565b610cb2565b6001600160a01b0381166000908152606d602052604090205462ffffff165b919050565b6102f1610d13565b6001600160a01b03166103026108e1565b6001600160a01b0316146103315760405162461bcd60e51b815260040161032890611824565b60405180910390fd5b6001600160a01b0381166103575760405162461bcd60e51b81526004016103289061199e565b6033546001600160a01b03828116911614156103855760405162461bcd60e51b8152600401610328906117e3565b6034546001600160a01b03828116911614156103b35760405162461bcd60e51b815260040161032890611756565b603480546001600160a01b0319166001600160a01b0392909216919091179055565b80620f42408162ffffff1611156103fe5760405162461bcd60e51b815260040161032890611737565b610406610d13565b6001600160a01b03166104176108e1565b6001600160a01b03161461043d5760405162461bcd60e51b815260040161032890611824565b6001600160a01b0383166000908152606d602052604090819020805462ffffff191662ffffff8516179055517f0b4bf524b123dd9f9252f2f17e6f842313eb705045a2259faccd2530bae3ff5c90610496908490611a4b565b60405180910390a1505050565b6104ab610d13565b6001600160a01b03166104bc6108e1565b6001600160a01b0316146104e25760405162461bcd60e51b815260040161032890611824565b606880546001600160a01b0319166001600160a01b0392909216919091179055565b600054610100900460ff168061051d575060005460ff16155b6105395760405162461bcd60e51b8152600401610328906118ab565b600054610100900460ff16158015610564576000805460ff1961ff0019909116610100171660011790555b61056c610d17565b61057e836001600160a01b0316610dec565b61059a5760405162461bcd60e51b815260040161032890611776565b6105ac826001600160a01b0316610dec565b6105c85760405162461bcd60e51b8152600401610328906118f9565b606780546001600160a01b038086166001600160a01b031992831617909255606b805492851692909116919091179055801561060a576000805461ff00191690555b505050565b6067546001600160a01b031690565b6001600160a01b038083166000908152606c60205260409020548391166106575760405162461bcd60e51b8152600401610328906116f4565b81620f42408162ffffff1611156106805760405162461bcd60e51b815260040161032890611737565b610688610d13565b6001600160a01b03166106996108e1565b6001600160a01b0316146106bf5760405162461bcd60e51b815260040161032890611824565b6001600160a01b0384166000908152606e602052604090819020805462ffffff191662ffffff8616179055517f240ed59d2cdf4d7c6066952ebaeda2a06b0e0a8c6a019862472dd9a239b9343a9061071a9086908690611687565b60405180910390a150505050565b6069546001600160a01b031690565b6034546001600160a01b031690565b61074e611401565b6001600160a01b038083166000908152606c60205260409020548391166107875760405162461bcd60e51b8152600401610328906116f4565b5050604080516060810182526001600160a01b039283166000818152606c6020908152848220549095168352818152606e85528381205462ffffff90811686850152918152606d90945292829020549092169082015290565b6107e8610d13565b6001600160a01b03166107f96108e1565b6001600160a01b03161461081f5760405162461bcd60e51b815260040161032890611824565b6033546040516000916001600160a01b0316907f8be0079c531659141344cd1fd0a4f28419497f9722a3daafe3b4186f6b6457e0908390a3603380546001600160a01b0319908116909155603480549091169055565b6001600160a01b038082166000908152606c602052604081205490918391166108b05760405162461bcd60e51b8152600401610328906116f4565b50506001600160a01b03166000908152606e602052604090205462ffffff1690565b60006108dc6108e1565b905090565b6033546001600160a01b031690565b6001600160a01b039081166000908152606c602052604090205416151590565b6034546001600160a01b03166109385760405162461bcd60e51b81526004016103289061197f565b610940610d13565b6034546001600160a01b0390811691161461096d5760405162461bcd60e51b8152600401610328906116d4565b6034546033546040516001600160a01b0392831692909116907f8be0079c531659141344cd1fd0a4f28419497f9722a3daafe3b4186f6b6457e090600090a360348054603380546001600160a01b03199081166001600160a01b03841617909155169055565b6068546001600160a01b031690565b60006001600160a01b038216610a0a5760405162461bcd60e51b815260040161032890611797565b60675460009081906001600160a01b0390811690851610610a37576067546001600160a01b031684610a46565b60675484906001600160a01b03165b9150915060008282604051602001610a5f92919061164c565b6040516020818303038152906040528051906020012090506000606b60009054906101000a90046001600160a01b03166001600160a01b03166357ac65666040518163ffffffff1660e01b815260040160006040518083038186803b158015610ac757600080fd5b505afa158015610adb573d6000803e3d6000fd5b505050506040513d6000823e601f3d908101601f19168201604052610b0391908101906114e7565b9050818151602083016000f594506001600160a01b038516610b375760405162461bcd60e51b8152600401610328906116b0565b6040805160e0810182528d8152602081018d90528082018c9052606081018b9052608081018a90526001600160a01b0388811660a0830152606754811660c0830152915163743eaf0d60e01b81529187169163743eaf0d91610b9b916004016119f3565b600060405180830381600087803b158015610bb557600080fd5b505af1158015610bc9573d6000803e3d6000fd5b50505050610bd8868689610df2565b50505050979650505050505050565b606a546001600160a01b031690565b610bfe610d13565b6001600160a01b0316610c0f6108e1565b6001600160a01b031614610c355760405162461bcd60e51b815260040161032890611824565b606a80546001600160a01b0319166001600160a01b0392909216919091179055565b6001600160a01b038082166000908152606c60205260408120549091839116610c925760405162461bcd60e51b8152600401610328906116f4565b50506001600160a01b039081166000908152606c60205260409020541690565b610cba610d13565b6001600160a01b0316610ccb6108e1565b6001600160a01b031614610cf15760405162461bcd60e51b815260040161032890611824565b606980546001600160a01b0319166001600160a01b0392909216919091179055565b3390565b600054610100900460ff1680610d30575060005460ff16155b610d4c5760405162461bcd60e51b8152600401610328906118ab565b600054610100900460ff16158015610d77576000805460ff1961ff0019909116610100171660011790555b610d7f611312565b6000610d89610d13565b603380546001600160a01b0319166001600160a01b038316908117909155604051919250906000907f8be0079c531659141344cd1fd0a4f28419497f9722a3daafe3b4186f6b6457e0908290a3508015610de9576000805461ff00191690555b50565b3b151590565b6001600160a01b038381166000908152606c60205260409020541615610e2a5760405162461bcd60e51b81526004016103289061195f565b826001600160a01b031663313ce5676040518163ffffffff1660e01b815260040160206040518083038186803b158015610e6357600080fd5b505afa158015610e77573d6000803e3d6000fd5b505050506040513d601f19601f82011682018060405250810190610e9b919061162b565b60ff16601214610ebd5760405162461bcd60e51b815260040161032890611866565b6068546040516370a0823160e01b8152600019916001600160a01b03808716926370a0823192610ef1921690600401611673565b60206040518083038186803b158015610f0957600080fd5b505afa158015610f1d573d6000803e3d6000fd5b505050506040513d601f19601f82011682018060405250810190610f4191906115b1565b14610f5e5760405162461bcd60e51b8152600401610328906117c1565b606754604080516318160ddd60e01b81529051600019926001600160a01b0316916318160ddd916004808301926020929190829003018186803b158015610fa457600080fd5b505afa158015610fb8573d6000803e3d6000fd5b505050506040513d601f19601f82011682018060405250810190610fdc91906115b1565b14610ff95760405162461bcd60e51b81526004016103289061193d565b61100b826001600160a01b0316610dec565b6110275760405162461bcd60e51b815260040161032890611803565b6068546040516304fec10960e11b81526001600160a01b03858116926309fd8212926110599290911690600401611673565b60206040518083038186803b15801561107157600080fd5b505afa158015611085573d6000803e3d6000fd5b505050506040513d601f19601f820116820180604052508101906110a991906114c7565b6110c55760405162461bcd60e51b815260040161032890611844565b6040516304fec10960e11b81526001600160a01b038416906309fd8212906110f1908590600401611673565b60206040518083038186803b15801561110957600080fd5b505afa15801561111d573d6000803e3d6000fd5b505050506040513d601f19601f8201168201806040525081019061114191906114c7565b61115d5760405162461bcd60e51b81526004016103289061191a565b6067546068546040516304fec10960e11b81526001600160a01b03928316926309fd82129261119192911690600401611673565b60206040518083038186803b1580156111a957600080fd5b505afa1580156111bd573d6000803e3d6000fd5b505050506040513d601f19601f820116820180604052508101906111e191906114c7565b6111fd5760405162461bcd60e51b815260040161032890611888565b6067546040516304fec10960e11b81526001600160a01b03909116906309fd82129061122d908590600401611673565b60206040518083038186803b15801561124557600080fd5b505afa158015611259573d6000803e3d6000fd5b505050506040513d601f19601f8201168201806040525081019061127d91906114c7565b6112995760405162461bcd60e51b815260040161032890611714565b6001600160a01b038381166000818152606c6020908152604080832080546001600160a01b0319169588169586179055606e909152808220805462ffffff191662ffffff871690811790915590519092917fd67f2f86ace0800f422e475bfe7341b6d68aa709a827096f770df50283b2bb1991a4505050565b600054610100900460ff168061132b575060005460ff16155b6113475760405162461bcd60e51b8152600401610328906118ab565b600054610100900460ff16158015611372576000805460ff1961ff0019909116610100171660011790555b61137a61138e565b8015610de9576000805461ff001916905550565b600054610100900460ff16806113a7575060005460ff16155b6113c35760405162461bcd60e51b8152600401610328906118ab565b600054610100900460ff1615801561137a576000805460ff1961ff0019909116610100171660011790558015610de9576000805461ff001916905550565b604080516060810182526000808252602082018190529181019190915290565b80356001600160a01b03811681146102e457600080fd5b803562ffffff811681146102e457600080fd5b60006020828403121561145c578081fd5b61146582611421565b9392505050565b6000806040838503121561147e578081fd5b61148783611421565b915061149560208401611421565b90509250929050565b600080604083850312156114b0578182fd5b6114b983611421565b915061149560208401611438565b6000602082840312156114d8578081fd5b81518015158114611465578182fd5b600060208083850312156114f9578182fd5b825167ffffffffffffffff80821115611510578384fd5b818501915085601f830112611523578384fd5b81518181111561153557611535611a5b565b604051601f8201601f19908116603f0116810190838211818310171561155d5761155d611a5b565b816040528281528886848701011115611574578687fd5b8693505b828410156115955784840186015181850187015292850192611578565b828411156115a557868684830101525b98975050505050505050565b6000602082840312156115c2578081fd5b5051919050565b600080600080600080600060e0888a0312156115e3578283fd5b873596506020880135955060408801359450606088013593506080880135925061160f60a08901611438565b915061161d60c08901611421565b905092959891949750929550565b60006020828403121561163c578081fd5b815160ff81168114611465578182fd5b6bffffffffffffffffffffffff19606093841b811682529190921b16601482015260280190565b6001600160a01b0391909116815260200190565b6001600160a01b0392909216825262ffffff16602082015260400190565b901515815260200190565b6020808252600a908201526910518e8811905253115160b21b604082015260600190565b602080825260069082015265534f5f434e4360d01b604082015260600190565b60208082526006908201526541465f504e4560d01b604082015260600190565b602080825260099082015268105197d053539455d360ba1b604082015260600190565b60208082526005908201526441465f524f60d81b604082015260600190565b602080825260069082015265534f5f53414360d01b604082015260600190565b60208082526007908201526641465f51544e4360c81b604082015260600190565b60208082526010908201526f41463a205a45524f5f4144445245535360801b604082015260600190565b60208082526008908201526741465f4348424e4560c01b604082015260600190565b602080825260069082015265534f5f53414f60d01b604082015260600190565b60208082526007908201526641465f414d4e4360c81b604082015260600190565b602080825260069082015265534f5f434e4f60d01b604082015260600190565b602080825260089082015267105197d0d39095d360c21b604082015260600190565b6020808252600890820152670828cbe84889c62760c31b604082015260600190565b602080825260099082015268105197d0d2139455d360ba1b604082015260600190565b6020808252602e908201527f496e697469616c697a61626c653a20636f6e747261637420697320616c72656160408201526d191e481a5b9a5d1a585b1a5e995960921b606082015260800190565b60208082526007908201526641465f41574e4360c81b604082015260600190565b602080825260099082015268105197d053539095d360ba1b604082015260600190565b60208082526008908201526741465f5154534e4560c01b604082015260600190565b60208082526006908201526541465f45414d60d01b604082015260600190565b6020808252600590820152640534f5f43360dc1b604082015260600190565b6020808252600690820152650534f5f4e57360d41b604082015260600190565b81516001600160a01b0316815260208083015162ffffff90811691830191909152604092830151169181019190915260600190565b815181526020808301519082015260408083015190820152606080830151908201526080808301519082015260a0808301516001600160a01b039081169183019190915260c092830151169181019190915260e00190565b62ffffff91909116815260200190565b634e487b7160e01b600052604160045260246000fdfea264697066735822122025a0dd3fc290ff9e8b2bf3fb3067faae59686812d9280a7e591e749c854b916f64736f6c63430008010033",
    "linkReferences": {},
    "deployedLinkReferences": {}
}