{
    "_format": "hh-sol-artifact-1",
    "contractName": "BaseToken",
    "sourceName": "contracts/token/BaseToken.sol",
    "abi": [
        {
            "anonymous": false,
            "inputs": [
                {
                    "indexed": true,
                    "internalType": "address",
                    "name": "owner",
                    "type": "address"
                },
                {
                    "indexed": true,
                    "internalType": "address",
                    "name": "spender",
                    "type": "address"
                },
                {
                    "indexed": false,
                    "internalType": "uint256",
                    "name": "value",
                    "type": "uint256"
                }
            ],
            "name": "Approval",
            "type": "event"
        },
        {
            "anonymous": false,
            "inputs": [
                {
                    "indexed": true,
                    "internalType": "address",
                    "name": "previousOwner",
                    "type": "address"
                },
                {
                    "indexed": true,
                    "internalType": "address",
                    "name": "newOwner",
                    "type": "address"
                }
            ],
            "name": "OwnershipTransferred",
            "type": "event"
        },
        {
            "anonymous": false,
            "inputs": [
                {
                    "indexed": true,
                    "internalType": "address",
                    "name": "priceFeed",
                    "type": "address"
                }
            ],
            "name": "PriceFeedChanged",
            "type": "event"
        },
        {
            "anonymous": false,
            "inputs": [
                {
                    "indexed": true,
                    "internalType": "address",
                    "name": "from",
                    "type": "address"
                },
                {
                    "indexed": true,
                    "internalType": "address",
                    "name": "to",
                    "type": "address"
                },
                {
                    "indexed": false,
                    "internalType": "uint256",
                    "name": "value",
                    "type": "uint256"
                }
            ],
            "name": "Transfer",
            "type": "event"
        },
        {
            "inputs": [
                {
                    "internalType": "address",
                    "name": "owner",
                    "type": "address"
                },
                {
                    "internalType": "address",
                    "name": "spender",
                    "type": "address"
                }
            ],
            "name": "allowance",
            "outputs": [
                {
                    "internalType": "uint256",
                    "name": "",
                    "type": "uint256"
                }
            ],
            "stateMutability": "view",
            "type": "function"
        },
        {
            "inputs": [
                {
                    "internalType": "address",
                    "name": "spender",
                    "type": "address"
                },
                {
                    "internalType": "uint256",
                    "name": "amount",
                    "type": "uint256"
                }
            ],
            "name": "approve",
            "outputs": [
                {
                    "internalType": "bool",
                    "name": "",
                    "type": "bool"
                }
            ],
            "stateMutability": "nonpayable",
            "type": "function"
        },
        {
            "inputs": [
                {
                    "internalType": "address",
                    "name": "account",
                    "type": "address"
                }
            ],
            "name": "balanceOf",
            "outputs": [
                {
                    "internalType": "uint256",
                    "name": "",
                    "type": "uint256"
                }
            ],
            "stateMutability": "view",
            "type": "function"
        },
        {
            "inputs": [],
            "name": "candidate",
            "outputs": [
                {
                    "internalType": "address",
                    "name": "",
                    "type": "address"
                }
            ],
            "stateMutability": "view",
            "type": "function"
        },
        {
            "inputs": [],
            "name": "decimals",
            "outputs": [
                {
                    "internalType": "uint8",
                    "name": "",
                    "type": "uint8"
                }
            ],
            "stateMutability": "view",
            "type": "function"
        },
        {
            "inputs": [
                {
                    "internalType": "address",
                    "name": "spender",
                    "type": "address"
                },
                {
                    "internalType": "uint256",
                    "name": "subtractedValue",
                    "type": "uint256"
                }
            ],
            "name": "decreaseAllowance",
            "outputs": [
                {
                    "internalType": "bool",
                    "name": "",
                    "type": "bool"
                }
            ],
            "stateMutability": "nonpayable",
            "type": "function"
        },
        {
            "inputs": [
                {
                    "internalType": "uint256",
                    "name": "interval",
                    "type": "uint256"
                }
            ],
            "name": "getIndexPrice",
            "outputs": [
                {
                    "internalType": "uint256",
                    "name": "",
                    "type": "uint256"
                }
            ],
            "stateMutability": "view",
            "type": "function"
        },
        {
            "inputs": [],
            "name": "getPriceFeed",
            "outputs": [
                {
                    "internalType": "address",
                    "name": "",
                    "type": "address"
                }
            ],
            "stateMutability": "view",
            "type": "function"
        },
        {
            "inputs": [
                {
                    "internalType": "address",
                    "name": "spender",
                    "type": "address"
                },
                {
                    "internalType": "uint256",
                    "name": "addedValue",
                    "type": "uint256"
                }
            ],
            "name": "increaseAllowance",
            "outputs": [
                {
                    "internalType": "bool",
                    "name": "",
                    "type": "bool"
                }
            ],
            "stateMutability": "nonpayable",
            "type": "function"
        },
        {
            "inputs": [
                {
                    "internalType": "string",
                    "name": "nameArg",
                    "type": "string"
                },
                {
                    "internalType": "string",
                    "name": "symbolArg",
                    "type": "string"
                },
                {
                    "internalType": "address",
                    "name": "priceFeedArg",
                    "type": "address"
                }
            ],
            "name": "initialize",
            "outputs": [],
            "stateMutability": "nonpayable",
            "type": "function"
        },
        {
            "inputs": [
                {
                    "internalType": "address",
                    "name": "recipient",
                    "type": "address"
                }
            ],
            "name": "mintMaximumTo",
            "outputs": [],
            "stateMutability": "nonpayable",
            "type": "function"
        },
        {
            "inputs": [],
            "name": "name",
            "outputs": [
                {
                    "internalType": "string",
                    "name": "",
                    "type": "string"
                }
            ],
            "stateMutability": "view",
            "type": "function"
        },
        {
            "inputs": [],
            "name": "owner",
            "outputs": [
                {
                    "internalType": "address",
                    "name": "",
                    "type": "address"
                }
            ],
            "stateMutability": "view",
            "type": "function"
        },
        {
            "inputs": [],
            "name": "renounceOwnership",
            "outputs": [],
            "stateMutability": "nonpayable",
            "type": "function"
        },
        {
            "inputs": [
                {
                    "internalType": "address",
                    "name": "factoryArg",
                    "type": "address"
                }
            ],
            "name": "setFactory",
            "outputs": [],
            "stateMutability": "nonpayable",
            "type": "function"
        },
        {
            "inputs": [
                {
                    "internalType": "address",
                    "name": "newOwner",
                    "type": "address"
                }
            ],
            "name": "setOwner",
            "outputs": [],
            "stateMutability": "nonpayable",
            "type": "function"
        },
        {
            "inputs": [
                {
                    "internalType": "address",
                    "name": "priceFeedArg",
                    "type": "address"
                }
            ],
            "name": "setPriceFeed",
            "outputs": [],
            "stateMutability": "nonpayable",
            "type": "function"
        },
        {
            "inputs": [],
            "name": "symbol",
            "outputs": [
                {
                    "internalType": "string",
                    "name": "",
                    "type": "string"
                }
            ],
            "stateMutability": "view",
            "type": "function"
        },
        {
            "inputs": [],
            "name": "totalSupply",
            "outputs": [
                {
                    "internalType": "uint256",
                    "name": "",
                    "type": "uint256"
                }
            ],
            "stateMutability": "view",
            "type": "function"
        },
        {
            "inputs": [
                {
                    "internalType": "address",
                    "name": "recipient",
                    "type": "address"
                },
                {
                    "internalType": "uint256",
                    "name": "amount",
                    "type": "uint256"
                }
            ],
            "name": "transfer",
            "outputs": [
                {
                    "internalType": "bool",
                    "name": "",
                    "type": "bool"
                }
            ],
            "stateMutability": "nonpayable",
            "type": "function"
        },
        {
            "inputs": [
                {
                    "internalType": "address",
                    "name": "sender",
                    "type": "address"
                },
                {
                    "internalType": "address",
                    "name": "recipient",
                    "type": "address"
                },
                {
                    "internalType": "uint256",
                    "name": "amount",
                    "type": "uint256"
                }
            ],
            "name": "transferFrom",
            "outputs": [
                {
                    "internalType": "bool",
                    "name": "",
                    "type": "bool"
                }
            ],
            "stateMutability": "nonpayable",
            "type": "function"
        },
        {
            "inputs": [],
            "name": "updateOwner",
            "outputs": [],
            "stateMutability": "nonpayable",
            "type": "function"
        }
    ],
    "bytecode": "0x608060405234801561001057600080fd5b50611a5d806100206000396000f3fe608060405234801561001057600080fd5b50600436106101425760003560e01c806370a08231116100b85780639e87a5cd1161007c5780639e87a5cd14610276578063a457c2d71461027e578063a9059cbb14610291578063bc5920ba146102a4578063dd62ed3e146102ac578063f52e308e146102bf57610142565b806370a0823114610238578063715018a61461024b578063724e78da146102535780638da5cb5b1461026657806395d89b411461026e57610142565b806318160ddd1161010a57806318160ddd146101cd57806323b872dd146101d5578063313ce567146101e857806339509351146101fd5780635bb47808146102105780636c8381f81461022357610142565b806306fdde0314610147578063077f224a14610165578063095ea7b31461017a578063120806471461019a57806313af4035146101ba575b600080fd5b61014f6102d2565b60405161015c9190611488565b60405180910390f35b6101786101733660046113a7565b610364565b005b61018d61018836600461137e565b6104cc565b60405161015c919061147d565b6101ad6101a8366004611418565b6104e9565b60405161015c9190611821565b6101786101c83660046112f7565b61057d565b6101ad610660565b61018d6101e3366004611343565b610666565b6101f06106ff565b60405161015c919061182a565b61018d61020b36600461137e565b610704565b61017861021e3660046112f7565b610753565b61022b6107b4565b60405161015c9190611469565b6101ad6102463660046112f7565b6107c3565b6101786107de565b6101786102613660046112f7565b610873565b61022b6109bd565b61014f6109cc565b61022b6109db565b61018d61028c36600461137e565b6109ea565b61018d61029f36600461137e565b610a65565b610178610a79565b6101ad6102ba366004611311565b610b3c565b6101786102cd3660046112f7565b610b67565b6060606a80546102e1906119c0565b80601f016020809104026020016040519081016040528092919081815260200182805461030d906119c0565b801561035a5780601f1061032f5761010080835404028352916020019161035a565b820191906000526020600020905b81548152906001019060200180831161033d57829003601f168201915b5050505050905090565b600054610100900460ff168061037d575060005460ff16155b6103a25760405162461bcd60e51b815260040161039990611647565b60405180910390fd5b600054610100900460ff161580156103cd576000805460ff1961ff0019909116610100171660011790555b6103d78484610b8d565b6000826001600160a01b031663313ce5676040518163ffffffff1660e01b815260040160206040518083038186803b15801561041257600080fd5b505afa158015610426573d6000803e3d6000fd5b505050506040513d601f19601f8201168201806040525081019061044a9190611448565b90506104546106ff565b60ff168160ff1611156104795760405162461bcd60e51b815260040161039990611606565b60cc80546001600160a01b0385166001600160a01b031990911617905560cb805460ff909216600160a01b0260ff60a01b1990921691909117905580156104c6576000805461ff00191690555b50505050565b60006104e06104d9610c16565b8484610c1a565b50600192915050565b60cc54604051630e75722360e41b8152600091610575916001600160a01b039091169063e757223090610520908690600401611821565b60206040518083038186803b15801561053857600080fd5b505afa15801561054c573d6000803e3d6000fd5b505050506040513d601f19601f820116820180604052508101906105709190611430565b610cce565b90505b919050565b610585610c16565b6001600160a01b03166105966109bd565b6001600160a01b0316146105bc5760405162461bcd60e51b815260040161039990611627565b6001600160a01b0381166105e25760405162461bcd60e51b8152600401610399906117ca565b6033546001600160a01b03828116911614156106105760405162461bcd60e51b8152600401610399906115a0565b6034546001600160a01b038281169116141561063e5760405162461bcd60e51b815260040161039990611580565b603480546001600160a01b0319166001600160a01b0392909216919091179055565b60695490565b6000610673848484610d05565b6001600160a01b038416600090815260686020526040812081610694610c16565b6001600160a01b03166001600160a01b03168152602001908152602001600020549050828110156106d75760405162461bcd60e51b815260040161039990611695565b6106f2856106e3610c16565b6106ed8685611986565b610c1a565b60019150505b9392505050565b601290565b60006104e0610711610c16565b84846068600061071f610c16565b6001600160a01b03908116825260208083019390935260409182016000908120918b16815292529020546106ed9190611838565b61075b610c16565b6001600160a01b031661076c6109bd565b6001600160a01b0316146107925760405162461bcd60e51b815260040161039990611627565b60cb80546001600160a01b0319166001600160a01b0392909216919091179055565b6034546001600160a01b031690565b6001600160a01b031660009081526067602052604090205490565b6107e6610c16565b6001600160a01b03166107f76109bd565b6001600160a01b03161461081d5760405162461bcd60e51b815260040161039990611627565b6033546040516000916001600160a01b0316907f8be0079c531659141344cd1fd0a4f28419497f9722a3daafe3b4186f6b6457e0908390a3603380546001600160a01b0319908116909155603480549091169055565b61087b610c16565b6001600160a01b031661088c6109bd565b6001600160a01b0316146108b25760405162461bcd60e51b815260040161039990611627565b6000816001600160a01b031663313ce5676040518163ffffffff1660e01b815260040160206040518083038186803b1580156108ed57600080fd5b505afa158015610901573d6000803e3d6000fd5b505050506040513d601f19601f820116820180604052508101906109259190611448565b905061092f6106ff565b60ff168160ff1611156109545760405162461bcd60e51b815260040161039990611606565b60cc80546001600160a01b0319166001600160a01b03848116919091179182905560cb805460ff60a01b1916600160a01b60ff8616021790556040519116907f70880247142cf113e15f57599afcb48f4cdd196159d882cda54475da68ea996190600090a25050565b6033546001600160a01b031690565b6060606b80546102e1906119c0565b60cc546001600160a01b031690565b600080606860006109f9610c16565b6001600160a01b0390811682526020808301939093526040918201600090812091881681529252902054905082811015610a455760405162461bcd60e51b815260040161039990611785565b610a5b610a50610c16565b856106ed8685611986565b5060019392505050565b60006104e0610a72610c16565b8484610d05565b6034546001600160a01b0316610aa15760405162461bcd60e51b815260040161039990611766565b610aa9610c16565b6034546001600160a01b03908116911614610ad65760405162461bcd60e51b81526004016103999061151e565b6034546033546040516001600160a01b0392831692909116907f8be0079c531659141344cd1fd0a4f28419497f9722a3daafe3b4186f6b6457e090600090a360348054603380546001600160a01b03199081166001600160a01b03841617909155169055565b6001600160a01b03918216600090815260686020908152604080832093909416825291909152205490565b60cb546001600160a01b03163314610b7e57600080fd5b610b8a81600019610e2d565b50565b600054610100900460ff1680610ba6575060005460ff16155b610bc25760405162461bcd60e51b815260040161039990611647565b600054610100900460ff16158015610bed576000805460ff1961ff0019909116610100171660011790555b610bf5610eed565b610bff8383610fc1565b8015610c11576000805461ff00191690555b505050565b3390565b6001600160a01b038316610c405760405162461bcd60e51b815260040161039990611722565b6001600160a01b038216610c665760405162461bcd60e51b81526004016103999061153e565b6001600160a01b0380841660008181526068602090815260408083209487168084529490915290819020849055517f8c5be1e5ebec7d5bd14f71427d1e84f3dd0314c0f7b2291e5b200ac8c7c3b92590610cc1908590611821565b60405180910390a3505050565b60cb54600090600160a01b900460ff16610ce66106ff565b610cf0919061199d565b610cfb90600a611896565b6105759083611967565b6001600160a01b038316610d2b5760405162461bcd60e51b8152600401610399906116dd565b6001600160a01b038216610d515760405162461bcd60e51b8152600401610399906114db565b610d5c838383610c11565b6001600160a01b03831660009081526067602052604090205481811015610d955760405162461bcd60e51b8152600401610399906115c0565b610d9f8282611986565b6001600160a01b038086166000908152606760205260408082209390935590851681529081208054849290610dd5908490611838565b92505081905550826001600160a01b0316846001600160a01b03167fddf252ad1be2c89b69c2b068fc378daa952ba7f163c4a11628f55a4df523b3ef84604051610e1f9190611821565b60405180910390a350505050565b6001600160a01b038216610e535760405162461bcd60e51b8152600401610399906117ea565b610e5f60008383610c11565b8060696000828254610e719190611838565b90915550506001600160a01b03821660009081526067602052604081208054839290610e9e908490611838565b90915550506040516001600160a01b038316906000907fddf252ad1be2c89b69c2b068fc378daa952ba7f163c4a11628f55a4df523b3ef90610ee1908590611821565b60405180910390a35050565b600054610100900460ff1680610f06575060005460ff16155b610f225760405162461bcd60e51b815260040161039990611647565b600054610100900460ff16158015610f4d576000805460ff1961ff0019909116610100171660011790555b610f55611033565b6000610f5f610c16565b603380546001600160a01b0319166001600160a01b038316908117909155604051919250906000907f8be0079c531659141344cd1fd0a4f28419497f9722a3daafe3b4186f6b6457e0908290a3508015610b8a576000805461ff001916905550565b600054610100900460ff1680610fda575060005460ff16155b610ff65760405162461bcd60e51b815260040161039990611647565b600054610100900460ff16158015611021576000805460ff1961ff0019909116610100171660011790555b6110296110af565b610bff8383611122565b600054610100900460ff168061104c575060005460ff16155b6110685760405162461bcd60e51b815260040161039990611647565b600054610100900460ff16158015611093576000805460ff1961ff0019909116610100171660011790555b61109b6110af565b8015610b8a576000805461ff001916905550565b600054610100900460ff16806110c8575060005460ff16155b6110e45760405162461bcd60e51b815260040161039990611647565b600054610100900460ff1615801561109b576000805460ff1961ff0019909116610100171660011790558015610b8a576000805461ff001916905550565b600054610100900460ff168061113b575060005460ff16155b6111575760405162461bcd60e51b815260040161039990611647565b600054610100900460ff16158015611182576000805460ff1961ff0019909116610100171660011790555b825161119590606a9060208601906111c0565b5081516111a990606b9060208501906111c0565b508015610c11576000805461ff0019169055505050565b8280546111cc906119c0565b90600052602060002090601f0160209004810192826111ee5760008555611234565b82601f1061120757805160ff1916838001178555611234565b82800160010185558215611234579182015b82811115611234578251825591602001919060010190611219565b50611240929150611244565b5090565b5b808211156112405760008155600101611245565b80356001600160a01b038116811461057857600080fd5b600082601f830112611280578081fd5b813567ffffffffffffffff8082111561129b5761129b611a11565b604051601f8301601f19908116603f011681019082821181831017156112c3576112c3611a11565b816040528381528660208588010111156112db578485fd5b8360208701602083013792830160200193909352509392505050565b600060208284031215611308578081fd5b6106f882611259565b60008060408385031215611323578081fd5b61132c83611259565b915061133a60208401611259565b90509250929050565b600080600060608486031215611357578081fd5b61136084611259565b925061136e60208501611259565b9150604084013590509250925092565b60008060408385031215611390578182fd5b61139983611259565b946020939093013593505050565b6000806000606084860312156113bb578283fd5b833567ffffffffffffffff808211156113d2578485fd5b6113de87838801611270565b945060208601359150808211156113f3578384fd5b5061140086828701611270565b92505061140f60408501611259565b90509250925092565b600060208284031215611429578081fd5b5035919050565b600060208284031215611441578081fd5b5051919050565b600060208284031215611459578081fd5b815160ff811681146106f8578182fd5b6001600160a01b0391909116815260200190565b901515815260200190565b6000602080835283518082850152825b818110156114b457858101830151858201604001528201611498565b818111156114c55783604083870101525b50601f01601f1916929092016040019392505050565b60208082526023908201527f45524332303a207472616e7366657220746f20746865207a65726f206164647260408201526265737360e81b606082015260800190565b602080825260069082015265534f5f434e4360d01b604082015260600190565b60208082526022908201527f45524332303a20617070726f766520746f20746865207a65726f206164647265604082015261737360f01b606082015260800190565b602080825260069082015265534f5f53414360d01b604082015260600190565b602080825260069082015265534f5f53414f60d01b604082015260600190565b60208082526026908201527f45524332303a207472616e7366657220616d6f756e7420657863656564732062604082015265616c616e636560d01b606082015260800190565b602080825260079082015266109517d254119160ca1b604082015260600190565b602080825260069082015265534f5f434e4f60d01b604082015260600190565b6020808252602e908201527f496e697469616c697a61626c653a20636f6e747261637420697320616c72656160408201526d191e481a5b9a5d1a585b1a5e995960921b606082015260800190565b60208082526028908201527f45524332303a207472616e7366657220616d6f756e74206578636565647320616040820152676c6c6f77616e636560c01b606082015260800190565b60208082526025908201527f45524332303a207472616e736665722066726f6d20746865207a65726f206164604082015264647265737360d81b606082015260800190565b60208082526024908201527f45524332303a20617070726f76652066726f6d20746865207a65726f206164646040820152637265737360e01b606082015260800190565b6020808252600590820152640534f5f43360dc1b604082015260600190565b60208082526025908201527f45524332303a2064656372656173656420616c6c6f77616e63652062656c6f77604082015264207a65726f60d81b606082015260800190565b6020808252600690820152650534f5f4e57360d41b604082015260600190565b6020808252601f908201527f45524332303a206d696e7420746f20746865207a65726f206164647265737300604082015260600190565b90815260200190565b60ff91909116815260200190565b6000821982111561184b5761184b6119fb565b500190565b80825b6001808611611862575061188d565b818704821115611874576118746119fb565b8086161561188157918102915b9490941c938002611853565b94509492505050565b60006106f860001960ff8516846000826118b2575060016106f8565b816118bf575060006106f8565b81600181146118d557600281146118df5761190c565b60019150506106f8565b60ff8411156118f0576118f06119fb565b6001841b915084821115611906576119066119fb565b506106f8565b5060208310610133831016604e8410600b841016171561193f575081810a8381111561193a5761193a6119fb565b6106f8565b61194c8484846001611850565b80860482111561195e5761195e6119fb565b02949350505050565b6000816000190483118215151615611981576119816119fb565b500290565b600082821015611998576119986119fb565b500390565b600060ff821660ff8416808210156119b7576119b76119fb565b90039392505050565b6002810460018216806119d457607f821691505b602082108114156119f557634e487b7160e01b600052602260045260246000fd5b50919050565b634e487b7160e01b600052601160045260246000fd5b634e487b7160e01b600052604160045260246000fdfea2646970667358221220393fd7cb18e52bf9c62c045bc364433cad936082f449908547a3aa9faf45ec0664736f6c63430008010033",
    "linkReferences": {},
    "deployedLinkReferences": {}
}