{
    "_format": "hh-sol-artifact-1",
    "contractName": "ClearingHouse",
    "sourceName": "contracts/clearinghouse/ClearingHouse.sol",
    "abi": [
        {
            "anonymous": false,
            "inputs": [
                {
                    "indexed": true,
                    "internalType": "address",
                    "name": "feeReceiver",
                    "type": "address"
                },
                {
                    "indexed": true,
                    "internalType": "address",
                    "name": "baseToken",
                    "type": "address"
                },
                {
                    "indexed": false,
                    "internalType": "uint256",
                    "name": "adminFee",
                    "type": "uint256"
                }
            ],
            "name": "AdminFeeSettled",
            "type": "event"
        },
        {
            "anonymous": false,
            "inputs": [
                {
                    "indexed": false,
                    "internalType": "address",
                    "name": "sender",
                    "type": "address"
                },
                {
                    "indexed": false,
                    "internalType": "uint256",
                    "name": "amountIn",
                    "type": "uint256"
                },
                {
                    "indexed": false,
                    "internalType": "uint256",
                    "name": "amountOut",
                    "type": "uint256"
                },
                {
                    "indexed": false,
                    "internalType": "uint256",
                    "name": "currentPrice",
                    "type": "uint256"
                },
                {
                    "indexed": false,
                    "internalType": "uint256",
                    "name": "oraclePrice",
                    "type": "uint256"
                }
            ],
            "name": "CalcPriceAfterSwap",
            "type": "event"
        },
        {
            "anonymous": false,
            "inputs": [
                {
                    "indexed": true,
                    "internalType": "address",
                    "name": "trader",
                    "type": "address"
                },
                {
                    "indexed": true,
                    "internalType": "address",
                    "name": "baseToken",
                    "type": "address"
                },
                {
                    "indexed": false,
                    "internalType": "int256",
                    "name": "fundingPayment",
                    "type": "int256"
                }
            ],
            "name": "FundingPaymentSettled",
            "type": "event"
        },
        {
            "anonymous": false,
            "inputs": [
                {
                    "indexed": true,
                    "internalType": "address",
                    "name": "maker",
                    "type": "address"
                },
                {
                    "indexed": true,
                    "internalType": "address",
                    "name": "baseToken",
                    "type": "address"
                },
                {
                    "indexed": true,
                    "internalType": "address",
                    "name": "quoteToken",
                    "type": "address"
                },
                {
                    "indexed": false,
                    "internalType": "int256",
                    "name": "base",
                    "type": "int256"
                },
                {
                    "indexed": false,
                    "internalType": "int256",
                    "name": "quote",
                    "type": "int256"
                },
                {
                    "indexed": false,
                    "internalType": "int256",
                    "name": "liquidity",
                    "type": "int256"
                }
            ],
            "name": "LiquidityChanged",
            "type": "event"
        },
        {
            "anonymous": false,
            "inputs": [
                {
                    "indexed": true,
                    "internalType": "address",
                    "name": "previousOwner",
                    "type": "address"
                },
                {
                    "indexed": true,
                    "internalType": "address",
                    "name": "newOwner",
                    "type": "address"
                }
            ],
            "name": "OwnershipTransferred",
            "type": "event"
        },
        {
            "anonymous": false,
            "inputs": [
                {
                    "indexed": false,
                    "internalType": "address",
                    "name": "account",
                    "type": "address"
                }
            ],
            "name": "Paused",
            "type": "event"
        },
        {
            "anonymous": false,
            "inputs": [
                {
                    "indexed": true,
                    "internalType": "address",
                    "name": "trader",
                    "type": "address"
                },
                {
                    "indexed": true,
                    "internalType": "address",
                    "name": "baseToken",
                    "type": "address"
                },
                {
                    "indexed": false,
                    "internalType": "int256",
                    "name": "exchangedPositionSize",
                    "type": "int256"
                },
                {
                    "indexed": false,
                    "internalType": "int256",
                    "name": "exchangedPositionNotional",
                    "type": "int256"
                },
                {
                    "indexed": false,
                    "internalType": "int256",
                    "name": "openNotional",
                    "type": "int256"
                },
                {
                    "indexed": false,
                    "internalType": "int256",
                    "name": "realizedPnl",
                    "type": "int256"
                },
                {
                    "indexed": false,
                    "internalType": "uint256",
                    "name": "priceAfter",
                    "type": "uint256"
                },
                {
                    "indexed": false,
                    "internalType": "uint256",
                    "name": "adminFee",
                    "type": "uint256"
                },
                {
                    "indexed": false,
                    "internalType": "uint256",
                    "name": "exchangeFee",
                    "type": "uint256"
                }
            ],
            "name": "PositionChanged",
            "type": "event"
        },
        {
            "anonymous": false,
            "inputs": [
                {
                    "indexed": true,
                    "internalType": "address",
                    "name": "trader",
                    "type": "address"
                },
                {
                    "indexed": true,
                    "internalType": "address",
                    "name": "baseToken",
                    "type": "address"
                },
                {
                    "indexed": false,
                    "internalType": "uint256",
                    "name": "positionNotional",
                    "type": "uint256"
                },
                {
                    "indexed": false,
                    "internalType": "uint256",
                    "name": "positionSize",
                    "type": "uint256"
                },
                {
                    "indexed": false,
                    "internalType": "uint256",
                    "name": "liquidationFee",
                    "type": "uint256"
                },
                {
                    "indexed": false,
                    "internalType": "address",
                    "name": "liquidator",
                    "type": "address"
                }
            ],
            "name": "PositionLiquidated",
            "type": "event"
        },
        {
            "anonymous": false,
            "inputs": [
                {
                    "indexed": true,
                    "internalType": "bytes32",
                    "name": "referralCode",
                    "type": "bytes32"
                }
            ],
            "name": "ReferredPositionChanged",
            "type": "event"
        },
        {
            "anonymous": false,
            "inputs": [
                {
                    "indexed": true,
                    "internalType": "address",
                    "name": "forwarder",
                    "type": "address"
                }
            ],
            "name": "TrustedForwarderChanged",
            "type": "event"
        },
        {
            "anonymous": false,
            "inputs": [
                {
                    "indexed": false,
                    "internalType": "address",
                    "name": "trustedForwarder",
                    "type": "address"
                }
            ],
            "name": "TrustedForwarderUpdated",
            "type": "event"
        },
        {
            "anonymous": false,
            "inputs": [
                {
                    "indexed": false,
                    "internalType": "address",
                    "name": "account",
                    "type": "address"
                }
            ],
            "name": "Unpaused",
            "type": "event"
        },
        {
            "inputs": [
                {
                    "components": [
                        {
                            "internalType": "address",
                            "name": "baseToken",
                            "type": "address"
                        },
                        {
                            "internalType": "uint256",
                            "name": "base",
                            "type": "uint256"
                        },
                        {
                            "internalType": "uint256",
                            "name": "quote",
                            "type": "uint256"
                        },
                        {
                            "internalType": "uint256",
                            "name": "minLiquidity",
                            "type": "uint256"
                        },
                        {
                            "internalType": "uint256",
                            "name": "deadline",
                            "type": "uint256"
                        }
                    ],
                    "internalType": "struct IClearingHouse.AddLiquidityParams",
                    "name": "params",
                    "type": "tuple"
                }
            ],
            "name": "addLiquidity",
            "outputs": [
                {
                    "components": [
                        {
                            "internalType": "uint256",
                            "name": "base",
                            "type": "uint256"
                        },
                        {
                            "internalType": "uint256",
                            "name": "quote",
                            "type": "uint256"
                        },
                        {
                            "internalType": "uint256",
                            "name": "liquidity",
                            "type": "uint256"
                        }
                    ],
                    "internalType": "struct IClearingHouse.AddLiquidityResponse",
                    "name": "",
                    "type": "tuple"
                }
            ],
            "stateMutability": "nonpayable",
            "type": "function"
        },
        {
            "inputs": [
                {
                    "internalType": "address",
                    "name": "maker",
                    "type": "address"
                },
                {
                    "internalType": "address",
                    "name": "baseToken",
                    "type": "address"
                }
            ],
            "name": "cancelOpenOrder",
            "outputs": [],
            "stateMutability": "nonpayable",
            "type": "function"
        },
        {
            "inputs": [],
            "name": "candidate",
            "outputs": [
                {
                    "internalType": "address",
                    "name": "",
                    "type": "address"
                }
            ],
            "stateMutability": "view",
            "type": "function"
        },
        {
            "inputs": [
                {
                    "components": [
                        {
                            "internalType": "address",
                            "name": "baseToken",
                            "type": "address"
                        },
                        {
                            "internalType": "uint256",
                            "name": "amountLimit",
                            "type": "uint256"
                        },
                        {
                            "internalType": "uint256",
                            "name": "deadline",
                            "type": "uint256"
                        },
                        {
                            "internalType": "bytes32",
                            "name": "referralCode",
                            "type": "bytes32"
                        }
                    ],
                    "internalType": "struct IClearingHouse.ClosePositionParams",
                    "name": "params",
                    "type": "tuple"
                }
            ],
            "name": "closePosition",
            "outputs": [
                {
                    "internalType": "uint256",
                    "name": "base",
                    "type": "uint256"
                },
                {
                    "internalType": "uint256",
                    "name": "quote",
                    "type": "uint256"
                }
            ],
            "stateMutability": "nonpayable",
            "type": "function"
        },
        {
            "inputs": [
                {
                    "internalType": "address",
                    "name": "trader",
                    "type": "address"
                }
            ],
            "name": "getAccountValue",
            "outputs": [
                {
                    "internalType": "int256",
                    "name": "",
                    "type": "int256"
                }
            ],
            "stateMutability": "view",
            "type": "function"
        },
        {
            "inputs": [],
            "name": "getClearingHouseConfig",
            "outputs": [
                {
                    "internalType": "address",
                    "name": "",
                    "type": "address"
                }
            ],
            "stateMutability": "view",
            "type": "function"
        },
        {
            "inputs": [],
            "name": "getInsuranceFund",
            "outputs": [
                {
                    "internalType": "address",
                    "name": "",
                    "type": "address"
                }
            ],
            "stateMutability": "view",
            "type": "function"
        },
        {
            "inputs": [],
            "name": "getLiquidityProvider",
            "outputs": [
                {
                    "internalType": "address",
                    "name": "",
                    "type": "address"
                }
            ],
            "stateMutability": "view",
            "type": "function"
        },
        {
            "inputs": [],
            "name": "getMarketTaker",
            "outputs": [
                {
                    "internalType": "address",
                    "name": "",
                    "type": "address"
                }
            ],
            "stateMutability": "view",
            "type": "function"
        },
        {
            "inputs": [],
            "name": "getPositionMgmt",
            "outputs": [
                {
                    "internalType": "address",
                    "name": "",
                    "type": "address"
                }
            ],
            "stateMutability": "view",
            "type": "function"
        },
        {
            "inputs": [],
            "name": "getQuoteToken",
            "outputs": [
                {
                    "internalType": "address",
                    "name": "",
                    "type": "address"
                }
            ],
            "stateMutability": "view",
            "type": "function"
        },
        {
            "inputs": [],
            "name": "getTrustedForwarder",
            "outputs": [
                {
                    "internalType": "address",
                    "name": "",
                    "type": "address"
                }
            ],
            "stateMutability": "view",
            "type": "function"
        },
        {
            "inputs": [],
            "name": "getVault",
            "outputs": [
                {
                    "internalType": "address",
                    "name": "",
                    "type": "address"
                }
            ],
            "stateMutability": "view",
            "type": "function"
        },
        {
            "inputs": [
                {
                    "internalType": "address",
                    "name": "clearingHouseConfigArg",
                    "type": "address"
                },
                {
                    "internalType": "address",
                    "name": "vaultArg",
                    "type": "address"
                },
                {
                    "internalType": "address",
                    "name": "quoteTokenArg",
                    "type": "address"
                },
                {
                    "internalType": "address",
                    "name": "marketTakerArg",
                    "type": "address"
                },
                {
                    "internalType": "address",
                    "name": "positionMgmtArg",
                    "type": "address"
                },
                {
                    "internalType": "address",
                    "name": "insuranceFundArg",
                    "type": "address"
                }
            ],
            "name": "initialize",
            "outputs": [],
            "stateMutability": "nonpayable",
            "type": "function"
        },
        {
            "inputs": [
                {
                    "internalType": "address",
                    "name": "forwarder",
                    "type": "address"
                }
            ],
            "name": "isTrustedForwarder",
            "outputs": [
                {
                    "internalType": "bool",
                    "name": "",
                    "type": "bool"
                }
            ],
            "stateMutability": "view",
            "type": "function"
        },
        {
            "inputs": [
                {
                    "internalType": "address",
                    "name": "trader",
                    "type": "address"
                },
                {
                    "internalType": "address",
                    "name": "baseToken",
                    "type": "address"
                },
                {
                    "internalType": "uint256",
                    "name": "amountLimit",
                    "type": "uint256"
                }
            ],
            "name": "liquidate",
            "outputs": [],
            "stateMutability": "nonpayable",
            "type": "function"
        },
        {
            "inputs": [
                {
                    "components": [
                        {
                            "internalType": "address",
                            "name": "baseToken",
                            "type": "address"
                        },
                        {
                            "internalType": "bool",
                            "name": "baseToQuote",
                            "type": "bool"
                        },
                        {
                            "internalType": "bool",
                            "name": "exactInput",
                            "type": "bool"
                        },
                        {
                            "internalType": "uint256",
                            "name": "amount",
                            "type": "uint256"
                        },
                        {
                            "internalType": "uint256",
                            "name": "amountLimit",
                            "type": "uint256"
                        },
                        {
                            "internalType": "uint256",
                            "name": "deadline",
                            "type": "uint256"
                        },
                        {
                            "internalType": "bytes32",
                            "name": "referralCode",
                            "type": "bytes32"
                        }
                    ],
                    "internalType": "struct IClearingHouse.OpenPositionParams",
                    "name": "params",
                    "type": "tuple"
                }
            ],
            "name": "openPosition",
            "outputs": [
                {
                    "internalType": "uint256",
                    "name": "base",
                    "type": "uint256"
                },
                {
                    "internalType": "uint256",
                    "name": "quote",
                    "type": "uint256"
                }
            ],
            "stateMutability": "nonpayable",
            "type": "function"
        },
        {
            "inputs": [
                {
                    "internalType": "address",
                    "name": "trader",
                    "type": "address"
                },
                {
                    "components": [
                        {
                            "internalType": "address",
                            "name": "baseToken",
                            "type": "address"
                        },
                        {
                            "internalType": "bool",
                            "name": "baseToQuote",
                            "type": "bool"
                        },
                        {
                            "internalType": "bool",
                            "name": "exactInput",
                            "type": "bool"
                        },
                        {
                            "internalType": "uint256",
                            "name": "amount",
                            "type": "uint256"
                        },
                        {
                            "internalType": "uint256",
                            "name": "amountLimit",
                            "type": "uint256"
                        },
                        {
                            "internalType": "uint256",
                            "name": "deadline",
                            "type": "uint256"
                        },
                        {
                            "internalType": "bytes32",
                            "name": "referralCode",
                            "type": "bytes32"
                        }
                    ],
                    "internalType": "struct IClearingHouse.OpenPositionParams",
                    "name": "params",
                    "type": "tuple"
                }
            ],
            "name": "openPositionFor",
            "outputs": [
                {
                    "internalType": "uint256",
                    "name": "base",
                    "type": "uint256"
                },
                {
                    "internalType": "uint256",
                    "name": "quote",
                    "type": "uint256"
                },
                {
                    "internalType": "uint256",
                    "name": "adminFee",
                    "type": "uint256"
                },
                {
                    "internalType": "uint256",
                    "name": "exchangeFee",
                    "type": "uint256"
                }
            ],
            "stateMutability": "nonpayable",
            "type": "function"
        },
        {
            "inputs": [],
            "name": "owner",
            "outputs": [
                {
                    "internalType": "address",
                    "name": "",
                    "type": "address"
                }
            ],
            "stateMutability": "view",
            "type": "function"
        },
        {
            "inputs": [],
            "name": "pause",
            "outputs": [],
            "stateMutability": "nonpayable",
            "type": "function"
        },
        {
            "inputs": [],
            "name": "paused",
            "outputs": [
                {
                    "internalType": "bool",
                    "name": "",
                    "type": "bool"
                }
            ],
            "stateMutability": "view",
            "type": "function"
        },
        {
            "inputs": [
                {
                    "components": [
                        {
                            "internalType": "address",
                            "name": "baseToken",
                            "type": "address"
                        },
                        {
                            "internalType": "uint256",
                            "name": "liquidity",
                            "type": "uint256"
                        },
                        {
                            "internalType": "uint256",
                            "name": "minBase",
                            "type": "uint256"
                        },
                        {
                            "internalType": "uint256",
                            "name": "minQuote",
                            "type": "uint256"
                        },
                        {
                            "internalType": "uint256",
                            "name": "deadline",
                            "type": "uint256"
                        }
                    ],
                    "internalType": "struct IClearingHouse.RemoveLiquidityParams",
                    "name": "params",
                    "type": "tuple"
                }
            ],
            "name": "removeLiquidity",
            "outputs": [
                {
                    "components": [
                        {
                            "internalType": "uint256",
                            "name": "base",
                            "type": "uint256"
                        },
                        {
                            "internalType": "uint256",
                            "name": "quote",
                            "type": "uint256"
                        }
                    ],
                    "internalType": "struct IClearingHouse.RemoveLiquidityResponse",
                    "name": "",
                    "type": "tuple"
                }
            ],
            "stateMutability": "nonpayable",
            "type": "function"
        },
        {
            "inputs": [],
            "name": "renounceOwnership",
            "outputs": [],
            "stateMutability": "nonpayable",
            "type": "function"
        },
        {
            "inputs": [
                {
                    "internalType": "address",
                    "name": "newOwner",
                    "type": "address"
                }
            ],
            "name": "setOwner",
            "outputs": [],
            "stateMutability": "nonpayable",
            "type": "function"
        },
        {
            "inputs": [
                {
                    "internalType": "address",
                    "name": "trustedForwarderArg",
                    "type": "address"
                }
            ],
            "name": "setTrustedForwarder",
            "outputs": [],
            "stateMutability": "nonpayable",
            "type": "function"
        },
        {
            "inputs": [
                {
                    "internalType": "address",
                    "name": "trader",
                    "type": "address"
                }
            ],
            "name": "settleAllFunding",
            "outputs": [],
            "stateMutability": "nonpayable",
            "type": "function"
        },
        {
            "inputs": [
                {
                    "internalType": "address",
                    "name": "baseToken",
                    "type": "address"
                },
                {
                    "internalType": "uint256",
                    "name": "i",
                    "type": "uint256"
                },
                {
                    "internalType": "uint256",
                    "name": "j",
                    "type": "uint256"
                },
                {
                    "internalType": "uint256",
                    "name": "dx",
                    "type": "uint256"
                }
            ],
            "name": "simulatedSwap",
            "outputs": [
                {
                    "internalType": "uint256",
                    "name": "currentPrice",
                    "type": "uint256"
                },
                {
                    "internalType": "uint256",
                    "name": "amount0",
                    "type": "uint256"
                },
                {
                    "internalType": "uint256",
                    "name": "amount1",
                    "type": "uint256"
                },
                {
                    "internalType": "uint256",
                    "name": "oraclePrice",
                    "type": "uint256"
                }
            ],
            "stateMutability": "nonpayable",
            "type": "function"
        },
        {
            "inputs": [],
            "name": "unpause",
            "outputs": [],
            "stateMutability": "nonpayable",
            "type": "function"
        },
        {
            "inputs": [],
            "name": "updateOwner",
            "outputs": [],
            "stateMutability": "nonpayable",
            "type": "function"
        },
        {
            "inputs": [],
            "name": "versionRecipient",
            "outputs": [
                {
                    "internalType": "string",
                    "name": "",
                    "type": "string"
                }
            ],
            "stateMutability": "pure",
            "type": "function"
        }
    ],
    "bytecode": "0x608060405234801561001057600080fd5b50614916806100206000396000f3fe608060405234801561001057600080fd5b50600436106101da5760003560e01c80636c8381f811610104578063aa2a8294116100a2578063ce1b815f11610071578063ce1b815f146103aa578063da742228146103b2578063e2a72cce146103c5578063eb9b912e146103cd576101da565b8063aa2a829414610367578063bc5920ba1461036f578063c2fdd42f14610377578063cc2a9a5b14610397576101da565b80638456cb59116100de5780638456cb59146103475780638d928af81461034f5780638da5cb5b146103575780638e8499ba1461035f576101da565b80636c8381f814610317578063715018a61461031f5780637f2bd08f14610327576101da565b80633f4ba83a1161017c57806355338fc11161014b57806355338fc1146102c7578063572b6c05146102cf5780635ae80951146102ef5780635c975abb1461030f576101da565b80633f4ba83a1461028f578063486ff0cd1461029757806349cf2a61146102ac5780634a64d67d146102bf576101da565b80631eaa33f3116101b85780631eaa33f31461023557806326c013031461025657806328d83466146102695780632bb6b86a1461027c576101da565b806309453d0c146101df57806313af40351461020b578063158626f714610220575b600080fd5b6101f26101ed3660046139e5565b6103e0565b60405161020294939291906145d3565b60405180910390f35b61021e6102193660046138b4565b61058d565b005b610228610670565b6040516102029190613da8565b610248610243366004613c68565b610681565b6040516102029291906145a1565b61021e6102643660046139a5565b610858565b61021e6102773660046138ec565b610c2f565b61024861028a366004613c06565b611105565b61021e61123e565b61029f611287565b6040516102029190613f39565b6101f26102ba366004613a1b565b6112a6565b6102286113ae565b6102286113be565b6102e26102dd3660046138b4565b6113ce565b6040516102029190613edf565b6103026102fd3660046138b4565b6113e2565b6040516102029190613eea565b6102e26115b9565b6102286115c2565b61021e6115d1565b61033a610335366004613bae565b611666565b6040516102029190614490565b61021e611945565b61022861198c565b61022861199c565b6102286119ab565b6102286119bb565b61021e6119cb565b61038a610385366004613bae565b611a8e565b604051610202919061452d565b61021e6103a5366004613924565b611e65565b61022861223d565b61021e6103c03660046138b4565b61224c565b6102286122f9565b61021e6103db3660046138b4565b612309565b6000806000806103ee6115b9565b156104145760405162461bcd60e51b815260040161040b906141e6565b60405180910390fd5b600260015414156104375760405162461bcd60e51b815260040161040b9061437e565b600260015560a08501518061044a6123e9565b11156104685760405162461bcd60e51b815260040161040b90614245565b610135548651604051633f1cdc8560e21b81526001600160a01b039092169163fc7372149161049c918b9190600401613dbc565b600060405180830381600087803b1580156104b657600080fd5b505af11580156104ca573d6000803e3d6000fd5b505050506104dc8787600001516123ed565b5060006105516040518061010001604052808a6001600160a01b0316815260200189600001516001600160a01b031681526020018960200151151581526020018960400151151581526020016000151581526020018960600151815260200189608001518152602001600015158152506125aa565b90506105608160000151612b84565b61056d8260200151612b84565b60a083015160c09093015160018055919a90995091975095509350505050565b610595612bb3565b6001600160a01b03166105a661199c565b6001600160a01b0316146105cc5760405162461bcd60e51b815260040161040b90614145565b6001600160a01b0381166105f25760405162461bcd60e51b815260040161040b90614417565b6065546001600160a01b03828116911614156106205760405162461bcd60e51b815260040161040b906140e3565b6066546001600160a01b038281169116141561064e5760405162461bcd60e51b815260040161040b906140a1565b606680546001600160a01b0319166001600160a01b0392909216919091179055565b610136546001600160a01b03165b90565b60008061068c6115b9565b156106a95760405162461bcd60e51b815260040161040b906141e6565b600260015414156106cc5760405162461bcd60e51b815260040161040b9061437e565b600260015560a0830151806106df6123e9565b11156106fd5760405162461bcd60e51b815260040161040b90614245565b6000610707612bb3565b610135548651604051633f1cdc8560e21b81529293506001600160a01b039091169163fc7372149161073e91859190600401613dbc565b600060405180830381600087803b15801561075857600080fd5b505af115801561076c573d6000803e3d6000fd5b5050505061077e8186600001516123ed565b5060006107f3604051806101000160405280846001600160a01b0316815260200188600001516001600160a01b031681526020018860200151151581526020018860400151151581526020016000151581526020018860600151815260200188608001518152602001600015158152506125aa565b60c08701519091501561082f5760c08601516040517f09a07769667a46c2b89124a4d731c76fb5203061073aec16319ba9c6a79a324890600090a25b805161083a90612b84565b6108478260200151612b84565b600180559097909650945050505050565b6108606115b9565b1561087d5760405162461bcd60e51b815260040161040b906141e6565b600260015414156108a05760405162461bcd60e51b815260040161040b9061437e565b60026001556101355460405163659e3dc760e11b81526001600160a01b039091169063cb3c7b8e906108d6908690600401613da8565b60206040518083038186803b1580156108ee57600080fd5b505afa158015610902573d6000803e3d6000fd5b505050506040513d601f19601f820116820180604052508101906109269190613b08565b156109435760405162461bcd60e51b815260040161040b906142d4565b6101355460405163f75c266d60e01b81526001600160a01b039091169063f75c266d90610974908690600401613da8565b60206040518083038186803b15801561098c57600080fd5b505afa1580156109a0573d6000803e3d6000fd5b505050506040513d601f19601f820116820180604052508101906109c49190613b24565b6109cd846113e2565b126109ea5760405162461bcd60e51b815260040161040b90614031565b6109f483836123ed565b506000610a356040518060800160405280866001600160a01b03168152602001856001600160a01b0316815260200184815260200160011515815250612bc2565b90506000610ad661013160009054906101000a90046001600160a01b03166001600160a01b031663fedf924b6040518163ffffffff1660e01b815260040160206040518083038186803b158015610a8b57600080fd5b505afa158015610a9f573d6000803e3d6000fd5b505050506040513d601f19601f82011682018060405250810190610ac39190613d2f565b610ad08460200151612b84565b90612d0a565b610135549091506001600160a01b031663874044f386610af584612d1f565b6040518363ffffffff1660e01b8152600401610b12929190613e54565b600060405180830381600087803b158015610b2c57600080fd5b505af1158015610b40573d6000803e3d6000fd5b505050506000610b4e612bb3565b610135549091506001600160a01b031663874044f382610b6d85612d33565b6040518363ffffffff1660e01b8152600401610b8a929190613e54565b600060405180830381600087803b158015610ba457600080fd5b505af1158015610bb8573d6000803e3d6000fd5b50505050846001600160a01b0316866001600160a01b03167fd9aced30440caca81570436bc942f816cfd95a3f08f700a2aeb6334c7cb5b497610bfe8660200151612b84565b8651610c0990612b84565b8686604051610c1b94939291906145af565b60405180910390a350506001805550505050565b610c376115b9565b15610c545760405162461bcd60e51b815260040161040b906141e6565b60026001541415610c775760405162461bcd60e51b815260040161040b9061437e565b60026001819055506000610d118361013160009054906101000a90046001600160a01b03166001600160a01b031663a85494026040518163ffffffff1660e01b815260040160206040518083038186803b158015610cd457600080fd5b505afa158015610ce8573d6000803e3d6000fd5b505050506040513d601f19601f82011682018060405250810190610d0c9190613d2f565b612d60565b1280610da457506101355460405163f75c266d60e01b81526001600160a01b039091169063f75c266d90610d49908590600401613da8565b60206040518083038186803b158015610d6157600080fd5b505afa158015610d75573d6000803e3d6000fd5b505050506040513d601f19601f82011682018060405250810190610d999190613b24565b610da2836113e2565b125b610dc05760405162461bcd60e51b815260040161040b906142f6565b610dca82826123ed565b50610134546040516385b0f96760e01b81526000916001600160a01b0316906385b0f96790610dff9086908690600401613dbc565b60a06040518083038186803b158015610e1757600080fd5b505afa158015610e2b573d6000803e3d6000fd5b505050506040513d601f19601f82011682018060405250810190610e4f9190613c17565b610134546040805160a0810182526001600160a01b038781168252868116602083015284518284015260006060830181905260808301819052925163cd67005560e01b81529495509193919092169163cd67005591610eb191906004016144ea565b608060405180830381600087803b158015610ecb57600080fd5b505af1158015610edf573d6000803e3d6000fd5b505050506040513d601f19601f82011682018060405250810190610f039190613c83565b6101305481519192506001600160a01b0390811691858216918716907f3fafa413f72659615af87212409788d1f1d6fa7a3a3fc3c3798b269188a4dfc690610f4a90612d1f565b610f578660200151612d1f565b8751610f6290612d1f565b604051610f7193929190613ef3565b60405180910390a46000610f86858584612de4565b6101355460405163d50d01b760e01b81529192506000916001600160a01b039091169063d50d01b790610fbf9089908990600401613dbc565b60206040518083038186803b158015610fd757600080fd5b505afa158015610feb573d6000803e3d6000fd5b505050506040513d601f19601f8201168201806040525081019061100f9190613b24565b6101335460405163175be70560e21b81529192506000916001600160a01b0390911690635d6f9c1490611046908990600401613da8565b60206040518083038186803b15801561105e57600080fd5b505afa158015611072573d6000803e3d6000fd5b505050506040513d601f19601f820116820180604052508101906110969190613b24565b9050856001600160a01b0316876001600160a01b03167f46d76a7acc977eb2d3c715c5c82a16ae288f4b85669352db47daf756face0ad2866040015187606001518688876000806040516110f09796959493929190613f09565b60405180910390a35050600180555050505050565b6000806111106115b9565b1561112d5760405162461bcd60e51b815260040161040b906141e6565b600260015414156111505760405162461bcd60e51b815260040161040b9061437e565b60026001556040830135806111636123e9565b11156111815760405162461bcd60e51b815260040161040b90614245565b600061118b612bb3565b90506111a38161119e60208801886138b4565b6123ed565b5060006111f86040518060800160405280846001600160a01b031681526020018860000160208101906111d691906138b4565b6001600160a01b03168152602089810135908201526000604090910152612bc2565b905060608601351561082f576040516060870135907f09a07769667a46c2b89124a4d731c76fb5203061073aec16319ba9c6a79a324890600090a2805161083a90612b84565b611246612bb3565b6001600160a01b031661125761199c565b6001600160a01b03161461127d5760405162461bcd60e51b815260040161040b90614145565b611285612f1a565b565b6040805180820190915260058152640322e302e360dc1b602082015290565b6000806000806112b888600019612f88565b610133546040516349cf2a6160e01b81526000918291829182916001600160a01b03909116906349cf2a61906112f8908f908f908f908f90600401613e8b565b608060405180830381600087803b15801561131257600080fd5b505af1158015611326573d6000803e3d6000fd5b505050506040513d601f19601f8201168201806040525081019061134a9190613d52565b935093509350935061135d8c6000612f88565b7f891687ff4bf91a8a8c738eb433d82df9744759cf9a77542618e76ea6beabed953384848785604051611394959493929190613eb1565b60405180910390a1929b919a509850909650945050505050565b610130546001600160a01b031690565b610133546001600160a01b031690565b60fd546001600160a01b0390811691161490565b610133546040516380f57f1160e01b815260009182916001600160a01b03909116906380f57f1190611418908690600401613da8565b60206040518083038186803b15801561143057600080fd5b505afa158015611444573d6000803e3d6000fd5b505050506040513d601f19601f820116820180604052508101906114689190613b24565b610135546040516313ea7c8960e01b815291925060009182916001600160a01b0316906313ea7c899061149f908890600401613da8565b604080518083038186803b1580156114b657600080fd5b505afa1580156114ca573d6000803e3d6000fd5b505050506040513d601f19601f820116820180604052508101906114ee9190613b3c565b6101325460405163f8b2cb4f60e01b815292945090925060009161158d916001600160a01b03169063f8b2cb4f9061152a908a90600401613da8565b60206040518083038186803b15801561154257600080fd5b505afa158015611556573d6000803e3d6000fd5b505050506040513d601f19601f8201168201806040525081019061157a9190613b24565b61013054600160a01b900460ff16613113565b9050818461159b858461461f565b6115a591906147fa565b6115af919061461f565b9695505050505050565b60995460ff1690565b6066546001600160a01b031690565b6115d9612bb3565b6001600160a01b03166115ea61199c565b6001600160a01b0316146116105760405162461bcd60e51b815260040161040b90614145565b6065546040516000916001600160a01b0316907f8be0079c531659141344cd1fd0a4f28419497f9722a3daafe3b4186f6b6457e0908390a3606580546001600160a01b0319908116909155606680549091169055565b61166e6137a5565b6116766115b9565b156116935760405162461bcd60e51b815260040161040b906141e6565b600260015414156116b65760405162461bcd60e51b815260040161040b9061437e565b60026001556080820135806116c96123e9565b11156116e75760405162461bcd60e51b815260040161040b90614245565b60006116f1612bb3565b610135549091506001600160a01b031663fc7372148261171460208801886138b4565b6040518363ffffffff1660e01b8152600401611731929190613dbc565b600060405180830381600087803b15801561174b57600080fd5b505af115801561175f573d6000803e3d6000fd5b5060009250611779915083905061119e60208801886138b4565b905061179361178b60208701876138b4565b600019612f88565b610134546040805160c081019091526001600160a01b0384811682526000921690639e8d4580906020808201906117cc908b018b6138b4565b6001600160a01b03168152602001896020013581526020018960400135815260200189606001358152602001858152506040518263ffffffff1660e01b81526004016118189190614437565b606060405180830381600087803b15801561183257600080fd5b505af1158015611846573d6000803e3d6000fd5b505050506040513d601f19601f8201168201806040525081019061186a9190613bc9565b905061188361187c60208801886138b4565b6000612f88565b61188c83613135565b610130546001600160a01b03166118a660208801886138b4565b6001600160a01b0316846001600160a01b03167f3fafa413f72659615af87212409788d1f1d6fa7a3a3fc3c3798b269188a4dfc66118e78560000151612d33565b6118f48660200151612d33565b6119018760400151612d33565b60405161191093929190613ef3565b60405180910390a460408051606081018252825181526020808401519082015291810151908201526001805595945050505050565b61194d612bb3565b6001600160a01b031661195e61199c565b6001600160a01b0316146119845760405162461bcd60e51b815260040161040b90614145565b6112856131ab565b610132546001600160a01b031690565b6065546001600160a01b031690565b610135546001600160a01b031690565b610131546001600160a01b031690565b6066546001600160a01b03166119f35760405162461bcd60e51b815260040161040b9061435f565b6119fb612bb3565b6066546001600160a01b03908116911614611a285760405162461bcd60e51b815260040161040b90614011565b6066546065546040516001600160a01b0392831692909116907f8be0079c531659141344cd1fd0a4f28419497f9722a3daafe3b4186f6b6457e090600090a360668054606580546001600160a01b03199081166001600160a01b03841617909155169055565b611a966137c6565b611a9e6115b9565b15611abb5760405162461bcd60e51b815260040161040b906141e6565b60026001541415611ade5760405162461bcd60e51b815260040161040b9061437e565b6002600155608082013580611af16123e9565b1115611b0f5760405162461bcd60e51b815260040161040b90614245565b6000611b19612bb3565b9050611b2c8161119e60208701876138b4565b50610134546040805160a081019091526001600160a01b038381168252600092169063cd67005590602080820190611b66908a018a6138b4565b6001600160a01b03168152602001886020013581526020018860400135815260200188606001358152506040518263ffffffff1660e01b8152600401611bac91906144ea565b608060405180830381600087803b158015611bc657600080fd5b505af1158015611bda573d6000803e3d6000fd5b505050506040513d601f19601f82011682018060405250810190611bfe9190613c83565b90506000611c1983611c1360208901896138b4565b84612de4565b610130549091506001600160a01b0316611c3660208801886138b4565b6001600160a01b0316846001600160a01b03167f3fafa413f72659615af87212409788d1f1d6fa7a3a3fc3c3798b269188a4dfc6611c778660000151612d1f565b611c848760200151612d1f565b611c918c60200135612d1f565b604051611ca093929190613ef3565b60405180910390a4610135546000906001600160a01b031663d50d01b785611ccb60208b018b6138b4565b6040518363ffffffff1660e01b8152600401611ce8929190613dbc565b60206040518083038186803b158015611d0057600080fd5b505afa158015611d14573d6000803e3d6000fd5b505050506040513d601f19601f82011682018060405250810190611d389190613b24565b610133549091506000906001600160a01b0316635d6f9c14611d5d60208b018b6138b4565b6040518263ffffffff1660e01b8152600401611d799190613da8565b60206040518083038186803b158015611d9157600080fd5b505afa158015611da5573d6000803e3d6000fd5b505050506040513d601f19601f82011682018060405250810190611dc99190613b24565b9050611dd860208901896138b4565b6001600160a01b0316856001600160a01b03167f46d76a7acc977eb2d3c715c5c82a16ae288f4b85669352db47daf756face0ad286604001518760600151868887600080604051611e2f9796959493929190613f09565b60405180910390a36040518060400160405280856000015181526020018560200151815250965050505050505060018055919050565b600054610100900460ff1680611e7e575060005460ff16155b611e9a5760405162461bcd60e51b815260040161040b90614265565b600054610100900460ff16158015611ec5576000805460ff1961ff0019909116610100171660011790555b611ed7866001600160a01b0316613206565b611ef35760405162461bcd60e51b815260040161040b906142b3565b611f05856001600160a01b0316613206565b611f215760405162461bcd60e51b815260040161040b90614103565b846001600160a01b031663313ce5676040518163ffffffff1660e01b815260040160206040518083038186803b158015611f5a57600080fd5b505afa158015611f6e573d6000803e3d6000fd5b505050506040513d601f19601f82011682018060405250810190611f929190613d87565b60ff16601214611fb45760405162461bcd60e51b815260040161040b90613fef565b611fc6876001600160a01b0316613206565b611fe25760405162461bcd60e51b815260040161040b906141a5565b611ff4836001600160a01b0316613206565b6120105760405162461bcd60e51b815260040161040b90613f8c565b612022846001600160a01b0316613206565b61203e5760405162461bcd60e51b815260040161040b90614124565b612050826001600160a01b0316613206565b61206c5760405162461bcd60e51b815260040161040b9061407f565b6000846001600160a01b031663e2a72cce6040518163ffffffff1660e01b815260040160206040518083038186803b1580156120a757600080fd5b505afa1580156120bb573d6000803e3d6000fd5b505050506040513d601f19601f820116820180604052508101906120df91906138d0565b90506120f3816001600160a01b0316613206565b61210f5760405162461bcd60e51b815260040161040b906143f6565b61211761320c565b61211f613288565b61013180546001600160a01b03199081166001600160a01b038b811691909117909255610132805482168a84161790819055610130805483168a85161790556101338054831689851617905561013480548316858516179055610135805483168885161790556101368054909216868416179091556040805163313ce56760e01b81529051919092169163313ce567916004808301926020929190829003018186803b1580156121ce57600080fd5b505afa1580156121e2573d6000803e3d6000fd5b505050506040513d601f19601f820116820180604052508101906122069190613d87565b61013060146101000a81548160ff021916908360ff160217905550508015612234576000805461ff00191690555b50505050505050565b60fd546001600160a01b031690565b612254612bb3565b6001600160a01b031661226561199c565b6001600160a01b03161461228b5760405162461bcd60e51b815260040161040b90614145565b61229d816001600160a01b0316613206565b6122b95760405162461bcd60e51b815260040161040b90614184565b6122c2816132f8565b6040516001600160a01b038216907f871264f4293af7d2865ae7eae628b228f4991c57cb45b39c99f0b774ebe2901890600090a250565b610134546001600160a01b031690565b610135546040516357ba739b60e11b81526000916001600160a01b03169063af74e7369061233b908590600401613da8565b60006040518083038186803b15801561235357600080fd5b505afa158015612367573d6000803e3d6000fd5b505050506040513d6000823e601f3d908101601f1916820160405261238f9190810190613a55565b805190915060005b818110156123e3576123d0848483815181106123c357634e487b7160e01b600052603260045260246000fd5b60200260200101516123ed565b50806123db8161485c565b915050612397565b50505050565b4290565b6123f56137c6565b61013354604051631e81ac3360e01b81526000916001600160a01b031690631e81ac33906124299087908790600401613dbc565b606060405180830381600087803b15801561244357600080fd5b505af1158015612457573d6000803e3d6000fd5b505050506040513d601f19601f8201168201806040525081019061247b9190613b5f565b92509050801561253c57610135546001600160a01b031663874044f3856124a18461334e565b6040518363ffffffff1660e01b81526004016124be929190613e54565b600060405180830381600087803b1580156124d857600080fd5b505af11580156124ec573d6000803e3d6000fd5b50505050826001600160a01b0316846001600160a01b03167f733330d4aad1a878654bf888817b79bc6478013399be29fa3b8845c81305249e836040516125339190613eea565b60405180910390a35b610135548251604051632e4586c360e01b81526001600160a01b0390921691632e4586c3916125719188918891600401613dd6565b600060405180830381600087803b15801561258b57600080fd5b505af115801561259f573d6000803e3d6000fd5b505050505092915050565b6125b26137e0565b6125c28260200151600019612f88565b610133546040805160e08101825284516001600160a01b0390811682526020808701518216908301528583015115158284015260608087015115159083015260808087015115159083015260a0808701519083015260c0808701519083015291516326a26b1160e21b81526000939290921691639a89ac449161264791600401614544565b60e060405180830381600087803b15801561266157600080fd5b505af1158015612675573d6000803e3d6000fd5b505050506040513d601f19601f820116820180604052508101906126999190613cca565b90506126aa83602001516000612f88565b610135548351602080860151845191850151604051633c9b5ad160e01b81526001600160a01b0390951694633c9b5ad1946126ec949093929091600401613dfa565b6040805180830381600087803b15801561270557600080fd5b505af1158015612719573d6000803e3d6000fd5b505050506040513d601f19601f8201168201806040525081019061273d9190613b3c565b5050610133546040805163803841b760e01b815290516000926001600160a01b03169163803841b7916004808301926020929190829003018186803b15801561278557600080fd5b505afa158015612799573d6000803e3d6000fd5b505050506040513d601f19601f820116820180604052508101906127bd91906138d0565b6101355460a08401519192506001600160a01b03169063874044f39083906127e490612d33565b6040518363ffffffff1660e01b8152600401612801929190613e54565b600060405180830381600087803b15801561281b57600080fd5b505af115801561282f573d6000803e3d6000fd5b50505050816080015160001461297657610135548451602086015160808501516040516376323d0960e11b81526001600160a01b039094169363ec647a129361287e9390929091600401613dd6565b600060405180830381600087803b15801561289857600080fd5b505af11580156128ac573d6000803e3d6000fd5b505050508360e0015180156129425750610131546001600160a01b031663a2495a966128d6612bb3565b6040518263ffffffff1660e01b81526004016128f29190613da8565b60206040518083038186803b15801561290a57600080fd5b505afa15801561291e573d6000803e3d6000fd5b505050506040513d601f19601f820116820180604052508101906129429190613b08565b8061295a5750600061295785600001516113e2565b12155b6129765760405162461bcd60e51b815260040161040b90614165565b836080015161298a57835161298a90613135565b610135548451602086015160405163d50d01b760e01b81526000936001600160a01b03169263d50d01b7926129c192600401613dbc565b60206040518083038186803b1580156129d957600080fd5b505afa1580156129ed573d6000803e3d6000fd5b505050506040513d601f19601f82011682018060405250810190612a119190613b24565b61013354602087015160405163175be70560e21b81529293506000926001600160a01b0390921691635d6f9c1491612a4b91600401613da8565b60206040518083038186803b158015612a6357600080fd5b505afa158015612a77573d6000803e3d6000fd5b505050506040513d601f19601f82011682018060405250810190612a9b9190613b24565b905085602001516001600160a01b031686600001516001600160a01b03167f46d76a7acc977eb2d3c715c5c82a16ae288f4b85669352db47daf756face0ad286604001518760600151868960800151878b60a001518c60c00151604051612b089796959493929190613f09565b60405180910390a3610135548651602088015160405163fa8e30af60e01b81526001600160a01b039093169263fa8e30af92612b48929091600401613dbc565b600060405180830381600087803b158015612b6257600080fd5b505af1158015612b76573d6000803e3d6000fd5b509598975050505050505050565b600080821215612ba457612b9f612b9a8361334e565b61337c565b612bad565b612bad8261337c565b92915050565b6000612bbd61339e565b905090565b612bca6137e0565b610135548251602084015160405163165c4e2960e31b81526000936001600160a01b03169263b2e2714892612c0192600401613dbc565b60206040518083038186803b158015612c1957600080fd5b505afa158015612c2d573d6000803e3d6000fd5b505050506040513d601f19601f82011682018060405250810190612c519190613b24565b905080612c705760405162461bcd60e51b815260040161040b906141c6565b612d0360405180610100016040528085600001516001600160a01b0316815260200185602001516001600160a01b0316815260200160008413612cb4576000612cb7565b60015b1515815260200160008413612ccd576000612cd0565b60015b1515815260016020820152604001612ce784612b84565b81526040808701516020830152606087015115159101526125aa565b9392505050565b6000612d03838362ffffff16620f42406133ce565b6000612d2a82612d33565b612bad90614877565b60006001600160ff1b03821115612d5c5760405162461bcd60e51b815260040161040b90614317565b5090565b61013254604051633ffd130360e01b81526000916001600160a01b031690633ffd130390612d949086908690600401613e6d565b60206040518083038186803b158015612dac57600080fd5b505afa158015612dc0573d6000803e3d6000fd5b505050506040513d601f19601f82011682018060405250810190612d039190613b24565b6000808260400151600014612e9f5761013354604080516080810182526001600160a01b03888116825287811660208301528683015182840152606080880151908301529151631393a46960e01b81529190921691631393a46991612e4c91906004016144b1565b60206040518083038186803b158015612e6457600080fd5b505afa158015612e78573d6000803e3d6000fd5b505050506040513d601f19601f82011682018060405250810190612e9c9190613b24565b90505b610135546040808501516060860151915163057ec13960e01b81526001600160a01b039093169263057ec13992612edf928a928a92908890600401613e23565b600060405180830381600087803b158015612ef957600080fd5b505af1158015612f0d573d6000803e3d6000fd5b5092979650505050505050565b612f226115b9565b612f3e5760405162461bcd60e51b815260040161040b90614051565b6099805460ff191690557f5db9ee0a495bf2e6ff9c91a7834c1ba4fdd244a5e8aa4e537bd38aeae4b073aa612f71612bb3565b604051612f7e9190613da8565b60405180910390a1565b6101335460405163bbe4f6db60e01b81526000916001600160a01b03169063bbe4f6db90612fba908690600401613da8565b60206040518083038186803b158015612fd257600080fd5b505afa158015612fe6573d6000803e3d6000fd5b505050506040513d601f19601f8201168201806040525081019061300a91906138d0565b60405163095ea7b360e01b81529091506001600160a01b0384169063095ea7b39061303b9084908690600401613e54565b602060405180830381600087803b15801561305557600080fd5b505af1158015613069573d6000803e3d6000fd5b505050506040513d601f19601f8201168201806040525081019061308d9190613b08565b506101305460405163095ea7b360e01b81526001600160a01b039091169063095ea7b3906130c19084908690600401613e54565b602060405180830381600087803b1580156130db57600080fd5b505af11580156130ef573d6000803e3d6000fd5b505050506040513d601f19601f820116820180604052508101906123e39190613b08565b6000613120826012614839565b61312b90600a6146a6565b612d039084614777565b600061318a8261013160009054906101000a90046001600160a01b03166001600160a01b031663543ce73a6040518163ffffffff1660e01b815260040160206040518083038186803b158015610cd457600080fd5b12156131a85760405162461bcd60e51b815260040161040b906140c1565b50565b6131b36115b9565b156131d05760405162461bcd60e51b815260040161040b906141e6565b6099805460ff191660011790557f62e78cea01bee320cd4e420270b5ea74000d11b0c9f74754ebdbfc544b05a258612f71612bb3565b3b151590565b600054610100900460ff1680613225575060005460ff16155b6132415760405162461bcd60e51b815260040161040b90614265565b600054610100900460ff1615801561326c576000805460ff1961ff0019909116610100171660011790555b613274613494565b80156131a8576000805461ff001916905550565b600054610100900460ff16806132a1575060005460ff16155b6132bd5760405162461bcd60e51b815260040161040b90614265565b600054610100900460ff161580156132e8576000805460ff1961ff0019909116610100171660011790555b6132f061350c565b6132746135e0565b60fd80546001600160a01b0319166001600160a01b0383161790556040517fa4388ecc389b1390354ae0c65a856c0d7dd4fb648419f5d3ac0b99e38f46fd1190613343908390613da8565b60405180910390a150565b6000600160ff1b82136133735760405162461bcd60e51b815260040161040b906143b5565b612bad82614877565b600080821215612d5c5760405162461bcd60e51b815260040161040b90614210565b6000601436108015906133b557506133b5336113ce565b156133c9575060131936013560601c61067e565b503390565b60008080600019858709858702925082811083820303915050806000141561341b57600084116134105760405162461bcd60e51b815260040161040b90613fad565b508290049050612d03565b80841161342757600080fd5b6000848688096000868103871696879004966002600389028118808a02820302808a02820302808a02820302808a02820302808a02820302808a02909103029181900381900460010186841190950394909402919094039290920491909117919091029150509392505050565b600054610100900460ff16806134ad575060005460ff16155b6134c95760405162461bcd60e51b815260040161040b90614265565b600054610100900460ff161580156134f4576000805460ff1961ff0019909116610100171660011790555b6001805580156131a8576000805461ff001916905550565b600054610100900460ff1680613525575060005460ff16155b6135415760405162461bcd60e51b815260040161040b90614265565b600054610100900460ff1615801561356c576000805460ff1961ff0019909116610100171660011790555b613574613650565b600061357e612bb3565b606580546001600160a01b0319166001600160a01b038316908117909155604051919250906000907f8be0079c531659141344cd1fd0a4f28419497f9722a3daafe3b4186f6b6457e0908290a35080156131a8576000805461ff001916905550565b600054610100900460ff16806135f9575060005460ff16155b6136155760405162461bcd60e51b815260040161040b90614265565b600054610100900460ff16158015613640576000805460ff1961ff0019909116610100171660011790555b6136486136b4565b613274613727565b600054610100900460ff1680613669575060005460ff16155b6136855760405162461bcd60e51b815260040161040b90614265565b600054610100900460ff161580156136b0576000805460ff1961ff0019909116610100171660011790555b6132745b600054610100900460ff16806136cd575060005460ff16155b6136e95760405162461bcd60e51b815260040161040b90614265565b600054610100900460ff16158015613274576000805460ff1961ff00199091166101001716600117905580156131a8576000805461ff001916905550565b600054610100900460ff1680613740575060005460ff16155b61375c5760405162461bcd60e51b815260040161040b90614265565b600054610100900460ff16158015613787576000805460ff1961ff0019909116610100171660011790555b6099805460ff1916905580156131a8576000805461ff001916905550565b60405180606001604052806000815260200160008152602001600081525090565b604051806040016040528060008152602001600081525090565b6040518060e00160405280600081526020016000815260200160008152602001600081526020016000815260200160008152602001600081525090565b600060a0828403121561382e578081fd5b50919050565b600060e08284031215613845578081fd5b61384f60e06145ee565b9050813561385c816148bd565b8152602082013561386c816148d2565b6020820152604082013561387f816148d2565b80604083015250606082013560608201526080820135608082015260a082013560a082015260c082013560c082015292915050565b6000602082840312156138c5578081fd5b8135612d03816148bd565b6000602082840312156138e1578081fd5b8151612d03816148bd565b600080604083850312156138fe578081fd5b8235613909816148bd565b91506020830135613919816148bd565b809150509250929050565b60008060008060008060c0878903121561393c578182fd5b8635613947816148bd565b95506020870135613957816148bd565b94506040870135613967816148bd565b93506060870135613977816148bd565b92506080870135613987816148bd565b915060a0870135613997816148bd565b809150509295509295509295565b6000806000606084860312156139b9578081fd5b83356139c4816148bd565b925060208401356139d4816148bd565b929592945050506040919091013590565b60008061010083850312156139f8578182fd5b8235613a03816148bd565b9150613a128460208501613834565b90509250929050565b60008060008060808587031215613a30578182fd5b8435613a3b816148bd565b966020860135965060408601359560600135945092505050565b60006020808385031215613a67578182fd5b825167ffffffffffffffff80821115613a7e578384fd5b818501915085601f830112613a91578384fd5b815181811115613aa357613aa36148a7565b8381029150613ab38483016145ee565b8181528481019084860184860187018a1015613acd578788fd5b8795505b83861015613afb5780519450613ae6856148bd565b84835260019590950194918601918601613ad1565b5098975050505050505050565b600060208284031215613b19578081fd5b8151612d03816148d2565b600060208284031215613b35578081fd5b5051919050565b60008060408385031215613b4e578182fd5b505080516020909101519092909150565b6000808284036060811215613b72578283fd5b835192506040601f1982011215613b87578182fd5b50613b9260406145ee565b6020840151815260408401516020820152809150509250929050565b600060a08284031215613bbf578081fd5b612d03838361381d565b600060608284031215613bda578081fd5b613be460606145ee565b8251815260208301516020820152604083015160408201528091505092915050565b60006080828403121561382e578081fd5b600060a08284031215613c28578081fd5b613c3260a06145ee565b82518152602083015160208201526040830151604082015260608301516060820152608083015160808201528091505092915050565b600060e08284031215613c79578081fd5b612d038383613834565b600060808284031215613c94578081fd5b613c9e60806145ee565b825181526020830151602082015260408301516040820152606083015160608201528091505092915050565b600060e08284031215613cdb578081fd5b613ce560e06145ee565b825181526020830151602082015260408301516040820152606083015160608201526080830151608082015260a083015160a082015260c083015160c08201528091505092915050565b600060208284031215613d40578081fd5b815162ffffff81168114612d03578182fd5b60008060008060808587031215613d67578182fd5b505082516020840151604085015160609095015191969095509092509050565b600060208284031215613d98578081fd5b815160ff81168114612d03578182fd5b6001600160a01b0391909116815260200190565b6001600160a01b0392831681529116602082015260400190565b6001600160a01b039384168152919092166020820152604081019190915260600190565b6001600160a01b0394851681529290931660208301526040820152606081019190915260800190565b6001600160a01b03958616815293909416602084015260408301919091526060820152608081019190915260a00190565b6001600160a01b03929092168252602082015260400190565b6001600160a01b0392909216825262ffffff16602082015260400190565b6001600160a01b0394909416845260208401929092526040830152606082015260800190565b6001600160a01b03959095168552602085019390935260408401919091526060830152608082015260a00190565b901515815260200190565b90815260200190565b9283526020830191909152604082015260600190565b968752602087019590955260408601939093526060850191909152608084015260a083015260c082015260e00190565b6000602080835283518082850152825b81811015613f6557858101830151858201604001528201613f49565b81811115613f765783604083870101525b50601f01601f1916929092016040019392505050565b60208082526007908201526643485f504d4e4360c81b604082015260600190565b60208082526022908201527f64656e6f6d696e61746f72206d7573742062652067726561746572207468616e604082015261020360f41b606082015260800190565b60208082526008908201526708690bea2889c62760c31b604082015260600190565b602080825260069082015265534f5f434e4360d01b604082015260600190565b60208082526006908201526521a42fa2a0ab60d11b604082015260600190565b60208082526014908201527314185d5cd8589b194e881b9bdd081c185d5cd95960621b604082015260600190565b60208082526008908201526743485f4946414e4360c01b604082015260600190565b602080825260069082015265534f5f53414360d01b604082015260600190565b60208082526008908201526743485f4e4546434960c01b604082015260600190565b602080825260069082015265534f5f53414f60d01b604082015260600190565b60208082526007908201526643485f51414e4360c81b604082015260600190565b60208082526007908201526643485f4d544e4360c81b604082015260600190565b602080825260069082015265534f5f434e4f60d01b604082015260600190565b60208082526005908201526410d217d09160da1b604082015260600190565b60208082526007908201526643485f54464e4360c81b604082015260600190565b60208082526007908201526643485f43434e4360c81b604082015260600190565b602080825260069082015265043485f5053360d41b604082015260600190565b60208082526010908201526f14185d5cd8589b194e881c185d5cd95960821b604082015260600190565b6020808252818101527f53616665436173743a2076616c7565206d75737420626520706f736974697665604082015260600190565b6020808252600690820152654348565f544560d01b604082015260600190565b6020808252602e908201527f496e697469616c697a61626c653a20636f6e747261637420697320616c72656160408201526d191e481a5b9a5d1a585b1a5e995960921b606082015260800190565b60208082526007908201526643485f56414e4360c81b604082015260600190565b60208082526008908201526743485f434c57484f60c01b604082015260600190565b60208082526007908201526643485f4e45584f60c81b604082015260600190565b60208082526028908201527f53616665436173743a2076616c756520646f65736e27742066697420696e2061604082015267371034b73a191a9b60c11b606082015260800190565b6020808252600590820152640534f5f43360dc1b604082015260600190565b6020808252601f908201527f5265656e7472616e637947756172643a207265656e7472616e742063616c6c00604082015260600190565b60208082526021908201527f4661697274726164654d6174683a20696e76657273696f6e206f766572666c6f6040820152607760f81b606082015260800190565b60208082526007908201526643485f4c504e4360c81b604082015260600190565b6020808252600690820152650534f5f4e57360d41b604082015260600190565b81516001600160a01b0390811682526020808401519091168183015260408084015190830152606080840151908301526080808401519083015260a092830151805193830193909352919091015160c082015260e00190565b81518152602080830151908201526040918201519181019190915260600190565b81516001600160a01b03908116825260208084015190911690820152604080830151908201526060918201519181019190915260800190565b81516001600160a01b0390811682526020808401519091169082015260408083015190820152606080830151908201526080918201519181019190915260a00190565b815181526020918201519181019190915260400190565b81516001600160a01b0390811682526020808401519091169082015260408083015115159082015260608083015115159082015260808083015115159082015260a0828101519082015260c0918201519181019190915260e00190565b918252602082015260400190565b938452602084019290925260408301526001600160a01b0316606082015260800190565b93845260208401929092526040830152606082015260800190565b604051601f8201601f1916810167ffffffffffffffff81118282101715614617576146176148a7565b604052919050565b600080821280156001600160ff1b038490038513161561464157614641614891565b600160ff1b839003841281161561465a5761465a614891565b50500190565b80825b6001808611614672575061469d565b81870482111561468457614684614891565b8086161561469157918102915b9490941c938002614663565b94509492505050565b6000612d0360001960ff8516846000826146c257506001612d03565b816146cf57506000612d03565b81600181146146e557600281146146ef5761471c565b6001915050612d03565b60ff84111561470057614700614891565b6001841b91508482111561471657614716614891565b50612d03565b5060208310610133831016604e8410600b841016171561474f575081810a8381111561474a5761474a614891565b612d03565b61475c8484846001614660565b80860482111561476e5761476e614891565b02949350505050565b60006001600160ff1b038184138284138082168684048611161561479d5761479d614891565b600160ff1b848712828116878305891216156147bb576147bb614891565b8587129250878205871284841616156147d6576147d6614891565b878505871281841616156147ec576147ec614891565b505050929093029392505050565b60008083128015600160ff1b85018412161561481857614818614891565b6001600160ff1b038401831381161561483357614833614891565b50500390565b600060ff821660ff84168082101561485357614853614891565b90039392505050565b600060001982141561487057614870614891565b5060010190565b6000600160ff1b82141561488d5761488d614891565b0390565b634e487b7160e01b600052601160045260246000fd5b634e487b7160e01b600052604160045260246000fd5b6001600160a01b03811681146131a857600080fd5b80151581146131a857600080fdfea2646970667358221220db77898dbc07079e6de99707d5a688f6db9a5c44b23b172185d17c4fbebd70c664736f6c63430008010033",
    "linkReferences": {},
    "deployedLinkReferences": {}
}