{
  "_format": "hh-sol-artifact-1",
  "contractName": "ClearingHouse",
  "sourceName": "contracts/clearinghouse/ClearingHouse.sol",
  "abi": [
    {
      "anonymous": false,
      "inputs": [
        {
          "indexed": true,
          "internalType": "address",
          "name": "trader",
          "type": "address"
        },
        {
          "indexed": true,
          "internalType": "address",
          "name": "baseToken",
          "type": "address"
        },
        {
          "indexed": false,
          "internalType": "int256",
          "name": "fundingPayment",
          "type": "int256"
        }
      ],
      "name": "FundingPaymentSettled",
      "type": "event"
    },
    {
      "anonymous": false,
      "inputs": [
        {
          "indexed": true,
          "internalType": "address",
          "name": "maker",
          "type": "address"
        },
        {
          "indexed": true,
          "internalType": "address",
          "name": "baseToken",
          "type": "address"
        },
        {
          "indexed": true,
          "internalType": "address",
          "name": "quoteToken",
          "type": "address"
        },
        {
          "indexed": false,
          "internalType": "int256",
          "name": "base",
          "type": "int256"
        },
        {
          "indexed": false,
          "internalType": "int256",
          "name": "quote",
          "type": "int256"
        },
        {
          "indexed": false,
          "internalType": "int256",
          "name": "liquidity",
          "type": "int256"
        },
        {
          "indexed": false,
          "internalType": "uint256",
          "name": "quoteFee",
          "type": "uint256"
        }
      ],
      "name": "LiquidityChanged",
      "type": "event"
    },
    {
      "anonymous": false,
      "inputs": [
        {
          "indexed": true,
          "internalType": "address",
          "name": "previousOwner",
          "type": "address"
        },
        {
          "indexed": true,
          "internalType": "address",
          "name": "newOwner",
          "type": "address"
        }
      ],
      "name": "OwnershipTransferred",
      "type": "event"
    },
    {
      "anonymous": false,
      "inputs": [
        {
          "indexed": false,
          "internalType": "address",
          "name": "account",
          "type": "address"
        }
      ],
      "name": "Paused",
      "type": "event"
    },
    {
      "anonymous": false,
      "inputs": [
        {
          "indexed": true,
          "internalType": "address",
          "name": "trader",
          "type": "address"
        },
        {
          "indexed": true,
          "internalType": "address",
          "name": "baseToken",
          "type": "address"
        },
        {
          "indexed": false,
          "internalType": "int256",
          "name": "exchangedPositionSize",
          "type": "int256"
        },
        {
          "indexed": false,
          "internalType": "int256",
          "name": "exchangedPositionNotional",
          "type": "int256"
        },
        {
          "indexed": false,
          "internalType": "uint256",
          "name": "fee",
          "type": "uint256"
        },
        {
          "indexed": false,
          "internalType": "int256",
          "name": "openNotional",
          "type": "int256"
        },
        {
          "indexed": false,
          "internalType": "int256",
          "name": "realizedPnl",
          "type": "int256"
        },
        {
          "indexed": false,
          "internalType": "uint256",
          "name": "priceAfter",
          "type": "uint256"
        }
      ],
      "name": "PositionChanged",
      "type": "event"
    },
    {
      "anonymous": false,
      "inputs": [
        {
          "indexed": true,
          "internalType": "address",
          "name": "trader",
          "type": "address"
        },
        {
          "indexed": true,
          "internalType": "address",
          "name": "baseToken",
          "type": "address"
        },
        {
          "indexed": false,
          "internalType": "uint256",
          "name": "positionNotional",
          "type": "uint256"
        },
        {
          "indexed": false,
          "internalType": "uint256",
          "name": "positionSize",
          "type": "uint256"
        },
        {
          "indexed": false,
          "internalType": "uint256",
          "name": "liquidationFee",
          "type": "uint256"
        },
        {
          "indexed": false,
          "internalType": "address",
          "name": "liquidator",
          "type": "address"
        }
      ],
      "name": "PositionLiquidated",
      "type": "event"
    },
    {
      "anonymous": false,
      "inputs": [
        {
          "indexed": true,
          "internalType": "bytes32",
          "name": "referralCode",
          "type": "bytes32"
        }
      ],
      "name": "ReferredPositionChanged",
      "type": "event"
    },
    {
      "anonymous": false,
      "inputs": [
        {
          "indexed": true,
          "internalType": "address",
          "name": "forwarder",
          "type": "address"
        }
      ],
      "name": "TrustedForwarderChanged",
      "type": "event"
    },
    {
      "anonymous": false,
      "inputs": [
        {
          "indexed": false,
          "internalType": "address",
          "name": "trustedForwarder",
          "type": "address"
        }
      ],
      "name": "TrustedForwarderUpdated",
      "type": "event"
    },
    {
      "anonymous": false,
      "inputs": [
        {
          "indexed": false,
          "internalType": "address",
          "name": "account",
          "type": "address"
        }
      ],
      "name": "Unpaused",
      "type": "event"
    },
    {
      "inputs": [
        {
          "components": [
            {
              "internalType": "address",
              "name": "baseToken",
              "type": "address"
            },
            {
              "internalType": "uint256",
              "name": "base",
              "type": "uint256"
            },
            {
              "internalType": "uint256",
              "name": "quote",
              "type": "uint256"
            },
            {
              "internalType": "uint256",
              "name": "minLiquidity",
              "type": "uint256"
            },
            {
              "internalType": "uint256",
              "name": "deadline",
              "type": "uint256"
            }
          ],
          "internalType": "struct IClearingHouse.AddLiquidityParams",
          "name": "params",
          "type": "tuple"
        }
      ],
      "name": "addLiquidity",
      "outputs": [
        {
          "components": [
            {
              "internalType": "uint256",
              "name": "base",
              "type": "uint256"
            },
            {
              "internalType": "uint256",
              "name": "quote",
              "type": "uint256"
            },
            {
              "internalType": "uint256",
              "name": "fee",
              "type": "uint256"
            },
            {
              "internalType": "uint256",
              "name": "liquidity",
              "type": "uint256"
            }
          ],
          "internalType": "struct IClearingHouse.AddLiquidityResponse",
          "name": "",
          "type": "tuple"
        }
      ],
      "stateMutability": "nonpayable",
      "type": "function"
    },
    {
      "inputs": [
        {
          "internalType": "address",
          "name": "token",
          "type": "address"
        },
        {
          "internalType": "address",
          "name": "account",
          "type": "address"
        }
      ],
      "name": "approve",
      "outputs": [],
      "stateMutability": "nonpayable",
      "type": "function"
    },
    {
      "inputs": [
        {
          "internalType": "address",
          "name": "maker",
          "type": "address"
        },
        {
          "internalType": "address",
          "name": "baseToken",
          "type": "address"
        }
      ],
      "name": "cancelOpenOrder",
      "outputs": [],
      "stateMutability": "nonpayable",
      "type": "function"
    },
    {
      "inputs": [],
      "name": "candidate",
      "outputs": [
        {
          "internalType": "address",
          "name": "",
          "type": "address"
        }
      ],
      "stateMutability": "view",
      "type": "function"
    },
    {
      "inputs": [
        {
          "components": [
            {
              "internalType": "address",
              "name": "baseToken",
              "type": "address"
            },
            {
              "internalType": "uint256",
              "name": "amountLimit",
              "type": "uint256"
            },
            {
              "internalType": "uint256",
              "name": "deadline",
              "type": "uint256"
            },
            {
              "internalType": "bytes32",
              "name": "referralCode",
              "type": "bytes32"
            }
          ],
          "internalType": "struct IClearingHouse.ClosePositionParams",
          "name": "params",
          "type": "tuple"
        }
      ],
      "name": "closePosition",
      "outputs": [
        {
          "internalType": "uint256",
          "name": "base",
          "type": "uint256"
        },
        {
          "internalType": "uint256",
          "name": "quote",
          "type": "uint256"
        }
      ],
      "stateMutability": "nonpayable",
      "type": "function"
    },
    {
      "inputs": [
        {
          "internalType": "address",
          "name": "trader",
          "type": "address"
        }
      ],
      "name": "getAccountValue",
      "outputs": [
        {
          "internalType": "int256",
          "name": "",
          "type": "int256"
        }
      ],
      "stateMutability": "view",
      "type": "function"
    },
    {
      "inputs": [],
      "name": "getClearingHouseConfig",
      "outputs": [
        {
          "internalType": "address",
          "name": "",
          "type": "address"
        }
      ],
      "stateMutability": "view",
      "type": "function"
    },
    {
      "inputs": [],
      "name": "getInsuranceFund",
      "outputs": [
        {
          "internalType": "address",
          "name": "",
          "type": "address"
        }
      ],
      "stateMutability": "view",
      "type": "function"
    },
    {
      "inputs": [],
      "name": "getLiquidityProvider",
      "outputs": [
        {
          "internalType": "address",
          "name": "",
          "type": "address"
        }
      ],
      "stateMutability": "view",
      "type": "function"
    },
    {
      "inputs": [],
      "name": "getMarketTaker",
      "outputs": [
        {
          "internalType": "address",
          "name": "",
          "type": "address"
        }
      ],
      "stateMutability": "view",
      "type": "function"
    },
    {
      "inputs": [],
      "name": "getPositionMgmt",
      "outputs": [
        {
          "internalType": "address",
          "name": "",
          "type": "address"
        }
      ],
      "stateMutability": "view",
      "type": "function"
    },
    {
      "inputs": [],
      "name": "getQuoteToken",
      "outputs": [
        {
          "internalType": "address",
          "name": "",
          "type": "address"
        }
      ],
      "stateMutability": "view",
      "type": "function"
    },
    {
      "inputs": [],
      "name": "getTrustedForwarder",
      "outputs": [
        {
          "internalType": "address",
          "name": "",
          "type": "address"
        }
      ],
      "stateMutability": "view",
      "type": "function"
    },
    {
      "inputs": [],
      "name": "getVault",
      "outputs": [
        {
          "internalType": "address",
          "name": "",
          "type": "address"
        }
      ],
      "stateMutability": "view",
      "type": "function"
    },
    {
      "inputs": [
        {
          "internalType": "address",
          "name": "clearingHouseConfigArg",
          "type": "address"
        },
        {
          "internalType": "address",
          "name": "vaultArg",
          "type": "address"
        },
        {
          "internalType": "address",
          "name": "quoteTokenArg",
          "type": "address"
        },
        {
          "internalType": "address",
          "name": "marketTakerArg",
          "type": "address"
        },
        {
          "internalType": "address",
          "name": "positionMgmtArg",
          "type": "address"
        },
        {
          "internalType": "address",
          "name": "insuranceFundArg",
          "type": "address"
        }
      ],
      "name": "initialize",
      "outputs": [],
      "stateMutability": "nonpayable",
      "type": "function"
    },
    {
      "inputs": [
        {
          "internalType": "address",
          "name": "forwarder",
          "type": "address"
        }
      ],
      "name": "isTrustedForwarder",
      "outputs": [
        {
          "internalType": "bool",
          "name": "",
          "type": "bool"
        }
      ],
      "stateMutability": "view",
      "type": "function"
    },
    {
      "inputs": [
        {
          "internalType": "address",
          "name": "trader",
          "type": "address"
        },
        {
          "internalType": "address",
          "name": "baseToken",
          "type": "address"
        },
        {
          "internalType": "uint256",
          "name": "amountLimit",
          "type": "uint256"
        }
      ],
      "name": "liquidate",
      "outputs": [],
      "stateMutability": "nonpayable",
      "type": "function"
    },
    {
      "inputs": [
        {
          "components": [
            {
              "internalType": "address",
              "name": "baseToken",
              "type": "address"
            },
            {
              "internalType": "bool",
              "name": "isSwapWithBase",
              "type": "bool"
            },
            {
              "internalType": "bool",
              "name": "isSell",
              "type": "bool"
            },
            {
              "internalType": "uint256",
              "name": "amount",
              "type": "uint256"
            },
            {
              "internalType": "uint256",
              "name": "amountLimit",
              "type": "uint256"
            },
            {
              "internalType": "uint256",
              "name": "deadline",
              "type": "uint256"
            },
            {
              "internalType": "bytes32",
              "name": "referralCode",
              "type": "bytes32"
            }
          ],
          "internalType": "struct IClearingHouse.OpenPositionParams",
          "name": "params",
          "type": "tuple"
        }
      ],
      "name": "openPosition",
      "outputs": [
        {
          "internalType": "uint256",
          "name": "base",
          "type": "uint256"
        },
        {
          "internalType": "uint256",
          "name": "quote",
          "type": "uint256"
        }
      ],
      "stateMutability": "nonpayable",
      "type": "function"
    },
    {
      "inputs": [
        {
          "internalType": "address",
          "name": "trader",
          "type": "address"
        },
        {
          "components": [
            {
              "internalType": "address",
              "name": "baseToken",
              "type": "address"
            },
            {
              "internalType": "bool",
              "name": "isSwapWithBase",
              "type": "bool"
            },
            {
              "internalType": "bool",
              "name": "isSell",
              "type": "bool"
            },
            {
              "internalType": "uint256",
              "name": "amount",
              "type": "uint256"
            },
            {
              "internalType": "uint256",
              "name": "amountLimit",
              "type": "uint256"
            },
            {
              "internalType": "uint256",
              "name": "deadline",
              "type": "uint256"
            },
            {
              "internalType": "bytes32",
              "name": "referralCode",
              "type": "bytes32"
            }
          ],
          "internalType": "struct IClearingHouse.OpenPositionParams",
          "name": "params",
          "type": "tuple"
        }
      ],
      "name": "openPositionFor",
      "outputs": [
        {
          "internalType": "uint256",
          "name": "base",
          "type": "uint256"
        },
        {
          "internalType": "uint256",
          "name": "quote",
          "type": "uint256"
        },
        {
          "internalType": "uint256",
          "name": "fee",
          "type": "uint256"
        }
      ],
      "stateMutability": "nonpayable",
      "type": "function"
    },
    {
      "inputs": [],
      "name": "owner",
      "outputs": [
        {
          "internalType": "address",
          "name": "",
          "type": "address"
        }
      ],
      "stateMutability": "view",
      "type": "function"
    },
    {
      "inputs": [],
      "name": "pause",
      "outputs": [],
      "stateMutability": "nonpayable",
      "type": "function"
    },
    {
      "inputs": [],
      "name": "paused",
      "outputs": [
        {
          "internalType": "bool",
          "name": "",
          "type": "bool"
        }
      ],
      "stateMutability": "view",
      "type": "function"
    },
    {
      "inputs": [
        {
          "components": [
            {
              "internalType": "address",
              "name": "baseToken",
              "type": "address"
            },
            {
              "internalType": "uint256",
              "name": "liquidity",
              "type": "uint256"
            },
            {
              "internalType": "uint256",
              "name": "minBase",
              "type": "uint256"
            },
            {
              "internalType": "uint256",
              "name": "minQuote",
              "type": "uint256"
            },
            {
              "internalType": "uint256",
              "name": "deadline",
              "type": "uint256"
            }
          ],
          "internalType": "struct IClearingHouse.RemoveLiquidityParams",
          "name": "params",
          "type": "tuple"
        }
      ],
      "name": "removeLiquidity",
      "outputs": [
        {
          "components": [
            {
              "internalType": "uint256",
              "name": "base",
              "type": "uint256"
            },
            {
              "internalType": "uint256",
              "name": "quote",
              "type": "uint256"
            },
            {
              "internalType": "uint256",
              "name": "fee",
              "type": "uint256"
            }
          ],
          "internalType": "struct IClearingHouse.RemoveLiquidityResponse",
          "name": "",
          "type": "tuple"
        }
      ],
      "stateMutability": "nonpayable",
      "type": "function"
    },
    {
      "inputs": [],
      "name": "renounceOwnership",
      "outputs": [],
      "stateMutability": "nonpayable",
      "type": "function"
    },
    {
      "inputs": [
        {
          "internalType": "address",
          "name": "newOwner",
          "type": "address"
        }
      ],
      "name": "setOwner",
      "outputs": [],
      "stateMutability": "nonpayable",
      "type": "function"
    },
    {
      "inputs": [
        {
          "internalType": "address",
          "name": "trustedForwarderArg",
          "type": "address"
        }
      ],
      "name": "setTrustedForwarder",
      "outputs": [],
      "stateMutability": "nonpayable",
      "type": "function"
    },
    {
      "inputs": [
        {
          "internalType": "address",
          "name": "trader",
          "type": "address"
        }
      ],
      "name": "settleAllFunding",
      "outputs": [],
      "stateMutability": "nonpayable",
      "type": "function"
    },
    {
      "inputs": [],
      "name": "unpause",
      "outputs": [],
      "stateMutability": "nonpayable",
      "type": "function"
    },
    {
      "inputs": [],
      "name": "updateOwner",
      "outputs": [],
      "stateMutability": "nonpayable",
      "type": "function"
    },
    {
      "inputs": [],
      "name": "versionRecipient",
      "outputs": [
        {
          "internalType": "string",
          "name": "",
          "type": "string"
        }
      ],
      "stateMutability": "pure",
      "type": "function"
    }
  ],
  "bytecode": "0x608060405234801561001057600080fd5b506146ec806100206000396000f3fe608060405234801561001057600080fd5b50600436106101da5760003560e01c8063715018a611610104578063aa2a8294116100a2578063ce1b815f11610071578063ce1b815f146103a9578063da742228146103b1578063e2a72cce146103c4578063eb9b912e146103cc576101da565b8063aa2a829414610366578063bc5920ba1461036e578063c2fdd42f14610376578063cc2a9a5b14610396576101da565b80638456cb59116100de5780638456cb59146103465780638d928af81461034e5780638da5cb5b146103565780638e8499ba1461035e576101da565b8063715018a61461030b5780637e5465ba146103135780637f2bd08f14610326576101da565b80633f4ba83a1161017c578063572b6c051161014b578063572b6c05146102bb5780635ae80951146102db5780635c975abb146102fb5780636c8381f814610303576101da565b80633f4ba83a1461028e578063486ff0cd146102965780634a64d67d146102ab57806355338fc1146102b3576101da565b80631eaa33f3116101b85780631eaa33f31461023457806326c013031461025557806328d83466146102685780632bb6b86a1461027b576101da565b806309453d0c146101df57806313af40351461020a578063158626f71461021f575b600080fd5b6101f26101ed366004613822565b6103df565b6040516102019392919061438a565b60405180910390f35b61021d6102183660046136f1565b610583565b005b610227610666565b6040516102019190613bc1565b610247610242366004613aac565b610677565b60405161020192919061437c565b61021d6102633660046137e2565b61084e565b61021d610276366004613729565b610c25565b610247610289366004613a40565b6110ff565b61021d611238565b61029e611281565b6040516102019190613d00565b6102276112a0565b6102276112b0565b6102ce6102c93660046136f1565b6112c0565b6040516102019190613ca9565b6102ee6102e93660046136f1565b6112d4565b6040516102019190613cb4565b6102ce6114c6565b6102276114cf565b61021d6114de565b61021d610321366004613729565b611573565b6103396103343660046139de565b611639565b6040516102019190614257565b61021d611979565b6102276119c0565b6102276119d0565b6102276119df565b6102276119ef565b61021d6119ff565b6103896103843660046139de565b611ac2565b60405161020191906142fe565b61021d6103a4366004613761565b611e9e565b610227612276565b61021d6103bf3660046136f1565b612285565b610227612332565b61021d6103da3660046136f1565b612342565b60008060006103ec6114c6565b156104125760405162461bcd60e51b815260040161040990613fad565b60405180910390fd5b600260015414156104355760405162461bcd60e51b815260040161040990614145565b600260015560a084015180610448612422565b11156104665760405162461bcd60e51b81526004016104099061400c565b610135548551604051633f1cdc8560e21b81526001600160a01b039092169163fc7372149161049a918a9190600401613bd5565b600060405180830381600087803b1580156104b457600080fd5b505af11580156104c8573d6000803e3d6000fd5b505050506104da868660000151612426565b50600061054f604051806101000160405280896001600160a01b0316815260200188600001516001600160a01b031681526020018860200151151581526020018860400151151581526020016000151581526020018860600151815260200188608001518152602001600015158152506125e3565b905061055e8160000151612b1b565b61056b8260200151612b1b565b60809092015160018055909891975095509350505050565b61058b612b4a565b6001600160a01b031661059c6119d0565b6001600160a01b0316146105c25760405162461bcd60e51b815260040161040990613f0c565b6001600160a01b0381166105e85760405162461bcd60e51b8152600401610409906141de565b6065546001600160a01b03828116911614156106165760405162461bcd60e51b815260040161040990613eaa565b6066546001600160a01b03828116911614156106445760405162461bcd60e51b815260040161040990613e68565b606680546001600160a01b0319166001600160a01b0392909216919091179055565b610136546001600160a01b03165b90565b6000806106826114c6565b1561069f5760405162461bcd60e51b815260040161040990613fad565b600260015414156106c25760405162461bcd60e51b815260040161040990614145565b600260015560a0830151806106d5612422565b11156106f35760405162461bcd60e51b81526004016104099061400c565b60006106fd612b4a565b610135548651604051633f1cdc8560e21b81529293506001600160a01b039091169163fc7372149161073491859190600401613bd5565b600060405180830381600087803b15801561074e57600080fd5b505af1158015610762573d6000803e3d6000fd5b50505050610774818660000151612426565b5060006107e9604051806101000160405280846001600160a01b0316815260200188600001516001600160a01b031681526020018860200151151581526020018860400151151581526020016000151581526020018860600151815260200188608001518152602001600015158152506125e3565b60c0870151909150156108255760c08601516040517f09a07769667a46c2b89124a4d731c76fb5203061073aec16319ba9c6a79a324890600090a25b805161083090612b1b565b61083d8260200151612b1b565b600180559097909650945050505050565b6108566114c6565b156108735760405162461bcd60e51b815260040161040990613fad565b600260015414156108965760405162461bcd60e51b815260040161040990614145565b60026001556101355460405163659e3dc760e11b81526001600160a01b039091169063cb3c7b8e906108cc908690600401613bc1565b60206040518083038186803b1580156108e457600080fd5b505afa1580156108f8573d6000803e3d6000fd5b505050506040513d601f19601f8201168201806040525081019061091c919061390b565b156109395760405162461bcd60e51b81526004016104099061409b565b6101355460405163f75c266d60e01b81526001600160a01b039091169063f75c266d9061096a908690600401613bc1565b60206040518083038186803b15801561098257600080fd5b505afa158015610996573d6000803e3d6000fd5b505050506040513d601f19601f820116820180604052508101906109ba9190613927565b6109c3846112d4565b126109e05760405162461bcd60e51b815260040161040990613df8565b6109ea8383612426565b506000610a2b6040518060800160405280866001600160a01b03168152602001856001600160a01b0316815260200184815260200160011515815250612b59565b90506000610acc61013160009054906101000a90046001600160a01b03166001600160a01b031663fedf924b6040518163ffffffff1660e01b815260040160206040518083038186803b158015610a8157600080fd5b505afa158015610a95573d6000803e3d6000fd5b505050506040513d601f19601f82011682018060405250810190610ab99190613b7d565b610ac68460200151612b1b565b90612c8a565b610135549091506001600160a01b031663874044f386610aeb84612ca6565b6040518363ffffffff1660e01b8152600401610b08929190613c72565b600060405180830381600087803b158015610b2257600080fd5b505af1158015610b36573d6000803e3d6000fd5b505050506000610b44612b4a565b610135549091506001600160a01b031663874044f382610b6385612cba565b6040518363ffffffff1660e01b8152600401610b80929190613c72565b600060405180830381600087803b158015610b9a57600080fd5b505af1158015610bae573d6000803e3d6000fd5b50505050846001600160a01b0316866001600160a01b03167fd9aced30440caca81570436bc942f816cfd95a3f08f700a2aeb6334c7cb5b497610bf48660200151612b1b565b8651610bff90612b1b565b8686604051610c1194939291906143a0565b60405180910390a350506001805550505050565b610c2d6114c6565b15610c4a5760405162461bcd60e51b815260040161040990613fad565b60026001541415610c6d5760405162461bcd60e51b815260040161040990614145565b60026001819055506000610d078361013160009054906101000a90046001600160a01b03166001600160a01b031663a85494026040518163ffffffff1660e01b815260040160206040518083038186803b158015610cca57600080fd5b505afa158015610cde573d6000803e3d6000fd5b505050506040513d601f19601f82011682018060405250810190610d029190613b7d565b612ce7565b1280610d9a57506101355460405163f75c266d60e01b81526001600160a01b039091169063f75c266d90610d3f908590600401613bc1565b60206040518083038186803b158015610d5757600080fd5b505afa158015610d6b573d6000803e3d6000fd5b505050506040513d601f19601f82011682018060405250810190610d8f9190613927565b610d98836112d4565b125b610db65760405162461bcd60e51b8152600401610409906140bd565b610dc08282612426565b50610134546040516385b0f96760e01b81526000916001600160a01b0316906385b0f96790610df59086908690600401613bd5565b60c06040518083038186803b158015610e0d57600080fd5b505afa158015610e21573d6000803e3d6000fd5b505050506040513d601f19601f82011682018060405250810190610e459190613a51565b610134546040805160a0810182526001600160a01b038781168252868116602083015284518284015260006060830181905260808301819052925163cd67005560e01b81529495509193919092169163cd67005591610ea791906004016142bb565b60a060405180830381600087803b158015610ec157600080fd5b505af1158015610ed5573d6000803e3d6000fd5b505050506040513d601f19601f82011682018060405250810190610ef99190613ac7565b6101305481519192506001600160a01b0390811691858216918716907fdbe12e8ae7b4c4f317745a50622d08024d61bae3d45a06379d97d17c88a4e60290610f4090612ca6565b610f4d8660200151612ca6565b8751610f5890612ca6565b8760400151604051610f6d9493929190613cbd565b60405180910390a46000610f82858584612d6b565b6101355460405163d50d01b760e01b81529192506000916001600160a01b039091169063d50d01b790610fbb9089908990600401613bd5565b60206040518083038186803b158015610fd357600080fd5b505afa158015610fe7573d6000803e3d6000fd5b505050506040513d601f19601f8201168201806040525081019061100b9190613927565b6101335460405163175be70560e21b81529192506000916001600160a01b0390911690635d6f9c1490611042908990600401613bc1565b60206040518083038186803b15801561105a57600080fd5b505afa15801561106e573d6000803e3d6000fd5b505050506040513d601f19601f820116820180604052508101906110929190613927565b9050856001600160a01b0316876001600160a01b03167f968bc4f738eae0486dc6736c4b427dbafa4acfdf6eaf223337791ddeb3a562478660600151876080015160008789886040516110ea96959493929190613cd8565b60405180910390a35050600180555050505050565b60008061110a6114c6565b156111275760405162461bcd60e51b815260040161040990613fad565b6002600154141561114a5760405162461bcd60e51b815260040161040990614145565b600260015560408301358061115d612422565b111561117b5760405162461bcd60e51b81526004016104099061400c565b6000611185612b4a565b905061119d8161119860208801886136f1565b612426565b5060006111f26040518060800160405280846001600160a01b031681526020018860000160208101906111d091906136f1565b6001600160a01b03168152602089810135908201526000604090910152612b59565b9050606086013515610825576040516060870135907f09a07769667a46c2b89124a4d731c76fb5203061073aec16319ba9c6a79a324890600090a2805161083090612b1b565b611240612b4a565b6001600160a01b03166112516119d0565b6001600160a01b0316146112775760405162461bcd60e51b815260040161040990613f0c565b61127f612eba565b565b6040805180820190915260058152640322e302e360dc1b602082015290565b610130546001600160a01b031690565b610133546001600160a01b031690565b60fd546001600160a01b0390811691161490565b610133546040516380f57f1160e01b815260009182916001600160a01b03909116906380f57f119061130a908690600401613bc1565b60206040518083038186803b15801561132257600080fd5b505afa158015611336573d6000803e3d6000fd5b505050506040513d601f19601f8201168201806040525081019061135a9190613927565b6101355460405163bba85bcf60e01b8152919250600091829182916001600160a01b039091169063bba85bcf90611395908990600401613bc1565b60606040518083038186803b1580156113ad57600080fd5b505afa1580156113c1573d6000803e3d6000fd5b505050506040513d601f19601f820116820180604052508101906113e59190613962565b6101325460405163f8b2cb4f60e01b81529396509194509250600091611486916001600160a01b03169063f8b2cb4f90611423908b90600401613bc1565b60206040518083038186803b15801561143b57600080fd5b505afa15801561144f573d6000803e3d6000fd5b505050506040513d601f19601f820116820180604052508101906114739190613927565b61013054600160a01b900460ff16612f28565b905061149182612cba565b838661149d87856143f5565b6114a791906145d0565b6114b191906143f5565b6114bb91906143f5565b979650505050505050565b60995460ff1690565b6066546001600160a01b031690565b6114e6612b4a565b6001600160a01b03166114f76119d0565b6001600160a01b03161461151d5760405162461bcd60e51b815260040161040990613f0c565b6065546040516000916001600160a01b0316907f8be0079c531659141344cd1fd0a4f28419497f9722a3daafe3b4186f6b6457e0908390a3606580546001600160a01b0319908116909155606680549091169055565b61157b612b4a565b6001600160a01b031661158c6119d0565b6001600160a01b0316146115b25760405162461bcd60e51b815260040161040990613f0c565b60405163095ea7b360e01b81526001600160a01b0383169063095ea7b3906115e290849060001990600401613c72565b602060405180830381600087803b1580156115fc57600080fd5b505af1158015611610573d6000803e3d6000fd5b505050506040513d601f19601f82011682018060405250810190611634919061390b565b505050565b6116416135ba565b6116496114c6565b156116665760405162461bcd60e51b815260040161040990613fad565b600260015414156116895760405162461bcd60e51b815260040161040990614145565b600260015560808201358061169c612422565b11156116ba5760405162461bcd60e51b81526004016104099061400c565b60006116c4612b4a565b610135549091506001600160a01b031663fc737214826116e760208801886136f1565b6040518363ffffffff1660e01b8152600401611704929190613bd5565b600060405180830381600087803b15801561171e57600080fd5b505af1158015611732573d6000803e3d6000fd5b506000925061174c915083905061119860208801886136f1565b610134546040805160c081019091526001600160a01b03858116825292935060009290911690639e8d45809060208082019061178a908b018b6136f1565b6001600160a01b03168152602001896020013581526020018960400135815260200189606001358152602001858152506040518263ffffffff1660e01b81526004016117d691906141fe565b608060405180830381600087803b1580156117f057600080fd5b505af1158015611804573d6000803e3d6000fd5b505050506040513d601f19601f8201168201806040525081019061182891906139f9565b6101355460408201519192506001600160a01b03169063874044f390859061184f90612cba565b6040518363ffffffff1660e01b815260040161186c929190613c72565b600060405180830381600087803b15801561188657600080fd5b505af115801561189a573d6000803e3d6000fd5b505050506118a783612f4a565b610130546001600160a01b03166118c160208801886136f1565b6001600160a01b0316846001600160a01b03167fdbe12e8ae7b4c4f317745a50622d08024d61bae3d45a06379d97d17c88a4e6026119028560000151612cba565b61190f8660200151612cba565b61191c8760600151612cba565b87604001516040516119319493929190613cbd565b60405180910390a46040518060800160405280826000015181526020018260200151815260200182604001518152602001826060015181525094505050505060018055919050565b611981612b4a565b6001600160a01b03166119926119d0565b6001600160a01b0316146119b85760405162461bcd60e51b815260040161040990613f0c565b61127f612fc0565b610132546001600160a01b031690565b6065546001600160a01b031690565b610135546001600160a01b031690565b610131546001600160a01b031690565b6066546001600160a01b0316611a275760405162461bcd60e51b815260040161040990614126565b611a2f612b4a565b6066546001600160a01b03908116911614611a5c5760405162461bcd60e51b815260040161040990613dd8565b6066546065546040516001600160a01b0392831692909116907f8be0079c531659141344cd1fd0a4f28419497f9722a3daafe3b4186f6b6457e090600090a360668054606580546001600160a01b03199081166001600160a01b03841617909155169055565b611aca6135e2565b611ad26114c6565b15611aef5760405162461bcd60e51b815260040161040990613fad565b60026001541415611b125760405162461bcd60e51b815260040161040990614145565b6002600155608082013580611b25612422565b1115611b435760405162461bcd60e51b81526004016104099061400c565b6000611b4d612b4a565b9050611b608161119860208701876136f1565b50610134546040805160a081019091526001600160a01b038381168252600092169063cd67005590602080820190611b9a908a018a6136f1565b6001600160a01b03168152602001886020013581526020018860400135815260200188606001358152506040518263ffffffff1660e01b8152600401611be091906142bb565b60a060405180830381600087803b158015611bfa57600080fd5b505af1158015611c0e573d6000803e3d6000fd5b505050506040513d601f19601f82011682018060405250810190611c329190613ac7565b90506000611c4d83611c4760208901896136f1565b84612d6b565b610130549091506001600160a01b0316611c6a60208801886136f1565b6001600160a01b0316846001600160a01b03167fdbe12e8ae7b4c4f317745a50622d08024d61bae3d45a06379d97d17c88a4e602611cab8660000151612ca6565b611cb88760200151612ca6565b611cc58c60200135612ca6565b8860400151604051611cda9493929190613cbd565b60405180910390a4610135546000906001600160a01b031663d50d01b785611d0560208b018b6136f1565b6040518363ffffffff1660e01b8152600401611d22929190613bd5565b60206040518083038186803b158015611d3a57600080fd5b505afa158015611d4e573d6000803e3d6000fd5b505050506040513d601f19601f82011682018060405250810190611d729190613927565b610133549091506000906001600160a01b0316635d6f9c14611d9760208b018b6136f1565b6040518263ffffffff1660e01b8152600401611db39190613bc1565b60206040518083038186803b158015611dcb57600080fd5b505afa158015611ddf573d6000803e3d6000fd5b505050506040513d601f19601f82011682018060405250810190611e039190613927565b9050611e1260208901896136f1565b6001600160a01b0316856001600160a01b03167f968bc4f738eae0486dc6736c4b427dbafa4acfdf6eaf223337791ddeb3a56247866060015187608001516000878988604051611e6796959493929190613cd8565b60405180910390a3505060408051606081018252835181526020808501519082015292810151908301525060018055949350505050565b600054610100900460ff1680611eb7575060005460ff16155b611ed35760405162461bcd60e51b81526004016104099061402c565b600054610100900460ff16158015611efe576000805460ff1961ff0019909116610100171660011790555b611f10866001600160a01b031661301b565b611f2c5760405162461bcd60e51b81526004016104099061407a565b611f3e856001600160a01b031661301b565b611f5a5760405162461bcd60e51b815260040161040990613eca565b846001600160a01b031663313ce5676040518163ffffffff1660e01b815260040160206040518083038186803b158015611f9357600080fd5b505afa158015611fa7573d6000803e3d6000fd5b505050506040513d601f19601f82011682018060405250810190611fcb9190613ba0565b60ff16601214611fed5760405162461bcd60e51b815260040161040990613db6565b611fff876001600160a01b031661301b565b61201b5760405162461bcd60e51b815260040161040990613f6c565b61202d836001600160a01b031661301b565b6120495760405162461bcd60e51b815260040161040990613d53565b61205b846001600160a01b031661301b565b6120775760405162461bcd60e51b815260040161040990613eeb565b612089826001600160a01b031661301b565b6120a55760405162461bcd60e51b815260040161040990613e46565b6000846001600160a01b031663e2a72cce6040518163ffffffff1660e01b815260040160206040518083038186803b1580156120e057600080fd5b505afa1580156120f4573d6000803e3d6000fd5b505050506040513d601f19601f82011682018060405250810190612118919061370d565b905061212c816001600160a01b031661301b565b6121485760405162461bcd60e51b8152600401610409906141bd565b612150613021565b61215861309d565b61013180546001600160a01b03199081166001600160a01b038b811691909117909255610132805482168a84161790819055610130805483168a85161790556101338054831689851617905561013480548316858516179055610135805483168885161790556101368054909216868416179091556040805163313ce56760e01b81529051919092169163313ce567916004808301926020929190829003018186803b15801561220757600080fd5b505afa15801561221b573d6000803e3d6000fd5b505050506040513d601f19601f8201168201806040525081019061223f9190613ba0565b61013060146101000a81548160ff021916908360ff16021790555050801561226d576000805461ff00191690555b50505050505050565b60fd546001600160a01b031690565b61228d612b4a565b6001600160a01b031661229e6119d0565b6001600160a01b0316146122c45760405162461bcd60e51b815260040161040990613f0c565b6122d6816001600160a01b031661301b565b6122f25760405162461bcd60e51b815260040161040990613f4b565b6122fb8161310d565b6040516001600160a01b038216907f871264f4293af7d2865ae7eae628b228f4991c57cb45b39c99f0b774ebe2901890600090a250565b610134546001600160a01b031690565b610135546040516357ba739b60e11b81526000916001600160a01b03169063af74e73690612374908590600401613bc1565b60006040518083038186803b15801561238c57600080fd5b505afa1580156123a0573d6000803e3d6000fd5b505050506040513d6000823e601f3d908101601f191682016040526123c89190810190613858565b805190915060005b8181101561241c57612409848483815181106123fc57634e487b7160e01b600052603260045260246000fd5b6020026020010151612426565b508061241481614632565b9150506123d0565b50505050565b4290565b61242e613603565b61013354604051631e81ac3360e01b81526000916001600160a01b031690631e81ac33906124629087908790600401613bd5565b606060405180830381600087803b15801561247c57600080fd5b505af1158015612490573d6000803e3d6000fd5b505050506040513d601f19601f820116820180604052508101906124b4919061398f565b92509050801561257557610135546001600160a01b031663874044f3856124da84613163565b6040518363ffffffff1660e01b81526004016124f7929190613c72565b600060405180830381600087803b15801561251157600080fd5b505af1158015612525573d6000803e3d6000fd5b50505050826001600160a01b0316846001600160a01b03167f733330d4aad1a878654bf888817b79bc6478013399be29fa3b8845c81305249e8360405161256c9190613cb4565b60405180910390a35b610135548251604051632e4586c360e01b81526001600160a01b0390921691632e4586c3916125aa9188918891600401613bef565b600060405180830381600087803b1580156125c457600080fd5b505af11580156125d8573d6000803e3d6000fd5b505050505092915050565b6125eb61361d565b610133546040805160e08101825284516001600160a01b0390811682526020808701518216908301528583015115158284015260608087015115159083015260808087015115159083015260a0808701519083015260c0808701519083015291516326a26b1160e21b81526000939290921691639a89ac44916126709160040161431f565b60e060405180830381600087803b15801561268a57600080fd5b505af115801561269e573d6000803e3d6000fd5b505050506040513d601f19601f820116820180604052508101906126c29190613b18565b610135546101365460a08301519293506001600160a01b039182169263874044f392909116906126f190612cba565b6040518363ffffffff1660e01b815260040161270e929190613c72565b600060405180830381600087803b15801561272857600080fd5b505af115801561273c573d6000803e3d6000fd5b5050610135548551602080880151865191870151604051633c9b5ad160e01b81526001600160a01b039095169650633c9b5ad1955061278094919291600401613c13565b6040805180830381600087803b15801561279957600080fd5b505af11580156127ad573d6000803e3d6000fd5b505050506040513d601f19601f820116820180604052508101906127d1919061393f565b505060c08101511561291457610135548351602085015160c08401516040516376323d0960e11b81526001600160a01b039094169363ec647a129361281c9390929091600401613bef565b600060405180830381600087803b15801561283657600080fd5b505af115801561284a573d6000803e3d6000fd5b505050508260e0015180156128e05750610131546001600160a01b031663a2495a96612874612b4a565b6040518263ffffffff1660e01b81526004016128909190613bc1565b60206040518083038186803b1580156128a857600080fd5b505afa1580156128bc573d6000803e3d6000fd5b505050506040513d601f19601f820116820180604052508101906128e0919061390b565b806128f8575060006128f584600001516112d4565b12155b6129145760405162461bcd60e51b815260040161040990613f2c565b826080015161292857825161292890612f4a565b610135548351602085015160405163d50d01b760e01b81526000936001600160a01b03169263d50d01b79261295f92600401613bd5565b60206040518083038186803b15801561297757600080fd5b505afa15801561298b573d6000803e3d6000fd5b505050506040513d601f19601f820116820180604052508101906129af9190613927565b61013354602086015160405163175be70560e21b81529293506000926001600160a01b0390921691635d6f9c14916129e991600401613bc1565b60206040518083038186803b158015612a0157600080fd5b505afa158015612a15573d6000803e3d6000fd5b505050506040513d601f19601f82011682018060405250810190612a399190613927565b905084602001516001600160a01b031685600001516001600160a01b03167f968bc4f738eae0486dc6736c4b427dbafa4acfdf6eaf223337791ddeb3a56247856040015186606001518760800151878960c0015188604051612aa096959493929190613cd8565b60405180910390a3610135548551602087015160405163fa8e30af60e01b81526001600160a01b039093169263fa8e30af92612ae0929091600401613bd5565b600060405180830381600087803b158015612afa57600080fd5b505af1158015612b0e573d6000803e3d6000fd5b5094979650505050505050565b600080821215612b3b57612b36612b3183613163565b613191565b612b44565b612b4482613191565b92915050565b6000612b546131b3565b905090565b612b6161361d565b610135548251602084015160405163165c4e2960e31b81526000936001600160a01b03169263b2e2714892612b9892600401613bd5565b60206040518083038186803b158015612bb057600080fd5b505afa158015612bc4573d6000803e3d6000fd5b505050506040513d601f19601f82011682018060405250810190612be89190613927565b905080612c075760405162461bcd60e51b815260040161040990613f8d565b60008082139050612c8260405180610100016040528086600001516001600160a01b0316815260200186602001516001600160a01b031681526020016001151581526020018315158152602001600115158152602001612c6685612b1b565b81526040808801516020830152606088015115159101526125e3565b949350505050565b6000612c9f838362ffffff16620f42406131e3565b9392505050565b6000612cb182612cba565b612b449061464d565b60006001600160ff1b03821115612ce35760405162461bcd60e51b8152600401610409906140de565b5090565b61013254604051633ffd130360e01b81526000916001600160a01b031690633ffd130390612d1b9086908690600401613c8b565b60206040518083038186803b158015612d3357600080fd5b505afa158015612d47573d6000803e3d6000fd5b505050506040513d601f19601f82011682018060405250810190612c9f9190613927565b6000808260600151600014612e2a576101335460408051608080820183526001600160a01b03898116835288811660208401526060808901518486015291880151918301919091529151631393a46960e01b81529190921691631393a46991612dd79190600401614282565b60206040518083038186803b158015612def57600080fd5b505afa158015612e03573d6000803e3d6000fd5b505050506040513d601f19601f82011682018060405250810190612e279190613927565b90505b610135546060840151608085015160408601516001600160a01b03909316926389f9217792899289928790612e5e90612cba565b6040518763ffffffff1660e01b8152600401612e7f96959493929190613c3c565b600060405180830381600087803b158015612e9957600080fd5b505af1158015612ead573d6000803e3d6000fd5b5092979650505050505050565b612ec26114c6565b612ede5760405162461bcd60e51b815260040161040990613e18565b6099805460ff191690557f5db9ee0a495bf2e6ff9c91a7834c1ba4fdd244a5e8aa4e537bd38aeae4b073aa612f11612b4a565b604051612f1e9190613bc1565b60405180910390a1565b6000612f3582601261460f565b612f4090600a61447c565b612c9f908461454d565b6000612f9f8261013160009054906101000a90046001600160a01b03166001600160a01b031663543ce73a6040518163ffffffff1660e01b815260040160206040518083038186803b158015610cca57600080fd5b1215612fbd5760405162461bcd60e51b815260040161040990613e88565b50565b612fc86114c6565b15612fe55760405162461bcd60e51b815260040161040990613fad565b6099805460ff191660011790557f62e78cea01bee320cd4e420270b5ea74000d11b0c9f74754ebdbfc544b05a258612f11612b4a565b3b151590565b600054610100900460ff168061303a575060005460ff16155b6130565760405162461bcd60e51b81526004016104099061402c565b600054610100900460ff16158015613081576000805460ff1961ff0019909116610100171660011790555b6130896132a9565b8015612fbd576000805461ff001916905550565b600054610100900460ff16806130b6575060005460ff16155b6130d25760405162461bcd60e51b81526004016104099061402c565b600054610100900460ff161580156130fd576000805460ff1961ff0019909116610100171660011790555b613105613321565b6130896133f5565b60fd80546001600160a01b0319166001600160a01b0383161790556040517fa4388ecc389b1390354ae0c65a856c0d7dd4fb648419f5d3ac0b99e38f46fd1190613158908390613bc1565b60405180910390a150565b6000600160ff1b82136131885760405162461bcd60e51b81526004016104099061417c565b612b448261464d565b600080821215612ce35760405162461bcd60e51b815260040161040990613fd7565b6000601436108015906131ca57506131ca336112c0565b156131de575060131936013560601c610674565b503390565b60008080600019858709858702925082811083820303915050806000141561323057600084116132255760405162461bcd60e51b815260040161040990613d74565b508290049050612c9f565b80841161323c57600080fd5b6000848688096000868103871696879004966002600389028118808a02820302808a02820302808a02820302808a02820302808a02820302808a02909103029181900381900460010186841190950394909402919094039290920491909117919091029150509392505050565b600054610100900460ff16806132c2575060005460ff16155b6132de5760405162461bcd60e51b81526004016104099061402c565b600054610100900460ff16158015613309576000805460ff1961ff0019909116610100171660011790555b600180558015612fbd576000805461ff001916905550565b600054610100900460ff168061333a575060005460ff16155b6133565760405162461bcd60e51b81526004016104099061402c565b600054610100900460ff16158015613381576000805460ff1961ff0019909116610100171660011790555b613389613465565b6000613393612b4a565b606580546001600160a01b0319166001600160a01b038316908117909155604051919250906000907f8be0079c531659141344cd1fd0a4f28419497f9722a3daafe3b4186f6b6457e0908290a3508015612fbd576000805461ff001916905550565b600054610100900460ff168061340e575060005460ff16155b61342a5760405162461bcd60e51b81526004016104099061402c565b600054610100900460ff16158015613455576000805460ff1961ff0019909116610100171660011790555b61345d6134c9565b61308961353c565b600054610100900460ff168061347e575060005460ff16155b61349a5760405162461bcd60e51b81526004016104099061402c565b600054610100900460ff161580156134c5576000805460ff1961ff0019909116610100171660011790555b6130895b600054610100900460ff16806134e2575060005460ff16155b6134fe5760405162461bcd60e51b81526004016104099061402c565b600054610100900460ff16158015613089576000805460ff1961ff0019909116610100171660011790558015612fbd576000805461ff001916905550565b600054610100900460ff1680613555575060005460ff16155b6135715760405162461bcd60e51b81526004016104099061402c565b600054610100900460ff1615801561359c576000805460ff1961ff0019909116610100171660011790555b6099805460ff191690558015612fbd576000805461ff001916905550565b6040518060800160405280600081526020016000815260200160008152602001600081525090565b60405180606001604052806000815260200160008152602001600081525090565b604051806040016040528060008152602001600081525090565b6040518060e00160405280600081526020016000815260200160008152602001600081526020016000815260200160008152602001600081525090565b600060a0828403121561366b578081fd5b50919050565b600060e08284031215613682578081fd5b61368c60e06143c4565b9050813561369981614693565b815260208201356136a9816146a8565b602082015260408201356136bc816146a8565b80604083015250606082013560608201526080820135608082015260a082013560a082015260c082013560c082015292915050565b600060208284031215613702578081fd5b8135612c9f81614693565b60006020828403121561371e578081fd5b8151612c9f81614693565b6000806040838503121561373b578081fd5b823561374681614693565b9150602083013561375681614693565b809150509250929050565b60008060008060008060c08789031215613779578182fd5b863561378481614693565b9550602087013561379481614693565b945060408701356137a481614693565b935060608701356137b481614693565b925060808701356137c481614693565b915060a08701356137d481614693565b809150509295509295509295565b6000806000606084860312156137f6578081fd5b833561380181614693565b9250602084013561381181614693565b929592945050506040919091013590565b6000806101008385031215613835578182fd5b823561384081614693565b915061384f8460208501613671565b90509250929050565b6000602080838503121561386a578182fd5b825167ffffffffffffffff80821115613881578384fd5b818501915085601f830112613894578384fd5b8151818111156138a6576138a661467d565b83810291506138b68483016143c4565b8181528481019084860184860187018a10156138d0578788fd5b8795505b838610156138fe57805194506138e985614693565b848352600195909501949186019186016138d4565b5098975050505050505050565b60006020828403121561391c578081fd5b8151612c9f816146a8565b600060208284031215613938578081fd5b5051919050565b60008060408385031215613951578182fd5b505080516020909101519092909150565b600080600060608486031215613976578081fd5b8351925060208401519150604084015190509250925092565b60008082840360608112156139a2578283fd5b835192506040601f19820112156139b7578182fd5b506139c260406143c4565b6020840151815260408401516020820152809150509250929050565b600060a082840312156139ef578081fd5b612c9f838361365a565b600060808284031215613a0a578081fd5b613a1460806143c4565b825181526020830151602082015260408301516040820152606083015160608201528091505092915050565b60006080828403121561366b578081fd5b600060c08284031215613a62578081fd5b613a6c60c06143c4565b825181526020830151602082015260408301516040820152606083015160608201526080830151608082015260a083015160a08201528091505092915050565b600060e08284031215613abd578081fd5b612c9f8383613671565b600060a08284031215613ad8578081fd5b613ae260a06143c4565b82518152602083015160208201526040830151604082015260608301516060820152608083015160808201528091505092915050565b600060e08284031215613b29578081fd5b613b3360e06143c4565b825181526020830151602082015260408301516040820152606083015160608201526080830151608082015260a083015160a082015260c083015160c08201528091505092915050565b600060208284031215613b8e578081fd5b815162ffffff81168114612c9f578182fd5b600060208284031215613bb1578081fd5b815160ff81168114612c9f578182fd5b6001600160a01b0391909116815260200190565b6001600160a01b0392831681529116602082015260400190565b6001600160a01b039384168152919092166020820152604081019190915260600190565b6001600160a01b0394851681529290931660208301526040820152606081019190915260800190565b6001600160a01b03968716815294909516602085015260408401929092526060830152608082015260a081019190915260c00190565b6001600160a01b03929092168252602082015260400190565b6001600160a01b0392909216825262ffffff16602082015260400190565b901515815260200190565b90815260200190565b93845260208401929092526040830152606082015260800190565b958652602086019490945260408501929092526060840152608083015260a082015260c00190565b6000602080835283518082850152825b81811015613d2c57858101830151858201604001528201613d10565b81811115613d3d5783604083870101525b50601f01601f1916929092016040019392505050565b60208082526007908201526643485f504d4e4360c81b604082015260600190565b60208082526022908201527f64656e6f6d696e61746f72206d7573742062652067726561746572207468616e604082015261020360f41b606082015260800190565b60208082526008908201526708690bea2889c62760c31b604082015260600190565b602080825260069082015265534f5f434e4360d01b604082015260600190565b60208082526006908201526521a42fa2a0ab60d11b604082015260600190565b60208082526014908201527314185d5cd8589b194e881b9bdd081c185d5cd95960621b604082015260600190565b60208082526008908201526743485f4946414e4360c01b604082015260600190565b602080825260069082015265534f5f53414360d01b604082015260600190565b60208082526008908201526743485f4e4546434960c01b604082015260600190565b602080825260069082015265534f5f53414f60d01b604082015260600190565b60208082526007908201526643485f51414e4360c81b604082015260600190565b60208082526007908201526643485f4d544e4360c81b604082015260600190565b602080825260069082015265534f5f434e4f60d01b604082015260600190565b60208082526005908201526410d217d09160da1b604082015260600190565b60208082526007908201526643485f54464e4360c81b604082015260600190565b60208082526007908201526643485f43434e4360c81b604082015260600190565b602080825260069082015265043485f5053360d41b604082015260600190565b60208082526010908201526f14185d5cd8589b194e881c185d5cd95960821b604082015260600190565b6020808252818101527f53616665436173743a2076616c7565206d75737420626520706f736974697665604082015260600190565b6020808252600690820152654348565f544560d01b604082015260600190565b6020808252602e908201527f496e697469616c697a61626c653a20636f6e747261637420697320616c72656160408201526d191e481a5b9a5d1a585b1a5e995960921b606082015260800190565b60208082526007908201526643485f56414e4360c81b604082015260600190565b60208082526008908201526743485f434c57484f60c01b604082015260600190565b60208082526007908201526643485f4e45584f60c81b604082015260600190565b60208082526028908201527f53616665436173743a2076616c756520646f65736e27742066697420696e2061604082015267371034b73a191a9b60c11b606082015260800190565b6020808252600590820152640534f5f43360dc1b604082015260600190565b6020808252601f908201527f5265656e7472616e637947756172643a207265656e7472616e742063616c6c00604082015260600190565b60208082526021908201527f4661697274726164654d6174683a20696e76657273696f6e206f766572666c6f6040820152607760f81b606082015260800190565b60208082526007908201526643485f4c504e4360c81b604082015260600190565b6020808252600690820152650534f5f4e57360d41b604082015260600190565b81516001600160a01b0390811682526020808401519091168183015260408084015190830152606080840151908301526080808401519083015260a092830151805193830193909352919091015160c082015260e00190565b8151815260208083015190820152604080830151908201526060918201519181019190915260800190565b81516001600160a01b03908116825260208084015190911690820152604080830151908201526060918201519181019190915260800190565b81516001600160a01b0390811682526020808401519091169082015260408083015190820152606080830151908201526080918201519181019190915260a00190565b81518152602080830151908201526040918201519181019190915260600190565b81516001600160a01b0390811682526020808401519091169082015260408083015115159082015260608083015115159082015260808083015115159082015260a0828101519082015260c0918201519181019190915260e00190565b918252602082015260400190565b9283526020830191909152604082015260600190565b938452602084019290925260408301526001600160a01b0316606082015260800190565b604051601f8201601f1916810167ffffffffffffffff811182821017156143ed576143ed61467d565b604052919050565b600080821280156001600160ff1b038490038513161561441757614417614667565b600160ff1b839003841281161561443057614430614667565b50500190565b80825b60018086116144485750614473565b81870482111561445a5761445a614667565b8086161561446757918102915b9490941c938002614439565b94509492505050565b6000612c9f60001960ff85168460008261449857506001612c9f565b816144a557506000612c9f565b81600181146144bb57600281146144c5576144f2565b6001915050612c9f565b60ff8411156144d6576144d6614667565b6001841b9150848211156144ec576144ec614667565b50612c9f565b5060208310610133831016604e8410600b8410161715614525575081810a8381111561452057614520614667565b612c9f565b6145328484846001614436565b80860482111561454457614544614667565b02949350505050565b60006001600160ff1b038184138284138082168684048611161561457357614573614667565b600160ff1b8487128281168783058912161561459157614591614667565b8587129250878205871284841616156145ac576145ac614667565b878505871281841616156145c2576145c2614667565b505050929093029392505050565b60008083128015600160ff1b8501841216156145ee576145ee614667565b6001600160ff1b038401831381161561460957614609614667565b50500390565b600060ff821660ff84168082101561462957614629614667565b90039392505050565b600060001982141561464657614646614667565b5060010190565b6000600160ff1b82141561466357614663614667565b0390565b634e487b7160e01b600052601160045260246000fd5b634e487b7160e01b600052604160045260246000fd5b6001600160a01b0381168114612fbd57600080fd5b8015158114612fbd57600080fdfea26469706673582212205f0cad8f58d3197a126e33ede0f0e2ca4ce44bcd4645da27079d53c0a34295ec64736f6c63430008010033",
  "linkReferences": {},
  "deployedLinkReferences": {}
}