{
    "_format": "hh-sol-artifact-1",
    "contractName": "ClearingHouse",
    "sourceName": "contracts/clearinghouse/ClearingHouse.sol",
    "abi": [
        {
            "anonymous": false,
            "inputs": [
                {
                    "indexed": true,
                    "internalType": "address",
                    "name": "feeReceiver",
                    "type": "address"
                },
                {
                    "indexed": true,
                    "internalType": "address",
                    "name": "baseToken",
                    "type": "address"
                },
                {
                    "indexed": false,
                    "internalType": "uint256",
                    "name": "adminFee",
                    "type": "uint256"
                }
            ],
            "name": "AdminFeeSettled",
            "type": "event"
        },
        {
            "anonymous": false,
            "inputs": [
                {
                    "indexed": false,
                    "internalType": "address",
                    "name": "sender",
                    "type": "address"
                },
                {
                    "indexed": false,
                    "internalType": "uint256",
                    "name": "amountIn",
                    "type": "uint256"
                },
                {
                    "indexed": false,
                    "internalType": "uint256",
                    "name": "amountOut",
                    "type": "uint256"
                },
                {
                    "indexed": false,
                    "internalType": "uint256",
                    "name": "priceAfter",
                    "type": "uint256"
                }
            ],
            "name": "CalcPriceAfterSwap",
            "type": "event"
        },
        {
            "anonymous": false,
            "inputs": [
                {
                    "indexed": true,
                    "internalType": "address",
                    "name": "trader",
                    "type": "address"
                },
                {
                    "indexed": true,
                    "internalType": "address",
                    "name": "baseToken",
                    "type": "address"
                },
                {
                    "indexed": false,
                    "internalType": "int256",
                    "name": "fundingPayment",
                    "type": "int256"
                }
            ],
            "name": "FundingPaymentSettled",
            "type": "event"
        },
        {
            "anonymous": false,
            "inputs": [
                {
                    "indexed": true,
                    "internalType": "address",
                    "name": "maker",
                    "type": "address"
                },
                {
                    "indexed": true,
                    "internalType": "address",
                    "name": "baseToken",
                    "type": "address"
                },
                {
                    "indexed": true,
                    "internalType": "address",
                    "name": "quoteToken",
                    "type": "address"
                },
                {
                    "indexed": false,
                    "internalType": "int256",
                    "name": "base",
                    "type": "int256"
                },
                {
                    "indexed": false,
                    "internalType": "int256",
                    "name": "quote",
                    "type": "int256"
                },
                {
                    "indexed": false,
                    "internalType": "int256",
                    "name": "liquidity",
                    "type": "int256"
                }
            ],
            "name": "LiquidityChanged",
            "type": "event"
        },
        {
            "anonymous": false,
            "inputs": [
                {
                    "indexed": true,
                    "internalType": "address",
                    "name": "previousOwner",
                    "type": "address"
                },
                {
                    "indexed": true,
                    "internalType": "address",
                    "name": "newOwner",
                    "type": "address"
                }
            ],
            "name": "OwnershipTransferred",
            "type": "event"
        },
        {
            "anonymous": false,
            "inputs": [
                {
                    "indexed": false,
                    "internalType": "address",
                    "name": "account",
                    "type": "address"
                }
            ],
            "name": "Paused",
            "type": "event"
        },
        {
            "anonymous": false,
            "inputs": [
                {
                    "indexed": true,
                    "internalType": "address",
                    "name": "trader",
                    "type": "address"
                },
                {
                    "indexed": true,
                    "internalType": "address",
                    "name": "baseToken",
                    "type": "address"
                },
                {
                    "indexed": false,
                    "internalType": "int256",
                    "name": "exchangedPositionSize",
                    "type": "int256"
                },
                {
                    "indexed": false,
                    "internalType": "int256",
                    "name": "exchangedPositionNotional",
                    "type": "int256"
                },
                {
                    "indexed": false,
                    "internalType": "int256",
                    "name": "openNotional",
                    "type": "int256"
                },
                {
                    "indexed": false,
                    "internalType": "int256",
                    "name": "realizedPnl",
                    "type": "int256"
                },
                {
                    "indexed": false,
                    "internalType": "uint256",
                    "name": "priceAfter",
                    "type": "uint256"
                },
                {
                    "indexed": false,
                    "internalType": "uint256",
                    "name": "adminFee",
                    "type": "uint256"
                },
                {
                    "indexed": false,
                    "internalType": "uint256",
                    "name": "exchangeFee",
                    "type": "uint256"
                }
            ],
            "name": "PositionChanged",
            "type": "event"
        },
        {
            "anonymous": false,
            "inputs": [
                {
                    "indexed": true,
                    "internalType": "address",
                    "name": "trader",
                    "type": "address"
                },
                {
                    "indexed": true,
                    "internalType": "address",
                    "name": "baseToken",
                    "type": "address"
                },
                {
                    "indexed": false,
                    "internalType": "uint256",
                    "name": "positionNotional",
                    "type": "uint256"
                },
                {
                    "indexed": false,
                    "internalType": "uint256",
                    "name": "positionSize",
                    "type": "uint256"
                },
                {
                    "indexed": false,
                    "internalType": "uint256",
                    "name": "liquidationFee",
                    "type": "uint256"
                },
                {
                    "indexed": false,
                    "internalType": "address",
                    "name": "liquidator",
                    "type": "address"
                }
            ],
            "name": "PositionLiquidated",
            "type": "event"
        },
        {
            "anonymous": false,
            "inputs": [
                {
                    "indexed": true,
                    "internalType": "bytes32",
                    "name": "referralCode",
                    "type": "bytes32"
                }
            ],
            "name": "ReferredPositionChanged",
            "type": "event"
        },
        {
            "anonymous": false,
            "inputs": [
                {
                    "indexed": true,
                    "internalType": "address",
                    "name": "forwarder",
                    "type": "address"
                }
            ],
            "name": "TrustedForwarderChanged",
            "type": "event"
        },
        {
            "anonymous": false,
            "inputs": [
                {
                    "indexed": false,
                    "internalType": "address",
                    "name": "trustedForwarder",
                    "type": "address"
                }
            ],
            "name": "TrustedForwarderUpdated",
            "type": "event"
        },
        {
            "anonymous": false,
            "inputs": [
                {
                    "indexed": false,
                    "internalType": "address",
                    "name": "account",
                    "type": "address"
                }
            ],
            "name": "Unpaused",
            "type": "event"
        },
        {
            "inputs": [
                {
                    "components": [
                        {
                            "internalType": "address",
                            "name": "baseToken",
                            "type": "address"
                        },
                        {
                            "internalType": "uint256",
                            "name": "base",
                            "type": "uint256"
                        },
                        {
                            "internalType": "uint256",
                            "name": "quote",
                            "type": "uint256"
                        },
                        {
                            "internalType": "uint256",
                            "name": "minLiquidity",
                            "type": "uint256"
                        },
                        {
                            "internalType": "uint256",
                            "name": "deadline",
                            "type": "uint256"
                        }
                    ],
                    "internalType": "struct IClearingHouse.AddLiquidityParams",
                    "name": "params",
                    "type": "tuple"
                }
            ],
            "name": "addLiquidity",
            "outputs": [
                {
                    "components": [
                        {
                            "internalType": "uint256",
                            "name": "base",
                            "type": "uint256"
                        },
                        {
                            "internalType": "uint256",
                            "name": "quote",
                            "type": "uint256"
                        },
                        {
                            "internalType": "uint256",
                            "name": "liquidity",
                            "type": "uint256"
                        }
                    ],
                    "internalType": "struct IClearingHouse.AddLiquidityResponse",
                    "name": "",
                    "type": "tuple"
                }
            ],
            "stateMutability": "nonpayable",
            "type": "function"
        },
        {
            "inputs": [
                {
                    "internalType": "address",
                    "name": "maker",
                    "type": "address"
                },
                {
                    "internalType": "address",
                    "name": "baseToken",
                    "type": "address"
                }
            ],
            "name": "cancelOpenOrder",
            "outputs": [],
            "stateMutability": "nonpayable",
            "type": "function"
        },
        {
            "inputs": [],
            "name": "candidate",
            "outputs": [
                {
                    "internalType": "address",
                    "name": "",
                    "type": "address"
                }
            ],
            "stateMutability": "view",
            "type": "function"
        },
        {
            "inputs": [
                {
                    "components": [
                        {
                            "internalType": "address",
                            "name": "baseToken",
                            "type": "address"
                        },
                        {
                            "internalType": "uint256",
                            "name": "amountLimit",
                            "type": "uint256"
                        },
                        {
                            "internalType": "uint256",
                            "name": "deadline",
                            "type": "uint256"
                        },
                        {
                            "internalType": "bytes32",
                            "name": "referralCode",
                            "type": "bytes32"
                        }
                    ],
                    "internalType": "struct IClearingHouse.ClosePositionParams",
                    "name": "params",
                    "type": "tuple"
                }
            ],
            "name": "closePosition",
            "outputs": [
                {
                    "internalType": "uint256",
                    "name": "base",
                    "type": "uint256"
                },
                {
                    "internalType": "uint256",
                    "name": "quote",
                    "type": "uint256"
                }
            ],
            "stateMutability": "nonpayable",
            "type": "function"
        },
        {
            "inputs": [
                {
                    "internalType": "address",
                    "name": "trader",
                    "type": "address"
                }
            ],
            "name": "getAccountValue",
            "outputs": [
                {
                    "internalType": "int256",
                    "name": "",
                    "type": "int256"
                }
            ],
            "stateMutability": "view",
            "type": "function"
        },
        {
            "inputs": [],
            "name": "getClearingHouseConfig",
            "outputs": [
                {
                    "internalType": "address",
                    "name": "",
                    "type": "address"
                }
            ],
            "stateMutability": "view",
            "type": "function"
        },
        {
            "inputs": [],
            "name": "getInsuranceFund",
            "outputs": [
                {
                    "internalType": "address",
                    "name": "",
                    "type": "address"
                }
            ],
            "stateMutability": "view",
            "type": "function"
        },
        {
            "inputs": [],
            "name": "getLiquidityProvider",
            "outputs": [
                {
                    "internalType": "address",
                    "name": "",
                    "type": "address"
                }
            ],
            "stateMutability": "view",
            "type": "function"
        },
        {
            "inputs": [],
            "name": "getMarketTaker",
            "outputs": [
                {
                    "internalType": "address",
                    "name": "",
                    "type": "address"
                }
            ],
            "stateMutability": "view",
            "type": "function"
        },
        {
            "inputs": [],
            "name": "getPositionMgmt",
            "outputs": [
                {
                    "internalType": "address",
                    "name": "",
                    "type": "address"
                }
            ],
            "stateMutability": "view",
            "type": "function"
        },
        {
            "inputs": [],
            "name": "getQuoteToken",
            "outputs": [
                {
                    "internalType": "address",
                    "name": "",
                    "type": "address"
                }
            ],
            "stateMutability": "view",
            "type": "function"
        },
        {
            "inputs": [],
            "name": "getTrustedForwarder",
            "outputs": [
                {
                    "internalType": "address",
                    "name": "",
                    "type": "address"
                }
            ],
            "stateMutability": "view",
            "type": "function"
        },
        {
            "inputs": [],
            "name": "getVault",
            "outputs": [
                {
                    "internalType": "address",
                    "name": "",
                    "type": "address"
                }
            ],
            "stateMutability": "view",
            "type": "function"
        },
        {
            "inputs": [
                {
                    "internalType": "address",
                    "name": "clearingHouseConfigArg",
                    "type": "address"
                },
                {
                    "internalType": "address",
                    "name": "vaultArg",
                    "type": "address"
                },
                {
                    "internalType": "address",
                    "name": "quoteTokenArg",
                    "type": "address"
                },
                {
                    "internalType": "address",
                    "name": "marketTakerArg",
                    "type": "address"
                },
                {
                    "internalType": "address",
                    "name": "positionMgmtArg",
                    "type": "address"
                },
                {
                    "internalType": "address",
                    "name": "insuranceFundArg",
                    "type": "address"
                }
            ],
            "name": "initialize",
            "outputs": [],
            "stateMutability": "nonpayable",
            "type": "function"
        },
        {
            "inputs": [
                {
                    "internalType": "address",
                    "name": "forwarder",
                    "type": "address"
                }
            ],
            "name": "isTrustedForwarder",
            "outputs": [
                {
                    "internalType": "bool",
                    "name": "",
                    "type": "bool"
                }
            ],
            "stateMutability": "view",
            "type": "function"
        },
        {
            "inputs": [
                {
                    "internalType": "address",
                    "name": "trader",
                    "type": "address"
                },
                {
                    "internalType": "address",
                    "name": "baseToken",
                    "type": "address"
                },
                {
                    "internalType": "uint256",
                    "name": "amountLimit",
                    "type": "uint256"
                }
            ],
            "name": "liquidate",
            "outputs": [],
            "stateMutability": "nonpayable",
            "type": "function"
        },
        {
            "inputs": [
                {
                    "components": [
                        {
                            "internalType": "address",
                            "name": "baseToken",
                            "type": "address"
                        },
                        {
                            "internalType": "bool",
                            "name": "baseToQuote",
                            "type": "bool"
                        },
                        {
                            "internalType": "bool",
                            "name": "exactInput",
                            "type": "bool"
                        },
                        {
                            "internalType": "uint256",
                            "name": "amount",
                            "type": "uint256"
                        },
                        {
                            "internalType": "uint256",
                            "name": "amountLimit",
                            "type": "uint256"
                        },
                        {
                            "internalType": "uint256",
                            "name": "deadline",
                            "type": "uint256"
                        },
                        {
                            "internalType": "bytes32",
                            "name": "referralCode",
                            "type": "bytes32"
                        }
                    ],
                    "internalType": "struct IClearingHouse.OpenPositionParams",
                    "name": "params",
                    "type": "tuple"
                }
            ],
            "name": "openPosition",
            "outputs": [
                {
                    "internalType": "uint256",
                    "name": "base",
                    "type": "uint256"
                },
                {
                    "internalType": "uint256",
                    "name": "quote",
                    "type": "uint256"
                }
            ],
            "stateMutability": "nonpayable",
            "type": "function"
        },
        {
            "inputs": [
                {
                    "internalType": "address",
                    "name": "trader",
                    "type": "address"
                },
                {
                    "components": [
                        {
                            "internalType": "address",
                            "name": "baseToken",
                            "type": "address"
                        },
                        {
                            "internalType": "bool",
                            "name": "baseToQuote",
                            "type": "bool"
                        },
                        {
                            "internalType": "bool",
                            "name": "exactInput",
                            "type": "bool"
                        },
                        {
                            "internalType": "uint256",
                            "name": "amount",
                            "type": "uint256"
                        },
                        {
                            "internalType": "uint256",
                            "name": "amountLimit",
                            "type": "uint256"
                        },
                        {
                            "internalType": "uint256",
                            "name": "deadline",
                            "type": "uint256"
                        },
                        {
                            "internalType": "bytes32",
                            "name": "referralCode",
                            "type": "bytes32"
                        }
                    ],
                    "internalType": "struct IClearingHouse.OpenPositionParams",
                    "name": "params",
                    "type": "tuple"
                }
            ],
            "name": "openPositionFor",
            "outputs": [
                {
                    "internalType": "uint256",
                    "name": "base",
                    "type": "uint256"
                },
                {
                    "internalType": "uint256",
                    "name": "quote",
                    "type": "uint256"
                },
                {
                    "internalType": "uint256",
                    "name": "adminFee",
                    "type": "uint256"
                },
                {
                    "internalType": "uint256",
                    "name": "exchangeFee",
                    "type": "uint256"
                }
            ],
            "stateMutability": "nonpayable",
            "type": "function"
        },
        {
            "inputs": [],
            "name": "owner",
            "outputs": [
                {
                    "internalType": "address",
                    "name": "",
                    "type": "address"
                }
            ],
            "stateMutability": "view",
            "type": "function"
        },
        {
            "inputs": [],
            "name": "pause",
            "outputs": [],
            "stateMutability": "nonpayable",
            "type": "function"
        },
        {
            "inputs": [],
            "name": "paused",
            "outputs": [
                {
                    "internalType": "bool",
                    "name": "",
                    "type": "bool"
                }
            ],
            "stateMutability": "view",
            "type": "function"
        },
        {
            "inputs": [
                {
                    "components": [
                        {
                            "internalType": "address",
                            "name": "baseToken",
                            "type": "address"
                        },
                        {
                            "internalType": "uint256",
                            "name": "liquidity",
                            "type": "uint256"
                        },
                        {
                            "internalType": "uint256",
                            "name": "minBase",
                            "type": "uint256"
                        },
                        {
                            "internalType": "uint256",
                            "name": "minQuote",
                            "type": "uint256"
                        },
                        {
                            "internalType": "uint256",
                            "name": "deadline",
                            "type": "uint256"
                        }
                    ],
                    "internalType": "struct IClearingHouse.RemoveLiquidityParams",
                    "name": "params",
                    "type": "tuple"
                }
            ],
            "name": "removeLiquidity",
            "outputs": [
                {
                    "components": [
                        {
                            "internalType": "uint256",
                            "name": "base",
                            "type": "uint256"
                        },
                        {
                            "internalType": "uint256",
                            "name": "quote",
                            "type": "uint256"
                        }
                    ],
                    "internalType": "struct IClearingHouse.RemoveLiquidityResponse",
                    "name": "",
                    "type": "tuple"
                }
            ],
            "stateMutability": "nonpayable",
            "type": "function"
        },
        {
            "inputs": [],
            "name": "renounceOwnership",
            "outputs": [],
            "stateMutability": "nonpayable",
            "type": "function"
        },
        {
            "inputs": [
                {
                    "internalType": "address",
                    "name": "newOwner",
                    "type": "address"
                }
            ],
            "name": "setOwner",
            "outputs": [],
            "stateMutability": "nonpayable",
            "type": "function"
        },
        {
            "inputs": [
                {
                    "internalType": "address",
                    "name": "trustedForwarderArg",
                    "type": "address"
                }
            ],
            "name": "setTrustedForwarder",
            "outputs": [],
            "stateMutability": "nonpayable",
            "type": "function"
        },
        {
            "inputs": [
                {
                    "internalType": "address",
                    "name": "trader",
                    "type": "address"
                }
            ],
            "name": "settleAllFunding",
            "outputs": [],
            "stateMutability": "nonpayable",
            "type": "function"
        },
        {
            "inputs": [
                {
                    "internalType": "address",
                    "name": "baseToken",
                    "type": "address"
                },
                {
                    "internalType": "uint256",
                    "name": "i",
                    "type": "uint256"
                },
                {
                    "internalType": "uint256",
                    "name": "j",
                    "type": "uint256"
                },
                {
                    "internalType": "uint256",
                    "name": "dx",
                    "type": "uint256"
                }
            ],
            "name": "simulatedSwap",
            "outputs": [
                {
                    "internalType": "uint256",
                    "name": "priceAfter",
                    "type": "uint256"
                },
                {
                    "internalType": "uint256",
                    "name": "amount0",
                    "type": "uint256"
                },
                {
                    "internalType": "uint256",
                    "name": "amount1",
                    "type": "uint256"
                }
            ],
            "stateMutability": "nonpayable",
            "type": "function"
        },
        {
            "inputs": [],
            "name": "unpause",
            "outputs": [],
            "stateMutability": "nonpayable",
            "type": "function"
        },
        {
            "inputs": [],
            "name": "updateOwner",
            "outputs": [],
            "stateMutability": "nonpayable",
            "type": "function"
        },
        {
            "inputs": [],
            "name": "versionRecipient",
            "outputs": [
                {
                    "internalType": "string",
                    "name": "",
                    "type": "string"
                }
            ],
            "stateMutability": "pure",
            "type": "function"
        }
    ],
    "bytecode": "0x608060405234801561001057600080fd5b506148e4806100206000396000f3fe608060405234801561001057600080fd5b50600436106101da5760003560e01c80636c8381f811610104578063aa2a8294116100a2578063ce1b815f11610071578063ce1b815f146103b9578063da742228146103c1578063e2a72cce146103d4578063eb9b912e146103dc576101da565b8063aa2a829414610376578063bc5920ba1461037e578063c2fdd42f14610386578063cc2a9a5b146103a6576101da565b80638456cb59116100de5780638456cb59146103565780638d928af81461035e5780638da5cb5b146103665780638e8499ba1461036e576101da565b80636c8381f814610326578063715018a61461032e5780637f2bd08f14610336576101da565b80633f4ba83a1161017c57806355338fc11161014b57806355338fc1146102d6578063572b6c05146102de5780635ae80951146102fe5780635c975abb1461031e576101da565b80633f4ba83a1461028f578063486ff0cd1461029757806349cf2a61146102ac5780634a64d67d146102ce576101da565b80631eaa33f3116101b85780631eaa33f31461023557806326c013031461025657806328d83466146102695780632bb6b86a1461027c576101da565b806309453d0c146101df57806313af40351461020b578063158626f714610220575b600080fd5b6101f26101ed3660046139e9565b6103ef565b60405161020294939291906145a1565b60405180910390f35b61021e6102193660046138b8565b61059c565b005b61022861067f565b6040516102029190613da4565b610248610243366004613c6c565b610690565b60405161020292919061456f565b61021e6102643660046139a9565b610867565b61021e6102773660046138f0565b610c3e565b61024861028a366004613c0a565b611114565b61021e61124d565b61029f611296565b6040516102029190613f07565b6102bf6102ba366004613a1f565b6112b5565b60405161020293929190613ec1565b6102286113b2565b6102286113c2565b6102f16102ec3660046138b8565b6113d2565b6040516102029190613ead565b61031161030c3660046138b8565b6113e6565b6040516102029190613eb8565b6102f16115bd565b6102286115c6565b61021e6115d5565b610349610344366004613bb2565b61166a565b604051610202919061445e565b61021e611949565b610228611990565b6102286119a0565b6102286119af565b6102286119bf565b61021e6119cf565b610399610394366004613bb2565b611a92565b60405161020291906144fb565b61021e6103b4366004613928565b611e69565b610228612241565b61021e6103cf3660046138b8565b612250565b6102286122fd565b61021e6103ea3660046138b8565b61230d565b6000806000806103fd6115bd565b156104235760405162461bcd60e51b815260040161041a906141b4565b60405180910390fd5b600260015414156104465760405162461bcd60e51b815260040161041a9061434c565b600260015560a0850151806104596123ed565b11156104775760405162461bcd60e51b815260040161041a90614213565b610135548651604051633f1cdc8560e21b81526001600160a01b039092169163fc737214916104ab918b9190600401613db8565b600060405180830381600087803b1580156104c557600080fd5b505af11580156104d9573d6000803e3d6000fd5b505050506104eb8787600001516123f1565b5060006105606040518061010001604052808a6001600160a01b0316815260200189600001516001600160a01b031681526020018960200151151581526020018960400151151581526020016000151581526020018960600151815260200189608001518152602001600015158152506125ae565b905061056f8160000151612b88565b61057c8260200151612b88565b60a083015160c09093015160018055919a90995091975095509350505050565b6105a4612bb7565b6001600160a01b03166105b56119a0565b6001600160a01b0316146105db5760405162461bcd60e51b815260040161041a90614113565b6001600160a01b0381166106015760405162461bcd60e51b815260040161041a906143e5565b6065546001600160a01b038281169116141561062f5760405162461bcd60e51b815260040161041a906140b1565b6066546001600160a01b038281169116141561065d5760405162461bcd60e51b815260040161041a9061406f565b606680546001600160a01b0319166001600160a01b0392909216919091179055565b610136546001600160a01b03165b90565b60008061069b6115bd565b156106b85760405162461bcd60e51b815260040161041a906141b4565b600260015414156106db5760405162461bcd60e51b815260040161041a9061434c565b600260015560a0830151806106ee6123ed565b111561070c5760405162461bcd60e51b815260040161041a90614213565b6000610716612bb7565b610135548651604051633f1cdc8560e21b81529293506001600160a01b039091169163fc7372149161074d91859190600401613db8565b600060405180830381600087803b15801561076757600080fd5b505af115801561077b573d6000803e3d6000fd5b5050505061078d8186600001516123f1565b506000610802604051806101000160405280846001600160a01b0316815260200188600001516001600160a01b031681526020018860200151151581526020018860400151151581526020016000151581526020018860600151815260200188608001518152602001600015158152506125ae565b60c08701519091501561083e5760c08601516040517f09a07769667a46c2b89124a4d731c76fb5203061073aec16319ba9c6a79a324890600090a25b805161084990612b88565b6108568260200151612b88565b600180559097909650945050505050565b61086f6115bd565b1561088c5760405162461bcd60e51b815260040161041a906141b4565b600260015414156108af5760405162461bcd60e51b815260040161041a9061434c565b60026001556101355460405163659e3dc760e11b81526001600160a01b039091169063cb3c7b8e906108e5908690600401613da4565b60206040518083038186803b1580156108fd57600080fd5b505afa158015610911573d6000803e3d6000fd5b505050506040513d601f19601f820116820180604052508101906109359190613b0c565b156109525760405162461bcd60e51b815260040161041a906142a2565b6101355460405163f75c266d60e01b81526001600160a01b039091169063f75c266d90610983908690600401613da4565b60206040518083038186803b15801561099b57600080fd5b505afa1580156109af573d6000803e3d6000fd5b505050506040513d601f19601f820116820180604052508101906109d39190613b28565b6109dc846113e6565b126109f95760405162461bcd60e51b815260040161041a90613fff565b610a0383836123f1565b506000610a446040518060800160405280866001600160a01b03168152602001856001600160a01b0316815260200184815260200160011515815250612bc6565b90506000610ae561013160009054906101000a90046001600160a01b03166001600160a01b031663fedf924b6040518163ffffffff1660e01b815260040160206040518083038186803b158015610a9a57600080fd5b505afa158015610aae573d6000803e3d6000fd5b505050506040513d601f19601f82011682018060405250810190610ad29190613d33565b610adf8460200151612b88565b90612d0e565b610135549091506001600160a01b031663874044f386610b0484612d23565b6040518363ffffffff1660e01b8152600401610b21929190613e50565b600060405180830381600087803b158015610b3b57600080fd5b505af1158015610b4f573d6000803e3d6000fd5b505050506000610b5d612bb7565b610135549091506001600160a01b031663874044f382610b7c85612d37565b6040518363ffffffff1660e01b8152600401610b99929190613e50565b600060405180830381600087803b158015610bb357600080fd5b505af1158015610bc7573d6000803e3d6000fd5b50505050846001600160a01b0316866001600160a01b03167fd9aced30440caca81570436bc942f816cfd95a3f08f700a2aeb6334c7cb5b497610c0d8660200151612b88565b8651610c1890612b88565b8686604051610c2a949392919061457d565b60405180910390a350506001805550505050565b610c466115bd565b15610c635760405162461bcd60e51b815260040161041a906141b4565b60026001541415610c865760405162461bcd60e51b815260040161041a9061434c565b60026001819055506000610d208361013160009054906101000a90046001600160a01b03166001600160a01b031663a85494026040518163ffffffff1660e01b815260040160206040518083038186803b158015610ce357600080fd5b505afa158015610cf7573d6000803e3d6000fd5b505050506040513d601f19601f82011682018060405250810190610d1b9190613d33565b612d64565b1280610db357506101355460405163f75c266d60e01b81526001600160a01b039091169063f75c266d90610d58908590600401613da4565b60206040518083038186803b158015610d7057600080fd5b505afa158015610d84573d6000803e3d6000fd5b505050506040513d601f19601f82011682018060405250810190610da89190613b28565b610db1836113e6565b125b610dcf5760405162461bcd60e51b815260040161041a906142c4565b610dd982826123f1565b50610134546040516385b0f96760e01b81526000916001600160a01b0316906385b0f96790610e0e9086908690600401613db8565b60a06040518083038186803b158015610e2657600080fd5b505afa158015610e3a573d6000803e3d6000fd5b505050506040513d601f19601f82011682018060405250810190610e5e9190613c1b565b610134546040805160a0810182526001600160a01b038781168252868116602083015284518284015260006060830181905260808301819052925163cd67005560e01b81529495509193919092169163cd67005591610ec091906004016144b8565b608060405180830381600087803b158015610eda57600080fd5b505af1158015610eee573d6000803e3d6000fd5b505050506040513d601f19601f82011682018060405250810190610f129190613c87565b6101305481519192506001600160a01b0390811691858216918716907f3fafa413f72659615af87212409788d1f1d6fa7a3a3fc3c3798b269188a4dfc690610f5990612d23565b610f668660200151612d23565b8751610f7190612d23565b604051610f8093929190613ec1565b60405180910390a46000610f95858584612de8565b6101355460405163d50d01b760e01b81529192506000916001600160a01b039091169063d50d01b790610fce9089908990600401613db8565b60206040518083038186803b158015610fe657600080fd5b505afa158015610ffa573d6000803e3d6000fd5b505050506040513d601f19601f8201168201806040525081019061101e9190613b28565b6101335460405163175be70560e21b81529192506000916001600160a01b0390911690635d6f9c1490611055908990600401613da4565b60206040518083038186803b15801561106d57600080fd5b505afa158015611081573d6000803e3d6000fd5b505050506040513d601f19601f820116820180604052508101906110a59190613b28565b9050856001600160a01b0316876001600160a01b03167f46d76a7acc977eb2d3c715c5c82a16ae288f4b85669352db47daf756face0ad2866040015187606001518688876000806040516110ff9796959493929190613ed7565b60405180910390a35050600180555050505050565b60008061111f6115bd565b1561113c5760405162461bcd60e51b815260040161041a906141b4565b6002600154141561115f5760405162461bcd60e51b815260040161041a9061434c565b60026001556040830135806111726123ed565b11156111905760405162461bcd60e51b815260040161041a90614213565b600061119a612bb7565b90506111b2816111ad60208801886138b8565b6123f1565b5060006112076040518060800160405280846001600160a01b031681526020018860000160208101906111e591906138b8565b6001600160a01b03168152602089810135908201526000604090910152612bc6565b905060608601351561083e576040516060870135907f09a07769667a46c2b89124a4d731c76fb5203061073aec16319ba9c6a79a324890600090a2805161084990612b88565b611255612bb7565b6001600160a01b03166112666119a0565b6001600160a01b03161461128c5760405162461bcd60e51b815260040161041a90614113565b611294612f1e565b565b6040805180820190915260058152640322e302e360dc1b602082015290565b60008060006112c687600019612f8c565b610133546040516349cf2a6160e01b8152600091829182916001600160a01b0316906349cf2a6190611302908d908d908d908d90600401613e87565b606060405180830381600087803b15801561131c57600080fd5b505af1158015611330573d6000803e3d6000fd5b505050506040513d601f19601f820116820180604052508101906113549190613d56565b9250925092506113658a6000612f8c565b7f1abc5f1f14a97c8e55a8966666cdf4d296c94262585acaf793912cbe9e6b38863383838660405161139a9493929190613e87565b60405180910390a19199909850909650945050505050565b610130546001600160a01b031690565b610133546001600160a01b031690565b60fd546001600160a01b0390811691161490565b610133546040516380f57f1160e01b815260009182916001600160a01b03909116906380f57f119061141c908690600401613da4565b60206040518083038186803b15801561143457600080fd5b505afa158015611448573d6000803e3d6000fd5b505050506040513d601f19601f8201168201806040525081019061146c9190613b28565b610135546040516313ea7c8960e01b815291925060009182916001600160a01b0316906313ea7c89906114a3908890600401613da4565b604080518083038186803b1580156114ba57600080fd5b505afa1580156114ce573d6000803e3d6000fd5b505050506040513d601f19601f820116820180604052508101906114f29190613b40565b6101325460405163f8b2cb4f60e01b8152929450909250600091611591916001600160a01b03169063f8b2cb4f9061152e908a90600401613da4565b60206040518083038186803b15801561154657600080fd5b505afa15801561155a573d6000803e3d6000fd5b505050506040513d601f19601f8201168201806040525081019061157e9190613b28565b61013054600160a01b900460ff16613117565b9050818461159f85846145ed565b6115a991906147c8565b6115b391906145ed565b9695505050505050565b60995460ff1690565b6066546001600160a01b031690565b6115dd612bb7565b6001600160a01b03166115ee6119a0565b6001600160a01b0316146116145760405162461bcd60e51b815260040161041a90614113565b6065546040516000916001600160a01b0316907f8be0079c531659141344cd1fd0a4f28419497f9722a3daafe3b4186f6b6457e0908390a3606580546001600160a01b0319908116909155606680549091169055565b6116726137a9565b61167a6115bd565b156116975760405162461bcd60e51b815260040161041a906141b4565b600260015414156116ba5760405162461bcd60e51b815260040161041a9061434c565b60026001556080820135806116cd6123ed565b11156116eb5760405162461bcd60e51b815260040161041a90614213565b60006116f5612bb7565b610135549091506001600160a01b031663fc7372148261171860208801886138b8565b6040518363ffffffff1660e01b8152600401611735929190613db8565b600060405180830381600087803b15801561174f57600080fd5b505af1158015611763573d6000803e3d6000fd5b506000925061177d91508390506111ad60208801886138b8565b905061179761178f60208701876138b8565b600019612f8c565b610134546040805160c081019091526001600160a01b0384811682526000921690639e8d4580906020808201906117d0908b018b6138b8565b6001600160a01b03168152602001896020013581526020018960400135815260200189606001358152602001858152506040518263ffffffff1660e01b815260040161181c9190614405565b606060405180830381600087803b15801561183657600080fd5b505af115801561184a573d6000803e3d6000fd5b505050506040513d601f19601f8201168201806040525081019061186e9190613bcd565b905061188761188060208801886138b8565b6000612f8c565b61189083613139565b610130546001600160a01b03166118aa60208801886138b8565b6001600160a01b0316846001600160a01b03167f3fafa413f72659615af87212409788d1f1d6fa7a3a3fc3c3798b269188a4dfc66118eb8560000151612d37565b6118f88660200151612d37565b6119058760400151612d37565b60405161191493929190613ec1565b60405180910390a460408051606081018252825181526020808401519082015291810151908201526001805595945050505050565b611951612bb7565b6001600160a01b03166119626119a0565b6001600160a01b0316146119885760405162461bcd60e51b815260040161041a90614113565b6112946131af565b610132546001600160a01b031690565b6065546001600160a01b031690565b610135546001600160a01b031690565b610131546001600160a01b031690565b6066546001600160a01b03166119f75760405162461bcd60e51b815260040161041a9061432d565b6119ff612bb7565b6066546001600160a01b03908116911614611a2c5760405162461bcd60e51b815260040161041a90613fdf565b6066546065546040516001600160a01b0392831692909116907f8be0079c531659141344cd1fd0a4f28419497f9722a3daafe3b4186f6b6457e090600090a360668054606580546001600160a01b03199081166001600160a01b03841617909155169055565b611a9a6137ca565b611aa26115bd565b15611abf5760405162461bcd60e51b815260040161041a906141b4565b60026001541415611ae25760405162461bcd60e51b815260040161041a9061434c565b6002600155608082013580611af56123ed565b1115611b135760405162461bcd60e51b815260040161041a90614213565b6000611b1d612bb7565b9050611b30816111ad60208701876138b8565b50610134546040805160a081019091526001600160a01b038381168252600092169063cd67005590602080820190611b6a908a018a6138b8565b6001600160a01b03168152602001886020013581526020018860400135815260200188606001358152506040518263ffffffff1660e01b8152600401611bb091906144b8565b608060405180830381600087803b158015611bca57600080fd5b505af1158015611bde573d6000803e3d6000fd5b505050506040513d601f19601f82011682018060405250810190611c029190613c87565b90506000611c1d83611c1760208901896138b8565b84612de8565b610130549091506001600160a01b0316611c3a60208801886138b8565b6001600160a01b0316846001600160a01b03167f3fafa413f72659615af87212409788d1f1d6fa7a3a3fc3c3798b269188a4dfc6611c7b8660000151612d23565b611c888760200151612d23565b611c958c60200135612d23565b604051611ca493929190613ec1565b60405180910390a4610135546000906001600160a01b031663d50d01b785611ccf60208b018b6138b8565b6040518363ffffffff1660e01b8152600401611cec929190613db8565b60206040518083038186803b158015611d0457600080fd5b505afa158015611d18573d6000803e3d6000fd5b505050506040513d601f19601f82011682018060405250810190611d3c9190613b28565b610133549091506000906001600160a01b0316635d6f9c14611d6160208b018b6138b8565b6040518263ffffffff1660e01b8152600401611d7d9190613da4565b60206040518083038186803b158015611d9557600080fd5b505afa158015611da9573d6000803e3d6000fd5b505050506040513d601f19601f82011682018060405250810190611dcd9190613b28565b9050611ddc60208901896138b8565b6001600160a01b0316856001600160a01b03167f46d76a7acc977eb2d3c715c5c82a16ae288f4b85669352db47daf756face0ad286604001518760600151868887600080604051611e339796959493929190613ed7565b60405180910390a36040518060400160405280856000015181526020018560200151815250965050505050505060018055919050565b600054610100900460ff1680611e82575060005460ff16155b611e9e5760405162461bcd60e51b815260040161041a90614233565b600054610100900460ff16158015611ec9576000805460ff1961ff0019909116610100171660011790555b611edb866001600160a01b031661320a565b611ef75760405162461bcd60e51b815260040161041a90614281565b611f09856001600160a01b031661320a565b611f255760405162461bcd60e51b815260040161041a906140d1565b846001600160a01b031663313ce5676040518163ffffffff1660e01b815260040160206040518083038186803b158015611f5e57600080fd5b505afa158015611f72573d6000803e3d6000fd5b505050506040513d601f19601f82011682018060405250810190611f969190613d83565b60ff16601214611fb85760405162461bcd60e51b815260040161041a90613fbd565b611fca876001600160a01b031661320a565b611fe65760405162461bcd60e51b815260040161041a90614173565b611ff8836001600160a01b031661320a565b6120145760405162461bcd60e51b815260040161041a90613f5a565b612026846001600160a01b031661320a565b6120425760405162461bcd60e51b815260040161041a906140f2565b612054826001600160a01b031661320a565b6120705760405162461bcd60e51b815260040161041a9061404d565b6000846001600160a01b031663e2a72cce6040518163ffffffff1660e01b815260040160206040518083038186803b1580156120ab57600080fd5b505afa1580156120bf573d6000803e3d6000fd5b505050506040513d601f19601f820116820180604052508101906120e391906138d4565b90506120f7816001600160a01b031661320a565b6121135760405162461bcd60e51b815260040161041a906143c4565b61211b613210565b61212361328c565b61013180546001600160a01b03199081166001600160a01b038b811691909117909255610132805482168a84161790819055610130805483168a85161790556101338054831689851617905561013480548316858516179055610135805483168885161790556101368054909216868416179091556040805163313ce56760e01b81529051919092169163313ce567916004808301926020929190829003018186803b1580156121d257600080fd5b505afa1580156121e6573d6000803e3d6000fd5b505050506040513d601f19601f8201168201806040525081019061220a9190613d83565b61013060146101000a81548160ff021916908360ff160217905550508015612238576000805461ff00191690555b50505050505050565b60fd546001600160a01b031690565b612258612bb7565b6001600160a01b03166122696119a0565b6001600160a01b03161461228f5760405162461bcd60e51b815260040161041a90614113565b6122a1816001600160a01b031661320a565b6122bd5760405162461bcd60e51b815260040161041a90614152565b6122c6816132fc565b6040516001600160a01b038216907f871264f4293af7d2865ae7eae628b228f4991c57cb45b39c99f0b774ebe2901890600090a250565b610134546001600160a01b031690565b610135546040516357ba739b60e11b81526000916001600160a01b03169063af74e7369061233f908590600401613da4565b60006040518083038186803b15801561235757600080fd5b505afa15801561236b573d6000803e3d6000fd5b505050506040513d6000823e601f3d908101601f191682016040526123939190810190613a59565b805190915060005b818110156123e7576123d4848483815181106123c757634e487b7160e01b600052603260045260246000fd5b60200260200101516123f1565b50806123df8161482a565b91505061239b565b50505050565b4290565b6123f96137ca565b61013354604051631e81ac3360e01b81526000916001600160a01b031690631e81ac339061242d9087908790600401613db8565b606060405180830381600087803b15801561244757600080fd5b505af115801561245b573d6000803e3d6000fd5b505050506040513d601f19601f8201168201806040525081019061247f9190613b63565b92509050801561254057610135546001600160a01b031663874044f3856124a584613352565b6040518363ffffffff1660e01b81526004016124c2929190613e50565b600060405180830381600087803b1580156124dc57600080fd5b505af11580156124f0573d6000803e3d6000fd5b50505050826001600160a01b0316846001600160a01b03167f733330d4aad1a878654bf888817b79bc6478013399be29fa3b8845c81305249e836040516125379190613eb8565b60405180910390a35b610135548251604051632e4586c360e01b81526001600160a01b0390921691632e4586c3916125759188918891600401613dd2565b600060405180830381600087803b15801561258f57600080fd5b505af11580156125a3573d6000803e3d6000fd5b505050505092915050565b6125b66137e4565b6125c68260200151600019612f8c565b610133546040805160e08101825284516001600160a01b0390811682526020808701518216908301528583015115158284015260608087015115159083015260808087015115159083015260a0808701519083015260c0808701519083015291516326a26b1160e21b81526000939290921691639a89ac449161264b91600401614512565b60e060405180830381600087803b15801561266557600080fd5b505af1158015612679573d6000803e3d6000fd5b505050506040513d601f19601f8201168201806040525081019061269d9190613cce565b90506126ae83602001516000612f8c565b610135548351602080860151845191850151604051633c9b5ad160e01b81526001600160a01b0390951694633c9b5ad1946126f0949093929091600401613df6565b6040805180830381600087803b15801561270957600080fd5b505af115801561271d573d6000803e3d6000fd5b505050506040513d601f19601f820116820180604052508101906127419190613b40565b5050610133546040805163803841b760e01b815290516000926001600160a01b03169163803841b7916004808301926020929190829003018186803b15801561278957600080fd5b505afa15801561279d573d6000803e3d6000fd5b505050506040513d601f19601f820116820180604052508101906127c191906138d4565b6101355460a08401519192506001600160a01b03169063874044f39083906127e890612d37565b6040518363ffffffff1660e01b8152600401612805929190613e50565b600060405180830381600087803b15801561281f57600080fd5b505af1158015612833573d6000803e3d6000fd5b50505050816080015160001461297a57610135548451602086015160808501516040516376323d0960e11b81526001600160a01b039094169363ec647a12936128829390929091600401613dd2565b600060405180830381600087803b15801561289c57600080fd5b505af11580156128b0573d6000803e3d6000fd5b505050508360e0015180156129465750610131546001600160a01b031663a2495a966128da612bb7565b6040518263ffffffff1660e01b81526004016128f69190613da4565b60206040518083038186803b15801561290e57600080fd5b505afa158015612922573d6000803e3d6000fd5b505050506040513d601f19601f820116820180604052508101906129469190613b0c565b8061295e5750600061295b85600001516113e6565b12155b61297a5760405162461bcd60e51b815260040161041a90614133565b836080015161298e57835161298e90613139565b610135548451602086015160405163d50d01b760e01b81526000936001600160a01b03169263d50d01b7926129c592600401613db8565b60206040518083038186803b1580156129dd57600080fd5b505afa1580156129f1573d6000803e3d6000fd5b505050506040513d601f19601f82011682018060405250810190612a159190613b28565b61013354602087015160405163175be70560e21b81529293506000926001600160a01b0390921691635d6f9c1491612a4f91600401613da4565b60206040518083038186803b158015612a6757600080fd5b505afa158015612a7b573d6000803e3d6000fd5b505050506040513d601f19601f82011682018060405250810190612a9f9190613b28565b905085602001516001600160a01b031686600001516001600160a01b03167f46d76a7acc977eb2d3c715c5c82a16ae288f4b85669352db47daf756face0ad286604001518760600151868960800151878b60a001518c60c00151604051612b0c9796959493929190613ed7565b60405180910390a3610135548651602088015160405163fa8e30af60e01b81526001600160a01b039093169263fa8e30af92612b4c929091600401613db8565b600060405180830381600087803b158015612b6657600080fd5b505af1158015612b7a573d6000803e3d6000fd5b509598975050505050505050565b600080821215612ba857612ba3612b9e83613352565b613380565b612bb1565b612bb182613380565b92915050565b6000612bc16133a2565b905090565b612bce6137e4565b610135548251602084015160405163165c4e2960e31b81526000936001600160a01b03169263b2e2714892612c0592600401613db8565b60206040518083038186803b158015612c1d57600080fd5b505afa158015612c31573d6000803e3d6000fd5b505050506040513d601f19601f82011682018060405250810190612c559190613b28565b905080612c745760405162461bcd60e51b815260040161041a90614194565b612d0760405180610100016040528085600001516001600160a01b0316815260200185602001516001600160a01b0316815260200160008413612cb8576000612cbb565b60015b1515815260200160008413612cd1576000612cd4565b60015b1515815260016020820152604001612ceb84612b88565b81526040808701516020830152606087015115159101526125ae565b9392505050565b6000612d07838362ffffff16620f42406133d2565b6000612d2e82612d37565b612bb190614845565b60006001600160ff1b03821115612d605760405162461bcd60e51b815260040161041a906142e5565b5090565b61013254604051633ffd130360e01b81526000916001600160a01b031690633ffd130390612d989086908690600401613e69565b60206040518083038186803b158015612db057600080fd5b505afa158015612dc4573d6000803e3d6000fd5b505050506040513d601f19601f82011682018060405250810190612d079190613b28565b6000808260400151600014612ea35761013354604080516080810182526001600160a01b03888116825287811660208301528683015182840152606080880151908301529151631393a46960e01b81529190921691631393a46991612e50919060040161447f565b60206040518083038186803b158015612e6857600080fd5b505afa158015612e7c573d6000803e3d6000fd5b505050506040513d601f19601f82011682018060405250810190612ea09190613b28565b90505b610135546040808501516060860151915163057ec13960e01b81526001600160a01b039093169263057ec13992612ee3928a928a92908890600401613e1f565b600060405180830381600087803b158015612efd57600080fd5b505af1158015612f11573d6000803e3d6000fd5b5092979650505050505050565b612f266115bd565b612f425760405162461bcd60e51b815260040161041a9061401f565b6099805460ff191690557f5db9ee0a495bf2e6ff9c91a7834c1ba4fdd244a5e8aa4e537bd38aeae4b073aa612f75612bb7565b604051612f829190613da4565b60405180910390a1565b6101335460405163bbe4f6db60e01b81526000916001600160a01b03169063bbe4f6db90612fbe908690600401613da4565b60206040518083038186803b158015612fd657600080fd5b505afa158015612fea573d6000803e3d6000fd5b505050506040513d601f19601f8201168201806040525081019061300e91906138d4565b60405163095ea7b360e01b81529091506001600160a01b0384169063095ea7b39061303f9084908690600401613e50565b602060405180830381600087803b15801561305957600080fd5b505af115801561306d573d6000803e3d6000fd5b505050506040513d601f19601f820116820180604052508101906130919190613b0c565b506101305460405163095ea7b360e01b81526001600160a01b039091169063095ea7b3906130c59084908690600401613e50565b602060405180830381600087803b1580156130df57600080fd5b505af11580156130f3573d6000803e3d6000fd5b505050506040513d601f19601f820116820180604052508101906123e79190613b0c565b6000613124826012614807565b61312f90600a614674565b612d079084614745565b600061318e8261013160009054906101000a90046001600160a01b03166001600160a01b031663543ce73a6040518163ffffffff1660e01b815260040160206040518083038186803b158015610ce357600080fd5b12156131ac5760405162461bcd60e51b815260040161041a9061408f565b50565b6131b76115bd565b156131d45760405162461bcd60e51b815260040161041a906141b4565b6099805460ff191660011790557f62e78cea01bee320cd4e420270b5ea74000d11b0c9f74754ebdbfc544b05a258612f75612bb7565b3b151590565b600054610100900460ff1680613229575060005460ff16155b6132455760405162461bcd60e51b815260040161041a90614233565b600054610100900460ff16158015613270576000805460ff1961ff0019909116610100171660011790555b613278613498565b80156131ac576000805461ff001916905550565b600054610100900460ff16806132a5575060005460ff16155b6132c15760405162461bcd60e51b815260040161041a90614233565b600054610100900460ff161580156132ec576000805460ff1961ff0019909116610100171660011790555b6132f4613510565b6132786135e4565b60fd80546001600160a01b0319166001600160a01b0383161790556040517fa4388ecc389b1390354ae0c65a856c0d7dd4fb648419f5d3ac0b99e38f46fd1190613347908390613da4565b60405180910390a150565b6000600160ff1b82136133775760405162461bcd60e51b815260040161041a90614383565b612bb182614845565b600080821215612d605760405162461bcd60e51b815260040161041a906141de565b6000601436108015906133b957506133b9336113d2565b156133cd575060131936013560601c61068d565b503390565b60008080600019858709858702925082811083820303915050806000141561341f57600084116134145760405162461bcd60e51b815260040161041a90613f7b565b508290049050612d07565b80841161342b57600080fd5b6000848688096000868103871696879004966002600389028118808a02820302808a02820302808a02820302808a02820302808a02820302808a02909103029181900381900460010186841190950394909402919094039290920491909117919091029150509392505050565b600054610100900460ff16806134b1575060005460ff16155b6134cd5760405162461bcd60e51b815260040161041a90614233565b600054610100900460ff161580156134f8576000805460ff1961ff0019909116610100171660011790555b6001805580156131ac576000805461ff001916905550565b600054610100900460ff1680613529575060005460ff16155b6135455760405162461bcd60e51b815260040161041a90614233565b600054610100900460ff16158015613570576000805460ff1961ff0019909116610100171660011790555b613578613654565b6000613582612bb7565b606580546001600160a01b0319166001600160a01b038316908117909155604051919250906000907f8be0079c531659141344cd1fd0a4f28419497f9722a3daafe3b4186f6b6457e0908290a35080156131ac576000805461ff001916905550565b600054610100900460ff16806135fd575060005460ff16155b6136195760405162461bcd60e51b815260040161041a90614233565b600054610100900460ff16158015613644576000805460ff1961ff0019909116610100171660011790555b61364c6136b8565b61327861372b565b600054610100900460ff168061366d575060005460ff16155b6136895760405162461bcd60e51b815260040161041a90614233565b600054610100900460ff161580156136b4576000805460ff1961ff0019909116610100171660011790555b6132785b600054610100900460ff16806136d1575060005460ff16155b6136ed5760405162461bcd60e51b815260040161041a90614233565b600054610100900460ff16158015613278576000805460ff1961ff00199091166101001716600117905580156131ac576000805461ff001916905550565b600054610100900460ff1680613744575060005460ff16155b6137605760405162461bcd60e51b815260040161041a90614233565b600054610100900460ff1615801561378b576000805460ff1961ff0019909116610100171660011790555b6099805460ff1916905580156131ac576000805461ff001916905550565b60405180606001604052806000815260200160008152602001600081525090565b604051806040016040528060008152602001600081525090565b6040518060e00160405280600081526020016000815260200160008152602001600081526020016000815260200160008152602001600081525090565b600060a08284031215613832578081fd5b50919050565b600060e08284031215613849578081fd5b61385360e06145bc565b905081356138608161488b565b81526020820135613870816148a0565b60208201526040820135613883816148a0565b80604083015250606082013560608201526080820135608082015260a082013560a082015260c082013560c082015292915050565b6000602082840312156138c9578081fd5b8135612d078161488b565b6000602082840312156138e5578081fd5b8151612d078161488b565b60008060408385031215613902578081fd5b823561390d8161488b565b9150602083013561391d8161488b565b809150509250929050565b60008060008060008060c08789031215613940578182fd5b863561394b8161488b565b9550602087013561395b8161488b565b9450604087013561396b8161488b565b9350606087013561397b8161488b565b9250608087013561398b8161488b565b915060a087013561399b8161488b565b809150509295509295509295565b6000806000606084860312156139bd578081fd5b83356139c88161488b565b925060208401356139d88161488b565b929592945050506040919091013590565b60008061010083850312156139fc578182fd5b8235613a078161488b565b9150613a168460208501613838565b90509250929050565b60008060008060808587031215613a34578182fd5b8435613a3f8161488b565b966020860135965060408601359560600135945092505050565b60006020808385031215613a6b578182fd5b825167ffffffffffffffff80821115613a82578384fd5b818501915085601f830112613a95578384fd5b815181811115613aa757613aa7614875565b8381029150613ab78483016145bc565b8181528481019084860184860187018a1015613ad1578788fd5b8795505b83861015613aff5780519450613aea8561488b565b84835260019590950194918601918601613ad5565b5098975050505050505050565b600060208284031215613b1d578081fd5b8151612d07816148a0565b600060208284031215613b39578081fd5b5051919050565b60008060408385031215613b52578182fd5b505080516020909101519092909150565b6000808284036060811215613b76578283fd5b835192506040601f1982011215613b8b578182fd5b50613b9660406145bc565b6020840151815260408401516020820152809150509250929050565b600060a08284031215613bc3578081fd5b612d078383613821565b600060608284031215613bde578081fd5b613be860606145bc565b8251815260208301516020820152604083015160408201528091505092915050565b600060808284031215613832578081fd5b600060a08284031215613c2c578081fd5b613c3660a06145bc565b82518152602083015160208201526040830151604082015260608301516060820152608083015160808201528091505092915050565b600060e08284031215613c7d578081fd5b612d078383613838565b600060808284031215613c98578081fd5b613ca260806145bc565b825181526020830151602082015260408301516040820152606083015160608201528091505092915050565b600060e08284031215613cdf578081fd5b613ce960e06145bc565b825181526020830151602082015260408301516040820152606083015160608201526080830151608082015260a083015160a082015260c083015160c08201528091505092915050565b600060208284031215613d44578081fd5b815162ffffff81168114612d07578182fd5b600080600060608486031215613d6a578081fd5b8351925060208401519150604084015190509250925092565b600060208284031215613d94578081fd5b815160ff81168114612d07578182fd5b6001600160a01b0391909116815260200190565b6001600160a01b0392831681529116602082015260400190565b6001600160a01b039384168152919092166020820152604081019190915260600190565b6001600160a01b0394851681529290931660208301526040820152606081019190915260800190565b6001600160a01b03958616815293909416602084015260408301919091526060820152608081019190915260a00190565b6001600160a01b03929092168252602082015260400190565b6001600160a01b0392909216825262ffffff16602082015260400190565b6001600160a01b0394909416845260208401929092526040830152606082015260800190565b901515815260200190565b90815260200190565b9283526020830191909152604082015260600190565b968752602087019590955260408601939093526060850191909152608084015260a083015260c082015260e00190565b6000602080835283518082850152825b81811015613f3357858101830151858201604001528201613f17565b81811115613f445783604083870101525b50601f01601f1916929092016040019392505050565b60208082526007908201526643485f504d4e4360c81b604082015260600190565b60208082526022908201527f64656e6f6d696e61746f72206d7573742062652067726561746572207468616e604082015261020360f41b606082015260800190565b60208082526008908201526708690bea2889c62760c31b604082015260600190565b602080825260069082015265534f5f434e4360d01b604082015260600190565b60208082526006908201526521a42fa2a0ab60d11b604082015260600190565b60208082526014908201527314185d5cd8589b194e881b9bdd081c185d5cd95960621b604082015260600190565b60208082526008908201526743485f4946414e4360c01b604082015260600190565b602080825260069082015265534f5f53414360d01b604082015260600190565b60208082526008908201526743485f4e4546434960c01b604082015260600190565b602080825260069082015265534f5f53414f60d01b604082015260600190565b60208082526007908201526643485f51414e4360c81b604082015260600190565b60208082526007908201526643485f4d544e4360c81b604082015260600190565b602080825260069082015265534f5f434e4f60d01b604082015260600190565b60208082526005908201526410d217d09160da1b604082015260600190565b60208082526007908201526643485f54464e4360c81b604082015260600190565b60208082526007908201526643485f43434e4360c81b604082015260600190565b602080825260069082015265043485f5053360d41b604082015260600190565b60208082526010908201526f14185d5cd8589b194e881c185d5cd95960821b604082015260600190565b6020808252818101527f53616665436173743a2076616c7565206d75737420626520706f736974697665604082015260600190565b6020808252600690820152654348565f544560d01b604082015260600190565b6020808252602e908201527f496e697469616c697a61626c653a20636f6e747261637420697320616c72656160408201526d191e481a5b9a5d1a585b1a5e995960921b606082015260800190565b60208082526007908201526643485f56414e4360c81b604082015260600190565b60208082526008908201526743485f434c57484f60c01b604082015260600190565b60208082526007908201526643485f4e45584f60c81b604082015260600190565b60208082526028908201527f53616665436173743a2076616c756520646f65736e27742066697420696e2061604082015267371034b73a191a9b60c11b606082015260800190565b6020808252600590820152640534f5f43360dc1b604082015260600190565b6020808252601f908201527f5265656e7472616e637947756172643a207265656e7472616e742063616c6c00604082015260600190565b60208082526021908201527f4661697274726164654d6174683a20696e76657273696f6e206f766572666c6f6040820152607760f81b606082015260800190565b60208082526007908201526643485f4c504e4360c81b604082015260600190565b6020808252600690820152650534f5f4e57360d41b604082015260600190565b81516001600160a01b0390811682526020808401519091168183015260408084015190830152606080840151908301526080808401519083015260a092830151805193830193909352919091015160c082015260e00190565b81518152602080830151908201526040918201519181019190915260600190565b81516001600160a01b03908116825260208084015190911690820152604080830151908201526060918201519181019190915260800190565b81516001600160a01b0390811682526020808401519091169082015260408083015190820152606080830151908201526080918201519181019190915260a00190565b815181526020918201519181019190915260400190565b81516001600160a01b0390811682526020808401519091169082015260408083015115159082015260608083015115159082015260808083015115159082015260a0828101519082015260c0918201519181019190915260e00190565b918252602082015260400190565b938452602084019290925260408301526001600160a01b0316606082015260800190565b93845260208401929092526040830152606082015260800190565b604051601f8201601f1916810167ffffffffffffffff811182821017156145e5576145e5614875565b604052919050565b600080821280156001600160ff1b038490038513161561460f5761460f61485f565b600160ff1b83900384128116156146285761462861485f565b50500190565b80825b6001808611614640575061466b565b8187048211156146525761465261485f565b8086161561465f57918102915b9490941c938002614631565b94509492505050565b6000612d0760001960ff85168460008261469057506001612d07565b8161469d57506000612d07565b81600181146146b357600281146146bd576146ea565b6001915050612d07565b60ff8411156146ce576146ce61485f565b6001841b9150848211156146e4576146e461485f565b50612d07565b5060208310610133831016604e8410600b841016171561471d575081810a838111156147185761471861485f565b612d07565b61472a848484600161462e565b80860482111561473c5761473c61485f565b02949350505050565b60006001600160ff1b038184138284138082168684048611161561476b5761476b61485f565b600160ff1b848712828116878305891216156147895761478961485f565b8587129250878205871284841616156147a4576147a461485f565b878505871281841616156147ba576147ba61485f565b505050929093029392505050565b60008083128015600160ff1b8501841216156147e6576147e661485f565b6001600160ff1b03840183138116156148015761480161485f565b50500390565b600060ff821660ff8416808210156148215761482161485f565b90039392505050565b600060001982141561483e5761483e61485f565b5060010190565b6000600160ff1b82141561485b5761485b61485f565b0390565b634e487b7160e01b600052601160045260246000fd5b634e487b7160e01b600052604160045260246000fd5b6001600160a01b03811681146131ac57600080fd5b80151581146131ac57600080fdfea264697066735822122081f4df361626ef69b328c6e2382a91e28eecf8f48fb3eb576888ce65cf616c7d64736f6c63430008010033",
    "linkReferences": {},
    "deployedLinkReferences": {}
}