{
    "_format": "hh-sol-artifact-1",
    "contractName": "FairtradeReader",
    "sourceName": "contracts/FairtradeReader.sol",
    "abi": [
        {
            "inputs": [
                {
                    "internalType": "address",
                    "name": "baseToken",
                    "type": "address"
                },
                {
                    "internalType": "uint256",
                    "name": "amount0Desired",
                    "type": "uint256"
                },
                {
                    "internalType": "uint256",
                    "name": "amount1Desired",
                    "type": "uint256"
                }
            ],
            "name": "calcLiquidityByTokenAmounts",
            "outputs": [
                {
                    "internalType": "uint256",
                    "name": "",
                    "type": "uint256"
                }
            ],
            "stateMutability": "view",
            "type": "function"
        },
        {
            "inputs": [
                {
                    "internalType": "address",
                    "name": "baseToken",
                    "type": "address"
                },
                {
                    "internalType": "uint256",
                    "name": "liquidity",
                    "type": "uint256"
                }
            ],
            "name": "calcTokenAmountsByLiquidity",
            "outputs": [
                {
                    "internalType": "uint256",
                    "name": "amount0",
                    "type": "uint256"
                },
                {
                    "internalType": "uint256",
                    "name": "amount1",
                    "type": "uint256"
                }
            ],
            "stateMutability": "view",
            "type": "function"
        },
        {
            "inputs": [
                {
                    "internalType": "address",
                    "name": "baseToken",
                    "type": "address"
                }
            ],
            "name": "find_pool",
            "outputs": [
                {
                    "internalType": "address",
                    "name": "",
                    "type": "address"
                }
            ],
            "stateMutability": "view",
            "type": "function"
        },
        {
            "inputs": [
                {
                    "internalType": "address",
                    "name": "trader",
                    "type": "address"
                },
                {
                    "internalType": "address",
                    "name": "baseToken",
                    "type": "address"
                }
            ],
            "name": "getAccountInfo",
            "outputs": [
                {
                    "components": [
                        {
                            "internalType": "int256",
                            "name": "takerPositionSize",
                            "type": "int256"
                        },
                        {
                            "internalType": "int256",
                            "name": "takerOpenNotional",
                            "type": "int256"
                        },
                        {
                            "internalType": "int256",
                            "name": "lastTwPremiumGrowthGlobal",
                            "type": "int256"
                        }
                    ],
                    "internalType": "struct Account.TakerInfo",
                    "name": "",
                    "type": "tuple"
                }
            ],
            "stateMutability": "view",
            "type": "function"
        },
        {
            "inputs": [
                {
                    "internalType": "address",
                    "name": "trader",
                    "type": "address"
                }
            ],
            "name": "getAccountValue",
            "outputs": [
                {
                    "internalType": "int256",
                    "name": "",
                    "type": "int256"
                }
            ],
            "stateMutability": "view",
            "type": "function"
        },
        {
            "inputs": [
                {
                    "internalType": "address",
                    "name": "_pool",
                    "type": "address"
                }
            ],
            "name": "getAdminFeeRatio",
            "outputs": [
                {
                    "internalType": "uint256",
                    "name": "",
                    "type": "uint256"
                }
            ],
            "stateMutability": "view",
            "type": "function"
        },
        {
            "inputs": [],
            "name": "getAdminFeeReceiver",
            "outputs": [
                {
                    "internalType": "address",
                    "name": "",
                    "type": "address"
                }
            ],
            "stateMutability": "view",
            "type": "function"
        },
        {
            "inputs": [
                {
                    "internalType": "address",
                    "name": "trader",
                    "type": "address"
                }
            ],
            "name": "getAllPendingFundingPayment",
            "outputs": [
                {
                    "internalType": "int256",
                    "name": "",
                    "type": "int256"
                }
            ],
            "stateMutability": "view",
            "type": "function"
        },
        {
            "inputs": [
                {
                    "internalType": "address",
                    "name": "baseToken",
                    "type": "address"
                }
            ],
            "name": "getAmmTwapInterval",
            "outputs": [
                {
                    "internalType": "uint256",
                    "name": "",
                    "type": "uint256"
                }
            ],
            "stateMutability": "view",
            "type": "function"
        },
        {
            "inputs": [
                {
                    "internalType": "address",
                    "name": "baseToken",
                    "type": "address"
                },
                {
                    "internalType": "uint256",
                    "name": "amount",
                    "type": "uint256"
                },
                {
                    "internalType": "bool",
                    "name": "baseToQuote",
                    "type": "bool"
                },
                {
                    "internalType": "bool",
                    "name": "exactInput",
                    "type": "bool"
                }
            ],
            "name": "getAmountOut",
            "outputs": [
                {
                    "internalType": "uint256",
                    "name": "",
                    "type": "uint256"
                },
                {
                    "internalType": "uint256",
                    "name": "",
                    "type": "uint256"
                }
            ],
            "stateMutability": "view",
            "type": "function"
        },
        {
            "inputs": [
                {
                    "internalType": "address",
                    "name": "account",
                    "type": "address"
                }
            ],
            "name": "getBalance",
            "outputs": [
                {
                    "internalType": "int256",
                    "name": "",
                    "type": "int256"
                }
            ],
            "stateMutability": "view",
            "type": "function"
        },
        {
            "inputs": [
                {
                    "internalType": "address",
                    "name": "baseToken",
                    "type": "address"
                },
                {
                    "internalType": "uint256",
                    "name": "i",
                    "type": "uint256"
                }
            ],
            "name": "getBalances",
            "outputs": [
                {
                    "internalType": "uint256",
                    "name": "",
                    "type": "uint256"
                }
            ],
            "stateMutability": "view",
            "type": "function"
        },
        {
            "inputs": [
                {
                    "internalType": "address",
                    "name": "trader",
                    "type": "address"
                },
                {
                    "internalType": "address",
                    "name": "baseToken",
                    "type": "address"
                }
            ],
            "name": "getBase",
            "outputs": [
                {
                    "internalType": "int256",
                    "name": "",
                    "type": "int256"
                }
            ],
            "stateMutability": "view",
            "type": "function"
        },
        {
            "inputs": [
                {
                    "internalType": "address",
                    "name": "trader",
                    "type": "address"
                }
            ],
            "name": "getBaseTokens",
            "outputs": [
                {
                    "internalType": "address[]",
                    "name": "",
                    "type": "address[]"
                }
            ],
            "stateMutability": "view",
            "type": "function"
        },
        {
            "inputs": [],
            "name": "getClearingHouse",
            "outputs": [
                {
                    "internalType": "address",
                    "name": "",
                    "type": "address"
                }
            ],
            "stateMutability": "view",
            "type": "function"
        },
        {
            "inputs": [],
            "name": "getClearingHouseConfig",
            "outputs": [
                {
                    "internalType": "address",
                    "name": "",
                    "type": "address"
                }
            ],
            "stateMutability": "view",
            "type": "function"
        },
        {
            "inputs": [
                {
                    "internalType": "address",
                    "name": "baseToken",
                    "type": "address"
                },
                {
                    "internalType": "uint256",
                    "name": "i",
                    "type": "uint256"
                }
            ],
            "name": "getCoins",
            "outputs": [
                {
                    "internalType": "address",
                    "name": "",
                    "type": "address"
                }
            ],
            "stateMutability": "view",
            "type": "function"
        },
        {
            "inputs": [
                {
                    "internalType": "address",
                    "name": "baseToken",
                    "type": "address"
                },
                {
                    "internalType": "uint256",
                    "name": "i",
                    "type": "uint256"
                },
                {
                    "internalType": "uint256",
                    "name": "j",
                    "type": "uint256"
                },
                {
                    "internalType": "uint256",
                    "name": "dy",
                    "type": "uint256"
                }
            ],
            "name": "getDx",
            "outputs": [
                {
                    "internalType": "uint256",
                    "name": "",
                    "type": "uint256"
                },
                {
                    "internalType": "uint256",
                    "name": "",
                    "type": "uint256"
                }
            ],
            "stateMutability": "view",
            "type": "function"
        },
        {
            "inputs": [
                {
                    "internalType": "address",
                    "name": "baseToken",
                    "type": "address"
                },
                {
                    "internalType": "uint256",
                    "name": "i",
                    "type": "uint256"
                },
                {
                    "internalType": "uint256",
                    "name": "j",
                    "type": "uint256"
                },
                {
                    "internalType": "uint256",
                    "name": "dx",
                    "type": "uint256"
                }
            ],
            "name": "getDy",
            "outputs": [
                {
                    "internalType": "uint256",
                    "name": "",
                    "type": "uint256"
                },
                {
                    "internalType": "uint256",
                    "name": "",
                    "type": "uint256"
                }
            ],
            "stateMutability": "view",
            "type": "function"
        },
        {
            "inputs": [],
            "name": "getFactory",
            "outputs": [
                {
                    "internalType": "address",
                    "name": "",
                    "type": "address"
                }
            ],
            "stateMutability": "view",
            "type": "function"
        },
        {
            "inputs": [],
            "name": "getFluctuationLimitRatio",
            "outputs": [
                {
                    "internalType": "uint24",
                    "name": "",
                    "type": "uint24"
                }
            ],
            "stateMutability": "view",
            "type": "function"
        },
        {
            "inputs": [
                {
                    "internalType": "address",
                    "name": "trader",
                    "type": "address"
                }
            ],
            "name": "getFreeCollateral",
            "outputs": [
                {
                    "internalType": "uint256",
                    "name": "",
                    "type": "uint256"
                }
            ],
            "stateMutability": "view",
            "type": "function"
        },
        {
            "inputs": [
                {
                    "internalType": "address",
                    "name": "trader",
                    "type": "address"
                },
                {
                    "internalType": "uint24",
                    "name": "ratio",
                    "type": "uint24"
                }
            ],
            "name": "getFreeCollateralByRatio",
            "outputs": [
                {
                    "internalType": "int256",
                    "name": "",
                    "type": "int256"
                }
            ],
            "stateMutability": "view",
            "type": "function"
        },
        {
            "inputs": [],
            "name": "getImRatio",
            "outputs": [
                {
                    "internalType": "uint24",
                    "name": "",
                    "type": "uint24"
                }
            ],
            "stateMutability": "view",
            "type": "function"
        },
        {
            "inputs": [],
            "name": "getInsuranceFund",
            "outputs": [
                {
                    "internalType": "address",
                    "name": "",
                    "type": "address"
                }
            ],
            "stateMutability": "view",
            "type": "function"
        },
        {
            "inputs": [],
            "name": "getLiquidationPenaltyRatio",
            "outputs": [
                {
                    "internalType": "uint24",
                    "name": "",
                    "type": "uint24"
                }
            ],
            "stateMutability": "view",
            "type": "function"
        },
        {
            "inputs": [
                {
                    "internalType": "address",
                    "name": "trader",
                    "type": "address"
                },
                {
                    "internalType": "address",
                    "name": "baseToken",
                    "type": "address"
                }
            ],
            "name": "getLiquidationPrice",
            "outputs": [
                {
                    "internalType": "uint256",
                    "name": "",
                    "type": "uint256"
                }
            ],
            "stateMutability": "view",
            "type": "function"
        },
        {
            "inputs": [
                {
                    "internalType": "address",
                    "name": "trader",
                    "type": "address"
                },
                {
                    "internalType": "address",
                    "name": "baseToken",
                    "type": "address"
                },
                {
                    "components": [
                        {
                            "internalType": "int256",
                            "name": "twPremium",
                            "type": "int256"
                        },
                        {
                            "internalType": "int256",
                            "name": "twPremiumWithLiquidity",
                            "type": "int256"
                        }
                    ],
                    "internalType": "struct Funding.Growth",
                    "name": "fundingGrowthGlobal",
                    "type": "tuple"
                }
            ],
            "name": "getLiquidityFundingPayment",
            "outputs": [
                {
                    "internalType": "int256",
                    "name": "liquidityFundingPayment",
                    "type": "int256"
                }
            ],
            "stateMutability": "view",
            "type": "function"
        },
        {
            "inputs": [],
            "name": "getLiquidityProvider",
            "outputs": [
                {
                    "internalType": "address",
                    "name": "",
                    "type": "address"
                }
            ],
            "stateMutability": "view",
            "type": "function"
        },
        {
            "inputs": [
                {
                    "internalType": "address",
                    "name": "trader",
                    "type": "address"
                }
            ],
            "name": "getMarginRequirementForLiquidation",
            "outputs": [
                {
                    "internalType": "int256",
                    "name": "",
                    "type": "int256"
                }
            ],
            "stateMutability": "view",
            "type": "function"
        },
        {
            "inputs": [],
            "name": "getMarketTaker",
            "outputs": [
                {
                    "internalType": "address",
                    "name": "",
                    "type": "address"
                }
            ],
            "stateMutability": "view",
            "type": "function"
        },
        {
            "inputs": [],
            "name": "getMaxAmmsPerAccount",
            "outputs": [
                {
                    "internalType": "uint8",
                    "name": "",
                    "type": "uint8"
                }
            ],
            "stateMutability": "view",
            "type": "function"
        },
        {
            "inputs": [],
            "name": "getMaxFundingRate",
            "outputs": [
                {
                    "internalType": "uint24",
                    "name": "",
                    "type": "uint24"
                }
            ],
            "stateMutability": "view",
            "type": "function"
        },
        {
            "inputs": [],
            "name": "getMmRatio",
            "outputs": [
                {
                    "internalType": "uint24",
                    "name": "",
                    "type": "uint24"
                }
            ],
            "stateMutability": "view",
            "type": "function"
        },
        {
            "inputs": [
                {
                    "internalType": "address",
                    "name": "trader",
                    "type": "address"
                },
                {
                    "internalType": "address",
                    "name": "baseToken",
                    "type": "address"
                }
            ],
            "name": "getOpenOrder",
            "outputs": [
                {
                    "components": [
                        {
                            "internalType": "uint256",
                            "name": "liquidity",
                            "type": "uint256"
                        },
                        {
                            "internalType": "int256",
                            "name": "lastTwPremiumGrowth",
                            "type": "int256"
                        },
                        {
                            "internalType": "int256",
                            "name": "lastTwPremiumWithLiquidityGrowth",
                            "type": "int256"
                        },
                        {
                            "internalType": "uint256",
                            "name": "baseDebt",
                            "type": "uint256"
                        },
                        {
                            "internalType": "uint256",
                            "name": "quoteDebt",
                            "type": "uint256"
                        }
                    ],
                    "internalType": "struct Account.LPInfo",
                    "name": "",
                    "type": "tuple"
                }
            ],
            "stateMutability": "view",
            "type": "function"
        },
        {
            "inputs": [],
            "name": "getPartialCloseRatio",
            "outputs": [
                {
                    "internalType": "uint24",
                    "name": "",
                    "type": "uint24"
                }
            ],
            "stateMutability": "view",
            "type": "function"
        },
        {
            "inputs": [
                {
                    "internalType": "address",
                    "name": "trader",
                    "type": "address"
                },
                {
                    "internalType": "address",
                    "name": "baseToken",
                    "type": "address"
                }
            ],
            "name": "getPendingFundingPayment",
            "outputs": [
                {
                    "internalType": "int256",
                    "name": "",
                    "type": "int256"
                }
            ],
            "stateMutability": "view",
            "type": "function"
        },
        {
            "inputs": [
                {
                    "internalType": "address",
                    "name": "trader",
                    "type": "address"
                }
            ],
            "name": "getPnl",
            "outputs": [
                {
                    "internalType": "int256",
                    "name": "owedRealizedPnl",
                    "type": "int256"
                },
                {
                    "internalType": "int256",
                    "name": "unrealizedPnl",
                    "type": "int256"
                }
            ],
            "stateMutability": "view",
            "type": "function"
        },
        {
            "inputs": [
                {
                    "components": [
                        {
                            "internalType": "address",
                            "name": "trader",
                            "type": "address"
                        },
                        {
                            "internalType": "address",
                            "name": "baseToken",
                            "type": "address"
                        },
                        {
                            "internalType": "int256",
                            "name": "base",
                            "type": "int256"
                        },
                        {
                            "internalType": "int256",
                            "name": "quote",
                            "type": "int256"
                        }
                    ],
                    "internalType": "struct IMarketTaker.RealizePnlParams",
                    "name": "params",
                    "type": "tuple"
                }
            ],
            "name": "getPnlToBeRealized",
            "outputs": [
                {
                    "internalType": "int256",
                    "name": "",
                    "type": "int256"
                }
            ],
            "stateMutability": "view",
            "type": "function"
        },
        {
            "inputs": [],
            "name": "getPoolLength",
            "outputs": [
                {
                    "internalType": "uint256",
                    "name": "",
                    "type": "uint256"
                }
            ],
            "stateMutability": "view",
            "type": "function"
        },
        {
            "inputs": [
                {
                    "internalType": "uint256",
                    "name": "i",
                    "type": "uint256"
                }
            ],
            "name": "getPoolList",
            "outputs": [
                {
                    "internalType": "address",
                    "name": "",
                    "type": "address"
                }
            ],
            "stateMutability": "view",
            "type": "function"
        },
        {
            "inputs": [],
            "name": "getPositionMgmt",
            "outputs": [
                {
                    "internalType": "address",
                    "name": "",
                    "type": "address"
                }
            ],
            "stateMutability": "view",
            "type": "function"
        },
        {
            "inputs": [
                {
                    "internalType": "address",
                    "name": "baseToken",
                    "type": "address"
                }
            ],
            "name": "getPriceCurrent",
            "outputs": [
                {
                    "internalType": "uint256",
                    "name": "",
                    "type": "uint256"
                }
            ],
            "stateMutability": "view",
            "type": "function"
        },
        {
            "inputs": [
                {
                    "internalType": "address",
                    "name": "baseToken",
                    "type": "address"
                }
            ],
            "name": "getPriceLast",
            "outputs": [
                {
                    "internalType": "uint256",
                    "name": "",
                    "type": "uint256"
                }
            ],
            "stateMutability": "view",
            "type": "function"
        },
        {
            "inputs": [
                {
                    "internalType": "address",
                    "name": "baseToken",
                    "type": "address"
                }
            ],
            "name": "getPriceOracle",
            "outputs": [
                {
                    "internalType": "uint256",
                    "name": "",
                    "type": "uint256"
                }
            ],
            "stateMutability": "view",
            "type": "function"
        },
        {
            "inputs": [
                {
                    "internalType": "address",
                    "name": "baseToken",
                    "type": "address"
                }
            ],
            "name": "getPriceScale",
            "outputs": [
                {
                    "internalType": "uint256",
                    "name": "",
                    "type": "uint256"
                }
            ],
            "stateMutability": "view",
            "type": "function"
        },
        {
            "inputs": [
                {
                    "internalType": "address",
                    "name": "trader",
                    "type": "address"
                },
                {
                    "internalType": "address",
                    "name": "baseToken",
                    "type": "address"
                }
            ],
            "name": "getQuote",
            "outputs": [
                {
                    "internalType": "int256",
                    "name": "",
                    "type": "int256"
                }
            ],
            "stateMutability": "view",
            "type": "function"
        },
        {
            "inputs": [],
            "name": "getQuoteToken",
            "outputs": [
                {
                    "internalType": "address",
                    "name": "",
                    "type": "address"
                }
            ],
            "stateMutability": "view",
            "type": "function"
        },
        {
            "inputs": [],
            "name": "getSettlementToken",
            "outputs": [
                {
                    "internalType": "address",
                    "name": "",
                    "type": "address"
                }
            ],
            "stateMutability": "view",
            "type": "function"
        },
        {
            "inputs": [],
            "name": "getSettlementTokenBalanceCap",
            "outputs": [
                {
                    "internalType": "uint256",
                    "name": "",
                    "type": "uint256"
                }
            ],
            "stateMutability": "view",
            "type": "function"
        },
        {
            "inputs": [
                {
                    "internalType": "address",
                    "name": "trader",
                    "type": "address"
                },
                {
                    "internalType": "address",
                    "name": "baseToken",
                    "type": "address"
                }
            ],
            "name": "getTakerOpenNotional",
            "outputs": [
                {
                    "internalType": "int256",
                    "name": "",
                    "type": "int256"
                }
            ],
            "stateMutability": "view",
            "type": "function"
        },
        {
            "inputs": [
                {
                    "internalType": "address",
                    "name": "trader",
                    "type": "address"
                },
                {
                    "internalType": "address",
                    "name": "baseToken",
                    "type": "address"
                }
            ],
            "name": "getTakerPositionSize",
            "outputs": [
                {
                    "internalType": "int256",
                    "name": "",
                    "type": "int256"
                }
            ],
            "stateMutability": "view",
            "type": "function"
        },
        {
            "inputs": [
                {
                    "internalType": "address",
                    "name": "pool",
                    "type": "address"
                }
            ],
            "name": "getToken",
            "outputs": [
                {
                    "internalType": "address",
                    "name": "",
                    "type": "address"
                }
            ],
            "stateMutability": "view",
            "type": "function"
        },
        {
            "inputs": [
                {
                    "internalType": "address",
                    "name": "trader",
                    "type": "address"
                }
            ],
            "name": "getTotalAbsPositionValue",
            "outputs": [
                {
                    "internalType": "uint256",
                    "name": "",
                    "type": "uint256"
                }
            ],
            "stateMutability": "view",
            "type": "function"
        },
        {
            "inputs": [],
            "name": "getTotalDebt",
            "outputs": [
                {
                    "internalType": "uint256",
                    "name": "",
                    "type": "uint256"
                }
            ],
            "stateMutability": "view",
            "type": "function"
        },
        {
            "inputs": [
                {
                    "internalType": "address",
                    "name": "trader",
                    "type": "address"
                }
            ],
            "name": "getTotalDebtValue",
            "outputs": [
                {
                    "internalType": "uint256",
                    "name": "",
                    "type": "uint256"
                }
            ],
            "stateMutability": "view",
            "type": "function"
        },
        {
            "inputs": [
                {
                    "internalType": "address",
                    "name": "trader",
                    "type": "address"
                },
                {
                    "internalType": "address",
                    "name": "baseToken",
                    "type": "address"
                },
                {
                    "internalType": "bool",
                    "name": "fetchBase",
                    "type": "bool"
                }
            ],
            "name": "getTotalLPOrderDebt",
            "outputs": [
                {
                    "internalType": "uint256",
                    "name": "",
                    "type": "uint256"
                }
            ],
            "stateMutability": "view",
            "type": "function"
        },
        {
            "inputs": [
                {
                    "internalType": "address",
                    "name": "trader",
                    "type": "address"
                },
                {
                    "internalType": "address[]",
                    "name": "baseTokens",
                    "type": "address[]"
                }
            ],
            "name": "getTotalLPQuoteAmount",
            "outputs": [
                {
                    "internalType": "int256",
                    "name": "totalQuoteAmountInAmms",
                    "type": "int256"
                }
            ],
            "stateMutability": "view",
            "type": "function"
        },
        {
            "inputs": [
                {
                    "internalType": "address",
                    "name": "baseToken",
                    "type": "address"
                }
            ],
            "name": "getTotalLiquidity",
            "outputs": [
                {
                    "internalType": "uint256",
                    "name": "",
                    "type": "uint256"
                }
            ],
            "stateMutability": "view",
            "type": "function"
        },
        {
            "inputs": [
                {
                    "internalType": "address",
                    "name": "trader",
                    "type": "address"
                },
                {
                    "internalType": "address",
                    "name": "baseToken",
                    "type": "address"
                }
            ],
            "name": "getTotalOpenNotional",
            "outputs": [
                {
                    "internalType": "int256",
                    "name": "",
                    "type": "int256"
                }
            ],
            "stateMutability": "view",
            "type": "function"
        },
        {
            "inputs": [
                {
                    "internalType": "address",
                    "name": "trader",
                    "type": "address"
                },
                {
                    "internalType": "address",
                    "name": "baseToken",
                    "type": "address"
                }
            ],
            "name": "getTotalPositionSize",
            "outputs": [
                {
                    "internalType": "int256",
                    "name": "",
                    "type": "int256"
                }
            ],
            "stateMutability": "view",
            "type": "function"
        },
        {
            "inputs": [
                {
                    "internalType": "address",
                    "name": "trader",
                    "type": "address"
                },
                {
                    "internalType": "address",
                    "name": "baseToken",
                    "type": "address"
                }
            ],
            "name": "getTotalPositionValue",
            "outputs": [
                {
                    "internalType": "int256",
                    "name": "",
                    "type": "int256"
                }
            ],
            "stateMutability": "view",
            "type": "function"
        },
        {
            "inputs": [
                {
                    "internalType": "address",
                    "name": "trader",
                    "type": "address"
                },
                {
                    "internalType": "address",
                    "name": "baseToken",
                    "type": "address"
                },
                {
                    "internalType": "bool",
                    "name": "fetchBase",
                    "type": "bool"
                }
            ],
            "name": "getTotalTokenAmountInAmm",
            "outputs": [
                {
                    "internalType": "uint256",
                    "name": "tokenAmount",
                    "type": "uint256"
                }
            ],
            "stateMutability": "view",
            "type": "function"
        },
        {
            "inputs": [],
            "name": "getTwapInterval",
            "outputs": [
                {
                    "internalType": "uint32",
                    "name": "",
                    "type": "uint32"
                }
            ],
            "stateMutability": "view",
            "type": "function"
        },
        {
            "inputs": [
                {
                    "internalType": "address",
                    "name": "baseToken",
                    "type": "address"
                }
            ],
            "name": "getTwapMarkPrice",
            "outputs": [
                {
                    "internalType": "uint256",
                    "name": "",
                    "type": "uint256"
                }
            ],
            "stateMutability": "view",
            "type": "function"
        },
        {
            "inputs": [],
            "name": "getVault",
            "outputs": [
                {
                    "internalType": "address",
                    "name": "",
                    "type": "address"
                }
            ],
            "stateMutability": "view",
            "type": "function"
        },
        {
            "inputs": [
                {
                    "internalType": "address",
                    "name": "baseToken",
                    "type": "address"
                }
            ],
            "name": "hasAmm",
            "outputs": [
                {
                    "internalType": "bool",
                    "name": "",
                    "type": "bool"
                }
            ],
            "stateMutability": "view",
            "type": "function"
        },
        {
            "inputs": [
                {
                    "internalType": "address",
                    "name": "trader",
                    "type": "address"
                }
            ],
            "name": "hasOrder",
            "outputs": [
                {
                    "internalType": "bool",
                    "name": "",
                    "type": "bool"
                }
            ],
            "stateMutability": "view",
            "type": "function"
        },
        {
            "inputs": [
                {
                    "internalType": "address",
                    "name": "clearingHouseArg",
                    "type": "address"
                },
                {
                    "internalType": "address",
                    "name": "clearingHouseConfigArg",
                    "type": "address"
                },
                {
                    "internalType": "address",
                    "name": "positionMgmtArg",
                    "type": "address"
                },
                {
                    "internalType": "address",
                    "name": "marketTakerArg",
                    "type": "address"
                },
                {
                    "internalType": "address",
                    "name": "liquidityProviderArg",
                    "type": "address"
                },
                {
                    "internalType": "address",
                    "name": "insuranceFundArg",
                    "type": "address"
                },
                {
                    "internalType": "address",
                    "name": "factoryArg",
                    "type": "address"
                },
                {
                    "internalType": "address",
                    "name": "wrapAmmArg",
                    "type": "address"
                },
                {
                    "internalType": "address",
                    "name": "vaultArg",
                    "type": "address"
                }
            ],
            "name": "initialize",
            "outputs": [],
            "stateMutability": "nonpayable",
            "type": "function"
        },
        {
            "inputs": [
                {
                    "internalType": "address",
                    "name": "baseToken",
                    "type": "address"
                },
                {
                    "internalType": "uint256",
                    "name": "amount",
                    "type": "uint256"
                },
                {
                    "internalType": "bool",
                    "name": "baseToQuote",
                    "type": "bool"
                },
                {
                    "internalType": "bool",
                    "name": "exactInput",
                    "type": "bool"
                }
            ],
            "name": "simulatedSwap",
            "outputs": [
                {
                    "internalType": "uint256",
                    "name": "",
                    "type": "uint256"
                },
                {
                    "internalType": "uint256",
                    "name": "",
                    "type": "uint256"
                },
                {
                    "internalType": "uint256",
                    "name": "",
                    "type": "uint256"
                }
            ],
            "stateMutability": "nonpayable",
            "type": "function"
        },
        {
            "inputs": [],
            "name": "vaultDecimals",
            "outputs": [
                {
                    "internalType": "uint8",
                    "name": "",
                    "type": "uint8"
                }
            ],
            "stateMutability": "view",
            "type": "function"
        }
    ],
    "bytecode": "0x608060405234801561001057600080fd5b50613347806100206000396000f3fe608060405234801561001057600080fd5b506004361061041d5760003560e01c8063803841b71161022b578063b394569011610130578063e2a72cce116100b8578063f75c266d11610087578063f75c266d146108b3578063f764720c146108c6578063f8b2cb4f146108d9578063fb39b424146108ec578063fedf924b146108ff5761041d565b8063e2a72cce14610870578063e3b910e414610878578063ec32c8e31461088b578063f5e95acb1461089e5761041d565b8063cb379aa2116100ff578063cb379aa21461081c578063cb3c7b8e1461082f578063cc84092814610842578063cc85f5f214610855578063d50d01b71461085d5761041d565b8063b3945690146107db578063b3bd6e12146107ee578063c399944414610801578063c575ff79146108145761041d565b8063a27a64b2116101b3578063aa2a829411610182578063aa2a829414610778578063af74e73614610780578063b02dd211146107a0578063b2e27148146107c0578063b3944d52146107d35761041d565b8063a27a64b214610737578063a70bba671461074a578063a7d60ed21461075d578063a8549402146107705761041d565b806388cc58e4116101fa57806388cc58e4146107045780638d928af81461070c5780638e8499ba146107145780639d6179c31461071c5780639de8ef79146107245761041d565b8063803841b7146106c157806380f57f11146106c957806385b0f967146106dc57806385eacc77146106fc5761041d565b80634a64d67d1161033157806368f12e12116102b957806373b53e931161028857806373b53e931461066d57806374283336146106805780637a5b45a0146106885780637d4dd9541461069b5780637fdc9fc8146106ae5761041d565b806368f12e121461062a5780636ccdc82e1461063d5780636e1d2dd2146106505780636f0daecb146106585761041d565b8063564cd09211610300578063564cd092146105be57806359770438146105d15780635ae80951146105e45780635c132184146105f75780636332fef61461060a5761041d565b80634a64d67d14610586578063508d501d1461058e578063543ce73a146105a157806355338fc1146105b65761041d565b8063293a5077116103b45780633e742e3b116103835780633e742e3b146105255780633f9351071461053a5780633ffd13031461054d5780634318dd951461056057806343a19cc4146105735761041d565b8063293a5077146104e45780632b7746f1146104f757806334ce998a1461050a5780633a5ad779146105125761041d565b80631867b480116103f05780631867b480146104895780631987da481461049c5780632084d2c6146104af5780632185b42a146104d15761041d565b806312803c7d146104225780631393a4691461044057806313ea7c8914610460578063158626f714610481575b600080fd5b61042a610907565b6040516104379190612d37565b60405180910390f35b61045361044e366004612bfc565b610989565b6040516104379190612ede565b61047361046e36600461272a565b610a10565b604051610437929190612ee7565b61042a610a9d565b610453610497366004612762565b610aac565b6104536104aa36600461272a565b610eab565b6104c26104bd3660046129e1565b610edc565b604051610437939291906130e7565b6104536104df366004612907565b6111ba565b6104536104f236600461272a565b61124a565b61045361050536600461272a565b61127b565b6104536112ac565b61045361052036600461272a565b611329565b61052d61135a565b60405161043791906130fd565b610453610548366004612762565b6113d7565b61045361055b366004612989565b61145a565b61045361056e36600461272a565b61148d565b610453610581366004612855565b6114be565b61042a6114f4565b61045361059c36600461272a565b611543565b6105a9611574565b60405161043791906130d7565b61042a6115f1565b6104536105cc366004612a33565b611600565b61042a6105df36600461272a565b611635565b6104536105f236600461272a565b6116b6565b6104736106053660046129e1565b6116ec565b61061d610618366004612762565b611842565b60405161043791906130b6565b610453610638366004612762565b6118cc565b61045361064b36600461272a565b6118ff565b6105a9611930565b610660611975565b604051610437919061310e565b61047361067b366004612a67565b6119f2565b6105a9611a89565b610453610696366004612762565b611ace565b6104736106a93660046129b6565b611b01565b6104536106bc3660046129b6565b611b92565b61042a611bc5565b6104536106d736600461272a565b611c0a565b6106ef6106ea366004612762565b611c3b565b6040516104379190613043565b610453611cc4565b61042a611d09565b61042a611d18565b61042a611d27565b610660611d36565b61045361073236600461272a565b611d7b565b61045361074536600461272a565b611dac565b61042a6107583660046129b6565b611ddd565b61042a61076b36600461272a565b611e60565b6105a9611e91565b61042a611ed6565b61079361078e36600461272a565b611ee5565b6040516104379190612e86565b6107b36107ae36600461272a565b611f6a565b6040516104379190612ed3565b6104536107ce366004612762565b611feb565b61045361201e565b6104536107e9366004612762565b612063565b6104536107fc366004612762565b612096565b61045361080f36600461272a565b6120c9565b61042a6120fa565b61045361082a366004612762565b61210f565b6107b361083d36600461272a565b612142565b610473610850366004612a67565b612173565b6105a96121ae565b61045361086b366004612762565b6121f3565b61042a612226565b610453610886366004612855565b612235565b61045361089936600461289f565b61226b565b6108b16108ac36600461279a565b6122a1565b005b6104536108c136600461272a565b6123c1565b61042a6108d4366004612cad565b6123f2565b6104536108e736600461272a565b612423565b6104536108fa36600461272a565b612454565b6105a9612485565b600854604080516312803c7d60e01b815290516000926001600160a01b0316916312803c7d916004808301926020929190829003018186803b15801561094c57600080fd5b505afa158015610960573d6000803e3d6000fd5b505050506040513d601f19601f820116820180604052508101906109849190612746565b905090565b600354604051631393a46960e01b81526000916001600160a01b031690631393a469906109ba90859060040161307d565b60206040518083038186803b1580156109d257600080fd5b505afa1580156109e6573d6000803e3d6000fd5b505050506040513d601f19601f82011682018060405250810190610a0a9190612b70565b92915050565b6002546040516313ea7c8960e01b815260009182916001600160a01b03909116906313ea7c8990610a45908690600401612d37565b604080518083038186803b158015610a5c57600080fd5b505afa158015610a70573d6000803e3d6000fd5b505050506040513d601f19601f82011682018060405250810190610a949190612b88565b91509150915091565b6005546001600160a01b031690565b60008054604051635ae8095160e01b815282916201000090046001600160a01b031690635ae8095190610ae3908790600401612d37565b60206040518083038186803b158015610afb57600080fd5b505afa158015610b0f573d6000803e3d6000fd5b505050506040513d601f19601f82011682018060405250810190610b339190612b70565b600254604051633478970960e11b81529192506000916001600160a01b03909116906368f12e1290610b6b9088908890600401612d4b565b60206040518083038186803b158015610b8357600080fd5b505afa158015610b97573d6000803e3d6000fd5b505050506040513d601f19601f82011682018060405250810190610bbb9190612b70565b905080610bcd57600092505050610a0a565b6000846001600160a01b03166312080647600160009054906101000a90046001600160a01b03166001600160a01b0316633e742e3b6040518163ffffffff1660e01b815260040160206040518083038186803b158015610c2c57600080fd5b505afa158015610c40573d6000803e3d6000fd5b505050506040513d601f19601f82011682018060405250810190610c649190612cf2565b6040518263ffffffff1660e01b8152600401610c8091906130fd565b60206040518083038186803b158015610c9857600080fd5b505afa158015610cac573d6000803e3d6000fd5b505050506040513d601f19601f82011682018060405250810190610cd09190612b70565b600254604051633666e41760e11b81529192506000916001600160a01b0390911690636ccdc82e90610d06908a90600401612d37565b60206040518083038186803b158015610d1e57600080fd5b505afa158015610d32573d6000803e3d6000fd5b505050506040513d601f19601f82011682018060405250810190610d569190612b70565b90506000600160009054906101000a90046001600160a01b03166001600160a01b031663a85494026040518163ffffffff1660e01b815260040160206040518083038186803b158015610da857600080fd5b505afa158015610dbc573d6000803e3d6000fd5b505050506040513d601f19601f82011682018060405250810190610de09190612c91565b90506000808513610e0a57610e05610dfb83620f424061314d565b62ffffff166124ca565b610e1a565b610e1a610dfb83620f4240613270565b90506000610e30610e2b85856124f7565b6124ca565b610e3a9088613231565b90506000610e4c8784620f424061250c565b9050600081610e6384670de0b6b3a76400006131ae565b610e6d9190613174565b610e76886124ca565b610e809190613231565b90506000811215610e92576000610e9b565b610e9b816125b0565b9c9b505050505050505050505050565b600754604051630330fb4960e31b81526000916001600160a01b031690631987da48906109ba908590600401612d37565b60008060008315610fc1578415610f8657600080546040516349cf2a6160e01b8152620100009091046001600160a01b0316916349cf2a6191610f29918b91600191908c90600401612e08565b606060405180830381600087803b158015610f4357600080fd5b505af1158015610f57573d6000803e3d6000fd5b505050506040513d601f19601f82011682018060405250810190610f7b9190612cc5565b9250925092506111b0565b600080546040516349cf2a6160e01b8152620100009091046001600160a01b0316916349cf2a6191610f29918b916001908c90600401612e08565b84156110ea57600754604051631990812560e31b81526000916001600160a01b03169063cc84092890610fff908b9060019086908d90600401612e08565b604080518083038186803b15801561101657600080fd5b505afa15801561102a573d6000803e3d6000fd5b505050506040513d601f19601f8201168201806040525081019061104e9190612b88565b50600080546040516349cf2a6160e01b81529293506201000090046001600160a01b0316916349cf2a619161108c918c916001918790600401612e08565b606060405180830381600087803b1580156110a657600080fd5b505af11580156110ba573d6000803e3d6000fd5b505050506040513d601f19601f820116820180604052508101906110de9190612cc5565b935093509350506111b0565b600754604051631990812560e31b81526000916001600160a01b03169063cc84092890611122908b9085906001908d90600401612e08565b604080518083038186803b15801561113957600080fd5b505afa15801561114d573d6000803e3d6000fd5b505050506040513d601f19601f820116820180604052508101906111719190612b88565b50600080546040516349cf2a6160e01b81529293506201000090046001600160a01b0316916349cf2a619161108c918c91906001908790600401612e08565b9450945094915050565b600480546040516310c2da1560e11b81526000926001600160a01b0390921691632185b42a916111f09188918891889101612db9565b60206040518083038186803b15801561120857600080fd5b505afa15801561121c573d6000803e3d6000fd5b505050506040513d601f19601f820116820180604052508101906112409190612b70565b90505b9392505050565b60025460405163293a507760e01b81526000916001600160a01b03169063293a5077906109ba908590600401612d37565b600754604051632b7746f160e01b81526000916001600160a01b031690632b7746f1906109ba908590600401612d37565b60085460408051631a674cc560e11b815290516000926001600160a01b0316916334ce998a916004808301926020929190829003018186803b1580156112f157600080fd5b505afa158015611305573d6000803e3d6000fd5b505050506040513d601f19601f820116820180604052508101906109849190612b70565b600754604051633a5ad77960e01b81526000916001600160a01b031690633a5ad779906109ba908590600401612d37565b60015460408051633e742e3b60e01b815290516000926001600160a01b031691633e742e3b916004808301926020929190829003018186803b15801561139f57600080fd5b505afa1580156113b3573d6000803e3d6000fd5b505050506040513d601f19601f820116820180604052508101906109849190612cf2565b600254604051633f93510760e01b81526000916001600160a01b031690633f9351079061140a9086908690600401612d4b565b60206040518083038186803b15801561142257600080fd5b505afa158015611436573d6000803e3d6000fd5b505050506040513d601f19601f820116820180604052508101906112439190612b70565b600854604051633ffd130360e01b81526000916001600160a01b031690633ffd13039061140a9086908690600401612e2e565b600354604051634318dd9560e01b81526000916001600160a01b031690634318dd95906109ba908590600401612d37565b600480546040516310e8673160e21b81526000926001600160a01b03909216916343a19cc4916111f09188918891889101612d65565b60008060029054906101000a90046001600160a01b03166001600160a01b0316634a64d67d6040518163ffffffff1660e01b815260040160206040518083038186803b15801561094c57600080fd5b60065460405163d88bf68d60e01b81526000916001600160a01b03169063d88bf68d906109ba908590600401612d37565b60015460408051632a1e739d60e11b815290516000926001600160a01b03169163543ce73a916004808301926020929190829003018186803b1580156115b957600080fd5b505afa1580156115cd573d6000803e3d6000fd5b505050506040513d601f19601f820116820180604052508101906109849190612c91565b6003546001600160a01b031690565b600754604051632b26684960e11b81526000916001600160a01b03169063564cd092906111f090879087908790600401612e65565b600654604051634bbec89160e11b81526000916001600160a01b03169063977d912290611666908590600401612d37565b60206040518083038186803b15801561167e57600080fd5b505afa158015611692573d6000803e3d6000fd5b505050506040513d601f19601f82011682018060405250810190610a0a9190612746565b60008054604051635ae8095160e01b8152620100009091046001600160a01b031690635ae80951906109ba908590600401612d37565b60008083156117c357821561178b576007546040516373b53e9360e01b81526001600160a01b03909116906373b53e93906117339089906001906000908b90600401612e08565b604080518083038186803b15801561174a57600080fd5b505afa15801561175e573d6000803e3d6000fd5b505050506040513d601f19601f820116820180604052508101906117829190612b88565b91509150611839565b600754604051631990812560e31b81526001600160a01b039091169063cc840928906117339089906001906000908b90600401612e08565b8215611801576007546040516373b53e9360e01b81526001600160a01b03909116906373b53e93906117339089906000906001908b90600401612e08565b600754604051631990812560e31b81526001600160a01b039091169063cc840928906117339089906000906001908b90600401612e08565b94509492505050565b61184a6126da565b6002546040516331997f7b60e11b81526001600160a01b0390911690636332fef69061187c9086908690600401612d4b565b60606040518083038186803b15801561189457600080fd5b505afa1580156118a8573d6000803e3d6000fd5b505050506040513d601f19601f820116820180604052508101906112439190612c54565b600254604051633478970960e11b81526000916001600160a01b0316906368f12e129061140a9086908690600401612d4b565b600254604051633666e41760e11b81526000916001600160a01b031690636ccdc82e906109ba908590600401612d37565b6001546040805163370e96e960e11b815290516000926001600160a01b031691636e1d2dd2916004808301926020929190829003018186803b1580156115b957600080fd5b60015460408051636f0daecb60e01b815290516000926001600160a01b031691636f0daecb916004808301926020929190829003018186803b1580156119ba57600080fd5b505afa1580156119ce573d6000803e3d6000fd5b505050506040513d601f19601f820116820180604052508101906109849190612d16565b6007546040516373b53e9360e01b815260009182916001600160a01b03909116906373b53e9390611a2d908990899089908990600401612e08565b604080518083038186803b158015611a4457600080fd5b505afa158015611a58573d6000803e3d6000fd5b505050506040513d601f19601f82011682018060405250810190611a7c9190612b88565b9150915094509492505050565b60015460408051633a14199b60e11b815290516000926001600160a01b0316916374283336916004808301926020929190829003018186803b1580156115b957600080fd5b6002546040516303d2da2d60e51b81526000916001600160a01b031690637a5b45a09061140a9086908690600401612d4b565b600754604051631f53765560e21b815260009182916001600160a01b0390911690637d4dd95490611b389087908790600401612e4c565b604080518083038186803b158015611b4f57600080fd5b505afa158015611b63573d6000803e3d6000fd5b505050506040513d601f19601f82011682018060405250810190611b879190612b88565b915091509250929050565b600754604051630ffb93f960e31b81526000916001600160a01b031690637fdc9fc89061140a9086908690600401612e4c565b6006546040805163cab4d3db60e01b815290516000926001600160a01b03169163cab4d3db916004808301926020929190829003018186803b15801561094c57600080fd5b6003546040516380f57f1160e01b81526000916001600160a01b0316906380f57f11906109ba908590600401612d37565b611c436126fb565b600480546040516385b0f96760e01b81526001600160a01b03909116916385b0f96791611c74918791879101612d4b565b60a06040518083038186803b158015611c8c57600080fd5b505afa158015611ca0573d6000803e3d6000fd5b505050506040513d601f19601f820116820180604052508101906112439190612bab565b600154604080516385eacc7760e01b815290516000926001600160a01b0316916385eacc77916004808301926020929190829003018186803b1580156112f157600080fd5b6006546001600160a01b031690565b6008546001600160a01b031690565b6002546001600160a01b031690565b6008546040805163313ce56760e01b815290516000926001600160a01b03169163313ce567916004808301926020929190829003018186803b1580156119ba57600080fd5b600754604051639de8ef7960e01b81526000916001600160a01b031690639de8ef79906109ba908590600401612d37565b60075460405163513d325960e11b81526000916001600160a01b03169063a27a64b2906109ba908590600401612d37565b60075460405163a70bba6760e01b81526000916001600160a01b03169063a70bba6790611e109086908690600401612e4c565b60206040518083038186803b158015611e2857600080fd5b505afa158015611e3c573d6000803e3d6000fd5b505050506040513d601f19601f820116820180604052508101906112439190612746565b6006546040516353eb076960e11b81526000916001600160a01b03169063a7d60ed290611666908590600401612d37565b6001546040805163542a4a0160e11b815290516000926001600160a01b03169163a8549402916004808301926020929190829003018186803b1580156115b957600080fd5b6001546001600160a01b031690565b6002546040516357ba739b60e11b81526060916001600160a01b03169063af74e73690611f16908590600401612d37565b60006040518083038186803b158015611f2e57600080fd5b505afa158015611f42573d6000803e3d6000fd5b505050506040513d6000823e601f3d908101601f19168201604052610a0a9190810190612aa1565b6006546040516372971b3f60e01b81526000916001600160a01b0316906372971b3f90611f9b908590600401612d37565b60206040518083038186803b158015611fb357600080fd5b505afa158015611fc7573d6000803e3d6000fd5b505050506040513d601f19601f82011682018060405250810190610a0a9190612b54565b60025460405163165c4e2960e31b81526000916001600160a01b03169063b2e271489061140a9086908690600401612d4b565b60065460408051634ab5571d60e11b815290516000926001600160a01b03169163956aae3a916004808301926020929190829003018186803b1580156112f157600080fd5b600254604051630b39456960e41b81526000916001600160a01b03169063b39456909061140a9086908690600401612d4b565b6002546040516359deb70960e11b81526000916001600160a01b03169063b3bd6e129061140a9086908690600401612d4b565b6008546040516330e6651160e21b81526000916001600160a01b03169063c3999444906109ba908590600401612d37565b6000546201000090046001600160a01b031690565b60035460405163659bcd5160e11b81526000916001600160a01b03169063cb379aa29061140a9086908690600401612d4b565b60025460405163659e3dc760e11b81526000916001600160a01b03169063cb3c7b8e90611f9b908590600401612d37565b600754604051631990812560e31b815260009182916001600160a01b039091169063cc84092890611a2d908990899089908990600401612e08565b60015460408051636642faf960e11b815290516000926001600160a01b03169163cc85f5f2916004808301926020929190829003018186803b1580156115b957600080fd5b60025460405163d50d01b760e01b81526000916001600160a01b03169063d50d01b79061140a9086908690600401612d4b565b6004546001600160a01b031690565b600480546040516338ee443960e21b81526000926001600160a01b039092169163e3b910e4916111f09188918891889101612d65565b6004805460405163ec32c8e360e01b81526000926001600160a01b039092169163ec32c8e3916111f09188918891889101612d89565b600054610100900460ff16806122ba575060005460ff16155b6122df5760405162461bcd60e51b81526004016122d690612f6c565b60405180910390fd5b600054610100900460ff1615801561230a576000805460ff1961ff0019909116610100171660011790555b6000805462010000600160b01b031916620100006001600160a01b038d81169190910291909117909155600180546001600160a01b03199081168c8416179091556002805482168b84161790556003805482168a84161790556004805482168984161790556005805482168884161790556006805482168784161790556007805482168684161790556008805490911691841691909117905580156123b5576000805461ff00191690555b50505050505050505050565b60025460405163f75c266d60e01b81526000916001600160a01b03169063f75c266d906109ba908590600401612d37565b600654604051631d0eaec760e11b81526000916001600160a01b031690633a1d5d8e90611666908590600401612ede565b60085460405163f8b2cb4f60e01b81526000916001600160a01b03169063f8b2cb4f906109ba908590600401612d37565b600754604051633ece6d0960e21b81526000916001600160a01b03169063fb39b424906109ba908590600401612d37565b6001546040805163fedf924b60e01b815290516000926001600160a01b03169163fedf924b916004808301926020929190829003018186803b1580156115b957600080fd5b60006001600160ff1b038211156124f35760405162461bcd60e51b81526004016122d690612fba565b5090565b6000611243838362ffffff16620f42406125d2565b6000806000851261251d5784612526565b61252685612698565b905060008085126125375784612540565b61254085612698565b9050600080871280156125535750600086135b8061256957506000871380156125695750600086125b612574576000612577565b60015b905060006125868484886125d2565b90508161259b57612596816124ca565b6125a4565b6125a4816126c6565b98975050505050505050565b6000808212156124f35760405162461bcd60e51b81526004016122d690612f37565b60008080600019858709858702925082811083820303915050806000141561261f57600084116126145760405162461bcd60e51b81526004016122d690612ef5565b508290049050611243565b80841161262b57600080fd5b6000848688096000868103871696879004966002600389028118808a02820302808a02820302808a02820302808a02820302808a02820302808a02909103029181900381900460010186841190950394909402919094039290920491909117919091029150509392505050565b6000600160ff1b82136126bd5760405162461bcd60e51b81526004016122d690613002565b610a0a82613294565b60006126d1826124ca565b610a0a90613294565b60405180606001604052806000815260200160008152602001600081525090565b6040518060a0016040528060008152602001600081526020016000815260200160008152602001600081525090565b60006020828403121561273b578081fd5b8135611243816132da565b600060208284031215612757578081fd5b8151611243816132da565b60008060408385031215612774578081fd5b823561277f816132da565b9150602083013561278f816132da565b809150509250929050565b60008060008060008060008060006101208a8c0312156127b8578485fd5b89356127c3816132da565b985060208a01356127d3816132da565b975060408a01356127e3816132da565b965060608a01356127f3816132da565b955060808a0135612803816132da565b945060a08a0135612813816132da565b935060c08a0135612823816132da565b925060e08a0135612833816132da565b91506101008a0135612844816132da565b809150509295985092959850929598565b600080600060608486031215612869578283fd5b8335612874816132da565b92506020840135612884816132da565b91506040840135612894816132f2565b809150509250925092565b600080600083850360808112156128b4578182fd5b84356128bf816132da565b935060208501356128cf816132da565b92506040603f19820112156128e2578182fd5b506128ed604061311c565b604085013581526060909401356020850152509093909250565b60008060006040848603121561291b578081fd5b8335612926816132da565b9250602084013567ffffffffffffffff80821115612942578283fd5b818601915086601f830112612955578283fd5b813581811115612963578384fd5b8760208083028501011115612976578384fd5b6020830194508093505050509250925092565b6000806040838503121561299b578182fd5b82356129a6816132da565b9150602083013561278f81613300565b600080604083850312156129c8578182fd5b82356129d3816132da565b946020939093013593505050565b600080600080608085870312156129f6578182fd5b8435612a01816132da565b9350602085013592506040850135612a18816132f2565b91506060850135612a28816132f2565b939692955090935050565b600080600060608486031215612a47578081fd5b8335612a52816132da565b95602085013595506040909401359392505050565b60008060008060808587031215612a7c578182fd5b8435612a87816132da565b966020860135965060408601359560600135945092505050565b60006020808385031215612ab3578182fd5b825167ffffffffffffffff80821115612aca578384fd5b818501915085601f830112612add578384fd5b815181811115612aef57612aef6132c4565b8381029150612aff84830161311c565b8181528481019084860184860187018a1015612b19578788fd5b8795505b83861015612b475780519450612b32856132da565b84835260019590950194918601918601612b1d565b5098975050505050505050565b600060208284031215612b65578081fd5b8151611243816132f2565b600060208284031215612b81578081fd5b5051919050565b60008060408385031215612b9a578182fd5b505080516020909101519092909150565b600060a08284031215612bbc578081fd5b612bc660a061311c565b82518152602083015160208201526040830151604082015260608301516060820152608083015160808201528091505092915050565b600060808284031215612c0d578081fd5b612c17608061311c565b8235612c22816132da565b81526020830135612c32816132da565b6020820152604083810135908201526060928301359281019290925250919050565b600060608284031215612c65578081fd5b612c6f606061311c565b8251815260208301516020820152604083015160408201528091505092915050565b600060208284031215612ca2578081fd5b815161124381613300565b600060208284031215612cbe578081fd5b5035919050565b600080600060608486031215612cd9578081fd5b8351925060208401519150604084015190509250925092565b600060208284031215612d03578081fd5b815163ffffffff81168114611243578182fd5b600060208284031215612d27578081fd5b815160ff81168114611243578182fd5b6001600160a01b0391909116815260200190565b6001600160a01b0392831681529116602082015260400190565b6001600160a01b039384168152919092166020820152901515604082015260600190565b6001600160a01b039384168152919092166020808301919091528251604083015290910151606082015260800190565b6001600160a01b03848116825260406020808401829052908301849052600091859160608501845b87811015612b47578435612df4816132da565b841682529382019390820190600101612de1565b6001600160a01b0394909416845260208401929092526040830152606082015260800190565b6001600160a01b0392909216825262ffffff16602082015260400190565b6001600160a01b03929092168252602082015260400190565b6001600160a01b039390931683526020830191909152604082015260600190565b6020808252825182820181905260009190848201906040850190845b81811015612ec75783516001600160a01b031683529284019291840191600101612ea2565b50909695505050505050565b901515815260200190565b90815260200190565b918252602082015260400190565b60208082526022908201527f64656e6f6d696e61746f72206d7573742062652067726561746572207468616e604082015261020360f41b606082015260800190565b6020808252818101527f53616665436173743a2076616c7565206d75737420626520706f736974697665604082015260600190565b6020808252602e908201527f496e697469616c697a61626c653a20636f6e747261637420697320616c72656160408201526d191e481a5b9a5d1a585b1a5e995960921b606082015260800190565b60208082526028908201527f53616665436173743a2076616c756520646f65736e27742066697420696e2061604082015267371034b73a191a9b60c11b606082015260800190565b60208082526021908201527f4661697274726164654d6174683a20696e76657273696f6e206f766572666c6f6040820152607760f81b606082015260800190565b600060a082019050825182526020830151602083015260408301516040830152606083015160608301526080830151608083015292915050565b81516001600160a01b03908116825260208084015190911690820152604080830151908201526060918201519181019190915260800190565b81518152602080830151908201526040918201519181019190915260600190565b62ffffff91909116815260200190565b9283526020830191909152604082015260600190565b63ffffffff91909116815260200190565b60ff91909116815260200190565b604051601f8201601f1916810167ffffffffffffffff81118282101715613145576131456132c4565b604052919050565b600062ffffff80831681851680830382111561316b5761316b6132ae565b01949350505050565b60008261318f57634e487b7160e01b81526012600452602481fd5b600160ff1b8214600019841416156131a9576131a96132ae565b500590565b60006001600160ff1b03818413828413808216868404861116156131d4576131d46132ae565b600160ff1b848712828116878305891216156131f2576131f26132ae565b85871292508782058712848416161561320d5761320d6132ae565b87850587128184161615613223576132236132ae565b505050929093029392505050565b60008083128015600160ff1b85018412161561324f5761324f6132ae565b6001600160ff1b038401831381161561326a5761326a6132ae565b50500390565b600062ffffff8381169083168181101561328c5761328c6132ae565b039392505050565b6000600160ff1b8214156132aa576132aa6132ae565b0390565b634e487b7160e01b600052601160045260246000fd5b634e487b7160e01b600052604160045260246000fd5b6001600160a01b03811681146132ef57600080fd5b50565b80151581146132ef57600080fd5b62ffffff811681146132ef57600080fdfea2646970667358221220204f57ca77928fe02657a57c4b5ed24e59c76ccdce03ad872bc1344d46e8f1fc64736f6c63430008010033",
    "linkReferences": {},
    "deployedLinkReferences": {}
}