{
    "_format": "hh-sol-artifact-1",
    "contractName": "FairtradeReader",
    "sourceName": "contracts/FairtradeReader.sol",
    "abi": [
        {
            "inputs": [
                {
                    "internalType": "address",
                    "name": "baseToken",
                    "type": "address"
                },
                {
                    "internalType": "uint256",
                    "name": "amount0Desired",
                    "type": "uint256"
                },
                {
                    "internalType": "uint256",
                    "name": "amount1Desired",
                    "type": "uint256"
                }
            ],
            "name": "calcLiquidityByTokenAmounts",
            "outputs": [
                {
                    "internalType": "uint256",
                    "name": "",
                    "type": "uint256"
                }
            ],
            "stateMutability": "view",
            "type": "function"
        },
        {
            "inputs": [
                {
                    "internalType": "address",
                    "name": "baseToken",
                    "type": "address"
                },
                {
                    "internalType": "uint256",
                    "name": "liquidity",
                    "type": "uint256"
                }
            ],
            "name": "calcTokenAmountsByLiquidity",
            "outputs": [
                {
                    "internalType": "uint256",
                    "name": "amount0",
                    "type": "uint256"
                },
                {
                    "internalType": "uint256",
                    "name": "amount1",
                    "type": "uint256"
                }
            ],
            "stateMutability": "view",
            "type": "function"
        },
        {
            "inputs": [
                {
                    "internalType": "address",
                    "name": "baseToken",
                    "type": "address"
                }
            ],
            "name": "find_pool",
            "outputs": [
                {
                    "internalType": "address",
                    "name": "",
                    "type": "address"
                }
            ],
            "stateMutability": "view",
            "type": "function"
        },
        {
            "inputs": [
                {
                    "internalType": "address",
                    "name": "trader",
                    "type": "address"
                },
                {
                    "internalType": "address",
                    "name": "baseToken",
                    "type": "address"
                }
            ],
            "name": "getAccountInfo",
            "outputs": [
                {
                    "components": [
                        {
                            "internalType": "int256",
                            "name": "takerPositionSize",
                            "type": "int256"
                        },
                        {
                            "internalType": "int256",
                            "name": "takerOpenNotional",
                            "type": "int256"
                        },
                        {
                            "internalType": "int256",
                            "name": "lastTwPremiumGrowthGlobal",
                            "type": "int256"
                        }
                    ],
                    "internalType": "struct Account.TakerInfo",
                    "name": "",
                    "type": "tuple"
                }
            ],
            "stateMutability": "view",
            "type": "function"
        },
        {
            "inputs": [
                {
                    "internalType": "address",
                    "name": "trader",
                    "type": "address"
                }
            ],
            "name": "getAccountValue",
            "outputs": [
                {
                    "internalType": "int256",
                    "name": "",
                    "type": "int256"
                }
            ],
            "stateMutability": "view",
            "type": "function"
        },
        {
            "inputs": [
                {
                    "internalType": "address",
                    "name": "_pool",
                    "type": "address"
                }
            ],
            "name": "getAdminFeeRatio",
            "outputs": [
                {
                    "internalType": "uint256",
                    "name": "",
                    "type": "uint256"
                }
            ],
            "stateMutability": "view",
            "type": "function"
        },
        {
            "inputs": [],
            "name": "getAdminFeeReceiver",
            "outputs": [
                {
                    "internalType": "address",
                    "name": "",
                    "type": "address"
                }
            ],
            "stateMutability": "view",
            "type": "function"
        },
        {
            "inputs": [
                {
                    "internalType": "address",
                    "name": "trader",
                    "type": "address"
                }
            ],
            "name": "getAllPendingFundingPayment",
            "outputs": [
                {
                    "internalType": "int256",
                    "name": "",
                    "type": "int256"
                }
            ],
            "stateMutability": "view",
            "type": "function"
        },
        {
            "inputs": [],
            "name": "getAmmFactory",
            "outputs": [
                {
                    "internalType": "address",
                    "name": "",
                    "type": "address"
                }
            ],
            "stateMutability": "view",
            "type": "function"
        },
        {
            "inputs": [
                {
                    "internalType": "address",
                    "name": "baseToken",
                    "type": "address"
                },
                {
                    "internalType": "uint256",
                    "name": "amount",
                    "type": "uint256"
                },
                {
                    "internalType": "bool",
                    "name": "baseToQuote",
                    "type": "bool"
                },
                {
                    "internalType": "bool",
                    "name": "exactInput",
                    "type": "bool"
                }
            ],
            "name": "getAmountOut",
            "outputs": [
                {
                    "internalType": "uint256",
                    "name": "",
                    "type": "uint256"
                },
                {
                    "internalType": "uint256",
                    "name": "",
                    "type": "uint256"
                }
            ],
            "stateMutability": "view",
            "type": "function"
        },
        {
            "inputs": [
                {
                    "internalType": "address",
                    "name": "account",
                    "type": "address"
                }
            ],
            "name": "getBalance",
            "outputs": [
                {
                    "internalType": "int256",
                    "name": "",
                    "type": "int256"
                }
            ],
            "stateMutability": "view",
            "type": "function"
        },
        {
            "inputs": [
                {
                    "internalType": "address",
                    "name": "baseToken",
                    "type": "address"
                },
                {
                    "internalType": "uint256",
                    "name": "i",
                    "type": "uint256"
                }
            ],
            "name": "getBalances",
            "outputs": [
                {
                    "internalType": "uint256",
                    "name": "",
                    "type": "uint256"
                }
            ],
            "stateMutability": "view",
            "type": "function"
        },
        {
            "inputs": [
                {
                    "internalType": "address",
                    "name": "trader",
                    "type": "address"
                },
                {
                    "internalType": "address",
                    "name": "baseToken",
                    "type": "address"
                }
            ],
            "name": "getBase",
            "outputs": [
                {
                    "internalType": "int256",
                    "name": "",
                    "type": "int256"
                }
            ],
            "stateMutability": "view",
            "type": "function"
        },
        {
            "inputs": [
                {
                    "internalType": "address",
                    "name": "trader",
                    "type": "address"
                }
            ],
            "name": "getBaseTokens",
            "outputs": [
                {
                    "internalType": "address[]",
                    "name": "",
                    "type": "address[]"
                }
            ],
            "stateMutability": "view",
            "type": "function"
        },
        {
            "inputs": [],
            "name": "getClearingHouse",
            "outputs": [
                {
                    "internalType": "address",
                    "name": "",
                    "type": "address"
                }
            ],
            "stateMutability": "view",
            "type": "function"
        },
        {
            "inputs": [],
            "name": "getClearingHouseConfig",
            "outputs": [
                {
                    "internalType": "address",
                    "name": "",
                    "type": "address"
                }
            ],
            "stateMutability": "view",
            "type": "function"
        },
        {
            "inputs": [
                {
                    "internalType": "address",
                    "name": "baseToken",
                    "type": "address"
                },
                {
                    "internalType": "uint256",
                    "name": "i",
                    "type": "uint256"
                }
            ],
            "name": "getCoins",
            "outputs": [
                {
                    "internalType": "address",
                    "name": "",
                    "type": "address"
                }
            ],
            "stateMutability": "view",
            "type": "function"
        },
        {
            "inputs": [
                {
                    "internalType": "address",
                    "name": "baseToken",
                    "type": "address"
                },
                {
                    "internalType": "uint256",
                    "name": "i",
                    "type": "uint256"
                },
                {
                    "internalType": "uint256",
                    "name": "j",
                    "type": "uint256"
                },
                {
                    "internalType": "uint256",
                    "name": "dy",
                    "type": "uint256"
                }
            ],
            "name": "getDx",
            "outputs": [
                {
                    "internalType": "uint256",
                    "name": "",
                    "type": "uint256"
                },
                {
                    "internalType": "uint256",
                    "name": "",
                    "type": "uint256"
                }
            ],
            "stateMutability": "view",
            "type": "function"
        },
        {
            "inputs": [
                {
                    "internalType": "address",
                    "name": "baseToken",
                    "type": "address"
                },
                {
                    "internalType": "uint256",
                    "name": "i",
                    "type": "uint256"
                },
                {
                    "internalType": "uint256",
                    "name": "j",
                    "type": "uint256"
                },
                {
                    "internalType": "uint256",
                    "name": "dx",
                    "type": "uint256"
                }
            ],
            "name": "getDy",
            "outputs": [
                {
                    "internalType": "uint256",
                    "name": "",
                    "type": "uint256"
                },
                {
                    "internalType": "uint256",
                    "name": "",
                    "type": "uint256"
                }
            ],
            "stateMutability": "view",
            "type": "function"
        },
        {
            "inputs": [],
            "name": "getFluctuationLimitRatio",
            "outputs": [
                {
                    "internalType": "uint24",
                    "name": "",
                    "type": "uint24"
                }
            ],
            "stateMutability": "view",
            "type": "function"
        },
        {
            "inputs": [
                {
                    "internalType": "address",
                    "name": "trader",
                    "type": "address"
                }
            ],
            "name": "getFreeCollateral",
            "outputs": [
                {
                    "internalType": "uint256",
                    "name": "",
                    "type": "uint256"
                }
            ],
            "stateMutability": "view",
            "type": "function"
        },
        {
            "inputs": [
                {
                    "internalType": "address",
                    "name": "trader",
                    "type": "address"
                },
                {
                    "internalType": "uint24",
                    "name": "ratio",
                    "type": "uint24"
                }
            ],
            "name": "getFreeCollateralByRatio",
            "outputs": [
                {
                    "internalType": "int256",
                    "name": "",
                    "type": "int256"
                }
            ],
            "stateMutability": "view",
            "type": "function"
        },
        {
            "inputs": [],
            "name": "getImRatio",
            "outputs": [
                {
                    "internalType": "uint24",
                    "name": "",
                    "type": "uint24"
                }
            ],
            "stateMutability": "view",
            "type": "function"
        },
        {
            "inputs": [],
            "name": "getInsuranceFund",
            "outputs": [
                {
                    "internalType": "address",
                    "name": "",
                    "type": "address"
                }
            ],
            "stateMutability": "view",
            "type": "function"
        },
        {
            "inputs": [],
            "name": "getLiquidationPenaltyRatio",
            "outputs": [
                {
                    "internalType": "uint24",
                    "name": "",
                    "type": "uint24"
                }
            ],
            "stateMutability": "view",
            "type": "function"
        },
        {
            "inputs": [
                {
                    "internalType": "address",
                    "name": "trader",
                    "type": "address"
                },
                {
                    "internalType": "address",
                    "name": "baseToken",
                    "type": "address"
                }
            ],
            "name": "getLiquidationPrice",
            "outputs": [
                {
                    "internalType": "uint256",
                    "name": "",
                    "type": "uint256"
                }
            ],
            "stateMutability": "view",
            "type": "function"
        },
        {
            "inputs": [
                {
                    "internalType": "address",
                    "name": "trader",
                    "type": "address"
                },
                {
                    "internalType": "address",
                    "name": "baseToken",
                    "type": "address"
                },
                {
                    "components": [
                        {
                            "internalType": "int256",
                            "name": "twPremium",
                            "type": "int256"
                        },
                        {
                            "internalType": "int256",
                            "name": "twPremiumWithLiquidity",
                            "type": "int256"
                        }
                    ],
                    "internalType": "struct Funding.Growth",
                    "name": "fundingGrowthGlobal",
                    "type": "tuple"
                }
            ],
            "name": "getLiquidityFundingPayment",
            "outputs": [
                {
                    "internalType": "int256",
                    "name": "liquidityFundingPayment",
                    "type": "int256"
                }
            ],
            "stateMutability": "view",
            "type": "function"
        },
        {
            "inputs": [],
            "name": "getLiquidityProvider",
            "outputs": [
                {
                    "internalType": "address",
                    "name": "",
                    "type": "address"
                }
            ],
            "stateMutability": "view",
            "type": "function"
        },
        {
            "inputs": [
                {
                    "internalType": "address",
                    "name": "trader",
                    "type": "address"
                }
            ],
            "name": "getMarginRequirementForLiquidation",
            "outputs": [
                {
                    "internalType": "int256",
                    "name": "",
                    "type": "int256"
                }
            ],
            "stateMutability": "view",
            "type": "function"
        },
        {
            "inputs": [],
            "name": "getMarketTaker",
            "outputs": [
                {
                    "internalType": "address",
                    "name": "",
                    "type": "address"
                }
            ],
            "stateMutability": "view",
            "type": "function"
        },
        {
            "inputs": [],
            "name": "getMaxAmmsPerAccount",
            "outputs": [
                {
                    "internalType": "uint8",
                    "name": "",
                    "type": "uint8"
                }
            ],
            "stateMutability": "view",
            "type": "function"
        },
        {
            "inputs": [],
            "name": "getMaxFundingRate",
            "outputs": [
                {
                    "internalType": "uint24",
                    "name": "",
                    "type": "uint24"
                }
            ],
            "stateMutability": "view",
            "type": "function"
        },
        {
            "inputs": [],
            "name": "getMmRatio",
            "outputs": [
                {
                    "internalType": "uint24",
                    "name": "",
                    "type": "uint24"
                }
            ],
            "stateMutability": "view",
            "type": "function"
        },
        {
            "inputs": [
                {
                    "internalType": "address",
                    "name": "trader",
                    "type": "address"
                },
                {
                    "internalType": "address",
                    "name": "baseToken",
                    "type": "address"
                }
            ],
            "name": "getOpenOrder",
            "outputs": [
                {
                    "components": [
                        {
                            "internalType": "uint256",
                            "name": "liquidity",
                            "type": "uint256"
                        },
                        {
                            "internalType": "int256",
                            "name": "lastTwPremiumGrowth",
                            "type": "int256"
                        },
                        {
                            "internalType": "int256",
                            "name": "lastTwPremiumWithLiquidityGrowth",
                            "type": "int256"
                        },
                        {
                            "internalType": "uint256",
                            "name": "baseDebt",
                            "type": "uint256"
                        },
                        {
                            "internalType": "uint256",
                            "name": "quoteDebt",
                            "type": "uint256"
                        }
                    ],
                    "internalType": "struct Account.LPInfo",
                    "name": "",
                    "type": "tuple"
                }
            ],
            "stateMutability": "view",
            "type": "function"
        },
        {
            "inputs": [],
            "name": "getPartialCloseRatio",
            "outputs": [
                {
                    "internalType": "uint24",
                    "name": "",
                    "type": "uint24"
                }
            ],
            "stateMutability": "view",
            "type": "function"
        },
        {
            "inputs": [
                {
                    "internalType": "address",
                    "name": "trader",
                    "type": "address"
                },
                {
                    "internalType": "address",
                    "name": "baseToken",
                    "type": "address"
                }
            ],
            "name": "getPendingFundingPayment",
            "outputs": [
                {
                    "internalType": "int256",
                    "name": "",
                    "type": "int256"
                }
            ],
            "stateMutability": "view",
            "type": "function"
        },
        {
            "inputs": [
                {
                    "internalType": "address",
                    "name": "trader",
                    "type": "address"
                }
            ],
            "name": "getPnl",
            "outputs": [
                {
                    "internalType": "int256",
                    "name": "owedRealizedPnl",
                    "type": "int256"
                },
                {
                    "internalType": "int256",
                    "name": "unrealizedPnl",
                    "type": "int256"
                }
            ],
            "stateMutability": "view",
            "type": "function"
        },
        {
            "inputs": [
                {
                    "components": [
                        {
                            "internalType": "address",
                            "name": "trader",
                            "type": "address"
                        },
                        {
                            "internalType": "address",
                            "name": "baseToken",
                            "type": "address"
                        },
                        {
                            "internalType": "int256",
                            "name": "base",
                            "type": "int256"
                        },
                        {
                            "internalType": "int256",
                            "name": "quote",
                            "type": "int256"
                        }
                    ],
                    "internalType": "struct IMarketTaker.RealizePnlParams",
                    "name": "params",
                    "type": "tuple"
                }
            ],
            "name": "getPnlToBeRealized",
            "outputs": [
                {
                    "internalType": "int256",
                    "name": "",
                    "type": "int256"
                }
            ],
            "stateMutability": "view",
            "type": "function"
        },
        {
            "inputs": [],
            "name": "getPoolLength",
            "outputs": [
                {
                    "internalType": "uint256",
                    "name": "",
                    "type": "uint256"
                }
            ],
            "stateMutability": "view",
            "type": "function"
        },
        {
            "inputs": [
                {
                    "internalType": "uint256",
                    "name": "i",
                    "type": "uint256"
                }
            ],
            "name": "getPoolList",
            "outputs": [
                {
                    "internalType": "address",
                    "name": "",
                    "type": "address"
                }
            ],
            "stateMutability": "view",
            "type": "function"
        },
        {
            "inputs": [],
            "name": "getPositionMgmt",
            "outputs": [
                {
                    "internalType": "address",
                    "name": "",
                    "type": "address"
                }
            ],
            "stateMutability": "view",
            "type": "function"
        },
        {
            "inputs": [
                {
                    "internalType": "address",
                    "name": "baseToken",
                    "type": "address"
                }
            ],
            "name": "getPriceCurrent",
            "outputs": [
                {
                    "internalType": "uint256",
                    "name": "",
                    "type": "uint256"
                }
            ],
            "stateMutability": "view",
            "type": "function"
        },
        {
            "inputs": [
                {
                    "internalType": "address",
                    "name": "baseToken",
                    "type": "address"
                }
            ],
            "name": "getPriceLast",
            "outputs": [
                {
                    "internalType": "uint256",
                    "name": "",
                    "type": "uint256"
                }
            ],
            "stateMutability": "view",
            "type": "function"
        },
        {
            "inputs": [
                {
                    "internalType": "address",
                    "name": "baseToken",
                    "type": "address"
                }
            ],
            "name": "getPriceOracle",
            "outputs": [
                {
                    "internalType": "uint256",
                    "name": "",
                    "type": "uint256"
                }
            ],
            "stateMutability": "view",
            "type": "function"
        },
        {
            "inputs": [
                {
                    "internalType": "address",
                    "name": "baseToken",
                    "type": "address"
                }
            ],
            "name": "getPriceScale",
            "outputs": [
                {
                    "internalType": "uint256",
                    "name": "",
                    "type": "uint256"
                }
            ],
            "stateMutability": "view",
            "type": "function"
        },
        {
            "inputs": [
                {
                    "internalType": "address",
                    "name": "trader",
                    "type": "address"
                },
                {
                    "internalType": "address",
                    "name": "baseToken",
                    "type": "address"
                }
            ],
            "name": "getQuote",
            "outputs": [
                {
                    "internalType": "int256",
                    "name": "",
                    "type": "int256"
                }
            ],
            "stateMutability": "view",
            "type": "function"
        },
        {
            "inputs": [],
            "name": "getQuoteToken",
            "outputs": [
                {
                    "internalType": "address",
                    "name": "",
                    "type": "address"
                }
            ],
            "stateMutability": "view",
            "type": "function"
        },
        {
            "inputs": [],
            "name": "getSettlementToken",
            "outputs": [
                {
                    "internalType": "address",
                    "name": "",
                    "type": "address"
                }
            ],
            "stateMutability": "view",
            "type": "function"
        },
        {
            "inputs": [],
            "name": "getSettlementTokenBalanceCap",
            "outputs": [
                {
                    "internalType": "uint256",
                    "name": "",
                    "type": "uint256"
                }
            ],
            "stateMutability": "view",
            "type": "function"
        },
        {
            "inputs": [
                {
                    "internalType": "address",
                    "name": "trader",
                    "type": "address"
                },
                {
                    "internalType": "address",
                    "name": "baseToken",
                    "type": "address"
                }
            ],
            "name": "getTakerOpenNotional",
            "outputs": [
                {
                    "internalType": "int256",
                    "name": "",
                    "type": "int256"
                }
            ],
            "stateMutability": "view",
            "type": "function"
        },
        {
            "inputs": [
                {
                    "internalType": "address",
                    "name": "trader",
                    "type": "address"
                },
                {
                    "internalType": "address",
                    "name": "baseToken",
                    "type": "address"
                }
            ],
            "name": "getTakerPositionSize",
            "outputs": [
                {
                    "internalType": "int256",
                    "name": "",
                    "type": "int256"
                }
            ],
            "stateMutability": "view",
            "type": "function"
        },
        {
            "inputs": [
                {
                    "internalType": "address",
                    "name": "pool",
                    "type": "address"
                }
            ],
            "name": "getToken",
            "outputs": [
                {
                    "internalType": "address",
                    "name": "",
                    "type": "address"
                }
            ],
            "stateMutability": "view",
            "type": "function"
        },
        {
            "inputs": [
                {
                    "internalType": "address",
                    "name": "trader",
                    "type": "address"
                }
            ],
            "name": "getTotalAbsPositionValue",
            "outputs": [
                {
                    "internalType": "uint256",
                    "name": "",
                    "type": "uint256"
                }
            ],
            "stateMutability": "view",
            "type": "function"
        },
        {
            "inputs": [],
            "name": "getTotalDebt",
            "outputs": [
                {
                    "internalType": "uint256",
                    "name": "",
                    "type": "uint256"
                }
            ],
            "stateMutability": "view",
            "type": "function"
        },
        {
            "inputs": [
                {
                    "internalType": "address",
                    "name": "trader",
                    "type": "address"
                }
            ],
            "name": "getTotalDebtValue",
            "outputs": [
                {
                    "internalType": "uint256",
                    "name": "",
                    "type": "uint256"
                }
            ],
            "stateMutability": "view",
            "type": "function"
        },
        {
            "inputs": [
                {
                    "internalType": "address",
                    "name": "trader",
                    "type": "address"
                },
                {
                    "internalType": "address",
                    "name": "baseToken",
                    "type": "address"
                },
                {
                    "internalType": "bool",
                    "name": "fetchBase",
                    "type": "bool"
                }
            ],
            "name": "getTotalLPOrderDebt",
            "outputs": [
                {
                    "internalType": "uint256",
                    "name": "",
                    "type": "uint256"
                }
            ],
            "stateMutability": "view",
            "type": "function"
        },
        {
            "inputs": [
                {
                    "internalType": "address",
                    "name": "trader",
                    "type": "address"
                },
                {
                    "internalType": "address[]",
                    "name": "baseTokens",
                    "type": "address[]"
                }
            ],
            "name": "getTotalLPQuoteAmount",
            "outputs": [
                {
                    "internalType": "int256",
                    "name": "totalQuoteAmountInAmms",
                    "type": "int256"
                }
            ],
            "stateMutability": "view",
            "type": "function"
        },
        {
            "inputs": [
                {
                    "internalType": "address",
                    "name": "baseToken",
                    "type": "address"
                }
            ],
            "name": "getTotalLiquidity",
            "outputs": [
                {
                    "internalType": "uint256",
                    "name": "",
                    "type": "uint256"
                }
            ],
            "stateMutability": "view",
            "type": "function"
        },
        {
            "inputs": [
                {
                    "internalType": "address",
                    "name": "trader",
                    "type": "address"
                },
                {
                    "internalType": "address",
                    "name": "baseToken",
                    "type": "address"
                }
            ],
            "name": "getTotalOpenNotional",
            "outputs": [
                {
                    "internalType": "int256",
                    "name": "",
                    "type": "int256"
                }
            ],
            "stateMutability": "view",
            "type": "function"
        },
        {
            "inputs": [
                {
                    "internalType": "address",
                    "name": "trader",
                    "type": "address"
                },
                {
                    "internalType": "address",
                    "name": "baseToken",
                    "type": "address"
                }
            ],
            "name": "getTotalPositionSize",
            "outputs": [
                {
                    "internalType": "int256",
                    "name": "",
                    "type": "int256"
                }
            ],
            "stateMutability": "view",
            "type": "function"
        },
        {
            "inputs": [
                {
                    "internalType": "address",
                    "name": "trader",
                    "type": "address"
                },
                {
                    "internalType": "address",
                    "name": "baseToken",
                    "type": "address"
                }
            ],
            "name": "getTotalPositionValue",
            "outputs": [
                {
                    "internalType": "int256",
                    "name": "",
                    "type": "int256"
                }
            ],
            "stateMutability": "view",
            "type": "function"
        },
        {
            "inputs": [
                {
                    "internalType": "address",
                    "name": "trader",
                    "type": "address"
                },
                {
                    "internalType": "address",
                    "name": "baseToken",
                    "type": "address"
                },
                {
                    "internalType": "bool",
                    "name": "fetchBase",
                    "type": "bool"
                }
            ],
            "name": "getTotalTokenAmountInAmm",
            "outputs": [
                {
                    "internalType": "uint256",
                    "name": "tokenAmount",
                    "type": "uint256"
                }
            ],
            "stateMutability": "view",
            "type": "function"
        },
        {
            "inputs": [],
            "name": "getTwapInterval",
            "outputs": [
                {
                    "internalType": "uint32",
                    "name": "",
                    "type": "uint32"
                }
            ],
            "stateMutability": "view",
            "type": "function"
        },
        {
            "inputs": [
                {
                    "internalType": "address",
                    "name": "baseToken",
                    "type": "address"
                },
                {
                    "internalType": "uint256",
                    "name": "interval",
                    "type": "uint256"
                }
            ],
            "name": "getTwapMarkPrice",
            "outputs": [
                {
                    "internalType": "uint256",
                    "name": "",
                    "type": "uint256"
                }
            ],
            "stateMutability": "view",
            "type": "function"
        },
        {
            "inputs": [],
            "name": "getVault",
            "outputs": [
                {
                    "internalType": "address",
                    "name": "",
                    "type": "address"
                }
            ],
            "stateMutability": "view",
            "type": "function"
        },
        {
            "inputs": [
                {
                    "internalType": "address",
                    "name": "baseToken",
                    "type": "address"
                }
            ],
            "name": "hasAmm",
            "outputs": [
                {
                    "internalType": "bool",
                    "name": "",
                    "type": "bool"
                }
            ],
            "stateMutability": "view",
            "type": "function"
        },
        {
            "inputs": [
                {
                    "internalType": "address",
                    "name": "trader",
                    "type": "address"
                }
            ],
            "name": "hasOrder",
            "outputs": [
                {
                    "internalType": "bool",
                    "name": "",
                    "type": "bool"
                }
            ],
            "stateMutability": "view",
            "type": "function"
        },
        {
            "inputs": [
                {
                    "internalType": "address",
                    "name": "clearingHouseArg",
                    "type": "address"
                },
                {
                    "internalType": "address",
                    "name": "clearingHouseConfigArg",
                    "type": "address"
                },
                {
                    "internalType": "address",
                    "name": "positionMgmtArg",
                    "type": "address"
                },
                {
                    "internalType": "address",
                    "name": "marketTakerArg",
                    "type": "address"
                },
                {
                    "internalType": "address",
                    "name": "liquidityProviderArg",
                    "type": "address"
                },
                {
                    "internalType": "address",
                    "name": "insuranceFundArg",
                    "type": "address"
                },
                {
                    "internalType": "address",
                    "name": "ammFactoryArg",
                    "type": "address"
                },
                {
                    "internalType": "address",
                    "name": "ammCurveArg",
                    "type": "address"
                },
                {
                    "internalType": "address",
                    "name": "vaultArg",
                    "type": "address"
                }
            ],
            "name": "initialize",
            "outputs": [],
            "stateMutability": "nonpayable",
            "type": "function"
        },
        {
            "inputs": [
                {
                    "internalType": "address",
                    "name": "baseToken",
                    "type": "address"
                },
                {
                    "internalType": "uint256",
                    "name": "amount",
                    "type": "uint256"
                },
                {
                    "internalType": "bool",
                    "name": "baseToQuote",
                    "type": "bool"
                },
                {
                    "internalType": "bool",
                    "name": "exactInput",
                    "type": "bool"
                }
            ],
            "name": "simulatedSwap",
            "outputs": [
                {
                    "internalType": "uint256",
                    "name": "",
                    "type": "uint256"
                },
                {
                    "internalType": "uint256",
                    "name": "",
                    "type": "uint256"
                },
                {
                    "internalType": "uint256",
                    "name": "",
                    "type": "uint256"
                }
            ],
            "stateMutability": "nonpayable",
            "type": "function"
        },
        {
            "inputs": [],
            "name": "vaultDecimals",
            "outputs": [
                {
                    "internalType": "uint8",
                    "name": "",
                    "type": "uint8"
                }
            ],
            "stateMutability": "view",
            "type": "function"
        }
    ],
    "bytecode": "0x608060405234801561001057600080fd5b506132fa806100206000396000f3fe608060405234801561001057600080fd5b50600436106104125760003560e01c806380f57f1111610220578063b3bd6e1211610130578063e3b910e4116100b8578063f764720c11610087578063f764720c146108a0578063f8b2cb4f146108b3578063fa6b4e03146108c6578063fb39b424146108ce578063fedf924b146108e157610412565b8063e3b910e414610852578063ec32c8e314610865578063f5e95acb14610878578063f75c266d1461088d57610412565b8063cb3c7b8e116100ff578063cb3c7b8e14610809578063cc8409281461081c578063cc85f5f21461082f578063d50d01b714610837578063e2a72cce1461084a57610412565b8063b3bd6e12146107c8578063c3999444146107db578063c575ff79146107ee578063cb379aa2146107f657610412565b8063a70bba67116101b3578063af74e73611610182578063af74e7361461075a578063b02dd2111461077a578063b2e271481461079a578063b3944d52146107ad578063b3945690146107b557610412565b8063a70bba6714610724578063a7d60ed214610737578063a85494021461074a578063aa2a82941461075257610412565b80638e8499ba116101ef5780638e8499ba146106ee5780639d6179c3146106f65780639de8ef79146106fe578063a27a64b21461071157610412565b806380f57f11146106ab57806385b0f967146106be57806385eacc77146106de5780638d928af8146106e657610412565b8063508d501d116103265780636ccdc82e116102ae578063742833361161027d57806374283336146106625780637a5b45a01461066a5780637d4dd9541461067d5780637fdc9fc814610690578063803841b7146106a357610412565b80636ccdc82e1461061f5780636e1d2dd2146106325780636f0daecb1461063a57806373b53e931461064f57610412565b806359770438116102f557806359770438146105b35780635ae80951146105c65780635c132184146105d95780636332fef6146105ec57806368f12e121461060c57610412565b8063508d501d14610570578063543ce73a1461058357806355338fc114610598578063564cd092146105a057610412565b8063293a5077116103a95780633e742e3b116103785780633e742e3b1461051a5780633f9351071461052f5780633ffd13031461054257806343a19cc4146105555780634a64d67d1461056857610412565b8063293a5077146104d95780632b7746f1146104ec57806334ce998a146104ff5780633a5ad7791461050757610412565b80631867b480116103e55780631867b4801461047e5780632084d2c6146104915780632185b42a146104b3578063235679a1146104c657610412565b806312803c7d146104175780631393a4691461043557806313ea7c8914610455578063158626f714610476575b600080fd5b61041f6108e9565b60405161042c9190612cea565b60405180910390f35b610448610443366004612baf565b61096b565b60405161042c9190612e91565b6104686104633660046126dd565b6109f2565b60405161042c929190612e9a565b61041f610a7f565b61044861048c366004612715565b610a8e565b6104a461049f366004612994565b610e8d565b60405161042c9392919061309a565b6104486104c13660046128ba565b61116b565b6104486104d4366004612969565b6111fb565b6104486104e73660046126dd565b61127e565b6104486104fa3660046126dd565b6112af565b6104486112e0565b6104486105153660046126dd565b61135d565b61052261138e565b60405161042c91906130b0565b61044861053d366004612715565b61140b565b61044861055036600461293c565b61143e565b610448610563366004612808565b611471565b61041f6114a7565b61044861057e3660046126dd565b6114f6565b61058b611527565b60405161042c919061308a565b61041f6115a4565b6104486105ae3660046129e6565b6115b3565b61041f6105c13660046126dd565b6115e8565b6104486105d43660046126dd565b611669565b6104686105e7366004612994565b61169f565b6105ff6105fa366004612715565b6117f5565b60405161042c9190613069565b61044861061a366004612715565b61187f565b61044861062d3660046126dd565b6118b2565b61058b6118e3565b610642611928565b60405161042c91906130c1565b61046861065d366004612a1a565b6119a5565b61058b611a3c565b610448610678366004612715565b611a81565b61046861068b366004612969565b611ab4565b61044861069e366004612969565b611b45565b61041f611b78565b6104486106b93660046126dd565b611bbd565b6106d16106cc366004612715565b611bee565b60405161042c9190612ff6565b610448611c77565b61041f611cbc565b61041f611ccb565b610642611cda565b61044861070c3660046126dd565b611d1f565b61044861071f3660046126dd565b611d50565b61041f610732366004612969565b611d81565b61041f6107453660046126dd565b611e04565b61058b611e35565b61041f611e7a565b61076d6107683660046126dd565b611e89565b60405161042c9190612e39565b61078d6107883660046126dd565b611f0e565b60405161042c9190612e86565b6104486107a8366004612715565b611f8f565b610448611fc2565b6104486107c3366004612715565b612007565b6104486107d6366004612715565b61203a565b6104486107e93660046126dd565b61206d565b61041f61209e565b610448610804366004612715565b6120b3565b61078d6108173660046126dd565b6120e6565b61046861082a366004612a1a565b612117565b61058b612152565b610448610845366004612715565b612197565b61041f6121ca565b610448610860366004612808565b6121d9565b610448610873366004612852565b61220f565b61088b61088636600461274d565b612245565b005b61044861089b3660046126dd565b612365565b61041f6108ae366004612c60565b612396565b6104486108c13660046126dd565b6123c7565b61041f6123f8565b6104486108dc3660046126dd565b612407565b61058b612438565b600854604080516312803c7d60e01b815290516000926001600160a01b0316916312803c7d916004808301926020929190829003018186803b15801561092e57600080fd5b505afa158015610942573d6000803e3d6000fd5b505050506040513d601f19601f8201168201806040525081019061096691906126f9565b905090565b600354604051631393a46960e01b81526000916001600160a01b031690631393a4699061099c908590600401613030565b60206040518083038186803b1580156109b457600080fd5b505afa1580156109c8573d6000803e3d6000fd5b505050506040513d601f19601f820116820180604052508101906109ec9190612b23565b92915050565b6002546040516313ea7c8960e01b815260009182916001600160a01b03909116906313ea7c8990610a27908690600401612cea565b604080518083038186803b158015610a3e57600080fd5b505afa158015610a52573d6000803e3d6000fd5b505050506040513d601f19601f82011682018060405250810190610a769190612b3b565b91509150915091565b6005546001600160a01b031690565b60008054604051635ae8095160e01b815282916201000090046001600160a01b031690635ae8095190610ac5908790600401612cea565b60206040518083038186803b158015610add57600080fd5b505afa158015610af1573d6000803e3d6000fd5b505050506040513d601f19601f82011682018060405250810190610b159190612b23565b600254604051633478970960e11b81529192506000916001600160a01b03909116906368f12e1290610b4d9088908890600401612cfe565b60206040518083038186803b158015610b6557600080fd5b505afa158015610b79573d6000803e3d6000fd5b505050506040513d601f19601f82011682018060405250810190610b9d9190612b23565b905080610baf576000925050506109ec565b6000846001600160a01b03166312080647600160009054906101000a90046001600160a01b03166001600160a01b0316633e742e3b6040518163ffffffff1660e01b815260040160206040518083038186803b158015610c0e57600080fd5b505afa158015610c22573d6000803e3d6000fd5b505050506040513d601f19601f82011682018060405250810190610c469190612ca5565b6040518263ffffffff1660e01b8152600401610c6291906130b0565b60206040518083038186803b158015610c7a57600080fd5b505afa158015610c8e573d6000803e3d6000fd5b505050506040513d601f19601f82011682018060405250810190610cb29190612b23565b600254604051633666e41760e11b81529192506000916001600160a01b0390911690636ccdc82e90610ce8908a90600401612cea565b60206040518083038186803b158015610d0057600080fd5b505afa158015610d14573d6000803e3d6000fd5b505050506040513d601f19601f82011682018060405250810190610d389190612b23565b90506000600160009054906101000a90046001600160a01b03166001600160a01b031663a85494026040518163ffffffff1660e01b815260040160206040518083038186803b158015610d8a57600080fd5b505afa158015610d9e573d6000803e3d6000fd5b505050506040513d601f19601f82011682018060405250810190610dc29190612c44565b90506000808513610dec57610de7610ddd83620f4240613100565b62ffffff1661247d565b610dfc565b610dfc610ddd83620f4240613223565b90506000610e12610e0d85856124aa565b61247d565b610e1c90886131e4565b90506000610e2e8784620f42406124bf565b9050600081610e4584670de0b6b3a7640000613161565b610e4f9190613127565b610e588861247d565b610e6291906131e4565b90506000811215610e74576000610e7d565b610e7d81612563565b9c9b505050505050505050505050565b60008060008315610f72578415610f3757600080546040516349cf2a6160e01b8152620100009091046001600160a01b0316916349cf2a6191610eda918b91600191908c90600401612dbb565b606060405180830381600087803b158015610ef457600080fd5b505af1158015610f08573d6000803e3d6000fd5b505050506040513d601f19601f82011682018060405250810190610f2c9190612c78565b925092509250611161565b600080546040516349cf2a6160e01b8152620100009091046001600160a01b0316916349cf2a6191610eda918b916001908c90600401612dbb565b841561109b57600754604051631990812560e31b81526000916001600160a01b03169063cc84092890610fb0908b9060019086908d90600401612dbb565b604080518083038186803b158015610fc757600080fd5b505afa158015610fdb573d6000803e3d6000fd5b505050506040513d601f19601f82011682018060405250810190610fff9190612b3b565b50600080546040516349cf2a6160e01b81529293506201000090046001600160a01b0316916349cf2a619161103d918c916001918790600401612dbb565b606060405180830381600087803b15801561105757600080fd5b505af115801561106b573d6000803e3d6000fd5b505050506040513d601f19601f8201168201806040525081019061108f9190612c78565b93509350935050611161565b600754604051631990812560e31b81526000916001600160a01b03169063cc840928906110d3908b9085906001908d90600401612dbb565b604080518083038186803b1580156110ea57600080fd5b505afa1580156110fe573d6000803e3d6000fd5b505050506040513d601f19601f820116820180604052508101906111229190612b3b565b50600080546040516349cf2a6160e01b81529293506201000090046001600160a01b0316916349cf2a619161103d918c91906001908790600401612dbb565b9450945094915050565b600480546040516310c2da1560e11b81526000926001600160a01b0390921691632185b42a916111a19188918891889101612d6c565b60206040518083038186803b1580156111b957600080fd5b505afa1580156111cd573d6000803e3d6000fd5b505050506040513d601f19601f820116820180604052508101906111f19190612b23565b90505b9392505050565b60075460405163235679a160e01b81526000916001600160a01b03169063235679a19061122e9086908690600401612dff565b60206040518083038186803b15801561124657600080fd5b505afa15801561125a573d6000803e3d6000fd5b505050506040513d601f19601f820116820180604052508101906111f49190612b23565b60025460405163293a507760e01b81526000916001600160a01b03169063293a50779061099c908590600401612cea565b600754604051632b7746f160e01b81526000916001600160a01b031690632b7746f19061099c908590600401612cea565b60085460408051631a674cc560e11b815290516000926001600160a01b0316916334ce998a916004808301926020929190829003018186803b15801561132557600080fd5b505afa158015611339573d6000803e3d6000fd5b505050506040513d601f19601f820116820180604052508101906109669190612b23565b600754604051633a5ad77960e01b81526000916001600160a01b031690633a5ad7799061099c908590600401612cea565b60015460408051633e742e3b60e01b815290516000926001600160a01b031691633e742e3b916004808301926020929190829003018186803b1580156113d357600080fd5b505afa1580156113e7573d6000803e3d6000fd5b505050506040513d601f19601f820116820180604052508101906109669190612ca5565b600254604051633f93510760e01b81526000916001600160a01b031690633f9351079061122e9086908690600401612cfe565b600854604051633ffd130360e01b81526000916001600160a01b031690633ffd13039061122e9086908690600401612de1565b600480546040516310e8673160e21b81526000926001600160a01b03909216916343a19cc4916111a19188918891889101612d18565b60008060029054906101000a90046001600160a01b03166001600160a01b0316634a64d67d6040518163ffffffff1660e01b815260040160206040518083038186803b15801561092e57600080fd5b60065460405163d88bf68d60e01b81526000916001600160a01b03169063d88bf68d9061099c908590600401612cea565b60015460408051632a1e739d60e11b815290516000926001600160a01b03169163543ce73a916004808301926020929190829003018186803b15801561156c57600080fd5b505afa158015611580573d6000803e3d6000fd5b505050506040513d601f19601f820116820180604052508101906109669190612c44565b6003546001600160a01b031690565b600754604051632b26684960e11b81526000916001600160a01b03169063564cd092906111a190879087908790600401612e18565b600654604051634bbec89160e11b81526000916001600160a01b03169063977d912290611619908590600401612cea565b60206040518083038186803b15801561163157600080fd5b505afa158015611645573d6000803e3d6000fd5b505050506040513d601f19601f820116820180604052508101906109ec91906126f9565b60008054604051635ae8095160e01b8152620100009091046001600160a01b031690635ae809519061099c908590600401612cea565b600080831561177657821561173e576007546040516373b53e9360e01b81526001600160a01b03909116906373b53e93906116e69089906001906000908b90600401612dbb565b604080518083038186803b1580156116fd57600080fd5b505afa158015611711573d6000803e3d6000fd5b505050506040513d601f19601f820116820180604052508101906117359190612b3b565b915091506117ec565b600754604051631990812560e31b81526001600160a01b039091169063cc840928906116e69089906001906000908b90600401612dbb565b82156117b4576007546040516373b53e9360e01b81526001600160a01b03909116906373b53e93906116e69089906000906001908b90600401612dbb565b600754604051631990812560e31b81526001600160a01b039091169063cc840928906116e69089906000906001908b90600401612dbb565b94509492505050565b6117fd61268d565b6002546040516331997f7b60e11b81526001600160a01b0390911690636332fef69061182f9086908690600401612cfe565b60606040518083038186803b15801561184757600080fd5b505afa15801561185b573d6000803e3d6000fd5b505050506040513d601f19601f820116820180604052508101906111f49190612c07565b600254604051633478970960e11b81526000916001600160a01b0316906368f12e129061122e9086908690600401612cfe565b600254604051633666e41760e11b81526000916001600160a01b031690636ccdc82e9061099c908590600401612cea565b6001546040805163370e96e960e11b815290516000926001600160a01b031691636e1d2dd2916004808301926020929190829003018186803b15801561156c57600080fd5b60015460408051636f0daecb60e01b815290516000926001600160a01b031691636f0daecb916004808301926020929190829003018186803b15801561196d57600080fd5b505afa158015611981573d6000803e3d6000fd5b505050506040513d601f19601f820116820180604052508101906109669190612cc9565b6007546040516373b53e9360e01b815260009182916001600160a01b03909116906373b53e93906119e0908990899089908990600401612dbb565b604080518083038186803b1580156119f757600080fd5b505afa158015611a0b573d6000803e3d6000fd5b505050506040513d601f19601f82011682018060405250810190611a2f9190612b3b565b9150915094509492505050565b60015460408051633a14199b60e11b815290516000926001600160a01b0316916374283336916004808301926020929190829003018186803b15801561156c57600080fd5b6002546040516303d2da2d60e51b81526000916001600160a01b031690637a5b45a09061122e9086908690600401612cfe565b600754604051631f53765560e21b815260009182916001600160a01b0390911690637d4dd95490611aeb9087908790600401612dff565b604080518083038186803b158015611b0257600080fd5b505afa158015611b16573d6000803e3d6000fd5b505050506040513d601f19601f82011682018060405250810190611b3a9190612b3b565b915091509250929050565b600754604051630ffb93f960e31b81526000916001600160a01b031690637fdc9fc89061122e9086908690600401612dff565b6006546040805163cab4d3db60e01b815290516000926001600160a01b03169163cab4d3db916004808301926020929190829003018186803b15801561092e57600080fd5b6003546040516380f57f1160e01b81526000916001600160a01b0316906380f57f119061099c908590600401612cea565b611bf66126ae565b600480546040516385b0f96760e01b81526001600160a01b03909116916385b0f96791611c27918791879101612cfe565b60a06040518083038186803b158015611c3f57600080fd5b505afa158015611c53573d6000803e3d6000fd5b505050506040513d601f19601f820116820180604052508101906111f49190612b5e565b600154604080516385eacc7760e01b815290516000926001600160a01b0316916385eacc77916004808301926020929190829003018186803b15801561132557600080fd5b6008546001600160a01b031690565b6002546001600160a01b031690565b6008546040805163313ce56760e01b815290516000926001600160a01b03169163313ce567916004808301926020929190829003018186803b15801561196d57600080fd5b600754604051639de8ef7960e01b81526000916001600160a01b031690639de8ef799061099c908590600401612cea565b60075460405163513d325960e11b81526000916001600160a01b03169063a27a64b29061099c908590600401612cea565b60075460405163a70bba6760e01b81526000916001600160a01b03169063a70bba6790611db49086908690600401612dff565b60206040518083038186803b158015611dcc57600080fd5b505afa158015611de0573d6000803e3d6000fd5b505050506040513d601f19601f820116820180604052508101906111f491906126f9565b6006546040516353eb076960e11b81526000916001600160a01b03169063a7d60ed290611619908590600401612cea565b6001546040805163542a4a0160e11b815290516000926001600160a01b03169163a8549402916004808301926020929190829003018186803b15801561156c57600080fd5b6001546001600160a01b031690565b6002546040516357ba739b60e11b81526060916001600160a01b03169063af74e73690611eba908590600401612cea565b60006040518083038186803b158015611ed257600080fd5b505afa158015611ee6573d6000803e3d6000fd5b505050506040513d6000823e601f3d908101601f191682016040526109ec9190810190612a54565b6006546040516372971b3f60e01b81526000916001600160a01b0316906372971b3f90611f3f908590600401612cea565b60206040518083038186803b158015611f5757600080fd5b505afa158015611f6b573d6000803e3d6000fd5b505050506040513d601f19601f820116820180604052508101906109ec9190612b07565b60025460405163165c4e2960e31b81526000916001600160a01b03169063b2e271489061122e9086908690600401612cfe565b60065460408051634ab5571d60e11b815290516000926001600160a01b03169163956aae3a916004808301926020929190829003018186803b15801561132557600080fd5b600254604051630b39456960e41b81526000916001600160a01b03169063b39456909061122e9086908690600401612cfe565b6002546040516359deb70960e11b81526000916001600160a01b03169063b3bd6e129061122e9086908690600401612cfe565b6008546040516330e6651160e21b81526000916001600160a01b03169063c39994449061099c908590600401612cea565b6000546201000090046001600160a01b031690565b60035460405163659bcd5160e11b81526000916001600160a01b03169063cb379aa29061122e9086908690600401612cfe565b60025460405163659e3dc760e11b81526000916001600160a01b03169063cb3c7b8e90611f3f908590600401612cea565b600754604051631990812560e31b815260009182916001600160a01b039091169063cc840928906119e0908990899089908990600401612dbb565b60015460408051636642faf960e11b815290516000926001600160a01b03169163cc85f5f2916004808301926020929190829003018186803b15801561156c57600080fd5b60025460405163d50d01b760e01b81526000916001600160a01b03169063d50d01b79061122e9086908690600401612cfe565b6004546001600160a01b031690565b600480546040516338ee443960e21b81526000926001600160a01b039092169163e3b910e4916111a19188918891889101612d18565b6004805460405163ec32c8e360e01b81526000926001600160a01b039092169163ec32c8e3916111a19188918891889101612d3c565b600054610100900460ff168061225e575060005460ff16155b6122835760405162461bcd60e51b815260040161227a90612f1f565b60405180910390fd5b600054610100900460ff161580156122ae576000805460ff1961ff0019909116610100171660011790555b6000805462010000600160b01b031916620100006001600160a01b038d81169190910291909117909155600180546001600160a01b03199081168c8416179091556002805482168b84161790556003805482168a8416179055600480548216898416179055600580548216888416179055600680548216878416179055600780548216868416179055600880549091169184169190911790558015612359576000805461ff00191690555b50505050505050505050565b60025460405163f75c266d60e01b81526000916001600160a01b03169063f75c266d9061099c908590600401612cea565b600654604051631d0eaec760e11b81526000916001600160a01b031690633a1d5d8e90611619908590600401612e91565b60085460405163f8b2cb4f60e01b81526000916001600160a01b03169063f8b2cb4f9061099c908590600401612cea565b6006546001600160a01b031690565b600754604051633ece6d0960e21b81526000916001600160a01b03169063fb39b4249061099c908590600401612cea565b6001546040805163fedf924b60e01b815290516000926001600160a01b03169163fedf924b916004808301926020929190829003018186803b15801561156c57600080fd5b60006001600160ff1b038211156124a65760405162461bcd60e51b815260040161227a90612f6d565b5090565b60006111f4838362ffffff16620f4240612585565b600080600085126124d057846124d9565b6124d98561264b565b905060008085126124ea57846124f3565b6124f38561264b565b9050600080871280156125065750600086135b8061251c575060008713801561251c5750600086125b61252757600061252a565b60015b90506000612539848488612585565b90508161254e576125498161247d565b612557565b61255781612679565b98975050505050505050565b6000808212156124a65760405162461bcd60e51b815260040161227a90612eea565b6000808060001985870985870292508281108382030391505080600014156125d257600084116125c75760405162461bcd60e51b815260040161227a90612ea8565b5082900490506111f4565b8084116125de57600080fd5b6000848688096000868103871696879004966002600389028118808a02820302808a02820302808a02820302808a02820302808a02820302808a02909103029181900381900460010186841190950394909402919094039290920491909117919091029150509392505050565b6000600160ff1b82136126705760405162461bcd60e51b815260040161227a90612fb5565b6109ec82613247565b60006126848261247d565b6109ec90613247565b60405180606001604052806000815260200160008152602001600081525090565b6040518060a0016040528060008152602001600081526020016000815260200160008152602001600081525090565b6000602082840312156126ee578081fd5b81356111f48161328d565b60006020828403121561270a578081fd5b81516111f48161328d565b60008060408385031215612727578081fd5b82356127328161328d565b915060208301356127428161328d565b809150509250929050565b60008060008060008060008060006101208a8c03121561276b578485fd5b89356127768161328d565b985060208a01356127868161328d565b975060408a01356127968161328d565b965060608a01356127a68161328d565b955060808a01356127b68161328d565b945060a08a01356127c68161328d565b935060c08a01356127d68161328d565b925060e08a01356127e68161328d565b91506101008a01356127f78161328d565b809150509295985092959850929598565b60008060006060848603121561281c578283fd5b83356128278161328d565b925060208401356128378161328d565b91506040840135612847816132a5565b809150509250925092565b60008060008385036080811215612867578182fd5b84356128728161328d565b935060208501356128828161328d565b92506040603f1982011215612895578182fd5b506128a060406130cf565b604085013581526060909401356020850152509093909250565b6000806000604084860312156128ce578081fd5b83356128d98161328d565b9250602084013567ffffffffffffffff808211156128f5578283fd5b818601915086601f830112612908578283fd5b813581811115612916578384fd5b8760208083028501011115612929578384fd5b6020830194508093505050509250925092565b6000806040838503121561294e578182fd5b82356129598161328d565b91506020830135612742816132b3565b6000806040838503121561297b578182fd5b82356129868161328d565b946020939093013593505050565b600080600080608085870312156129a9578182fd5b84356129b48161328d565b93506020850135925060408501356129cb816132a5565b915060608501356129db816132a5565b939692955090935050565b6000806000606084860312156129fa578081fd5b8335612a058161328d565b95602085013595506040909401359392505050565b60008060008060808587031215612a2f578182fd5b8435612a3a8161328d565b966020860135965060408601359560600135945092505050565b60006020808385031215612a66578182fd5b825167ffffffffffffffff80821115612a7d578384fd5b818501915085601f830112612a90578384fd5b815181811115612aa257612aa2613277565b8381029150612ab28483016130cf565b8181528481019084860184860187018a1015612acc578788fd5b8795505b83861015612afa5780519450612ae58561328d565b84835260019590950194918601918601612ad0565b5098975050505050505050565b600060208284031215612b18578081fd5b81516111f4816132a5565b600060208284031215612b34578081fd5b5051919050565b60008060408385031215612b4d578182fd5b505080516020909101519092909150565b600060a08284031215612b6f578081fd5b612b7960a06130cf565b82518152602083015160208201526040830151604082015260608301516060820152608083015160808201528091505092915050565b600060808284031215612bc0578081fd5b612bca60806130cf565b8235612bd58161328d565b81526020830135612be58161328d565b6020820152604083810135908201526060928301359281019290925250919050565b600060608284031215612c18578081fd5b612c2260606130cf565b8251815260208301516020820152604083015160408201528091505092915050565b600060208284031215612c55578081fd5b81516111f4816132b3565b600060208284031215612c71578081fd5b5035919050565b600080600060608486031215612c8c578081fd5b8351925060208401519150604084015190509250925092565b600060208284031215612cb6578081fd5b815163ffffffff811681146111f4578182fd5b600060208284031215612cda578081fd5b815160ff811681146111f4578182fd5b6001600160a01b0391909116815260200190565b6001600160a01b0392831681529116602082015260400190565b6001600160a01b039384168152919092166020820152901515604082015260600190565b6001600160a01b039384168152919092166020808301919091528251604083015290910151606082015260800190565b6001600160a01b03848116825260406020808401829052908301849052600091859160608501845b87811015612afa578435612da78161328d565b841682529382019390820190600101612d94565b6001600160a01b0394909416845260208401929092526040830152606082015260800190565b6001600160a01b0392909216825262ffffff16602082015260400190565b6001600160a01b03929092168252602082015260400190565b6001600160a01b039390931683526020830191909152604082015260600190565b6020808252825182820181905260009190848201906040850190845b81811015612e7a5783516001600160a01b031683529284019291840191600101612e55565b50909695505050505050565b901515815260200190565b90815260200190565b918252602082015260400190565b60208082526022908201527f64656e6f6d696e61746f72206d7573742062652067726561746572207468616e604082015261020360f41b606082015260800190565b6020808252818101527f53616665436173743a2076616c7565206d75737420626520706f736974697665604082015260600190565b6020808252602e908201527f496e697469616c697a61626c653a20636f6e747261637420697320616c72656160408201526d191e481a5b9a5d1a585b1a5e995960921b606082015260800190565b60208082526028908201527f53616665436173743a2076616c756520646f65736e27742066697420696e2061604082015267371034b73a191a9b60c11b606082015260800190565b60208082526021908201527f4661697274726164654d6174683a20696e76657273696f6e206f766572666c6f6040820152607760f81b606082015260800190565b600060a082019050825182526020830151602083015260408301516040830152606083015160608301526080830151608083015292915050565b81516001600160a01b03908116825260208084015190911690820152604080830151908201526060918201519181019190915260800190565b81518152602080830151908201526040918201519181019190915260600190565b62ffffff91909116815260200190565b9283526020830191909152604082015260600190565b63ffffffff91909116815260200190565b60ff91909116815260200190565b604051601f8201601f1916810167ffffffffffffffff811182821017156130f8576130f8613277565b604052919050565b600062ffffff80831681851680830382111561311e5761311e613261565b01949350505050565b60008261314257634e487b7160e01b81526012600452602481fd5b600160ff1b82146000198414161561315c5761315c613261565b500590565b60006001600160ff1b038184138284138082168684048611161561318757613187613261565b600160ff1b848712828116878305891216156131a5576131a5613261565b8587129250878205871284841616156131c0576131c0613261565b878505871281841616156131d6576131d6613261565b505050929093029392505050565b60008083128015600160ff1b85018412161561320257613202613261565b6001600160ff1b038401831381161561321d5761321d613261565b50500390565b600062ffffff8381169083168181101561323f5761323f613261565b039392505050565b6000600160ff1b82141561325d5761325d613261565b0390565b634e487b7160e01b600052601160045260246000fd5b634e487b7160e01b600052604160045260246000fd5b6001600160a01b03811681146132a257600080fd5b50565b80151581146132a257600080fd5b62ffffff811681146132a257600080fdfea2646970667358221220708cea0e3748df7f57e743152e159812d0c99e24ce8ddae991b26e2baa9f526564736f6c63430008010033",
    "linkReferences": {},
    "deployedLinkReferences": {}
}