{
    "_format": "hh-sol-artifact-1",
    "contractName": "FairtradeReader",
    "sourceName": "contracts/FairtradeReader.sol",
    "abi": [
        {
            "inputs": [
                {
                    "internalType": "address",
                    "name": "baseToken",
                    "type": "address"
                },
                {
                    "internalType": "uint256",
                    "name": "amount0Desired",
                    "type": "uint256"
                },
                {
                    "internalType": "uint256",
                    "name": "amount1Desired",
                    "type": "uint256"
                }
            ],
            "name": "calcLiquidityByTokenAmounts",
            "outputs": [
                {
                    "internalType": "uint256",
                    "name": "",
                    "type": "uint256"
                }
            ],
            "stateMutability": "view",
            "type": "function"
        },
        {
            "inputs": [
                {
                    "internalType": "address",
                    "name": "baseToken",
                    "type": "address"
                },
                {
                    "internalType": "uint256",
                    "name": "liquidity",
                    "type": "uint256"
                }
            ],
            "name": "calcTokenAmountsByLiquidity",
            "outputs": [
                {
                    "internalType": "uint256",
                    "name": "amount0",
                    "type": "uint256"
                },
                {
                    "internalType": "uint256",
                    "name": "amount1",
                    "type": "uint256"
                }
            ],
            "stateMutability": "view",
            "type": "function"
        },
        {
            "inputs": [
                {
                    "internalType": "address",
                    "name": "baseToken",
                    "type": "address"
                }
            ],
            "name": "find_pool",
            "outputs": [
                {
                    "internalType": "address",
                    "name": "",
                    "type": "address"
                }
            ],
            "stateMutability": "view",
            "type": "function"
        },
        {
            "inputs": [
                {
                    "internalType": "address",
                    "name": "trader",
                    "type": "address"
                },
                {
                    "internalType": "address",
                    "name": "baseToken",
                    "type": "address"
                }
            ],
            "name": "getAccountInfo",
            "outputs": [
                {
                    "components": [
                        {
                            "internalType": "int256",
                            "name": "takerPositionSize",
                            "type": "int256"
                        },
                        {
                            "internalType": "int256",
                            "name": "takerOpenNotional",
                            "type": "int256"
                        },
                        {
                            "internalType": "int256",
                            "name": "lastTwPremiumGrowthGlobal",
                            "type": "int256"
                        }
                    ],
                    "internalType": "struct Account.TakerInfo",
                    "name": "",
                    "type": "tuple"
                }
            ],
            "stateMutability": "view",
            "type": "function"
        },
        {
            "inputs": [
                {
                    "internalType": "address",
                    "name": "trader",
                    "type": "address"
                }
            ],
            "name": "getAccountValue",
            "outputs": [
                {
                    "internalType": "int256",
                    "name": "",
                    "type": "int256"
                }
            ],
            "stateMutability": "view",
            "type": "function"
        },
        {
            "inputs": [
                {
                    "internalType": "address",
                    "name": "_pool",
                    "type": "address"
                }
            ],
            "name": "getAdminFeeRatio",
            "outputs": [
                {
                    "internalType": "uint256",
                    "name": "",
                    "type": "uint256"
                }
            ],
            "stateMutability": "view",
            "type": "function"
        },
        {
            "inputs": [],
            "name": "getAdminFeeReceiver",
            "outputs": [
                {
                    "internalType": "address",
                    "name": "",
                    "type": "address"
                }
            ],
            "stateMutability": "view",
            "type": "function"
        },
        {
            "inputs": [
                {
                    "internalType": "address",
                    "name": "trader",
                    "type": "address"
                }
            ],
            "name": "getAllPendingFundingPayment",
            "outputs": [
                {
                    "internalType": "int256",
                    "name": "",
                    "type": "int256"
                }
            ],
            "stateMutability": "view",
            "type": "function"
        },
        {
            "inputs": [
                {
                    "internalType": "address",
                    "name": "baseToken",
                    "type": "address"
                }
            ],
            "name": "getAmmTwapInterval",
            "outputs": [
                {
                    "internalType": "uint256",
                    "name": "",
                    "type": "uint256"
                }
            ],
            "stateMutability": "view",
            "type": "function"
        },
        {
            "inputs": [
                {
                    "internalType": "address",
                    "name": "baseToken",
                    "type": "address"
                },
                {
                    "internalType": "uint256",
                    "name": "amount",
                    "type": "uint256"
                },
                {
                    "internalType": "bool",
                    "name": "baseToQuote",
                    "type": "bool"
                },
                {
                    "internalType": "bool",
                    "name": "exactInput",
                    "type": "bool"
                }
            ],
            "name": "getAmountOut",
            "outputs": [
                {
                    "internalType": "uint256",
                    "name": "",
                    "type": "uint256"
                },
                {
                    "internalType": "uint256",
                    "name": "",
                    "type": "uint256"
                }
            ],
            "stateMutability": "view",
            "type": "function"
        },
        {
            "inputs": [
                {
                    "internalType": "address",
                    "name": "account",
                    "type": "address"
                }
            ],
            "name": "getBalance",
            "outputs": [
                {
                    "internalType": "int256",
                    "name": "",
                    "type": "int256"
                }
            ],
            "stateMutability": "view",
            "type": "function"
        },
        {
            "inputs": [
                {
                    "internalType": "address",
                    "name": "baseToken",
                    "type": "address"
                },
                {
                    "internalType": "uint256",
                    "name": "i",
                    "type": "uint256"
                }
            ],
            "name": "getBalances",
            "outputs": [
                {
                    "internalType": "uint256",
                    "name": "",
                    "type": "uint256"
                }
            ],
            "stateMutability": "view",
            "type": "function"
        },
        {
            "inputs": [
                {
                    "internalType": "address",
                    "name": "trader",
                    "type": "address"
                },
                {
                    "internalType": "address",
                    "name": "baseToken",
                    "type": "address"
                }
            ],
            "name": "getBase",
            "outputs": [
                {
                    "internalType": "int256",
                    "name": "",
                    "type": "int256"
                }
            ],
            "stateMutability": "view",
            "type": "function"
        },
        {
            "inputs": [
                {
                    "internalType": "address",
                    "name": "trader",
                    "type": "address"
                }
            ],
            "name": "getBaseTokens",
            "outputs": [
                {
                    "internalType": "address[]",
                    "name": "",
                    "type": "address[]"
                }
            ],
            "stateMutability": "view",
            "type": "function"
        },
        {
            "inputs": [],
            "name": "getClearingHouse",
            "outputs": [
                {
                    "internalType": "address",
                    "name": "",
                    "type": "address"
                }
            ],
            "stateMutability": "view",
            "type": "function"
        },
        {
            "inputs": [],
            "name": "getClearingHouseConfig",
            "outputs": [
                {
                    "internalType": "address",
                    "name": "",
                    "type": "address"
                }
            ],
            "stateMutability": "view",
            "type": "function"
        },
        {
            "inputs": [
                {
                    "internalType": "address",
                    "name": "baseToken",
                    "type": "address"
                },
                {
                    "internalType": "uint256",
                    "name": "i",
                    "type": "uint256"
                }
            ],
            "name": "getCoins",
            "outputs": [
                {
                    "internalType": "address",
                    "name": "",
                    "type": "address"
                }
            ],
            "stateMutability": "view",
            "type": "function"
        },
        {
            "inputs": [
                {
                    "internalType": "address",
                    "name": "baseToken",
                    "type": "address"
                },
                {
                    "internalType": "uint256",
                    "name": "i",
                    "type": "uint256"
                },
                {
                    "internalType": "uint256",
                    "name": "j",
                    "type": "uint256"
                },
                {
                    "internalType": "uint256",
                    "name": "dy",
                    "type": "uint256"
                }
            ],
            "name": "getDx",
            "outputs": [
                {
                    "internalType": "uint256",
                    "name": "",
                    "type": "uint256"
                },
                {
                    "internalType": "uint256",
                    "name": "",
                    "type": "uint256"
                }
            ],
            "stateMutability": "view",
            "type": "function"
        },
        {
            "inputs": [
                {
                    "internalType": "address",
                    "name": "baseToken",
                    "type": "address"
                },
                {
                    "internalType": "uint256",
                    "name": "i",
                    "type": "uint256"
                },
                {
                    "internalType": "uint256",
                    "name": "j",
                    "type": "uint256"
                },
                {
                    "internalType": "uint256",
                    "name": "dx",
                    "type": "uint256"
                }
            ],
            "name": "getDy",
            "outputs": [
                {
                    "internalType": "uint256",
                    "name": "",
                    "type": "uint256"
                },
                {
                    "internalType": "uint256",
                    "name": "",
                    "type": "uint256"
                }
            ],
            "stateMutability": "view",
            "type": "function"
        },
        {
            "inputs": [],
            "name": "getFactory",
            "outputs": [
                {
                    "internalType": "address",
                    "name": "",
                    "type": "address"
                }
            ],
            "stateMutability": "view",
            "type": "function"
        },
        {
            "inputs": [
                {
                    "internalType": "address",
                    "name": "baseToken",
                    "type": "address"
                }
            ],
            "name": "getFee",
            "outputs": [
                {
                    "internalType": "uint256",
                    "name": "",
                    "type": "uint256"
                }
            ],
            "stateMutability": "view",
            "type": "function"
        },
        {
            "inputs": [],
            "name": "getFluctuationLimitRatio",
            "outputs": [
                {
                    "internalType": "uint24",
                    "name": "",
                    "type": "uint24"
                }
            ],
            "stateMutability": "view",
            "type": "function"
        },
        {
            "inputs": [
                {
                    "internalType": "address",
                    "name": "trader",
                    "type": "address"
                }
            ],
            "name": "getFreeCollateral",
            "outputs": [
                {
                    "internalType": "uint256",
                    "name": "",
                    "type": "uint256"
                }
            ],
            "stateMutability": "view",
            "type": "function"
        },
        {
            "inputs": [
                {
                    "internalType": "address",
                    "name": "trader",
                    "type": "address"
                },
                {
                    "internalType": "uint24",
                    "name": "ratio",
                    "type": "uint24"
                }
            ],
            "name": "getFreeCollateralByRatio",
            "outputs": [
                {
                    "internalType": "int256",
                    "name": "",
                    "type": "int256"
                }
            ],
            "stateMutability": "view",
            "type": "function"
        },
        {
            "inputs": [],
            "name": "getImRatio",
            "outputs": [
                {
                    "internalType": "uint24",
                    "name": "",
                    "type": "uint24"
                }
            ],
            "stateMutability": "view",
            "type": "function"
        },
        {
            "inputs": [],
            "name": "getInsuranceFund",
            "outputs": [
                {
                    "internalType": "address",
                    "name": "",
                    "type": "address"
                }
            ],
            "stateMutability": "view",
            "type": "function"
        },
        {
            "inputs": [],
            "name": "getLiquidationPenaltyRatio",
            "outputs": [
                {
                    "internalType": "uint24",
                    "name": "",
                    "type": "uint24"
                }
            ],
            "stateMutability": "view",
            "type": "function"
        },
        {
            "inputs": [
                {
                    "internalType": "address",
                    "name": "trader",
                    "type": "address"
                },
                {
                    "internalType": "address",
                    "name": "baseToken",
                    "type": "address"
                }
            ],
            "name": "getLiquidationPrice",
            "outputs": [
                {
                    "internalType": "uint256",
                    "name": "",
                    "type": "uint256"
                }
            ],
            "stateMutability": "view",
            "type": "function"
        },
        {
            "inputs": [
                {
                    "internalType": "address",
                    "name": "trader",
                    "type": "address"
                },
                {
                    "internalType": "address",
                    "name": "baseToken",
                    "type": "address"
                },
                {
                    "components": [
                        {
                            "internalType": "int256",
                            "name": "twPremium",
                            "type": "int256"
                        },
                        {
                            "internalType": "int256",
                            "name": "twPremiumWithLiquidity",
                            "type": "int256"
                        }
                    ],
                    "internalType": "struct Funding.Growth",
                    "name": "fundingGrowthGlobal",
                    "type": "tuple"
                }
            ],
            "name": "getLiquidityFundingPayment",
            "outputs": [
                {
                    "internalType": "int256",
                    "name": "liquidityFundingPayment",
                    "type": "int256"
                }
            ],
            "stateMutability": "view",
            "type": "function"
        },
        {
            "inputs": [],
            "name": "getLiquidityProvider",
            "outputs": [
                {
                    "internalType": "address",
                    "name": "",
                    "type": "address"
                }
            ],
            "stateMutability": "view",
            "type": "function"
        },
        {
            "inputs": [
                {
                    "internalType": "address",
                    "name": "trader",
                    "type": "address"
                }
            ],
            "name": "getMarginRequirementForLiquidation",
            "outputs": [
                {
                    "internalType": "int256",
                    "name": "",
                    "type": "int256"
                }
            ],
            "stateMutability": "view",
            "type": "function"
        },
        {
            "inputs": [],
            "name": "getMarketTaker",
            "outputs": [
                {
                    "internalType": "address",
                    "name": "",
                    "type": "address"
                }
            ],
            "stateMutability": "view",
            "type": "function"
        },
        {
            "inputs": [],
            "name": "getMaxAmmsPerAccount",
            "outputs": [
                {
                    "internalType": "uint8",
                    "name": "",
                    "type": "uint8"
                }
            ],
            "stateMutability": "view",
            "type": "function"
        },
        {
            "inputs": [],
            "name": "getMaxFundingRate",
            "outputs": [
                {
                    "internalType": "uint24",
                    "name": "",
                    "type": "uint24"
                }
            ],
            "stateMutability": "view",
            "type": "function"
        },
        {
            "inputs": [],
            "name": "getMmRatio",
            "outputs": [
                {
                    "internalType": "uint24",
                    "name": "",
                    "type": "uint24"
                }
            ],
            "stateMutability": "view",
            "type": "function"
        },
        {
            "inputs": [
                {
                    "internalType": "address",
                    "name": "trader",
                    "type": "address"
                },
                {
                    "internalType": "address",
                    "name": "baseToken",
                    "type": "address"
                }
            ],
            "name": "getOpenOrder",
            "outputs": [
                {
                    "components": [
                        {
                            "internalType": "uint256",
                            "name": "liquidity",
                            "type": "uint256"
                        },
                        {
                            "internalType": "int256",
                            "name": "lastTwPremiumGrowth",
                            "type": "int256"
                        },
                        {
                            "internalType": "int256",
                            "name": "lastTwPremiumWithLiquidityGrowth",
                            "type": "int256"
                        },
                        {
                            "internalType": "uint256",
                            "name": "baseDebt",
                            "type": "uint256"
                        },
                        {
                            "internalType": "uint256",
                            "name": "quoteDebt",
                            "type": "uint256"
                        }
                    ],
                    "internalType": "struct Account.LPInfo",
                    "name": "",
                    "type": "tuple"
                }
            ],
            "stateMutability": "view",
            "type": "function"
        },
        {
            "inputs": [],
            "name": "getPartialCloseRatio",
            "outputs": [
                {
                    "internalType": "uint24",
                    "name": "",
                    "type": "uint24"
                }
            ],
            "stateMutability": "view",
            "type": "function"
        },
        {
            "inputs": [
                {
                    "internalType": "address",
                    "name": "trader",
                    "type": "address"
                },
                {
                    "internalType": "address",
                    "name": "baseToken",
                    "type": "address"
                }
            ],
            "name": "getPendingFundingPayment",
            "outputs": [
                {
                    "internalType": "int256",
                    "name": "",
                    "type": "int256"
                }
            ],
            "stateMutability": "view",
            "type": "function"
        },
        {
            "inputs": [
                {
                    "internalType": "address",
                    "name": "trader",
                    "type": "address"
                }
            ],
            "name": "getPnl",
            "outputs": [
                {
                    "internalType": "int256",
                    "name": "owedRealizedPnl",
                    "type": "int256"
                },
                {
                    "internalType": "int256",
                    "name": "unrealizedPnl",
                    "type": "int256"
                }
            ],
            "stateMutability": "view",
            "type": "function"
        },
        {
            "inputs": [
                {
                    "components": [
                        {
                            "internalType": "address",
                            "name": "trader",
                            "type": "address"
                        },
                        {
                            "internalType": "address",
                            "name": "baseToken",
                            "type": "address"
                        },
                        {
                            "internalType": "int256",
                            "name": "base",
                            "type": "int256"
                        },
                        {
                            "internalType": "int256",
                            "name": "quote",
                            "type": "int256"
                        }
                    ],
                    "internalType": "struct IMarketTaker.RealizePnlParams",
                    "name": "params",
                    "type": "tuple"
                }
            ],
            "name": "getPnlToBeRealized",
            "outputs": [
                {
                    "internalType": "int256",
                    "name": "",
                    "type": "int256"
                }
            ],
            "stateMutability": "view",
            "type": "function"
        },
        {
            "inputs": [],
            "name": "getPoolLength",
            "outputs": [
                {
                    "internalType": "uint256",
                    "name": "",
                    "type": "uint256"
                }
            ],
            "stateMutability": "view",
            "type": "function"
        },
        {
            "inputs": [
                {
                    "internalType": "uint256",
                    "name": "i",
                    "type": "uint256"
                }
            ],
            "name": "getPoolList",
            "outputs": [
                {
                    "internalType": "address",
                    "name": "",
                    "type": "address"
                }
            ],
            "stateMutability": "view",
            "type": "function"
        },
        {
            "inputs": [],
            "name": "getPositionMgmt",
            "outputs": [
                {
                    "internalType": "address",
                    "name": "",
                    "type": "address"
                }
            ],
            "stateMutability": "view",
            "type": "function"
        },
        {
            "inputs": [
                {
                    "internalType": "address",
                    "name": "baseToken",
                    "type": "address"
                }
            ],
            "name": "getPriceCurrent",
            "outputs": [
                {
                    "internalType": "uint256",
                    "name": "",
                    "type": "uint256"
                }
            ],
            "stateMutability": "view",
            "type": "function"
        },
        {
            "inputs": [
                {
                    "internalType": "address",
                    "name": "baseToken",
                    "type": "address"
                }
            ],
            "name": "getPriceLast",
            "outputs": [
                {
                    "internalType": "uint256",
                    "name": "",
                    "type": "uint256"
                }
            ],
            "stateMutability": "view",
            "type": "function"
        },
        {
            "inputs": [
                {
                    "internalType": "address",
                    "name": "baseToken",
                    "type": "address"
                }
            ],
            "name": "getPriceOracle",
            "outputs": [
                {
                    "internalType": "uint256",
                    "name": "",
                    "type": "uint256"
                }
            ],
            "stateMutability": "view",
            "type": "function"
        },
        {
            "inputs": [
                {
                    "internalType": "address",
                    "name": "baseToken",
                    "type": "address"
                }
            ],
            "name": "getPriceScale",
            "outputs": [
                {
                    "internalType": "uint256",
                    "name": "",
                    "type": "uint256"
                }
            ],
            "stateMutability": "view",
            "type": "function"
        },
        {
            "inputs": [
                {
                    "internalType": "address",
                    "name": "trader",
                    "type": "address"
                },
                {
                    "internalType": "address",
                    "name": "baseToken",
                    "type": "address"
                }
            ],
            "name": "getQuote",
            "outputs": [
                {
                    "internalType": "int256",
                    "name": "",
                    "type": "int256"
                }
            ],
            "stateMutability": "view",
            "type": "function"
        },
        {
            "inputs": [],
            "name": "getQuoteToken",
            "outputs": [
                {
                    "internalType": "address",
                    "name": "",
                    "type": "address"
                }
            ],
            "stateMutability": "view",
            "type": "function"
        },
        {
            "inputs": [],
            "name": "getSettlementToken",
            "outputs": [
                {
                    "internalType": "address",
                    "name": "",
                    "type": "address"
                }
            ],
            "stateMutability": "view",
            "type": "function"
        },
        {
            "inputs": [],
            "name": "getSettlementTokenBalanceCap",
            "outputs": [
                {
                    "internalType": "uint256",
                    "name": "",
                    "type": "uint256"
                }
            ],
            "stateMutability": "view",
            "type": "function"
        },
        {
            "inputs": [
                {
                    "internalType": "address",
                    "name": "trader",
                    "type": "address"
                },
                {
                    "internalType": "address",
                    "name": "baseToken",
                    "type": "address"
                }
            ],
            "name": "getTakerOpenNotional",
            "outputs": [
                {
                    "internalType": "int256",
                    "name": "",
                    "type": "int256"
                }
            ],
            "stateMutability": "view",
            "type": "function"
        },
        {
            "inputs": [
                {
                    "internalType": "address",
                    "name": "trader",
                    "type": "address"
                },
                {
                    "internalType": "address",
                    "name": "baseToken",
                    "type": "address"
                }
            ],
            "name": "getTakerPositionSize",
            "outputs": [
                {
                    "internalType": "int256",
                    "name": "",
                    "type": "int256"
                }
            ],
            "stateMutability": "view",
            "type": "function"
        },
        {
            "inputs": [
                {
                    "internalType": "address",
                    "name": "pool",
                    "type": "address"
                }
            ],
            "name": "getToken",
            "outputs": [
                {
                    "internalType": "address",
                    "name": "",
                    "type": "address"
                }
            ],
            "stateMutability": "view",
            "type": "function"
        },
        {
            "inputs": [
                {
                    "internalType": "address",
                    "name": "trader",
                    "type": "address"
                }
            ],
            "name": "getTotalAbsPositionValue",
            "outputs": [
                {
                    "internalType": "uint256",
                    "name": "",
                    "type": "uint256"
                }
            ],
            "stateMutability": "view",
            "type": "function"
        },
        {
            "inputs": [],
            "name": "getTotalDebt",
            "outputs": [
                {
                    "internalType": "uint256",
                    "name": "",
                    "type": "uint256"
                }
            ],
            "stateMutability": "view",
            "type": "function"
        },
        {
            "inputs": [
                {
                    "internalType": "address",
                    "name": "trader",
                    "type": "address"
                }
            ],
            "name": "getTotalDebtValue",
            "outputs": [
                {
                    "internalType": "uint256",
                    "name": "",
                    "type": "uint256"
                }
            ],
            "stateMutability": "view",
            "type": "function"
        },
        {
            "inputs": [
                {
                    "internalType": "address",
                    "name": "trader",
                    "type": "address"
                },
                {
                    "internalType": "address",
                    "name": "baseToken",
                    "type": "address"
                },
                {
                    "internalType": "bool",
                    "name": "fetchBase",
                    "type": "bool"
                }
            ],
            "name": "getTotalLPOrderDebt",
            "outputs": [
                {
                    "internalType": "uint256",
                    "name": "",
                    "type": "uint256"
                }
            ],
            "stateMutability": "view",
            "type": "function"
        },
        {
            "inputs": [
                {
                    "internalType": "address",
                    "name": "trader",
                    "type": "address"
                },
                {
                    "internalType": "address[]",
                    "name": "baseTokens",
                    "type": "address[]"
                }
            ],
            "name": "getTotalLPQuoteAmount",
            "outputs": [
                {
                    "internalType": "int256",
                    "name": "totalQuoteAmountInAmms",
                    "type": "int256"
                }
            ],
            "stateMutability": "view",
            "type": "function"
        },
        {
            "inputs": [
                {
                    "internalType": "address",
                    "name": "baseToken",
                    "type": "address"
                }
            ],
            "name": "getTotalLiquidity",
            "outputs": [
                {
                    "internalType": "uint256",
                    "name": "",
                    "type": "uint256"
                }
            ],
            "stateMutability": "view",
            "type": "function"
        },
        {
            "inputs": [
                {
                    "internalType": "address",
                    "name": "trader",
                    "type": "address"
                },
                {
                    "internalType": "address",
                    "name": "baseToken",
                    "type": "address"
                }
            ],
            "name": "getTotalOpenNotional",
            "outputs": [
                {
                    "internalType": "int256",
                    "name": "",
                    "type": "int256"
                }
            ],
            "stateMutability": "view",
            "type": "function"
        },
        {
            "inputs": [
                {
                    "internalType": "address",
                    "name": "trader",
                    "type": "address"
                },
                {
                    "internalType": "address",
                    "name": "baseToken",
                    "type": "address"
                }
            ],
            "name": "getTotalPositionSize",
            "outputs": [
                {
                    "internalType": "int256",
                    "name": "",
                    "type": "int256"
                }
            ],
            "stateMutability": "view",
            "type": "function"
        },
        {
            "inputs": [
                {
                    "internalType": "address",
                    "name": "trader",
                    "type": "address"
                },
                {
                    "internalType": "address",
                    "name": "baseToken",
                    "type": "address"
                }
            ],
            "name": "getTotalPositionValue",
            "outputs": [
                {
                    "internalType": "int256",
                    "name": "",
                    "type": "int256"
                }
            ],
            "stateMutability": "view",
            "type": "function"
        },
        {
            "inputs": [
                {
                    "internalType": "address",
                    "name": "trader",
                    "type": "address"
                },
                {
                    "internalType": "address",
                    "name": "baseToken",
                    "type": "address"
                },
                {
                    "internalType": "bool",
                    "name": "fetchBase",
                    "type": "bool"
                }
            ],
            "name": "getTotalTokenAmountInAmm",
            "outputs": [
                {
                    "internalType": "uint256",
                    "name": "tokenAmount",
                    "type": "uint256"
                }
            ],
            "stateMutability": "view",
            "type": "function"
        },
        {
            "inputs": [],
            "name": "getTwapInterval",
            "outputs": [
                {
                    "internalType": "uint32",
                    "name": "",
                    "type": "uint32"
                }
            ],
            "stateMutability": "view",
            "type": "function"
        },
        {
            "inputs": [
                {
                    "internalType": "address",
                    "name": "baseToken",
                    "type": "address"
                }
            ],
            "name": "getTwapMarkPrice",
            "outputs": [
                {
                    "internalType": "uint256",
                    "name": "",
                    "type": "uint256"
                }
            ],
            "stateMutability": "view",
            "type": "function"
        },
        {
            "inputs": [],
            "name": "getVault",
            "outputs": [
                {
                    "internalType": "address",
                    "name": "",
                    "type": "address"
                }
            ],
            "stateMutability": "view",
            "type": "function"
        },
        {
            "inputs": [
                {
                    "internalType": "address",
                    "name": "baseToken",
                    "type": "address"
                }
            ],
            "name": "hasAmm",
            "outputs": [
                {
                    "internalType": "bool",
                    "name": "",
                    "type": "bool"
                }
            ],
            "stateMutability": "view",
            "type": "function"
        },
        {
            "inputs": [
                {
                    "internalType": "address",
                    "name": "trader",
                    "type": "address"
                }
            ],
            "name": "hasOrder",
            "outputs": [
                {
                    "internalType": "bool",
                    "name": "",
                    "type": "bool"
                }
            ],
            "stateMutability": "view",
            "type": "function"
        },
        {
            "inputs": [
                {
                    "internalType": "address",
                    "name": "clearingHouseArg",
                    "type": "address"
                },
                {
                    "internalType": "address",
                    "name": "clearingHouseConfigArg",
                    "type": "address"
                },
                {
                    "internalType": "address",
                    "name": "positionMgmtArg",
                    "type": "address"
                },
                {
                    "internalType": "address",
                    "name": "marketTakerArg",
                    "type": "address"
                },
                {
                    "internalType": "address",
                    "name": "liquidityProviderArg",
                    "type": "address"
                },
                {
                    "internalType": "address",
                    "name": "insuranceFundArg",
                    "type": "address"
                },
                {
                    "internalType": "address",
                    "name": "factoryArg",
                    "type": "address"
                },
                {
                    "internalType": "address",
                    "name": "wrapAmmArg",
                    "type": "address"
                },
                {
                    "internalType": "address",
                    "name": "vaultArg",
                    "type": "address"
                }
            ],
            "name": "initialize",
            "outputs": [],
            "stateMutability": "nonpayable",
            "type": "function"
        },
        {
            "inputs": [
                {
                    "internalType": "address",
                    "name": "baseToken",
                    "type": "address"
                },
                {
                    "internalType": "uint256",
                    "name": "amount",
                    "type": "uint256"
                },
                {
                    "internalType": "bool",
                    "name": "baseToQuote",
                    "type": "bool"
                },
                {
                    "internalType": "bool",
                    "name": "exactInput",
                    "type": "bool"
                }
            ],
            "name": "simulatedSwap",
            "outputs": [
                {
                    "internalType": "uint256",
                    "name": "",
                    "type": "uint256"
                },
                {
                    "internalType": "uint256",
                    "name": "",
                    "type": "uint256"
                },
                {
                    "internalType": "uint256",
                    "name": "",
                    "type": "uint256"
                },
                {
                    "internalType": "uint256",
                    "name": "",
                    "type": "uint256"
                }
            ],
            "stateMutability": "nonpayable",
            "type": "function"
        },
        {
            "inputs": [],
            "name": "vaultDecimals",
            "outputs": [
                {
                    "internalType": "uint8",
                    "name": "",
                    "type": "uint8"
                }
            ],
            "stateMutability": "view",
            "type": "function"
        }
    ],
    "bytecode": "0x608060405234801561001057600080fd5b506133aa806100206000396000f3fe608060405234801561001057600080fd5b50600436106104285760003560e01c806380f57f111161022b578063b3bd6e1211610130578063e2a72cce116100b8578063f75c266d11610087578063f75c266d146108d2578063f764720c146108e5578063f8b2cb4f146108f8578063fb39b4241461090b578063fedf924b1461091e57610428565b8063e2a72cce1461088f578063e3b910e414610897578063ec32c8e3146108aa578063f5e95acb146108bd57610428565b8063cb379aa2116100ff578063cb379aa21461083b578063cb3c7b8e1461084e578063cc84092814610861578063cc85f5f214610874578063d50d01b71461087c57610428565b8063b3bd6e12146107fa578063b88c91481461080d578063c399944414610820578063c575ff791461083357610428565b8063a70bba67116101b3578063af74e73611610182578063af74e7361461078c578063b02dd211146107ac578063b2e27148146107cc578063b3944d52146107df578063b3945690146107e757610428565b8063a70bba6714610756578063a7d60ed214610769578063a85494021461077c578063aa2a82941461078457610428565b80638d928af8116101fa5780638d928af8146107185780638e8499ba146107205780639d6179c3146107285780639de8ef7914610730578063a27a64b21461074357610428565b806380f57f11146106d557806385b0f967146106e857806385eacc771461070857806388cc58e41461071057610428565b8063508d501d116103315780636ccdc82e116102b95780637428333611610288578063742833361461068c5780637a5b45a0146106945780637d4dd954146106a75780637fdc9fc8146106ba578063803841b7146106cd57610428565b80636ccdc82e146106495780636e1d2dd21461065c5780636f0daecb1461066457806373b53e931461067957610428565b8063597704381161030057806359770438146105dd5780635ae80951146105f05780635c132184146106035780636332fef61461061657806368f12e121461063657610428565b8063508d501d1461059a578063543ce73a146105ad57806355338fc1146105c2578063564cd092146105ca57610428565b80632b7746f1116103b45780633f935107116103835780633f935107146105465780633ffd1303146105595780634318dd951461056c57806343a19cc41461057f5780634a64d67d1461059257610428565b80632b7746f11461050357806334ce998a146105165780633a5ad7791461051e5780633e742e3b1461053157610428565b80631867b480116103fb5780631867b480146104945780631987da48146104a75780632084d2c6146104ba5780632185b42a146104dd578063293a5077146104f057610428565b806312803c7d1461042d5780631393a4691461044b57806313ea7c891461046b578063158626f71461048c575b600080fd5b610435610926565b6040516104429190612d95565b60405180910390f35b61045e610459366004612c52565b6109a8565b6040516104429190612f3c565b61047e610479366004612780565b610a2f565b604051610442929190612f45565b610435610abc565b61045e6104a23660046127b8565b610acb565b61045e6104b5366004612780565b610eca565b6104cd6104c8366004612a37565b610efb565b6040516104429493929190613145565b61045e6104eb36600461295d565b6111df565b61045e6104fe366004612780565b61126f565b61045e610511366004612780565b6112a0565b61045e6112d1565b61045e61052c366004612780565b61134e565b61053961137f565b6040516104429190613160565b61045e6105543660046127b8565b6113fc565b61045e6105673660046129df565b61147f565b61045e61057a366004612780565b6114b2565b61045e61058d3660046128ab565b6114e3565b610435611519565b61045e6105a8366004612780565b611568565b6105b5611599565b6040516104429190613135565b610435611616565b61045e6105d8366004612a89565b611625565b6104356105eb366004612780565b61165a565b61045e6105fe366004612780565b6116db565b61047e610611366004612a37565b611711565b6106296106243660046127b8565b611867565b6040516104429190613114565b61045e6106443660046127b8565b6118f1565b61045e610657366004612780565b611924565b6105b5611955565b61066c61199a565b6040516104429190613171565b61047e610687366004612abd565b611a17565b6105b5611aae565b61045e6106a23660046127b8565b611af3565b61047e6106b5366004612a0c565b611b26565b61045e6106c8366004612a0c565b611bb7565b610435611bea565b61045e6106e3366004612780565b611c2f565b6106fb6106f63660046127b8565b611c60565b60405161044291906130a1565b61045e611ce9565b610435611d2e565b610435611d3d565b610435611d4c565b61066c611d5b565b61045e61073e366004612780565b611da0565b61045e610751366004612780565b611dd1565b610435610764366004612a0c565b611e02565b610435610777366004612780565b611e85565b6105b5611eb6565b610435611efb565b61079f61079a366004612780565b611f0a565b6040516104429190612ee4565b6107bf6107ba366004612780565b611f8f565b6040516104429190612f31565b61045e6107da3660046127b8565b612010565b61045e612043565b61045e6107f53660046127b8565b612088565b61045e6108083660046127b8565b6120bb565b61045e61081b366004612780565b6120ee565b61045e61082e366004612780565b61211f565b610435612150565b61045e6108493660046127b8565b612165565b6107bf61085c366004612780565b612198565b61047e61086f366004612abd565b6121c9565b6105b5612204565b61045e61088a3660046127b8565b612249565b61043561227c565b61045e6108a53660046128ab565b61228b565b61045e6108b83660046128f5565b6122c1565b6108d06108cb3660046127f0565b6122f7565b005b61045e6108e0366004612780565b612417565b6104356108f3366004612d03565b612448565b61045e610906366004612780565b612479565b61045e610919366004612780565b6124aa565b6105b56124db565b600854604080516312803c7d60e01b815290516000926001600160a01b0316916312803c7d916004808301926020929190829003018186803b15801561096b57600080fd5b505afa15801561097f573d6000803e3d6000fd5b505050506040513d601f19601f820116820180604052508101906109a3919061279c565b905090565b600354604051631393a46960e01b81526000916001600160a01b031690631393a469906109d99085906004016130db565b60206040518083038186803b1580156109f157600080fd5b505afa158015610a05573d6000803e3d6000fd5b505050506040513d601f19601f82011682018060405250810190610a299190612bc6565b92915050565b6002546040516313ea7c8960e01b815260009182916001600160a01b03909116906313ea7c8990610a64908690600401612d95565b604080518083038186803b158015610a7b57600080fd5b505afa158015610a8f573d6000803e3d6000fd5b505050506040513d601f19601f82011682018060405250810190610ab39190612bde565b91509150915091565b6005546001600160a01b031690565b60008054604051635ae8095160e01b815282916201000090046001600160a01b031690635ae8095190610b02908790600401612d95565b60206040518083038186803b158015610b1a57600080fd5b505afa158015610b2e573d6000803e3d6000fd5b505050506040513d601f19601f82011682018060405250810190610b529190612bc6565b600254604051633478970960e11b81529192506000916001600160a01b03909116906368f12e1290610b8a9088908890600401612da9565b60206040518083038186803b158015610ba257600080fd5b505afa158015610bb6573d6000803e3d6000fd5b505050506040513d601f19601f82011682018060405250810190610bda9190612bc6565b905080610bec57600092505050610a29565b6000846001600160a01b03166312080647600160009054906101000a90046001600160a01b03166001600160a01b0316633e742e3b6040518163ffffffff1660e01b815260040160206040518083038186803b158015610c4b57600080fd5b505afa158015610c5f573d6000803e3d6000fd5b505050506040513d601f19601f82011682018060405250810190610c839190612d50565b6040518263ffffffff1660e01b8152600401610c9f9190613160565b60206040518083038186803b158015610cb757600080fd5b505afa158015610ccb573d6000803e3d6000fd5b505050506040513d601f19601f82011682018060405250810190610cef9190612bc6565b600254604051633666e41760e11b81529192506000916001600160a01b0390911690636ccdc82e90610d25908a90600401612d95565b60206040518083038186803b158015610d3d57600080fd5b505afa158015610d51573d6000803e3d6000fd5b505050506040513d601f19601f82011682018060405250810190610d759190612bc6565b90506000600160009054906101000a90046001600160a01b03166001600160a01b031663a85494026040518163ffffffff1660e01b815260040160206040518083038186803b158015610dc757600080fd5b505afa158015610ddb573d6000803e3d6000fd5b505050506040513d601f19601f82011682018060405250810190610dff9190612ce7565b90506000808513610e2957610e24610e1a83620f42406131b0565b62ffffff16612520565b610e39565b610e39610e1a83620f42406132d3565b90506000610e4f610e4a858561254d565b612520565b610e599088613294565b90506000610e6b8784620f4240612562565b9050600081610e8284670de0b6b3a7640000613211565b610e8c91906131d7565b610e9588612520565b610e9f9190613294565b90506000811215610eb1576000610eba565b610eba81612606565b9c9b505050505050505050505050565b600754604051630330fb4960e31b81526000916001600160a01b031690631987da48906109d9908590600401612d95565b6000806000808415610fe3578515610fa857600080546040516349cf2a6160e01b8152620100009091046001600160a01b0316916349cf2a6191610f49918c91600191908d90600401612e66565b608060405180830381600087803b158015610f6357600080fd5b505af1158015610f77573d6000803e3d6000fd5b505050506040513d601f19601f82011682018060405250810190610f9b9190612d1b565b93509350935093506111d4565b600080546040516349cf2a6160e01b8152620100009091046001600160a01b0316916349cf2a6191610f49918c916001908d90600401612e66565b851561110e57600754604051631990812560e31b81526000916001600160a01b03169063cc84092890611021908c9060019086908e90600401612e66565b604080518083038186803b15801561103857600080fd5b505afa15801561104c573d6000803e3d6000fd5b505050506040513d601f19601f820116820180604052508101906110709190612bde565b50600080546040516349cf2a6160e01b81529293506201000090046001600160a01b0316916349cf2a61916110ae918d916001918790600401612e66565b608060405180830381600087803b1580156110c857600080fd5b505af11580156110dc573d6000803e3d6000fd5b505050506040513d601f19601f820116820180604052508101906111009190612d1b565b9450945094509450506111d4565b600754604051631990812560e31b81526000916001600160a01b03169063cc84092890611146908c9085906001908e90600401612e66565b604080518083038186803b15801561115d57600080fd5b505afa158015611171573d6000803e3d6000fd5b505050506040513d601f19601f820116820180604052508101906111959190612bde565b50600080546040516349cf2a6160e01b81529293506201000090046001600160a01b0316916349cf2a61916110ae918d91906001908790600401612e66565b945094509450949050565b600480546040516310c2da1560e11b81526000926001600160a01b0390921691632185b42a916112159188918891889101612e17565b60206040518083038186803b15801561122d57600080fd5b505afa158015611241573d6000803e3d6000fd5b505050506040513d601f19601f820116820180604052508101906112659190612bc6565b90505b9392505050565b60025460405163293a507760e01b81526000916001600160a01b03169063293a5077906109d9908590600401612d95565b600754604051632b7746f160e01b81526000916001600160a01b031690632b7746f1906109d9908590600401612d95565b60085460408051631a674cc560e11b815290516000926001600160a01b0316916334ce998a916004808301926020929190829003018186803b15801561131657600080fd5b505afa15801561132a573d6000803e3d6000fd5b505050506040513d601f19601f820116820180604052508101906109a39190612bc6565b600754604051633a5ad77960e01b81526000916001600160a01b031690633a5ad779906109d9908590600401612d95565b60015460408051633e742e3b60e01b815290516000926001600160a01b031691633e742e3b916004808301926020929190829003018186803b1580156113c457600080fd5b505afa1580156113d8573d6000803e3d6000fd5b505050506040513d601f19601f820116820180604052508101906109a39190612d50565b600254604051633f93510760e01b81526000916001600160a01b031690633f9351079061142f9086908690600401612da9565b60206040518083038186803b15801561144757600080fd5b505afa15801561145b573d6000803e3d6000fd5b505050506040513d601f19601f820116820180604052508101906112689190612bc6565b600854604051633ffd130360e01b81526000916001600160a01b031690633ffd13039061142f9086908690600401612e8c565b600354604051634318dd9560e01b81526000916001600160a01b031690634318dd95906109d9908590600401612d95565b600480546040516310e8673160e21b81526000926001600160a01b03909216916343a19cc4916112159188918891889101612dc3565b60008060029054906101000a90046001600160a01b03166001600160a01b0316634a64d67d6040518163ffffffff1660e01b815260040160206040518083038186803b15801561096b57600080fd5b60065460405163d88bf68d60e01b81526000916001600160a01b03169063d88bf68d906109d9908590600401612d95565b60015460408051632a1e739d60e11b815290516000926001600160a01b03169163543ce73a916004808301926020929190829003018186803b1580156115de57600080fd5b505afa1580156115f2573d6000803e3d6000fd5b505050506040513d601f19601f820116820180604052508101906109a39190612ce7565b6003546001600160a01b031690565b600754604051632b26684960e11b81526000916001600160a01b03169063564cd0929061121590879087908790600401612ec3565b600654604051634bbec89160e11b81526000916001600160a01b03169063977d91229061168b908590600401612d95565b60206040518083038186803b1580156116a357600080fd5b505afa1580156116b7573d6000803e3d6000fd5b505050506040513d601f19601f82011682018060405250810190610a29919061279c565b60008054604051635ae8095160e01b8152620100009091046001600160a01b031690635ae80951906109d9908590600401612d95565b60008083156117e85782156117b0576007546040516373b53e9360e01b81526001600160a01b03909116906373b53e93906117589089906001906000908b90600401612e66565b604080518083038186803b15801561176f57600080fd5b505afa158015611783573d6000803e3d6000fd5b505050506040513d601f19601f820116820180604052508101906117a79190612bde565b9150915061185e565b600754604051631990812560e31b81526001600160a01b039091169063cc840928906117589089906001906000908b90600401612e66565b8215611826576007546040516373b53e9360e01b81526001600160a01b03909116906373b53e93906117589089906000906001908b90600401612e66565b600754604051631990812560e31b81526001600160a01b039091169063cc840928906117589089906000906001908b90600401612e66565b94509492505050565b61186f612730565b6002546040516331997f7b60e11b81526001600160a01b0390911690636332fef6906118a19086908690600401612da9565b60606040518083038186803b1580156118b957600080fd5b505afa1580156118cd573d6000803e3d6000fd5b505050506040513d601f19601f820116820180604052508101906112689190612caa565b600254604051633478970960e11b81526000916001600160a01b0316906368f12e129061142f9086908690600401612da9565b600254604051633666e41760e11b81526000916001600160a01b031690636ccdc82e906109d9908590600401612d95565b6001546040805163370e96e960e11b815290516000926001600160a01b031691636e1d2dd2916004808301926020929190829003018186803b1580156115de57600080fd5b60015460408051636f0daecb60e01b815290516000926001600160a01b031691636f0daecb916004808301926020929190829003018186803b1580156119df57600080fd5b505afa1580156119f3573d6000803e3d6000fd5b505050506040513d601f19601f820116820180604052508101906109a39190612d74565b6007546040516373b53e9360e01b815260009182916001600160a01b03909116906373b53e9390611a52908990899089908990600401612e66565b604080518083038186803b158015611a6957600080fd5b505afa158015611a7d573d6000803e3d6000fd5b505050506040513d601f19601f82011682018060405250810190611aa19190612bde565b9150915094509492505050565b60015460408051633a14199b60e11b815290516000926001600160a01b0316916374283336916004808301926020929190829003018186803b1580156115de57600080fd5b6002546040516303d2da2d60e51b81526000916001600160a01b031690637a5b45a09061142f9086908690600401612da9565b600754604051631f53765560e21b815260009182916001600160a01b0390911690637d4dd95490611b5d9087908790600401612eaa565b604080518083038186803b158015611b7457600080fd5b505afa158015611b88573d6000803e3d6000fd5b505050506040513d601f19601f82011682018060405250810190611bac9190612bde565b915091509250929050565b600754604051630ffb93f960e31b81526000916001600160a01b031690637fdc9fc89061142f9086908690600401612eaa565b6006546040805163cab4d3db60e01b815290516000926001600160a01b03169163cab4d3db916004808301926020929190829003018186803b15801561096b57600080fd5b6003546040516380f57f1160e01b81526000916001600160a01b0316906380f57f11906109d9908590600401612d95565b611c68612751565b600480546040516385b0f96760e01b81526001600160a01b03909116916385b0f96791611c99918791879101612da9565b60a06040518083038186803b158015611cb157600080fd5b505afa158015611cc5573d6000803e3d6000fd5b505050506040513d601f19601f820116820180604052508101906112689190612c01565b600154604080516385eacc7760e01b815290516000926001600160a01b0316916385eacc77916004808301926020929190829003018186803b15801561131657600080fd5b6006546001600160a01b031690565b6008546001600160a01b031690565b6002546001600160a01b031690565b6008546040805163313ce56760e01b815290516000926001600160a01b03169163313ce567916004808301926020929190829003018186803b1580156119df57600080fd5b600754604051639de8ef7960e01b81526000916001600160a01b031690639de8ef79906109d9908590600401612d95565b60075460405163513d325960e11b81526000916001600160a01b03169063a27a64b2906109d9908590600401612d95565b60075460405163a70bba6760e01b81526000916001600160a01b03169063a70bba6790611e359086908690600401612eaa565b60206040518083038186803b158015611e4d57600080fd5b505afa158015611e61573d6000803e3d6000fd5b505050506040513d601f19601f82011682018060405250810190611268919061279c565b6006546040516353eb076960e11b81526000916001600160a01b03169063a7d60ed29061168b908590600401612d95565b6001546040805163542a4a0160e11b815290516000926001600160a01b03169163a8549402916004808301926020929190829003018186803b1580156115de57600080fd5b6001546001600160a01b031690565b6002546040516357ba739b60e11b81526060916001600160a01b03169063af74e73690611f3b908590600401612d95565b60006040518083038186803b158015611f5357600080fd5b505afa158015611f67573d6000803e3d6000fd5b505050506040513d6000823e601f3d908101601f19168201604052610a299190810190612af7565b6006546040516372971b3f60e01b81526000916001600160a01b0316906372971b3f90611fc0908590600401612d95565b60206040518083038186803b158015611fd857600080fd5b505afa158015611fec573d6000803e3d6000fd5b505050506040513d601f19601f82011682018060405250810190610a299190612baa565b60025460405163165c4e2960e31b81526000916001600160a01b03169063b2e271489061142f9086908690600401612da9565b60065460408051634ab5571d60e11b815290516000926001600160a01b03169163956aae3a916004808301926020929190829003018186803b15801561131657600080fd5b600254604051630b39456960e41b81526000916001600160a01b03169063b39456909061142f9086908690600401612da9565b6002546040516359deb70960e11b81526000916001600160a01b03169063b3bd6e129061142f9086908690600401612da9565b600754604051631711922960e31b81526000916001600160a01b03169063b88c9148906109d9908590600401612d95565b6008546040516330e6651160e21b81526000916001600160a01b03169063c3999444906109d9908590600401612d95565b6000546201000090046001600160a01b031690565b60035460405163659bcd5160e11b81526000916001600160a01b03169063cb379aa29061142f9086908690600401612da9565b60025460405163659e3dc760e11b81526000916001600160a01b03169063cb3c7b8e90611fc0908590600401612d95565b600754604051631990812560e31b815260009182916001600160a01b039091169063cc84092890611a52908990899089908990600401612e66565b60015460408051636642faf960e11b815290516000926001600160a01b03169163cc85f5f2916004808301926020929190829003018186803b1580156115de57600080fd5b60025460405163d50d01b760e01b81526000916001600160a01b03169063d50d01b79061142f9086908690600401612da9565b6004546001600160a01b031690565b600480546040516338ee443960e21b81526000926001600160a01b039092169163e3b910e4916112159188918891889101612dc3565b6004805460405163ec32c8e360e01b81526000926001600160a01b039092169163ec32c8e3916112159188918891889101612de7565b600054610100900460ff1680612310575060005460ff16155b6123355760405162461bcd60e51b815260040161232c90612fca565b60405180910390fd5b600054610100900460ff16158015612360576000805460ff1961ff0019909116610100171660011790555b6000805462010000600160b01b031916620100006001600160a01b038d81169190910291909117909155600180546001600160a01b03199081168c8416179091556002805482168b84161790556003805482168a841617905560048054821689841617905560058054821688841617905560068054821687841617905560078054821686841617905560088054909116918416919091179055801561240b576000805461ff00191690555b50505050505050505050565b60025460405163f75c266d60e01b81526000916001600160a01b03169063f75c266d906109d9908590600401612d95565b600654604051631d0eaec760e11b81526000916001600160a01b031690633a1d5d8e9061168b908590600401612f3c565b60085460405163f8b2cb4f60e01b81526000916001600160a01b03169063f8b2cb4f906109d9908590600401612d95565b600754604051633ece6d0960e21b81526000916001600160a01b03169063fb39b424906109d9908590600401612d95565b6001546040805163fedf924b60e01b815290516000926001600160a01b03169163fedf924b916004808301926020929190829003018186803b1580156115de57600080fd5b60006001600160ff1b038211156125495760405162461bcd60e51b815260040161232c90613018565b5090565b6000611268838362ffffff16620f4240612628565b60008060008512612573578461257c565b61257c856126ee565b9050600080851261258d5784612596565b612596856126ee565b9050600080871280156125a95750600086135b806125bf57506000871380156125bf5750600086125b6125ca5760006125cd565b60015b905060006125dc848488612628565b9050816125f1576125ec81612520565b6125fa565b6125fa8161271c565b98975050505050505050565b6000808212156125495760405162461bcd60e51b815260040161232c90612f95565b600080806000198587098587029250828110838203039150508060001415612675576000841161266a5760405162461bcd60e51b815260040161232c90612f53565b508290049050611268565b80841161268157600080fd5b6000848688096000868103871696879004966002600389028118808a02820302808a02820302808a02820302808a02820302808a02820302808a02909103029181900381900460010186841190950394909402919094039290920491909117919091029150509392505050565b6000600160ff1b82136127135760405162461bcd60e51b815260040161232c90613060565b610a29826132f7565b600061272782612520565b610a29906132f7565b60405180606001604052806000815260200160008152602001600081525090565b6040518060a0016040528060008152602001600081526020016000815260200160008152602001600081525090565b600060208284031215612791578081fd5b81356112688161333d565b6000602082840312156127ad578081fd5b81516112688161333d565b600080604083850312156127ca578081fd5b82356127d58161333d565b915060208301356127e58161333d565b809150509250929050565b60008060008060008060008060006101208a8c03121561280e578485fd5b89356128198161333d565b985060208a01356128298161333d565b975060408a01356128398161333d565b965060608a01356128498161333d565b955060808a01356128598161333d565b945060a08a01356128698161333d565b935060c08a01356128798161333d565b925060e08a01356128898161333d565b91506101008a013561289a8161333d565b809150509295985092959850929598565b6000806000606084860312156128bf578283fd5b83356128ca8161333d565b925060208401356128da8161333d565b915060408401356128ea81613355565b809150509250925092565b6000806000838503608081121561290a578182fd5b84356129158161333d565b935060208501356129258161333d565b92506040603f1982011215612938578182fd5b50612943604061317f565b604085013581526060909401356020850152509093909250565b600080600060408486031215612971578081fd5b833561297c8161333d565b9250602084013567ffffffffffffffff80821115612998578283fd5b818601915086601f8301126129ab578283fd5b8135818111156129b9578384fd5b87602080830285010111156129cc578384fd5b6020830194508093505050509250925092565b600080604083850312156129f1578182fd5b82356129fc8161333d565b915060208301356127e581613363565b60008060408385031215612a1e578182fd5b8235612a298161333d565b946020939093013593505050565b60008060008060808587031215612a4c578182fd5b8435612a578161333d565b9350602085013592506040850135612a6e81613355565b91506060850135612a7e81613355565b939692955090935050565b600080600060608486031215612a9d578081fd5b8335612aa88161333d565b95602085013595506040909401359392505050565b60008060008060808587031215612ad2578182fd5b8435612add8161333d565b966020860135965060408601359560600135945092505050565b60006020808385031215612b09578182fd5b825167ffffffffffffffff80821115612b20578384fd5b818501915085601f830112612b33578384fd5b815181811115612b4557612b45613327565b8381029150612b5584830161317f565b8181528481019084860184860187018a1015612b6f578788fd5b8795505b83861015612b9d5780519450612b888561333d565b84835260019590950194918601918601612b73565b5098975050505050505050565b600060208284031215612bbb578081fd5b815161126881613355565b600060208284031215612bd7578081fd5b5051919050565b60008060408385031215612bf0578182fd5b505080516020909101519092909150565b600060a08284031215612c12578081fd5b612c1c60a061317f565b82518152602083015160208201526040830151604082015260608301516060820152608083015160808201528091505092915050565b600060808284031215612c63578081fd5b612c6d608061317f565b8235612c788161333d565b81526020830135612c888161333d565b6020820152604083810135908201526060928301359281019290925250919050565b600060608284031215612cbb578081fd5b612cc5606061317f565b8251815260208301516020820152604083015160408201528091505092915050565b600060208284031215612cf8578081fd5b815161126881613363565b600060208284031215612d14578081fd5b5035919050565b60008060008060808587031215612d30578182fd5b505082516020840151604085015160609095015191969095509092509050565b600060208284031215612d61578081fd5b815163ffffffff81168114611268578182fd5b600060208284031215612d85578081fd5b815160ff81168114611268578182fd5b6001600160a01b0391909116815260200190565b6001600160a01b0392831681529116602082015260400190565b6001600160a01b039384168152919092166020820152901515604082015260600190565b6001600160a01b039384168152919092166020808301919091528251604083015290910151606082015260800190565b6001600160a01b03848116825260406020808401829052908301849052600091859160608501845b87811015612b9d578435612e528161333d565b841682529382019390820190600101612e3f565b6001600160a01b0394909416845260208401929092526040830152606082015260800190565b6001600160a01b0392909216825262ffffff16602082015260400190565b6001600160a01b03929092168252602082015260400190565b6001600160a01b039390931683526020830191909152604082015260600190565b6020808252825182820181905260009190848201906040850190845b81811015612f255783516001600160a01b031683529284019291840191600101612f00565b50909695505050505050565b901515815260200190565b90815260200190565b918252602082015260400190565b60208082526022908201527f64656e6f6d696e61746f72206d7573742062652067726561746572207468616e604082015261020360f41b606082015260800190565b6020808252818101527f53616665436173743a2076616c7565206d75737420626520706f736974697665604082015260600190565b6020808252602e908201527f496e697469616c697a61626c653a20636f6e747261637420697320616c72656160408201526d191e481a5b9a5d1a585b1a5e995960921b606082015260800190565b60208082526028908201527f53616665436173743a2076616c756520646f65736e27742066697420696e2061604082015267371034b73a191a9b60c11b606082015260800190565b60208082526021908201527f4661697274726164654d6174683a20696e76657273696f6e206f766572666c6f6040820152607760f81b606082015260800190565b600060a082019050825182526020830151602083015260408301516040830152606083015160608301526080830151608083015292915050565b81516001600160a01b03908116825260208084015190911690820152604080830151908201526060918201519181019190915260800190565b81518152602080830151908201526040918201519181019190915260600190565b62ffffff91909116815260200190565b93845260208401929092526040830152606082015260800190565b63ffffffff91909116815260200190565b60ff91909116815260200190565b604051601f8201601f1916810167ffffffffffffffff811182821017156131a8576131a8613327565b604052919050565b600062ffffff8083168185168083038211156131ce576131ce613311565b01949350505050565b6000826131f257634e487b7160e01b81526012600452602481fd5b600160ff1b82146000198414161561320c5761320c613311565b500590565b60006001600160ff1b038184138284138082168684048611161561323757613237613311565b600160ff1b8487128281168783058912161561325557613255613311565b85871292508782058712848416161561327057613270613311565b8785058712818416161561328657613286613311565b505050929093029392505050565b60008083128015600160ff1b8501841216156132b2576132b2613311565b6001600160ff1b03840183138116156132cd576132cd613311565b50500390565b600062ffffff838116908316818110156132ef576132ef613311565b039392505050565b6000600160ff1b82141561330d5761330d613311565b0390565b634e487b7160e01b600052601160045260246000fd5b634e487b7160e01b600052604160045260246000fd5b6001600160a01b038116811461335257600080fd5b50565b801515811461335257600080fd5b62ffffff8116811461335257600080fdfea2646970667358221220d6be8ec633a4ecdd55ec66de4aa539f449d0956c976b6e6cdafcfde939b5fb9c64736f6c63430008010033",
    "linkReferences": {},
    "deployedLinkReferences": {}
}