{
    "_format": "hh-sol-artifact-1",
    "contractName": "FairtradeReader",
    "sourceName": "contracts/FairtradeReader.sol",
    "abi": [
        {
            "inputs": [
                {
                    "internalType": "address",
                    "name": "baseToken",
                    "type": "address"
                },
                {
                    "internalType": "uint256",
                    "name": "amount0Desired",
                    "type": "uint256"
                },
                {
                    "internalType": "uint256",
                    "name": "amount1Desired",
                    "type": "uint256"
                }
            ],
            "name": "calcLiquidityByTokenAmounts",
            "outputs": [
                {
                    "internalType": "uint256",
                    "name": "",
                    "type": "uint256"
                }
            ],
            "stateMutability": "view",
            "type": "function"
        },
        {
            "inputs": [
                {
                    "internalType": "address",
                    "name": "baseToken",
                    "type": "address"
                },
                {
                    "internalType": "uint256",
                    "name": "liquidity",
                    "type": "uint256"
                }
            ],
            "name": "calcTokenAmountsByLiquidity",
            "outputs": [
                {
                    "internalType": "uint256",
                    "name": "amount0",
                    "type": "uint256"
                },
                {
                    "internalType": "uint256",
                    "name": "amount1",
                    "type": "uint256"
                }
            ],
            "stateMutability": "view",
            "type": "function"
        },
        {
            "inputs": [
                {
                    "internalType": "address",
                    "name": "baseToken",
                    "type": "address"
                }
            ],
            "name": "find_pool",
            "outputs": [
                {
                    "internalType": "address",
                    "name": "",
                    "type": "address"
                }
            ],
            "stateMutability": "view",
            "type": "function"
        },
        {
            "inputs": [
                {
                    "internalType": "address",
                    "name": "trader",
                    "type": "address"
                },
                {
                    "internalType": "address",
                    "name": "baseToken",
                    "type": "address"
                }
            ],
            "name": "getAccountInfo",
            "outputs": [
                {
                    "components": [
                        {
                            "internalType": "int256",
                            "name": "takerPositionSize",
                            "type": "int256"
                        },
                        {
                            "internalType": "int256",
                            "name": "takerOpenNotional",
                            "type": "int256"
                        },
                        {
                            "internalType": "int256",
                            "name": "lastTwPremiumGrowthGlobal",
                            "type": "int256"
                        }
                    ],
                    "internalType": "struct Account.TakerInfo",
                    "name": "",
                    "type": "tuple"
                }
            ],
            "stateMutability": "view",
            "type": "function"
        },
        {
            "inputs": [
                {
                    "internalType": "address",
                    "name": "trader",
                    "type": "address"
                }
            ],
            "name": "getAccountValue",
            "outputs": [
                {
                    "internalType": "int256",
                    "name": "",
                    "type": "int256"
                }
            ],
            "stateMutability": "view",
            "type": "function"
        },
        {
            "inputs": [
                {
                    "internalType": "address",
                    "name": "_pool",
                    "type": "address"
                }
            ],
            "name": "getAdminFeeRatio",
            "outputs": [
                {
                    "internalType": "uint256",
                    "name": "",
                    "type": "uint256"
                }
            ],
            "stateMutability": "view",
            "type": "function"
        },
        {
            "inputs": [],
            "name": "getAdminFeeReceiver",
            "outputs": [
                {
                    "internalType": "address",
                    "name": "",
                    "type": "address"
                }
            ],
            "stateMutability": "view",
            "type": "function"
        },
        {
            "inputs": [
                {
                    "internalType": "address",
                    "name": "trader",
                    "type": "address"
                }
            ],
            "name": "getAllPendingFundingPayment",
            "outputs": [
                {
                    "internalType": "int256",
                    "name": "",
                    "type": "int256"
                }
            ],
            "stateMutability": "view",
            "type": "function"
        },
        {
            "inputs": [
                {
                    "internalType": "address",
                    "name": "baseToken",
                    "type": "address"
                }
            ],
            "name": "getAmmTwapInterval",
            "outputs": [
                {
                    "internalType": "uint256",
                    "name": "",
                    "type": "uint256"
                }
            ],
            "stateMutability": "view",
            "type": "function"
        },
        {
            "inputs": [
                {
                    "internalType": "address",
                    "name": "baseToken",
                    "type": "address"
                },
                {
                    "internalType": "uint256",
                    "name": "amount",
                    "type": "uint256"
                },
                {
                    "internalType": "bool",
                    "name": "baseToQuote",
                    "type": "bool"
                },
                {
                    "internalType": "bool",
                    "name": "exactInput",
                    "type": "bool"
                }
            ],
            "name": "getAmountOut",
            "outputs": [
                {
                    "internalType": "uint256",
                    "name": "",
                    "type": "uint256"
                },
                {
                    "internalType": "uint256",
                    "name": "",
                    "type": "uint256"
                }
            ],
            "stateMutability": "view",
            "type": "function"
        },
        {
            "inputs": [
                {
                    "internalType": "address",
                    "name": "account",
                    "type": "address"
                }
            ],
            "name": "getBalance",
            "outputs": [
                {
                    "internalType": "int256",
                    "name": "",
                    "type": "int256"
                }
            ],
            "stateMutability": "view",
            "type": "function"
        },
        {
            "inputs": [
                {
                    "internalType": "address",
                    "name": "baseToken",
                    "type": "address"
                },
                {
                    "internalType": "uint256",
                    "name": "i",
                    "type": "uint256"
                }
            ],
            "name": "getBalances",
            "outputs": [
                {
                    "internalType": "uint256",
                    "name": "",
                    "type": "uint256"
                }
            ],
            "stateMutability": "view",
            "type": "function"
        },
        {
            "inputs": [
                {
                    "internalType": "address",
                    "name": "trader",
                    "type": "address"
                },
                {
                    "internalType": "address",
                    "name": "baseToken",
                    "type": "address"
                }
            ],
            "name": "getBase",
            "outputs": [
                {
                    "internalType": "int256",
                    "name": "",
                    "type": "int256"
                }
            ],
            "stateMutability": "view",
            "type": "function"
        },
        {
            "inputs": [
                {
                    "internalType": "address",
                    "name": "trader",
                    "type": "address"
                }
            ],
            "name": "getBaseTokens",
            "outputs": [
                {
                    "internalType": "address[]",
                    "name": "",
                    "type": "address[]"
                }
            ],
            "stateMutability": "view",
            "type": "function"
        },
        {
            "inputs": [],
            "name": "getClearingHouse",
            "outputs": [
                {
                    "internalType": "address",
                    "name": "",
                    "type": "address"
                }
            ],
            "stateMutability": "view",
            "type": "function"
        },
        {
            "inputs": [],
            "name": "getClearingHouseConfig",
            "outputs": [
                {
                    "internalType": "address",
                    "name": "",
                    "type": "address"
                }
            ],
            "stateMutability": "view",
            "type": "function"
        },
        {
            "inputs": [
                {
                    "internalType": "address",
                    "name": "baseToken",
                    "type": "address"
                },
                {
                    "internalType": "uint256",
                    "name": "i",
                    "type": "uint256"
                }
            ],
            "name": "getCoins",
            "outputs": [
                {
                    "internalType": "address",
                    "name": "",
                    "type": "address"
                }
            ],
            "stateMutability": "view",
            "type": "function"
        },
        {
            "inputs": [
                {
                    "internalType": "address",
                    "name": "baseToken",
                    "type": "address"
                },
                {
                    "internalType": "uint256",
                    "name": "i",
                    "type": "uint256"
                },
                {
                    "internalType": "uint256",
                    "name": "j",
                    "type": "uint256"
                },
                {
                    "internalType": "uint256",
                    "name": "dy",
                    "type": "uint256"
                }
            ],
            "name": "getDx",
            "outputs": [
                {
                    "internalType": "uint256",
                    "name": "",
                    "type": "uint256"
                },
                {
                    "internalType": "uint256",
                    "name": "",
                    "type": "uint256"
                }
            ],
            "stateMutability": "view",
            "type": "function"
        },
        {
            "inputs": [
                {
                    "internalType": "address",
                    "name": "baseToken",
                    "type": "address"
                },
                {
                    "internalType": "uint256",
                    "name": "i",
                    "type": "uint256"
                },
                {
                    "internalType": "uint256",
                    "name": "j",
                    "type": "uint256"
                },
                {
                    "internalType": "uint256",
                    "name": "dx",
                    "type": "uint256"
                }
            ],
            "name": "getDy",
            "outputs": [
                {
                    "internalType": "uint256",
                    "name": "",
                    "type": "uint256"
                },
                {
                    "internalType": "uint256",
                    "name": "",
                    "type": "uint256"
                }
            ],
            "stateMutability": "view",
            "type": "function"
        },
        {
            "inputs": [],
            "name": "getFactory",
            "outputs": [
                {
                    "internalType": "address",
                    "name": "",
                    "type": "address"
                }
            ],
            "stateMutability": "view",
            "type": "function"
        },
        {
            "inputs": [
                {
                    "internalType": "address",
                    "name": "baseToken",
                    "type": "address"
                }
            ],
            "name": "getFee",
            "outputs": [
                {
                    "internalType": "uint256",
                    "name": "",
                    "type": "uint256"
                }
            ],
            "stateMutability": "view",
            "type": "function"
        },
        {
            "inputs": [],
            "name": "getFluctuationLimitRatio",
            "outputs": [
                {
                    "internalType": "uint24",
                    "name": "",
                    "type": "uint24"
                }
            ],
            "stateMutability": "view",
            "type": "function"
        },
        {
            "inputs": [
                {
                    "internalType": "address",
                    "name": "trader",
                    "type": "address"
                }
            ],
            "name": "getFreeCollateral",
            "outputs": [
                {
                    "internalType": "uint256",
                    "name": "",
                    "type": "uint256"
                }
            ],
            "stateMutability": "view",
            "type": "function"
        },
        {
            "inputs": [
                {
                    "internalType": "address",
                    "name": "trader",
                    "type": "address"
                },
                {
                    "internalType": "uint24",
                    "name": "ratio",
                    "type": "uint24"
                }
            ],
            "name": "getFreeCollateralByRatio",
            "outputs": [
                {
                    "internalType": "int256",
                    "name": "",
                    "type": "int256"
                }
            ],
            "stateMutability": "view",
            "type": "function"
        },
        {
            "inputs": [],
            "name": "getImRatio",
            "outputs": [
                {
                    "internalType": "uint24",
                    "name": "",
                    "type": "uint24"
                }
            ],
            "stateMutability": "view",
            "type": "function"
        },
        {
            "inputs": [],
            "name": "getInsuranceFund",
            "outputs": [
                {
                    "internalType": "address",
                    "name": "",
                    "type": "address"
                }
            ],
            "stateMutability": "view",
            "type": "function"
        },
        {
            "inputs": [],
            "name": "getLiquidationPenaltyRatio",
            "outputs": [
                {
                    "internalType": "uint24",
                    "name": "",
                    "type": "uint24"
                }
            ],
            "stateMutability": "view",
            "type": "function"
        },
        {
            "inputs": [
                {
                    "internalType": "address",
                    "name": "trader",
                    "type": "address"
                },
                {
                    "internalType": "address",
                    "name": "baseToken",
                    "type": "address"
                }
            ],
            "name": "getLiquidationPrice",
            "outputs": [
                {
                    "internalType": "uint256",
                    "name": "",
                    "type": "uint256"
                }
            ],
            "stateMutability": "view",
            "type": "function"
        },
        {
            "inputs": [
                {
                    "internalType": "address",
                    "name": "trader",
                    "type": "address"
                },
                {
                    "internalType": "address",
                    "name": "baseToken",
                    "type": "address"
                },
                {
                    "components": [
                        {
                            "internalType": "int256",
                            "name": "twPremium",
                            "type": "int256"
                        },
                        {
                            "internalType": "int256",
                            "name": "twPremiumWithLiquidity",
                            "type": "int256"
                        }
                    ],
                    "internalType": "struct Funding.Growth",
                    "name": "fundingGrowthGlobal",
                    "type": "tuple"
                }
            ],
            "name": "getLiquidityFundingPayment",
            "outputs": [
                {
                    "internalType": "int256",
                    "name": "liquidityFundingPayment",
                    "type": "int256"
                }
            ],
            "stateMutability": "view",
            "type": "function"
        },
        {
            "inputs": [],
            "name": "getLiquidityProvider",
            "outputs": [
                {
                    "internalType": "address",
                    "name": "",
                    "type": "address"
                }
            ],
            "stateMutability": "view",
            "type": "function"
        },
        {
            "inputs": [
                {
                    "internalType": "address",
                    "name": "trader",
                    "type": "address"
                }
            ],
            "name": "getMarginRequirementForLiquidation",
            "outputs": [
                {
                    "internalType": "int256",
                    "name": "",
                    "type": "int256"
                }
            ],
            "stateMutability": "view",
            "type": "function"
        },
        {
            "inputs": [],
            "name": "getMarketTaker",
            "outputs": [
                {
                    "internalType": "address",
                    "name": "",
                    "type": "address"
                }
            ],
            "stateMutability": "view",
            "type": "function"
        },
        {
            "inputs": [],
            "name": "getMaxAmmsPerAccount",
            "outputs": [
                {
                    "internalType": "uint8",
                    "name": "",
                    "type": "uint8"
                }
            ],
            "stateMutability": "view",
            "type": "function"
        },
        {
            "inputs": [],
            "name": "getMaxFundingRate",
            "outputs": [
                {
                    "internalType": "uint24",
                    "name": "",
                    "type": "uint24"
                }
            ],
            "stateMutability": "view",
            "type": "function"
        },
        {
            "inputs": [],
            "name": "getMmRatio",
            "outputs": [
                {
                    "internalType": "uint24",
                    "name": "",
                    "type": "uint24"
                }
            ],
            "stateMutability": "view",
            "type": "function"
        },
        {
            "inputs": [
                {
                    "internalType": "address",
                    "name": "trader",
                    "type": "address"
                },
                {
                    "internalType": "address",
                    "name": "baseToken",
                    "type": "address"
                }
            ],
            "name": "getOpenOrder",
            "outputs": [
                {
                    "components": [
                        {
                            "internalType": "uint256",
                            "name": "liquidity",
                            "type": "uint256"
                        },
                        {
                            "internalType": "int256",
                            "name": "lastTwPremiumGrowth",
                            "type": "int256"
                        },
                        {
                            "internalType": "int256",
                            "name": "lastTwPremiumWithLiquidityGrowth",
                            "type": "int256"
                        },
                        {
                            "internalType": "uint256",
                            "name": "baseDebt",
                            "type": "uint256"
                        },
                        {
                            "internalType": "uint256",
                            "name": "quoteDebt",
                            "type": "uint256"
                        }
                    ],
                    "internalType": "struct Account.LPInfo",
                    "name": "",
                    "type": "tuple"
                }
            ],
            "stateMutability": "view",
            "type": "function"
        },
        {
            "inputs": [],
            "name": "getPartialCloseRatio",
            "outputs": [
                {
                    "internalType": "uint24",
                    "name": "",
                    "type": "uint24"
                }
            ],
            "stateMutability": "view",
            "type": "function"
        },
        {
            "inputs": [
                {
                    "internalType": "address",
                    "name": "trader",
                    "type": "address"
                },
                {
                    "internalType": "address",
                    "name": "baseToken",
                    "type": "address"
                }
            ],
            "name": "getPendingFundingPayment",
            "outputs": [
                {
                    "internalType": "int256",
                    "name": "",
                    "type": "int256"
                }
            ],
            "stateMutability": "view",
            "type": "function"
        },
        {
            "inputs": [
                {
                    "internalType": "address",
                    "name": "trader",
                    "type": "address"
                }
            ],
            "name": "getPnl",
            "outputs": [
                {
                    "internalType": "int256",
                    "name": "owedRealizedPnl",
                    "type": "int256"
                },
                {
                    "internalType": "int256",
                    "name": "unrealizedPnl",
                    "type": "int256"
                }
            ],
            "stateMutability": "view",
            "type": "function"
        },
        {
            "inputs": [
                {
                    "components": [
                        {
                            "internalType": "address",
                            "name": "trader",
                            "type": "address"
                        },
                        {
                            "internalType": "address",
                            "name": "baseToken",
                            "type": "address"
                        },
                        {
                            "internalType": "int256",
                            "name": "base",
                            "type": "int256"
                        },
                        {
                            "internalType": "int256",
                            "name": "quote",
                            "type": "int256"
                        }
                    ],
                    "internalType": "struct IMarketTaker.RealizePnlParams",
                    "name": "params",
                    "type": "tuple"
                }
            ],
            "name": "getPnlToBeRealized",
            "outputs": [
                {
                    "internalType": "int256",
                    "name": "",
                    "type": "int256"
                }
            ],
            "stateMutability": "view",
            "type": "function"
        },
        {
            "inputs": [],
            "name": "getPoolLength",
            "outputs": [
                {
                    "internalType": "uint256",
                    "name": "",
                    "type": "uint256"
                }
            ],
            "stateMutability": "view",
            "type": "function"
        },
        {
            "inputs": [
                {
                    "internalType": "uint256",
                    "name": "i",
                    "type": "uint256"
                }
            ],
            "name": "getPoolList",
            "outputs": [
                {
                    "internalType": "address",
                    "name": "",
                    "type": "address"
                }
            ],
            "stateMutability": "view",
            "type": "function"
        },
        {
            "inputs": [],
            "name": "getPositionMgmt",
            "outputs": [
                {
                    "internalType": "address",
                    "name": "",
                    "type": "address"
                }
            ],
            "stateMutability": "view",
            "type": "function"
        },
        {
            "inputs": [
                {
                    "internalType": "address",
                    "name": "baseToken",
                    "type": "address"
                }
            ],
            "name": "getPriceCurrent",
            "outputs": [
                {
                    "internalType": "uint256",
                    "name": "",
                    "type": "uint256"
                }
            ],
            "stateMutability": "view",
            "type": "function"
        },
        {
            "inputs": [
                {
                    "internalType": "address",
                    "name": "baseToken",
                    "type": "address"
                }
            ],
            "name": "getPriceLast",
            "outputs": [
                {
                    "internalType": "uint256",
                    "name": "",
                    "type": "uint256"
                }
            ],
            "stateMutability": "view",
            "type": "function"
        },
        {
            "inputs": [
                {
                    "internalType": "address",
                    "name": "baseToken",
                    "type": "address"
                }
            ],
            "name": "getPriceOracle",
            "outputs": [
                {
                    "internalType": "uint256",
                    "name": "",
                    "type": "uint256"
                }
            ],
            "stateMutability": "view",
            "type": "function"
        },
        {
            "inputs": [
                {
                    "internalType": "address",
                    "name": "baseToken",
                    "type": "address"
                }
            ],
            "name": "getPriceScale",
            "outputs": [
                {
                    "internalType": "uint256",
                    "name": "",
                    "type": "uint256"
                }
            ],
            "stateMutability": "view",
            "type": "function"
        },
        {
            "inputs": [
                {
                    "internalType": "address",
                    "name": "trader",
                    "type": "address"
                },
                {
                    "internalType": "address",
                    "name": "baseToken",
                    "type": "address"
                }
            ],
            "name": "getQuote",
            "outputs": [
                {
                    "internalType": "int256",
                    "name": "",
                    "type": "int256"
                }
            ],
            "stateMutability": "view",
            "type": "function"
        },
        {
            "inputs": [],
            "name": "getQuoteToken",
            "outputs": [
                {
                    "internalType": "address",
                    "name": "",
                    "type": "address"
                }
            ],
            "stateMutability": "view",
            "type": "function"
        },
        {
            "inputs": [],
            "name": "getSettlementToken",
            "outputs": [
                {
                    "internalType": "address",
                    "name": "",
                    "type": "address"
                }
            ],
            "stateMutability": "view",
            "type": "function"
        },
        {
            "inputs": [],
            "name": "getSettlementTokenBalanceCap",
            "outputs": [
                {
                    "internalType": "uint256",
                    "name": "",
                    "type": "uint256"
                }
            ],
            "stateMutability": "view",
            "type": "function"
        },
        {
            "inputs": [
                {
                    "internalType": "address",
                    "name": "trader",
                    "type": "address"
                },
                {
                    "internalType": "address",
                    "name": "baseToken",
                    "type": "address"
                }
            ],
            "name": "getTakerOpenNotional",
            "outputs": [
                {
                    "internalType": "int256",
                    "name": "",
                    "type": "int256"
                }
            ],
            "stateMutability": "view",
            "type": "function"
        },
        {
            "inputs": [
                {
                    "internalType": "address",
                    "name": "trader",
                    "type": "address"
                },
                {
                    "internalType": "address",
                    "name": "baseToken",
                    "type": "address"
                }
            ],
            "name": "getTakerPositionSize",
            "outputs": [
                {
                    "internalType": "int256",
                    "name": "",
                    "type": "int256"
                }
            ],
            "stateMutability": "view",
            "type": "function"
        },
        {
            "inputs": [
                {
                    "internalType": "address",
                    "name": "pool",
                    "type": "address"
                }
            ],
            "name": "getToken",
            "outputs": [
                {
                    "internalType": "address",
                    "name": "",
                    "type": "address"
                }
            ],
            "stateMutability": "view",
            "type": "function"
        },
        {
            "inputs": [
                {
                    "internalType": "address",
                    "name": "trader",
                    "type": "address"
                }
            ],
            "name": "getTotalAbsPositionValue",
            "outputs": [
                {
                    "internalType": "uint256",
                    "name": "",
                    "type": "uint256"
                }
            ],
            "stateMutability": "view",
            "type": "function"
        },
        {
            "inputs": [],
            "name": "getTotalDebt",
            "outputs": [
                {
                    "internalType": "uint256",
                    "name": "",
                    "type": "uint256"
                }
            ],
            "stateMutability": "view",
            "type": "function"
        },
        {
            "inputs": [
                {
                    "internalType": "address",
                    "name": "trader",
                    "type": "address"
                }
            ],
            "name": "getTotalDebtValue",
            "outputs": [
                {
                    "internalType": "uint256",
                    "name": "",
                    "type": "uint256"
                }
            ],
            "stateMutability": "view",
            "type": "function"
        },
        {
            "inputs": [
                {
                    "internalType": "address",
                    "name": "trader",
                    "type": "address"
                },
                {
                    "internalType": "address",
                    "name": "baseToken",
                    "type": "address"
                },
                {
                    "internalType": "bool",
                    "name": "fetchBase",
                    "type": "bool"
                }
            ],
            "name": "getTotalLPOrderDebt",
            "outputs": [
                {
                    "internalType": "uint256",
                    "name": "",
                    "type": "uint256"
                }
            ],
            "stateMutability": "view",
            "type": "function"
        },
        {
            "inputs": [
                {
                    "internalType": "address",
                    "name": "trader",
                    "type": "address"
                },
                {
                    "internalType": "address[]",
                    "name": "baseTokens",
                    "type": "address[]"
                }
            ],
            "name": "getTotalLPQuoteAmount",
            "outputs": [
                {
                    "internalType": "int256",
                    "name": "totalQuoteAmountInAmms",
                    "type": "int256"
                }
            ],
            "stateMutability": "view",
            "type": "function"
        },
        {
            "inputs": [
                {
                    "internalType": "address",
                    "name": "baseToken",
                    "type": "address"
                }
            ],
            "name": "getTotalLiquidity",
            "outputs": [
                {
                    "internalType": "uint256",
                    "name": "",
                    "type": "uint256"
                }
            ],
            "stateMutability": "view",
            "type": "function"
        },
        {
            "inputs": [
                {
                    "internalType": "address",
                    "name": "trader",
                    "type": "address"
                },
                {
                    "internalType": "address",
                    "name": "baseToken",
                    "type": "address"
                }
            ],
            "name": "getTotalOpenNotional",
            "outputs": [
                {
                    "internalType": "int256",
                    "name": "",
                    "type": "int256"
                }
            ],
            "stateMutability": "view",
            "type": "function"
        },
        {
            "inputs": [
                {
                    "internalType": "address",
                    "name": "trader",
                    "type": "address"
                },
                {
                    "internalType": "address",
                    "name": "baseToken",
                    "type": "address"
                }
            ],
            "name": "getTotalPositionSize",
            "outputs": [
                {
                    "internalType": "int256",
                    "name": "",
                    "type": "int256"
                }
            ],
            "stateMutability": "view",
            "type": "function"
        },
        {
            "inputs": [
                {
                    "internalType": "address",
                    "name": "trader",
                    "type": "address"
                },
                {
                    "internalType": "address",
                    "name": "baseToken",
                    "type": "address"
                }
            ],
            "name": "getTotalPositionValue",
            "outputs": [
                {
                    "internalType": "int256",
                    "name": "",
                    "type": "int256"
                }
            ],
            "stateMutability": "view",
            "type": "function"
        },
        {
            "inputs": [
                {
                    "internalType": "address",
                    "name": "trader",
                    "type": "address"
                },
                {
                    "internalType": "address",
                    "name": "baseToken",
                    "type": "address"
                },
                {
                    "internalType": "bool",
                    "name": "fetchBase",
                    "type": "bool"
                }
            ],
            "name": "getTotalTokenAmountInAmm",
            "outputs": [
                {
                    "internalType": "uint256",
                    "name": "tokenAmount",
                    "type": "uint256"
                }
            ],
            "stateMutability": "view",
            "type": "function"
        },
        {
            "inputs": [],
            "name": "getTwapInterval",
            "outputs": [
                {
                    "internalType": "uint32",
                    "name": "",
                    "type": "uint32"
                }
            ],
            "stateMutability": "view",
            "type": "function"
        },
        {
            "inputs": [
                {
                    "internalType": "address",
                    "name": "baseToken",
                    "type": "address"
                }
            ],
            "name": "getTwapMarkPrice",
            "outputs": [
                {
                    "internalType": "uint256",
                    "name": "",
                    "type": "uint256"
                }
            ],
            "stateMutability": "view",
            "type": "function"
        },
        {
            "inputs": [],
            "name": "getVault",
            "outputs": [
                {
                    "internalType": "address",
                    "name": "",
                    "type": "address"
                }
            ],
            "stateMutability": "view",
            "type": "function"
        },
        {
            "inputs": [
                {
                    "internalType": "address",
                    "name": "baseToken",
                    "type": "address"
                }
            ],
            "name": "hasAmm",
            "outputs": [
                {
                    "internalType": "bool",
                    "name": "",
                    "type": "bool"
                }
            ],
            "stateMutability": "view",
            "type": "function"
        },
        {
            "inputs": [
                {
                    "internalType": "address",
                    "name": "trader",
                    "type": "address"
                }
            ],
            "name": "hasOrder",
            "outputs": [
                {
                    "internalType": "bool",
                    "name": "",
                    "type": "bool"
                }
            ],
            "stateMutability": "view",
            "type": "function"
        },
        {
            "inputs": [
                {
                    "internalType": "address",
                    "name": "clearingHouseArg",
                    "type": "address"
                },
                {
                    "internalType": "address",
                    "name": "clearingHouseConfigArg",
                    "type": "address"
                },
                {
                    "internalType": "address",
                    "name": "positionMgmtArg",
                    "type": "address"
                },
                {
                    "internalType": "address",
                    "name": "marketTakerArg",
                    "type": "address"
                },
                {
                    "internalType": "address",
                    "name": "liquidityProviderArg",
                    "type": "address"
                },
                {
                    "internalType": "address",
                    "name": "insuranceFundArg",
                    "type": "address"
                },
                {
                    "internalType": "address",
                    "name": "factoryArg",
                    "type": "address"
                },
                {
                    "internalType": "address",
                    "name": "wrapAmmArg",
                    "type": "address"
                },
                {
                    "internalType": "address",
                    "name": "vaultArg",
                    "type": "address"
                }
            ],
            "name": "initialize",
            "outputs": [],
            "stateMutability": "nonpayable",
            "type": "function"
        },
        {
            "inputs": [
                {
                    "internalType": "address",
                    "name": "baseToken",
                    "type": "address"
                },
                {
                    "internalType": "uint256",
                    "name": "amount",
                    "type": "uint256"
                },
                {
                    "internalType": "bool",
                    "name": "baseToQuote",
                    "type": "bool"
                },
                {
                    "internalType": "bool",
                    "name": "exactInput",
                    "type": "bool"
                }
            ],
            "name": "simulatedSwap",
            "outputs": [
                {
                    "internalType": "uint256",
                    "name": "",
                    "type": "uint256"
                },
                {
                    "internalType": "uint256",
                    "name": "",
                    "type": "uint256"
                },
                {
                    "internalType": "uint256",
                    "name": "",
                    "type": "uint256"
                }
            ],
            "stateMutability": "nonpayable",
            "type": "function"
        },
        {
            "inputs": [],
            "name": "vaultDecimals",
            "outputs": [
                {
                    "internalType": "uint8",
                    "name": "",
                    "type": "uint8"
                }
            ],
            "stateMutability": "view",
            "type": "function"
        }
    ],
    "bytecode": "0x608060405234801561001057600080fd5b50613396806100206000396000f3fe608060405234801561001057600080fd5b50600436106104285760003560e01c806380f57f111161022b578063b3bd6e1211610130578063e2a72cce116100b8578063f75c266d11610087578063f75c266d146108d1578063f764720c146108e4578063f8b2cb4f146108f7578063fb39b4241461090a578063fedf924b1461091d57610428565b8063e2a72cce1461088e578063e3b910e414610896578063ec32c8e3146108a9578063f5e95acb146108bc57610428565b8063cb379aa2116100ff578063cb379aa21461083a578063cb3c7b8e1461084d578063cc84092814610860578063cc85f5f214610873578063d50d01b71461087b57610428565b8063b3bd6e12146107f9578063b88c91481461080c578063c39994441461081f578063c575ff791461083257610428565b8063a70bba67116101b3578063af74e73611610182578063af74e7361461078b578063b02dd211146107ab578063b2e27148146107cb578063b3944d52146107de578063b3945690146107e657610428565b8063a70bba6714610755578063a7d60ed214610768578063a85494021461077b578063aa2a82941461078357610428565b80638d928af8116101fa5780638d928af8146107175780638e8499ba1461071f5780639d6179c3146107275780639de8ef791461072f578063a27a64b21461074257610428565b806380f57f11146106d457806385b0f967146106e757806385eacc771461070757806388cc58e41461070f57610428565b8063508d501d116103315780636ccdc82e116102b95780637428333611610288578063742833361461068b5780637a5b45a0146106935780637d4dd954146106a65780637fdc9fc8146106b9578063803841b7146106cc57610428565b80636ccdc82e146106485780636e1d2dd21461065b5780636f0daecb1461066357806373b53e931461067857610428565b8063597704381161030057806359770438146105dc5780635ae80951146105ef5780635c132184146106025780636332fef61461061557806368f12e121461063557610428565b8063508d501d14610599578063543ce73a146105ac57806355338fc1146105c1578063564cd092146105c957610428565b80632b7746f1116103b45780633f935107116103835780633f935107146105455780633ffd1303146105585780634318dd951461056b57806343a19cc41461057e5780634a64d67d1461059157610428565b80632b7746f11461050257806334ce998a146105155780633a5ad7791461051d5780633e742e3b1461053057610428565b80631867b480116103fb5780631867b480146104945780631987da48146104a75780632084d2c6146104ba5780632185b42a146104dc578063293a5077146104ef57610428565b806312803c7d1461042d5780631393a4691461044b57806313ea7c891461046b578063158626f71461048c575b600080fd5b610435610925565b6040516104429190612d86565b60405180910390f35b61045e610459366004612c4b565b6109a7565b6040516104429190612f2d565b61047e610479366004612779565b610a2e565b604051610442929190612f36565b610435610abb565b61045e6104a23660046127b1565b610aca565b61045e6104b5366004612779565b610ec9565b6104cd6104c8366004612a30565b610efa565b60405161044293929190613136565b61045e6104ea366004612956565b6111d8565b61045e6104fd366004612779565b611268565b61045e610510366004612779565b611299565b61045e6112ca565b61045e61052b366004612779565b611347565b610538611378565b604051610442919061314c565b61045e6105533660046127b1565b6113f5565b61045e6105663660046129d8565b611478565b61045e610579366004612779565b6114ab565b61045e61058c3660046128a4565b6114dc565b610435611512565b61045e6105a7366004612779565b611561565b6105b4611592565b6040516104429190613126565b61043561160f565b61045e6105d7366004612a82565b61161e565b6104356105ea366004612779565b611653565b61045e6105fd366004612779565b6116d4565b61047e610610366004612a30565b61170a565b6106286106233660046127b1565b611860565b6040516104429190613105565b61045e6106433660046127b1565b6118ea565b61045e610656366004612779565b61191d565b6105b461194e565b61066b611993565b604051610442919061315d565b61047e610686366004612ab6565b611a10565b6105b4611aa7565b61045e6106a13660046127b1565b611aec565b61047e6106b4366004612a05565b611b1f565b61045e6106c7366004612a05565b611bb0565b610435611be3565b61045e6106e2366004612779565b611c28565b6106fa6106f53660046127b1565b611c59565b6040516104429190613092565b61045e611ce2565b610435611d27565b610435611d36565b610435611d45565b61066b611d54565b61045e61073d366004612779565b611d99565b61045e610750366004612779565b611dca565b610435610763366004612a05565b611dfb565b610435610776366004612779565b611e7e565b6105b4611eaf565b610435611ef4565b61079e610799366004612779565b611f03565b6040516104429190612ed5565b6107be6107b9366004612779565b611f88565b6040516104429190612f22565b61045e6107d93660046127b1565b612009565b61045e61203c565b61045e6107f43660046127b1565b612081565b61045e6108073660046127b1565b6120b4565b61045e61081a366004612779565b6120e7565b61045e61082d366004612779565b612118565b610435612149565b61045e6108483660046127b1565b61215e565b6107be61085b366004612779565b612191565b61047e61086e366004612ab6565b6121c2565b6105b46121fd565b61045e6108893660046127b1565b612242565b610435612275565b61045e6108a43660046128a4565b612284565b61045e6108b73660046128ee565b6122ba565b6108cf6108ca3660046127e9565b6122f0565b005b61045e6108df366004612779565b612410565b6104356108f2366004612cfc565b612441565b61045e610905366004612779565b612472565b61045e610918366004612779565b6124a3565b6105b46124d4565b600854604080516312803c7d60e01b815290516000926001600160a01b0316916312803c7d916004808301926020929190829003018186803b15801561096a57600080fd5b505afa15801561097e573d6000803e3d6000fd5b505050506040513d601f19601f820116820180604052508101906109a29190612795565b905090565b600354604051631393a46960e01b81526000916001600160a01b031690631393a469906109d89085906004016130cc565b60206040518083038186803b1580156109f057600080fd5b505afa158015610a04573d6000803e3d6000fd5b505050506040513d601f19601f82011682018060405250810190610a289190612bbf565b92915050565b6002546040516313ea7c8960e01b815260009182916001600160a01b03909116906313ea7c8990610a63908690600401612d86565b604080518083038186803b158015610a7a57600080fd5b505afa158015610a8e573d6000803e3d6000fd5b505050506040513d601f19601f82011682018060405250810190610ab29190612bd7565b91509150915091565b6005546001600160a01b031690565b60008054604051635ae8095160e01b815282916201000090046001600160a01b031690635ae8095190610b01908790600401612d86565b60206040518083038186803b158015610b1957600080fd5b505afa158015610b2d573d6000803e3d6000fd5b505050506040513d601f19601f82011682018060405250810190610b519190612bbf565b600254604051633478970960e11b81529192506000916001600160a01b03909116906368f12e1290610b899088908890600401612d9a565b60206040518083038186803b158015610ba157600080fd5b505afa158015610bb5573d6000803e3d6000fd5b505050506040513d601f19601f82011682018060405250810190610bd99190612bbf565b905080610beb57600092505050610a28565b6000846001600160a01b03166312080647600160009054906101000a90046001600160a01b03166001600160a01b0316633e742e3b6040518163ffffffff1660e01b815260040160206040518083038186803b158015610c4a57600080fd5b505afa158015610c5e573d6000803e3d6000fd5b505050506040513d601f19601f82011682018060405250810190610c829190612d41565b6040518263ffffffff1660e01b8152600401610c9e919061314c565b60206040518083038186803b158015610cb657600080fd5b505afa158015610cca573d6000803e3d6000fd5b505050506040513d601f19601f82011682018060405250810190610cee9190612bbf565b600254604051633666e41760e11b81529192506000916001600160a01b0390911690636ccdc82e90610d24908a90600401612d86565b60206040518083038186803b158015610d3c57600080fd5b505afa158015610d50573d6000803e3d6000fd5b505050506040513d601f19601f82011682018060405250810190610d749190612bbf565b90506000600160009054906101000a90046001600160a01b03166001600160a01b031663a85494026040518163ffffffff1660e01b815260040160206040518083038186803b158015610dc657600080fd5b505afa158015610dda573d6000803e3d6000fd5b505050506040513d601f19601f82011682018060405250810190610dfe9190612ce0565b90506000808513610e2857610e23610e1983620f424061319c565b62ffffff16612519565b610e38565b610e38610e1983620f42406132bf565b90506000610e4e610e498585612546565b612519565b610e589088613280565b90506000610e6a8784620f424061255b565b9050600081610e8184670de0b6b3a76400006131fd565b610e8b91906131c3565b610e9488612519565b610e9e9190613280565b90506000811215610eb0576000610eb9565b610eb9816125ff565b9c9b505050505050505050505050565b600754604051630330fb4960e31b81526000916001600160a01b031690631987da48906109d8908590600401612d86565b60008060008315610fdf578415610fa457600080546040516349cf2a6160e01b8152620100009091046001600160a01b0316916349cf2a6191610f47918b91600191908c90600401612e57565b606060405180830381600087803b158015610f6157600080fd5b505af1158015610f75573d6000803e3d6000fd5b505050506040513d601f19601f82011682018060405250810190610f999190612d14565b9250925092506111ce565b600080546040516349cf2a6160e01b8152620100009091046001600160a01b0316916349cf2a6191610f47918b916001908c90600401612e57565b841561110857600754604051631990812560e31b81526000916001600160a01b03169063cc8409289061101d908b9060019086908d90600401612e57565b604080518083038186803b15801561103457600080fd5b505afa158015611048573d6000803e3d6000fd5b505050506040513d601f19601f8201168201806040525081019061106c9190612bd7565b50600080546040516349cf2a6160e01b81529293506201000090046001600160a01b0316916349cf2a61916110aa918c916001918790600401612e57565b606060405180830381600087803b1580156110c457600080fd5b505af11580156110d8573d6000803e3d6000fd5b505050506040513d601f19601f820116820180604052508101906110fc9190612d14565b935093509350506111ce565b600754604051631990812560e31b81526000916001600160a01b03169063cc84092890611140908b9085906001908d90600401612e57565b604080518083038186803b15801561115757600080fd5b505afa15801561116b573d6000803e3d6000fd5b505050506040513d601f19601f8201168201806040525081019061118f9190612bd7565b50600080546040516349cf2a6160e01b81529293506201000090046001600160a01b0316916349cf2a61916110aa918c91906001908790600401612e57565b9450945094915050565b600480546040516310c2da1560e11b81526000926001600160a01b0390921691632185b42a9161120e9188918891889101612e08565b60206040518083038186803b15801561122657600080fd5b505afa15801561123a573d6000803e3d6000fd5b505050506040513d601f19601f8201168201806040525081019061125e9190612bbf565b90505b9392505050565b60025460405163293a507760e01b81526000916001600160a01b03169063293a5077906109d8908590600401612d86565b600754604051632b7746f160e01b81526000916001600160a01b031690632b7746f1906109d8908590600401612d86565b60085460408051631a674cc560e11b815290516000926001600160a01b0316916334ce998a916004808301926020929190829003018186803b15801561130f57600080fd5b505afa158015611323573d6000803e3d6000fd5b505050506040513d601f19601f820116820180604052508101906109a29190612bbf565b600754604051633a5ad77960e01b81526000916001600160a01b031690633a5ad779906109d8908590600401612d86565b60015460408051633e742e3b60e01b815290516000926001600160a01b031691633e742e3b916004808301926020929190829003018186803b1580156113bd57600080fd5b505afa1580156113d1573d6000803e3d6000fd5b505050506040513d601f19601f820116820180604052508101906109a29190612d41565b600254604051633f93510760e01b81526000916001600160a01b031690633f935107906114289086908690600401612d9a565b60206040518083038186803b15801561144057600080fd5b505afa158015611454573d6000803e3d6000fd5b505050506040513d601f19601f820116820180604052508101906112619190612bbf565b600854604051633ffd130360e01b81526000916001600160a01b031690633ffd1303906114289086908690600401612e7d565b600354604051634318dd9560e01b81526000916001600160a01b031690634318dd95906109d8908590600401612d86565b600480546040516310e8673160e21b81526000926001600160a01b03909216916343a19cc49161120e9188918891889101612db4565b60008060029054906101000a90046001600160a01b03166001600160a01b0316634a64d67d6040518163ffffffff1660e01b815260040160206040518083038186803b15801561096a57600080fd5b60065460405163d88bf68d60e01b81526000916001600160a01b03169063d88bf68d906109d8908590600401612d86565b60015460408051632a1e739d60e11b815290516000926001600160a01b03169163543ce73a916004808301926020929190829003018186803b1580156115d757600080fd5b505afa1580156115eb573d6000803e3d6000fd5b505050506040513d601f19601f820116820180604052508101906109a29190612ce0565b6003546001600160a01b031690565b600754604051632b26684960e11b81526000916001600160a01b03169063564cd0929061120e90879087908790600401612eb4565b600654604051634bbec89160e11b81526000916001600160a01b03169063977d912290611684908590600401612d86565b60206040518083038186803b15801561169c57600080fd5b505afa1580156116b0573d6000803e3d6000fd5b505050506040513d601f19601f82011682018060405250810190610a289190612795565b60008054604051635ae8095160e01b8152620100009091046001600160a01b031690635ae80951906109d8908590600401612d86565b60008083156117e15782156117a9576007546040516373b53e9360e01b81526001600160a01b03909116906373b53e93906117519089906001906000908b90600401612e57565b604080518083038186803b15801561176857600080fd5b505afa15801561177c573d6000803e3d6000fd5b505050506040513d601f19601f820116820180604052508101906117a09190612bd7565b91509150611857565b600754604051631990812560e31b81526001600160a01b039091169063cc840928906117519089906001906000908b90600401612e57565b821561181f576007546040516373b53e9360e01b81526001600160a01b03909116906373b53e93906117519089906000906001908b90600401612e57565b600754604051631990812560e31b81526001600160a01b039091169063cc840928906117519089906000906001908b90600401612e57565b94509492505050565b611868612729565b6002546040516331997f7b60e11b81526001600160a01b0390911690636332fef69061189a9086908690600401612d9a565b60606040518083038186803b1580156118b257600080fd5b505afa1580156118c6573d6000803e3d6000fd5b505050506040513d601f19601f820116820180604052508101906112619190612ca3565b600254604051633478970960e11b81526000916001600160a01b0316906368f12e12906114289086908690600401612d9a565b600254604051633666e41760e11b81526000916001600160a01b031690636ccdc82e906109d8908590600401612d86565b6001546040805163370e96e960e11b815290516000926001600160a01b031691636e1d2dd2916004808301926020929190829003018186803b1580156115d757600080fd5b60015460408051636f0daecb60e01b815290516000926001600160a01b031691636f0daecb916004808301926020929190829003018186803b1580156119d857600080fd5b505afa1580156119ec573d6000803e3d6000fd5b505050506040513d601f19601f820116820180604052508101906109a29190612d65565b6007546040516373b53e9360e01b815260009182916001600160a01b03909116906373b53e9390611a4b908990899089908990600401612e57565b604080518083038186803b158015611a6257600080fd5b505afa158015611a76573d6000803e3d6000fd5b505050506040513d601f19601f82011682018060405250810190611a9a9190612bd7565b9150915094509492505050565b60015460408051633a14199b60e11b815290516000926001600160a01b0316916374283336916004808301926020929190829003018186803b1580156115d757600080fd5b6002546040516303d2da2d60e51b81526000916001600160a01b031690637a5b45a0906114289086908690600401612d9a565b600754604051631f53765560e21b815260009182916001600160a01b0390911690637d4dd95490611b569087908790600401612e9b565b604080518083038186803b158015611b6d57600080fd5b505afa158015611b81573d6000803e3d6000fd5b505050506040513d601f19601f82011682018060405250810190611ba59190612bd7565b915091509250929050565b600754604051630ffb93f960e31b81526000916001600160a01b031690637fdc9fc8906114289086908690600401612e9b565b6006546040805163cab4d3db60e01b815290516000926001600160a01b03169163cab4d3db916004808301926020929190829003018186803b15801561096a57600080fd5b6003546040516380f57f1160e01b81526000916001600160a01b0316906380f57f11906109d8908590600401612d86565b611c6161274a565b600480546040516385b0f96760e01b81526001600160a01b03909116916385b0f96791611c92918791879101612d9a565b60a06040518083038186803b158015611caa57600080fd5b505afa158015611cbe573d6000803e3d6000fd5b505050506040513d601f19601f820116820180604052508101906112619190612bfa565b600154604080516385eacc7760e01b815290516000926001600160a01b0316916385eacc77916004808301926020929190829003018186803b15801561130f57600080fd5b6006546001600160a01b031690565b6008546001600160a01b031690565b6002546001600160a01b031690565b6008546040805163313ce56760e01b815290516000926001600160a01b03169163313ce567916004808301926020929190829003018186803b1580156119d857600080fd5b600754604051639de8ef7960e01b81526000916001600160a01b031690639de8ef79906109d8908590600401612d86565b60075460405163513d325960e11b81526000916001600160a01b03169063a27a64b2906109d8908590600401612d86565b60075460405163a70bba6760e01b81526000916001600160a01b03169063a70bba6790611e2e9086908690600401612e9b565b60206040518083038186803b158015611e4657600080fd5b505afa158015611e5a573d6000803e3d6000fd5b505050506040513d601f19601f820116820180604052508101906112619190612795565b6006546040516353eb076960e11b81526000916001600160a01b03169063a7d60ed290611684908590600401612d86565b6001546040805163542a4a0160e11b815290516000926001600160a01b03169163a8549402916004808301926020929190829003018186803b1580156115d757600080fd5b6001546001600160a01b031690565b6002546040516357ba739b60e11b81526060916001600160a01b03169063af74e73690611f34908590600401612d86565b60006040518083038186803b158015611f4c57600080fd5b505afa158015611f60573d6000803e3d6000fd5b505050506040513d6000823e601f3d908101601f19168201604052610a289190810190612af0565b6006546040516372971b3f60e01b81526000916001600160a01b0316906372971b3f90611fb9908590600401612d86565b60206040518083038186803b158015611fd157600080fd5b505afa158015611fe5573d6000803e3d6000fd5b505050506040513d601f19601f82011682018060405250810190610a289190612ba3565b60025460405163165c4e2960e31b81526000916001600160a01b03169063b2e27148906114289086908690600401612d9a565b60065460408051634ab5571d60e11b815290516000926001600160a01b03169163956aae3a916004808301926020929190829003018186803b15801561130f57600080fd5b600254604051630b39456960e41b81526000916001600160a01b03169063b3945690906114289086908690600401612d9a565b6002546040516359deb70960e11b81526000916001600160a01b03169063b3bd6e12906114289086908690600401612d9a565b600754604051631711922960e31b81526000916001600160a01b03169063b88c9148906109d8908590600401612d86565b6008546040516330e6651160e21b81526000916001600160a01b03169063c3999444906109d8908590600401612d86565b6000546201000090046001600160a01b031690565b60035460405163659bcd5160e11b81526000916001600160a01b03169063cb379aa2906114289086908690600401612d9a565b60025460405163659e3dc760e11b81526000916001600160a01b03169063cb3c7b8e90611fb9908590600401612d86565b600754604051631990812560e31b815260009182916001600160a01b039091169063cc84092890611a4b908990899089908990600401612e57565b60015460408051636642faf960e11b815290516000926001600160a01b03169163cc85f5f2916004808301926020929190829003018186803b1580156115d757600080fd5b60025460405163d50d01b760e01b81526000916001600160a01b03169063d50d01b7906114289086908690600401612d9a565b6004546001600160a01b031690565b600480546040516338ee443960e21b81526000926001600160a01b039092169163e3b910e49161120e9188918891889101612db4565b6004805460405163ec32c8e360e01b81526000926001600160a01b039092169163ec32c8e39161120e9188918891889101612dd8565b600054610100900460ff1680612309575060005460ff16155b61232e5760405162461bcd60e51b815260040161232590612fbb565b60405180910390fd5b600054610100900460ff16158015612359576000805460ff1961ff0019909116610100171660011790555b6000805462010000600160b01b031916620100006001600160a01b038d81169190910291909117909155600180546001600160a01b03199081168c8416179091556002805482168b84161790556003805482168a8416179055600480548216898416179055600580548216888416179055600680548216878416179055600780548216868416179055600880549091169184169190911790558015612404576000805461ff00191690555b50505050505050505050565b60025460405163f75c266d60e01b81526000916001600160a01b03169063f75c266d906109d8908590600401612d86565b600654604051631d0eaec760e11b81526000916001600160a01b031690633a1d5d8e90611684908590600401612f2d565b60085460405163f8b2cb4f60e01b81526000916001600160a01b03169063f8b2cb4f906109d8908590600401612d86565b600754604051633ece6d0960e21b81526000916001600160a01b03169063fb39b424906109d8908590600401612d86565b6001546040805163fedf924b60e01b815290516000926001600160a01b03169163fedf924b916004808301926020929190829003018186803b1580156115d757600080fd5b60006001600160ff1b038211156125425760405162461bcd60e51b815260040161232590613009565b5090565b6000611261838362ffffff16620f4240612621565b6000806000851261256c5784612575565b612575856126e7565b90506000808512612586578461258f565b61258f856126e7565b9050600080871280156125a25750600086135b806125b857506000871380156125b85750600086125b6125c35760006125c6565b60015b905060006125d5848488612621565b9050816125ea576125e581612519565b6125f3565b6125f381612715565b98975050505050505050565b6000808212156125425760405162461bcd60e51b815260040161232590612f86565b60008080600019858709858702925082811083820303915050806000141561266e57600084116126635760405162461bcd60e51b815260040161232590612f44565b508290049050611261565b80841161267a57600080fd5b6000848688096000868103871696879004966002600389028118808a02820302808a02820302808a02820302808a02820302808a02820302808a02909103029181900381900460010186841190950394909402919094039290920491909117919091029150509392505050565b6000600160ff1b821361270c5760405162461bcd60e51b815260040161232590613051565b610a28826132e3565b600061272082612519565b610a28906132e3565b60405180606001604052806000815260200160008152602001600081525090565b6040518060a0016040528060008152602001600081526020016000815260200160008152602001600081525090565b60006020828403121561278a578081fd5b813561126181613329565b6000602082840312156127a6578081fd5b815161126181613329565b600080604083850312156127c3578081fd5b82356127ce81613329565b915060208301356127de81613329565b809150509250929050565b60008060008060008060008060006101208a8c031215612807578485fd5b893561281281613329565b985060208a013561282281613329565b975060408a013561283281613329565b965060608a013561284281613329565b955060808a013561285281613329565b945060a08a013561286281613329565b935060c08a013561287281613329565b925060e08a013561288281613329565b91506101008a013561289381613329565b809150509295985092959850929598565b6000806000606084860312156128b8578283fd5b83356128c381613329565b925060208401356128d381613329565b915060408401356128e381613341565b809150509250925092565b60008060008385036080811215612903578182fd5b843561290e81613329565b9350602085013561291e81613329565b92506040603f1982011215612931578182fd5b5061293c604061316b565b604085013581526060909401356020850152509093909250565b60008060006040848603121561296a578081fd5b833561297581613329565b9250602084013567ffffffffffffffff80821115612991578283fd5b818601915086601f8301126129a4578283fd5b8135818111156129b2578384fd5b87602080830285010111156129c5578384fd5b6020830194508093505050509250925092565b600080604083850312156129ea578182fd5b82356129f581613329565b915060208301356127de8161334f565b60008060408385031215612a17578182fd5b8235612a2281613329565b946020939093013593505050565b60008060008060808587031215612a45578182fd5b8435612a5081613329565b9350602085013592506040850135612a6781613341565b91506060850135612a7781613341565b939692955090935050565b600080600060608486031215612a96578081fd5b8335612aa181613329565b95602085013595506040909401359392505050565b60008060008060808587031215612acb578182fd5b8435612ad681613329565b966020860135965060408601359560600135945092505050565b60006020808385031215612b02578182fd5b825167ffffffffffffffff80821115612b19578384fd5b818501915085601f830112612b2c578384fd5b815181811115612b3e57612b3e613313565b8381029150612b4e84830161316b565b8181528481019084860184860187018a1015612b68578788fd5b8795505b83861015612b965780519450612b8185613329565b84835260019590950194918601918601612b6c565b5098975050505050505050565b600060208284031215612bb4578081fd5b815161126181613341565b600060208284031215612bd0578081fd5b5051919050565b60008060408385031215612be9578182fd5b505080516020909101519092909150565b600060a08284031215612c0b578081fd5b612c1560a061316b565b82518152602083015160208201526040830151604082015260608301516060820152608083015160808201528091505092915050565b600060808284031215612c5c578081fd5b612c66608061316b565b8235612c7181613329565b81526020830135612c8181613329565b6020820152604083810135908201526060928301359281019290925250919050565b600060608284031215612cb4578081fd5b612cbe606061316b565b8251815260208301516020820152604083015160408201528091505092915050565b600060208284031215612cf1578081fd5b81516112618161334f565b600060208284031215612d0d578081fd5b5035919050565b600080600060608486031215612d28578081fd5b8351925060208401519150604084015190509250925092565b600060208284031215612d52578081fd5b815163ffffffff81168114611261578182fd5b600060208284031215612d76578081fd5b815160ff81168114611261578182fd5b6001600160a01b0391909116815260200190565b6001600160a01b0392831681529116602082015260400190565b6001600160a01b039384168152919092166020820152901515604082015260600190565b6001600160a01b039384168152919092166020808301919091528251604083015290910151606082015260800190565b6001600160a01b03848116825260406020808401829052908301849052600091859160608501845b87811015612b96578435612e4381613329565b841682529382019390820190600101612e30565b6001600160a01b0394909416845260208401929092526040830152606082015260800190565b6001600160a01b0392909216825262ffffff16602082015260400190565b6001600160a01b03929092168252602082015260400190565b6001600160a01b039390931683526020830191909152604082015260600190565b6020808252825182820181905260009190848201906040850190845b81811015612f165783516001600160a01b031683529284019291840191600101612ef1565b50909695505050505050565b901515815260200190565b90815260200190565b918252602082015260400190565b60208082526022908201527f64656e6f6d696e61746f72206d7573742062652067726561746572207468616e604082015261020360f41b606082015260800190565b6020808252818101527f53616665436173743a2076616c7565206d75737420626520706f736974697665604082015260600190565b6020808252602e908201527f496e697469616c697a61626c653a20636f6e747261637420697320616c72656160408201526d191e481a5b9a5d1a585b1a5e995960921b606082015260800190565b60208082526028908201527f53616665436173743a2076616c756520646f65736e27742066697420696e2061604082015267371034b73a191a9b60c11b606082015260800190565b60208082526021908201527f4661697274726164654d6174683a20696e76657273696f6e206f766572666c6f6040820152607760f81b606082015260800190565b600060a082019050825182526020830151602083015260408301516040830152606083015160608301526080830151608083015292915050565b81516001600160a01b03908116825260208084015190911690820152604080830151908201526060918201519181019190915260800190565b81518152602080830151908201526040918201519181019190915260600190565b62ffffff91909116815260200190565b9283526020830191909152604082015260600190565b63ffffffff91909116815260200190565b60ff91909116815260200190565b604051601f8201601f1916810167ffffffffffffffff8111828210171561319457613194613313565b604052919050565b600062ffffff8083168185168083038211156131ba576131ba6132fd565b01949350505050565b6000826131de57634e487b7160e01b81526012600452602481fd5b600160ff1b8214600019841416156131f8576131f86132fd565b500590565b60006001600160ff1b0381841382841380821686840486111615613223576132236132fd565b600160ff1b84871282811687830589121615613241576132416132fd565b85871292508782058712848416161561325c5761325c6132fd565b87850587128184161615613272576132726132fd565b505050929093029392505050565b60008083128015600160ff1b85018412161561329e5761329e6132fd565b6001600160ff1b03840183138116156132b9576132b96132fd565b50500390565b600062ffffff838116908316818110156132db576132db6132fd565b039392505050565b6000600160ff1b8214156132f9576132f96132fd565b0390565b634e487b7160e01b600052601160045260246000fd5b634e487b7160e01b600052604160045260246000fd5b6001600160a01b038116811461333e57600080fd5b50565b801515811461333e57600080fd5b62ffffff8116811461333e57600080fdfea2646970667358221220165f6ec9b5052b7c5452ddad4bfb7740cde0e5cdf3feadc9d1e500f72a560faa64736f6c63430008010033",
    "linkReferences": {},
    "deployedLinkReferences": {}
}