{
    "_format": "hh-sol-artifact-1",
    "contractName": "LimitOrderBook",
    "sourceName": "contracts/limit/LimitOrderBook.sol",
    "abi": [
        {
            "anonymous": false,
            "inputs": [
                {
                    "indexed": true,
                    "internalType": "address",
                    "name": "clearingHouseArg",
                    "type": "address"
                }
            ],
            "name": "ClearingHouseChanged",
            "type": "event"
        },
        {
            "anonymous": false,
            "inputs": [
                {
                    "indexed": true,
                    "internalType": "address",
                    "name": "trader",
                    "type": "address"
                },
                {
                    "indexed": true,
                    "internalType": "address",
                    "name": "baseToken",
                    "type": "address"
                },
                {
                    "indexed": false,
                    "internalType": "bytes32",
                    "name": "orderHash",
                    "type": "bytes32"
                },
                {
                    "indexed": false,
                    "internalType": "uint8",
                    "name": "orderType",
                    "type": "uint8"
                },
                {
                    "indexed": false,
                    "internalType": "int256",
                    "name": "positionSize",
                    "type": "int256"
                },
                {
                    "indexed": false,
                    "internalType": "int256",
                    "name": "positionNotional",
                    "type": "int256"
                }
            ],
            "name": "LimitOrderCancelled",
            "type": "event"
        },
        {
            "anonymous": false,
            "inputs": [
                {
                    "indexed": true,
                    "internalType": "address",
                    "name": "trader",
                    "type": "address"
                },
                {
                    "indexed": true,
                    "internalType": "address",
                    "name": "baseToken",
                    "type": "address"
                },
                {
                    "indexed": false,
                    "internalType": "bytes32",
                    "name": "orderHash",
                    "type": "bytes32"
                },
                {
                    "indexed": false,
                    "internalType": "uint8",
                    "name": "orderType",
                    "type": "uint8"
                },
                {
                    "indexed": false,
                    "internalType": "address",
                    "name": "keeper",
                    "type": "address"
                },
                {
                    "indexed": false,
                    "internalType": "int256",
                    "name": "exchangedPositionSize",
                    "type": "int256"
                },
                {
                    "indexed": false,
                    "internalType": "int256",
                    "name": "exchangedPositionNotional",
                    "type": "int256"
                },
                {
                    "indexed": false,
                    "internalType": "uint256",
                    "name": "adminFee",
                    "type": "uint256"
                },
                {
                    "indexed": false,
                    "internalType": "uint256",
                    "name": "exchangeFee",
                    "type": "uint256"
                }
            ],
            "name": "LimitOrderFilled",
            "type": "event"
        },
        {
            "anonymous": false,
            "inputs": [
                {
                    "indexed": true,
                    "internalType": "address",
                    "name": "limitOrderRewardVaultArg",
                    "type": "address"
                }
            ],
            "name": "LimitOrderRewardVaultChanged",
            "type": "event"
        },
        {
            "anonymous": false,
            "inputs": [
                {
                    "indexed": false,
                    "internalType": "uint256",
                    "name": "minOrderValueArg",
                    "type": "uint256"
                }
            ],
            "name": "MinOrderValueChanged",
            "type": "event"
        },
        {
            "anonymous": false,
            "inputs": [
                {
                    "indexed": true,
                    "internalType": "address",
                    "name": "previousOwner",
                    "type": "address"
                },
                {
                    "indexed": true,
                    "internalType": "address",
                    "name": "newOwner",
                    "type": "address"
                }
            ],
            "name": "OwnershipTransferred",
            "type": "event"
        },
        {
            "anonymous": false,
            "inputs": [
                {
                    "indexed": false,
                    "internalType": "address",
                    "name": "account",
                    "type": "address"
                }
            ],
            "name": "Paused",
            "type": "event"
        },
        {
            "anonymous": false,
            "inputs": [
                {
                    "indexed": false,
                    "internalType": "address",
                    "name": "account",
                    "type": "address"
                }
            ],
            "name": "Unpaused",
            "type": "event"
        },
        {
            "inputs": [],
            "name": "LIMIT_ORDER_TYPEHASH",
            "outputs": [
                {
                    "internalType": "bytes32",
                    "name": "",
                    "type": "bytes32"
                }
            ],
            "stateMutability": "view",
            "type": "function"
        },
        {
            "inputs": [
                {
                    "components": [
                        {
                            "internalType": "enum ILimitOrderBook.OrderType",
                            "name": "orderType",
                            "type": "uint8"
                        },
                        {
                            "internalType": "uint256",
                            "name": "salt",
                            "type": "uint256"
                        },
                        {
                            "internalType": "address",
                            "name": "trader",
                            "type": "address"
                        },
                        {
                            "internalType": "address",
                            "name": "baseToken",
                            "type": "address"
                        },
                        {
                            "internalType": "bool",
                            "name": "baseToQuote",
                            "type": "bool"
                        },
                        {
                            "internalType": "bool",
                            "name": "exactInput",
                            "type": "bool"
                        },
                        {
                            "internalType": "uint256",
                            "name": "amount",
                            "type": "uint256"
                        },
                        {
                            "internalType": "uint256",
                            "name": "amountLimit",
                            "type": "uint256"
                        },
                        {
                            "internalType": "uint256",
                            "name": "deadline",
                            "type": "uint256"
                        },
                        {
                            "internalType": "bytes32",
                            "name": "referralCode",
                            "type": "bytes32"
                        },
                        {
                            "internalType": "bool",
                            "name": "reduceOnly",
                            "type": "bool"
                        },
                        {
                            "internalType": "uint80",
                            "name": "roundIdWhenCreated",
                            "type": "uint80"
                        },
                        {
                            "internalType": "uint256",
                            "name": "triggerPrice",
                            "type": "uint256"
                        }
                    ],
                    "internalType": "struct ILimitOrderBook.LimitOrder",
                    "name": "order",
                    "type": "tuple"
                }
            ],
            "name": "cancelLimitOrder",
            "outputs": [],
            "stateMutability": "nonpayable",
            "type": "function"
        },
        {
            "inputs": [],
            "name": "candidate",
            "outputs": [
                {
                    "internalType": "address",
                    "name": "",
                    "type": "address"
                }
            ],
            "stateMutability": "view",
            "type": "function"
        },
        {
            "inputs": [],
            "name": "clearingHouse",
            "outputs": [
                {
                    "internalType": "address",
                    "name": "",
                    "type": "address"
                }
            ],
            "stateMutability": "view",
            "type": "function"
        },
        {
            "inputs": [
                {
                    "components": [
                        {
                            "internalType": "enum ILimitOrderBook.OrderType",
                            "name": "orderType",
                            "type": "uint8"
                        },
                        {
                            "internalType": "uint256",
                            "name": "salt",
                            "type": "uint256"
                        },
                        {
                            "internalType": "address",
                            "name": "trader",
                            "type": "address"
                        },
                        {
                            "internalType": "address",
                            "name": "baseToken",
                            "type": "address"
                        },
                        {
                            "internalType": "bool",
                            "name": "baseToQuote",
                            "type": "bool"
                        },
                        {
                            "internalType": "bool",
                            "name": "exactInput",
                            "type": "bool"
                        },
                        {
                            "internalType": "uint256",
                            "name": "amount",
                            "type": "uint256"
                        },
                        {
                            "internalType": "uint256",
                            "name": "amountLimit",
                            "type": "uint256"
                        },
                        {
                            "internalType": "uint256",
                            "name": "deadline",
                            "type": "uint256"
                        },
                        {
                            "internalType": "bytes32",
                            "name": "referralCode",
                            "type": "bytes32"
                        },
                        {
                            "internalType": "bool",
                            "name": "reduceOnly",
                            "type": "bool"
                        },
                        {
                            "internalType": "uint80",
                            "name": "roundIdWhenCreated",
                            "type": "uint80"
                        },
                        {
                            "internalType": "uint256",
                            "name": "triggerPrice",
                            "type": "uint256"
                        }
                    ],
                    "internalType": "struct ILimitOrderBook.LimitOrder",
                    "name": "order",
                    "type": "tuple"
                },
                {
                    "internalType": "bytes",
                    "name": "signature",
                    "type": "bytes"
                },
                {
                    "internalType": "uint80",
                    "name": "roundIdWhenTriggered",
                    "type": "uint80"
                }
            ],
            "name": "fillLimitOrder",
            "outputs": [],
            "stateMutability": "nonpayable",
            "type": "function"
        },
        {
            "inputs": [
                {
                    "components": [
                        {
                            "internalType": "enum ILimitOrderBook.OrderType",
                            "name": "orderType",
                            "type": "uint8"
                        },
                        {
                            "internalType": "uint256",
                            "name": "salt",
                            "type": "uint256"
                        },
                        {
                            "internalType": "address",
                            "name": "trader",
                            "type": "address"
                        },
                        {
                            "internalType": "address",
                            "name": "baseToken",
                            "type": "address"
                        },
                        {
                            "internalType": "bool",
                            "name": "baseToQuote",
                            "type": "bool"
                        },
                        {
                            "internalType": "bool",
                            "name": "exactInput",
                            "type": "bool"
                        },
                        {
                            "internalType": "uint256",
                            "name": "amount",
                            "type": "uint256"
                        },
                        {
                            "internalType": "uint256",
                            "name": "amountLimit",
                            "type": "uint256"
                        },
                        {
                            "internalType": "uint256",
                            "name": "deadline",
                            "type": "uint256"
                        },
                        {
                            "internalType": "bytes32",
                            "name": "referralCode",
                            "type": "bytes32"
                        },
                        {
                            "internalType": "bool",
                            "name": "reduceOnly",
                            "type": "bool"
                        },
                        {
                            "internalType": "uint80",
                            "name": "roundIdWhenCreated",
                            "type": "uint80"
                        },
                        {
                            "internalType": "uint256",
                            "name": "triggerPrice",
                            "type": "uint256"
                        }
                    ],
                    "internalType": "struct ILimitOrderBook.LimitOrder",
                    "name": "order",
                    "type": "tuple"
                }
            ],
            "name": "getOrderHash",
            "outputs": [
                {
                    "internalType": "bytes32",
                    "name": "",
                    "type": "bytes32"
                }
            ],
            "stateMutability": "view",
            "type": "function"
        },
        {
            "inputs": [
                {
                    "internalType": "bytes32",
                    "name": "orderHash",
                    "type": "bytes32"
                }
            ],
            "name": "getOrderStatus",
            "outputs": [
                {
                    "internalType": "enum ILimitOrderBook.OrderStatus",
                    "name": "",
                    "type": "uint8"
                }
            ],
            "stateMutability": "view",
            "type": "function"
        },
        {
            "inputs": [
                {
                    "internalType": "string",
                    "name": "name",
                    "type": "string"
                },
                {
                    "internalType": "string",
                    "name": "version",
                    "type": "string"
                },
                {
                    "internalType": "address",
                    "name": "clearingHouseArg",
                    "type": "address"
                },
                {
                    "internalType": "address",
                    "name": "limitOrderRewardVaultArg",
                    "type": "address"
                },
                {
                    "internalType": "uint256",
                    "name": "minOrderValueArg",
                    "type": "uint256"
                }
            ],
            "name": "initialize",
            "outputs": [],
            "stateMutability": "nonpayable",
            "type": "function"
        },
        {
            "inputs": [],
            "name": "limitOrderRewardVault",
            "outputs": [
                {
                    "internalType": "address",
                    "name": "",
                    "type": "address"
                }
            ],
            "stateMutability": "view",
            "type": "function"
        },
        {
            "inputs": [],
            "name": "minOrderValue",
            "outputs": [
                {
                    "internalType": "uint256",
                    "name": "",
                    "type": "uint256"
                }
            ],
            "stateMutability": "view",
            "type": "function"
        },
        {
            "inputs": [],
            "name": "owner",
            "outputs": [
                {
                    "internalType": "address",
                    "name": "",
                    "type": "address"
                }
            ],
            "stateMutability": "view",
            "type": "function"
        },
        {
            "inputs": [],
            "name": "pause",
            "outputs": [],
            "stateMutability": "nonpayable",
            "type": "function"
        },
        {
            "inputs": [],
            "name": "paused",
            "outputs": [
                {
                    "internalType": "bool",
                    "name": "",
                    "type": "bool"
                }
            ],
            "stateMutability": "view",
            "type": "function"
        },
        {
            "inputs": [],
            "name": "positionMgmt",
            "outputs": [
                {
                    "internalType": "address",
                    "name": "",
                    "type": "address"
                }
            ],
            "stateMutability": "view",
            "type": "function"
        },
        {
            "inputs": [],
            "name": "renounceOwnership",
            "outputs": [],
            "stateMutability": "nonpayable",
            "type": "function"
        },
        {
            "inputs": [
                {
                    "internalType": "address",
                    "name": "clearingHouseArg",
                    "type": "address"
                }
            ],
            "name": "setClearingHouse",
            "outputs": [],
            "stateMutability": "nonpayable",
            "type": "function"
        },
        {
            "inputs": [
                {
                    "internalType": "address",
                    "name": "limitOrderRewardVaultArg",
                    "type": "address"
                }
            ],
            "name": "setLimitOrderRewardVault",
            "outputs": [],
            "stateMutability": "nonpayable",
            "type": "function"
        },
        {
            "inputs": [
                {
                    "internalType": "uint256",
                    "name": "minOrderValueArg",
                    "type": "uint256"
                }
            ],
            "name": "setMinOrderValue",
            "outputs": [],
            "stateMutability": "nonpayable",
            "type": "function"
        },
        {
            "inputs": [
                {
                    "internalType": "address",
                    "name": "newOwner",
                    "type": "address"
                }
            ],
            "name": "setOwner",
            "outputs": [],
            "stateMutability": "nonpayable",
            "type": "function"
        },
        {
            "inputs": [],
            "name": "unpause",
            "outputs": [],
            "stateMutability": "nonpayable",
            "type": "function"
        },
        {
            "inputs": [],
            "name": "updateOwner",
            "outputs": [],
            "stateMutability": "nonpayable",
            "type": "function"
        }
    ],
    "bytecode": "0x608060405234801561001057600080fd5b50612c17806100206000396000f3fe608060405234801561001057600080fd5b50600436106101375760003560e01c80635c975abb116100b85780638da5cb5b1161007c5780638da5cb5b146102355780639e2c8ff11461023d578063ad18c45314610245578063bc5920ba14610258578063c9aba0aa14610260578063fc8592b21461027357610137565b80635c975abb146102005780636c8381f814610215578063715018a61461021d5780638456cb591461022557806388a59b471461022d57610137565b80632f7a734f116100ff5780632f7a734f1461019d5780633f4ba83a146101b0578063449323d8146101b857806346423aa7146101cb57806354dd5f74146101eb57610137565b80630af968001461013c57806313af40351461015a5780631ff33f641461016f57806321ef0ab8146101775780632a2e0ab01461018a575b600080fd5b610144610286565b60405161015191906121fc565b60405180910390f35b61016d610168366004611fb6565b610296565b005b610144610382565b61016d610185366004611fee565b610392565b61016d6101983660046120ac565b610432565b61016d6101ab366004611fb6565b6105b5565b61016d61067e565b61016d6101c6366004611fb6565b6106c7565b6101de6101d9366004611fee565b61084d565b6040516101519190612421565b6101f3610866565b60405161015191906122b4565b61020861088a565b60405161015191906122a9565b610144610893565b61016d6108a2565b61016d610937565b61014461097e565b61014461098e565b6101f361099d565b61016d6102533660046120c8565b6109a4565b61016d610bc6565b61016d61026e36600461201e565b610c89565b6101f36102813660046120ac565b610eaa565b610132546001600160a01b031681565b61029e610f06565b6001600160a01b03166102af61098e565b6001600160a01b0316146102de5760405162461bcd60e51b81526004016102d5906125bd565b60405180910390fd5b6001600160a01b0381166103045760405162461bcd60e51b81526004016102d5906129b9565b6065546001600160a01b03828116911614156103325760405162461bcd60e51b81526004016102d590612558565b6066546001600160a01b03828116911614156103605760405162461bcd60e51b81526004016102d590612516565b606680546001600160a01b0319166001600160a01b0392909216919091179055565b610134546001600160a01b031681565b61039a610f06565b6001600160a01b03166103ab61098e565b6001600160a01b0316146103d15760405162461bcd60e51b81526004016102d5906125bd565b600081116103f15760405162461bcd60e51b81526004016102d5906124b9565b6101358190556040517f83df370fa0bae680d64cf01d88589d08bf399b7daa8bc2964ccf481c4ec1a8ac906104279083906122b4565b60405180910390a150565b80604001516001600160a01b0316610448610f06565b6001600160a01b03161461046e5760405162461bcd60e51b81526004016102d590612975565b600061047982610eaa565b9050600080828152610131602052604090205460ff1660028111156104ae57634e487b7160e01b600052602160045260246000fd5b146104cb5760405162461bcd60e51b81526004016102d590612715565b600081815261013160205260408120805460ff191660021790556080830151819015610514576104fe8460c00151610f15565b915061050d8460e00151610f29565b9050610533565b6105218460e00151610f29565b91506105308460c00151610f15565b90505b83606001516001600160a01b031684604001516001600160a01b03167f1385c5527f087ff7303436adac89188a5a3ff2ba867e6f744658baad06ee430e858760000151600281111561059557634e487b7160e01b600052602160045260246000fd5b86866040516105a79493929190612403565b60405180910390a350505050565b6105bd610f06565b6001600160a01b03166105ce61098e565b6001600160a01b0316146105f45760405162461bcd60e51b81526004016102d5906125bd565b6001600160a01b03811615806106175750610617816001600160a01b0316610f56565b6106335760405162461bcd60e51b81526004016102d59061282d565b61013480546001600160a01b0319166001600160a01b0383169081179091556040517f0e7fb875d68d5a39eb32951485cfb755f5b8f4779a8415c517c81df791fb671a90600090a250565b610686610f06565b6001600160a01b031661069761098e565b6001600160a01b0316146106bd5760405162461bcd60e51b81526004016102d5906125bd565b6106c5610f5c565b565b6106cf610f06565b6001600160a01b03166106e061098e565b6001600160a01b0316146107065760405162461bcd60e51b81526004016102d5906125bd565b610718816001600160a01b0316610f56565b6107345760405162461bcd60e51b81526004016102d5906128bb565b61013280546001600160a01b0319166001600160a01b038381169190911791829055604080516347424cdd60e11b8152905160009390921691638e8499ba91600480820192602092909190829003018186803b15801561079357600080fd5b505afa1580156107a7573d6000803e3d6000fd5b505050506040513d601f19601f820116820180604052508101906107cb9190611fd2565b90506107df816001600160a01b0316610f56565b6107fb5760405162461bcd60e51b81526004016102d59061259a565b61013380546001600160a01b0319166001600160a01b0383811691909117909155604051908316907fd0654f5900f9e7e4e605a19334306e6a2786bbf960ac0484a4c12feb6428fe2f90600090a25050565b6000818152610131602052604090205460ff165b919050565b7fcdceaad75d87ad31b647c087358eeb52c9ecafb04ab933689a7c18d5ad37a88581565b60995460ff1690565b6066546001600160a01b031690565b6108aa610f06565b6001600160a01b03166108bb61098e565b6001600160a01b0316146108e15760405162461bcd60e51b81526004016102d5906125bd565b6065546040516000916001600160a01b0316907f8be0079c531659141344cd1fd0a4f28419497f9722a3daafe3b4186f6b6457e0908390a3606580546001600160a01b0319908116909155606680549091169055565b61093f610f06565b6001600160a01b031661095061098e565b6001600160a01b0316146109765760405162461bcd60e51b81526004016102d5906125bd565b6106c5610fca565b610133546001600160a01b031681565b6065546001600160a01b031690565b6101355481565b600260015414156109c75760405162461bcd60e51b81526004016102d5906128fd565b600260015560006109d6610f06565b90506109ea816001600160a01b0316610f56565b15610a075760405162461bcd60e51b81526004016102d590612536565b6000610a138585611025565b9150600090506000828152610131602052604090205460ff166002811115610a4b57634e487b7160e01b600052602160045260246000fd5b14610a685760405162461bcd60e51b81526004016102d590612715565b600080600080610a788988611082565b600089815261013160205260409020805460ff1916600117905561013454939750919550935091506001600160a01b031615610b35576101345460405163ac0c9cff60e01b81526001600160a01b039091169063ac0c9cff90610ae1908990899060040161222a565b602060405180830381600087803b158015610afb57600080fd5b505af1158015610b0f573d6000803e3d6000fd5b505050506040513d601f19601f82011682018060405250810190610b339190612006565b505b88606001516001600160a01b031689604001516001600160a01b03167fb266d9749f17d98468af315373718d8d3470e7e2d85fc1333e46e7211f950de6878c600001516002811115610b9757634e487b7160e01b600052602160045260246000fd5b8a89898989604051610baf97969594939291906123c7565b60405180910390a350506001805550505050505050565b6066546001600160a01b0316610bee5760405162461bcd60e51b81526004016102d5906128de565b610bf6610f06565b6066546001600160a01b03908116911614610c235760405162461bcd60e51b81526004016102d59061246b565b6066546065546040516001600160a01b0392831692909116907f8be0079c531659141344cd1fd0a4f28419497f9722a3daafe3b4186f6b6457e090600090a360668054606580546001600160a01b03199081166001600160a01b03841617909155169055565b600054610100900460ff1680610ca2575060005460ff16155b610cbe5760405162461bcd60e51b81526004016102d5906126c7565b600054610100900460ff16158015610ce9576000805460ff1961ff0019909116610100171660011790555b610cf16112ee565b610cf961136b565b610d0386866113db565b610d15846001600160a01b0316610f56565b610d315760405162461bcd60e51b81526004016102d5906128bb565b61013280546001600160a01b0319166001600160a01b038681169190911791829055604080516347424cdd60e11b8152905160009390921691638e8499ba91600480820192602092909190829003018186803b158015610d9057600080fd5b505afa158015610da4573d6000803e3d6000fd5b505050506040513d601f19601f82011682018060405250810190610dc89190611fd2565b9050610ddc816001600160a01b0316610f56565b610df85760405162461bcd60e51b81526004016102d59061259a565b61013380546001600160a01b0319166001600160a01b038381169190911790915584161580610e345750610e34846001600160a01b0316610f56565b610e505760405162461bcd60e51b81526004016102d59061282d565b61013480546001600160a01b0319166001600160a01b03861617905582610e895760405162461bcd60e51b81526004016102d5906124b9565b506101358290558015610ea2576000805461ff00191690555b505050505050565b6000610f007fcdceaad75d87ad31b647c087358eeb52c9ecafb04ab933689a7c18d5ad37a88560001b83604051602001610ee59291906122e9565b6040516020818303038152906040528051906020012061145c565b92915050565b6000610f1061146f565b905090565b6000610f2082610f29565b610f0090612b68565b60006001600160ff1b03821115610f525760405162461bcd60e51b81526004016102d590612852565b5090565b3b151590565b610f6461088a565b610f805760405162461bcd60e51b81526004016102d59061248b565b6099805460ff191690557f5db9ee0a495bf2e6ff9c91a7834c1ba4fdd244a5e8aa4e537bd38aeae4b073aa610fb3610f06565b604051610fc091906121fc565b60405180910390a1565b610fd261088a565b15610fef5760405162461bcd60e51b81526004016102d590612668565b6099805460ff191660011790557f62e78cea01bee320cd4e420270b5ea74000d11b0c9f74754ebdbfc544b05a258610fb3610f06565b600080600061103385610eaa565b905060006110418286611473565b905085604001516001600160a01b0316816001600160a01b0316146110785760405162461bcd60e51b81526004016102d59061279f565b9590945092505050565b60008060008061109286866114be565b610133546040808801516060890151915163165c4e2960e31b81526000936001600160a01b03169263b2e27148926110cf92909190600401612210565b60206040518083038186803b1580156110e757600080fd5b505afa1580156110fb573d6000803e3d6000fd5b505050506040513d601f19601f8201168201806040525081019061111f9190612006565b905060008060008061013260009054906101000a90046001600160a01b03166001600160a01b03166309453d0c8c604001516040518060e001604052808f606001516001600160a01b031681526020018f60800151151581526020018f60a00151151581526020018f60c0015181526020018f60e0015181526020018f610100015181526020018f61012001518152506040518363ffffffff1660e01b81526004016111cc929190612243565b608060405180830381600087803b1580156111e657600080fd5b505af11580156111fa573d6000803e3d6000fd5b505050506040513d601f19601f8201168201806040525081019061121e919061215e565b9350935093509350610135548310156112495760405162461bcd60e51b81526004016102d590612578565b8a61014001511561129c57841580159061126c575060808b015115156000861214155b8015611280575061127c8561167c565b8411155b61129c5760405162461bcd60e51b81526004016102d590612645565b6000808c60800151156112c4576112b286610f15565b91506112bd85610f29565b90506112db565b6112cd86610f29565b91506112d885610f15565b90505b909c909b50919950975095505050505050565b600054610100900460ff1680611307575060005460ff16155b6113235760405162461bcd60e51b81526004016102d5906126c7565b600054610100900460ff1615801561134e576000805460ff1961ff0019909116610100171660011790555b6113566116a5565b8015611368576000805461ff00191690555b50565b600054610100900460ff1680611384575060005460ff16155b6113a05760405162461bcd60e51b81526004016102d5906126c7565b600054610100900460ff161580156113cb576000805460ff1961ff0019909116610100171660011790555b6113d361171d565b6113566117f1565b600054610100900460ff16806113f4575060005460ff16155b6114105760405162461bcd60e51b81526004016102d5906126c7565b600054610100900460ff1615801561143b576000805460ff1961ff0019909116610100171660011790555b6114458383611861565b8015611457576000805461ff00191690555b505050565b6000610f006114696118f4565b8361192f565b3390565b600081516041146114965760405162461bcd60e51b81526004016102d5906124df565b60208201516040830151606084015160001a6114b486828585611962565b9695505050505050565b6000825160028111156114e157634e487b7160e01b600052602160045260246000fd5b14156114ec57611678565b60008261016001516001600160501b031611801561152157508161016001516001600160501b0316816001600160501b031610155b61153d5760405162461bcd60e51b81526004016102d590612998565b6000826101800151116115625760405162461bcd60e51b81526004016102d59061289a565b6000611572836060015183611a58565b905060018351600281111561159757634e487b7160e01b600052602160045260246000fd5b14156115fb578260800151156115d1578261018001518111156115cc5760405162461bcd60e51b81526004016102d590612737565b6115f6565b8261018001518110156115f65760405162461bcd60e51b81526004016102d5906125dd565b611457565b60028351600281111561161e57634e487b7160e01b600052602160045260246000fd5b141561145757826080015115611653578261018001518110156115f65760405162461bcd60e51b81526004016102d5906127e7565b8261018001518111156114575760405162461bcd60e51b81526004016102d5906127c1565b5050565b60008082121561169c5761169761169283611bca565b611bf8565b610f00565b610f0082611bf8565b600054610100900460ff16806116be575060005460ff16155b6116da5760405162461bcd60e51b81526004016102d5906126c7565b600054610100900460ff16158015611705576000805460ff1961ff0019909116610100171660011790555b600180558015611368576000805461ff001916905550565b600054610100900460ff1680611736575060005460ff16155b6117525760405162461bcd60e51b81526004016102d5906126c7565b600054610100900460ff1615801561177d576000805460ff1961ff0019909116610100171660011790555b611785611c1a565b600061178f610f06565b606580546001600160a01b0319166001600160a01b038316908117909155604051919250906000907f8be0079c531659141344cd1fd0a4f28419497f9722a3daafe3b4186f6b6457e0908290a3508015611368576000805461ff001916905550565b600054610100900460ff168061180a575060005460ff16155b6118265760405162461bcd60e51b81526004016102d5906126c7565b600054610100900460ff16158015611851576000805460ff1961ff0019909116610100171660011790555b611859611c7e565b611356611cf1565b600054610100900460ff168061187a575060005460ff16155b6118965760405162461bcd60e51b81526004016102d5906126c7565b600054610100900460ff161580156118c1576000805460ff1961ff0019909116610100171660011790555b825160208085019190912083519184019190912060fd9190915560fe558015611457576000805461ff0019169055505050565b6000610f107f8b73c3c69bb8fe3d512ecc4cf759cc79239f7b179b0ffacaa9a75d522b39400f611922611d6f565b61192a611d75565b611d7b565b600082826040516020016119449291906121e1565b60405160208183030381529060405280519060200120905092915050565b60007f7fffffffffffffffffffffffffffffff5d576e7357a4501ddfe92f46681b20a08211156119a45760405162461bcd60e51b81526004016102d590612603565b8360ff16601b14806119b957508360ff16601c145b6119d55760405162461bcd60e51b81526004016102d59061275d565b6000600186868686604051600081526020016040526040516119fa9493929190612403565b6020604051602081039080840390855afa158015611a1c573d6000803e3d6000fd5b5050604051601f1901519150506001600160a01b038116611a4f5760405162461bcd60e51b81526004016102d590612434565b95945050505050565b600080836001600160a01b0316639e87a5cd6040518163ffffffff1660e01b815260040160206040518083038186803b158015611a9457600080fd5b505afa158015611aa8573d6000803e3d6000fd5b505050506040513d601f19601f82011682018060405250810190611acc9190611fd2565b90506000816001600160a01b0316639a6fc8f5856040518263ffffffff1660e01b8152600401611afc91906129d9565b604080518083038186803b158015611b1357600080fd5b505afa158015611b27573d6000803e3d6000fd5b505050506040513d601f19601f82011682018060405250810190611b4b919061213b565b509050611a4f81836001600160a01b031663313ce5676040518163ffffffff1660e01b815260040160206040518083038186803b158015611b8b57600080fd5b505afa158015611b9f573d6000803e3d6000fd5b505050506040513d601f19601f82011682018060405250810190611bc39190612193565b6012611db6565b6000600160ff1b8213611bef5760405162461bcd60e51b81526004016102d590612934565b610f0082612b68565b600080821215610f525760405162461bcd60e51b81526004016102d590612692565b600054610100900460ff1680611c33575060005460ff16155b611c4f5760405162461bcd60e51b81526004016102d5906126c7565b600054610100900460ff16158015611c7a576000805460ff1961ff0019909116610100171660011790555b6113565b600054610100900460ff1680611c97575060005460ff16155b611cb35760405162461bcd60e51b81526004016102d5906126c7565b600054610100900460ff16158015611356576000805460ff1961ff0019909116610100171660011790558015611368576000805461ff001916905550565b600054610100900460ff1680611d0a575060005460ff16155b611d265760405162461bcd60e51b81526004016102d5906126c7565b600054610100900460ff16158015611d51576000805460ff1961ff0019909116610100171660011790555b6099805460ff191690558015611368576000805461ff001916905550565b60fd5490565b60fe5490565b60008383834630604051602001611d969594939291906122bd565b6040516020818303038152906040528051906020012090505b9392505050565b60008160ff168360ff161115611dde5760405162461bcd60e51b81526004016102d59061280d565b611e03611df160ff848116908616611e0b565b611dfc90600a612a64565b8590611e17565b949350505050565b6000611daf8284612b51565b6000611daf8284612b32565b600067ffffffffffffffff831115611e3d57611e3d612b98565b611e50601f8401601f19166020016129ed565b9050828152838383011115611e6457600080fd5b828260208301376000602084830101529392505050565b803561086181612bcc565b8035801515811461086157600080fd5b80356003811061086157600080fd5b600082601f830112611eb5578081fd5b611daf83833560208501611e23565b60006101a0808385031215611ed7578182fd5b611ee0816129ed565b915050611eec82611e96565b815260208201356020820152611f0460408301611e7b565b6040820152611f1560608301611e7b565b6060820152611f2660808301611e86565b6080820152611f3760a08301611e86565b60a082015260c082013560c082015260e082013560e0820152610100808301358183015250610120808301358183015250610140611f76818401611e86565b90820152610160611f88838201611f9f565b818301525061018080830135818301525092915050565b80356001600160501b038116811461086157600080fd5b600060208284031215611fc7578081fd5b8135611daf81612bcc565b600060208284031215611fe3578081fd5b8151611daf81612bcc565b600060208284031215611fff578081fd5b5035919050565b600060208284031215612017578081fd5b5051919050565b600080600080600060a08688031215612035578081fd5b853567ffffffffffffffff8082111561204c578283fd5b61205889838a01611ea5565b9650602088013591508082111561206d578283fd5b5061207a88828901611ea5565b945050604086013561208b81612bcc565b9250606086013561209b81612bcc565b949793965091946080013592915050565b60006101a082840312156120be578081fd5b611daf8383611ec4565b60008060006101e084860312156120dd578283fd5b6120e78585611ec4565b92506101a084013567ffffffffffffffff811115612103578283fd5b8401601f81018613612113578283fd5b61212286823560208401611e23565b9250506121326101c08501611f9f565b90509250925092565b6000806040838503121561214d578182fd5b505080516020909101519092909150565b60008060008060808587031215612173578182fd5b505082516020840151604085015160609095015191969095509092509050565b6000602082840312156121a4578081fd5b815160ff81168114611daf578182fd5b6001600160a01b03169052565b15159052565b6121d081612bae565b9052565b6001600160501b03169052565b61190160f01b81526002810192909252602282015260420190565b6001600160a01b0391909116815260200190565b6001600160a01b0392831681529116602082015260400190565b6001600160a01b03929092168252602082015260400190565b60006101008201905060018060a01b0380851683528084511660208401525060208301511515604083015260408301511515606083015260608301516080830152608083015160a083015260a083015160c083015260c083015160e08301529392505050565b901515815260200190565b90815260200190565b9485526020850193909352604084019190915260608301526001600160a01b0316608082015260a00190565b60006101c0820190508382526123036020830184516121c7565b60208301516040830152604083015161231f60608401826121b4565b50606083015161233260808401826121b4565b50608083015161234560a08401826121c1565b5060a083015161235860c08401826121c1565b5060c083015160e0838101919091528301516101008084019190915283015161012080840191909152830151610140808401919091528301516101606123a0818501836121c1565b84015190506101806123b4848201836121d4565b808501516101a085015250509392505050565b96875260ff9590951660208701526001600160a01b039390931660408601526060850191909152608084015260a083015260c082015260e00190565b93845260ff9290921660208401526040830152606082015260800190565b6020810161242e83612bae565b91905290565b60208082526018908201527f45434453413a20696e76616c6964207369676e61747572650000000000000000604082015260600190565b602080825260069082015265534f5f434e4360d01b604082015260600190565b60208082526014908201527314185d5cd8589b194e881b9bdd081c185d5cd95960621b604082015260600190565b6020808252600c908201526b04c4f425f4d4f564d424754360a41b604082015260600190565b6020808252601f908201527f45434453413a20696e76616c6964207369676e6174757265206c656e67746800604082015260600190565b602080825260069082015265534f5f53414360d01b604082015260600190565b6020808252600890820152674c4f425f534d424560c01b604082015260600190565b602080825260069082015265534f5f53414f60d01b604082015260600190565b6020808252600890820152674c4f425f4f56545360c01b604082015260600190565b6020808252600990820152684c4f425f4142494e4360b81b604082015260600190565b602080825260069082015265534f5f434e4f60d01b604082015260600190565b6020808252600c908201526b4c4f425f42534c4f54504e4d60a01b604082015260600190565b60208082526022908201527f45434453413a20696e76616c6964207369676e6174757265202773272076616c604082015261756560f01b606082015260800190565b6020808252600990820152684c4f425f524f494e5360b81b604082015260600190565b60208082526010908201526f14185d5cd8589b194e881c185d5cd95960821b604082015260600190565b6020808252818101527f53616665436173743a2076616c7565206d75737420626520706f736974697665604082015260600190565b6020808252602e908201527f496e697469616c697a61626c653a20636f6e747261637420697320616c72656160408201526d191e481a5b9a5d1a585b1a5e995960921b606082015260800190565b6020808252600890820152674c4f425f4f4d425560c01b604082015260600190565b6020808252600c908201526b4c4f425f53534c4f54504e4d60a01b604082015260600190565b60208082526022908201527f45434453413a20696e76616c6964207369676e6174757265202776272076616c604082015261756560f01b606082015260800190565b6020808252600890820152671313d097d4d2539560c21b604082015260600190565b6020808252600c908201526b4c4f425f42544c4f54504e4d60a01b604082015260600190565b6020808252600c908201526b4c4f425f53544c4f54504e4d60a01b604082015260600190565b6020808252600690820152651313d097d25160d21b604082015260600190565b6020808252600b908201526a4c4f425f4c4f4656494e4360a81b604082015260600190565b60208082526028908201527f53616665436173743a2076616c756520646f65736e27742066697420696e2061604082015267371034b73a191a9b60c11b606082015260800190565b60208082526007908201526604c4f425f4954560cc1b604082015260600190565b6020808252600990820152684c4f425f4348494e4360b81b604082015260600190565b6020808252600590820152640534f5f43360dc1b604082015260600190565b6020808252601f908201527f5265656e7472616e637947756172643a207265656e7472616e742063616c6c00604082015260600190565b60208082526021908201527f4661697274726164654d6174683a20696e76657273696f6e206f766572666c6f6040820152607760f81b606082015260800190565b6020808252600990820152684c4f425f4f534d425360b81b604082015260600190565b6020808252600790820152664c4f425f49524960c81b604082015260600190565b6020808252600690820152650534f5f4e57360d41b604082015260600190565b6001600160501b0391909116815260200190565b604051601f8201601f1916810167ffffffffffffffff81118282101715612a1657612a16612b98565b604052919050565b80825b6001808611612a305750612a5b565b818704821115612a4257612a42612b82565b80861615612a4f57918102915b9490941c938002612a21565b94509492505050565b6000611daf6000198484600082612a7d57506001611daf565b81612a8a57506000611daf565b8160018114612aa05760028114612aaa57612ad7565b6001915050611daf565b60ff841115612abb57612abb612b82565b6001841b915084821115612ad157612ad1612b82565b50611daf565b5060208310610133831016604e8410600b8410161715612b0a575081810a83811115612b0557612b05612b82565b611daf565b612b178484846001612a1e565b808604821115612b2957612b29612b82565b02949350505050565b6000816000190483118215151615612b4c57612b4c612b82565b500290565b600082821015612b6357612b63612b82565b500390565b6000600160ff1b821415612b7e57612b7e612b82565b0390565b634e487b7160e01b600052601160045260246000fd5b634e487b7160e01b600052604160045260246000fd5b6003811061136857634e487b7160e01b600052602160045260246000fd5b6001600160a01b038116811461136857600080fdfea2646970667358221220210453653f7971611a09a104f3db18cfcb449b13c6393979cb61ee63840f895864736f6c63430008010033",
    "linkReferences": {},
    "deployedLinkReferences": {}
}