{
  "_format": "hh-sol-artifact-1",
  "contractName": "LiquidityProvider",
  "sourceName": "contracts/clearinghouse/LiquidityProvider.sol",
  "abi": [
    {
      "anonymous": false,
      "inputs": [
        {
          "indexed": true,
          "internalType": "address",
          "name": "clearingHouse",
          "type": "address"
        }
      ],
      "name": "ClearingHouseChanged",
      "type": "event"
    },
    {
      "anonymous": false,
      "inputs": [
        {
          "indexed": true,
          "internalType": "address",
          "name": "trader",
          "type": "address"
        }
      ],
      "name": "MarketTakerChanged",
      "type": "event"
    },
    {
      "anonymous": false,
      "inputs": [
        {
          "indexed": true,
          "internalType": "address",
          "name": "previousOwner",
          "type": "address"
        },
        {
          "indexed": true,
          "internalType": "address",
          "name": "newOwner",
          "type": "address"
        }
      ],
      "name": "OwnershipTransferred",
      "type": "event"
    },
    {
      "inputs": [
        {
          "components": [
            {
              "internalType": "address",
              "name": "maker",
              "type": "address"
            },
            {
              "internalType": "address",
              "name": "baseToken",
              "type": "address"
            },
            {
              "internalType": "uint256",
              "name": "base",
              "type": "uint256"
            },
            {
              "internalType": "uint256",
              "name": "quote",
              "type": "uint256"
            },
            {
              "internalType": "uint256",
              "name": "minLiquidity",
              "type": "uint256"
            },
            {
              "components": [
                {
                  "internalType": "int256",
                  "name": "twPremium",
                  "type": "int256"
                },
                {
                  "internalType": "int256",
                  "name": "twPremiumWithLiquidity",
                  "type": "int256"
                }
              ],
              "internalType": "struct Funding.Growth",
              "name": "fundingGrowthGlobal",
              "type": "tuple"
            }
          ],
          "internalType": "struct ILiquidityProvider.AddLiquidityParams",
          "name": "params",
          "type": "tuple"
        }
      ],
      "name": "addLiquidity",
      "outputs": [
        {
          "components": [
            {
              "internalType": "uint256",
              "name": "base",
              "type": "uint256"
            },
            {
              "internalType": "uint256",
              "name": "quote",
              "type": "uint256"
            },
            {
              "internalType": "uint256",
              "name": "fee",
              "type": "uint256"
            },
            {
              "internalType": "uint256",
              "name": "liquidity",
              "type": "uint256"
            }
          ],
          "internalType": "struct ILiquidityProvider.AddLiquidityResponse",
          "name": "",
          "type": "tuple"
        }
      ],
      "stateMutability": "nonpayable",
      "type": "function"
    },
    {
      "inputs": [],
      "name": "candidate",
      "outputs": [
        {
          "internalType": "address",
          "name": "",
          "type": "address"
        }
      ],
      "stateMutability": "view",
      "type": "function"
    },
    {
      "inputs": [],
      "name": "getClearingHouse",
      "outputs": [
        {
          "internalType": "address",
          "name": "",
          "type": "address"
        }
      ],
      "stateMutability": "view",
      "type": "function"
    },
    {
      "inputs": [
        {
          "internalType": "address",
          "name": "baseToken",
          "type": "address"
        },
        {
          "internalType": "uint256",
          "name": "index",
          "type": "uint256"
        }
      ],
      "name": "getLPCalcFeeRatio",
      "outputs": [
        {
          "internalType": "uint256",
          "name": "",
          "type": "uint256"
        }
      ],
      "stateMutability": "view",
      "type": "function"
    },
    {
      "inputs": [
        {
          "internalType": "address",
          "name": "baseToken",
          "type": "address"
        }
      ],
      "name": "getLPCalcFeeRatioIndex",
      "outputs": [
        {
          "internalType": "uint256",
          "name": "",
          "type": "uint256"
        }
      ],
      "stateMutability": "view",
      "type": "function"
    },
    {
      "inputs": [
        {
          "internalType": "address",
          "name": "trader",
          "type": "address"
        },
        {
          "internalType": "address",
          "name": "baseToken",
          "type": "address"
        },
        {
          "components": [
            {
              "internalType": "int256",
              "name": "twPremium",
              "type": "int256"
            },
            {
              "internalType": "int256",
              "name": "twPremiumWithLiquidity",
              "type": "int256"
            }
          ],
          "internalType": "struct Funding.Growth",
          "name": "fundingGrowthGlobal",
          "type": "tuple"
        }
      ],
      "name": "getLiquidityFundingPayment",
      "outputs": [
        {
          "internalType": "int256",
          "name": "liquidityFundingPayment",
          "type": "int256"
        }
      ],
      "stateMutability": "view",
      "type": "function"
    },
    {
      "inputs": [],
      "name": "getMarketTaker",
      "outputs": [
        {
          "internalType": "address",
          "name": "",
          "type": "address"
        }
      ],
      "stateMutability": "view",
      "type": "function"
    },
    {
      "inputs": [
        {
          "internalType": "address",
          "name": "trader",
          "type": "address"
        },
        {
          "internalType": "address",
          "name": "baseToken",
          "type": "address"
        }
      ],
      "name": "getOpenOrder",
      "outputs": [
        {
          "components": [
            {
              "internalType": "uint256",
              "name": "liquidity",
              "type": "uint256"
            },
            {
              "internalType": "uint256",
              "name": "lastExchangeFeeIndex",
              "type": "uint256"
            },
            {
              "internalType": "int256",
              "name": "lastTwPremiumGrowth",
              "type": "int256"
            },
            {
              "internalType": "int256",
              "name": "lastTwPremiumWithLiquidityGrowth",
              "type": "int256"
            },
            {
              "internalType": "uint256",
              "name": "baseDebt",
              "type": "uint256"
            },
            {
              "internalType": "uint256",
              "name": "quoteDebt",
              "type": "uint256"
            }
          ],
          "internalType": "struct Account.LPInfo",
          "name": "",
          "type": "tuple"
        }
      ],
      "stateMutability": "view",
      "type": "function"
    },
    {
      "inputs": [
        {
          "internalType": "address",
          "name": "trader",
          "type": "address"
        },
        {
          "internalType": "address",
          "name": "baseToken",
          "type": "address"
        }
      ],
      "name": "getPendingFee",
      "outputs": [
        {
          "internalType": "uint256",
          "name": "",
          "type": "uint256"
        }
      ],
      "stateMutability": "view",
      "type": "function"
    },
    {
      "inputs": [
        {
          "internalType": "address",
          "name": "trader",
          "type": "address"
        },
        {
          "internalType": "address",
          "name": "baseToken",
          "type": "address"
        },
        {
          "internalType": "bool",
          "name": "fetchBase",
          "type": "bool"
        }
      ],
      "name": "getTotalLPOrderDebt",
      "outputs": [
        {
          "internalType": "uint256",
          "name": "",
          "type": "uint256"
        }
      ],
      "stateMutability": "view",
      "type": "function"
    },
    {
      "inputs": [
        {
          "internalType": "address",
          "name": "trader",
          "type": "address"
        },
        {
          "internalType": "address[]",
          "name": "baseTokens",
          "type": "address[]"
        }
      ],
      "name": "getTotalLPQuoteAmountAndPendingFee",
      "outputs": [
        {
          "internalType": "int256",
          "name": "totalQuoteAmountInAmms",
          "type": "int256"
        },
        {
          "internalType": "uint256",
          "name": "totalPendingFee",
          "type": "uint256"
        }
      ],
      "stateMutability": "view",
      "type": "function"
    },
    {
      "inputs": [
        {
          "internalType": "address",
          "name": "trader",
          "type": "address"
        },
        {
          "internalType": "address",
          "name": "baseToken",
          "type": "address"
        },
        {
          "internalType": "bool",
          "name": "fetchBase",
          "type": "bool"
        }
      ],
      "name": "getTotalTokenAmountInAmmAndPendingFee",
      "outputs": [
        {
          "internalType": "uint256",
          "name": "tokenAmount",
          "type": "uint256"
        },
        {
          "internalType": "uint256",
          "name": "pendingFee",
          "type": "uint256"
        }
      ],
      "stateMutability": "view",
      "type": "function"
    },
    {
      "inputs": [
        {
          "internalType": "address",
          "name": "trader",
          "type": "address"
        },
        {
          "internalType": "address[]",
          "name": "tokens",
          "type": "address[]"
        }
      ],
      "name": "hasOrder",
      "outputs": [
        {
          "internalType": "bool",
          "name": "",
          "type": "bool"
        }
      ],
      "stateMutability": "view",
      "type": "function"
    },
    {
      "inputs": [
        {
          "internalType": "address",
          "name": "ammFactoryArg",
          "type": "address"
        }
      ],
      "name": "initialize",
      "outputs": [],
      "stateMutability": "nonpayable",
      "type": "function"
    },
    {
      "inputs": [],
      "name": "owner",
      "outputs": [
        {
          "internalType": "address",
          "name": "",
          "type": "address"
        }
      ],
      "stateMutability": "view",
      "type": "function"
    },
    {
      "inputs": [
        {
          "components": [
            {
              "internalType": "address",
              "name": "maker",
              "type": "address"
            },
            {
              "internalType": "address",
              "name": "baseToken",
              "type": "address"
            },
            {
              "internalType": "uint256",
              "name": "liquidity",
              "type": "uint256"
            },
            {
              "internalType": "uint256",
              "name": "minBase",
              "type": "uint256"
            },
            {
              "internalType": "uint256",
              "name": "minQuote",
              "type": "uint256"
            }
          ],
          "internalType": "struct ILiquidityProvider.RemoveLiquidityParams",
          "name": "params",
          "type": "tuple"
        }
      ],
      "name": "removeLiquidity",
      "outputs": [
        {
          "components": [
            {
              "internalType": "uint256",
              "name": "base",
              "type": "uint256"
            },
            {
              "internalType": "uint256",
              "name": "quote",
              "type": "uint256"
            },
            {
              "internalType": "uint256",
              "name": "fee",
              "type": "uint256"
            },
            {
              "internalType": "int256",
              "name": "takerBase",
              "type": "int256"
            },
            {
              "internalType": "int256",
              "name": "takerQuote",
              "type": "int256"
            }
          ],
          "internalType": "struct ILiquidityProvider.RemoveLiquidityResponse",
          "name": "",
          "type": "tuple"
        }
      ],
      "stateMutability": "nonpayable",
      "type": "function"
    },
    {
      "inputs": [],
      "name": "renounceOwnership",
      "outputs": [],
      "stateMutability": "nonpayable",
      "type": "function"
    },
    {
      "inputs": [
        {
          "internalType": "address",
          "name": "clearingHouseArg",
          "type": "address"
        }
      ],
      "name": "setClearingHouse",
      "outputs": [],
      "stateMutability": "nonpayable",
      "type": "function"
    },
    {
      "inputs": [
        {
          "internalType": "address",
          "name": "marketTakerArg",
          "type": "address"
        }
      ],
      "name": "setMarketTaker",
      "outputs": [],
      "stateMutability": "nonpayable",
      "type": "function"
    },
    {
      "inputs": [
        {
          "internalType": "address",
          "name": "newOwner",
          "type": "address"
        }
      ],
      "name": "setOwner",
      "outputs": [],
      "stateMutability": "nonpayable",
      "type": "function"
    },
    {
      "inputs": [
        {
          "internalType": "address",
          "name": "trader",
          "type": "address"
        },
        {
          "internalType": "address",
          "name": "baseToken",
          "type": "address"
        },
        {
          "components": [
            {
              "internalType": "int256",
              "name": "twPremium",
              "type": "int256"
            },
            {
              "internalType": "int256",
              "name": "twPremiumWithLiquidity",
              "type": "int256"
            }
          ],
          "internalType": "struct Funding.Growth",
          "name": "fundingGrowthGlobal",
          "type": "tuple"
        }
      ],
      "name": "updateFundingGrowthAndLiquidityFundingPayment",
      "outputs": [
        {
          "internalType": "int256",
          "name": "liquidityFundingPayment",
          "type": "int256"
        }
      ],
      "stateMutability": "nonpayable",
      "type": "function"
    },
    {
      "inputs": [
        {
          "internalType": "address",
          "name": "baseToken",
          "type": "address"
        },
        {
          "internalType": "uint256",
          "name": "lpCalcFeeRatio",
          "type": "uint256"
        }
      ],
      "name": "updateLPCalcFeeRatio",
      "outputs": [],
      "stateMutability": "nonpayable",
      "type": "function"
    },
    {
      "inputs": [],
      "name": "updateOwner",
      "outputs": [],
      "stateMutability": "nonpayable",
      "type": "function"
    }
  ],
  "bytecode": "0x608060405234801561001057600080fd5b50612310806100206000396000f3fe608060405234801561001057600080fd5b506004361061014d5760003560e01c8063715018a6116100c3578063c4d66de81161007c578063c4d66de8146102b8578063c575ff79146102cb578063cd670055146102d3578063e3b910e4146102f3578063ec32c8e314610306578063fcddb3cc146103195761014d565b8063715018a61461024d578063832c643e1461025557806385b0f967146102685780638da5cb5b146102885780639e8d458014610290578063bc5920ba146102b05761014d565b80634dffaee5116101155780634dffaee5146101d75780634f853aed146101f757806355338fc11461020a5780635a82589e1461021f5780636c1fe0cd146102325780636c8381f8146102455761014d565b80630c11dedf14610152578063106d6c2a1461017b57806313af40351461018e57806337820b41146101a3578063449323d8146101c4575b600080fd5b610165610160366004611bf0565b61032c565b6040516101729190611e1c565b60405180910390f35b610165610189366004611bb8565b6103ae565b6101a161019c366004611bb8565b6103c9565b005b6101b66101b1366004611cbd565b6104b5565b604051610172929190611e25565b6101a16101d2366004611bb8565b610548565b6101ea6101e5366004611cbd565b6105d1565b6040516101729190611e11565b6101a1610205366004611d3f565b610673565b610212610755565b6040516101729190611dfd565b61016561022d366004611d3f565b610764565b6101b6610240366004611c28565b61078c565b6102126107a6565b6101a16107b5565b610165610263366004611c76565b61084a565b61027b610276366004611bf0565b610915565b6040516101729190612057565b61021261098c565b6102a361029e366004611d6a565b61099b565b604051610172919061202c565b6101a1610b8d565b6101a16102c6366004611bb8565b610c50565b610212610ce9565b6102e66102e1366004611d9c565b610cf8565b604051610172919061209b565b610165610301366004611c28565b610eb0565b610165610314366004611c76565b610f3b565b6101a1610327366004611bb8565b610fb9565b6001600160a01b038083166000908152609c602090815260408083209385168352928152828220835160c08101855281548152600182015492810192909252600281015493820193909352600383015460608201526004830154608082015260059092015460a08301529081906103a4908490611042565b9150505b92915050565b6001600160a01b03166000908152609e602052604090205490565b6103d1611139565b6001600160a01b03166103e261098c565b6001600160a01b0316146104115760405162461bcd60e51b815260040161040890611ef6565b60405180910390fd5b6001600160a01b0381166104375760405162461bcd60e51b81526004016104089061200c565b6033546001600160a01b03828116911614156104655760405162461bcd60e51b815260040161040890611ed6565b6034546001600160a01b03828116911614156104935760405162461bcd60e51b815260040161040890611e95565b603480546001600160a01b0319166001600160a01b0392909216919091179055565b60008060005b8381101561053e5760008585838181106104e557634e487b7160e01b600052603260045260246000fd5b90506020020160208101906104fa9190611bb8565b905060008061050b8984600061113d565b909250905061051a82876120eb565b9550610526818661212c565b945050505080806105369061227e565b9150506104bb565b505b935093915050565b610550611139565b6001600160a01b031661056161098c565b6001600160a01b0316146105875760405162461bcd60e51b815260040161040890611ef6565b606780546001600160a01b0319166001600160a01b0383169081179091556040517fd0654f5900f9e7e4e605a19334306e6a2786bbf960ac0484a4c12feb6428fe2f90600090a250565b6000805b82811015610666576001600160a01b0385166000908152609c602052604081209085858481811061061657634e487b7160e01b600052603260045260246000fd5b905060200201602081019061062b9190611bb8565b6001600160a01b031681526020810191909152604001600020541561065457600191505061066c565b8061065e8161227e565b9150506105d5565b50600090505b9392505050565b609a546001600160a01b0316610687611139565b6001600160a01b0316146106ad5760405162461bcd60e51b815260040161040890611f85565b6001600160a01b0382166000908152609e60205260408120548015610702576001600160a01b0384166000908152609d60205260408120906106f0600184612267565b81526020019081526020016000205491505b61070c838361212c565b6001600160a01b0385166000818152609d60209081526040808320868452825280832094909455918152609e90915290812080549161074a8361227e565b919050555050505050565b609a546001600160a01b031690565b6001600160a01b03919091166000908152609d60209081526040808320938352929052205490565b60008061079a85858561118b565b90969095509350505050565b6034546001600160a01b031690565b6107bd611139565b6001600160a01b03166107ce61098c565b6001600160a01b0316146107f45760405162461bcd60e51b815260040161040890611ef6565b6033546040516000916001600160a01b0316907f8be0079c531659141344cd1fd0a4f28419497f9722a3daafe3b4186f6b6457e0908390a3603380546001600160a01b0319908116909155603480549091169055565b609a546000906001600160a01b0316610861611139565b6001600160a01b0316146108875760405162461bcd60e51b815260040161040890611f85565b6001600160a01b038085166000908152609c60209081526040808320938716835292815290829020825160c081018452815481526001820154928101929092526002810154928201929092526003820154606082015260048201546080820152600582015460a08201526108fb9084611345565b835160028301556020909301516003909101555092915050565b61091d611ad1565b506001600160a01b039182166000908152609c60209081526040808320939094168252918252829020825160c08101845281548152600182015492810192909252600281015492820192909252600382015460608201526004820154608082015260059091015460a082015290565b6033546001600160a01b031690565b6109a3611b07565b6109ab611391565b609b546000906001600160a01b031663f75ad90a6109cf6040860160208701611bb8565b6040518263ffffffff1660e01b81526004016109eb9190611dfd565b60206040518083038186803b158015610a0357600080fd5b505afa158015610a17573d6000803e3d6000fd5b505050506040513d601f19601f82011682018060405250810190610a3b9190611bd4565b90506000806000836001600160a01b031663422f10438760600135886040013589608001356040518463ffffffff1660e01b8152600401610a7e939291906120d5565b606060405180830381600087803b158015610a9857600080fd5b505af1158015610aac573d6000803e3d6000fd5b505050506040513d601f19601f82011682018060405250810190610ad09190611dd0565b9250925092506000610b646040518060e00160405280896000016020810190610af99190611bb8565b6001600160a01b03168152602001896020016020810190610b1a9190611bb8565b6001600160a01b03168152602001876001600160a01b031681526020018481526020018581526020018681526020018960a001803603810190610b5d9190611d81565b90526113cd565b604080516080810182529485526020850195909552938301939093526060820152949350505050565b6034546001600160a01b0316610bb55760405162461bcd60e51b815260040161040890611fed565b610bbd611139565b6034546001600160a01b03908116911614610bea5760405162461bcd60e51b815260040161040890611e75565b6034546033546040516001600160a01b0392831692909116907f8be0079c531659141344cd1fd0a4f28419497f9722a3daafe3b4186f6b6457e090600090a360348054603380546001600160a01b03199081166001600160a01b03841617909155169055565b600054610100900460ff1680610c69575060005460ff16155b610c855760405162461bcd60e51b815260040161040890611f37565b600054610100900460ff16158015610cb0576000805460ff1961ff0019909116610100171660011790555b610cb86114e2565b609b80546001600160a01b0319166001600160a01b0384161790558015610ce5576000805461ff00191690555b5050565b6067546001600160a01b031690565b610d00611b2f565b610d08611391565b6000609c81610d1a6020860186611bb8565b6001600160a01b03166001600160a01b031681526020019081526020016000206000846020016020810190610d4f9190611bb8565b6001600160a01b03166001600160a01b031681526020019081526020016000209050806000015483604001351115610d995760405162461bcd60e51b815260040161040890611f16565b609b546000906001600160a01b031663f75ad90a610dbd6040870160208801611bb8565b6040518263ffffffff1660e01b8152600401610dd99190611dfd565b60206040518083038186803b158015610df157600080fd5b505afa158015610e05573d6000803e3d6000fd5b505050506040513d601f19601f82011682018060405250810190610e299190611bd4565b6040805160c08101909152909150610ea89080610e496020880188611bb8565b6001600160a01b03168152602001866020016020810190610e6a9190611bb8565b6001600160a01b03168152602001836001600160a01b031681526020018660400135815260200186606001358152602001866080013581525061155f565b949350505050565b6001600160a01b038084166000908152609c602090815260408083209386168352928152828220835160c08101855281548152600182015492810192909252600281015493820193909352600383015460608201526004830154608082015260059092015460a0830152908183610f2b578160a00151610f31565b81608001515b9695505050505050565b6001600160a01b038084166000908152609c602090815260408083209386168352928152828220835160c08101855281548152600182015492810192909252600281015493820193909352600383015460608201526004830154608082015260059092015460a083015290610fb08184611345565b95945050505050565b610fc1611139565b6001600160a01b0316610fd261098c565b6001600160a01b031614610ff85760405162461bcd60e51b815260040161040890611ef6565b609a80546001600160a01b0319166001600160a01b0383169081179091556040517f73051d125b9033e2af07cc2b08e0953fd5f7a1b48b372b1b8e13fd136b30c88290600090a250565b6001600160a01b0382166000908152609e602052604081205482511580611067575080155b156110765760009150506103a8565b6000818460200151101561111c576001600160a01b0385166000908152609d60205260408120816110a8600186612267565b815260200190815260200160002054905060008560200151600014611108576001600160a01b0387166000908152609d602090815260408220908801519091906110f490600190612267565b81526020019081526020016000205461110b565b60005b90506111178183612267565b925050505b8351600160601b9061112f908390612209565b610fb09190612172565b3390565b60008060008061114e87878761118b565b91509150600061115f888888610eb0565b905061116a81611683565b61117384611683565b61117d9190612228565b989197509095505050505050565b6001600160a01b038084166000908152609c6020908152604080832086851684528252808320815160c0810183528154815260018201549381019390935260028101548383015260038101546060840152600480820154608085015260059091015460a0840152609b549151637bad6c8560e11b81529394859485939091169163f75ad90a9161121d918a9101611dfd565b60206040518083038186803b15801561123557600080fd5b505afa158015611249573d6000803e3d6000fd5b505050506040513d601f19601f8201168201806040525081019061126d9190611bd4565b825190915061128457600080935093505050610540565b8151604051630390aa3f60e11b815260009182916001600160a01b03851691630721547e916112b69190600401611e1c565b604080518083038186803b1580156112cd57600080fd5b505afa1580156112e1573d6000803e3d6000fd5b505050506040513d601f19601f820116820180604052508101906113059190611dad565b91509150866113145781611316565b805b9550866113395760006113298986611042565b9050611335818761212c565b9550505b50505050935093915050565b8151600090611356575060006103a8565b60008360600151836020015161136c9190612228565b845161137790611683565b6113819190612186565b90506103a4600160601b82612144565b6067546001600160a01b03166113a5611139565b6001600160a01b0316146113cb5760405162461bcd60e51b815260040161040890611eb5565b565b80516001600160a01b039081166000908152609c6020908152604080832082860151909416835292905290812080546114165760c0830151805160028301556020015160038201555b600061146d8460200151836040518060c00160405290816000820154815260200160018201548152602001600282015481526020016003820154815260200160048201548152602001600582015481525050611042565b606085015183549192506114809161212c565b82556020808501516001600160a01b03166000908152609e90915260409020546001830155608084015160048301546114b9919061212c565b600483015560a084015160058301546114d2919061212c565b6005909201919091559050919050565b600054610100900460ff16806114fb575060005460ff16155b6115175760405162461bcd60e51b815260040161040890611f37565b600054610100900460ff16158015611542576000805460ff1961ff0019909116610100171660011790555b61154a6116b0565b801561155c576000805461ff00191690555b50565b611567611b2f565b60008083604001516001600160a01b031663857620e185606001518660a0015187608001516040518463ffffffff1660e01b81526004016115aa939291906120d5565b6040805180830381600087803b1580156115c357600080fd5b505af11580156115d7573d6000803e3d6000fd5b505050506040513d601f19601f820116820180604052508101906115fb9190611dad565b91509150600080600061160d87611784565b925092509250600061161e83611683565b61162786611683565b6116319190612228565b9050600061163e83611683565b61164788611683565b6116519190612228565b6040805160a0810182529788526020880198909852968601949094526060850152505050608081019190915292915050565b60006001600160ff1b038211156116ac5760405162461bcd60e51b815260040161040890611fa5565b5090565b600054610100900460ff16806116c9575060005460ff16155b6116e55760405162461bcd60e51b815260040161040890611f37565b600054610100900460ff16158015611710576000805460ff1961ff0019909116610100171660011790555b6117186118e2565b6000611722611139565b603380546001600160a01b0319166001600160a01b038316908117909155604051919250906000907f8be0079c531659141344cd1fd0a4f28419497f9722a3daafe3b4186f6b6457e0908290a350801561155c576000805461ff001916905550565b80516001600160a01b039081166000908152609c602090815260408083208286018051909516845282528083209351815160c081018352855481526001860154938101939093526002850154918301919091526003840154606083015260048401546080830152600584015460a08301529192839283926118059190611042565b935084606001516000146118995760048101541561184c5761183481600401548660600151836000015461194a565b92508281600401546118469190612267565b60048201555b6005810154156118855761186d81600501548660600151836000015461194a565b915081816005015461187f9190612267565b60058201555b606085015181546118969190612267565b81555b80546118b6576118b185600001518660200151611a10565b6118da565b6020808601516001600160a01b03166000908152609e909152604090205460018201555b509193909250565b600054610100900460ff16806118fb575060005460ff16155b6119175760405162461bcd60e51b815260040161040890611f37565b600054610100900460ff16158015611942576000805460ff1961ff0019909116610100171660011790555b61154a611a5e565b600080806000198587098587029250828110838203039150508060001415611997576000841161198c5760405162461bcd60e51b815260040161040890611e33565b50829004905061066c565b8084116119a357600080fd5b6000848688096000868103871696879004966002600389028118808a02820302808a02820302808a02820302808a02820302808a02820302808a02909103029181900381900460010186841190950394909402919094039290920491909117919091029150509392505050565b6001600160a01b039182166000908152609c60209081526040808320939094168252919091529081208181556001810182905560028101829055600381018290556004810182905560050155565b600054610100900460ff1680611a77575060005460ff16155b611a935760405162461bcd60e51b815260040161040890611f37565b600054610100900460ff1615801561154a576000805460ff1961ff001990911661010017166001179055801561155c576000805461ff001916905550565b6040518060c001604052806000815260200160008152602001600081526020016000815260200160008152602001600081525090565b6040518060800160405280600081526020016000815260200160008152602001600081525090565b6040518060a0016040528060008152602001600081526020016000815260200160008152602001600081525090565b600060408284031215611b6f578081fd5b6040516040810181811067ffffffffffffffff82111715611b9e57634e487b7160e01b83526041600452602483fd5b604052823581526020928301359281019290925250919050565b600060208284031215611bc9578081fd5b813561066c816122c5565b600060208284031215611be5578081fd5b815161066c816122c5565b60008060408385031215611c02578081fd5b8235611c0d816122c5565b91506020830135611c1d816122c5565b809150509250929050565b600080600060608486031215611c3c578081fd5b8335611c47816122c5565b92506020840135611c57816122c5565b915060408401358015158114611c6b578182fd5b809150509250925092565b600080600060808486031215611c8a578283fd5b8335611c95816122c5565b92506020840135611ca5816122c5565b9150611cb48560408601611b5e565b90509250925092565b600080600060408486031215611cd1578283fd5b8335611cdc816122c5565b9250602084013567ffffffffffffffff80821115611cf8578384fd5b818601915086601f830112611d0b578384fd5b813581811115611d19578485fd5b8760208083028501011115611d2c578485fd5b6020830194508093505050509250925092565b60008060408385031215611d51578182fd5b8235611d5c816122c5565b946020939093013593505050565b600060e08284031215611d7b578081fd5b50919050565b600060408284031215611d92578081fd5b61066c8383611b5e565b600060a08284031215611d7b578081fd5b60008060408385031215611dbf578182fd5b505080516020909101519092909150565b600080600060608486031215611de4578283fd5b8351925060208401519150604084015190509250925092565b6001600160a01b0391909116815260200190565b901515815260200190565b90815260200190565b918252602082015260400190565b60208082526022908201527f64656e6f6d696e61746f72206d7573742062652067726561746572207468616e604082015261020360f41b606082015260800190565b602080825260069082015265534f5f434e4360d01b604082015260600190565b602080825260069082015265534f5f53414360d01b604082015260600190565b6020808252600790820152660869088be9e86960cb1b604082015260600190565b602080825260069082015265534f5f53414f60d01b604082015260600190565b602080825260069082015265534f5f434e4f60d01b604082015260600190565b602080825260079082015266131417d495135360ca1b604082015260600190565b6020808252602e908201527f496e697469616c697a61626c653a20636f6e747261637420697320616c72656160408201526d191e481a5b9a5d1a585b1a5e995960921b606082015260800190565b602080825260069082015265131417d3d35560d21b604082015260600190565b60208082526028908201527f53616665436173743a2076616c756520646f65736e27742066697420696e2061604082015267371034b73a191a9b60c11b606082015260800190565b6020808252600590820152640534f5f43360dc1b604082015260600190565b6020808252600690820152650534f5f4e57360d41b604082015260600190565b8151815260208083015190820152604080830151908201526060918201519181019190915260800190565b600060c082019050825182526020830151602083015260408301516040830152606083015160608301526080830151608083015260a083015160a083015292915050565b600060a082019050825182526020830151602083015260408301516040830152606083015160608301526080830151608083015292915050565b9283526020830191909152604082015260600190565b600080821280156001600160ff1b038490038513161561210d5761210d612299565b600160ff1b839003841281161561212657612126612299565b50500190565b6000821982111561213f5761213f612299565b500190565b600082612153576121536122af565b600160ff1b82146000198414161561216d5761216d612299565b500590565b600082612181576121816122af565b500490565b60006001600160ff1b03818413828413808216868404861116156121ac576121ac612299565b600160ff1b848712828116878305891216156121ca576121ca612299565b8587129250878205871284841616156121e5576121e5612299565b878505871281841616156121fb576121fb612299565b505050929093029392505050565b600081600019048311821515161561222357612223612299565b500290565b60008083128015600160ff1b85018412161561224657612246612299565b6001600160ff1b038401831381161561226157612261612299565b50500390565b60008282101561227957612279612299565b500390565b600060001982141561229257612292612299565b5060010190565b634e487b7160e01b600052601160045260246000fd5b634e487b7160e01b600052601260045260246000fd5b6001600160a01b038116811461155c57600080fdfea2646970667358221220e15db18bb09bc7a3137883d1fe4e0cf763c5c8ec7c2fc8037f2e1a9bbf87ef0e64736f6c63430008010033",
  "linkReferences": {},
  "deployedLinkReferences": {}
}