{
    "_format": "hh-sol-artifact-1",
    "contractName": "LiquidityProvider",
    "sourceName": "contracts/clearinghouse/LiquidityProvider.sol",
    "abi": [
        {
            "anonymous": false,
            "inputs": [
                {
                    "indexed": true,
                    "internalType": "address",
                    "name": "clearingHouse",
                    "type": "address"
                }
            ],
            "name": "ClearingHouseChanged",
            "type": "event"
        },
        {
            "anonymous": false,
            "inputs": [
                {
                    "indexed": true,
                    "internalType": "address",
                    "name": "trader",
                    "type": "address"
                }
            ],
            "name": "MarketTakerChanged",
            "type": "event"
        },
        {
            "anonymous": false,
            "inputs": [
                {
                    "indexed": true,
                    "internalType": "address",
                    "name": "previousOwner",
                    "type": "address"
                },
                {
                    "indexed": true,
                    "internalType": "address",
                    "name": "newOwner",
                    "type": "address"
                }
            ],
            "name": "OwnershipTransferred",
            "type": "event"
        },
        {
            "inputs": [
                {
                    "components": [
                        {
                            "internalType": "address",
                            "name": "maker",
                            "type": "address"
                        },
                        {
                            "internalType": "address",
                            "name": "baseToken",
                            "type": "address"
                        },
                        {
                            "internalType": "uint256",
                            "name": "base",
                            "type": "uint256"
                        },
                        {
                            "internalType": "uint256",
                            "name": "quote",
                            "type": "uint256"
                        },
                        {
                            "internalType": "uint256",
                            "name": "minLiquidity",
                            "type": "uint256"
                        },
                        {
                            "components": [
                                {
                                    "internalType": "int256",
                                    "name": "twPremium",
                                    "type": "int256"
                                },
                                {
                                    "internalType": "int256",
                                    "name": "twPremiumWithLiquidity",
                                    "type": "int256"
                                }
                            ],
                            "internalType": "struct Funding.Growth",
                            "name": "fundingGrowthGlobal",
                            "type": "tuple"
                        }
                    ],
                    "internalType": "struct ILiquidityProvider.AddLiquidityParams",
                    "name": "params",
                    "type": "tuple"
                }
            ],
            "name": "addLiquidity",
            "outputs": [
                {
                    "components": [
                        {
                            "internalType": "uint256",
                            "name": "base",
                            "type": "uint256"
                        },
                        {
                            "internalType": "uint256",
                            "name": "quote",
                            "type": "uint256"
                        },
                        {
                            "internalType": "uint256",
                            "name": "liquidity",
                            "type": "uint256"
                        }
                    ],
                    "internalType": "struct ILiquidityProvider.AddLiquidityResponse",
                    "name": "",
                    "type": "tuple"
                }
            ],
            "stateMutability": "nonpayable",
            "type": "function"
        },
        {
            "inputs": [],
            "name": "candidate",
            "outputs": [
                {
                    "internalType": "address",
                    "name": "",
                    "type": "address"
                }
            ],
            "stateMutability": "view",
            "type": "function"
        },
        {
            "inputs": [],
            "name": "getClearingHouse",
            "outputs": [
                {
                    "internalType": "address",
                    "name": "",
                    "type": "address"
                }
            ],
            "stateMutability": "view",
            "type": "function"
        },
        {
            "inputs": [
                {
                    "internalType": "address",
                    "name": "trader",
                    "type": "address"
                },
                {
                    "internalType": "address",
                    "name": "baseToken",
                    "type": "address"
                },
                {
                    "components": [
                        {
                            "internalType": "int256",
                            "name": "twPremium",
                            "type": "int256"
                        },
                        {
                            "internalType": "int256",
                            "name": "twPremiumWithLiquidity",
                            "type": "int256"
                        }
                    ],
                    "internalType": "struct Funding.Growth",
                    "name": "fundingGrowthGlobal",
                    "type": "tuple"
                }
            ],
            "name": "getLiquidityFundingPayment",
            "outputs": [
                {
                    "internalType": "int256",
                    "name": "liquidityFundingPayment",
                    "type": "int256"
                }
            ],
            "stateMutability": "view",
            "type": "function"
        },
        {
            "inputs": [],
            "name": "getMarketTaker",
            "outputs": [
                {
                    "internalType": "address",
                    "name": "",
                    "type": "address"
                }
            ],
            "stateMutability": "view",
            "type": "function"
        },
        {
            "inputs": [
                {
                    "internalType": "address",
                    "name": "trader",
                    "type": "address"
                },
                {
                    "internalType": "address",
                    "name": "baseToken",
                    "type": "address"
                }
            ],
            "name": "getOpenOrder",
            "outputs": [
                {
                    "components": [
                        {
                            "internalType": "uint256",
                            "name": "liquidity",
                            "type": "uint256"
                        },
                        {
                            "internalType": "int256",
                            "name": "lastTwPremiumGrowth",
                            "type": "int256"
                        },
                        {
                            "internalType": "int256",
                            "name": "lastTwPremiumWithLiquidityGrowth",
                            "type": "int256"
                        },
                        {
                            "internalType": "uint256",
                            "name": "baseDebt",
                            "type": "uint256"
                        },
                        {
                            "internalType": "uint256",
                            "name": "quoteDebt",
                            "type": "uint256"
                        }
                    ],
                    "internalType": "struct Account.LPInfo",
                    "name": "",
                    "type": "tuple"
                }
            ],
            "stateMutability": "view",
            "type": "function"
        },
        {
            "inputs": [
                {
                    "internalType": "address",
                    "name": "trader",
                    "type": "address"
                },
                {
                    "internalType": "address",
                    "name": "baseToken",
                    "type": "address"
                },
                {
                    "internalType": "bool",
                    "name": "fetchBase",
                    "type": "bool"
                }
            ],
            "name": "getTotalLPOrderDebt",
            "outputs": [
                {
                    "internalType": "uint256",
                    "name": "",
                    "type": "uint256"
                }
            ],
            "stateMutability": "view",
            "type": "function"
        },
        {
            "inputs": [
                {
                    "internalType": "address",
                    "name": "trader",
                    "type": "address"
                },
                {
                    "internalType": "address[]",
                    "name": "baseTokens",
                    "type": "address[]"
                }
            ],
            "name": "getTotalLPQuoteAmount",
            "outputs": [
                {
                    "internalType": "int256",
                    "name": "totalQuoteAmountInAmms",
                    "type": "int256"
                }
            ],
            "stateMutability": "view",
            "type": "function"
        },
        {
            "inputs": [
                {
                    "internalType": "address",
                    "name": "trader",
                    "type": "address"
                },
                {
                    "internalType": "address",
                    "name": "baseToken",
                    "type": "address"
                },
                {
                    "internalType": "bool",
                    "name": "fetchBase",
                    "type": "bool"
                }
            ],
            "name": "getTotalTokenAmountInAmm",
            "outputs": [
                {
                    "internalType": "uint256",
                    "name": "tokenAmount",
                    "type": "uint256"
                }
            ],
            "stateMutability": "view",
            "type": "function"
        },
        {
            "inputs": [
                {
                    "internalType": "address",
                    "name": "trader",
                    "type": "address"
                },
                {
                    "internalType": "address[]",
                    "name": "tokens",
                    "type": "address[]"
                }
            ],
            "name": "hasOrder",
            "outputs": [
                {
                    "internalType": "bool",
                    "name": "",
                    "type": "bool"
                }
            ],
            "stateMutability": "view",
            "type": "function"
        },
        {
            "inputs": [
                {
                    "internalType": "address",
                    "name": "ammCurveArg",
                    "type": "address"
                }
            ],
            "name": "initialize",
            "outputs": [],
            "stateMutability": "nonpayable",
            "type": "function"
        },
        {
            "inputs": [],
            "name": "owner",
            "outputs": [
                {
                    "internalType": "address",
                    "name": "",
                    "type": "address"
                }
            ],
            "stateMutability": "view",
            "type": "function"
        },
        {
            "inputs": [
                {
                    "components": [
                        {
                            "internalType": "address",
                            "name": "maker",
                            "type": "address"
                        },
                        {
                            "internalType": "address",
                            "name": "baseToken",
                            "type": "address"
                        },
                        {
                            "internalType": "uint256",
                            "name": "liquidity",
                            "type": "uint256"
                        },
                        {
                            "internalType": "uint256",
                            "name": "minBase",
                            "type": "uint256"
                        },
                        {
                            "internalType": "uint256",
                            "name": "minQuote",
                            "type": "uint256"
                        }
                    ],
                    "internalType": "struct ILiquidityProvider.RemoveLiquidityParams",
                    "name": "params",
                    "type": "tuple"
                }
            ],
            "name": "removeLiquidity",
            "outputs": [
                {
                    "components": [
                        {
                            "internalType": "uint256",
                            "name": "base",
                            "type": "uint256"
                        },
                        {
                            "internalType": "uint256",
                            "name": "quote",
                            "type": "uint256"
                        },
                        {
                            "internalType": "int256",
                            "name": "takerBase",
                            "type": "int256"
                        },
                        {
                            "internalType": "int256",
                            "name": "takerQuote",
                            "type": "int256"
                        }
                    ],
                    "internalType": "struct ILiquidityProvider.RemoveLiquidityResponse",
                    "name": "",
                    "type": "tuple"
                }
            ],
            "stateMutability": "nonpayable",
            "type": "function"
        },
        {
            "inputs": [],
            "name": "renounceOwnership",
            "outputs": [],
            "stateMutability": "nonpayable",
            "type": "function"
        },
        {
            "inputs": [
                {
                    "internalType": "address",
                    "name": "clearingHouseArg",
                    "type": "address"
                }
            ],
            "name": "setClearingHouse",
            "outputs": [],
            "stateMutability": "nonpayable",
            "type": "function"
        },
        {
            "inputs": [
                {
                    "internalType": "address",
                    "name": "marketTakerArg",
                    "type": "address"
                }
            ],
            "name": "setMarketTaker",
            "outputs": [],
            "stateMutability": "nonpayable",
            "type": "function"
        },
        {
            "inputs": [
                {
                    "internalType": "address",
                    "name": "newOwner",
                    "type": "address"
                }
            ],
            "name": "setOwner",
            "outputs": [],
            "stateMutability": "nonpayable",
            "type": "function"
        },
        {
            "inputs": [
                {
                    "internalType": "address",
                    "name": "trader",
                    "type": "address"
                },
                {
                    "internalType": "address",
                    "name": "baseToken",
                    "type": "address"
                },
                {
                    "components": [
                        {
                            "internalType": "int256",
                            "name": "twPremium",
                            "type": "int256"
                        },
                        {
                            "internalType": "int256",
                            "name": "twPremiumWithLiquidity",
                            "type": "int256"
                        }
                    ],
                    "internalType": "struct Funding.Growth",
                    "name": "fundingGrowthGlobal",
                    "type": "tuple"
                }
            ],
            "name": "updateFundingGrowthAndLiquidityFundingPayment",
            "outputs": [
                {
                    "internalType": "int256",
                    "name": "liquidityFundingPayment",
                    "type": "int256"
                }
            ],
            "stateMutability": "nonpayable",
            "type": "function"
        },
        {
            "inputs": [],
            "name": "updateOwner",
            "outputs": [],
            "stateMutability": "nonpayable",
            "type": "function"
        }
    ],
    "bytecode": "0x608060405234801561001057600080fd5b50611bfc806100206000396000f3fe608060405234801561001057600080fd5b50600436106101215760003560e01c806385b0f967116100ad578063c575ff7911610071578063c575ff7914610245578063cd6700551461024d578063e3b910e41461026d578063ec32c8e314610280578063fcddb3cc1461029357610121565b806385b0f967146101e25780638da5cb5b146102025780639e8d45801461020a578063bc5920ba1461022a578063c4d66de81461023257610121565b80634dffaee5116100f45780634dffaee51461018a57806355338fc1146101aa5780636c8381f8146101bf578063715018a6146101c7578063832c643e146101cf57610121565b806313af4035146101265780632185b42a1461013b57806343a19cc414610164578063449323d814610177575b600080fd5b610139610134366004611557565b6102a6565b005b61014e610149366004611630565b610392565b60405161015b91906117a1565b60405180910390f35b61014e6101723660046115a3565b610411565b610139610185366004611557565b610426565b61019d610198366004611630565b6104af565b60405161015b9190611796565b6101b261054f565b60405161015b9190611743565b6101b261055e565b61013961056d565b61014e6101dd3660046115ed565b610602565b6101f56101f0366004611571565b6106c3565b60405161015b91906119c4565b6101b2610734565b61021d6102183660046116b0565b610743565b60405161015b91906119a3565b6101396108a4565b610139610240366004611557565b610967565b6101b2610a00565b61026061025b3660046116e2565b610a0f565b60405161015b91906119fe565b61014e61027b3660046115a3565b610b1d565b61014e61028e3660046115ed565b610b9e565b6101396102a1366004611557565b610c12565b6102ae610c9b565b6001600160a01b03166102bf610734565b6001600160a01b0316146102ee5760405162461bcd60e51b81526004016102e59061186d565b60405180910390fd5b6001600160a01b0381166103145760405162461bcd60e51b81526004016102e590611983565b6033546001600160a01b03828116911614156103425760405162461bcd60e51b81526004016102e59061184d565b6034546001600160a01b03828116911614156103705760405162461bcd60e51b81526004016102e59061180c565b603480546001600160a01b0319166001600160a01b0392909216919091179055565b6000805b828110156104085760008484838181106103c057634e487b7160e01b600052603260045260246000fd5b90506020020160208101906103d59190611557565b905060006103e587836000610c9f565b90506103f18185611a29565b93505050808061040090611b95565b915050610396565b505b9392505050565b600061041e848484610cda565b949350505050565b61042e610c9b565b6001600160a01b031661043f610734565b6001600160a01b0316146104655760405162461bcd60e51b81526004016102e59061186d565b606780546001600160a01b0319166001600160a01b0383169081179091556040517fd0654f5900f9e7e4e605a19334306e6a2786bbf960ac0484a4c12feb6428fe2f90600090a250565b6000805b82811015610544576001600160a01b0385166000908152609c60205260408120908585848181106104f457634e487b7160e01b600052603260045260246000fd5b90506020020160208101906105099190611557565b6001600160a01b031681526020810191909152604001600020541561053257600191505061040a565b8061053c81611b95565b9150506104b3565b506000949350505050565b609a546001600160a01b031690565b6034546001600160a01b031690565b610575610c9b565b6001600160a01b0316610586610734565b6001600160a01b0316146105ac5760405162461bcd60e51b81526004016102e59061186d565b6033546040516000916001600160a01b0316907f8be0079c531659141344cd1fd0a4f28419497f9722a3daafe3b4186f6b6457e0908390a3603380546001600160a01b0319908116909155603480549091169055565b609a546000906001600160a01b0316610619610c9b565b6001600160a01b03161461063f5760405162461bcd60e51b81526004016102e5906118fc565b6001600160a01b038085166000908152609c60209081526040808320938716835292815290829020825160a0810184528154815260018201549281019290925260028101549282019290925260038201546060820152600482015460808201526106a99084610ded565b835160018301556020909301516002909101555092915050565b6106cb61146e565b506001600160a01b038083166000908152609c60209081526040808320938516835292815290829020825160a081018452815481526001820154928101929092526002810154928201929092526003820154606082015260049091015460808201525b92915050565b6033546001600160a01b031690565b61074b61149d565b610753610e39565b609b54600090819081906001600160a01b0316631ece366a61077b6040880160208901611557565b8760600135886040013589608001356040518563ffffffff1660e01b81526004016107a99493929190611770565b606060405180830381600087803b1580156107c357600080fd5b505af11580156107d7573d6000803e3d6000fd5b505050506040513d601f19601f820116820180604052508101906107fb9190611716565b92509250925061087e6040518060c001604052808760000160208101906108229190611557565b6001600160a01b031681526020018760200160208101906108439190611557565b6001600160a01b031681526020018381526020018481526020018581526020018760a00180360381019061087791906116c7565b9052610e75565b60405180606001604052808381526020018481526020018281525093505050505b919050565b6034546001600160a01b03166108cc5760405162461bcd60e51b81526004016102e590611964565b6108d4610c9b565b6034546001600160a01b039081169116146109015760405162461bcd60e51b81526004016102e5906117ec565b6034546033546040516001600160a01b0392831692909116907f8be0079c531659141344cd1fd0a4f28419497f9722a3daafe3b4186f6b6457e090600090a360348054603380546001600160a01b03199081166001600160a01b03841617909155169055565b600054610100900460ff1680610980575060005460ff16155b61099c5760405162461bcd60e51b81526004016102e5906118ae565b600054610100900460ff161580156109c7576000805460ff1961ff0019909116610100171660011790555b6109cf610f05565b609b80546001600160a01b0319166001600160a01b03841617905580156109fc576000805461ff00191690555b5050565b6067546001600160a01b031690565b610a176114be565b610a1f610e39565b6000609c81610a316020860186611557565b6001600160a01b03166001600160a01b031681526020019081526020016000206000846020016020810190610a669190611557565b6001600160a01b03166001600160a01b031681526020019081526020016000209050806000015483604001351115610ab05760405162461bcd60e51b81526004016102e59061188d565b6040805160a0810190915261040a9080610acd6020870187611557565b6001600160a01b03168152602001856020016020810190610aee9190611557565b6001600160a01b0316815260200185604001358152602001856060013581526020018560800135815250610f82565b6001600160a01b038084166000908152609c602090815260408083209386168352928152828220835160a08101855281548152600182015492810192909252600281015493820193909352600383015460608201526004909201546080830152908183610b8e578160800151610b94565b81606001515b9695505050505050565b6001600160a01b038084166000908152609c602090815260408083209386168352928152828220835160a0810185528154815260018201549281019290925260028101549382019390935260038301546060820152600490920154608083015290610c098184610ded565b95945050505050565b610c1a610c9b565b6001600160a01b0316610c2b610734565b6001600160a01b031614610c515760405162461bcd60e51b81526004016102e59061186d565b609a80546001600160a01b0319166001600160a01b0383169081179091556040517f73051d125b9033e2af07cc2b08e0953fd5f7a1b48b372b1b8e13fd136b30c88290600090a250565b3390565b600080610cad858585610cda565b90506000610cbc868686610b1d565b9050610cc7816110a7565b610cd0836110a7565b610b949190611b3f565b6001600160a01b038084166000908152609c602090815260408083209386168352928152828220835160a081018552815480825260018301549382019390935260028201549481019490945260038101546060850152600401546080840152909190610d4a57600091505061040a565b609b548151604051631f53765560e21b815260009283926001600160a01b0390911691637d4dd95491610d82918a9190600401611757565b604080518083038186803b158015610d9957600080fd5b505afa158015610dad573d6000803e3d6000fd5b505050506040513d601f19601f82011682018060405250810190610dd191906116f3565b9150915084610de05781610de2565b805b979650505050505050565b8151600090610dfe5750600061072e565b600083604001518360200151610e149190611b3f565b8451610e1f906110a7565b610e299190611abc565b905061041e600160601b82611a82565b6067546001600160a01b0316610e4d610c9b565b6001600160a01b031614610e735760405162461bcd60e51b81526004016102e59061182c565b565b80516001600160a01b039081166000908152609c60209081526040808320828601519094168352929052208054610ebc5760a0820151805160018301556020015160028201555b60408201518154610ecd9190611a6a565b815560608201516003820154610ee39190611a6a565b600382015560808201516004820154610efc9190611a6a565b60049091015550565b600054610100900460ff1680610f1e575060005460ff16155b610f3a5760405162461bcd60e51b81526004016102e5906118ae565b600054610100900460ff16158015610f65576000805460ff1961ff0019909116610100171660011790555b610f6d6110d4565b8015610f7f576000805461ff00191690555b50565b610f8a6114be565b609b5460208301516040808501516080860151606087015192516349e517c560e11b815260009586956001600160a01b03909116946393ca2f8a94610fd794929390929190600401611770565b6040805180830381600087803b158015610ff057600080fd5b505af1158015611004573d6000803e3d6000fd5b505050506040513d601f19601f8201168201806040525081019061102891906116f3565b91509150600080611038866111a8565b915091506000611047836110a7565b611050856110a7565b61105a9190611b3f565b90506000611067836110a7565b611070876110a7565b61107a9190611b3f565b60408051608081018252968752602087019790975295850191909152505050606081019190915292915050565b60006001600160ff1b038211156110d05760405162461bcd60e51b81526004016102e59061191c565b5090565b600054610100900460ff16806110ed575060005460ff16155b6111095760405162461bcd60e51b81526004016102e5906118ae565b600054610100900460ff16158015611134576000805460ff1961ff0019909116610100171660011790555b61113c611286565b6000611146610c9b565b603380546001600160a01b0319166001600160a01b038316908117909155604051919250906000907f8be0079c531659141344cd1fd0a4f28419497f9722a3daafe3b4186f6b6457e0908290a3508015610f7f576000805461ff001916905550565b80516001600160a01b039081166000908152609c602090815260408083208286015190941683529290528181209183015190918291156112685760038101541561121b576112038160030154856040015183600001546112ee565b92508281600301546112159190611b7e565b60038201555b6004810154156112545761123c8160040154856040015183600001546112ee565b915081816004015461124e9190611b7e565b60048201555b604084015181546112659190611b7e565b81555b805461128057611280846000015185602001516113b4565b50915091565b600054610100900460ff168061129f575060005460ff16155b6112bb5760405162461bcd60e51b81526004016102e5906118ae565b600054610100900460ff161580156112e6576000805460ff1961ff0019909116610100171660011790555b610f6d6113fb565b60008080600019858709858702925082811083820303915050806000141561133b57600084116113305760405162461bcd60e51b81526004016102e5906117aa565b50829004905061040a565b80841161134757600080fd5b6000848688096000868103871696879004966002600389028118808a02820302808a02820302808a02820302808a02820302808a02820302808a02909103029181900381900460010186841190950394909402919094039290920491909117919091029150509392505050565b6001600160a01b039182166000908152609c602090815260408083209390941682529190915290812081815560018101829055600281018290556003810182905560040155565b600054610100900460ff1680611414575060005460ff16155b6114305760405162461bcd60e51b81526004016102e5906118ae565b600054610100900460ff16158015610f6d576000805460ff1961ff0019909116610100171660011790558015610f7f576000805461ff001916905550565b6040518060a0016040528060008152602001600081526020016000815260200160008152602001600081525090565b60405180606001604052806000815260200160008152602001600081525090565b6040518060800160405280600081526020016000815260200160008152602001600081525090565b80356001600160a01b038116811461089f57600080fd5b60006040828403121561150e578081fd5b6040516040810181811067ffffffffffffffff8211171561153d57634e487b7160e01b83526041600452602483fd5b604052823581526020928301359281019290925250919050565b600060208284031215611568578081fd5b61040a826114e6565b60008060408385031215611583578081fd5b61158c836114e6565b915061159a602084016114e6565b90509250929050565b6000806000606084860312156115b7578081fd5b6115c0846114e6565b92506115ce602085016114e6565b9150604084013580151581146115e2578182fd5b809150509250925092565b600080600060808486031215611601578283fd5b61160a846114e6565b9250611618602085016114e6565b915061162785604086016114fd565b90509250925092565b600080600060408486031215611644578283fd5b61164d846114e6565b9250602084013567ffffffffffffffff80821115611669578384fd5b818601915086601f83011261167c578384fd5b81358181111561168a578485fd5b876020808302850101111561169d578485fd5b6020830194508093505050509250925092565b600060e082840312156116c1578081fd5b50919050565b6000604082840312156116d8578081fd5b61040a83836114fd565b600060a082840312156116c1578081fd5b60008060408385031215611705578182fd5b505080516020909101519092909150565b60008060006060848603121561172a578283fd5b8351925060208401519150604084015190509250925092565b6001600160a01b0391909116815260200190565b6001600160a01b03929092168252602082015260400190565b6001600160a01b0394909416845260208401929092526040830152606082015260800190565b901515815260200190565b90815260200190565b60208082526022908201527f64656e6f6d696e61746f72206d7573742062652067726561746572207468616e604082015261020360f41b606082015260800190565b602080825260069082015265534f5f434e4360d01b604082015260600190565b602080825260069082015265534f5f53414360d01b604082015260600190565b6020808252600790820152660869088be9e86960cb1b604082015260600190565b602080825260069082015265534f5f53414f60d01b604082015260600190565b602080825260069082015265534f5f434e4f60d01b604082015260600190565b602080825260079082015266131417d495135360ca1b604082015260600190565b6020808252602e908201527f496e697469616c697a61626c653a20636f6e747261637420697320616c72656160408201526d191e481a5b9a5d1a585b1a5e995960921b606082015260800190565b602080825260069082015265131417d3d35560d21b604082015260600190565b60208082526028908201527f53616665436173743a2076616c756520646f65736e27742066697420696e2061604082015267371034b73a191a9b60c11b606082015260800190565b6020808252600590820152640534f5f43360dc1b604082015260600190565b6020808252600690820152650534f5f4e57360d41b604082015260600190565b81518152602080830151908201526040918201519181019190915260600190565b600060a082019050825182526020830151602083015260408301516040830152606083015160608301526080830151608083015292915050565b8151815260208083015190820152604080830151908201526060918201519181019190915260800190565b600080821280156001600160ff1b0384900385131615611a4b57611a4b611bb0565b600160ff1b8390038412811615611a6457611a64611bb0565b50500190565b60008219821115611a7d57611a7d611bb0565b500190565b600082611a9d57634e487b7160e01b81526012600452602481fd5b600160ff1b821460001984141615611ab757611ab7611bb0565b500590565b60006001600160ff1b0381841382841380821686840486111615611ae257611ae2611bb0565b600160ff1b84871282811687830589121615611b0057611b00611bb0565b858712925087820587128484161615611b1b57611b1b611bb0565b87850587128184161615611b3157611b31611bb0565b505050929093029392505050565b60008083128015600160ff1b850184121615611b5d57611b5d611bb0565b6001600160ff1b0384018313811615611b7857611b78611bb0565b50500390565b600082821015611b9057611b90611bb0565b500390565b6000600019821415611ba957611ba9611bb0565b5060010190565b634e487b7160e01b600052601160045260246000fdfea264697066735822122006b2818987bd53eabfaa0ddc2957a9a403249acf59bbf7b3824c2aa491a3f51064736f6c63430008010033",
    "linkReferences": {},
    "deployedLinkReferences": {}
}