{
    "_format": "hh-sol-artifact-1",
    "contractName": "MarketTaker",
    "sourceName": "contracts/clearinghouse/MarketTaker.sol",
    "abi": [
        {
            "anonymous": false,
            "inputs": [
                {
                    "indexed": true,
                    "internalType": "address",
                    "name": "clearingHouse",
                    "type": "address"
                }
            ],
            "name": "ClearingHouseChanged",
            "type": "event"
        },
        {
            "anonymous": false,
            "inputs": [
                {
                    "indexed": true,
                    "internalType": "address",
                    "name": "baseToken",
                    "type": "address"
                },
                {
                    "indexed": false,
                    "internalType": "uint256",
                    "name": "markTwap",
                    "type": "uint256"
                },
                {
                    "indexed": false,
                    "internalType": "uint256",
                    "name": "indexTwap",
                    "type": "uint256"
                }
            ],
            "name": "FundingUpdated",
            "type": "event"
        },
        {
            "anonymous": false,
            "inputs": [
                {
                    "indexed": true,
                    "internalType": "address",
                    "name": "previousOwner",
                    "type": "address"
                },
                {
                    "indexed": true,
                    "internalType": "address",
                    "name": "newOwner",
                    "type": "address"
                }
            ],
            "name": "OwnershipTransferred",
            "type": "event"
        },
        {
            "anonymous": false,
            "inputs": [
                {
                    "indexed": false,
                    "internalType": "address",
                    "name": "positionMgmt",
                    "type": "address"
                }
            ],
            "name": "PositionMgmtChanged",
            "type": "event"
        },
        {
            "inputs": [],
            "name": "candidate",
            "outputs": [
                {
                    "internalType": "address",
                    "name": "",
                    "type": "address"
                }
            ],
            "stateMutability": "view",
            "type": "function"
        },
        {
            "inputs": [],
            "name": "getAdminFeeReceiver",
            "outputs": [
                {
                    "internalType": "address",
                    "name": "",
                    "type": "address"
                }
            ],
            "stateMutability": "view",
            "type": "function"
        },
        {
            "inputs": [
                {
                    "internalType": "address",
                    "name": "trader",
                    "type": "address"
                }
            ],
            "name": "getAllPendingFundingPayment",
            "outputs": [
                {
                    "internalType": "int256",
                    "name": "pendingFundingPayment",
                    "type": "int256"
                }
            ],
            "stateMutability": "view",
            "type": "function"
        },
        {
            "inputs": [],
            "name": "getClearingHouse",
            "outputs": [
                {
                    "internalType": "address",
                    "name": "",
                    "type": "address"
                }
            ],
            "stateMutability": "view",
            "type": "function"
        },
        {
            "inputs": [],
            "name": "getClearingHouseConfig",
            "outputs": [
                {
                    "internalType": "address",
                    "name": "",
                    "type": "address"
                }
            ],
            "stateMutability": "view",
            "type": "function"
        },
        {
            "inputs": [],
            "name": "getLiquidityProvider",
            "outputs": [
                {
                    "internalType": "address",
                    "name": "",
                    "type": "address"
                }
            ],
            "stateMutability": "view",
            "type": "function"
        },
        {
            "inputs": [
                {
                    "internalType": "address",
                    "name": "baseToken",
                    "type": "address"
                }
            ],
            "name": "getMarkPrice",
            "outputs": [
                {
                    "internalType": "uint256",
                    "name": "",
                    "type": "uint256"
                }
            ],
            "stateMutability": "view",
            "type": "function"
        },
        {
            "inputs": [
                {
                    "internalType": "address",
                    "name": "trader",
                    "type": "address"
                },
                {
                    "internalType": "address",
                    "name": "baseToken",
                    "type": "address"
                }
            ],
            "name": "getPendingFundingPayment",
            "outputs": [
                {
                    "internalType": "int256",
                    "name": "",
                    "type": "int256"
                }
            ],
            "stateMutability": "view",
            "type": "function"
        },
        {
            "inputs": [
                {
                    "components": [
                        {
                            "internalType": "address",
                            "name": "trader",
                            "type": "address"
                        },
                        {
                            "internalType": "address",
                            "name": "baseToken",
                            "type": "address"
                        },
                        {
                            "internalType": "int256",
                            "name": "base",
                            "type": "int256"
                        },
                        {
                            "internalType": "int256",
                            "name": "quote",
                            "type": "int256"
                        }
                    ],
                    "internalType": "struct IMarketTaker.RealizePnlParams",
                    "name": "params",
                    "type": "tuple"
                }
            ],
            "name": "getPnlToBeRealized",
            "outputs": [
                {
                    "internalType": "int256",
                    "name": "",
                    "type": "int256"
                }
            ],
            "stateMutability": "view",
            "type": "function"
        },
        {
            "inputs": [
                {
                    "internalType": "address",
                    "name": "baseToken",
                    "type": "address"
                }
            ],
            "name": "getPool",
            "outputs": [
                {
                    "internalType": "address",
                    "name": "",
                    "type": "address"
                }
            ],
            "stateMutability": "view",
            "type": "function"
        },
        {
            "inputs": [],
            "name": "getPositionMgmt",
            "outputs": [
                {
                    "internalType": "address",
                    "name": "",
                    "type": "address"
                }
            ],
            "stateMutability": "view",
            "type": "function"
        },
        {
            "inputs": [
                {
                    "internalType": "address",
                    "name": "baseToken",
                    "type": "address"
                }
            ],
            "name": "getTwapMarkPrice",
            "outputs": [
                {
                    "internalType": "uint256",
                    "name": "",
                    "type": "uint256"
                }
            ],
            "stateMutability": "view",
            "type": "function"
        },
        {
            "inputs": [
                {
                    "internalType": "address",
                    "name": "wrapAmmArg",
                    "type": "address"
                },
                {
                    "internalType": "address",
                    "name": "liquidityProviderArg",
                    "type": "address"
                },
                {
                    "internalType": "address",
                    "name": "clearingHouseConfigArg",
                    "type": "address"
                }
            ],
            "name": "initialize",
            "outputs": [],
            "stateMutability": "nonpayable",
            "type": "function"
        },
        {
            "inputs": [],
            "name": "owner",
            "outputs": [
                {
                    "internalType": "address",
                    "name": "",
                    "type": "address"
                }
            ],
            "stateMutability": "view",
            "type": "function"
        },
        {
            "inputs": [],
            "name": "renounceOwnership",
            "outputs": [],
            "stateMutability": "nonpayable",
            "type": "function"
        },
        {
            "inputs": [
                {
                    "internalType": "address",
                    "name": "clearingHouseArg",
                    "type": "address"
                }
            ],
            "name": "setClearingHouse",
            "outputs": [],
            "stateMutability": "nonpayable",
            "type": "function"
        },
        {
            "inputs": [
                {
                    "internalType": "address",
                    "name": "newOwner",
                    "type": "address"
                }
            ],
            "name": "setOwner",
            "outputs": [],
            "stateMutability": "nonpayable",
            "type": "function"
        },
        {
            "inputs": [
                {
                    "internalType": "address",
                    "name": "positionMgmtArg",
                    "type": "address"
                }
            ],
            "name": "setPositionMgmt",
            "outputs": [],
            "stateMutability": "nonpayable",
            "type": "function"
        },
        {
            "inputs": [
                {
                    "internalType": "address",
                    "name": "trader",
                    "type": "address"
                },
                {
                    "internalType": "address",
                    "name": "baseToken",
                    "type": "address"
                }
            ],
            "name": "settleFunding",
            "outputs": [
                {
                    "internalType": "int256",
                    "name": "fundingPayment",
                    "type": "int256"
                },
                {
                    "components": [
                        {
                            "internalType": "int256",
                            "name": "twPremium",
                            "type": "int256"
                        },
                        {
                            "internalType": "int256",
                            "name": "twPremiumWithLiquidity",
                            "type": "int256"
                        }
                    ],
                    "internalType": "struct Funding.Growth",
                    "name": "fundingGrowthGlobal",
                    "type": "tuple"
                }
            ],
            "stateMutability": "nonpayable",
            "type": "function"
        },
        {
            "inputs": [
                {
                    "internalType": "address",
                    "name": "baseToken",
                    "type": "address"
                },
                {
                    "internalType": "uint256",
                    "name": "i",
                    "type": "uint256"
                },
                {
                    "internalType": "uint256",
                    "name": "j",
                    "type": "uint256"
                },
                {
                    "internalType": "uint256",
                    "name": "dx",
                    "type": "uint256"
                }
            ],
            "name": "simulatedSwap",
            "outputs": [
                {
                    "internalType": "uint256",
                    "name": "priceAfter",
                    "type": "uint256"
                },
                {
                    "internalType": "uint256",
                    "name": "amount0",
                    "type": "uint256"
                },
                {
                    "internalType": "uint256",
                    "name": "amount1",
                    "type": "uint256"
                }
            ],
            "stateMutability": "nonpayable",
            "type": "function"
        },
        {
            "inputs": [
                {
                    "components": [
                        {
                            "internalType": "address",
                            "name": "trader",
                            "type": "address"
                        },
                        {
                            "internalType": "address",
                            "name": "baseToken",
                            "type": "address"
                        },
                        {
                            "internalType": "bool",
                            "name": "baseToQuote",
                            "type": "bool"
                        },
                        {
                            "internalType": "bool",
                            "name": "exactInput",
                            "type": "bool"
                        },
                        {
                            "internalType": "bool",
                            "name": "isClose",
                            "type": "bool"
                        },
                        {
                            "internalType": "uint256",
                            "name": "amount",
                            "type": "uint256"
                        },
                        {
                            "internalType": "uint256",
                            "name": "amountLimit",
                            "type": "uint256"
                        }
                    ],
                    "internalType": "struct IMarketTaker.SwapParams",
                    "name": "params",
                    "type": "tuple"
                }
            ],
            "name": "swap",
            "outputs": [
                {
                    "components": [
                        {
                            "internalType": "int256",
                            "name": "base",
                            "type": "int256"
                        },
                        {
                            "internalType": "int256",
                            "name": "quote",
                            "type": "int256"
                        },
                        {
                            "internalType": "int256",
                            "name": "exchangedPositionSize",
                            "type": "int256"
                        },
                        {
                            "internalType": "int256",
                            "name": "exchangedPositionNotional",
                            "type": "int256"
                        },
                        {
                            "internalType": "int256",
                            "name": "pnlToBeRealized",
                            "type": "int256"
                        },
                        {
                            "internalType": "uint256",
                            "name": "adminFee",
                            "type": "uint256"
                        },
                        {
                            "internalType": "uint256",
                            "name": "exchangeFee",
                            "type": "uint256"
                        }
                    ],
                    "internalType": "struct IMarketTaker.SwapResponse",
                    "name": "",
                    "type": "tuple"
                }
            ],
            "stateMutability": "nonpayable",
            "type": "function"
        },
        {
            "inputs": [],
            "name": "updateOwner",
            "outputs": [],
            "stateMutability": "nonpayable",
            "type": "function"
        }
    ],
    "bytecode": "0x608060405234801561001057600080fd5b50613691806100206000396000f3fe608060405234801561001057600080fd5b50600436106101425760003560e01c806380f57f11116100b8578063bbe4f6db1161007c578063bbe4f6db14610284578063bc5920ba14610297578063c0c53b8b1461029f578063c575ff79146102b2578063cb379aa2146102ba578063e2a72cce146102cd57610142565b806380f57f11146102395780638da5cb5b1461024c5780638e8499ba146102545780639a89ac441461025c578063aa2a82941461027c57610142565b806349cf2a611161010a57806349cf2a61146101cc5780635c73ee96146101ee5780635d6f9c14146102015780636c8381f814610214578063715018a614610229578063803841b71461023157610142565b80631393a4691461014757806313af4035146101705780631e81ac33146101855780634318dd95146101a6578063449323d8146101b9575b600080fd5b61015a610155366004612d44565b6102d5565b6040516101679190612fac565b60405180910390f35b61018361017e366004612b69565b6103f9565b005b610198610193366004612ba1565b6104e5565b604051610167929190612fb5565b61015a6101b4366004612b69565b610804565b6101836101c7366004612b69565b61088b565b6101df6101da366004612c23565b610914565b60405161016793929190613383565b6101836101fc366004612b69565b6109b9565b61015a61020f366004612b69565b610a7c565b61021c610aad565b6040516101679190612eec565b610183610abc565b61021c610b51565b61015a610247366004612b69565b610bd3565b61021c610cc3565b61021c610cd2565b61026f61026a366004612d9c565b610ce1565b6040516101679190613327565b61021c61129e565b61021c610292366004612b69565b6112ad565b61018361132e565b6101836102ad366004612bd9565b6113f1565b61021c611516565b61015a6102c8366004612ba1565b611525565b61021c6116dc565b609b54815160208301516040516331997f7b60e11b815260009384936001600160a01b0390911692636332fef692610311929190600401612f00565b60606040518083038186803b15801561032957600080fd5b505afa15801561033d573d6000803e3d6000fd5b505050506040513d601f19601f820116820180604052508101906103619190612e2d565b60208101518151919250906000811561038757604086015160008084129112141561038a565b60005b9050806103985760006103ef565b6103ef6040518060c0016040528088600001516001600160a01b0316815260200188602001516001600160a01b031681526020018481526020018581526020018860400151815260200188606001518152506116eb565b9695505050505050565b6104016117a0565b6001600160a01b0316610412610cc3565b6001600160a01b0316146104415760405162461bcd60e51b815260040161043890613132565b60405180910390fd5b6001600160a01b0381166104675760405162461bcd60e51b815260040161043890613307565b6033546001600160a01b03828116911614156104955760405162461bcd60e51b8152600401610438906130f1565b6034546001600160a01b03828116911614156104c35760405162461bcd60e51b81526004016104389061306d565b603480546001600160a01b0319166001600160a01b0392909216919091179055565b60006104ef612adc565b6104f76117a4565b609d54604051631246dbf560e01b81526001600160a01b0390911690631246dbf590610527908690600401612eec565b60206040518083038186803b15801561053f57600080fd5b505afa158015610553573d6000803e3d6000fd5b505050506040513d601f19601f820116820180604052508101906105779190612d10565b6105935760405162461bcd60e51b8152600401610438906130d0565b60008061059f856117e0565b609b546040516359deb70960e11b815293965091945092506106bd91889188916001600160a01b039091169063b3bd6e12906105e19085908590600401612f00565b60206040518083038186803b1580156105f957600080fd5b505afa15801561060d573d6000803e3d6000fd5b505050506040513d601f19601f820116820180604052508101906106319190612d2c565b609b546040516331997f7b60e11b81526001600160a01b0390911690636332fef690610663908d908d90600401612f00565b60606040518083038186803b15801561067b57600080fd5b505afa15801561068f573d6000803e3d6000fd5b505050506040513d601f19601f820116820180604052508101906106b39190612e2d565b6040015187611b43565b935060006106c9611be7565b6001600160a01b038716600090815260a0602052604090205490915081146107fa576001600160a01b038616600081815260a16020908152604080832088518984015160a090945293829020600182019390935592835590849055519091907f54e4482fe1d38392effe5d53f0e9e72f60221a75a10cea7abbb684bfb03519bf906107579087908790613375565b60405180910390a2609d54604051633ece6d0960e21b81526001600160a01b039091169063fb39b4249061078f908a90600401612eec565b60206040518083038186803b1580156107a757600080fd5b505afa1580156107bb573d6000803e3d6000fd5b505050506040513d601f19601f820116820180604052508101906107df9190612d2c565b6001600160a01b0388166000908152609e6020526040902055505b5050509250929050565b609d54604051632b7746f160e01b81526000916001600160a01b031690632b7746f190610835908590600401612eec565b60206040518083038186803b15801561084d57600080fd5b505afa158015610861573d6000803e3d6000fd5b505050506040513d601f19601f820116820180604052508101906108859190612d2c565b92915050565b6108936117a0565b6001600160a01b03166108a4610cc3565b6001600160a01b0316146108ca5760405162461bcd60e51b815260040161043890613132565b606780546001600160a01b0319166001600160a01b0383169081179091556040517fd0654f5900f9e7e4e605a19334306e6a2786bbf960ac0484a4c12feb6428fe2f90600090a250565b60008060006109216117a4565b609d546040516349cf2a6160e01b81526001600160a01b03909116906349cf2a6190610957908a908a908a908a90600401612f3f565b606060405180830381600087803b15801561097157600080fd5b505af1158015610985573d6000803e3d6000fd5b505050506040513d601f19601f820116820180604052508101906109a99190612eb0565b9250925092509450945094915050565b6109c16117a0565b6001600160a01b03166109d2610cc3565b6001600160a01b0316146109f85760405162461bcd60e51b815260040161043890613132565b610a0a816001600160a01b0316611beb565b610a265760405162461bcd60e51b81526004016104389061304c565b609b80546001600160a01b0319166001600160a01b0383161790556040517f3e3f79f86c3f9ba9db57a8a54d0b8aeafca3285e5dfaeeb1da21dba8d5af412990610a71908390612eec565b60405180910390a150565b609d54604051633ece6d0960e21b81526000916001600160a01b03169063fb39b42490610835908590600401612eec565b6034546001600160a01b031690565b610ac46117a0565b6001600160a01b0316610ad5610cc3565b6001600160a01b031614610afb5760405162461bcd60e51b815260040161043890613132565b6033546040516000916001600160a01b0316907f8be0079c531659141344cd1fd0a4f28419497f9722a3daafe3b4186f6b6457e0908390a3603380546001600160a01b0319908116909155603480549091169055565b609d546040805163803841b760e01b815290516000926001600160a01b03169163803841b7916004808301926020929190829003018186803b158015610b9657600080fd5b505afa158015610baa573d6000803e3d6000fd5b505050506040513d601f19601f82011682018060405250810190610bce9190612b85565b905090565b609b546040516357ba739b60e11b815260009182916001600160a01b039091169063af74e73690610c08908690600401612eec565b60006040518083038186803b158015610c2057600080fd5b505afa158015610c34573d6000803e3d6000fd5b505050506040513d6000823e601f3d908101601f19168201604052610c5c9190810190612c5d565b805190915060005b81811015610cbb57610c9d85848381518110610c9057634e487b7160e01b600052603260045260246000fd5b6020026020010151611525565b610ca790856133ca565b935080610cb3816135c8565b915050610c64565b505050919050565b6033546001600160a01b031690565b609b546001600160a01b031690565b610ce9612af6565b610cf16117a4565b609b548251602084015160405163165c4e2960e31b81526000936001600160a01b03169263b2e2714892610d2792600401612f00565b60206040518083038186803b158015610d3f57600080fd5b505afa158015610d53573d6000803e3d6000fd5b505050506040513d601f19601f82011682018060405250810190610d779190612d2c565b90506000610d888460200151611bf1565b905083608001518015610d9a57508115155b15611055578080610dc25750610dc284602001518560a0015186604001518760600151611c82565b15610eeb576000610dd1611be7565b85516001600160a01b03908116600090815260a260209081526040808320828b015190941683529290522054909150811415610e1f5760405162461bcd60e51b81526004016104389061323d565b84516001600160a01b03908116600090815260a260209081526040808320828a0151851684528252808320859055609c548151633a14199b60e11b8152915193941692637428333692600480840193919291829003018186803b158015610e8557600080fd5b505afa158015610e99573d6000803e3d6000fd5b505050506040513d601f19601f82011682018060405250810190610ebd9190612e6a565b60a0870151909150610ecf9082612010565b60a087015260c0860151610ee39082612010565b60c087015250505b8360600151158015610eff57508360400151155b1561105057609d54602085015160a0860151604051631990812560e31b81526001600160a01b039093169263cc84092892610f44929091600091600191600401612f3f565b604080518083038186803b158015610f5b57600080fd5b505afa158015610f6f573d6000803e3d6000fd5b505050506040513d601f19601f82011682018060405250810190610f939190612e8d565b5060a08501819052609d5460208601516040516373b53e9360e01b81526000936001600160a01b03909316926373b53e9392610fd9929091869160019190600401612f3f565b604080518083038186803b158015610ff057600080fd5b505afa158015611004573d6000803e3d6000fd5b505050506040513d601f19601f820116820180604052508101906110289190612e8d565b509050606461103882606361350f565b6110429190613478565b60c086015250600160608501525b611073565b80156110735760405162461bcd60e51b8152600401610438906131d5565b609b548451602086015160405163d50d01b760e01b81526000936001600160a01b03169263d50d01b7926110a992600401612f00565b60206040518083038186803b1580156110c157600080fd5b505afa1580156110d5573d6000803e3d6000fd5b505050506040513d601f19601f820116820180604052508101906110f99190612d2c565b9050600061110686612025565b905085608001516111c557609d546020870151604051633ece6d0960e21b81526000926001600160a01b03169163fb39b424916111469190600401612eec565b60206040518083038186803b15801561115e57600080fd5b505afa158015611172573d6000803e3d6000fd5b505050506040513d601f19601f820116820180604052508101906111969190612d2c565b90506111a68760200151826123fe565b156111c35760405162461bcd60e51b81526004016104389061308d565b505b600084156111df57604087015115156000861214156111e2565b60005b905060008115611246576112436040518060c001604052808a600001516001600160a01b031681526020018a602001516001600160a01b031681526020018881526020018681526020018560000151815260200185602001518152506116eb565b90505b6040518060e0016040528084600001518152602001846020015181526020018460400151815260200184606001518152602001828152602001846080015181526020018460a001518152509650505050505050919050565b609c546001600160a01b031690565b609d5460405163bbe4f6db60e01b81526000916001600160a01b03169063bbe4f6db906112de908590600401612eec565b60206040518083038186803b1580156112f657600080fd5b505afa15801561130a573d6000803e3d6000fd5b505050506040513d601f19601f820116820180604052508101906108859190612b85565b6034546001600160a01b03166113565760405162461bcd60e51b8152600401610438906132a7565b61135e6117a0565b6034546001600160a01b0390811691161461138b5760405162461bcd60e51b81526004016104389061300b565b6034546033546040516001600160a01b0392831692909116907f8be0079c531659141344cd1fd0a4f28419497f9722a3daafe3b4186f6b6457e090600090a360348054603380546001600160a01b03199081166001600160a01b03841617909155169055565b600054610100900460ff168061140a575060005460ff16155b6114265760405162461bcd60e51b815260040161043890613187565b600054610100900460ff16158015611451576000805460ff1961ff0019909116610100171660011790555b61145961251f565b609d80546001600160a01b0319166001600160a01b0386811691909117909155611484908416611beb565b6114a05760405162461bcd60e51b81526004016104389061302b565b6114b2826001600160a01b0316611beb565b6114ce5760405162461bcd60e51b815260040161043890613111565b609a80546001600160a01b038086166001600160a01b031992831617909255609c8054928516929091169190911790558015611510576000805461ff00191690555b50505050565b6067546001600160a01b031690565b600080611531836117e0565b5050609a5460405163ec32c8e360e01b81529192506000916001600160a01b039091169063ec32c8e39061156d90889088908790600401612f1a565b60206040518083038186803b15801561158557600080fd5b505afa158015611599573d6000803e3d6000fd5b505050506040513d601f19601f820116820180604052508101906115bd9190612d2c565b609b546040516359deb70960e11b81529192506116d3916001600160a01b039091169063b3bd6e12906115f69089908990600401612f00565b60206040518083038186803b15801561160e57600080fd5b505afa158015611622573d6000803e3d6000fd5b505050506040513d601f19601f820116820180604052508101906116469190612d2c565b609b546040516331997f7b60e11b81526001600160a01b0390911690636332fef690611678908a908a90600401612f00565b60606040518083038186803b15801561169057600080fd5b505afa1580156116a4573d6000803e3d6000fd5b505050506040513d601f19601f820116820180604052508101906116c89190612e2d565b60400151848461259c565b95945050505050565b609a546001600160a01b031690565b6000806117196116fe84608001516125f7565b670de0b6b3a764000061171486604001516125f7565b612620565b90506000670de0b6b3a7640000821161176857600061174e61173a846126e6565b606087015190670de0b6b3a7640000612713565b9050808560a0015161176091906133ca565b915050611799565b60a084015160009061178390670de0b6b3a764000085612713565b905080856060015161179591906133ca565b9150505b9392505050565b3390565b6067546001600160a01b03166117b86117a0565b6001600160a01b0316146117de5760405162461bcd60e51b8152600401610438906130af565b565b6117e8612adc565b6000806000806117f6611be7565b6001600160a01b0387166000908152609f6020526040902054909150156118d357609d54604051630330fb4960e31b81526001600160a01b0390911690631987da4890611847908990600401612eec565b60206040518083038186803b15801561185f57600080fd5b505afa158015611873573d6000803e3d6000fd5b505050506040513d601f19601f820116820180604052508101906118979190612d2c565b6001600160a01b0387166000908152609f6020526040812054919350906118be9083613591565b90508083116118cd57826118cf565b805b9250505b6118dc86610804565b604051631208064760e01b81529094506001600160a01b0387169063120806479061190b908590600401612fac565b60206040518083038186803b15801561192357600080fd5b505afa158015611937573d6000803e3d6000fd5b505050506040513d601f19601f8201168201806040525081019061195b9190612d2c565b6001600160a01b038716600090815260a0602090815260408083205460a1909252909120919450908282148061198f575081155b156119b3576040805180820190915281548152600182015460208201529650611b38565b60006119c76119c28486613591565b6126e6565b6119e16119d3896127ab565b6119dc896127ab565b6127c4565b6119eb919061348c565b82549091506119fb9082906133ca565b8852609d54604051639de8ef7960e01b81526000916001600160a01b031690639de8ef7990611a2e908d90600401612eec565b60206040518083038186803b158015611a4657600080fd5b505afa158015611a5a573d6000803e3d6000fd5b505050506040513d601f19601f82011682018060405250810190611a7e9190612d2c565b90508015611b3557609d54604051630ffb93f960e31b81526000916001600160a01b031690637fdc9fc890611aba908e90600190600401612f93565b60206040518083038186803b158015611ad257600080fd5b505afa158015611ae6573d6000803e3d6000fd5b505050506040513d601f19601f82011682018060405250810190611b0a9190612d2c565b9050611b1f611b18826126e6565b8484612713565b8460010154611b2e91906133ca565b60208b0152505b50505b505050509193909250565b609a54604051634196321f60e11b815260009182916001600160a01b039091169063832c643e90611b7c908a908a908890600401612f1a565b602060405180830381600087803b158015611b9657600080fd5b505af1158015611baa573d6000803e3d6000fd5b505050506040513d601f19601f82011682018060405250810190611bce9190612d2c565b9050611bdc8585858461259c565b979650505050505050565b4290565b3b151590565b609d54604051633ece6d0960e21b815260009182916001600160a01b039091169063fb39b42490611c26908690600401612eec565b60206040518083038186803b158015611c3e57600080fd5b505afa158015611c52573d6000803e3d6000fd5b505050506040513d601f19601f82011682018060405250810190611c769190612d2c565b905061179983826123fe565b6000808215611dbb578315611d2657609d546040516349cf2a6160e01b81526001600160a01b03909116906349cf2a6190611cc99089906001906000908b90600401612f3f565b606060405180830381600087803b158015611ce357600080fd5b505af1158015611cf7573d6000803e3d6000fd5b505050506040513d601f19601f82011682018060405250810190611d1b9190612eb0565b50909150611db69050565b609d546040516349cf2a6160e01b81526001600160a01b03909116906349cf2a6190611d5e9089906000906001908b90600401612f3f565b606060405180830381600087803b158015611d7857600080fd5b505af1158015611d8c573d6000803e3d6000fd5b505050506040513d601f19601f82011682018060405250810190611db09190612eb0565b50909150505b611ffa565b8315611ee057609d54604051631990812560e31b81526000916001600160a01b03169063cc84092890611df9908a9060019086908c90600401612f3f565b604080518083038186803b158015611e1057600080fd5b505afa158015611e24573d6000803e3d6000fd5b505050506040513d601f19601f82011682018060405250810190611e489190612e8d565b50609d546040516349cf2a6160e01b81529192506001600160a01b0316906349cf2a6190611e82908a906001906000908790600401612f3f565b606060405180830381600087803b158015611e9c57600080fd5b505af1158015611eb0573d6000803e3d6000fd5b505050506040513d601f19601f82011682018060405250810190611ed49190612eb0565b50909250611ffa915050565b609d54604051631990812560e31b81526000916001600160a01b03169063cc84092890611f18908a9085906001908c90600401612f3f565b604080518083038186803b158015611f2f57600080fd5b505afa158015611f43573d6000803e3d6000fd5b505050506040513d601f19601f82011682018060405250810190611f679190612e8d565b50609d546040516349cf2a6160e01b81529192506001600160a01b0316906349cf2a6190611fa1908a906000906001908790600401612f3f565b606060405180830381600087803b158015611fbb57600080fd5b505af1158015611fcf573d6000803e3d6000fd5b505050506040513d601f19601f82011682018060405250810190611ff39190612eb0565b5090925050505b61200486826123fe565b9150505b949350505050565b6000611799838362ffffff16620f4240612620565b61202d612b33565b606082015115156001146120535760405162461bcd60e51b8152600401610438906131f7565b609d54602083015160405163508d501d60e01b8152600092839283928392839283926001600160a01b039092169163508d501d9161209391600401612eec565b60206040518083038186803b1580156120ab57600080fd5b505afa1580156120bf573d6000803e3d6000fd5b505050506040513d601f19601f820116820180604052508101906120e39190612d2c565b90508760400151156121db57609d54602089015160a08a015160c08b0151604051639a5f60e560e01b815260009485946001600160a01b0390911693639a5f60e5936121389360019288929091600401612f65565b6040805180830381600087803b15801561215157600080fd5b505af1158015612165573d6000803e3d6000fd5b505050506040513d601f19601f820116820180604052508101906121899190612e8d565b9150915061219a8a60a001516128ce565b97506121a5826126e6565b96506402540be4006121b7848461350f565b6121c19190613478565b94506121d06119c28684613591565b9550925061237b9050565b609d54602089015160a08a015160c08b0151604051639a5f60e560e01b815260009485946001600160a01b0390911693639a5f60e5936122249387926001929091600401612f65565b6040805180830381600087803b15801561223d57600080fd5b505af1158015612251573d6000803e3d6000fd5b505050506040513d601f19601f820116820180604052508101906122759190612e8d565b91509150612282826126e6565b97506122918a60a001516128ce565b96506402540be400838b60a001516122a9919061350f565b6122b39190613478565b94506122cd858b60a001516122c89190613432565b6128ce565b609d5460208c0151604051633ece6d0960e21b81529298506000926001600160a01b039092169163fb39b4249161230691600401612eec565b60206040518083038186803b15801561231e57600080fd5b505afa158015612332573d6000803e3d6000fd5b505050506040513d601f19601f820116820180604052508101906123569190612d2c565b9050670de0b6b3a764000061236b828461350f565b6123759190613478565b94505050505b6020808901516001600160a01b03166000908152609f90915260409020546123c4576123a5611be7565b6020808a01516001600160a01b03166000908152609f90915260409020555b6040518060c00160405280878152602001858152602001878152602001868152602001848152602001838152509650505050505050919050565b600080609c60009054906101000a90046001600160a01b03166001600160a01b031663cc85f5f26040518163ffffffff1660e01b815260040160206040518083038186803b15801561244f57600080fd5b505afa158015612463573d6000803e3d6000fd5b505050506040513d601f19601f820116820180604052508101906124879190612e6a565b9050620f42408162ffffff16106124a2576000915050610885565b6001600160a01b0384166000908152609e6020526040812054906124d36124cc84620f424061340b565b8390612010565b905060006124ee6124e785620f424061356d565b8490612010565b90508186111580156125005750808610155b15612512576000945050505050610885565b5060019695505050505050565b600054610100900460ff1680612538575060005460ff16155b6125545760405162461bcd60e51b815260040161043890613187565b600054610100900460ff1615801561257f576000805460ff1961ff0019909116610100171660011790555b6125876128e2565b8015612599576000805461ff00191690555b50565b6000806125bd868686600001516125b3919061352e565b600160601b612713565b90506000620151806125cf83866133ca565b6125d9919061344a565b9050801561200457806125eb816135a8565b98975050505050505050565b6000808212156126175761261261260d836129b6565b6129e4565b610885565b610885826129e4565b60008080600019858709858702925082811083820303915050806000141561266d57600084116126625760405162461bcd60e51b815260040161043890612fc9565b508290049050611799565b80841161267957600080fd5b6000848688096000868103871696879004966002600389028118808a02820302808a02820302808a02820302808a02820302808a02820302808a02909103029181900381900460010186841190950394909402919094039290920491909117919091029150509392505050565b60006001600160ff1b0382111561270f5760405162461bcd60e51b81526004016104389061325f565b5090565b60008060008512612724578461272d565b61272d856129b6565b9050600080851261273e5784612747565b612747856129b6565b90506000808712801561275a5750600086135b8061277057506000871380156127705750600086125b61277b57600061277e565b60015b9050600061278d848488612620565b9050816127a25761279d816126e6565b6125eb565b6125eb816128ce565b600061088582600160601b670de0b6b3a7640000612620565b600080609c60009054906101000a90046001600160a01b03166001600160a01b0316636e1d2dd26040518163ffffffff1660e01b815260040160206040518083038186803b15801561281557600080fd5b505afa158015612829573d6000803e3d6000fd5b505050506040513d601f19601f8201168201806040525081019061284d9190612e6a565b9050600061285b8483612010565b9050600084861115612898576128718587613591565b905081811161288857612883816126e6565b612891565b612891826126e6565b93506128c5565b6128a28686613591565b90508181116128b9576128b4816128ce565b6128c2565b6128c2826128ce565b93505b50505092915050565b60006128d9826126e6565b610885906135dc565b600054610100900460ff16806128fb575060005460ff16155b6129175760405162461bcd60e51b815260040161043890613187565b600054610100900460ff16158015612942576000805460ff1961ff0019909116610100171660011790555b61294a612a06565b60006129546117a0565b603380546001600160a01b0319166001600160a01b038316908117909155604051919250906000907f8be0079c531659141344cd1fd0a4f28419497f9722a3daafe3b4186f6b6457e0908290a3508015612599576000805461ff001916905550565b6000600160ff1b82136129db5760405162461bcd60e51b8152600401610438906132c6565b610885826135dc565b60008082121561270f5760405162461bcd60e51b815260040161043890613152565b600054610100900460ff1680612a1f575060005460ff16155b612a3b5760405162461bcd60e51b815260040161043890613187565b600054610100900460ff16158015612a66576000805460ff1961ff0019909116610100171660011790555b612587600054610100900460ff1680612a82575060005460ff16155b612a9e5760405162461bcd60e51b815260040161043890613187565b600054610100900460ff16158015612587576000805460ff1961ff0019909116610100171660011790558015612599576000805461ff001916905550565b604051806040016040528060008152602001600081525090565b6040518060e00160405280600081526020016000815260200160008152602001600081526020016000815260200160008152602001600081525090565b6040518060c001604052806000815260200160008152602001600081526020016000815260200160008152602001600081525090565b600060208284031215612b7a578081fd5b813561179981613638565b600060208284031215612b96578081fd5b815161179981613638565b60008060408385031215612bb3578081fd5b8235612bbe81613638565b91506020830135612bce81613638565b809150509250929050565b600080600060608486031215612bed578081fd5b8335612bf881613638565b92506020840135612c0881613638565b91506040840135612c1881613638565b809150509250925092565b60008060008060808587031215612c38578081fd5b8435612c4381613638565b966020860135965060408601359560600135945092505050565b60006020808385031215612c6f578182fd5b825167ffffffffffffffff80821115612c86578384fd5b818501915085601f830112612c99578384fd5b815181811115612cab57612cab613622565b8381029150612cbb848301613399565b8181528481019084860184860187018a1015612cd5578788fd5b8795505b83861015612d035780519450612cee85613638565b84835260019590950194918601918601612cd9565b5098975050505050505050565b600060208284031215612d21578081fd5b81516117998161364d565b600060208284031215612d3d578081fd5b5051919050565b600060808284031215612d55578081fd5b612d5f6080613399565b8235612d6a81613638565b81526020830135612d7a81613638565b6020820152604083810135908201526060928301359281019290925250919050565b600060e08284031215612dad578081fd5b612db760e0613399565b8235612dc281613638565b81526020830135612dd281613638565b60208201526040830135612de58161364d565b60408201526060830135612df88161364d565b60608201526080830135612e0b8161364d565b608082015260a0838101359082015260c0928301359281019290925250919050565b600060608284031215612e3e578081fd5b612e486060613399565b8251815260208301516020820152604083015160408201528091505092915050565b600060208284031215612e7b578081fd5b815162ffffff81168114611799578182fd5b60008060408385031215612e9f578182fd5b505080516020909101519092909150565b600080600060608486031215612ec4578081fd5b8351925060208401519150604084015190509250925092565b80518252602090810151910152565b6001600160a01b0391909116815260200190565b6001600160a01b0392831681529116602082015260400190565b6001600160a01b03848116825283166020820152608081016120086040830184612edd565b6001600160a01b0394909416845260208401929092526040830152606082015260800190565b6001600160a01b03959095168552602085019390935260408401919091526060830152608082015260a00190565b6001600160a01b03929092168252602082015260400190565b90815260200190565b828152606081016117996020830184612edd565b60208082526022908201527f64656e6f6d696e61746f72206d7573742062652067726561746572207468616e604082015261020360f41b606082015260800190565b602080825260069082015265534f5f434e4360d01b604082015260600190565b6020808252600790820152664d545f4c504e4360c81b604082015260600190565b6020808252600790820152664d545f504d4e4360c81b604082015260600190565b602080825260069082015265534f5f53414360d01b604082015260600190565b6020808252600890820152674d545f4f504c415360c01b604082015260600190565b6020808252600790820152660869088be9e86960cb1b604082015260600190565b6020808252600790820152664d545f42544e4560c81b604082015260600190565b602080825260069082015265534f5f53414f60d01b604082015260600190565b6020808252600790820152664d545f43484e4360c81b604082015260600190565b602080825260069082015265534f5f434e4f60d01b604082015260600190565b6020808252818101527f53616665436173743a2076616c7565206d75737420626520706f736974697665604082015260600190565b6020808252602e908201527f496e697469616c697a61626c653a20636f6e747261637420697320616c72656160408201526d191e481a5b9a5d1a585b1a5e995960921b606082015260800190565b6020808252600890820152674d545f4f504c425360c01b604082015260600190565b60208082526026908201527f657861637420696e7075742069732066616c7365207768656e2063616c6c696e60408201526506720737761760d41b606082015260800190565b6020808252600890820152674d545f414f504c4f60c01b604082015260600190565b60208082526028908201527f53616665436173743a2076616c756520646f65736e27742066697420696e2061604082015267371034b73a191a9b60c11b606082015260800190565b6020808252600590820152640534f5f43360dc1b604082015260600190565b60208082526021908201527f4661697274726164654d6174683a20696e76657273696f6e206f766572666c6f6040820152607760f81b606082015260800190565b6020808252600690820152650534f5f4e57360d41b604082015260600190565b600060e082019050825182526020830151602083015260408301516040830152606083015160608301526080830151608083015260a083015160a083015260c083015160c083015292915050565b918252602082015260400190565b9283526020830191909152604082015260600190565b604051601f8201601f1916810167ffffffffffffffff811182821017156133c2576133c2613622565b604052919050565b600080821280156001600160ff1b03849003851316156133ec576133ec6135f6565b600160ff1b8390038412811615613405576134056135f6565b50500190565b600062ffffff808316818516808303821115613429576134296135f6565b01949350505050565b60008219821115613445576134456135f6565b500190565b6000826134595761345961360c565b600160ff1b821460001984141615613473576134736135f6565b500590565b6000826134875761348761360c565b500490565b60006001600160ff1b03818413828413808216868404861116156134b2576134b26135f6565b600160ff1b848712828116878305891216156134d0576134d06135f6565b8587129250878205871284841616156134eb576134eb6135f6565b87850587128184161615613501576135016135f6565b505050929093029392505050565b6000816000190483118215151615613529576135296135f6565b500290565b60008083128015600160ff1b85018412161561354c5761354c6135f6565b6001600160ff1b0384018313811615613567576135676135f6565b50500390565b600062ffffff83811690831681811015613589576135896135f6565b039392505050565b6000828210156135a3576135a36135f6565b500390565b60006001600160ff1b038214156135c1576135c16135f6565b5060010190565b60006000198214156135c1576135c16135f6565b6000600160ff1b8214156135f2576135f26135f6565b0390565b634e487b7160e01b600052601160045260246000fd5b634e487b7160e01b600052601260045260246000fd5b634e487b7160e01b600052604160045260246000fd5b6001600160a01b038116811461259957600080fd5b801515811461259957600080fdfea264697066735822122054be48dd6e0a55d8f441f8188764859adfbdabce23dda791d3fc50daac152ee564736f6c63430008010033",
    "linkReferences": {},
    "deployedLinkReferences": {}
}