{
    "_format": "hh-sol-artifact-1",
    "contractName": "MarketTaker",
    "sourceName": "contracts/clearinghouse/MarketTaker.sol",
    "abi": [
        {
            "anonymous": false,
            "inputs": [
                {
                    "indexed": true,
                    "internalType": "address",
                    "name": "clearingHouse",
                    "type": "address"
                }
            ],
            "name": "ClearingHouseChanged",
            "type": "event"
        },
        {
            "anonymous": false,
            "inputs": [
                {
                    "indexed": true,
                    "internalType": "address",
                    "name": "baseToken",
                    "type": "address"
                },
                {
                    "indexed": false,
                    "internalType": "uint256",
                    "name": "markTwap",
                    "type": "uint256"
                },
                {
                    "indexed": false,
                    "internalType": "uint256",
                    "name": "indexTwap",
                    "type": "uint256"
                }
            ],
            "name": "FundingUpdated",
            "type": "event"
        },
        {
            "anonymous": false,
            "inputs": [
                {
                    "indexed": true,
                    "internalType": "address",
                    "name": "previousOwner",
                    "type": "address"
                },
                {
                    "indexed": true,
                    "internalType": "address",
                    "name": "newOwner",
                    "type": "address"
                }
            ],
            "name": "OwnershipTransferred",
            "type": "event"
        },
        {
            "anonymous": false,
            "inputs": [
                {
                    "indexed": false,
                    "internalType": "address",
                    "name": "positionMgmt",
                    "type": "address"
                }
            ],
            "name": "PositionMgmtChanged",
            "type": "event"
        },
        {
            "inputs": [],
            "name": "candidate",
            "outputs": [
                {
                    "internalType": "address",
                    "name": "",
                    "type": "address"
                }
            ],
            "stateMutability": "view",
            "type": "function"
        },
        {
            "inputs": [
                {
                    "internalType": "address",
                    "name": "baseToken",
                    "type": "address"
                }
            ],
            "name": "getAccumulatedFee",
            "outputs": [
                {
                    "internalType": "uint256",
                    "name": "",
                    "type": "uint256"
                }
            ],
            "stateMutability": "view",
            "type": "function"
        },
        {
            "inputs": [
                {
                    "internalType": "address",
                    "name": "trader",
                    "type": "address"
                }
            ],
            "name": "getAllPendingFundingPayment",
            "outputs": [
                {
                    "internalType": "int256",
                    "name": "pendingFundingPayment",
                    "type": "int256"
                }
            ],
            "stateMutability": "view",
            "type": "function"
        },
        {
            "inputs": [],
            "name": "getClearingHouse",
            "outputs": [
                {
                    "internalType": "address",
                    "name": "",
                    "type": "address"
                }
            ],
            "stateMutability": "view",
            "type": "function"
        },
        {
            "inputs": [],
            "name": "getClearingHouseConfig",
            "outputs": [
                {
                    "internalType": "address",
                    "name": "",
                    "type": "address"
                }
            ],
            "stateMutability": "view",
            "type": "function"
        },
        {
            "inputs": [],
            "name": "getLiquidityProvider",
            "outputs": [
                {
                    "internalType": "address",
                    "name": "",
                    "type": "address"
                }
            ],
            "stateMutability": "view",
            "type": "function"
        },
        {
            "inputs": [
                {
                    "internalType": "address",
                    "name": "baseToken",
                    "type": "address"
                }
            ],
            "name": "getMarkPrice",
            "outputs": [
                {
                    "internalType": "uint256",
                    "name": "",
                    "type": "uint256"
                }
            ],
            "stateMutability": "view",
            "type": "function"
        },
        {
            "inputs": [
                {
                    "internalType": "address",
                    "name": "trader",
                    "type": "address"
                },
                {
                    "internalType": "address",
                    "name": "baseToken",
                    "type": "address"
                }
            ],
            "name": "getPendingFundingPayment",
            "outputs": [
                {
                    "internalType": "int256",
                    "name": "",
                    "type": "int256"
                }
            ],
            "stateMutability": "view",
            "type": "function"
        },
        {
            "inputs": [
                {
                    "components": [
                        {
                            "internalType": "address",
                            "name": "trader",
                            "type": "address"
                        },
                        {
                            "internalType": "address",
                            "name": "baseToken",
                            "type": "address"
                        },
                        {
                            "internalType": "int256",
                            "name": "base",
                            "type": "int256"
                        },
                        {
                            "internalType": "int256",
                            "name": "quote",
                            "type": "int256"
                        }
                    ],
                    "internalType": "struct IMarketTaker.RealizePnlParams",
                    "name": "params",
                    "type": "tuple"
                }
            ],
            "name": "getPnlToBeRealized",
            "outputs": [
                {
                    "internalType": "int256",
                    "name": "",
                    "type": "int256"
                }
            ],
            "stateMutability": "view",
            "type": "function"
        },
        {
            "inputs": [],
            "name": "getPositionMgmt",
            "outputs": [
                {
                    "internalType": "address",
                    "name": "",
                    "type": "address"
                }
            ],
            "stateMutability": "view",
            "type": "function"
        },
        {
            "inputs": [
                {
                    "internalType": "address",
                    "name": "baseToken",
                    "type": "address"
                },
                {
                    "internalType": "uint32",
                    "name": "twapInterval",
                    "type": "uint32"
                }
            ],
            "name": "getTwapMarkPrice",
            "outputs": [
                {
                    "internalType": "uint256",
                    "name": "",
                    "type": "uint256"
                }
            ],
            "stateMutability": "view",
            "type": "function"
        },
        {
            "inputs": [
                {
                    "internalType": "address",
                    "name": "ammFactoryArg",
                    "type": "address"
                },
                {
                    "internalType": "address",
                    "name": "liquidityProviderArg",
                    "type": "address"
                },
                {
                    "internalType": "address",
                    "name": "clearingHouseConfigArg",
                    "type": "address"
                }
            ],
            "name": "initialize",
            "outputs": [],
            "stateMutability": "nonpayable",
            "type": "function"
        },
        {
            "inputs": [],
            "name": "owner",
            "outputs": [
                {
                    "internalType": "address",
                    "name": "",
                    "type": "address"
                }
            ],
            "stateMutability": "view",
            "type": "function"
        },
        {
            "inputs": [],
            "name": "renounceOwnership",
            "outputs": [],
            "stateMutability": "nonpayable",
            "type": "function"
        },
        {
            "inputs": [
                {
                    "internalType": "address",
                    "name": "baseToken",
                    "type": "address"
                }
            ],
            "name": "resetAccumulatedFee",
            "outputs": [],
            "stateMutability": "nonpayable",
            "type": "function"
        },
        {
            "inputs": [
                {
                    "internalType": "address",
                    "name": "clearingHouseArg",
                    "type": "address"
                }
            ],
            "name": "setClearingHouse",
            "outputs": [],
            "stateMutability": "nonpayable",
            "type": "function"
        },
        {
            "inputs": [
                {
                    "internalType": "address",
                    "name": "newOwner",
                    "type": "address"
                }
            ],
            "name": "setOwner",
            "outputs": [],
            "stateMutability": "nonpayable",
            "type": "function"
        },
        {
            "inputs": [
                {
                    "internalType": "address",
                    "name": "positionMgmtArg",
                    "type": "address"
                }
            ],
            "name": "setPositionMgmt",
            "outputs": [],
            "stateMutability": "nonpayable",
            "type": "function"
        },
        {
            "inputs": [
                {
                    "internalType": "address",
                    "name": "trader",
                    "type": "address"
                },
                {
                    "internalType": "address",
                    "name": "baseToken",
                    "type": "address"
                }
            ],
            "name": "settleFunding",
            "outputs": [
                {
                    "internalType": "int256",
                    "name": "fundingPayment",
                    "type": "int256"
                },
                {
                    "components": [
                        {
                            "internalType": "int256",
                            "name": "twPremium",
                            "type": "int256"
                        },
                        {
                            "internalType": "int256",
                            "name": "twPremiumWithLiquidity",
                            "type": "int256"
                        }
                    ],
                    "internalType": "struct Funding.Growth",
                    "name": "fundingGrowthGlobal",
                    "type": "tuple"
                }
            ],
            "stateMutability": "nonpayable",
            "type": "function"
        },
        {
            "inputs": [
                {
                    "components": [
                        {
                            "internalType": "address",
                            "name": "trader",
                            "type": "address"
                        },
                        {
                            "internalType": "address",
                            "name": "baseToken",
                            "type": "address"
                        },
                        {
                            "internalType": "bool",
                            "name": "isSwapWithBase",
                            "type": "bool"
                        },
                        {
                            "internalType": "bool",
                            "name": "isSell",
                            "type": "bool"
                        },
                        {
                            "internalType": "bool",
                            "name": "isClose",
                            "type": "bool"
                        },
                        {
                            "internalType": "uint256",
                            "name": "amount",
                            "type": "uint256"
                        },
                        {
                            "internalType": "uint256",
                            "name": "amountLimit",
                            "type": "uint256"
                        }
                    ],
                    "internalType": "struct IMarketTaker.SwapParams",
                    "name": "params",
                    "type": "tuple"
                }
            ],
            "name": "swap",
            "outputs": [
                {
                    "components": [
                        {
                            "internalType": "int256",
                            "name": "base",
                            "type": "int256"
                        },
                        {
                            "internalType": "int256",
                            "name": "quote",
                            "type": "int256"
                        },
                        {
                            "internalType": "int256",
                            "name": "exchangedPositionSize",
                            "type": "int256"
                        },
                        {
                            "internalType": "int256",
                            "name": "exchangedPositionNotional",
                            "type": "int256"
                        },
                        {
                            "internalType": "uint256",
                            "name": "fee",
                            "type": "uint256"
                        },
                        {
                            "internalType": "uint256",
                            "name": "insuranceFundFee",
                            "type": "uint256"
                        },
                        {
                            "internalType": "int256",
                            "name": "pnlToBeRealized",
                            "type": "int256"
                        }
                    ],
                    "internalType": "struct IMarketTaker.SwapResponse",
                    "name": "",
                    "type": "tuple"
                }
            ],
            "stateMutability": "nonpayable",
            "type": "function"
        },
        {
            "inputs": [],
            "name": "updateOwner",
            "outputs": [],
            "stateMutability": "nonpayable",
            "type": "function"
        }
    ],
    "bytecode": "0x608060405234801561001057600080fd5b50613c94806100206000396000f3fe608060405234801561001057600080fd5b50600436106101375760003560e01c806380f57f11116100b8578063aa2a82941161007c578063aa2a82941461026d578063bc5920ba14610275578063c0c53b8b1461027d578063c575ff7914610290578063cb379aa214610298578063e2a72cce146102ab57610137565b806380f57f11146102175780638da5cb5b1461022a5780638e8499ba146102325780638e9dafdb1461023a5780639a89ac441461024d57610137565b80635c73ee96116100ff5780635c73ee96146101c15780635d6f9c14146101d45780636c8381f8146101e7578063715018a6146101fc578063804a23401461020457610137565b80631393a4691461013c57806313af4035146101655780631e81ac331461017a578063449323d81461019b5780635ac4ce92146101ae575b600080fd5b61014f61014a36600461333c565b6102b3565b60405161015c9190613540565b60405180910390f35b61017861017336600461311d565b6103d9565b005b61018d610188366004613155565b6104c5565b60405161015c929190613549565b6101786101a936600461311d565b610854565b6101786101bc36600461311d565b6108dd565b6101786101cf36600461311d565b6109a7565b61014f6101e236600461311d565b610a6a565b6101ef610b61565b60405161015c91906134d4565b610178610b70565b61014f6102123660046131d7565b610c05565b61014f61022536600461311d565b610d08565b6101ef610df8565b6101ef610e07565b61014f61024836600461311d565b610e16565b61026061025b366004613394565b610e31565b60405161015c919061391d565b6101ef611323565b610178611332565b61017861028b36600461318d565b6113f5565b6101ef61151a565b61014f6102a6366004613155565b611529565b6101ef6116e0565b609b54815160208301516040516331997f7b60e11b815260009384936001600160a01b0390911692636332fef6926102ef9291906004016134e8565b60606040518083038186803b15801561030757600080fd5b505afa15801561031b573d6000803e3d6000fd5b505050506040513d601f19601f8201168201806040525081019061033f9190613425565b602081015181519192509060008115610365576040860151600080841291121415610368565b60005b9050806103765760006103cd565b6103cd6040518060c0016040528088600001516001600160a01b0316815260200188602001516001600160a01b031681526020018481526020018581526020018860400151815260200188606001518152506116ef565b9450505050505b919050565b6103e1611799565b6001600160a01b03166103f2610df8565b6001600160a01b0316146104215760405162461bcd60e51b815260040161041890613728565b60405180910390fd5b6001600160a01b0381166104475760405162461bcd60e51b8152600401610418906138fd565b6033546001600160a01b03828116911614156104755760405162461bcd60e51b8152600401610418906136e7565b6034546001600160a01b03828116911614156104a35760405162461bcd60e51b815260040161041890613643565b603480546001600160a01b0319166001600160a01b0392909216919091179055565b60006104cf613049565b6104d761179d565b609d5460405163b02dd21160e01b81526001600160a01b039091169063b02dd211906105079086906004016134d4565b60206040518083038186803b15801561051f57600080fd5b505afa158015610533573d6000803e3d6000fd5b505050506040513d601f19601f8201168201806040525081019061055791906132b7565b6105735760405162461bcd60e51b8152600401610418906136c6565b60008061057f856117d9565b609b546040516359deb70960e11b8152939650919450925061069d91889188916001600160a01b039091169063b3bd6e12906105c190859085906004016134e8565b60206040518083038186803b1580156105d957600080fd5b505afa1580156105ed573d6000803e3d6000fd5b505050506040513d601f19601f8201168201806040525081019061061191906132d3565b609b546040516331997f7b60e11b81526001600160a01b0390911690636332fef690610643908d908d906004016134e8565b60606040518083038186803b15801561065b57600080fd5b505afa15801561066f573d6000803e3d6000fd5b505050506040513d601f19601f820116820180604052508101906106939190613425565b6040015187611bca565b935060006106a9611c6e565b6001600160a01b038716600090815260a06020526040902054909150811461084a576001600160a01b038616600081815260a16020908152604080832088518984015160a090945293829020600182019390935592835590849055519091907f54e4482fe1d38392effe5d53f0e9e72f60221a75a10cea7abbb684bfb03519bf90610737908790879061396b565b60405180910390a2609d54604051637bad6c8560e11b81526001600160a01b039091169063f75ad90a9061076f908a906004016134d4565b60206040518083038186803b15801561078757600080fd5b505afa15801561079b573d6000803e3d6000fd5b505050506040513d601f19601f820116820180604052508101906107bf9190613139565b6001600160a01b0316633473fbe56040518163ffffffff1660e01b815260040160206040518083038186803b1580156107f757600080fd5b505afa15801561080b573d6000803e3d6000fd5b505050506040513d601f19601f8201168201806040525081019061082f91906132d3565b6001600160a01b0388166000908152609e6020526040902055505b5050509250929050565b61085c611799565b6001600160a01b031661086d610df8565b6001600160a01b0316146108935760405162461bcd60e51b815260040161041890613728565b606780546001600160a01b0319166001600160a01b0383169081179091556040517fd0654f5900f9e7e4e605a19334306e6a2786bbf960ac0484a4c12feb6428fe2f90600090a250565b609d54604051637bad6c8560e11b81526001600160a01b039091169063f75ad90a9061090d9084906004016134d4565b60206040518083038186803b15801561092557600080fd5b505afa158015610939573d6000803e3d6000fd5b505050506040513d601f19601f8201168201806040525081019061095d9190613139565b6001600160a01b0316336001600160a01b03161461098d5760405162461bcd60e51b815260040161041890613685565b6001600160a01b0316600090815260a36020526040812055565b6109af611799565b6001600160a01b03166109c0610df8565b6001600160a01b0316146109e65760405162461bcd60e51b815260040161041890613728565b6109f8816001600160a01b0316611c72565b610a145760405162461bcd60e51b815260040161041890613622565b609b80546001600160a01b0319166001600160a01b0383161790556040517f3e3f79f86c3f9ba9db57a8a54d0b8aeafca3285e5dfaeeb1da21dba8d5af412990610a5f9083906134d4565b60405180910390a150565b609d54604051637bad6c8560e11b81526000916001600160a01b03169063f75ad90a90610a9b9085906004016134d4565b60206040518083038186803b158015610ab357600080fd5b505afa158015610ac7573d6000803e3d6000fd5b505050506040513d601f19601f82011682018060405250810190610aeb9190613139565b6001600160a01b0316633473fbe56040518163ffffffff1660e01b815260040160206040518083038186803b158015610b2357600080fd5b505afa158015610b37573d6000803e3d6000fd5b505050506040513d601f19601f82011682018060405250810190610b5b91906132d3565b92915050565b6034546001600160a01b031690565b610b78611799565b6001600160a01b0316610b89610df8565b6001600160a01b031614610baf5760405162461bcd60e51b815260040161041890613728565b6033546040516000916001600160a01b0316907f8be0079c531659141344cd1fd0a4f28419497f9722a3daafe3b4186f6b6457e0908390a3603380546001600160a01b0319908116909155603480549091169055565b609d54604051637bad6c8560e11b81526000916001600160a01b03169063f75ad90a90610c369086906004016134d4565b60206040518083038186803b158015610c4e57600080fd5b505afa158015610c62573d6000803e3d6000fd5b505050506040513d601f19601f82011682018060405250810190610c869190613139565b6001600160a01b03166335c990e3836040518263ffffffff1660e01b8152600401610cb19190613979565b60206040518083038186803b158015610cc957600080fd5b505afa158015610cdd573d6000803e3d6000fd5b505050506040513d601f19601f82011682018060405250810190610d0191906132d3565b9392505050565b609b546040516357ba739b60e11b815260009182916001600160a01b039091169063af74e73690610d3d9086906004016134d4565b60006040518083038186803b158015610d5557600080fd5b505afa158015610d69573d6000803e3d6000fd5b505050506040513d6000823e601f3d908101601f19168201604052610d919190810190613204565b805190915060005b81811015610df057610dd285848381518110610dc557634e487b7160e01b600052603260045260246000fd5b6020026020010151611529565b610ddc90856139bb565b935080610de881613bb9565b915050610d99565b505050919050565b6033546001600160a01b031690565b609b546001600160a01b031690565b6001600160a01b0316600090815260a3602052604090205490565b610e39613063565b610e4161179d565b609b548251602084015160405163165c4e2960e31b81526000936001600160a01b03169263b2e2714892610e77926004016134e8565b60206040518083038186803b158015610e8f57600080fd5b505afa158015610ea3573d6000803e3d6000fd5b505050506040513d601f19601f82011682018060405250810190610ec791906132d3565b90506000610ed88460200151611c78565b905083608001518015610eea57508115155b15611044578080610f165750610f168460200151610f0784611d79565b86604001518760600151611da2565b1561103f576000610f25611c6e565b85516001600160a01b03908116600090815260a260209081526040808320828b015190941683529290522054909150811415610f735760405162461bcd60e51b8152600401610418906137ed565b84516001600160a01b03908116600090815260a260209081526040808320828a0151851684528252808320859055609c548151633a14199b60e11b8152915193941692637428333692600480840193919291829003018186803b158015610fd957600080fd5b505afa158015610fed573d6000803e3d6000fd5b505050506040513d601f19601f820116820180604052508101906110119190613462565b60a08701519091506110239082611f65565b60a087015260c08601516110379082611f65565b60c087015250505b611062565b80156110625760405162461bcd60e51b8152600401610418906137cb565b609b548451602086015160405163d50d01b760e01b81526000936001600160a01b03169263d50d01b792611098926004016134e8565b60206040518083038186803b1580156110b057600080fd5b505afa1580156110c4573d6000803e3d6000fd5b505050506040513d601f19601f820116820180604052508101906110e891906132d3565b905060006110f586611f7a565b9050856080015161122457609d546020870151604051637bad6c8560e11b81526000926001600160a01b03169163f75ad90a9161113591906004016134d4565b60206040518083038186803b15801561114d57600080fd5b505afa158015611161573d6000803e3d6000fd5b505050506040513d601f19601f820116820180604052508101906111859190613139565b6001600160a01b0316633473fbe56040518163ffffffff1660e01b815260040160206040518083038186803b1580156111bd57600080fd5b505afa1580156111d1573d6000803e3d6000fd5b505050506040513d601f19601f820116820180604052508101906111f591906132d3565b9050611205876020015182612960565b156112225760405162461bcd60e51b815260040161041890613663565b505b60008415611264578660400151801561123e575086606001515b806112585750866040015115801561125857508660600151155b15156000861314611267565b60005b9050600081156112cb576112c86040518060c001604052808a600001516001600160a01b031681526020018a602001516001600160a01b031681526020018881526020018681526020018560000151815260200185602001518152506116ef565b90505b6040518060e0016040528084600001518152602001846020015181526020018460400151815260200184606001518152602001846080015181526020018460a001518152602001828152509650505050505050919050565b609c546001600160a01b031690565b6034546001600160a01b031661135a5760405162461bcd60e51b81526004016104189061389d565b611362611799565b6034546001600160a01b0390811691161461138f5760405162461bcd60e51b8152600401610418906135e1565b6034546033546040516001600160a01b0392831692909116907f8be0079c531659141344cd1fd0a4f28419497f9722a3daafe3b4186f6b6457e090600090a360348054603380546001600160a01b03199081166001600160a01b03841617909155169055565b600054610100900460ff168061140e575060005460ff16155b61142a5760405162461bcd60e51b81526004016104189061377d565b600054610100900460ff16158015611455576000805460ff1961ff0019909116610100171660011790555b61145d612a81565b609d80546001600160a01b0319166001600160a01b0386811691909117909155611488908416611c72565b6114a45760405162461bcd60e51b815260040161041890613601565b6114b6826001600160a01b0316611c72565b6114d25760405162461bcd60e51b815260040161041890613707565b609a80546001600160a01b038086166001600160a01b031992831617909255609c8054928516929091169190911790558015611514576000805461ff00191690555b50505050565b6067546001600160a01b031690565b600080611535836117d9565b5050609a5460405163ec32c8e360e01b81529192506000916001600160a01b039091169063ec32c8e39061157190889088908790600401613502565b60206040518083038186803b15801561158957600080fd5b505afa15801561159d573d6000803e3d6000fd5b505050506040513d601f19601f820116820180604052508101906115c191906132d3565b609b546040516359deb70960e11b81529192506116d7916001600160a01b039091169063b3bd6e12906115fa90899089906004016134e8565b60206040518083038186803b15801561161257600080fd5b505afa158015611626573d6000803e3d6000fd5b505050506040513d601f19601f8201168201806040525081019061164a91906132d3565b609b546040516331997f7b60e11b81526001600160a01b0390911690636332fef69061167c908a908a906004016134e8565b60606040518083038186803b15801561169457600080fd5b505afa1580156116a8573d6000803e3d6000fd5b505050506040513d601f19601f820116820180604052508101906116cc9190613425565b604001518484612afe565b95945050505050565b609a546001600160a01b031690565b60008061171d6117028460800151611d79565b670de0b6b3a76400006117188660400151611d79565b612b5b565b90506000670de0b6b3a7640000821161176c57600061175261173e84612c21565b606087015190670de0b6b3a7640000612c4e565b9050808560a0015161176491906139bb565b915050610d01565b60a084015160009061178790670de0b6b3a764000085612c4e565b90508085606001516116d791906139bb565b3390565b6067546001600160a01b03166117b1611799565b6001600160a01b0316146117d75760405162461bcd60e51b8152600401610418906136a5565b565b6117e1613049565b6000806000806117ef611c6e565b6001600160a01b0387166000908152609f6020526040902054909150156118e757609c60009054906101000a90046001600160a01b03166001600160a01b0316633e742e3b6040518163ffffffff1660e01b815260040160206040518083038186803b15801561185e57600080fd5b505afa158015611872573d6000803e3d6000fd5b505050506040513d601f19601f8201168201806040525081019061189691906134a9565b6001600160a01b0387166000908152609f6020526040812054919350906118c6906118c19084613b82565b612cf2565b90508063ffffffff168363ffffffff16116118e157826118e3565b805b9250505b6118f18683610c05565b604051631208064760e01b81529094506001600160a01b03871690631208064790611920908590600401613979565b60206040518083038186803b15801561193857600080fd5b505afa15801561194c573d6000803e3d6000fd5b505050506040513d601f19601f8201168201806040525081019061197091906132d3565b6001600160a01b038716600090815260a0602090815260408083205460a190925290912091945090828214806119a4575081155b156119c8576040805180820190915281548152600182015460208201529650611bbf565b60006119dc6119d78486613b82565b612c21565b6119f66119e889612d18565b6119f189612d18565b612d31565b611a009190613a7d565b8254909150611a109082906139bb565b8852609d54604051637bad6c8560e11b81526000916001600160a01b03169063f75ad90a90611a43908d906004016134d4565b60206040518083038186803b158015611a5b57600080fd5b505afa158015611a6f573d6000803e3d6000fd5b505050506040513d601f19601f82011682018060405250810190611a939190613139565b90506000816001600160a01b03166335c7e9256040518163ffffffff1660e01b815260040160206040518083038186803b158015611ad057600080fd5b505afa158015611ae4573d6000803e3d6000fd5b505050506040513d601f19601f82011682018060405250810190611b0891906132d3565b90508015611bbb5760405163490adbaf60e01b81526000906001600160a01b0384169063490adbaf90611b4090600190600401613540565b60206040518083038186803b158015611b5857600080fd5b505afa158015611b6c573d6000803e3d6000fd5b505050506040513d601f19601f82011682018060405250810190611b9091906132d3565b9050611ba5611b9e82612c21565b8584612c4e565b8560010154611bb491906139bb565b60208c0152505b5050505b505050509193909250565b609a54604051634196321f60e11b815260009182916001600160a01b039091169063832c643e90611c03908a908a908890600401613502565b602060405180830381600087803b158015611c1d57600080fd5b505af1158015611c31573d6000803e3d6000fd5b505050506040513d601f19601f82011682018060405250810190611c5591906132d3565b9050611c6385858584612afe565b979650505050505050565b4290565b3b151590565b609d54604051637bad6c8560e11b815260009182916001600160a01b039091169063f75ad90a90611cad9086906004016134d4565b60206040518083038186803b158015611cc557600080fd5b505afa158015611cd9573d6000803e3d6000fd5b505050506040513d601f19601f82011682018060405250810190611cfd9190613139565b6001600160a01b0316633473fbe56040518163ffffffff1660e01b815260040160206040518083038186803b158015611d3557600080fd5b505afa158015611d49573d6000803e3d6000fd5b505050506040513d601f19601f82011682018060405250810190611d6d91906132d3565b9050610d018382612960565b600080821215611d9957611d94611d8f83612e3b565b612e69565b610b5b565b610b5b82612e69565b609d54604051637bad6c8560e11b815260009182916001600160a01b039091169063f75ad90a90611dd79089906004016134d4565b60206040518083038186803b158015611def57600080fd5b505afa158015611e03573d6000803e3d6000fd5b505050506040513d601f19601f82011682018060405250810190611e279190613139565b905060008415611ec257604051637c1152b960e01b81526001600160a01b03831690637c1152b990611e65906001906000908b908a9060040161355d565b606060405180830381600087803b158015611e7f57600080fd5b505af1158015611e93573d6000803e3d6000fd5b505050506040513d601f19601f82011682018060405250810190611eb7919061347c565b50909150611f4e9050565b604051637c1152b960e01b81526001600160a01b03831690637c1152b990611ef6906000906001908b908a9060040161355d565b606060405180830381600087803b158015611f1057600080fd5b505af1158015611f24573d6000803e3d6000fd5b505050506040513d601f19601f82011682018060405250810190611f48919061347c565b50909150505b611f588782612960565b925050505b949350505050565b6000610d01838362ffffff16620f4240612b5b565b611f826130a0565b611f8a6130d6565b609d546020840151604051637fbec65360e01b81526001600160a01b0390921691637fbec65391611fbd916004016134d4565b60206040518083038186803b158015611fd557600080fd5b505afa158015611fe9573d6000803e3d6000fd5b505050506040513d601f19601f8201168201806040525081019061200d9190613462565b62ffffff168152609d546020840151604051637bad6c8560e11b81526000926001600160a01b03169163f75ad90a9161204991906004016134d4565b60206040518083038186803b15801561206157600080fd5b505afa158015612075573d6000803e3d6000fd5b505050506040513d601f19601f820116820180604052508101906120999190613139565b90508360400151156122b357836060015115612199576000816001600160a01b0316637158a538600160008860a001518960c001518a606001516040518663ffffffff1660e01b81526004016120f395949392919061357a565b602060405180830381600087803b15801561210d57600080fd5b505af1158015612121573d6000803e3d6000fd5b505050506040513d601f19601f8201168201806040525081019061214591906132d3565b8351909150612155908290611f65565b606084015260a085015161216890612e8b565b602084015261217681612c21565b6040840152606083015161218e906119d79083613b82565b6080840152506122ae565b6000816001600160a01b0316637158a538600160008860a001518960c001518a606001516040518663ffffffff1660e01b81526004016121dd95949392919061357a565b602060405180830381600087803b1580156121f757600080fd5b505af115801561220b573d6000803e3d6000fd5b505050506040513d601f19601f8201168201806040525081019061222f91906132d3565b9050600061225882620f42408660000151620f424061224e9190613b5e565b62ffffff16612b5b565b8451909150612268908290611f65565b606085015260a086015161227b90612c21565b602085015261228982612e8b565b604085015260608401516122a6906122a19084613a23565b612e8b565b608085015250505b6126d4565b60a08401516060850151604051630724718960e41b81526000926001600160a01b038516926372471890926122ef92869260019260040161355d565b60206040518083038186803b15801561230757600080fd5b505afa15801561231b573d6000803e3d6000fd5b505050506040513d601f19601f8201168201806040525081019061233f91906132d3565b9050600085606001511561250057835160a087015161235d91611f65565b6060850181905260a08701516001600160a01b0385169163724718909160009160019161238a9190613b82565b8a606001516040518563ffffffff1660e01b81526004016123ae949392919061355d565b60206040518083038186803b1580156123c657600080fd5b505afa1580156123da573d6000803e3d6000fd5b505050506040513d601f19601f820116820180604052508101906123fe91906132d3565b90506000836001600160a01b0316637158a5386000600188606001518b60a001516124299190613b82565b878c60c001518861243a9190613b00565b6124449190613a69565b8c606001516040518663ffffffff1660e01b815260040161246995949392919061357a565b602060405180830381600087803b15801561248357600080fd5b505af1158015612497573d6000803e3d6000fd5b505050506040513d601f19601f820116820180604052508101906124bb91906132d3565b90506124c681612c21565b6020860152606085015160a08801516124e2916122a191613b82565b604086015260a08701516124f590612e8b565b6080860152506126d1565b60006125218760a00151620f42408760000151620f424061224e9190613b5e565b8551909150612531908290611f65565b6060860181905260a08801516001600160a01b0386169163724718909160009160019161255e9190613a23565b8b606001516040518563ffffffff1660e01b8152600401612582949392919061355d565b60206040518083038186803b15801561259a57600080fd5b505afa1580156125ae573d6000803e3d6000fd5b505050506040513d601f19601f820116820180604052508101906125d291906132d3565b91506000846001600160a01b0316637158a5386000600189606001518c60a001516125fd9190613a23565b888d60c001518961260e9190613b00565b6126189190613a69565b8d606001516040518663ffffffff1660e01b815260040161263d95949392919061357a565b602060405180830381600087803b15801561265757600080fd5b505af115801561266b573d6000803e3d6000fd5b505050506040513d601f19601f8201168201806040525081019061268f91906132d3565b905061269a81612e8b565b6020870152606086015160a08901516126b6916119d791613a23565b604087015260a08801516126c990612c21565b608087015250505b50505b6020808501516001600160a01b03166000908152609f909152604090205461271d576126fe611c6e565b6020808601516001600160a01b03166000908152609f90915260409020555b609d546020850151604051636ea7507b60e01b81526000926001600160a01b031691636ea7507b9161275291906004016134d4565b60606040518083038186803b15801561276a57600080fd5b505afa15801561277e573d6000803e3d6000fd5b505050506040513d601f19601f820116820180604052508101906127a291906132eb565b60400151905060006127c1828560600151611f6590919063ffffffff16565b905060008185606001516127d59190613b82565b90508060a3600089602001516001600160a01b03166001600160a01b0316815260200190815260200160002060008282546128109190613a23565b925050819055506000846001600160a01b03166335c7e9256040518163ffffffff1660e01b815260040160206040518083038186803b15801561285257600080fd5b505afa158015612866573d6000803e3d6000fd5b505050506040513d601f19601f8201168201806040525081019061288a91906132d3565b905060008161289d600160601b85613b00565b6128a79190613a69565b609a5460208b0151604051634f853aed60e01b81529293506001600160a01b0390911691634f853aed916128df918590600401613527565b600060405180830381600087803b1580156128f957600080fd5b505af115801561290d573d6000803e3d6000fd5b505050506040518060c00160405280886020015181526020018860800151815260200188602001518152602001886040015181526020018860600151815260200185815250975050505050505050919050565b600080609c60009054906101000a90046001600160a01b03166001600160a01b031663cc85f5f26040518163ffffffff1660e01b815260040160206040518083038186803b1580156129b157600080fd5b505afa1580156129c5573d6000803e3d6000fd5b505050506040513d601f19601f820116820180604052508101906129e99190613462565b9050620f42408162ffffff1610612a04576000915050610b5b565b6001600160a01b0384166000908152609e602052604081205490612a35612a2e84620f42406139fc565b8390611f65565b90506000612a50612a4985620f4240613b5e565b8490611f65565b9050818611158015612a625750808610155b15612a74576000945050505050610b5b565b5060019695505050505050565b600054610100900460ff1680612a9a575060005460ff16155b612ab65760405162461bcd60e51b81526004016104189061377d565b600054610100900460ff16158015612ae1576000805460ff1961ff0019909116610100171660011790555b612ae9612e9f565b8015612afb576000805461ff00191690555b50565b600080612b1f86868660000151612b159190613b1f565b600160601b612c4e565b9050600062015180612b3183866139bb565b612b3b9190613a3b565b90508015612b515780612b4d81613b99565b9150505b9695505050505050565b600080806000198587098587029250828110838203039150508060001415612ba85760008411612b9d5760405162461bcd60e51b81526004016104189061359f565b508290049050610d01565b808411612bb457600080fd5b6000848688096000868103871696879004966002600389028118808a02820302808a02820302808a02820302808a02820302808a02820302808a02909103029181900381900460010186841190950394909402919094039290920491909117919091029150509392505050565b60006001600160ff1b03821115612c4a5760405162461bcd60e51b815260040161041890613855565b5090565b60008060008512612c5f5784612c68565b612c6885612e3b565b90506000808512612c795784612c82565b612c8285612e3b565b905060008087128015612c955750600086135b80612cab5750600087138015612cab5750600086125b612cb6576000612cb9565b60015b90506000612cc8848488612b5b565b905081612cdd57612cd881612c21565b612ce6565b612ce681612e8b565b98975050505050505050565b8063ffffffff811681146103d45760405162461bcd60e51b81526004016104189061380f565b6000610b5b82600160601b670de0b6b3a7640000612b5b565b600080609c60009054906101000a90046001600160a01b03166001600160a01b0316636e1d2dd26040518163ffffffff1660e01b815260040160206040518083038186803b158015612d8257600080fd5b505afa158015612d96573d6000803e3d6000fd5b505050506040513d601f19601f82011682018060405250810190612dba9190613462565b90506000612dc88483611f65565b9050600084861115612e0557612dde8587613b82565b9050818111612df557612df081612c21565b612dfe565b612dfe82612c21565b9350612e32565b612e0f8686613b82565b9050818111612e2657612e2181612e8b565b612e2f565b612e2f82612e8b565b93505b50505092915050565b6000600160ff1b8213612e605760405162461bcd60e51b8152600401610418906138bc565b610b5b82613bcd565b600080821215612c4a5760405162461bcd60e51b815260040161041890613748565b6000612e9682612c21565b610b5b90613bcd565b600054610100900460ff1680612eb8575060005460ff16155b612ed45760405162461bcd60e51b81526004016104189061377d565b600054610100900460ff16158015612eff576000805460ff1961ff0019909116610100171660011790555b612f07612f73565b6000612f11611799565b603380546001600160a01b0319166001600160a01b038316908117909155604051919250906000907f8be0079c531659141344cd1fd0a4f28419497f9722a3daafe3b4186f6b6457e0908290a3508015612afb576000805461ff001916905550565b600054610100900460ff1680612f8c575060005460ff16155b612fa85760405162461bcd60e51b81526004016104189061377d565b600054610100900460ff16158015612fd3576000805460ff1961ff0019909116610100171660011790555b612ae9600054610100900460ff1680612fef575060005460ff16155b61300b5760405162461bcd60e51b81526004016104189061377d565b600054610100900460ff16158015612ae9576000805460ff1961ff0019909116610100171660011790558015612afb576000805461ff001916905550565b604051806040016040528060008152602001600081525090565b6040518060e00160405280600081526020016000815260200160008152602001600081526020016000815260200160008152602001600081525090565b6040518060c001604052806000815260200160008152602001600081526020016000815260200160008152602001600081525090565b6040518060a00160405280600062ffffff168152602001600081526020016000815260200160008152602001600081525090565b805162ffffff811681146103d457600080fd5b60006020828403121561312e578081fd5b8135610d0181613c29565b60006020828403121561314a578081fd5b8151610d0181613c29565b60008060408385031215613167578081fd5b823561317281613c29565b9150602083013561318281613c29565b809150509250929050565b6000806000606084860312156131a1578081fd5b83356131ac81613c29565b925060208401356131bc81613c29565b915060408401356131cc81613c29565b809150509250925092565b600080604083850312156131e9578182fd5b82356131f481613c29565b9150602083013561318281613c4c565b60006020808385031215613216578182fd5b825167ffffffffffffffff8082111561322d578384fd5b818501915085601f830112613240578384fd5b81518181111561325257613252613c13565b838102915061326284830161398a565b8181528481019084860184860187018a101561327c578788fd5b8795505b838610156132aa578051945061329585613c29565b84835260019590950194918601918601613280565b5098975050505050505050565b6000602082840312156132c8578081fd5b8151610d0181613c3e565b6000602082840312156132e4578081fd5b5051919050565b6000606082840312156132fc578081fd5b613306606061398a565b825161331181613c29565b815261331f6020840161310a565b60208201526133306040840161310a565b60408201529392505050565b60006080828403121561334d578081fd5b613357608061398a565b823561336281613c29565b8152602083013561337281613c29565b6020820152604083810135908201526060928301359281019290925250919050565b600060e082840312156133a5578081fd5b6133af60e061398a565b82356133ba81613c29565b815260208301356133ca81613c29565b602082015260408301356133dd81613c3e565b604082015260608301356133f081613c3e565b6060820152608083013561340381613c3e565b608082015260a0838101359082015260c0928301359281019290925250919050565b600060608284031215613436578081fd5b613440606061398a565b8251815260208301516020820152604083015160408201528091505092915050565b600060208284031215613473578081fd5b610d018261310a565b600080600060608486031215613490578081fd5b8351925060208401519150604084015190509250925092565b6000602082840312156134ba578081fd5b8151610d0181613c4c565b80518252602090810151910152565b6001600160a01b0391909116815260200190565b6001600160a01b0392831681529116602082015260400190565b6001600160a01b0384811682528316602082015260808101611f5d60408301846134c5565b6001600160a01b03929092168252602082015260400190565b90815260200190565b82815260608101610d0160208301846134c5565b938452602084019290925260408301521515606082015260800190565b9485526020850193909352604084019190915260608301521515608082015260a00190565b60208082526022908201527f64656e6f6d696e61746f72206d7573742062652067726561746572207468616e604082015261020360f41b606082015260800190565b602080825260069082015265534f5f434e4360d01b604082015260600190565b6020808252600790820152664d545f4c504e4360c81b604082015260600190565b6020808252600790820152664d545f504d4e4360c81b604082015260600190565b602080825260069082015265534f5f53414360d01b604082015260600190565b6020808252600890820152674d545f4f504c415360c01b604082015260600190565b6020808252600690820152654d545f4f414d60d01b604082015260600190565b6020808252600790820152660869088be9e86960cb1b604082015260600190565b6020808252600790820152664d545f42544e4560c81b604082015260600190565b602080825260069082015265534f5f53414f60d01b604082015260600190565b6020808252600790820152664d545f43484e4360c81b604082015260600190565b602080825260069082015265534f5f434e4f60d01b604082015260600190565b6020808252818101527f53616665436173743a2076616c7565206d75737420626520706f736974697665604082015260600190565b6020808252602e908201527f496e697469616c697a61626c653a20636f6e747261637420697320616c72656160408201526d191e481a5b9a5d1a585b1a5e995960921b606082015260800190565b6020808252600890820152674d545f4f504c425360c01b604082015260600190565b6020808252600890820152674d545f414f504c4f60c01b604082015260600190565b60208082526026908201527f53616665436173743a2076616c756520646f65736e27742066697420696e203360408201526532206269747360d01b606082015260800190565b60208082526028908201527f53616665436173743a2076616c756520646f65736e27742066697420696e2061604082015267371034b73a191a9b60c11b606082015260800190565b6020808252600590820152640534f5f43360dc1b604082015260600190565b60208082526021908201527f4661697274726164654d6174683a20696e76657273696f6e206f766572666c6f6040820152607760f81b606082015260800190565b6020808252600690820152650534f5f4e57360d41b604082015260600190565b600060e082019050825182526020830151602083015260408301516040830152606083015160608301526080830151608083015260a083015160a083015260c083015160c083015292915050565b918252602082015260400190565b63ffffffff91909116815260200190565b604051601f8201601f1916810167ffffffffffffffff811182821017156139b3576139b3613c13565b604052919050565b600080821280156001600160ff1b03849003851316156139dd576139dd613be7565b600160ff1b83900384128116156139f6576139f6613be7565b50500190565b600062ffffff808316818516808303821115613a1a57613a1a613be7565b01949350505050565b60008219821115613a3657613a36613be7565b500190565b600082613a4a57613a4a613bfd565b600160ff1b821460001984141615613a6457613a64613be7565b500590565b600082613a7857613a78613bfd565b500490565b60006001600160ff1b0381841382841380821686840486111615613aa357613aa3613be7565b600160ff1b84871282811687830589121615613ac157613ac1613be7565b858712925087820587128484161615613adc57613adc613be7565b87850587128184161615613af257613af2613be7565b505050929093029392505050565b6000816000190483118215151615613b1a57613b1a613be7565b500290565b60008083128015600160ff1b850184121615613b3d57613b3d613be7565b6001600160ff1b0384018313811615613b5857613b58613be7565b50500390565b600062ffffff83811690831681811015613b7a57613b7a613be7565b039392505050565b600082821015613b9457613b94613be7565b500390565b60006001600160ff1b03821415613bb257613bb2613be7565b5060010190565b6000600019821415613bb257613bb2613be7565b6000600160ff1b821415613be357613be3613be7565b0390565b634e487b7160e01b600052601160045260246000fd5b634e487b7160e01b600052601260045260246000fd5b634e487b7160e01b600052604160045260246000fd5b6001600160a01b0381168114612afb57600080fd5b8015158114612afb57600080fd5b63ffffffff81168114612afb57600080fdfea26469706673582212209121b66bc078590c62454cde5834788baaaa32b08f8b9828164faf3e7057ca0c64736f6c63430008010033",
    "linkReferences": {},
    "deployedLinkReferences": {}
}