{
    "_format": "hh-sol-artifact-1",
    "contractName": "MarketTaker",
    "sourceName": "contracts/clearinghouse/MarketTaker.sol",
    "abi": [
        {
            "anonymous": false,
            "inputs": [
                {
                    "indexed": true,
                    "internalType": "address",
                    "name": "clearingHouse",
                    "type": "address"
                }
            ],
            "name": "ClearingHouseChanged",
            "type": "event"
        },
        {
            "anonymous": false,
            "inputs": [
                {
                    "indexed": true,
                    "internalType": "address",
                    "name": "baseToken",
                    "type": "address"
                },
                {
                    "indexed": false,
                    "internalType": "uint256",
                    "name": "markTwap",
                    "type": "uint256"
                },
                {
                    "indexed": false,
                    "internalType": "uint256",
                    "name": "indexTwap",
                    "type": "uint256"
                }
            ],
            "name": "FundingUpdated",
            "type": "event"
        },
        {
            "anonymous": false,
            "inputs": [
                {
                    "indexed": true,
                    "internalType": "address",
                    "name": "previousOwner",
                    "type": "address"
                },
                {
                    "indexed": true,
                    "internalType": "address",
                    "name": "newOwner",
                    "type": "address"
                }
            ],
            "name": "OwnershipTransferred",
            "type": "event"
        },
        {
            "anonymous": false,
            "inputs": [
                {
                    "indexed": false,
                    "internalType": "address",
                    "name": "positionMgmt",
                    "type": "address"
                }
            ],
            "name": "PositionMgmtChanged",
            "type": "event"
        },
        {
            "inputs": [],
            "name": "candidate",
            "outputs": [
                {
                    "internalType": "address",
                    "name": "",
                    "type": "address"
                }
            ],
            "stateMutability": "view",
            "type": "function"
        },
        {
            "inputs": [],
            "name": "getAdminFeeReceiver",
            "outputs": [
                {
                    "internalType": "address",
                    "name": "",
                    "type": "address"
                }
            ],
            "stateMutability": "view",
            "type": "function"
        },
        {
            "inputs": [
                {
                    "internalType": "address",
                    "name": "trader",
                    "type": "address"
                }
            ],
            "name": "getAllPendingFundingPayment",
            "outputs": [
                {
                    "internalType": "int256",
                    "name": "pendingFundingPayment",
                    "type": "int256"
                }
            ],
            "stateMutability": "view",
            "type": "function"
        },
        {
            "inputs": [],
            "name": "getClearingHouse",
            "outputs": [
                {
                    "internalType": "address",
                    "name": "",
                    "type": "address"
                }
            ],
            "stateMutability": "view",
            "type": "function"
        },
        {
            "inputs": [],
            "name": "getClearingHouseConfig",
            "outputs": [
                {
                    "internalType": "address",
                    "name": "",
                    "type": "address"
                }
            ],
            "stateMutability": "view",
            "type": "function"
        },
        {
            "inputs": [],
            "name": "getLiquidityProvider",
            "outputs": [
                {
                    "internalType": "address",
                    "name": "",
                    "type": "address"
                }
            ],
            "stateMutability": "view",
            "type": "function"
        },
        {
            "inputs": [
                {
                    "internalType": "address",
                    "name": "baseToken",
                    "type": "address"
                }
            ],
            "name": "getMarkPrice",
            "outputs": [
                {
                    "internalType": "uint256",
                    "name": "",
                    "type": "uint256"
                }
            ],
            "stateMutability": "view",
            "type": "function"
        },
        {
            "inputs": [
                {
                    "internalType": "address",
                    "name": "trader",
                    "type": "address"
                },
                {
                    "internalType": "address",
                    "name": "baseToken",
                    "type": "address"
                }
            ],
            "name": "getPendingFundingPayment",
            "outputs": [
                {
                    "internalType": "int256",
                    "name": "",
                    "type": "int256"
                }
            ],
            "stateMutability": "view",
            "type": "function"
        },
        {
            "inputs": [
                {
                    "components": [
                        {
                            "internalType": "address",
                            "name": "trader",
                            "type": "address"
                        },
                        {
                            "internalType": "address",
                            "name": "baseToken",
                            "type": "address"
                        },
                        {
                            "internalType": "int256",
                            "name": "base",
                            "type": "int256"
                        },
                        {
                            "internalType": "int256",
                            "name": "quote",
                            "type": "int256"
                        }
                    ],
                    "internalType": "struct IMarketTaker.RealizePnlParams",
                    "name": "params",
                    "type": "tuple"
                }
            ],
            "name": "getPnlToBeRealized",
            "outputs": [
                {
                    "internalType": "int256",
                    "name": "",
                    "type": "int256"
                }
            ],
            "stateMutability": "view",
            "type": "function"
        },
        {
            "inputs": [
                {
                    "internalType": "address",
                    "name": "baseToken",
                    "type": "address"
                }
            ],
            "name": "getPool",
            "outputs": [
                {
                    "internalType": "address",
                    "name": "",
                    "type": "address"
                }
            ],
            "stateMutability": "view",
            "type": "function"
        },
        {
            "inputs": [],
            "name": "getPositionMgmt",
            "outputs": [
                {
                    "internalType": "address",
                    "name": "",
                    "type": "address"
                }
            ],
            "stateMutability": "view",
            "type": "function"
        },
        {
            "inputs": [
                {
                    "internalType": "address",
                    "name": "baseToken",
                    "type": "address"
                }
            ],
            "name": "getTwapMarkPrice",
            "outputs": [
                {
                    "internalType": "uint256",
                    "name": "",
                    "type": "uint256"
                }
            ],
            "stateMutability": "view",
            "type": "function"
        },
        {
            "inputs": [
                {
                    "internalType": "address",
                    "name": "wrapAmmArg",
                    "type": "address"
                },
                {
                    "internalType": "address",
                    "name": "liquidityProviderArg",
                    "type": "address"
                },
                {
                    "internalType": "address",
                    "name": "clearingHouseConfigArg",
                    "type": "address"
                }
            ],
            "name": "initialize",
            "outputs": [],
            "stateMutability": "nonpayable",
            "type": "function"
        },
        {
            "inputs": [],
            "name": "owner",
            "outputs": [
                {
                    "internalType": "address",
                    "name": "",
                    "type": "address"
                }
            ],
            "stateMutability": "view",
            "type": "function"
        },
        {
            "inputs": [],
            "name": "renounceOwnership",
            "outputs": [],
            "stateMutability": "nonpayable",
            "type": "function"
        },
        {
            "inputs": [
                {
                    "internalType": "address",
                    "name": "clearingHouseArg",
                    "type": "address"
                }
            ],
            "name": "setClearingHouse",
            "outputs": [],
            "stateMutability": "nonpayable",
            "type": "function"
        },
        {
            "inputs": [
                {
                    "internalType": "address",
                    "name": "newOwner",
                    "type": "address"
                }
            ],
            "name": "setOwner",
            "outputs": [],
            "stateMutability": "nonpayable",
            "type": "function"
        },
        {
            "inputs": [
                {
                    "internalType": "address",
                    "name": "positionMgmtArg",
                    "type": "address"
                }
            ],
            "name": "setPositionMgmt",
            "outputs": [],
            "stateMutability": "nonpayable",
            "type": "function"
        },
        {
            "inputs": [
                {
                    "internalType": "address",
                    "name": "trader",
                    "type": "address"
                },
                {
                    "internalType": "address",
                    "name": "baseToken",
                    "type": "address"
                }
            ],
            "name": "settleFunding",
            "outputs": [
                {
                    "internalType": "int256",
                    "name": "fundingPayment",
                    "type": "int256"
                },
                {
                    "components": [
                        {
                            "internalType": "int256",
                            "name": "twPremium",
                            "type": "int256"
                        },
                        {
                            "internalType": "int256",
                            "name": "twPremiumWithLiquidity",
                            "type": "int256"
                        }
                    ],
                    "internalType": "struct Funding.Growth",
                    "name": "fundingGrowthGlobal",
                    "type": "tuple"
                }
            ],
            "stateMutability": "nonpayable",
            "type": "function"
        },
        {
            "inputs": [
                {
                    "internalType": "address",
                    "name": "baseToken",
                    "type": "address"
                },
                {
                    "internalType": "uint256",
                    "name": "i",
                    "type": "uint256"
                },
                {
                    "internalType": "uint256",
                    "name": "j",
                    "type": "uint256"
                },
                {
                    "internalType": "uint256",
                    "name": "dx",
                    "type": "uint256"
                }
            ],
            "name": "simulatedSwap",
            "outputs": [
                {
                    "internalType": "uint256",
                    "name": "currentPrice",
                    "type": "uint256"
                },
                {
                    "internalType": "uint256",
                    "name": "amount0",
                    "type": "uint256"
                },
                {
                    "internalType": "uint256",
                    "name": "amount1",
                    "type": "uint256"
                },
                {
                    "internalType": "uint256",
                    "name": "oraclePrice",
                    "type": "uint256"
                }
            ],
            "stateMutability": "nonpayable",
            "type": "function"
        },
        {
            "inputs": [
                {
                    "components": [
                        {
                            "internalType": "address",
                            "name": "trader",
                            "type": "address"
                        },
                        {
                            "internalType": "address",
                            "name": "baseToken",
                            "type": "address"
                        },
                        {
                            "internalType": "bool",
                            "name": "baseToQuote",
                            "type": "bool"
                        },
                        {
                            "internalType": "bool",
                            "name": "exactInput",
                            "type": "bool"
                        },
                        {
                            "internalType": "bool",
                            "name": "isClose",
                            "type": "bool"
                        },
                        {
                            "internalType": "uint256",
                            "name": "amount",
                            "type": "uint256"
                        },
                        {
                            "internalType": "uint256",
                            "name": "amountLimit",
                            "type": "uint256"
                        }
                    ],
                    "internalType": "struct IMarketTaker.SwapParams",
                    "name": "params",
                    "type": "tuple"
                }
            ],
            "name": "swap",
            "outputs": [
                {
                    "components": [
                        {
                            "internalType": "int256",
                            "name": "base",
                            "type": "int256"
                        },
                        {
                            "internalType": "int256",
                            "name": "quote",
                            "type": "int256"
                        },
                        {
                            "internalType": "int256",
                            "name": "exchangedPositionSize",
                            "type": "int256"
                        },
                        {
                            "internalType": "int256",
                            "name": "exchangedPositionNotional",
                            "type": "int256"
                        },
                        {
                            "internalType": "int256",
                            "name": "pnlToBeRealized",
                            "type": "int256"
                        },
                        {
                            "internalType": "uint256",
                            "name": "adminFee",
                            "type": "uint256"
                        },
                        {
                            "internalType": "uint256",
                            "name": "exchangeFee",
                            "type": "uint256"
                        }
                    ],
                    "internalType": "struct IMarketTaker.SwapResponse",
                    "name": "",
                    "type": "tuple"
                }
            ],
            "stateMutability": "nonpayable",
            "type": "function"
        },
        {
            "inputs": [],
            "name": "updateOwner",
            "outputs": [],
            "stateMutability": "nonpayable",
            "type": "function"
        }
    ],
    "bytecode": "0x608060405234801561001057600080fd5b506136a6806100206000396000f3fe608060405234801561001057600080fd5b50600436106101425760003560e01c806380f57f11116100b8578063bbe4f6db1161007c578063bbe4f6db14610285578063bc5920ba14610298578063c0c53b8b146102a0578063c575ff79146102b3578063cb379aa2146102bb578063e2a72cce146102ce57610142565b806380f57f111461023a5780638da5cb5b1461024d5780638e8499ba146102555780639a89ac441461025d578063aa2a82941461027d57610142565b806349cf2a611161010a57806349cf2a61146101cc5780635c73ee96146101ef5780635d6f9c14146102025780636c8381f814610215578063715018a61461022a578063803841b71461023257610142565b80631393a4691461014757806313af4035146101705780631e81ac33146101855780634318dd95146101a6578063449323d8146101b9575b600080fd5b61015a610155366004612d4c565b6102d6565b6040516101679190612fbc565b60405180910390f35b61018361017e366004612b71565b6103fa565b005b610198610193366004612ba9565b6104e6565b604051610167929190612fc5565b61015a6101b4366004612b71565b610805565b6101836101c7366004612b71565b61088c565b6101df6101da366004612c2b565b610915565b6040516101679493929190613393565b6101836101fd366004612b71565b6109bd565b61015a610210366004612b71565b610a80565b61021d610ab1565b6040516101679190612efc565b610183610ac0565b61021d610b55565b61015a610248366004612b71565b610bd7565b61021d610cc7565b61021d610cd6565b61027061026b366004612da4565b610ce5565b6040516101679190613337565b61021d6112a2565b61021d610293366004612b71565b6112b1565b610183611332565b6101836102ae366004612be1565b6113f5565b61021d61151a565b61015a6102c9366004612ba9565b611529565b61021d6116e0565b609b54815160208301516040516331997f7b60e11b815260009384936001600160a01b0390911692636332fef692610312929190600401612f10565b60606040518083038186803b15801561032a57600080fd5b505afa15801561033e573d6000803e3d6000fd5b505050506040513d601f19601f820116820180604052508101906103629190612e35565b60208101518151919250906000811561038857604086015160008084129112141561038b565b60005b9050806103995760006103f0565b6103f06040518060c0016040528088600001516001600160a01b0316815260200188602001516001600160a01b031681526020018481526020018581526020018860400151815260200188606001518152506116ef565b9695505050505050565b6104026117a4565b6001600160a01b0316610413610cc7565b6001600160a01b0316146104425760405162461bcd60e51b815260040161043990613142565b60405180910390fd5b6001600160a01b0381166104685760405162461bcd60e51b815260040161043990613317565b6033546001600160a01b03828116911614156104965760405162461bcd60e51b815260040161043990613101565b6034546001600160a01b03828116911614156104c45760405162461bcd60e51b81526004016104399061307d565b603480546001600160a01b0319166001600160a01b0392909216919091179055565b60006104f0612ae4565b6104f86117a8565b609d54604051631246dbf560e01b81526001600160a01b0390911690631246dbf590610528908690600401612efc565b60206040518083038186803b15801561054057600080fd5b505afa158015610554573d6000803e3d6000fd5b505050506040513d601f19601f820116820180604052508101906105789190612d18565b6105945760405162461bcd60e51b8152600401610439906130e0565b6000806105a0856117e4565b609b546040516359deb70960e11b815293965091945092506106be91889188916001600160a01b039091169063b3bd6e12906105e29085908590600401612f10565b60206040518083038186803b1580156105fa57600080fd5b505afa15801561060e573d6000803e3d6000fd5b505050506040513d601f19601f820116820180604052508101906106329190612d34565b609b546040516331997f7b60e11b81526001600160a01b0390911690636332fef690610664908d908d90600401612f10565b60606040518083038186803b15801561067c57600080fd5b505afa158015610690573d6000803e3d6000fd5b505050506040513d601f19601f820116820180604052508101906106b49190612e35565b6040015187611b47565b935060006106ca611beb565b6001600160a01b038716600090815260a0602052604090205490915081146107fb576001600160a01b038616600081815260a16020908152604080832088518984015160a090945293829020600182019390935592835590849055519091907f54e4482fe1d38392effe5d53f0e9e72f60221a75a10cea7abbb684bfb03519bf906107589087908790613385565b60405180910390a2609d54604051633ece6d0960e21b81526001600160a01b039091169063fb39b42490610790908a90600401612efc565b60206040518083038186803b1580156107a857600080fd5b505afa1580156107bc573d6000803e3d6000fd5b505050506040513d601f19601f820116820180604052508101906107e09190612d34565b6001600160a01b0388166000908152609e6020526040902055505b5050509250929050565b609d54604051632b7746f160e01b81526000916001600160a01b031690632b7746f190610836908590600401612efc565b60206040518083038186803b15801561084e57600080fd5b505afa158015610862573d6000803e3d6000fd5b505050506040513d601f19601f820116820180604052508101906108869190612d34565b92915050565b6108946117a4565b6001600160a01b03166108a5610cc7565b6001600160a01b0316146108cb5760405162461bcd60e51b815260040161043990613142565b606780546001600160a01b0319166001600160a01b0383169081179091556040517fd0654f5900f9e7e4e605a19334306e6a2786bbf960ac0484a4c12feb6428fe2f90600090a250565b6000806000806109236117a8565b609d546040516349cf2a6160e01b81526001600160a01b03909116906349cf2a6190610959908b908b908b908b90600401612f4f565b608060405180830381600087803b15801561097357600080fd5b505af1158015610987573d6000803e3d6000fd5b505050506040513d601f19601f820116820180604052508101906109ab9190612eb8565b929b919a509850909650945050505050565b6109c56117a4565b6001600160a01b03166109d6610cc7565b6001600160a01b0316146109fc5760405162461bcd60e51b815260040161043990613142565b610a0e816001600160a01b0316611bef565b610a2a5760405162461bcd60e51b81526004016104399061305c565b609b80546001600160a01b0319166001600160a01b0383161790556040517f3e3f79f86c3f9ba9db57a8a54d0b8aeafca3285e5dfaeeb1da21dba8d5af412990610a75908390612efc565b60405180910390a150565b609d54604051633ece6d0960e21b81526000916001600160a01b03169063fb39b42490610836908590600401612efc565b6034546001600160a01b031690565b610ac86117a4565b6001600160a01b0316610ad9610cc7565b6001600160a01b031614610aff5760405162461bcd60e51b815260040161043990613142565b6033546040516000916001600160a01b0316907f8be0079c531659141344cd1fd0a4f28419497f9722a3daafe3b4186f6b6457e0908390a3603380546001600160a01b0319908116909155603480549091169055565b609d546040805163803841b760e01b815290516000926001600160a01b03169163803841b7916004808301926020929190829003018186803b158015610b9a57600080fd5b505afa158015610bae573d6000803e3d6000fd5b505050506040513d601f19601f82011682018060405250810190610bd29190612b8d565b905090565b609b546040516357ba739b60e11b815260009182916001600160a01b039091169063af74e73690610c0c908690600401612efc565b60006040518083038186803b158015610c2457600080fd5b505afa158015610c38573d6000803e3d6000fd5b505050506040513d6000823e601f3d908101601f19168201604052610c609190810190612c65565b805190915060005b81811015610cbf57610ca185848381518110610c9457634e487b7160e01b600052603260045260246000fd5b6020026020010151611529565b610cab90856133df565b935080610cb7816135dd565b915050610c68565b505050919050565b6033546001600160a01b031690565b609b546001600160a01b031690565b610ced612afe565b610cf56117a8565b609b548251602084015160405163165c4e2960e31b81526000936001600160a01b03169263b2e2714892610d2b92600401612f10565b60206040518083038186803b158015610d4357600080fd5b505afa158015610d57573d6000803e3d6000fd5b505050506040513d601f19601f82011682018060405250810190610d7b9190612d34565b90506000610d8c8460200151611bf5565b905083608001518015610d9e57508115155b15611059578080610dc65750610dc684602001518560a0015186604001518760600151611c86565b15610eef576000610dd5611beb565b85516001600160a01b03908116600090815260a260209081526040808320828b015190941683529290522054909150811415610e235760405162461bcd60e51b81526004016104399061324d565b84516001600160a01b03908116600090815260a260209081526040808320828a0151851684528252808320859055609c548151633a14199b60e11b8152915193941692637428333692600480840193919291829003018186803b158015610e8957600080fd5b505afa158015610e9d573d6000803e3d6000fd5b505050506040513d601f19601f82011682018060405250810190610ec19190612e72565b60a0870151909150610ed39082612018565b60a087015260c0860151610ee79082612018565b60c087015250505b8360600151158015610f0357508360400151155b1561105457609d54602085015160a0860151604051631990812560e31b81526001600160a01b039093169263cc84092892610f48929091600091600191600401612f4f565b604080518083038186803b158015610f5f57600080fd5b505afa158015610f73573d6000803e3d6000fd5b505050506040513d601f19601f82011682018060405250810190610f979190612e95565b5060a08501819052609d5460208601516040516373b53e9360e01b81526000936001600160a01b03909316926373b53e9392610fdd929091869160019190600401612f4f565b604080518083038186803b158015610ff457600080fd5b505afa158015611008573d6000803e3d6000fd5b505050506040513d601f19601f8201168201806040525081019061102c9190612e95565b509050606461103c826063613524565b611046919061348d565b60c086015250600160608501525b611077565b80156110775760405162461bcd60e51b8152600401610439906131e5565b609b548451602086015160405163d50d01b760e01b81526000936001600160a01b03169263d50d01b7926110ad92600401612f10565b60206040518083038186803b1580156110c557600080fd5b505afa1580156110d9573d6000803e3d6000fd5b505050506040513d601f19601f820116820180604052508101906110fd9190612d34565b9050600061110a8661202d565b905085608001516111c957609d546020870151604051633ece6d0960e21b81526000926001600160a01b03169163fb39b4249161114a9190600401612efc565b60206040518083038186803b15801561116257600080fd5b505afa158015611176573d6000803e3d6000fd5b505050506040513d601f19601f8201168201806040525081019061119a9190612d34565b90506111aa876020015182612406565b156111c75760405162461bcd60e51b81526004016104399061309d565b505b600084156111e357604087015115156000861214156111e6565b60005b90506000811561124a576112476040518060c001604052808a600001516001600160a01b031681526020018a602001516001600160a01b031681526020018881526020018681526020018560000151815260200185602001518152506116ef565b90505b6040518060e0016040528084600001518152602001846020015181526020018460400151815260200184606001518152602001828152602001846080015181526020018460a001518152509650505050505050919050565b609c546001600160a01b031690565b609d5460405163bbe4f6db60e01b81526000916001600160a01b03169063bbe4f6db906112e2908590600401612efc565b60206040518083038186803b1580156112fa57600080fd5b505afa15801561130e573d6000803e3d6000fd5b505050506040513d601f19601f820116820180604052508101906108869190612b8d565b6034546001600160a01b031661135a5760405162461bcd60e51b8152600401610439906132b7565b6113626117a4565b6034546001600160a01b0390811691161461138f5760405162461bcd60e51b81526004016104399061301b565b6034546033546040516001600160a01b0392831692909116907f8be0079c531659141344cd1fd0a4f28419497f9722a3daafe3b4186f6b6457e090600090a360348054603380546001600160a01b03199081166001600160a01b03841617909155169055565b600054610100900460ff168061140e575060005460ff16155b61142a5760405162461bcd60e51b815260040161043990613197565b600054610100900460ff16158015611455576000805460ff1961ff0019909116610100171660011790555b61145d612527565b609d80546001600160a01b0319166001600160a01b0386811691909117909155611488908416611bef565b6114a45760405162461bcd60e51b81526004016104399061303b565b6114b6826001600160a01b0316611bef565b6114d25760405162461bcd60e51b815260040161043990613121565b609a80546001600160a01b038086166001600160a01b031992831617909255609c8054928516929091169190911790558015611514576000805461ff00191690555b50505050565b6067546001600160a01b031690565b600080611535836117e4565b5050609a5460405163ec32c8e360e01b81529192506000916001600160a01b039091169063ec32c8e39061157190889088908790600401612f2a565b60206040518083038186803b15801561158957600080fd5b505afa15801561159d573d6000803e3d6000fd5b505050506040513d601f19601f820116820180604052508101906115c19190612d34565b609b546040516359deb70960e11b81529192506116d7916001600160a01b039091169063b3bd6e12906115fa9089908990600401612f10565b60206040518083038186803b15801561161257600080fd5b505afa158015611626573d6000803e3d6000fd5b505050506040513d601f19601f8201168201806040525081019061164a9190612d34565b609b546040516331997f7b60e11b81526001600160a01b0390911690636332fef69061167c908a908a90600401612f10565b60606040518083038186803b15801561169457600080fd5b505afa1580156116a8573d6000803e3d6000fd5b505050506040513d601f19601f820116820180604052508101906116cc9190612e35565b6040015184846125a4565b95945050505050565b609a546001600160a01b031690565b60008061171d61170284608001516125ff565b670de0b6b3a764000061171886604001516125ff565b612628565b90506000670de0b6b3a7640000821161176c57600061175261173e846126ee565b606087015190670de0b6b3a764000061271b565b9050808560a0015161176491906133df565b91505061179d565b60a084015160009061178790670de0b6b3a76400008561271b565b905080856060015161179991906133df565b9150505b9392505050565b3390565b6067546001600160a01b03166117bc6117a4565b6001600160a01b0316146117e25760405162461bcd60e51b8152600401610439906130bf565b565b6117ec612ae4565b6000806000806117fa611beb565b6001600160a01b0387166000908152609f6020526040902054909150156118d757609d54604051630330fb4960e31b81526001600160a01b0390911690631987da489061184b908990600401612efc565b60206040518083038186803b15801561186357600080fd5b505afa158015611877573d6000803e3d6000fd5b505050506040513d601f19601f8201168201806040525081019061189b9190612d34565b6001600160a01b0387166000908152609f6020526040812054919350906118c290836135a6565b90508083116118d157826118d3565b805b9250505b6118e086610805565b604051631208064760e01b81529094506001600160a01b0387169063120806479061190f908590600401612fbc565b60206040518083038186803b15801561192757600080fd5b505afa15801561193b573d6000803e3d6000fd5b505050506040513d601f19601f8201168201806040525081019061195f9190612d34565b6001600160a01b038716600090815260a0602090815260408083205460a19092529091209194509082821480611993575081155b156119b7576040805180820190915281548152600182015460208201529650611b3c565b60006119cb6119c684866135a6565b6126ee565b6119e56119d7896127b3565b6119e0896127b3565b6127cc565b6119ef91906134a1565b82549091506119ff9082906133df565b8852609d54604051639de8ef7960e01b81526000916001600160a01b031690639de8ef7990611a32908d90600401612efc565b60206040518083038186803b158015611a4a57600080fd5b505afa158015611a5e573d6000803e3d6000fd5b505050506040513d601f19601f82011682018060405250810190611a829190612d34565b90508015611b3957609d54604051630ffb93f960e31b81526000916001600160a01b031690637fdc9fc890611abe908e90600190600401612fa3565b60206040518083038186803b158015611ad657600080fd5b505afa158015611aea573d6000803e3d6000fd5b505050506040513d601f19601f82011682018060405250810190611b0e9190612d34565b9050611b23611b1c826126ee565b848461271b565b8460010154611b3291906133df565b60208b0152505b50505b505050509193909250565b609a54604051634196321f60e11b815260009182916001600160a01b039091169063832c643e90611b80908a908a908890600401612f2a565b602060405180830381600087803b158015611b9a57600080fd5b505af1158015611bae573d6000803e3d6000fd5b505050506040513d601f19601f82011682018060405250810190611bd29190612d34565b9050611be0858585846125a4565b979650505050505050565b4290565b3b151590565b609d54604051633ece6d0960e21b815260009182916001600160a01b039091169063fb39b42490611c2a908690600401612efc565b60206040518083038186803b158015611c4257600080fd5b505afa158015611c56573d6000803e3d6000fd5b505050506040513d601f19601f82011682018060405250810190611c7a9190612d34565b905061179d8382612406565b6000808215611dc1578315611d2b57609d546040516349cf2a6160e01b81526001600160a01b03909116906349cf2a6190611ccd9089906001906000908b90600401612f4f565b608060405180830381600087803b158015611ce757600080fd5b505af1158015611cfb573d6000803e3d6000fd5b505050506040513d601f19601f82011682018060405250810190611d1f9190612eb8565b50919250611dbc915050565b609d546040516349cf2a6160e01b81526001600160a01b03909116906349cf2a6190611d639089906000906001908b90600401612f4f565b608060405180830381600087803b158015611d7d57600080fd5b505af1158015611d91573d6000803e3d6000fd5b505050506040513d601f19601f82011682018060405250810190611db59190612eb8565b5091925050505b612002565b8315611ee757609d54604051631990812560e31b81526000916001600160a01b03169063cc84092890611dff908a9060019086908c90600401612f4f565b604080518083038186803b158015611e1657600080fd5b505afa158015611e2a573d6000803e3d6000fd5b505050506040513d601f19601f82011682018060405250810190611e4e9190612e95565b50609d546040516349cf2a6160e01b81529192506001600160a01b0316906349cf2a6190611e88908a906001906000908790600401612f4f565b608060405180830381600087803b158015611ea257600080fd5b505af1158015611eb6573d6000803e3d6000fd5b505050506040513d601f19601f82011682018060405250810190611eda9190612eb8565b5091935061200292505050565b609d54604051631990812560e31b81526000916001600160a01b03169063cc84092890611f1f908a9085906001908c90600401612f4f565b604080518083038186803b158015611f3657600080fd5b505afa158015611f4a573d6000803e3d6000fd5b505050506040513d601f19601f82011682018060405250810190611f6e9190612e95565b50609d546040516349cf2a6160e01b81529192506001600160a01b0316906349cf2a6190611fa8908a906000906001908790600401612f4f565b608060405180830381600087803b158015611fc257600080fd5b505af1158015611fd6573d6000803e3d6000fd5b505050506040513d601f19601f82011682018060405250810190611ffa9190612eb8565b509193505050505b61200c8682612406565b9150505b949350505050565b600061179d838362ffffff16620f4240612628565b612035612b3b565b6060820151151560011461205b5760405162461bcd60e51b815260040161043990613207565b609d54602083015160405163508d501d60e01b8152600092839283928392839283926001600160a01b039092169163508d501d9161209b91600401612efc565b60206040518083038186803b1580156120b357600080fd5b505afa1580156120c7573d6000803e3d6000fd5b505050506040513d601f19601f820116820180604052508101906120eb9190612d34565b90508760400151156121e357609d54602089015160a08a015160c08b0151604051639a5f60e560e01b815260009485946001600160a01b0390911693639a5f60e5936121409360019288929091600401612f75565b6040805180830381600087803b15801561215957600080fd5b505af115801561216d573d6000803e3d6000fd5b505050506040513d601f19601f820116820180604052508101906121919190612e95565b915091506121a28a60a001516128d6565b97506121ad826126ee565b96506402540be4006121bf8484613524565b6121c9919061348d565b94506121d86119c686846135a6565b955092506123839050565b609d54602089015160a08a015160c08b0151604051639a5f60e560e01b815260009485946001600160a01b0390911693639a5f60e59361222c9387926001929091600401612f75565b6040805180830381600087803b15801561224557600080fd5b505af1158015612259573d6000803e3d6000fd5b505050506040513d601f19601f8201168201806040525081019061227d9190612e95565b9150915061228a826126ee565b97506122998a60a001516128d6565b96506402540be400838b60a001516122b19190613524565b6122bb919061348d565b94506122d5858b60a001516122d09190613447565b6128d6565b609d5460208c0151604051633ece6d0960e21b81529298506000926001600160a01b039092169163fb39b4249161230e91600401612efc565b60206040518083038186803b15801561232657600080fd5b505afa15801561233a573d6000803e3d6000fd5b505050506040513d601f19601f8201168201806040525081019061235e9190612d34565b9050670de0b6b3a76400006123738284613524565b61237d919061348d565b94505050505b6020808901516001600160a01b03166000908152609f90915260409020546123cc576123ad611beb565b6020808a01516001600160a01b03166000908152609f90915260409020555b6040518060c00160405280878152602001858152602001878152602001868152602001848152602001838152509650505050505050919050565b600080609c60009054906101000a90046001600160a01b03166001600160a01b031663cc85f5f26040518163ffffffff1660e01b815260040160206040518083038186803b15801561245757600080fd5b505afa15801561246b573d6000803e3d6000fd5b505050506040513d601f19601f8201168201806040525081019061248f9190612e72565b9050620f42408162ffffff16106124aa576000915050610886565b6001600160a01b0384166000908152609e6020526040812054906124db6124d484620f4240613420565b8390612018565b905060006124f66124ef85620f4240613582565b8490612018565b90508186111580156125085750808610155b1561251a576000945050505050610886565b5060019695505050505050565b600054610100900460ff1680612540575060005460ff16155b61255c5760405162461bcd60e51b815260040161043990613197565b600054610100900460ff16158015612587576000805460ff1961ff0019909116610100171660011790555b61258f6128ea565b80156125a1576000805461ff00191690555b50565b6000806125c5868686600001516125bb9190613543565b600160601b61271b565b90506000620151806125d783866133df565b6125e1919061345f565b9050801561200c57806125f3816135bd565b98975050505050505050565b60008082121561261f5761261a612615836129be565b6129ec565b610886565b610886826129ec565b600080806000198587098587029250828110838203039150508060001415612675576000841161266a5760405162461bcd60e51b815260040161043990612fd9565b50829004905061179d565b80841161268157600080fd5b6000848688096000868103871696879004966002600389028118808a02820302808a02820302808a02820302808a02820302808a02820302808a02909103029181900381900460010186841190950394909402919094039290920491909117919091029150509392505050565b60006001600160ff1b038211156127175760405162461bcd60e51b81526004016104399061326f565b5090565b6000806000851261272c5784612735565b612735856129be565b90506000808512612746578461274f565b61274f856129be565b9050600080871280156127625750600086135b8061277857506000871380156127785750600086125b612783576000612786565b60015b90506000612795848488612628565b9050816127aa576127a5816126ee565b6125f3565b6125f3816128d6565b600061088682600160601b670de0b6b3a7640000612628565b600080609c60009054906101000a90046001600160a01b03166001600160a01b0316636e1d2dd26040518163ffffffff1660e01b815260040160206040518083038186803b15801561281d57600080fd5b505afa158015612831573d6000803e3d6000fd5b505050506040513d601f19601f820116820180604052508101906128559190612e72565b905060006128638483612018565b90506000848611156128a05761287985876135a6565b90508181116128905761288b816126ee565b612899565b612899826126ee565b93506128cd565b6128aa86866135a6565b90508181116128c1576128bc816128d6565b6128ca565b6128ca826128d6565b93505b50505092915050565b60006128e1826126ee565b610886906135f1565b600054610100900460ff1680612903575060005460ff16155b61291f5760405162461bcd60e51b815260040161043990613197565b600054610100900460ff1615801561294a576000805460ff1961ff0019909116610100171660011790555b612952612a0e565b600061295c6117a4565b603380546001600160a01b0319166001600160a01b038316908117909155604051919250906000907f8be0079c531659141344cd1fd0a4f28419497f9722a3daafe3b4186f6b6457e0908290a35080156125a1576000805461ff001916905550565b6000600160ff1b82136129e35760405162461bcd60e51b8152600401610439906132d6565b610886826135f1565b6000808212156127175760405162461bcd60e51b815260040161043990613162565b600054610100900460ff1680612a27575060005460ff16155b612a435760405162461bcd60e51b815260040161043990613197565b600054610100900460ff16158015612a6e576000805460ff1961ff0019909116610100171660011790555b61258f600054610100900460ff1680612a8a575060005460ff16155b612aa65760405162461bcd60e51b815260040161043990613197565b600054610100900460ff1615801561258f576000805460ff1961ff00199091166101001716600117905580156125a1576000805461ff001916905550565b604051806040016040528060008152602001600081525090565b6040518060e00160405280600081526020016000815260200160008152602001600081526020016000815260200160008152602001600081525090565b6040518060c001604052806000815260200160008152602001600081526020016000815260200160008152602001600081525090565b600060208284031215612b82578081fd5b813561179d8161364d565b600060208284031215612b9e578081fd5b815161179d8161364d565b60008060408385031215612bbb578081fd5b8235612bc68161364d565b91506020830135612bd68161364d565b809150509250929050565b600080600060608486031215612bf5578081fd5b8335612c008161364d565b92506020840135612c108161364d565b91506040840135612c208161364d565b809150509250925092565b60008060008060808587031215612c40578081fd5b8435612c4b8161364d565b966020860135965060408601359560600135945092505050565b60006020808385031215612c77578182fd5b825167ffffffffffffffff80821115612c8e578384fd5b818501915085601f830112612ca1578384fd5b815181811115612cb357612cb3613637565b8381029150612cc38483016133ae565b8181528481019084860184860187018a1015612cdd578788fd5b8795505b83861015612d0b5780519450612cf68561364d565b84835260019590950194918601918601612ce1565b5098975050505050505050565b600060208284031215612d29578081fd5b815161179d81613662565b600060208284031215612d45578081fd5b5051919050565b600060808284031215612d5d578081fd5b612d6760806133ae565b8235612d728161364d565b81526020830135612d828161364d565b6020820152604083810135908201526060928301359281019290925250919050565b600060e08284031215612db5578081fd5b612dbf60e06133ae565b8235612dca8161364d565b81526020830135612dda8161364d565b60208201526040830135612ded81613662565b60408201526060830135612e0081613662565b60608201526080830135612e1381613662565b608082015260a0838101359082015260c0928301359281019290925250919050565b600060608284031215612e46578081fd5b612e5060606133ae565b8251815260208301516020820152604083015160408201528091505092915050565b600060208284031215612e83578081fd5b815162ffffff8116811461179d578182fd5b60008060408385031215612ea7578182fd5b505080516020909101519092909150565b60008060008060808587031215612ecd578182fd5b505082516020840151604085015160609095015191969095509092509050565b80518252602090810151910152565b6001600160a01b0391909116815260200190565b6001600160a01b0392831681529116602082015260400190565b6001600160a01b03848116825283166020820152608081016120106040830184612eed565b6001600160a01b0394909416845260208401929092526040830152606082015260800190565b6001600160a01b03959095168552602085019390935260408401919091526060830152608082015260a00190565b6001600160a01b03929092168252602082015260400190565b90815260200190565b8281526060810161179d6020830184612eed565b60208082526022908201527f64656e6f6d696e61746f72206d7573742062652067726561746572207468616e604082015261020360f41b606082015260800190565b602080825260069082015265534f5f434e4360d01b604082015260600190565b6020808252600790820152664d545f4c504e4360c81b604082015260600190565b6020808252600790820152664d545f504d4e4360c81b604082015260600190565b602080825260069082015265534f5f53414360d01b604082015260600190565b6020808252600890820152674d545f4f504c415360c01b604082015260600190565b6020808252600790820152660869088be9e86960cb1b604082015260600190565b6020808252600790820152664d545f42544e4560c81b604082015260600190565b602080825260069082015265534f5f53414f60d01b604082015260600190565b6020808252600790820152664d545f43484e4360c81b604082015260600190565b602080825260069082015265534f5f434e4f60d01b604082015260600190565b6020808252818101527f53616665436173743a2076616c7565206d75737420626520706f736974697665604082015260600190565b6020808252602e908201527f496e697469616c697a61626c653a20636f6e747261637420697320616c72656160408201526d191e481a5b9a5d1a585b1a5e995960921b606082015260800190565b6020808252600890820152674d545f4f504c425360c01b604082015260600190565b60208082526026908201527f657861637420696e7075742069732066616c7365207768656e2063616c6c696e60408201526506720737761760d41b606082015260800190565b6020808252600890820152674d545f414f504c4f60c01b604082015260600190565b60208082526028908201527f53616665436173743a2076616c756520646f65736e27742066697420696e2061604082015267371034b73a191a9b60c11b606082015260800190565b6020808252600590820152640534f5f43360dc1b604082015260600190565b60208082526021908201527f4661697274726164654d6174683a20696e76657273696f6e206f766572666c6f6040820152607760f81b606082015260800190565b6020808252600690820152650534f5f4e57360d41b604082015260600190565b600060e082019050825182526020830151602083015260408301516040830152606083015160608301526080830151608083015260a083015160a083015260c083015160c083015292915050565b918252602082015260400190565b93845260208401929092526040830152606082015260800190565b604051601f8201601f1916810167ffffffffffffffff811182821017156133d7576133d7613637565b604052919050565b600080821280156001600160ff1b03849003851316156134015761340161360b565b600160ff1b839003841281161561341a5761341a61360b565b50500190565b600062ffffff80831681851680830382111561343e5761343e61360b565b01949350505050565b6000821982111561345a5761345a61360b565b500190565b60008261346e5761346e613621565b600160ff1b8214600019841416156134885761348861360b565b500590565b60008261349c5761349c613621565b500490565b60006001600160ff1b03818413828413808216868404861116156134c7576134c761360b565b600160ff1b848712828116878305891216156134e5576134e561360b565b8587129250878205871284841616156135005761350061360b565b878505871281841616156135165761351661360b565b505050929093029392505050565b600081600019048311821515161561353e5761353e61360b565b500290565b60008083128015600160ff1b8501841216156135615761356161360b565b6001600160ff1b038401831381161561357c5761357c61360b565b50500390565b600062ffffff8381169083168181101561359e5761359e61360b565b039392505050565b6000828210156135b8576135b861360b565b500390565b60006001600160ff1b038214156135d6576135d661360b565b5060010190565b60006000198214156135d6576135d661360b565b6000600160ff1b8214156136075761360761360b565b0390565b634e487b7160e01b600052601160045260246000fd5b634e487b7160e01b600052601260045260246000fd5b634e487b7160e01b600052604160045260246000fd5b6001600160a01b03811681146125a157600080fd5b80151581146125a157600080fdfea26469706673582212209a20dad96ea9be272f076aadb69598beb17ad2e87391cfc2f31c3aba7ff4d4b764736f6c63430008010033",
    "linkReferences": {},
    "deployedLinkReferences": {}
}