{
    "_format": "hh-sol-artifact-1",
    "contractName": "MarketTaker",
    "sourceName": "contracts/clearinghouse/MarketTaker.sol",
    "abi": [
        {
            "anonymous": false,
            "inputs": [
                {
                    "indexed": true,
                    "internalType": "address",
                    "name": "clearingHouse",
                    "type": "address"
                }
            ],
            "name": "ClearingHouseChanged",
            "type": "event"
        },
        {
            "anonymous": false,
            "inputs": [
                {
                    "indexed": true,
                    "internalType": "address",
                    "name": "baseToken",
                    "type": "address"
                },
                {
                    "indexed": false,
                    "internalType": "uint256",
                    "name": "markTwap",
                    "type": "uint256"
                },
                {
                    "indexed": false,
                    "internalType": "uint256",
                    "name": "indexTwap",
                    "type": "uint256"
                }
            ],
            "name": "FundingUpdated",
            "type": "event"
        },
        {
            "anonymous": false,
            "inputs": [
                {
                    "indexed": true,
                    "internalType": "address",
                    "name": "previousOwner",
                    "type": "address"
                },
                {
                    "indexed": true,
                    "internalType": "address",
                    "name": "newOwner",
                    "type": "address"
                }
            ],
            "name": "OwnershipTransferred",
            "type": "event"
        },
        {
            "anonymous": false,
            "inputs": [
                {
                    "indexed": false,
                    "internalType": "address",
                    "name": "positionMgmt",
                    "type": "address"
                }
            ],
            "name": "PositionMgmtChanged",
            "type": "event"
        },
        {
            "inputs": [],
            "name": "candidate",
            "outputs": [
                {
                    "internalType": "address",
                    "name": "",
                    "type": "address"
                }
            ],
            "stateMutability": "view",
            "type": "function"
        },
        {
            "inputs": [],
            "name": "getAdminFeeReceiver",
            "outputs": [
                {
                    "internalType": "address",
                    "name": "",
                    "type": "address"
                }
            ],
            "stateMutability": "view",
            "type": "function"
        },
        {
            "inputs": [
                {
                    "internalType": "address",
                    "name": "trader",
                    "type": "address"
                }
            ],
            "name": "getAllPendingFundingPayment",
            "outputs": [
                {
                    "internalType": "int256",
                    "name": "pendingFundingPayment",
                    "type": "int256"
                }
            ],
            "stateMutability": "view",
            "type": "function"
        },
        {
            "inputs": [],
            "name": "getClearingHouse",
            "outputs": [
                {
                    "internalType": "address",
                    "name": "",
                    "type": "address"
                }
            ],
            "stateMutability": "view",
            "type": "function"
        },
        {
            "inputs": [],
            "name": "getClearingHouseConfig",
            "outputs": [
                {
                    "internalType": "address",
                    "name": "",
                    "type": "address"
                }
            ],
            "stateMutability": "view",
            "type": "function"
        },
        {
            "inputs": [],
            "name": "getLiquidityProvider",
            "outputs": [
                {
                    "internalType": "address",
                    "name": "",
                    "type": "address"
                }
            ],
            "stateMutability": "view",
            "type": "function"
        },
        {
            "inputs": [
                {
                    "internalType": "address",
                    "name": "baseToken",
                    "type": "address"
                }
            ],
            "name": "getMarkPrice",
            "outputs": [
                {
                    "internalType": "uint256",
                    "name": "",
                    "type": "uint256"
                }
            ],
            "stateMutability": "view",
            "type": "function"
        },
        {
            "inputs": [
                {
                    "internalType": "address",
                    "name": "trader",
                    "type": "address"
                },
                {
                    "internalType": "address",
                    "name": "baseToken",
                    "type": "address"
                }
            ],
            "name": "getPendingFundingPayment",
            "outputs": [
                {
                    "internalType": "int256",
                    "name": "",
                    "type": "int256"
                }
            ],
            "stateMutability": "view",
            "type": "function"
        },
        {
            "inputs": [
                {
                    "components": [
                        {
                            "internalType": "address",
                            "name": "trader",
                            "type": "address"
                        },
                        {
                            "internalType": "address",
                            "name": "baseToken",
                            "type": "address"
                        },
                        {
                            "internalType": "int256",
                            "name": "base",
                            "type": "int256"
                        },
                        {
                            "internalType": "int256",
                            "name": "quote",
                            "type": "int256"
                        }
                    ],
                    "internalType": "struct IMarketTaker.RealizePnlParams",
                    "name": "params",
                    "type": "tuple"
                }
            ],
            "name": "getPnlToBeRealized",
            "outputs": [
                {
                    "internalType": "int256",
                    "name": "",
                    "type": "int256"
                }
            ],
            "stateMutability": "view",
            "type": "function"
        },
        {
            "inputs": [
                {
                    "internalType": "address",
                    "name": "baseToken",
                    "type": "address"
                }
            ],
            "name": "getPool",
            "outputs": [
                {
                    "internalType": "address",
                    "name": "",
                    "type": "address"
                }
            ],
            "stateMutability": "view",
            "type": "function"
        },
        {
            "inputs": [],
            "name": "getPositionMgmt",
            "outputs": [
                {
                    "internalType": "address",
                    "name": "",
                    "type": "address"
                }
            ],
            "stateMutability": "view",
            "type": "function"
        },
        {
            "inputs": [
                {
                    "internalType": "address",
                    "name": "baseToken",
                    "type": "address"
                },
                {
                    "internalType": "uint32",
                    "name": "twapInterval",
                    "type": "uint32"
                }
            ],
            "name": "getTwapMarkPrice",
            "outputs": [
                {
                    "internalType": "uint256",
                    "name": "",
                    "type": "uint256"
                }
            ],
            "stateMutability": "view",
            "type": "function"
        },
        {
            "inputs": [
                {
                    "internalType": "address",
                    "name": "ammCurveArg",
                    "type": "address"
                },
                {
                    "internalType": "address",
                    "name": "liquidityProviderArg",
                    "type": "address"
                },
                {
                    "internalType": "address",
                    "name": "clearingHouseConfigArg",
                    "type": "address"
                }
            ],
            "name": "initialize",
            "outputs": [],
            "stateMutability": "nonpayable",
            "type": "function"
        },
        {
            "inputs": [],
            "name": "owner",
            "outputs": [
                {
                    "internalType": "address",
                    "name": "",
                    "type": "address"
                }
            ],
            "stateMutability": "view",
            "type": "function"
        },
        {
            "inputs": [],
            "name": "renounceOwnership",
            "outputs": [],
            "stateMutability": "nonpayable",
            "type": "function"
        },
        {
            "inputs": [
                {
                    "internalType": "address",
                    "name": "clearingHouseArg",
                    "type": "address"
                }
            ],
            "name": "setClearingHouse",
            "outputs": [],
            "stateMutability": "nonpayable",
            "type": "function"
        },
        {
            "inputs": [
                {
                    "internalType": "address",
                    "name": "newOwner",
                    "type": "address"
                }
            ],
            "name": "setOwner",
            "outputs": [],
            "stateMutability": "nonpayable",
            "type": "function"
        },
        {
            "inputs": [
                {
                    "internalType": "address",
                    "name": "positionMgmtArg",
                    "type": "address"
                }
            ],
            "name": "setPositionMgmt",
            "outputs": [],
            "stateMutability": "nonpayable",
            "type": "function"
        },
        {
            "inputs": [
                {
                    "internalType": "address",
                    "name": "trader",
                    "type": "address"
                },
                {
                    "internalType": "address",
                    "name": "baseToken",
                    "type": "address"
                }
            ],
            "name": "settleFunding",
            "outputs": [
                {
                    "internalType": "int256",
                    "name": "fundingPayment",
                    "type": "int256"
                },
                {
                    "components": [
                        {
                            "internalType": "int256",
                            "name": "twPremium",
                            "type": "int256"
                        },
                        {
                            "internalType": "int256",
                            "name": "twPremiumWithLiquidity",
                            "type": "int256"
                        }
                    ],
                    "internalType": "struct Funding.Growth",
                    "name": "fundingGrowthGlobal",
                    "type": "tuple"
                }
            ],
            "stateMutability": "nonpayable",
            "type": "function"
        },
        {
            "inputs": [
                {
                    "internalType": "address",
                    "name": "baseToken",
                    "type": "address"
                },
                {
                    "internalType": "uint256",
                    "name": "i",
                    "type": "uint256"
                },
                {
                    "internalType": "uint256",
                    "name": "j",
                    "type": "uint256"
                },
                {
                    "internalType": "uint256",
                    "name": "dx",
                    "type": "uint256"
                }
            ],
            "name": "simulatedSwap",
            "outputs": [
                {
                    "internalType": "uint256",
                    "name": "priceAfter",
                    "type": "uint256"
                },
                {
                    "internalType": "uint256",
                    "name": "amount0",
                    "type": "uint256"
                },
                {
                    "internalType": "uint256",
                    "name": "amount1",
                    "type": "uint256"
                }
            ],
            "stateMutability": "nonpayable",
            "type": "function"
        },
        {
            "inputs": [
                {
                    "components": [
                        {
                            "internalType": "address",
                            "name": "trader",
                            "type": "address"
                        },
                        {
                            "internalType": "address",
                            "name": "baseToken",
                            "type": "address"
                        },
                        {
                            "internalType": "bool",
                            "name": "baseToQuote",
                            "type": "bool"
                        },
                        {
                            "internalType": "bool",
                            "name": "exactInput",
                            "type": "bool"
                        },
                        {
                            "internalType": "bool",
                            "name": "isClose",
                            "type": "bool"
                        },
                        {
                            "internalType": "uint256",
                            "name": "amount",
                            "type": "uint256"
                        },
                        {
                            "internalType": "uint256",
                            "name": "amountLimit",
                            "type": "uint256"
                        }
                    ],
                    "internalType": "struct IMarketTaker.SwapParams",
                    "name": "params",
                    "type": "tuple"
                }
            ],
            "name": "swap",
            "outputs": [
                {
                    "components": [
                        {
                            "internalType": "int256",
                            "name": "base",
                            "type": "int256"
                        },
                        {
                            "internalType": "int256",
                            "name": "quote",
                            "type": "int256"
                        },
                        {
                            "internalType": "int256",
                            "name": "exchangedPositionSize",
                            "type": "int256"
                        },
                        {
                            "internalType": "int256",
                            "name": "exchangedPositionNotional",
                            "type": "int256"
                        },
                        {
                            "internalType": "int256",
                            "name": "pnlToBeRealized",
                            "type": "int256"
                        },
                        {
                            "internalType": "uint256",
                            "name": "adminFee",
                            "type": "uint256"
                        },
                        {
                            "internalType": "uint256",
                            "name": "exchangeFee",
                            "type": "uint256"
                        }
                    ],
                    "internalType": "struct IMarketTaker.SwapResponse",
                    "name": "",
                    "type": "tuple"
                }
            ],
            "stateMutability": "nonpayable",
            "type": "function"
        },
        {
            "inputs": [],
            "name": "updateOwner",
            "outputs": [],
            "stateMutability": "nonpayable",
            "type": "function"
        }
    ],
    "bytecode": "0x608060405234801561001057600080fd5b5061374c806100206000396000f3fe608060405234801561001057600080fd5b50600436106101425760003560e01c806380f57f11116100b8578063bbe4f6db1161007c578063bbe4f6db14610284578063bc5920ba14610297578063c0c53b8b1461029f578063c575ff79146102b2578063cb379aa2146102ba578063e2a72cce146102cd57610142565b806380f57f11146102395780638da5cb5b1461024c5780638e8499ba146102545780639a89ac441461025c578063aa2a82941461027c57610142565b80635c73ee961161010a5780635c73ee96146101db5780635d6f9c14146101ee5780636c8381f814610201578063715018a614610216578063803841b71461021e578063804a23401461022657610142565b80631393a4691461014757806313af4035146101705780631e81ac3314610185578063449323d8146101a657806349cf2a61146101b9575b600080fd5b61015a610155366004612d5b565b6102d5565b6040516101679190612ffe565b60405180910390f35b61018361017e366004612b53565b6103fb565b005b610198610193366004612b8b565b6104e7565b604051610167929190613007565b6101836101b4366004612b53565b610806565b6101cc6101c7366004612c0d565b61088f565b6040516101679392919061341b565b6101836101e9366004612b53565b610934565b61015a6101fc366004612b53565b6109f7565b610209610a7e565b6040516101679190612f1f565b610183610a8d565b610209610b22565b61015a610234366004612c47565b610ba4565b61015a610247366004612b53565b610c2e565b610209610d1e565b610209610d2d565b61026f61026a366004612db3565b610d3c565b60405161016791906133bf565b6102096112f9565b610209610292366004612b53565b611308565b610183611389565b6101836102ad366004612bc3565b61144c565b610209611571565b61015a6102c8366004612b8b565b611580565b610209611737565b609b54815160208301516040516331997f7b60e11b815260009384936001600160a01b0390911692636332fef692610311929190600401612f33565b60606040518083038186803b15801561032957600080fd5b505afa15801561033d573d6000803e3d6000fd5b505050506040513d601f19601f820116820180604052508101906103619190612e44565b60208101518151919250906000811561038757604086015160008084129112141561038a565b60005b9050806103985760006103ef565b6103ef6040518060c0016040528088600001516001600160a01b0316815260200188602001516001600160a01b03168152602001848152602001858152602001886040015181526020018860600151815250611746565b9450505050505b919050565b6104036117f0565b6001600160a01b0316610414610d1e565b6001600160a01b0316146104435760405162461bcd60e51b815260040161043a90613184565b60405180910390fd5b6001600160a01b0381166104695760405162461bcd60e51b815260040161043a9061339f565b6033546001600160a01b03828116911614156104975760405162461bcd60e51b815260040161043a90613143565b6034546001600160a01b03828116911614156104c55760405162461bcd60e51b815260040161043a906130bf565b603480546001600160a01b0319166001600160a01b0392909216919091179055565b60006104f1612ac6565b6104f96117f4565b609d54604051631246dbf560e01b81526001600160a01b0390911690631246dbf590610529908690600401612f1f565b60206040518083038186803b15801561054157600080fd5b505afa158015610555573d6000803e3d6000fd5b505050506040513d601f19601f820116820180604052508101906105799190612d27565b6105955760405162461bcd60e51b815260040161043a90613122565b6000806105a185611830565b609b546040516359deb70960e11b815293965091945092506106bf91889188916001600160a01b039091169063b3bd6e12906105e39085908590600401612f33565b60206040518083038186803b1580156105fb57600080fd5b505afa15801561060f573d6000803e3d6000fd5b505050506040513d601f19601f820116820180604052508101906106339190612d43565b609b546040516331997f7b60e11b81526001600160a01b0390911690636332fef690610665908d908d90600401612f33565b60606040518083038186803b15801561067d57600080fd5b505afa158015610691573d6000803e3d6000fd5b505050506040513d601f19601f820116820180604052508101906106b59190612e44565b6040015187611baf565b935060006106cb611c53565b6001600160a01b038716600090815260a0602052604090205490915081146107fc576001600160a01b038616600081815260a16020908152604080832088518984015160a090945293829020600182019390935592835590849055519091907f54e4482fe1d38392effe5d53f0e9e72f60221a75a10cea7abbb684bfb03519bf90610759908790879061340d565b60405180910390a2609d54604051633ece6d0960e21b81526001600160a01b039091169063fb39b42490610791908a90600401612f1f565b60206040518083038186803b1580156107a957600080fd5b505afa1580156107bd573d6000803e3d6000fd5b505050506040513d601f19601f820116820180604052508101906107e19190612d43565b6001600160a01b0388166000908152609e6020526040902055505b5050509250929050565b61080e6117f0565b6001600160a01b031661081f610d1e565b6001600160a01b0316146108455760405162461bcd60e51b815260040161043a90613184565b606780546001600160a01b0319166001600160a01b0383169081179091556040517fd0654f5900f9e7e4e605a19334306e6a2786bbf960ac0484a4c12feb6428fe2f90600090a250565b600080600061089c6117f4565b609d546040516349cf2a6160e01b81526001600160a01b03909116906349cf2a61906108d2908a908a908a908a90600401612f72565b606060405180830381600087803b1580156108ec57600080fd5b505af1158015610900573d6000803e3d6000fd5b505050506040513d601f19601f820116820180604052508101906109249190612ec7565b9250925092509450945094915050565b61093c6117f0565b6001600160a01b031661094d610d1e565b6001600160a01b0316146109735760405162461bcd60e51b815260040161043a90613184565b610985816001600160a01b0316611c57565b6109a15760405162461bcd60e51b815260040161043a9061309e565b609b80546001600160a01b0319166001600160a01b0383161790556040517f3e3f79f86c3f9ba9db57a8a54d0b8aeafca3285e5dfaeeb1da21dba8d5af4129906109ec908390612f1f565b60405180910390a150565b609d54604051633ece6d0960e21b81526000916001600160a01b03169063fb39b42490610a28908590600401612f1f565b60206040518083038186803b158015610a4057600080fd5b505afa158015610a54573d6000803e3d6000fd5b505050506040513d601f19601f82011682018060405250810190610a789190612d43565b92915050565b6034546001600160a01b031690565b610a956117f0565b6001600160a01b0316610aa6610d1e565b6001600160a01b031614610acc5760405162461bcd60e51b815260040161043a90613184565b6033546040516000916001600160a01b0316907f8be0079c531659141344cd1fd0a4f28419497f9722a3daafe3b4186f6b6457e0908390a3603380546001600160a01b0319908116909155603480549091169055565b609d546040805163803841b760e01b815290516000926001600160a01b03169163803841b7916004808301926020929190829003018186803b158015610b6757600080fd5b505afa158015610b7b573d6000803e3d6000fd5b505050506040513d601f19601f82011682018060405250810190610b9f9190612b6f565b905090565b609d5460405163235679a160e01b81526000916001600160a01b03169063235679a190610bd79086908690600401612fdf565b60206040518083038186803b158015610bef57600080fd5b505afa158015610c03573d6000803e3d6000fd5b505050506040513d601f19601f82011682018060405250810190610c279190612d43565b9392505050565b609b546040516357ba739b60e11b815260009182916001600160a01b039091169063af74e73690610c63908690600401612f1f565b60006040518083038186803b158015610c7b57600080fd5b505afa158015610c8f573d6000803e3d6000fd5b505050506040513d6000823e601f3d908101601f19168201604052610cb79190810190612c74565b805190915060005b81811015610d1657610cf885848381518110610ceb57634e487b7160e01b600052603260045260246000fd5b6020026020010151611580565b610d029085613473565b935080610d0e81613671565b915050610cbf565b505050919050565b6033546001600160a01b031690565b609b546001600160a01b031690565b610d44612ae0565b610d4c6117f4565b609b548251602084015160405163165c4e2960e31b81526000936001600160a01b03169263b2e2714892610d8292600401612f33565b60206040518083038186803b158015610d9a57600080fd5b505afa158015610dae573d6000803e3d6000fd5b505050506040513d601f19601f82011682018060405250810190610dd29190612d43565b90506000610de38460200151611c5d565b905083608001518015610df557508115155b156110b0578080610e1d5750610e1d84602001518560a0015186604001518760600151611cee565b15610f46576000610e2c611c53565b85516001600160a01b03908116600090815260a260209081526040808320828b015190941683529290522054909150811415610e7a5760405162461bcd60e51b815260040161043a9061328f565b84516001600160a01b03908116600090815260a260209081526040808320828a0151851684528252808320859055609c548151633a14199b60e11b8152915193941692637428333692600480840193919291829003018186803b158015610ee057600080fd5b505afa158015610ef4573d6000803e3d6000fd5b505050506040513d601f19601f82011682018060405250810190610f189190612e81565b60a0870151909150610f2a908261207c565b60a087015260c0860151610f3e908261207c565b60c087015250505b8360600151158015610f5a57508360400151155b156110ab57609d54602085015160a0860151604051631990812560e31b81526001600160a01b039093169263cc84092892610f9f929091600091600191600401612f72565b604080518083038186803b158015610fb657600080fd5b505afa158015610fca573d6000803e3d6000fd5b505050506040513d601f19601f82011682018060405250810190610fee9190612ea4565b5060a08501819052609d5460208601516040516373b53e9360e01b81526000936001600160a01b03909316926373b53e9392611034929091869160019190600401612f72565b604080518083038186803b15801561104b57600080fd5b505afa15801561105f573d6000803e3d6000fd5b505050506040513d601f19601f820116820180604052508101906110839190612ea4565b50905060646110938260636135b8565b61109d9190613521565b60c086015250600160608501525b6110ce565b80156110ce5760405162461bcd60e51b815260040161043a90613227565b609b548451602086015160405163d50d01b760e01b81526000936001600160a01b03169263d50d01b79261110492600401612f33565b60206040518083038186803b15801561111c57600080fd5b505afa158015611130573d6000803e3d6000fd5b505050506040513d601f19601f820116820180604052508101906111549190612d43565b9050600061116186612091565b9050856080015161122057609d546020870151604051633ece6d0960e21b81526000926001600160a01b03169163fb39b424916111a19190600401612f1f565b60206040518083038186803b1580156111b957600080fd5b505afa1580156111cd573d6000803e3d6000fd5b505050506040513d601f19601f820116820180604052508101906111f19190612d43565b90506112018760200151826123c2565b1561121e5760405162461bcd60e51b815260040161043a906130df565b505b6000841561123a576040870151151560008612141561123d565b60005b9050600081156112a15761129e6040518060c001604052808a600001516001600160a01b031681526020018a602001516001600160a01b03168152602001888152602001868152602001856000015181526020018560200151815250611746565b90505b6040518060e0016040528084600001518152602001846020015181526020018460400151815260200184606001518152602001828152602001846080015181526020018460a001518152509650505050505050919050565b609c546001600160a01b031690565b609d5460405163bbe4f6db60e01b81526000916001600160a01b03169063bbe4f6db90611339908590600401612f1f565b60206040518083038186803b15801561135157600080fd5b505afa158015611365573d6000803e3d6000fd5b505050506040513d601f19601f82011682018060405250810190610a789190612b6f565b6034546001600160a01b03166113b15760405162461bcd60e51b815260040161043a9061333f565b6113b96117f0565b6034546001600160a01b039081169116146113e65760405162461bcd60e51b815260040161043a9061305d565b6034546033546040516001600160a01b0392831692909116907f8be0079c531659141344cd1fd0a4f28419497f9722a3daafe3b4186f6b6457e090600090a360348054603380546001600160a01b03199081166001600160a01b03841617909155169055565b600054610100900460ff1680611465575060005460ff16155b6114815760405162461bcd60e51b815260040161043a906131d9565b600054610100900460ff161580156114ac576000805460ff1961ff0019909116610100171660011790555b6114b46124e3565b609d80546001600160a01b0319166001600160a01b03868116919091179091556114df908416611c57565b6114fb5760405162461bcd60e51b815260040161043a9061307d565b61150d826001600160a01b0316611c57565b6115295760405162461bcd60e51b815260040161043a90613163565b609a80546001600160a01b038086166001600160a01b031992831617909255609c805492851692909116919091179055801561156b576000805461ff00191690555b50505050565b6067546001600160a01b031690565b60008061158c83611830565b5050609a5460405163ec32c8e360e01b81529192506000916001600160a01b039091169063ec32c8e3906115c890889088908790600401612f4d565b60206040518083038186803b1580156115e057600080fd5b505afa1580156115f4573d6000803e3d6000fd5b505050506040513d601f19601f820116820180604052508101906116189190612d43565b609b546040516359deb70960e11b815291925061172e916001600160a01b039091169063b3bd6e12906116519089908990600401612f33565b60206040518083038186803b15801561166957600080fd5b505afa15801561167d573d6000803e3d6000fd5b505050506040513d601f19601f820116820180604052508101906116a19190612d43565b609b546040516331997f7b60e11b81526001600160a01b0390911690636332fef6906116d3908a908a90600401612f33565b60606040518083038186803b1580156116eb57600080fd5b505afa1580156116ff573d6000803e3d6000fd5b505050506040513d601f19601f820116820180604052508101906117239190612e44565b604001518484612560565b95945050505050565b609a546001600160a01b031690565b60008061177461175984608001516125bb565b670de0b6b3a764000061176f86604001516125bb565b6125e4565b90506000670de0b6b3a764000082116117c35760006117a9611795846126aa565b606087015190670de0b6b3a76400006126d7565b9050808560a001516117bb9190613473565b915050610c27565b60a08401516000906117de90670de0b6b3a7640000856126d7565b905080856060015161172e9190613473565b3390565b6067546001600160a01b03166118086117f0565b6001600160a01b03161461182e5760405162461bcd60e51b815260040161043a90613101565b565b611838612ac6565b600080600080611846611c53565b6001600160a01b0387166000908152609f60205260409020549091501561193e57609c60009054906101000a90046001600160a01b03166001600160a01b0316633e742e3b6040518163ffffffff1660e01b815260040160206040518083038186803b1580156118b557600080fd5b505afa1580156118c9573d6000803e3d6000fd5b505050506040513d601f19601f820116820180604052508101906118ed9190612ef4565b6001600160a01b0387166000908152609f60205260408120549193509061191d90611918908461363a565b61276f565b90508063ffffffff168363ffffffff1611611938578261193a565b805b9250505b6119488683610ba4565b604051631208064760e01b81529094506001600160a01b03871690631208064790611977908590600401613431565b60206040518083038186803b15801561198f57600080fd5b505afa1580156119a3573d6000803e3d6000fd5b505050506040513d601f19601f820116820180604052508101906119c79190612d43565b6001600160a01b038716600090815260a0602090815260408083205460a190925290912091945090828214806119fb575081155b15611a1f576040805180820190915281548152600182015460208201529650611ba4565b6000611a33611a2e848661363a565b6126aa565b611a4d611a3f89612795565b611a4889612795565b6127ae565b611a579190613535565b8254909150611a67908290613473565b8852609d54604051639de8ef7960e01b81526000916001600160a01b031690639de8ef7990611a9a908d90600401612f1f565b60206040518083038186803b158015611ab257600080fd5b505afa158015611ac6573d6000803e3d6000fd5b505050506040513d601f19601f82011682018060405250810190611aea9190612d43565b90508015611ba157609d54604051630ffb93f960e31b81526000916001600160a01b031690637fdc9fc890611b26908e90600190600401612fc6565b60206040518083038186803b158015611b3e57600080fd5b505afa158015611b52573d6000803e3d6000fd5b505050506040513d601f19601f82011682018060405250810190611b769190612d43565b9050611b8b611b84826126aa565b84846126d7565b8460010154611b9a9190613473565b60208b0152505b50505b505050509193909250565b609a54604051634196321f60e11b815260009182916001600160a01b039091169063832c643e90611be8908a908a908890600401612f4d565b602060405180830381600087803b158015611c0257600080fd5b505af1158015611c16573d6000803e3d6000fd5b505050506040513d601f19601f82011682018060405250810190611c3a9190612d43565b9050611c4885858584612560565b979650505050505050565b4290565b3b151590565b609d54604051633ece6d0960e21b815260009182916001600160a01b039091169063fb39b42490611c92908690600401612f1f565b60206040518083038186803b158015611caa57600080fd5b505afa158015611cbe573d6000803e3d6000fd5b505050506040513d601f19601f82011682018060405250810190611ce29190612d43565b9050610c2783826123c2565b6000808215611e27578315611d9257609d546040516349cf2a6160e01b81526001600160a01b03909116906349cf2a6190611d359089906001906000908b90600401612f72565b606060405180830381600087803b158015611d4f57600080fd5b505af1158015611d63573d6000803e3d6000fd5b505050506040513d601f19601f82011682018060405250810190611d879190612ec7565b50909150611e229050565b609d546040516349cf2a6160e01b81526001600160a01b03909116906349cf2a6190611dca9089906000906001908b90600401612f72565b606060405180830381600087803b158015611de457600080fd5b505af1158015611df8573d6000803e3d6000fd5b505050506040513d601f19601f82011682018060405250810190611e1c9190612ec7565b50909150505b612066565b8315611f4c57609d54604051631990812560e31b81526000916001600160a01b03169063cc84092890611e65908a9060019086908c90600401612f72565b604080518083038186803b158015611e7c57600080fd5b505afa158015611e90573d6000803e3d6000fd5b505050506040513d601f19601f82011682018060405250810190611eb49190612ea4565b50609d546040516349cf2a6160e01b81529192506001600160a01b0316906349cf2a6190611eee908a906001906000908790600401612f72565b606060405180830381600087803b158015611f0857600080fd5b505af1158015611f1c573d6000803e3d6000fd5b505050506040513d601f19601f82011682018060405250810190611f409190612ec7565b50909250612066915050565b609d54604051631990812560e31b81526000916001600160a01b03169063cc84092890611f84908a9085906001908c90600401612f72565b604080518083038186803b158015611f9b57600080fd5b505afa158015611faf573d6000803e3d6000fd5b505050506040513d601f19601f82011682018060405250810190611fd39190612ea4565b50609d546040516349cf2a6160e01b81529192506001600160a01b0316906349cf2a619061200d908a906000906001908790600401612f72565b606060405180830381600087803b15801561202757600080fd5b505af115801561203b573d6000803e3d6000fd5b505050506040513d601f19601f8201168201806040525081019061205f9190612ec7565b5090925050505b61207086826123c2565b9150505b949350505050565b6000610c27838362ffffff16620f42406125e4565b612099612b1d565b606082015115156001146120bf5760405162461bcd60e51b815260040161043a90613249565b609d54602083015160405163508d501d60e01b8152600092839283928392839283926001600160a01b039092169163508d501d916120ff91600401612f1f565b60206040518083038186803b15801561211757600080fd5b505afa15801561212b573d6000803e3d6000fd5b505050506040513d601f19601f8201168201806040525081019061214f9190612d43565b905087604001511561224757609d54602089015160a08a015160c08b0151604051639a5f60e560e01b815260009485946001600160a01b0390911693639a5f60e5936121a49360019288929091600401612f98565b6040805180830381600087803b1580156121bd57600080fd5b505af11580156121d1573d6000803e3d6000fd5b505050506040513d601f19601f820116820180604052508101906121f59190612ea4565b915091506122068a60a001516128b8565b9750612211826126aa565b96506402540be40061222384846135b8565b61222d9190613521565b945061223c611a2e868461363a565b9550925061233f9050565b609d54602089015160a08a015160c08b0151604051639a5f60e560e01b815260009485946001600160a01b0390911693639a5f60e5936122909387926001929091600401612f98565b6040805180830381600087803b1580156122a957600080fd5b505af11580156122bd573d6000803e3d6000fd5b505050506040513d601f19601f820116820180604052508101906122e19190612ea4565b915091506122ee826126aa565b97506122fd8a60a001516128b8565b96506402540be400838b60a0015161231591906135b8565b61231f9190613521565b9450612339858b60a0015161233491906134db565b6128b8565b95509250505b6020808901516001600160a01b03166000908152609f909152604090205461238857612369611c53565b6020808a01516001600160a01b03166000908152609f90915260409020555b6040518060c00160405280878152602001858152602001878152602001868152602001848152602001838152509650505050505050919050565b600080609c60009054906101000a90046001600160a01b03166001600160a01b031663cc85f5f26040518163ffffffff1660e01b815260040160206040518083038186803b15801561241357600080fd5b505afa158015612427573d6000803e3d6000fd5b505050506040513d601f19601f8201168201806040525081019061244b9190612e81565b9050620f42408162ffffff1610612466576000915050610a78565b6001600160a01b0384166000908152609e60205260408120549061249761249084620f42406134b4565b839061207c565b905060006124b26124ab85620f4240613616565b849061207c565b90508186111580156124c45750808610155b156124d6576000945050505050610a78565b5060019695505050505050565b600054610100900460ff16806124fc575060005460ff16155b6125185760405162461bcd60e51b815260040161043a906131d9565b600054610100900460ff16158015612543576000805460ff1961ff0019909116610100171660011790555b61254b6128cc565b801561255d576000805461ff00191690555b50565b6000806125818686866000015161257791906135d7565b600160601b6126d7565b90506000620151806125938386613473565b61259d91906134f3565b9050801561207057806125af81613651565b98975050505050505050565b6000808212156125db576125d66125d1836129a0565b6129ce565b610a78565b610a78826129ce565b60008080600019858709858702925082811083820303915050806000141561263157600084116126265760405162461bcd60e51b815260040161043a9061301b565b508290049050610c27565b80841161263d57600080fd5b6000848688096000868103871696879004966002600389028118808a02820302808a02820302808a02820302808a02820302808a02820302808a02909103029181900381900460010186841190950394909402919094039290920491909117919091029150509392505050565b60006001600160ff1b038211156126d35760405162461bcd60e51b815260040161043a906132f7565b5090565b600080600085126126e857846126f1565b6126f1856129a0565b90506000808512612702578461270b565b61270b856129a0565b90506000808712801561271e5750600086135b8061273457506000871380156127345750600086125b61273f576000612742565b60015b905060006127518484886125e4565b90508161276657612761816126aa565b6125af565b6125af816128b8565b8063ffffffff811681146103f65760405162461bcd60e51b815260040161043a906132b1565b6000610a7882600160601b670de0b6b3a76400006125e4565b600080609c60009054906101000a90046001600160a01b03166001600160a01b0316636e1d2dd26040518163ffffffff1660e01b815260040160206040518083038186803b1580156127ff57600080fd5b505afa158015612813573d6000803e3d6000fd5b505050506040513d601f19601f820116820180604052508101906128379190612e81565b90506000612845848361207c565b90506000848611156128825761285b858761363a565b90508181116128725761286d816126aa565b61287b565b61287b826126aa565b93506128af565b61288c868661363a565b90508181116128a35761289e816128b8565b6128ac565b6128ac826128b8565b93505b50505092915050565b60006128c3826126aa565b610a7890613685565b600054610100900460ff16806128e5575060005460ff16155b6129015760405162461bcd60e51b815260040161043a906131d9565b600054610100900460ff1615801561292c576000805460ff1961ff0019909116610100171660011790555b6129346129f0565b600061293e6117f0565b603380546001600160a01b0319166001600160a01b038316908117909155604051919250906000907f8be0079c531659141344cd1fd0a4f28419497f9722a3daafe3b4186f6b6457e0908290a350801561255d576000805461ff001916905550565b6000600160ff1b82136129c55760405162461bcd60e51b815260040161043a9061335e565b610a7882613685565b6000808212156126d35760405162461bcd60e51b815260040161043a906131a4565b600054610100900460ff1680612a09575060005460ff16155b612a255760405162461bcd60e51b815260040161043a906131d9565b600054610100900460ff16158015612a50576000805460ff1961ff0019909116610100171660011790555b61254b600054610100900460ff1680612a6c575060005460ff16155b612a885760405162461bcd60e51b815260040161043a906131d9565b600054610100900460ff1615801561254b576000805460ff1961ff001990911661010017166001179055801561255d576000805461ff001916905550565b604051806040016040528060008152602001600081525090565b6040518060e00160405280600081526020016000815260200160008152602001600081526020016000815260200160008152602001600081525090565b6040518060c001604052806000815260200160008152602001600081526020016000815260200160008152602001600081525090565b600060208284031215612b64578081fd5b8135610c27816136e1565b600060208284031215612b80578081fd5b8151610c27816136e1565b60008060408385031215612b9d578081fd5b8235612ba8816136e1565b91506020830135612bb8816136e1565b809150509250929050565b600080600060608486031215612bd7578081fd5b8335612be2816136e1565b92506020840135612bf2816136e1565b91506040840135612c02816136e1565b809150509250925092565b60008060008060808587031215612c22578081fd5b8435612c2d816136e1565b966020860135965060408601359560600135945092505050565b60008060408385031215612c59578182fd5b8235612c64816136e1565b91506020830135612bb881613704565b60006020808385031215612c86578182fd5b825167ffffffffffffffff80821115612c9d578384fd5b818501915085601f830112612cb0578384fd5b815181811115612cc257612cc26136cb565b8381029150612cd2848301613442565b8181528481019084860184860187018a1015612cec578788fd5b8795505b83861015612d1a5780519450612d05856136e1565b84835260019590950194918601918601612cf0565b5098975050505050505050565b600060208284031215612d38578081fd5b8151610c27816136f6565b600060208284031215612d54578081fd5b5051919050565b600060808284031215612d6c578081fd5b612d766080613442565b8235612d81816136e1565b81526020830135612d91816136e1565b6020820152604083810135908201526060928301359281019290925250919050565b600060e08284031215612dc4578081fd5b612dce60e0613442565b8235612dd9816136e1565b81526020830135612de9816136e1565b60208201526040830135612dfc816136f6565b60408201526060830135612e0f816136f6565b60608201526080830135612e22816136f6565b608082015260a0838101359082015260c0928301359281019290925250919050565b600060608284031215612e55578081fd5b612e5f6060613442565b8251815260208301516020820152604083015160408201528091505092915050565b600060208284031215612e92578081fd5b815162ffffff81168114610c27578182fd5b60008060408385031215612eb6578182fd5b505080516020909101519092909150565b600080600060608486031215612edb578081fd5b8351925060208401519150604084015190509250925092565b600060208284031215612f05578081fd5b8151610c2781613704565b80518252602090810151910152565b6001600160a01b0391909116815260200190565b6001600160a01b0392831681529116602082015260400190565b6001600160a01b03848116825283166020820152608081016120746040830184612f10565b6001600160a01b0394909416845260208401929092526040830152606082015260800190565b6001600160a01b03959095168552602085019390935260408401919091526060830152608082015260a00190565b6001600160a01b03929092168252602082015260400190565b6001600160a01b0392909216825263ffffffff16602082015260400190565b90815260200190565b82815260608101610c276020830184612f10565b60208082526022908201527f64656e6f6d696e61746f72206d7573742062652067726561746572207468616e604082015261020360f41b606082015260800190565b602080825260069082015265534f5f434e4360d01b604082015260600190565b6020808252600790820152664d545f4c504e4360c81b604082015260600190565b6020808252600790820152664d545f504d4e4360c81b604082015260600190565b602080825260069082015265534f5f53414360d01b604082015260600190565b6020808252600890820152674d545f4f504c415360c01b604082015260600190565b6020808252600790820152660869088be9e86960cb1b604082015260600190565b6020808252600790820152664d545f42544e4560c81b604082015260600190565b602080825260069082015265534f5f53414f60d01b604082015260600190565b6020808252600790820152664d545f43484e4360c81b604082015260600190565b602080825260069082015265534f5f434e4f60d01b604082015260600190565b6020808252818101527f53616665436173743a2076616c7565206d75737420626520706f736974697665604082015260600190565b6020808252602e908201527f496e697469616c697a61626c653a20636f6e747261637420697320616c72656160408201526d191e481a5b9a5d1a585b1a5e995960921b606082015260800190565b6020808252600890820152674d545f4f504c425360c01b604082015260600190565b60208082526026908201527f657861637420696e7075742069732066616c7365207768656e2063616c6c696e60408201526506720737761760d41b606082015260800190565b6020808252600890820152674d545f414f504c4f60c01b604082015260600190565b60208082526026908201527f53616665436173743a2076616c756520646f65736e27742066697420696e203360408201526532206269747360d01b606082015260800190565b60208082526028908201527f53616665436173743a2076616c756520646f65736e27742066697420696e2061604082015267371034b73a191a9b60c11b606082015260800190565b6020808252600590820152640534f5f43360dc1b604082015260600190565b60208082526021908201527f4661697274726164654d6174683a20696e76657273696f6e206f766572666c6f6040820152607760f81b606082015260800190565b6020808252600690820152650534f5f4e57360d41b604082015260600190565b600060e082019050825182526020830151602083015260408301516040830152606083015160608301526080830151608083015260a083015160a083015260c083015160c083015292915050565b918252602082015260400190565b9283526020830191909152604082015260600190565b63ffffffff91909116815260200190565b604051601f8201601f1916810167ffffffffffffffff8111828210171561346b5761346b6136cb565b604052919050565b600080821280156001600160ff1b03849003851316156134955761349561369f565b600160ff1b83900384128116156134ae576134ae61369f565b50500190565b600062ffffff8083168185168083038211156134d2576134d261369f565b01949350505050565b600082198211156134ee576134ee61369f565b500190565b600082613502576135026136b5565b600160ff1b82146000198414161561351c5761351c61369f565b500590565b600082613530576135306136b5565b500490565b60006001600160ff1b038184138284138082168684048611161561355b5761355b61369f565b600160ff1b848712828116878305891216156135795761357961369f565b8587129250878205871284841616156135945761359461369f565b878505871281841616156135aa576135aa61369f565b505050929093029392505050565b60008160001904831182151516156135d2576135d261369f565b500290565b60008083128015600160ff1b8501841216156135f5576135f561369f565b6001600160ff1b03840183138116156136105761361061369f565b50500390565b600062ffffff838116908316818110156136325761363261369f565b039392505050565b60008282101561364c5761364c61369f565b500390565b60006001600160ff1b0382141561366a5761366a61369f565b5060010190565b600060001982141561366a5761366a61369f565b6000600160ff1b82141561369b5761369b61369f565b0390565b634e487b7160e01b600052601160045260246000fd5b634e487b7160e01b600052601260045260246000fd5b634e487b7160e01b600052604160045260246000fd5b6001600160a01b038116811461255d57600080fd5b801515811461255d57600080fd5b63ffffffff8116811461255d57600080fdfea2646970667358221220cbdb7f3260d28d984991b496ea09cde47dc4f0cc2d0d97448682fbfb80adf3c064736f6c63430008010033",
    "linkReferences": {},
    "deployedLinkReferences": {}
}