{
    "_format": "hh-sol-artifact-1",
    "contractName": "PositionMgmt",
    "sourceName": "contracts/clearinghouse/PositionMgmt.sol",
    "abi": [
        {
            "anonymous": false,
            "inputs": [
                {
                    "indexed": true,
                    "internalType": "address",
                    "name": "clearingHouse",
                    "type": "address"
                }
            ],
            "name": "ClearingHouseChanged",
            "type": "event"
        },
        {
            "anonymous": false,
            "inputs": [
                {
                    "indexed": true,
                    "internalType": "address",
                    "name": "previousOwner",
                    "type": "address"
                },
                {
                    "indexed": true,
                    "internalType": "address",
                    "name": "newOwner",
                    "type": "address"
                }
            ],
            "name": "OwnershipTransferred",
            "type": "event"
        },
        {
            "anonymous": false,
            "inputs": [
                {
                    "indexed": true,
                    "internalType": "address",
                    "name": "trader",
                    "type": "address"
                },
                {
                    "indexed": false,
                    "internalType": "int256",
                    "name": "amount",
                    "type": "int256"
                }
            ],
            "name": "PnlRealized",
            "type": "event"
        },
        {
            "anonymous": false,
            "inputs": [
                {
                    "indexed": true,
                    "internalType": "address",
                    "name": "vault",
                    "type": "address"
                }
            ],
            "name": "VaultChanged",
            "type": "event"
        },
        {
            "inputs": [],
            "name": "candidate",
            "outputs": [
                {
                    "internalType": "address",
                    "name": "",
                    "type": "address"
                }
            ],
            "stateMutability": "view",
            "type": "function"
        },
        {
            "inputs": [
                {
                    "internalType": "address",
                    "name": "trader",
                    "type": "address"
                },
                {
                    "internalType": "address",
                    "name": "baseToken",
                    "type": "address"
                }
            ],
            "name": "deregisterBaseToken",
            "outputs": [],
            "stateMutability": "nonpayable",
            "type": "function"
        },
        {
            "inputs": [
                {
                    "internalType": "address",
                    "name": "trader",
                    "type": "address"
                },
                {
                    "internalType": "address",
                    "name": "baseToken",
                    "type": "address"
                }
            ],
            "name": "getAccountInfo",
            "outputs": [
                {
                    "components": [
                        {
                            "internalType": "int256",
                            "name": "takerPositionSize",
                            "type": "int256"
                        },
                        {
                            "internalType": "int256",
                            "name": "takerOpenNotional",
                            "type": "int256"
                        },
                        {
                            "internalType": "int256",
                            "name": "lastTwPremiumGrowthGlobal",
                            "type": "int256"
                        }
                    ],
                    "internalType": "struct Account.TakerInfo",
                    "name": "",
                    "type": "tuple"
                }
            ],
            "stateMutability": "view",
            "type": "function"
        },
        {
            "inputs": [
                {
                    "internalType": "address",
                    "name": "trader",
                    "type": "address"
                },
                {
                    "internalType": "address",
                    "name": "baseToken",
                    "type": "address"
                }
            ],
            "name": "getBase",
            "outputs": [
                {
                    "internalType": "int256",
                    "name": "",
                    "type": "int256"
                }
            ],
            "stateMutability": "view",
            "type": "function"
        },
        {
            "inputs": [
                {
                    "internalType": "address",
                    "name": "trader",
                    "type": "address"
                }
            ],
            "name": "getBaseTokens",
            "outputs": [
                {
                    "internalType": "address[]",
                    "name": "",
                    "type": "address[]"
                }
            ],
            "stateMutability": "view",
            "type": "function"
        },
        {
            "inputs": [],
            "name": "getClearingHouse",
            "outputs": [
                {
                    "internalType": "address",
                    "name": "",
                    "type": "address"
                }
            ],
            "stateMutability": "view",
            "type": "function"
        },
        {
            "inputs": [],
            "name": "getClearingHouseConfig",
            "outputs": [
                {
                    "internalType": "address",
                    "name": "",
                    "type": "address"
                }
            ],
            "stateMutability": "view",
            "type": "function"
        },
        {
            "inputs": [],
            "name": "getLiquidityProvider",
            "outputs": [
                {
                    "internalType": "address",
                    "name": "",
                    "type": "address"
                }
            ],
            "stateMutability": "view",
            "type": "function"
        },
        {
            "inputs": [
                {
                    "internalType": "address",
                    "name": "trader",
                    "type": "address"
                }
            ],
            "name": "getMarginRequirementForLiquidation",
            "outputs": [
                {
                    "internalType": "int256",
                    "name": "",
                    "type": "int256"
                }
            ],
            "stateMutability": "view",
            "type": "function"
        },
        {
            "inputs": [
                {
                    "internalType": "address",
                    "name": "trader",
                    "type": "address"
                }
            ],
            "name": "getPnl",
            "outputs": [
                {
                    "internalType": "int256",
                    "name": "",
                    "type": "int256"
                },
                {
                    "internalType": "int256",
                    "name": "",
                    "type": "int256"
                }
            ],
            "stateMutability": "view",
            "type": "function"
        },
        {
            "inputs": [
                {
                    "internalType": "address",
                    "name": "trader",
                    "type": "address"
                },
                {
                    "internalType": "address",
                    "name": "baseToken",
                    "type": "address"
                }
            ],
            "name": "getQuote",
            "outputs": [
                {
                    "internalType": "int256",
                    "name": "",
                    "type": "int256"
                }
            ],
            "stateMutability": "view",
            "type": "function"
        },
        {
            "inputs": [
                {
                    "internalType": "address",
                    "name": "trader",
                    "type": "address"
                },
                {
                    "internalType": "address",
                    "name": "baseToken",
                    "type": "address"
                }
            ],
            "name": "getTakerOpenNotional",
            "outputs": [
                {
                    "internalType": "int256",
                    "name": "",
                    "type": "int256"
                }
            ],
            "stateMutability": "view",
            "type": "function"
        },
        {
            "inputs": [
                {
                    "internalType": "address",
                    "name": "trader",
                    "type": "address"
                },
                {
                    "internalType": "address",
                    "name": "baseToken",
                    "type": "address"
                }
            ],
            "name": "getTakerPositionSize",
            "outputs": [
                {
                    "internalType": "int256",
                    "name": "",
                    "type": "int256"
                }
            ],
            "stateMutability": "view",
            "type": "function"
        },
        {
            "inputs": [
                {
                    "internalType": "address",
                    "name": "trader",
                    "type": "address"
                }
            ],
            "name": "getTotalAbsPositionValue",
            "outputs": [
                {
                    "internalType": "uint256",
                    "name": "",
                    "type": "uint256"
                }
            ],
            "stateMutability": "view",
            "type": "function"
        },
        {
            "inputs": [
                {
                    "internalType": "address",
                    "name": "trader",
                    "type": "address"
                }
            ],
            "name": "getTotalDebtValue",
            "outputs": [
                {
                    "internalType": "uint256",
                    "name": "",
                    "type": "uint256"
                }
            ],
            "stateMutability": "view",
            "type": "function"
        },
        {
            "inputs": [
                {
                    "internalType": "address",
                    "name": "trader",
                    "type": "address"
                },
                {
                    "internalType": "address",
                    "name": "baseToken",
                    "type": "address"
                }
            ],
            "name": "getTotalOpenNotional",
            "outputs": [
                {
                    "internalType": "int256",
                    "name": "",
                    "type": "int256"
                }
            ],
            "stateMutability": "view",
            "type": "function"
        },
        {
            "inputs": [
                {
                    "internalType": "address",
                    "name": "trader",
                    "type": "address"
                },
                {
                    "internalType": "address",
                    "name": "baseToken",
                    "type": "address"
                }
            ],
            "name": "getTotalPositionSize",
            "outputs": [
                {
                    "internalType": "int256",
                    "name": "",
                    "type": "int256"
                }
            ],
            "stateMutability": "view",
            "type": "function"
        },
        {
            "inputs": [
                {
                    "internalType": "address",
                    "name": "trader",
                    "type": "address"
                },
                {
                    "internalType": "address",
                    "name": "baseToken",
                    "type": "address"
                }
            ],
            "name": "getTotalPositionValue",
            "outputs": [
                {
                    "internalType": "int256",
                    "name": "",
                    "type": "int256"
                }
            ],
            "stateMutability": "view",
            "type": "function"
        },
        {
            "inputs": [],
            "name": "getVault",
            "outputs": [
                {
                    "internalType": "address",
                    "name": "",
                    "type": "address"
                }
            ],
            "stateMutability": "view",
            "type": "function"
        },
        {
            "inputs": [
                {
                    "internalType": "address",
                    "name": "trader",
                    "type": "address"
                }
            ],
            "name": "hasOrder",
            "outputs": [
                {
                    "internalType": "bool",
                    "name": "",
                    "type": "bool"
                }
            ],
            "stateMutability": "view",
            "type": "function"
        },
        {
            "inputs": [
                {
                    "internalType": "address",
                    "name": "clearingHouseConfigArg",
                    "type": "address"
                },
                {
                    "internalType": "address",
                    "name": "liquidityProviderArg",
                    "type": "address"
                }
            ],
            "name": "initialize",
            "outputs": [],
            "stateMutability": "nonpayable",
            "type": "function"
        },
        {
            "inputs": [
                {
                    "internalType": "address",
                    "name": "trader",
                    "type": "address"
                },
                {
                    "internalType": "int256",
                    "name": "amount",
                    "type": "int256"
                }
            ],
            "name": "modifyOwedRealizedPnl",
            "outputs": [],
            "stateMutability": "nonpayable",
            "type": "function"
        },
        {
            "inputs": [
                {
                    "internalType": "address",
                    "name": "trader",
                    "type": "address"
                },
                {
                    "internalType": "address",
                    "name": "baseToken",
                    "type": "address"
                },
                {
                    "internalType": "int256",
                    "name": "base",
                    "type": "int256"
                },
                {
                    "internalType": "int256",
                    "name": "quote",
                    "type": "int256"
                }
            ],
            "name": "modifyTakerBalance",
            "outputs": [
                {
                    "internalType": "int256",
                    "name": "",
                    "type": "int256"
                },
                {
                    "internalType": "int256",
                    "name": "",
                    "type": "int256"
                }
            ],
            "stateMutability": "nonpayable",
            "type": "function"
        },
        {
            "inputs": [],
            "name": "owner",
            "outputs": [
                {
                    "internalType": "address",
                    "name": "",
                    "type": "address"
                }
            ],
            "stateMutability": "view",
            "type": "function"
        },
        {
            "inputs": [
                {
                    "internalType": "address",
                    "name": "trader",
                    "type": "address"
                },
                {
                    "internalType": "address",
                    "name": "baseToken",
                    "type": "address"
                }
            ],
            "name": "registerBaseToken",
            "outputs": [],
            "stateMutability": "nonpayable",
            "type": "function"
        },
        {
            "inputs": [],
            "name": "renounceOwnership",
            "outputs": [],
            "stateMutability": "nonpayable",
            "type": "function"
        },
        {
            "inputs": [
                {
                    "internalType": "address",
                    "name": "clearingHouseArg",
                    "type": "address"
                }
            ],
            "name": "setClearingHouse",
            "outputs": [],
            "stateMutability": "nonpayable",
            "type": "function"
        },
        {
            "inputs": [
                {
                    "internalType": "address",
                    "name": "newOwner",
                    "type": "address"
                }
            ],
            "name": "setOwner",
            "outputs": [],
            "stateMutability": "nonpayable",
            "type": "function"
        },
        {
            "inputs": [
                {
                    "internalType": "address",
                    "name": "vaultArg",
                    "type": "address"
                }
            ],
            "name": "setVault",
            "outputs": [],
            "stateMutability": "nonpayable",
            "type": "function"
        },
        {
            "inputs": [
                {
                    "internalType": "address",
                    "name": "maker",
                    "type": "address"
                },
                {
                    "internalType": "address",
                    "name": "baseToken",
                    "type": "address"
                },
                {
                    "internalType": "int256",
                    "name": "takerBase",
                    "type": "int256"
                },
                {
                    "internalType": "int256",
                    "name": "takerQuote",
                    "type": "int256"
                },
                {
                    "internalType": "int256",
                    "name": "realizedPnl",
                    "type": "int256"
                }
            ],
            "name": "settleBalanceAndDeregister",
            "outputs": [],
            "stateMutability": "nonpayable",
            "type": "function"
        },
        {
            "inputs": [
                {
                    "internalType": "address",
                    "name": "trader",
                    "type": "address"
                }
            ],
            "name": "settleOwedRealizedPnl",
            "outputs": [
                {
                    "internalType": "int256",
                    "name": "",
                    "type": "int256"
                }
            ],
            "stateMutability": "nonpayable",
            "type": "function"
        },
        {
            "inputs": [
                {
                    "internalType": "address",
                    "name": "trader",
                    "type": "address"
                },
                {
                    "internalType": "address",
                    "name": "baseToken",
                    "type": "address"
                },
                {
                    "internalType": "int256",
                    "name": "amount",
                    "type": "int256"
                }
            ],
            "name": "settleQuoteToOwedRealizedPnl",
            "outputs": [],
            "stateMutability": "nonpayable",
            "type": "function"
        },
        {
            "inputs": [],
            "name": "updateOwner",
            "outputs": [],
            "stateMutability": "nonpayable",
            "type": "function"
        },
        {
            "inputs": [
                {
                    "internalType": "address",
                    "name": "trader",
                    "type": "address"
                },
                {
                    "internalType": "address",
                    "name": "baseToken",
                    "type": "address"
                },
                {
                    "internalType": "int256",
                    "name": "lastTwPremiumGrowthGlobal",
                    "type": "int256"
                }
            ],
            "name": "updateTwPremiumGrowthGlobal",
            "outputs": [],
            "stateMutability": "nonpayable",
            "type": "function"
        }
    ],
    "bytecode": "0x608060405234801561001057600080fd5b506128f1806100206000396000f3fe608060405234801561001057600080fd5b50600436106102065760003560e01c80638d928af81161011a578063c575ff79116100ad578063ec647a121161007c578063ec647a1214610434578063f75c266d14610447578063fa8e30af1461045a578063fc7372141461046d578063fd6ceee51461048057610206565b8063c575ff79146103f1578063cb3c7b8e146103f9578063d50d01b714610419578063e2a72cce1461042c57610206565b8063b2e27148116100e9578063b2e27148146103b0578063b3945690146103c3578063b3bd6e12146103d6578063bc5920ba146103e957610206565b80638d928af8146103785780638da5cb5b14610380578063aa2a829414610388578063af74e7361461039057610206565b8063485cc9551161019d5780636c8381f81161016c5780636c8381f8146103225780636ccdc82e14610337578063715018a61461034a5780637a5b45a014610352578063874044f31461036557610206565b8063485cc955146102c95780636332fef6146102dc5780636817031b146102fc57806368f12e121461030f57610206565b80632e4586c3116101d95780632e4586c31461027d5780633c9b5ad1146102905780633f935107146102a3578063449323d8146102b657610206565b8063057ec1391461020b57806313af40351461022057806313ea7c8914610233578063293a50771461025d575b600080fd5b61021e6102193660046121ef565b610493565b005b61021e61022e366004612127565b6105c6565b610246610241366004612127565b6106a9565b60405161025492919061248e565b60405180910390f35b61027061026b366004612127565b610788565b6040516102549190612485565b61021e61028b366004612173565b6108a6565b61024661029e3660046121ae565b6108dd565b6102706102b1366004612141565b610901565b61021e6102c4366004612127565b610943565b61021e6102d7366004612141565b6109cc565b6102ef6102ea366004612141565b610ad7565b604051610254919061278f565b61021e61030a366004612127565b610b2e565b61027061031d366004612141565b610be5565b61032a610cbb565b604051610254919061237f565b610270610345366004612127565b610cca565b61021e610db2565b610270610360366004612141565b610e47565b61021e61037336600461223b565b610f16565b61032a610f2c565b61032a610f3b565b61032a610f4a565b6103a361039e366004612127565b610f59565b604051610254919061242d565b6102706103be366004612141565b610fcf565b6102706103d1366004612141565b611018565b6102706103e4366004612141565b6110c5565b61021e61118a565b61032a61124d565b61040c610407366004612127565b61125c565b604051610254919061247a565b610270610427366004612141565b6112f0565b61032a61131e565b61021e610442366004612173565b61132d565b610270610455366004612127565b611340565b61021e610468366004612141565b6113dd565b61021e61047b366004612141565b6113ef565b61027061048e366004612127565b611548565b61049b6115a5565b6104a7858585856115e1565b50506104b38585610fcf565b1580156105405750609b546040516385b0f96760e01b81526001600160a01b03909116906385b0f967906104ed9088908890600401612393565b60a06040518083038186803b15801561050557600080fd5b505afa158015610519573d6000803e3d6000fd5b505050506040513d601f19601f8201168201806040525081019061053d919061229c565b51155b156105aa576001600160a01b038086166000908152609f60209081526040808320938816835292905220600101546105778161163f565b6105808361163f565b11156105a75760405162461bcd60e51b815260040161059e9061270b565b60405180910390fd5b90505b6105b5858583611668565b6105bf85856116b2565b5050505050565b6105ce61195e565b6001600160a01b03166105df610f3b565b6001600160a01b0316146106055760405162461bcd60e51b815260040161059e90612581565b6001600160a01b03811661062b5760405162461bcd60e51b815260040161059e9061276f565b6033546001600160a01b03828116911614156106595760405162461bcd60e51b815260040161059e90612561565b6034546001600160a01b03828116911614156106875760405162461bcd60e51b815260040161059e90612520565b603480546001600160a01b0319166001600160a01b0392909216919091179055565b6001600160a01b0381166000908152609e602052604081205481908190815b81811015610749576001600160a01b0386166000908152609e6020526040812080548390811061070857634e487b7160e01b600052603260045260246000fd5b6000918252602090912001546001600160a01b031690506107298782610901565b61073390856127c1565b935050808061074190612870565b9150506106c8565b50600061075586611962565b9050600061076382856127c1565b6001600160a01b03979097166000908152609d60205260409020549795505050505050565b6001600160a01b0381166000908152609e602052604081205481908190815b81811015610872576001600160a01b0386166000908152609e602052604081208054839081106107e757634e487b7160e01b600052603260045260246000fd5b60009182526020822001546001600160a01b0316915061080788836110c5565b905060008082121561083a5761083761082761082285611ac0565b611bc3565b8390670de0b6b3a7640000611bf0565b90505b61084481876127c1565b95506108508984610e47565b61085a90886127c1565b9650505050808061086a90612870565b9150506107a7565b506000808412156108835783610886565b60005b905061089a61089584836127c1565b61163f565b9450505050505b919050565b6108ae6115a5565b6001600160a01b039283166000908152609f602090815260408083209490951682529290925291902060020155565b6000806108e86115a5565b6108f4868686866115e1565b9150915094509492505050565b60008061090e8484610be5565b90508061091f57600091505061093d565b600061092a84611ac0565b905061093861082782611bc3565b925050505b92915050565b61094b61195e565b6001600160a01b031661095c610f3b565b6001600160a01b0316146109825760405162461bcd60e51b815260040161059e90612581565b606780546001600160a01b0319166001600160a01b0383169081179091556040517fd0654f5900f9e7e4e605a19334306e6a2786bbf960ac0484a4c12feb6428fe2f90600090a250565b600054610100900460ff16806109e5575060005460ff16155b610a015760405162461bcd60e51b815260040161059e90612656565b600054610100900460ff16158015610a2c576000805460ff1961ff0019909116610100171660011790555b610a3e836001600160a01b0316611c96565b610a5a5760405162461bcd60e51b815260040161059e906124fe565b610a6c826001600160a01b0316611c96565b610a885760405162461bcd60e51b815260040161059e906125e0565b610a90611c9c565b609a80546001600160a01b038086166001600160a01b031992831617909255609b8054928516929091169190911790558015610ad2576000805461ff00191690555b505050565b610adf6120ef565b506001600160a01b039182166000908152609f60209081526040808320939094168252918252829020825160608101845281548152600182015492810192909252600201549181019190915290565b610b3661195e565b6001600160a01b0316610b47610f3b565b6001600160a01b031614610b6d5760405162461bcd60e51b815260040161059e90612581565b610b7f816001600160a01b0316611c96565b610b9b5760405162461bcd60e51b815260040161059e906125a1565b609c80546001600160a01b0319166001600160a01b0383169081179091556040517fa49691f0dd6477ccef49962612a236d252e3a31c3be8b61fa6abeff3e74a757290600090a250565b609b546040516310e8673160e21b815260009182916001600160a01b03909116906343a19cc490610c1f90879087906001906004016123ad565b60206040518083038186803b158015610c3757600080fd5b505afa158015610c4b573d6000803e3d6000fd5b505050506040513d601f19601f82011682018060405250810190610c6f9190612284565b90506000610c7d85856110c5565b9050600081610c8b84611bc3565b610c9591906127c1565b9050612710610ca38261163f565b10610cae5780610cb1565b60005b9695505050505050565b6034546001600160a01b031690565b6001600160a01b0381166000908152609e6020908152604080832080548251818502810185019093528083528493830182828015610d3157602002820191906000526020600020905b81546001600160a01b03168152600190910190602001808311610d13575b505050505090506000808251905060005b81811015610da8576000848281518110610d6c57634e487b7160e01b600052603260045260246000fd5b602002602001015190506000610d856108958984610901565b9050610d918186612802565b945050508080610da090612870565b915050610d42565b5090949350505050565b610dba61195e565b6001600160a01b0316610dcb610f3b565b6001600160a01b031614610df15760405162461bcd60e51b815260040161059e90612581565b6033546040516000916001600160a01b0316907f8be0079c531659141344cd1fd0a4f28419497f9722a3daafe3b4186f6b6457e0908390a3603380546001600160a01b0319908116909155603480549091169055565b609b546040516338ee443960e21b815260009182916001600160a01b039091169063e3b910e490610e80908790879086906004016123ad565b60206040518083038186803b158015610e9857600080fd5b505afa158015610eac573d6000803e3d6000fd5b505050506040513d601f19601f82011682018060405250810190610ed09190612284565b9050610edb81611bc3565b6001600160a01b038086166000908152609f6020908152604080832093881683529290522060010154610f0e919061281a565b949350505050565b610f1e6115a5565b610f288282611d19565b5050565b609c546001600160a01b031690565b6033546001600160a01b031690565b609a546001600160a01b031690565b6001600160a01b0381166000908152609e6020908152604091829020805483518184028101840190945280845260609392830182828015610fc357602002820191906000526020600020905b81546001600160a01b03168152600190910190602001808311610fa5575b50505050509050919050565b6001600160a01b038083166000908152609f602090815260408083209385168352929052908120546127106110038261163f565b1061100e5780610f0e565b5060009392505050565b609b546040516310e8673160e21b815260009182916001600160a01b03909116906343a19cc490611051908790879086906004016123ad565b60206040518083038186803b15801561106957600080fd5b505afa15801561107d573d6000803e3d6000fd5b505050506040513d601f19601f820116820180604052508101906110a19190612284565b905060006110af8585610e47565b9050806110bb83611bc3565b61093891906127c1565b609b546040516338ee443960e21b815260009182916001600160a01b039091169063e3b910e4906110ff90879087906001906004016123ad565b60206040518083038186803b15801561111757600080fd5b505afa15801561112b573d6000803e3d6000fd5b505050506040513d601f19601f8201168201806040525081019061114f9190612284565b905061115a81611bc3565b6001600160a01b038086166000908152609f6020908152604080832093881683529290522054610f0e919061281a565b6034546001600160a01b03166111b25760405162461bcd60e51b815260040161059e906126ec565b6111ba61195e565b6034546001600160a01b039081169116146111e75760405162461bcd60e51b815260040161059e906124de565b6034546033546040516001600160a01b0392831692909116907f8be0079c531659141344cd1fd0a4f28419497f9722a3daafe3b4186f6b6457e090600090a360348054603380546001600160a01b03199081166001600160a01b03841617909155169055565b6067546001600160a01b031690565b609b546001600160a01b038281166000908152609e60205260408082209051634dffaee560e01b815291939290921691634dffaee5916112a09186916004016123d1565b60206040518083038186803b1580156112b857600080fd5b505afa1580156112cc573d6000803e3d6000fd5b505050506040513d601f19601f8201168201806040525081019061093d9190612264565b6001600160a01b039182166000908152609f6020908152604080832093909416825291909152206001015490565b609b546001600160a01b031690565b6113356115a5565b610ad2838383611668565b600061093d610822609a60009054906101000a90046001600160a01b03166001600160a01b031663a85494026040518163ffffffff1660e01b815260040160206040518083038186803b15801561139657600080fd5b505afa1580156113aa573d6000803e3d6000fd5b505050506040513d601f19601f820116820180604052508101906113ce9190612317565b6113d785610cca565b90611d9c565b6113e56115a5565b610f2882826116b2565b6113f76115a5565b6001600160a01b0382166000908152609e602090815260409182902080548351818402810184019094528084529092611472929091849183018282801561146757602002820191906000526020600020905b81546001600160a01b03168152600190910190602001808311611449575b505050505083611db1565b1561147d5750610f28565b8054600181018255600082815260209081902090910180546001600160a01b0319166001600160a01b0385811691909117909155609a5460408051636f0daecb60e01b815290519190921692636f0daecb9260048082019391829003018186803b1580156114ea57600080fd5b505afa1580156114fe573d6000803e3d6000fd5b505050506040513d601f19601f82011682018060405250810190611522919061235e565b60ff1681805490501115610ad25760405162461bcd60e51b815260040161059e90612636565b609c546000906001600160a01b031661155f61195e565b6001600160a01b0316146115855760405162461bcd60e51b815260040161059e906125c1565b506001600160a01b03166000908152609d60205260408120805491905590565b6067546001600160a01b03166115b961195e565b6001600160a01b0316146115df5760405162461bcd60e51b815260040161059e90612540565b565b6001600160a01b038085166000908152609f60209081526040808320938716835292905290812080548291906116189086906127c1565b8155600181015461162a9085906127c1565b60018201819055905497909650945050505050565b60008082121561165f5761165a61165583611e1b565b611e49565b61093d565b61093d82611e49565b6001600160a01b038084166000908152609f60209081526040808320938616835292905220600181015461169d90839061281a565b60018201556116ac8483611d19565b50505050565b6001600160a01b038083166000908152609f6020908152604080832093851683529281529082902082516060810184528154808252600183015493820193909352600290910154928101929092526127109061170d9061163f565b1015806117285750612710611725826020015161163f565b10155b156117335750610f28565b609b546040516385b0f96760e01b81526000916001600160a01b0316906385b0f967906117669087908790600401612393565b60a06040518083038186803b15801561177e57600080fd5b505afa158015611792573d6000803e3d6000fd5b505050506040513d601f19601f820116820180604052508101906117b6919061229c565b5111156117c35750610f28565b6001600160a01b038084166000818152609f60209081526040808320948716835293815283822082815560018101839055600201829055918152609e909152908120805490915b8181101561195657846001600160a01b031683828154811061183c57634e487b7160e01b600052603260045260246000fd5b6000918252602090912001546001600160a01b0316141561194457611862600183612859565b81146118ff5782611874600184612859565b8154811061189257634e487b7160e01b600052603260045260246000fd5b9060005260206000200160009054906101000a90046001600160a01b03168382815481106118d057634e487b7160e01b600052603260045260246000fd5b9060005260206000200160006101000a8154816001600160a01b0302191690836001600160a01b031602179055505b8280548061191d57634e487b7160e01b600052603160045260246000fd5b600082815260209020810160001990810180546001600160a01b0319169055019055611956565b8061194e81612870565b91505061180a565b505050505050565b3390565b6001600160a01b0381166000908152609e60205260408120548190815b81811015611a16576001600160a01b0385166000908152609e602052604081208054839081106119bf57634e487b7160e01b600052603260045260246000fd5b60009182526020808320909101546001600160a01b038981168452609f8352604080852091909216808552925290912060010154909150611a0090856127c1565b9350508080611a0e90612870565b91505061197f565b50609b546001600160a01b038581166000908152609e602052604080822090516310c2da1560e11b815291939290921691632185b42a91611a5b9189916004016123d1565b60206040518083038186803b158015611a7357600080fd5b505afa158015611a87573d6000803e3d6000fd5b505050506040513d601f19601f82011682018060405250810190611aab9190612284565b9050611ab781846127c1565b95945050505050565b6000816001600160a01b03166312080647609a60009054906101000a90046001600160a01b03166001600160a01b0316633e742e3b6040518163ffffffff1660e01b815260040160206040518083038186803b158015611b1f57600080fd5b505afa158015611b33573d6000803e3d6000fd5b505050506040513d601f19601f82011682018060405250810190611b57919061233a565b6040518263ffffffff1660e01b8152600401611b7391906127b0565b60206040518083038186803b158015611b8b57600080fd5b505afa158015611b9f573d6000803e3d6000fd5b505050506040513d601f19601f8201168201806040525081019061093d9190612284565b60006001600160ff1b03821115611bec5760405162461bcd60e51b815260040161059e906126a4565b5090565b60008060008512611c015784611c0a565b611c0a85611e1b565b90506000808512611c1b5784611c24565b611c2485611e1b565b905060008087128015611c375750600086135b80611c4d5750600087138015611c4d5750600086125b611c58576000611c5b565b60015b90506000611c6a848488611e6b565b905081611c7f57611c7a81611bc3565b611c88565b611c8881611f31565b9450505050505b9392505050565b3b151590565b600054610100900460ff1680611cb5575060005460ff16155b611cd15760405162461bcd60e51b815260040161059e90612656565b600054610100900460ff16158015611cfc576000805460ff1961ff0019909116610100171660011790555b611d04611f45565b8015611d16576000805461ff00191690555b50565b8015610f28576001600160a01b0382166000908152609d6020526040902054611d439082906127c1565b6001600160a01b0383166000818152609d6020526040908190209290925590517febf4e69d81451d269fc4d9551b06d58bea2ed426d2c528919ce45f6070946efb90611d90908490612485565b60405180910390a25050565b6000611c8f838362ffffff16620f4240611e6b565b6000805b835181101561100e57826001600160a01b0316848281518110611de857634e487b7160e01b600052603260045260246000fd5b60200260200101516001600160a01b03161415611e0957600191505061093d565b80611e1381612870565b915050611db5565b6000600160ff1b8213611e405760405162461bcd60e51b815260040161059e9061272e565b61093d8261288b565b600080821215611bec5760405162461bcd60e51b815260040161059e90612601565b600080806000198587098587029250828110838203039150508060001415611eb85760008411611ead5760405162461bcd60e51b815260040161059e9061249c565b508290049050611c8f565b808411611ec457600080fd5b6000848688096000868103871696879004966002600389028118808a02820302808a02820302808a02820302808a02820302808a02820302808a02909103029181900381900460010186841190950394909402919094039290920491909117919091029150509392505050565b6000611f3c82611bc3565b61093d9061288b565b600054610100900460ff1680611f5e575060005460ff16155b611f7a5760405162461bcd60e51b815260040161059e90612656565b600054610100900460ff16158015611fa5576000805460ff1961ff0019909116610100171660011790555b611fad612019565b6000611fb761195e565b603380546001600160a01b0319166001600160a01b038316908117909155604051919250906000907f8be0079c531659141344cd1fd0a4f28419497f9722a3daafe3b4186f6b6457e0908290a3508015611d16576000805461ff001916905550565b600054610100900460ff1680612032575060005460ff16155b61204e5760405162461bcd60e51b815260040161059e90612656565b600054610100900460ff16158015612079576000805460ff1961ff0019909116610100171660011790555b611d04600054610100900460ff1680612095575060005460ff16155b6120b15760405162461bcd60e51b815260040161059e90612656565b600054610100900460ff16158015611d04576000805460ff1961ff0019909116610100171660011790558015611d16576000805461ff001916905550565b60405180606001604052806000815260200160008152602001600081525090565b80356001600160a01b03811681146108a157600080fd5b600060208284031215612138578081fd5b611c8f82612110565b60008060408385031215612153578081fd5b61215c83612110565b915061216a60208401612110565b90509250929050565b600080600060608486031215612187578081fd5b61219084612110565b925061219e60208501612110565b9150604084013590509250925092565b600080600080608085870312156121c3578081fd5b6121cc85612110565b93506121da60208601612110565b93969395505050506040820135916060013590565b600080600080600060a08688031215612206578081fd5b61220f86612110565b945061221d60208701612110565b94979496505050506040830135926060810135926080909101359150565b6000806040838503121561224d578182fd5b61225683612110565b946020939093013593505050565b600060208284031215612275578081fd5b81518015158114611c8f578182fd5b600060208284031215612295578081fd5b5051919050565b600060a082840312156122ad578081fd5b60405160a0810181811067ffffffffffffffff821117156122dc57634e487b7160e01b83526041600452602483fd5b806040525082518152602083015160208201526040830151604082015260608301516060820152608083015160808201528091505092915050565b600060208284031215612328578081fd5b815162ffffff81168114611c8f578182fd5b60006020828403121561234b578081fd5b815163ffffffff81168114611c8f578182fd5b60006020828403121561236f578081fd5b815160ff81168114611c8f578182fd5b6001600160a01b0391909116815260200190565b6001600160a01b0392831681529116602082015260400190565b6001600160a01b039384168152919092166020820152901515604082015260600190565b60006040820160018060a01b03808616845260206040818601528286548085526060870191508786528286209450855b8181101561241f578554851683526001958601959284019201612401565b509098975050505050505050565b6020808252825182820181905260009190848201906040850190845b8181101561246e5783516001600160a01b031683529284019291840191600101612449565b50909695505050505050565b901515815260200190565b90815260200190565b918252602082015260400190565b60208082526022908201527f64656e6f6d696e61746f72206d7573742062652067726561746572207468616e604082015261020360f41b606082015260800190565b602080825260069082015265534f5f434e4360d01b604082015260600190565b602080825260089082015267504d5f4348434e4360c01b604082015260600190565b602080825260069082015265534f5f53414360d01b604082015260600190565b6020808252600790820152660869088be9e86960cb1b604082015260600190565b602080825260069082015265534f5f53414f60d01b604082015260600190565b602080825260069082015265534f5f434e4f60d01b604082015260600190565b602080825260069082015265504d5f564e4360d01b604082015260600190565b6020808252600590820152642826afa7ab60d91b604082015260600190565b602080825260079082015266504d5f4f424e4360c81b604082015260600190565b6020808252818101527f53616665436173743a2076616c7565206d75737420626520706f736974697665604082015260600190565b602080825260069082015265504d5f504e4560d01b604082015260600190565b6020808252602e908201527f496e697469616c697a61626c653a20636f6e747261637420697320616c72656160408201526d191e481a5b9a5d1a585b1a5e995960921b606082015260800190565b60208082526028908201527f53616665436173743a2076616c756520646f65736e27742066697420696e2061604082015267371034b73a191a9b60c11b606082015260800190565b6020808252600590820152640534f5f43360dc1b604082015260600190565b6020808252600990820152680504d5f4951424152560bc1b604082015260600190565b60208082526021908201527f4661697274726164654d6174683a20696e76657273696f6e206f766572666c6f6040820152607760f81b606082015260800190565b6020808252600690820152650534f5f4e57360d41b604082015260600190565b81518152602080830151908201526040918201519181019190915260600190565b63ffffffff91909116815260200190565b600080821280156001600160ff1b03849003851316156127e3576127e36128a5565b600160ff1b83900384128116156127fc576127fc6128a5565b50500190565b60008219821115612815576128156128a5565b500190565b60008083128015600160ff1b850184121615612838576128386128a5565b6001600160ff1b0384018313811615612853576128536128a5565b50500390565b60008282101561286b5761286b6128a5565b500390565b6000600019821415612884576128846128a5565b5060010190565b6000600160ff1b8214156128a1576128a16128a5565b0390565b634e487b7160e01b600052601160045260246000fdfea26469706673582212201163c54f2122e4729c43bd61459c17aa51a2ece1ed59e9a9f492734bceac026d64736f6c63430008010033",
    "linkReferences": {},
    "deployedLinkReferences": {}
}