{
    "_format": "hh-sol-artifact-1",
    "contractName": "QuoteToken",
    "sourceName": "contracts/token/QuoteToken.sol",
    "abi": [
        {
            "anonymous": false,
            "inputs": [
                {
                    "indexed": true,
                    "internalType": "address",
                    "name": "owner",
                    "type": "address"
                },
                {
                    "indexed": true,
                    "internalType": "address",
                    "name": "spender",
                    "type": "address"
                },
                {
                    "indexed": false,
                    "internalType": "uint256",
                    "name": "value",
                    "type": "uint256"
                }
            ],
            "name": "Approval",
            "type": "event"
        },
        {
            "anonymous": false,
            "inputs": [
                {
                    "indexed": true,
                    "internalType": "address",
                    "name": "previousOwner",
                    "type": "address"
                },
                {
                    "indexed": true,
                    "internalType": "address",
                    "name": "newOwner",
                    "type": "address"
                }
            ],
            "name": "OwnershipTransferred",
            "type": "event"
        },
        {
            "anonymous": false,
            "inputs": [
                {
                    "indexed": true,
                    "internalType": "address",
                    "name": "from",
                    "type": "address"
                },
                {
                    "indexed": true,
                    "internalType": "address",
                    "name": "to",
                    "type": "address"
                },
                {
                    "indexed": false,
                    "internalType": "uint256",
                    "name": "value",
                    "type": "uint256"
                }
            ],
            "name": "Transfer",
            "type": "event"
        },
        {
            "inputs": [
                {
                    "internalType": "address",
                    "name": "owner",
                    "type": "address"
                },
                {
                    "internalType": "address",
                    "name": "spender",
                    "type": "address"
                }
            ],
            "name": "allowance",
            "outputs": [
                {
                    "internalType": "uint256",
                    "name": "",
                    "type": "uint256"
                }
            ],
            "stateMutability": "view",
            "type": "function"
        },
        {
            "inputs": [
                {
                    "internalType": "address",
                    "name": "spender",
                    "type": "address"
                },
                {
                    "internalType": "uint256",
                    "name": "amount",
                    "type": "uint256"
                }
            ],
            "name": "approve",
            "outputs": [
                {
                    "internalType": "bool",
                    "name": "",
                    "type": "bool"
                }
            ],
            "stateMutability": "nonpayable",
            "type": "function"
        },
        {
            "inputs": [
                {
                    "internalType": "address",
                    "name": "account",
                    "type": "address"
                }
            ],
            "name": "balanceOf",
            "outputs": [
                {
                    "internalType": "uint256",
                    "name": "",
                    "type": "uint256"
                }
            ],
            "stateMutability": "view",
            "type": "function"
        },
        {
            "inputs": [],
            "name": "candidate",
            "outputs": [
                {
                    "internalType": "address",
                    "name": "",
                    "type": "address"
                }
            ],
            "stateMutability": "view",
            "type": "function"
        },
        {
            "inputs": [],
            "name": "decimals",
            "outputs": [
                {
                    "internalType": "uint8",
                    "name": "",
                    "type": "uint8"
                }
            ],
            "stateMutability": "view",
            "type": "function"
        },
        {
            "inputs": [
                {
                    "internalType": "address",
                    "name": "spender",
                    "type": "address"
                },
                {
                    "internalType": "uint256",
                    "name": "subtractedValue",
                    "type": "uint256"
                }
            ],
            "name": "decreaseAllowance",
            "outputs": [
                {
                    "internalType": "bool",
                    "name": "",
                    "type": "bool"
                }
            ],
            "stateMutability": "nonpayable",
            "type": "function"
        },
        {
            "inputs": [
                {
                    "internalType": "address",
                    "name": "spender",
                    "type": "address"
                },
                {
                    "internalType": "uint256",
                    "name": "addedValue",
                    "type": "uint256"
                }
            ],
            "name": "increaseAllowance",
            "outputs": [
                {
                    "internalType": "bool",
                    "name": "",
                    "type": "bool"
                }
            ],
            "stateMutability": "nonpayable",
            "type": "function"
        },
        {
            "inputs": [
                {
                    "internalType": "string",
                    "name": "nameArg",
                    "type": "string"
                },
                {
                    "internalType": "string",
                    "name": "symbolArg",
                    "type": "string"
                }
            ],
            "name": "initialize",
            "outputs": [],
            "stateMutability": "nonpayable",
            "type": "function"
        },
        {
            "inputs": [
                {
                    "internalType": "address",
                    "name": "recipient",
                    "type": "address"
                }
            ],
            "name": "mintMaximumTo",
            "outputs": [],
            "stateMutability": "nonpayable",
            "type": "function"
        },
        {
            "inputs": [],
            "name": "name",
            "outputs": [
                {
                    "internalType": "string",
                    "name": "",
                    "type": "string"
                }
            ],
            "stateMutability": "view",
            "type": "function"
        },
        {
            "inputs": [],
            "name": "owner",
            "outputs": [
                {
                    "internalType": "address",
                    "name": "",
                    "type": "address"
                }
            ],
            "stateMutability": "view",
            "type": "function"
        },
        {
            "inputs": [],
            "name": "renounceOwnership",
            "outputs": [],
            "stateMutability": "nonpayable",
            "type": "function"
        },
        {
            "inputs": [
                {
                    "internalType": "address",
                    "name": "factoryArg",
                    "type": "address"
                }
            ],
            "name": "setFactory",
            "outputs": [],
            "stateMutability": "nonpayable",
            "type": "function"
        },
        {
            "inputs": [
                {
                    "internalType": "address",
                    "name": "newOwner",
                    "type": "address"
                }
            ],
            "name": "setOwner",
            "outputs": [],
            "stateMutability": "nonpayable",
            "type": "function"
        },
        {
            "inputs": [],
            "name": "symbol",
            "outputs": [
                {
                    "internalType": "string",
                    "name": "",
                    "type": "string"
                }
            ],
            "stateMutability": "view",
            "type": "function"
        },
        {
            "inputs": [],
            "name": "totalSupply",
            "outputs": [
                {
                    "internalType": "uint256",
                    "name": "",
                    "type": "uint256"
                }
            ],
            "stateMutability": "view",
            "type": "function"
        },
        {
            "inputs": [
                {
                    "internalType": "address",
                    "name": "recipient",
                    "type": "address"
                },
                {
                    "internalType": "uint256",
                    "name": "amount",
                    "type": "uint256"
                }
            ],
            "name": "transfer",
            "outputs": [
                {
                    "internalType": "bool",
                    "name": "",
                    "type": "bool"
                }
            ],
            "stateMutability": "nonpayable",
            "type": "function"
        },
        {
            "inputs": [
                {
                    "internalType": "address",
                    "name": "sender",
                    "type": "address"
                },
                {
                    "internalType": "address",
                    "name": "recipient",
                    "type": "address"
                },
                {
                    "internalType": "uint256",
                    "name": "amount",
                    "type": "uint256"
                }
            ],
            "name": "transferFrom",
            "outputs": [
                {
                    "internalType": "bool",
                    "name": "",
                    "type": "bool"
                }
            ],
            "stateMutability": "nonpayable",
            "type": "function"
        },
        {
            "inputs": [],
            "name": "updateOwner",
            "outputs": [],
            "stateMutability": "nonpayable",
            "type": "function"
        }
    ],
    "bytecode": "0x608060405234801561001057600080fd5b50611523806100206000396000f3fe608060405234801561001057600080fd5b50600436106101215760003560e01c80636c8381f8116100ad578063a457c2d711610071578063a457c2d71461022f578063a9059cbb14610242578063bc5920ba14610255578063dd62ed3e1461025d578063f52e308e1461027057610121565b80636c8381f8146101ef57806370a0823114610204578063715018a6146102175780638da5cb5b1461021f57806395d89b411461022757610121565b806323b872dd116100f457806323b872dd1461018e578063313ce567146101a157806339509351146101b65780634cd88b76146101c95780635bb47808146101dc57610121565b806306fdde0314610126578063095ea7b31461014457806313af40351461016457806318160ddd14610179575b600080fd5b61012e610283565b60405161013b91906110c8565b60405180910390f35b61015761015236600461101f565b610315565b60405161013b91906110bd565b610177610172366004610f91565b610332565b005b61018161041e565b60405161013b9190611440565b61015761019c366004610fe4565b610424565b6101a96104bb565b60405161013b9190611449565b6101576101c436600461101f565b6104c0565b6101776101d7366004611048565b61050f565b6101776101ea366004610f91565b610590565b6101f76105f1565b60405161013b91906110a9565b610181610212366004610f91565b610600565b61017761061f565b6101f76106b4565b61012e6106c3565b61015761023d36600461101f565b6106d2565b61015761025036600461101f565b61074d565b610177610761565b61018161026b366004610fb2565b610824565b61017761027e366004610f91565b61084f565b6060606a805461029290611486565b80601f01602080910402602001604051908101604052809291908181526020018280546102be90611486565b801561030b5780601f106102e05761010080835404028352916020019161030b565b820191906000526020600020905b8154815290600101906020018083116102ee57829003601f168201915b5050505050905090565b6000610329610322610875565b8484610879565b50600192915050565b61033a610875565b6001600160a01b031661034b6106b4565b6001600160a01b03161461037a5760405162461bcd60e51b815260040161037190611246565b60405180910390fd5b6001600160a01b0381166103a05760405162461bcd60e51b8152600401610371906113e9565b6033546001600160a01b03828116911614156103ce5760405162461bcd60e51b8152600401610371906111e0565b6034546001600160a01b03828116911614156103fc5760405162461bcd60e51b8152600401610371906111c0565b603480546001600160a01b0319166001600160a01b0392909216919091179055565b60695490565b600061043184848461092d565b6001600160a01b038416600090815260686020526040812081610452610875565b6001600160a01b03166001600160a01b03168152602001908152602001600020549050828110156104955760405162461bcd60e51b8152600401610371906112b4565b6104b0856104a1610875565b6104ab868561146f565b610879565b506001949350505050565b601290565b60006103296104cd610875565b8484606860006104db610875565b6001600160a01b03908116825260208083019390935260409182016000908120918b16815292529020546104ab9190611457565b600054610100900460ff1680610528575060005460ff16155b6105445760405162461bcd60e51b815260040161037190611266565b600054610100900460ff1615801561056f576000805460ff1961ff0019909116610100171660011790555b6105798383610a55565b801561058b576000805461ff00191690555b505050565b610598610875565b6001600160a01b03166105a96106b4565b6001600160a01b0316146105cf5760405162461bcd60e51b815260040161037190611246565b60cb80546001600160a01b0319166001600160a01b0392909216919091179055565b6034546001600160a01b031690565b6001600160a01b0381166000908152606760205260409020545b919050565b610627610875565b6001600160a01b03166106386106b4565b6001600160a01b03161461065e5760405162461bcd60e51b815260040161037190611246565b6033546040516000916001600160a01b0316907f8be0079c531659141344cd1fd0a4f28419497f9722a3daafe3b4186f6b6457e0908390a3603380546001600160a01b0319908116909155603480549091169055565b6033546001600160a01b031690565b6060606b805461029290611486565b600080606860006106e1610875565b6001600160a01b039081168252602080830193909352604091820160009081209188168152925290205490508281101561072d5760405162461bcd60e51b8152600401610371906113a4565b610743610738610875565b856104ab868561146f565b5060019392505050565b600061032961075a610875565b848461092d565b6034546001600160a01b03166107895760405162461bcd60e51b815260040161037190611385565b610791610875565b6034546001600160a01b039081169116146107be5760405162461bcd60e51b81526004016103719061115e565b6034546033546040516001600160a01b0392831692909116907f8be0079c531659141344cd1fd0a4f28419497f9722a3daafe3b4186f6b6457e090600090a360348054603380546001600160a01b03199081166001600160a01b03841617909155169055565b6001600160a01b03918216600090815260686020908152604080832093909416825291909152205490565b60cb546001600160a01b0316331461086657600080fd5b61087281600019610ac7565b50565b3390565b6001600160a01b03831661089f5760405162461bcd60e51b815260040161037190611341565b6001600160a01b0382166108c55760405162461bcd60e51b81526004016103719061117e565b6001600160a01b0380841660008181526068602090815260408083209487168084529490915290819020849055517f8c5be1e5ebec7d5bd14f71427d1e84f3dd0314c0f7b2291e5b200ac8c7c3b92590610920908590611440565b60405180910390a3505050565b6001600160a01b0383166109535760405162461bcd60e51b8152600401610371906112fc565b6001600160a01b0382166109795760405162461bcd60e51b81526004016103719061111b565b61098483838361058b565b6001600160a01b038316600090815260676020526040902054818110156109bd5760405162461bcd60e51b815260040161037190611200565b6109c7828261146f565b6001600160a01b0380861660009081526067602052604080822093909355908516815290812080548492906109fd908490611457565b92505081905550826001600160a01b0316846001600160a01b03167fddf252ad1be2c89b69c2b068fc378daa952ba7f163c4a11628f55a4df523b3ef84604051610a479190611440565b60405180910390a350505050565b600054610100900460ff1680610a6e575060005460ff16155b610a8a5760405162461bcd60e51b815260040161037190611266565b600054610100900460ff16158015610ab5576000805460ff1961ff0019909116610100171660011790555b610abd610b87565b6105798383610c5b565b6001600160a01b038216610aed5760405162461bcd60e51b815260040161037190611409565b610af96000838361058b565b8060696000828254610b0b9190611457565b90915550506001600160a01b03821660009081526067602052604081208054839290610b38908490611457565b90915550506040516001600160a01b038316906000907fddf252ad1be2c89b69c2b068fc378daa952ba7f163c4a11628f55a4df523b3ef90610b7b908590611440565b60405180910390a35050565b600054610100900460ff1680610ba0575060005460ff16155b610bbc5760405162461bcd60e51b815260040161037190611266565b600054610100900460ff16158015610be7576000805460ff1961ff0019909116610100171660011790555b610bef610ccd565b6000610bf9610875565b603380546001600160a01b0319166001600160a01b038316908117909155604051919250906000907f8be0079c531659141344cd1fd0a4f28419497f9722a3daafe3b4186f6b6457e0908290a3508015610872576000805461ff001916905550565b600054610100900460ff1680610c74575060005460ff16155b610c905760405162461bcd60e51b815260040161037190611266565b600054610100900460ff16158015610cbb576000805460ff1961ff0019909116610100171660011790555b610cc3610d49565b6105798383610dbc565b600054610100900460ff1680610ce6575060005460ff16155b610d025760405162461bcd60e51b815260040161037190611266565b600054610100900460ff16158015610d2d576000805460ff1961ff0019909116610100171660011790555b610d35610d49565b8015610872576000805461ff001916905550565b600054610100900460ff1680610d62575060005460ff16155b610d7e5760405162461bcd60e51b815260040161037190611266565b600054610100900460ff16158015610d35576000805460ff1961ff0019909116610100171660011790558015610872576000805461ff001916905550565b600054610100900460ff1680610dd5575060005460ff16155b610df15760405162461bcd60e51b815260040161037190611266565b600054610100900460ff16158015610e1c576000805460ff1961ff0019909116610100171660011790555b8251610e2f90606a906020860190610e5a565b508151610e4390606b906020850190610e5a565b50801561058b576000805461ff0019169055505050565b828054610e6690611486565b90600052602060002090601f016020900481019282610e885760008555610ece565b82601f10610ea157805160ff1916838001178555610ece565b82800160010185558215610ece579182015b82811115610ece578251825591602001919060010190610eb3565b50610eda929150610ede565b5090565b5b80821115610eda5760008155600101610edf565b80356001600160a01b038116811461061a57600080fd5b600082601f830112610f1a578081fd5b813567ffffffffffffffff80821115610f3557610f356114d7565b604051601f8301601f19908116603f01168101908282118183101715610f5d57610f5d6114d7565b81604052838152866020858801011115610f75578485fd5b8360208701602083013792830160200193909352509392505050565b600060208284031215610fa2578081fd5b610fab82610ef3565b9392505050565b60008060408385031215610fc4578081fd5b610fcd83610ef3565b9150610fdb60208401610ef3565b90509250929050565b600080600060608486031215610ff8578081fd5b61100184610ef3565b925061100f60208501610ef3565b9150604084013590509250925092565b60008060408385031215611031578182fd5b61103a83610ef3565b946020939093013593505050565b6000806040838503121561105a578182fd5b823567ffffffffffffffff80821115611071578384fd5b61107d86838701610f0a565b93506020850135915080821115611092578283fd5b5061109f85828601610f0a565b9150509250929050565b6001600160a01b0391909116815260200190565b901515815260200190565b6000602080835283518082850152825b818110156110f4578581018301518582016040015282016110d8565b818111156111055783604083870101525b50601f01601f1916929092016040019392505050565b60208082526023908201527f45524332303a207472616e7366657220746f20746865207a65726f206164647260408201526265737360e81b606082015260800190565b602080825260069082015265534f5f434e4360d01b604082015260600190565b60208082526022908201527f45524332303a20617070726f766520746f20746865207a65726f206164647265604082015261737360f01b606082015260800190565b602080825260069082015265534f5f53414360d01b604082015260600190565b602080825260069082015265534f5f53414f60d01b604082015260600190565b60208082526026908201527f45524332303a207472616e7366657220616d6f756e7420657863656564732062604082015265616c616e636560d01b606082015260800190565b602080825260069082015265534f5f434e4f60d01b604082015260600190565b6020808252602e908201527f496e697469616c697a61626c653a20636f6e747261637420697320616c72656160408201526d191e481a5b9a5d1a585b1a5e995960921b606082015260800190565b60208082526028908201527f45524332303a207472616e7366657220616d6f756e74206578636565647320616040820152676c6c6f77616e636560c01b606082015260800190565b60208082526025908201527f45524332303a207472616e736665722066726f6d20746865207a65726f206164604082015264647265737360d81b606082015260800190565b60208082526024908201527f45524332303a20617070726f76652066726f6d20746865207a65726f206164646040820152637265737360e01b606082015260800190565b6020808252600590820152640534f5f43360dc1b604082015260600190565b60208082526025908201527f45524332303a2064656372656173656420616c6c6f77616e63652062656c6f77604082015264207a65726f60d81b606082015260800190565b6020808252600690820152650534f5f4e57360d41b604082015260600190565b6020808252601f908201527f45524332303a206d696e7420746f20746865207a65726f206164647265737300604082015260600190565b90815260200190565b60ff91909116815260200190565b6000821982111561146a5761146a6114c1565b500190565b600082821015611481576114816114c1565b500390565b60028104600182168061149a57607f821691505b602082108114156114bb57634e487b7160e01b600052602260045260246000fd5b50919050565b634e487b7160e01b600052601160045260246000fd5b634e487b7160e01b600052604160045260246000fdfea2646970667358221220bc8702c03a8f8c4e8088f73e5ed005146b543454647d8b27faf3e04218d60a0b64736f6c63430008010033",
    "linkReferences": {},
    "deployedLinkReferences": {}
}