{
    "_format": "hh-sol-artifact-1",
    "contractName": "SwapLogic",
    "sourceName": "contracts/swap/SwapLogic.sol",
    "abi": [
        {
            "anonymous": false,
            "inputs": [
                {
                    "indexed": false,
                    "internalType": "address",
                    "name": "inputCurrency",
                    "type": "address"
                },
                {
                    "indexed": false,
                    "internalType": "address",
                    "name": "outputCurrency",
                    "type": "address"
                },
                {
                    "indexed": false,
                    "internalType": "uint256",
                    "name": "inputAmount",
                    "type": "uint256"
                },
                {
                    "indexed": false,
                    "internalType": "uint256",
                    "name": "outputAmount",
                    "type": "uint256"
                },
                {
                    "indexed": false,
                    "internalType": "uint256",
                    "name": "fee",
                    "type": "uint256"
                },
                {
                    "indexed": false,
                    "internalType": "uint256",
                    "name": "feeRate",
                    "type": "uint256"
                }
            ],
            "name": "Deposit",
            "type": "event"
        },
        {
            "anonymous": false,
            "inputs": [
                {
                    "indexed": true,
                    "internalType": "address",
                    "name": "previousOwner",
                    "type": "address"
                },
                {
                    "indexed": true,
                    "internalType": "address",
                    "name": "newOwner",
                    "type": "address"
                }
            ],
            "name": "OwnershipTransferred",
            "type": "event"
        },
        {
            "anonymous": false,
            "inputs": [
                {
                    "indexed": false,
                    "internalType": "address",
                    "name": "inputCurrency",
                    "type": "address"
                },
                {
                    "indexed": false,
                    "internalType": "address",
                    "name": "outputCurrency",
                    "type": "address"
                },
                {
                    "indexed": false,
                    "internalType": "uint256",
                    "name": "inputAmount",
                    "type": "uint256"
                },
                {
                    "indexed": false,
                    "internalType": "uint256",
                    "name": "outputAmount",
                    "type": "uint256"
                },
                {
                    "indexed": false,
                    "internalType": "uint256",
                    "name": "fee",
                    "type": "uint256"
                },
                {
                    "indexed": false,
                    "internalType": "uint256",
                    "name": "feeRate",
                    "type": "uint256"
                }
            ],
            "name": "Swap",
            "type": "event"
        },
        {
            "anonymous": false,
            "inputs": [
                {
                    "indexed": false,
                    "internalType": "address",
                    "name": "currency",
                    "type": "address"
                },
                {
                    "indexed": false,
                    "internalType": "address",
                    "name": "receiver",
                    "type": "address"
                },
                {
                    "indexed": false,
                    "internalType": "uint256",
                    "name": "amount",
                    "type": "uint256"
                }
            ],
            "name": "Transfer",
            "type": "event"
        },
        {
            "inputs": [
                {
                    "internalType": "address",
                    "name": "target",
                    "type": "address"
                }
            ],
            "name": "allowed",
            "outputs": [
                {
                    "internalType": "bool",
                    "name": "",
                    "type": "bool"
                }
            ],
            "stateMutability": "view",
            "type": "function"
        },
        {
            "inputs": [
                {
                    "components": [
                        {
                            "internalType": "address",
                            "name": "currency",
                            "type": "address"
                        },
                        {
                            "internalType": "uint256",
                            "name": "amount",
                            "type": "uint256"
                        }
                    ],
                    "internalType": "struct ISwapLogic.CurrencyAmount",
                    "name": "input",
                    "type": "tuple"
                },
                {
                    "internalType": "address",
                    "name": "outputCurrency",
                    "type": "address"
                },
                {
                    "internalType": "address",
                    "name": "recipient",
                    "type": "address"
                },
                {
                    "internalType": "address",
                    "name": "to",
                    "type": "address"
                },
                {
                    "internalType": "bytes",
                    "name": "callData",
                    "type": "bytes"
                }
            ],
            "name": "deposit",
            "outputs": [],
            "stateMutability": "payable",
            "type": "function"
        },
        {
            "inputs": [],
            "name": "getFeeRate",
            "outputs": [
                {
                    "internalType": "uint256",
                    "name": "",
                    "type": "uint256"
                }
            ],
            "stateMutability": "view",
            "type": "function"
        },
        {
            "inputs": [],
            "name": "getFeeRecipient",
            "outputs": [
                {
                    "internalType": "address",
                    "name": "",
                    "type": "address"
                }
            ],
            "stateMutability": "view",
            "type": "function"
        },
        {
            "inputs": [],
            "name": "getVault",
            "outputs": [
                {
                    "internalType": "address",
                    "name": "",
                    "type": "address"
                }
            ],
            "stateMutability": "view",
            "type": "function"
        },
        {
            "inputs": [
                {
                    "internalType": "address",
                    "name": "vault",
                    "type": "address"
                },
                {
                    "internalType": "address",
                    "name": "feeRecipient",
                    "type": "address"
                },
                {
                    "internalType": "uint256",
                    "name": "feeRate",
                    "type": "uint256"
                },
                {
                    "components": [
                        {
                            "internalType": "address",
                            "name": "target",
                            "type": "address"
                        },
                        {
                            "internalType": "bool",
                            "name": "allowed",
                            "type": "bool"
                        }
                    ],
                    "internalType": "struct ISwapLogic.Whitelist[]",
                    "name": "whitelist",
                    "type": "tuple[]"
                }
            ],
            "name": "initialize",
            "outputs": [],
            "stateMutability": "nonpayable",
            "type": "function"
        },
        {
            "inputs": [],
            "name": "owner",
            "outputs": [
                {
                    "internalType": "address",
                    "name": "",
                    "type": "address"
                }
            ],
            "stateMutability": "view",
            "type": "function"
        },
        {
            "inputs": [],
            "name": "renounceOwnership",
            "outputs": [],
            "stateMutability": "nonpayable",
            "type": "function"
        },
        {
            "inputs": [
                {
                    "internalType": "uint256",
                    "name": "feeRate",
                    "type": "uint256"
                }
            ],
            "name": "setFeeRate",
            "outputs": [],
            "stateMutability": "nonpayable",
            "type": "function"
        },
        {
            "inputs": [
                {
                    "internalType": "address",
                    "name": "feeRecipient",
                    "type": "address"
                }
            ],
            "name": "setFeeRecipient",
            "outputs": [],
            "stateMutability": "nonpayable",
            "type": "function"
        },
        {
            "inputs": [
                {
                    "internalType": "address",
                    "name": "vault",
                    "type": "address"
                }
            ],
            "name": "setVault",
            "outputs": [],
            "stateMutability": "nonpayable",
            "type": "function"
        },
        {
            "inputs": [
                {
                    "components": [
                        {
                            "internalType": "address",
                            "name": "target",
                            "type": "address"
                        },
                        {
                            "internalType": "bool",
                            "name": "allowed",
                            "type": "bool"
                        }
                    ],
                    "internalType": "struct ISwapLogic.Whitelist[]",
                    "name": "whitelist",
                    "type": "tuple[]"
                }
            ],
            "name": "setWhitelist",
            "outputs": [],
            "stateMutability": "nonpayable",
            "type": "function"
        },
        {
            "inputs": [
                {
                    "components": [
                        {
                            "internalType": "address",
                            "name": "currency",
                            "type": "address"
                        },
                        {
                            "internalType": "uint256",
                            "name": "amount",
                            "type": "uint256"
                        }
                    ],
                    "internalType": "struct ISwapLogic.CurrencyAmount",
                    "name": "input",
                    "type": "tuple"
                },
                {
                    "internalType": "address",
                    "name": "outputCurrency",
                    "type": "address"
                },
                {
                    "internalType": "address",
                    "name": "recipient",
                    "type": "address"
                },
                {
                    "internalType": "address",
                    "name": "to",
                    "type": "address"
                },
                {
                    "internalType": "bytes",
                    "name": "callData",
                    "type": "bytes"
                }
            ],
            "name": "swap",
            "outputs": [],
            "stateMutability": "payable",
            "type": "function"
        },
        {
            "inputs": [
                {
                    "internalType": "address",
                    "name": "newOwner",
                    "type": "address"
                }
            ],
            "name": "transferOwnership",
            "outputs": [],
            "stateMutability": "nonpayable",
            "type": "function"
        },
        {
            "stateMutability": "payable",
            "type": "receive"
        }
    ],
    "bytecode": "0x60806040526000606555606680546001600160a01b031990811690915560678054909116905534801561003157600080fd5b50611488806100416000396000f3fe6080604052600436106100e15760003560e01c8063871d9b661161007f5780639c9b4442116100595780639c9b44421461020e578063d63a8e1114610221578063e74b981b1461024e578063f2fde38b1461026e576100e8565b8063871d9b66146101d15780638d928af8146101e45780638da5cb5b146101f9576100e8565b8063715018a6116100bb578063715018a61461015a5780637a85d9381461016f5780637c042d611461018f57806384e5eed0146101af576100e8565b806345596e2e146100ed5780634ccb20c01461010f5780636817031b1461013a576100e8565b366100e857005b600080fd5b3480156100f957600080fd5b5061010d610108366004611158565b61028e565b005b34801561011b57600080fd5b506101246102db565b6040516101319190611198565b60405180910390f35b34801561014657600080fd5b5061010d610155366004610f9c565b6102ea565b34801561016657600080fd5b5061010d61034b565b34801561017b57600080fd5b5061010d61018a366004610fbd565b6103d4565b34801561019b57600080fd5b5061010d6101aa36600461102a565b61047b565b3480156101bb57600080fd5b506101c4610576565b60405161013191906113b4565b61010d6101df3660046110a2565b61057c565b3480156101f057600080fd5b5061012461070f565b34801561020557600080fd5b5061012461071e565b61010d61021c3660046110a2565b61072d565b34801561022d57600080fd5b5061024161023c366004610f9c565b6107a9565b604051610131919061121f565b34801561025a57600080fd5b5061010d610269366004610f9c565b6107cb565b34801561027a57600080fd5b5061010d610289366004610f9c565b61082c565b6102966108ed565b6001600160a01b03166102a761071e565b6001600160a01b0316146102d65760405162461bcd60e51b81526004016102cd9061137f565b60405180910390fd5b606555565b6067546001600160a01b031690565b6102f26108ed565b6001600160a01b031661030361071e565b6001600160a01b0316146103295760405162461bcd60e51b81526004016102cd9061137f565b606680546001600160a01b0319166001600160a01b0392909216919091179055565b6103536108ed565b6001600160a01b031661036461071e565b6001600160a01b03161461038a5760405162461bcd60e51b81526004016102cd9061137f565b6033546040516000916001600160a01b0316907f8be0079c531659141344cd1fd0a4f28419497f9722a3daafe3b4186f6b6457e0908390a3603380546001600160a01b0319169055565b600054610100900460ff16806103ed575060005460ff16155b6104095760405162461bcd60e51b81526004016102cd90611331565b600054610100900460ff16158015610434576000805460ff1961ff0019909116610100171660011790555b61043c6108f1565b610445866102ea565b61044e856107cb565b6104578461028e565b610461838361047b565b8015610473576000805461ff00191690555b505050505050565b6104836108ed565b6001600160a01b031661049461071e565b6001600160a01b0316146104ba5760405162461bcd60e51b81526004016102cd9061137f565b60005b81811015610571578282828181106104e557634e487b7160e01b600052603260045260246000fd5b90506040020160200160208101906104fd919061106a565b6068600085858581811061052157634e487b7160e01b600052603260045260246000fd5b6105379260206040909202019081019150610f9c565b6001600160a01b031681526020810191909152604001600020805460ff19169115159190911790558061056981611413565b9150506104bd565b505050565b60655490565b60008061058c8888878787610976565b91509150600061059a610576565b905060006105a661070f565b90506001600160a01b03891673eeeeeeeeeeeeeeeeeeeeeeeeeeeeeeeeeeeeeeee1461064e5760405163095ea7b360e01b81526001600160a01b038a169063095ea7b3906105fa9084908890600401611206565b602060405180830381600087803b15801561061457600080fd5b505af1158015610628573d6000803e3d6000fd5b505050506040513d601f19601f8201168201806040525081019061064c9190611086565b505b60405163b3db428b60e01b81526001600160a01b0382169063b3db428b9061067e908b908d9089906004016111ac565b600060405180830381600087803b15801561069857600080fd5b505af11580156106ac573d6000803e3d6000fd5b507f5f971bd00bf3ffbca8a6d72cdd4fd92cfd4f62636161921d1e5a64f0b64ccb6d92506106e091505060208c018c610f9c565b8a8c602001358787876040516106fb969594939291906111d0565b60405180910390a150505050505050505050565b6066546001600160a01b031690565b6033546001600160a01b031690565b60008061073d8888878787610976565b9150915061074c878784610c28565b7fb3e2773606abfd36b5bd91394b3a54d1398336c65005baf7bf7a05efeffaf75b61077a60208a018a610f9c565b888a602001358585606554604051610797969594939291906111d0565b60405180910390a15050505050505050565b6001600160a01b03811660009081526068602052604090205460ff165b919050565b6107d36108ed565b6001600160a01b03166107e461071e565b6001600160a01b03161461080a5760405162461bcd60e51b81526004016102cd9061137f565b606780546001600160a01b0319166001600160a01b0392909216919091179055565b6108346108ed565b6001600160a01b031661084561071e565b6001600160a01b03161461086b5760405162461bcd60e51b81526004016102cd9061137f565b6001600160a01b0381166108915760405162461bcd60e51b81526004016102cd906112b4565b6033546040516001600160a01b038084169216907f8be0079c531659141344cd1fd0a4f28419497f9722a3daafe3b4186f6b6457e090600090a3603380546001600160a01b0319166001600160a01b0392909216919091179055565b3390565b600054610100900460ff168061090a575060005460ff16155b6109265760405162461bcd60e51b81526004016102cd90611331565b600054610100900460ff16158015610951576000805460ff1961ff0019909116610100171660011790555b610959610d4b565b610961610dbe565b8015610973576000805461ff00191690555b50565b600080610982856107a9565b61099e5760405162461bcd60e51b81526004016102cd906112fa565b73eeeeeeeeeeeeeeeeeeeeeeeeeeeeeeeeeeeeeeee6109c06020890189610f9c565b6001600160a01b031614156109f85786602001353410156109f35760405162461bcd60e51b81526004016102cd9061127d565b610b1d565b610a056020880188610f9c565b6001600160a01b03166323b872dd33308a602001356040518463ffffffff1660e01b8152600401610a38939291906111ac565b602060405180830381600087803b158015610a5257600080fd5b505af1158015610a66573d6000803e3d6000fd5b505050506040513d601f19601f82011682018060405250810190610a8a9190611086565b50610a986020880188610f9c565b6001600160a01b031663095ea7b38689602001356040518363ffffffff1660e01b8152600401610ac9929190611206565b602060405180830381600087803b158015610ae357600080fd5b505af1158015610af7573d6000803e3d6000fd5b505050506040513d601f19601f82011682018060405250810190610b1b9190611086565b505b600080866001600160a01b0316348787604051610b3b929190611188565b60006040518083038185875af1925050503d8060008114610b78576040519150601f19603f3d011682016040523d82523d6000602084013e610b7d565b606091505b5091509150818190610ba25760405162461bcd60e51b81526004016102cd919061122a565b506000610bae89610e8a565b9050600080610bbb610576565b90506000610bc76102db565b9050600082118015610be157506001600160a01b03811615155b15610c1657612710610bf383866113dd565b610bfd91906113bd565b9250610c0983856113fc565b9350610c168c8285610c28565b50919b909a5098505050505050505050565b6001600160a01b03831673eeeeeeeeeeeeeeeeeeeeeeeeeeeeeeeeeeeeeeee1415610c89576040516001600160a01b0383169082156108fc029083906000818181858888f19350505050158015610c83573d6000803e3d6000fd5b50610d0b565b60405163a9059cbb60e01b81526001600160a01b0384169063a9059cbb90610cb79085908590600401611206565b602060405180830381600087803b158015610cd157600080fd5b505af1158015610ce5573d6000803e3d6000fd5b505050506040513d601f19601f82011682018060405250810190610d099190611086565b505b7fddf252ad1be2c89b69c2b068fc378daa952ba7f163c4a11628f55a4df523b3ef838383604051610d3e939291906111ac565b60405180910390a1505050565b600054610100900460ff1680610d64575060005460ff16155b610d805760405162461bcd60e51b81526004016102cd90611331565b600054610100900460ff16158015610961576000805460ff1961ff0019909116610100171660011790558015610973576000805461ff001916905550565b600054610100900460ff1680610dd7575060005460ff16155b610df35760405162461bcd60e51b81526004016102cd90611331565b600054610100900460ff16158015610e1e576000805460ff1961ff0019909116610100171660011790555b6000610e286108ed565b603380546001600160a01b0319166001600160a01b038316908117909155604051919250906000907f8be0079c531659141344cd1fd0a4f28419497f9722a3daafe3b4186f6b6457e0908290a3508015610973576000805461ff001916905550565b60006001600160a01b03821673eeeeeeeeeeeeeeeeeeeeeeeeeeeeeeeeeeeeeeee1415610eb85750476107c6565b6040516370a0823160e01b81526001600160a01b038316906370a0823190610ee4903090600401611198565b60206040518083038186803b158015610efc57600080fd5b505afa158015610f10573d6000803e3d6000fd5b505050506040513d601f19601f82011682018060405250810190610f349190611170565b90506107c6565b80356001600160a01b03811681146107c657600080fd5b60008083601f840112610f63578182fd5b50813567ffffffffffffffff811115610f7a578182fd5b602083019150836020604083028501011115610f9557600080fd5b9250929050565b600060208284031215610fad578081fd5b610fb682610f3b565b9392505050565b600080600080600060808688031215610fd4578081fd5b610fdd86610f3b565b9450610feb60208701610f3b565b935060408601359250606086013567ffffffffffffffff81111561100d578182fd5b61101988828901610f52565b969995985093965092949392505050565b6000806020838503121561103c578182fd5b823567ffffffffffffffff811115611052578283fd5b61105e85828601610f52565b90969095509350505050565b60006020828403121561107b578081fd5b8135610fb681611444565b600060208284031215611097578081fd5b8151610fb681611444565b60008060008060008086880360c08112156110bb578182fd5b60408112156110c8578182fd5b508695506110d860408801610f3b565b94506110e660608801610f3b565b93506110f460808801610f3b565b925060a087013567ffffffffffffffff80821115611110578283fd5b818901915089601f830112611123578283fd5b813581811115611131578384fd5b8a6020828501011115611142578384fd5b6020830194508093505050509295509295509295565b600060208284031215611169578081fd5b5035919050565b600060208284031215611181578081fd5b5051919050565b6000828483379101908152919050565b6001600160a01b0391909116815260200190565b6001600160a01b039384168152919092166020820152604081019190915260600190565b6001600160a01b03968716815294909516602085015260408401929092526060830152608082015260a081019190915260c00190565b6001600160a01b03929092168252602082015260400190565b901515815260200190565b6000602080835283518082850152825b818110156112565785810183015185820160400152820161123a565b818111156112675783604083870101525b50601f01601f1916929092016040019392505050565b6020808252601a908201527f537761703a20496e73756666696369656e742062616c616e6365000000000000604082015260600190565b60208082526026908201527f4f776e61626c653a206e6577206f776e657220697320746865207a65726f206160408201526564647265737360d01b606082015260800190565b60208082526019908201527f537761703a2061646472657373206e6f7420616c6c6f77656400000000000000604082015260600190565b6020808252602e908201527f496e697469616c697a61626c653a20636f6e747261637420697320616c72656160408201526d191e481a5b9a5d1a585b1a5e995960921b606082015260800190565b6020808252818101527f4f776e61626c653a2063616c6c6572206973206e6f7420746865206f776e6572604082015260600190565b90815260200190565b6000826113d857634e487b7160e01b81526012600452602481fd5b500490565b60008160001904831182151516156113f7576113f761142e565b500290565b60008282101561140e5761140e61142e565b500390565b60006000198214156114275761142761142e565b5060010190565b634e487b7160e01b600052601160045260246000fd5b801515811461097357600080fdfea2646970667358221220df32ca8024a924342a3ad1f5c307695848611075d804f2d5aac80be7b192e32564736f6c63430008010033",
    "linkReferences": {},
    "deployedLinkReferences": {}
}