{
    "_format": "hh-sol-artifact-1",
    "contractName": "Vault",
    "sourceName": "contracts/settlement/Vault.sol",
    "abi": [
        {
            "anonymous": false,
            "inputs": [
                {
                    "indexed": true,
                    "internalType": "address",
                    "name": "collateralToken",
                    "type": "address"
                },
                {
                    "indexed": true,
                    "internalType": "address",
                    "name": "trader",
                    "type": "address"
                },
                {
                    "indexed": false,
                    "internalType": "uint256",
                    "name": "amount",
                    "type": "uint256"
                }
            ],
            "name": "Deposited",
            "type": "event"
        },
        {
            "anonymous": false,
            "inputs": [
                {
                    "indexed": true,
                    "internalType": "address",
                    "name": "previousOwner",
                    "type": "address"
                },
                {
                    "indexed": true,
                    "internalType": "address",
                    "name": "newOwner",
                    "type": "address"
                }
            ],
            "name": "OwnershipTransferred",
            "type": "event"
        },
        {
            "anonymous": false,
            "inputs": [
                {
                    "indexed": false,
                    "internalType": "address",
                    "name": "account",
                    "type": "address"
                }
            ],
            "name": "Paused",
            "type": "event"
        },
        {
            "anonymous": false,
            "inputs": [
                {
                    "indexed": false,
                    "internalType": "address",
                    "name": "trustedForwarder",
                    "type": "address"
                }
            ],
            "name": "TrustedForwarderUpdated",
            "type": "event"
        },
        {
            "anonymous": false,
            "inputs": [
                {
                    "indexed": false,
                    "internalType": "address",
                    "name": "account",
                    "type": "address"
                }
            ],
            "name": "Unpaused",
            "type": "event"
        },
        {
            "anonymous": false,
            "inputs": [
                {
                    "indexed": true,
                    "internalType": "address",
                    "name": "collateralToken",
                    "type": "address"
                },
                {
                    "indexed": true,
                    "internalType": "address",
                    "name": "trader",
                    "type": "address"
                },
                {
                    "indexed": false,
                    "internalType": "uint256",
                    "name": "amount",
                    "type": "uint256"
                }
            ],
            "name": "Withdrawn",
            "type": "event"
        },
        {
            "inputs": [],
            "name": "candidate",
            "outputs": [
                {
                    "internalType": "address",
                    "name": "",
                    "type": "address"
                }
            ],
            "stateMutability": "view",
            "type": "function"
        },
        {
            "inputs": [],
            "name": "decimals",
            "outputs": [
                {
                    "internalType": "uint8",
                    "name": "",
                    "type": "uint8"
                }
            ],
            "stateMutability": "view",
            "type": "function"
        },
        {
            "inputs": [
                {
                    "internalType": "address",
                    "name": "token",
                    "type": "address"
                },
                {
                    "internalType": "uint256",
                    "name": "amount",
                    "type": "uint256"
                }
            ],
            "name": "deposit",
            "outputs": [],
            "stateMutability": "nonpayable",
            "type": "function"
        },
        {
            "inputs": [
                {
                    "internalType": "address",
                    "name": "to",
                    "type": "address"
                },
                {
                    "internalType": "address",
                    "name": "token",
                    "type": "address"
                },
                {
                    "internalType": "uint256",
                    "name": "amount",
                    "type": "uint256"
                }
            ],
            "name": "depositFor",
            "outputs": [],
            "stateMutability": "nonpayable",
            "type": "function"
        },
        {
            "inputs": [
                {
                    "internalType": "address",
                    "name": "trader",
                    "type": "address"
                }
            ],
            "name": "getBalance",
            "outputs": [
                {
                    "internalType": "int256",
                    "name": "",
                    "type": "int256"
                }
            ],
            "stateMutability": "view",
            "type": "function"
        },
        {
            "inputs": [],
            "name": "getClearingHouse",
            "outputs": [
                {
                    "internalType": "address",
                    "name": "",
                    "type": "address"
                }
            ],
            "stateMutability": "view",
            "type": "function"
        },
        {
            "inputs": [],
            "name": "getClearingHouseConfig",
            "outputs": [
                {
                    "internalType": "address",
                    "name": "",
                    "type": "address"
                }
            ],
            "stateMutability": "view",
            "type": "function"
        },
        {
            "inputs": [
                {
                    "internalType": "address",
                    "name": "trader",
                    "type": "address"
                }
            ],
            "name": "getFreeCollateral",
            "outputs": [
                {
                    "internalType": "uint256",
                    "name": "",
                    "type": "uint256"
                }
            ],
            "stateMutability": "view",
            "type": "function"
        },
        {
            "inputs": [
                {
                    "internalType": "address",
                    "name": "trader",
                    "type": "address"
                },
                {
                    "internalType": "uint24",
                    "name": "ratio",
                    "type": "uint24"
                }
            ],
            "name": "getFreeCollateralByRatio",
            "outputs": [
                {
                    "internalType": "int256",
                    "name": "",
                    "type": "int256"
                }
            ],
            "stateMutability": "view",
            "type": "function"
        },
        {
            "inputs": [],
            "name": "getInsuranceFund",
            "outputs": [
                {
                    "internalType": "address",
                    "name": "",
                    "type": "address"
                }
            ],
            "stateMutability": "view",
            "type": "function"
        },
        {
            "inputs": [],
            "name": "getMarketTaker",
            "outputs": [
                {
                    "internalType": "address",
                    "name": "",
                    "type": "address"
                }
            ],
            "stateMutability": "view",
            "type": "function"
        },
        {
            "inputs": [],
            "name": "getPositionMgmt",
            "outputs": [
                {
                    "internalType": "address",
                    "name": "",
                    "type": "address"
                }
            ],
            "stateMutability": "view",
            "type": "function"
        },
        {
            "inputs": [],
            "name": "getSettlementToken",
            "outputs": [
                {
                    "internalType": "address",
                    "name": "",
                    "type": "address"
                }
            ],
            "stateMutability": "view",
            "type": "function"
        },
        {
            "inputs": [],
            "name": "getTotalDebt",
            "outputs": [
                {
                    "internalType": "uint256",
                    "name": "",
                    "type": "uint256"
                }
            ],
            "stateMutability": "view",
            "type": "function"
        },
        {
            "inputs": [],
            "name": "getTrustedForwarder",
            "outputs": [
                {
                    "internalType": "address",
                    "name": "",
                    "type": "address"
                }
            ],
            "stateMutability": "view",
            "type": "function"
        },
        {
            "inputs": [
                {
                    "internalType": "address",
                    "name": "insuranceFundArg",
                    "type": "address"
                },
                {
                    "internalType": "address",
                    "name": "clearingHouseConfigArg",
                    "type": "address"
                },
                {
                    "internalType": "address",
                    "name": "positionMgmtArg",
                    "type": "address"
                },
                {
                    "internalType": "address",
                    "name": "marketTakerArg",
                    "type": "address"
                }
            ],
            "name": "initialize",
            "outputs": [],
            "stateMutability": "nonpayable",
            "type": "function"
        },
        {
            "inputs": [
                {
                    "internalType": "address",
                    "name": "forwarder",
                    "type": "address"
                }
            ],
            "name": "isTrustedForwarder",
            "outputs": [
                {
                    "internalType": "bool",
                    "name": "",
                    "type": "bool"
                }
            ],
            "stateMutability": "view",
            "type": "function"
        },
        {
            "inputs": [],
            "name": "owner",
            "outputs": [
                {
                    "internalType": "address",
                    "name": "",
                    "type": "address"
                }
            ],
            "stateMutability": "view",
            "type": "function"
        },
        {
            "inputs": [],
            "name": "pause",
            "outputs": [],
            "stateMutability": "nonpayable",
            "type": "function"
        },
        {
            "inputs": [],
            "name": "paused",
            "outputs": [
                {
                    "internalType": "bool",
                    "name": "",
                    "type": "bool"
                }
            ],
            "stateMutability": "view",
            "type": "function"
        },
        {
            "inputs": [],
            "name": "renounceOwnership",
            "outputs": [],
            "stateMutability": "nonpayable",
            "type": "function"
        },
        {
            "inputs": [
                {
                    "internalType": "address",
                    "name": "clearingHouseArg",
                    "type": "address"
                }
            ],
            "name": "setClearingHouse",
            "outputs": [],
            "stateMutability": "nonpayable",
            "type": "function"
        },
        {
            "inputs": [
                {
                    "internalType": "address",
                    "name": "newOwner",
                    "type": "address"
                }
            ],
            "name": "setOwner",
            "outputs": [],
            "stateMutability": "nonpayable",
            "type": "function"
        },
        {
            "inputs": [
                {
                    "internalType": "address",
                    "name": "trustedForwarderArg",
                    "type": "address"
                }
            ],
            "name": "setTrustedForwarder",
            "outputs": [],
            "stateMutability": "nonpayable",
            "type": "function"
        },
        {
            "inputs": [],
            "name": "unpause",
            "outputs": [],
            "stateMutability": "nonpayable",
            "type": "function"
        },
        {
            "inputs": [],
            "name": "updateOwner",
            "outputs": [],
            "stateMutability": "nonpayable",
            "type": "function"
        },
        {
            "inputs": [],
            "name": "versionRecipient",
            "outputs": [
                {
                    "internalType": "string",
                    "name": "",
                    "type": "string"
                }
            ],
            "stateMutability": "pure",
            "type": "function"
        },
        {
            "inputs": [
                {
                    "internalType": "address",
                    "name": "token",
                    "type": "address"
                },
                {
                    "internalType": "uint256",
                    "name": "amount",
                    "type": "uint256"
                }
            ],
            "name": "withdraw",
            "outputs": [],
            "stateMutability": "nonpayable",
            "type": "function"
        }
    ],
    "bytecode": "0x608060405234801561001057600080fd5b506128da806100206000396000f3fe608060405234801561001057600080fd5b50600436106101c45760003560e01c8063715018a6116100f9578063c399944411610097578063da74222811610071578063da74222814610322578063f3fef3a314610335578063f8b2cb4f14610348578063f8c8765e1461035b576101c4565b8063c3999444146102ff578063c575ff7914610312578063ce1b815f1461031a576101c4565b80638e8499ba116100d35780638e8499ba146102d4578063aa2a8294146102dc578063b3db428b146102e4578063bc5920ba146102f7576101c4565b8063715018a6146102bc5780638456cb59146102c45780638da5cb5b146102cc576101c4565b8063449323d81161016657806355338fc11161014057806355338fc114610284578063572b6c051461028c5780635c975abb146102ac5780636c8381f8146102b4576101c4565b8063449323d81461024957806347e7ef241461025c578063486ff0cd1461026f576101c4565b8063313ce567116101a2578063313ce5671461020457806334ce998a146102195780633f4ba83a1461022e5780633ffd130314610236576101c4565b806312803c7d146101c957806313af4035146101e7578063158626f7146101fc575b600080fd5b6101d161036e565b6040516101de91906120f0565b60405180910390f35b6101fa6101f5366004611f06565b610384565b005b6101d1610470565b61020c610480565b6040516101de919061260b565b61022161048a565b6040516101de919061214c565b6101fa610491565b610221610244366004611fd9565b6104da565b6101fa610257366004611f06565b610684565b6101fa61026a366004612011565b610714565b6102776107b8565b6040516101de9190612155565b6101d16107d7565b61029f61029a366004611f06565b6107e7565b6040516101de9190612141565b61029f6107fb565b6101d1610804565b6101fa610813565b6101fa6108a8565b6101d16108ef565b6101d16108fe565b6101d161090e565b6101fa6102f2366004611f99565b61091e565b6101fa6109e9565b61022161030d366004611f06565b610aac565b6101d1610b51565b6101d1610b61565b6101fa610330366004611f06565b610b70565b6101fa610343366004612011565b610be9565b610221610356366004611f06565b610fa0565b6101fa610369366004611f3e565b610fd3565b6101305461010090046001600160a01b03165b90565b61038c611267565b6001600160a01b031661039d6108ef565b6001600160a01b0316146103cc5760405162461bcd60e51b81526004016103c3906122d7565b60405180910390fd5b6001600160a01b0381166103f25760405162461bcd60e51b81526004016103c3906125cb565b6065546001600160a01b03828116911614156104205760405162461bcd60e51b81526004016103c3906122b7565b6066546001600160a01b038281169116141561044e5760405162461bcd60e51b81526004016103c390612258565b606680546001600160a01b0319166001600160a01b0392909216919091179055565b610133546001600160a01b031690565b6101305460ff1690565b6101365490565b610499611267565b6001600160a01b03166104aa6108ef565b6001600160a01b0316146104d05760405162461bcd60e51b81526004016103c3906122d7565b6104d8611276565b565b610134546040516380f57f1160e01b815260009182916001600160a01b03909116906380f57f11906105109087906004016120f0565b60206040518083038186803b15801561052857600080fd5b505afa15801561053c573d6000803e3d6000fd5b505050506040513d601f19601f82011682018060405250810190610560919061205c565b610132546040516313ea7c8960e01b815291925060009182916001600160a01b0316906313ea7c89906105979089906004016120f0565b604080518083038186803b1580156105ae57600080fd5b505afa1580156105c2573d6000803e3d6000fd5b505050506040513d601f19601f820116820180604052508101906105e69190612074565b6101305491935091506000906106099060ff1661060386866127c3565b906112e4565b61061288610fa0565b61061c9190612619565b6101305490915060009061063490849060ff166112e4565b61063e9083612619565b9050600061064c898961130d565b610130549091506106639060ff16610603836113a7565b61066d84846113d4565b61067791906127c3565b9998505050505050505050565b61068c611267565b6001600160a01b031661069d6108ef565b6001600160a01b0316146106c35760405162461bcd60e51b81526004016103c3906122d7565b6106d5816001600160a01b03166113ea565b6106f15760405162461bcd60e51b81526004016103c39061233d565b61013580546001600160a01b0319166001600160a01b0392909216919091179055565b61071c6107fb565b156107395760405162461bcd60e51b81526004016103c39061239d565b6002600154141561075c5760405162461bcd60e51b81526004016103c390612594565b60026001556101305482906001600160a01b0380831661010090920416146107965760405162461bcd60e51b81526004016103c390612278565b60006107a0611267565b90506107ae818286866113f0565b5050600180555050565b6040805180820190915260058152640322e302e360dc1b602082015290565b610134546001600160a01b031690565b60fd546001600160a01b0390811691161490565b60995460ff1690565b6066546001600160a01b031690565b61081b611267565b6001600160a01b031661082c6108ef565b6001600160a01b0316146108525760405162461bcd60e51b81526004016103c3906122d7565b6065546040516000916001600160a01b0316907f8be0079c531659141344cd1fd0a4f28419497f9722a3daafe3b4186f6b6457e0908390a3606580546001600160a01b0319908116909155606680549091169055565b6108b0611267565b6001600160a01b03166108c16108ef565b6001600160a01b0316146108e75760405162461bcd60e51b81526004016103c3906122d7565b6104d861169e565b6065546001600160a01b031690565b610132546001600160a01b031690565b610131546001600160a01b031690565b6109266107fb565b156109435760405162461bcd60e51b81526004016103c39061239d565b600260015414156109665760405162461bcd60e51b81526004016103c390612594565b60026001556101305482906001600160a01b0380831661010090920416146109a05760405162461bcd60e51b81526004016103c390612278565b6001600160a01b0384166109c65760405162461bcd60e51b81526004016103c39061237d565b60006109d0611267565b90506109de818686866113f0565b505060018055505050565b6066546001600160a01b0316610a115760405162461bcd60e51b81526004016103c390612575565b610a19611267565b6066546001600160a01b03908116911614610a465760405162461bcd60e51b81526004016103c3906121ca565b6066546065546040516001600160a01b0392831692909116907f8be0079c531659141344cd1fd0a4f28419497f9722a3daafe3b4186f6b6457e090600090a360668054606580546001600160a01b03199081166001600160a01b03841617909155169055565b6000610b4b610b46610b3f8461013160009054906101000a90046001600160a01b03166001600160a01b031663543ce73a6040518163ffffffff1660e01b815260040160206040518083038186803b158015610b0757600080fd5b505afa158015610b1b573d6000803e3d6000fd5b505050506040513d601f19601f820116820180604052508101906102449190612097565b60006116f9565b611709565b92915050565b610135546001600160a01b031690565b60fd546001600160a01b031690565b610b78611267565b6001600160a01b0316610b896108ef565b6001600160a01b031614610baf5760405162461bcd60e51b81526004016103c3906122d7565b610bc1816001600160a01b03166113ea565b610bdd5760405162461bcd60e51b81526004016103c39061246c565b610be68161172b565b50565b610bf16107fb565b15610c0e5760405162461bcd60e51b81526004016103c39061239d565b60026001541415610c315760405162461bcd60e51b81526004016103c390612594565b60026001556101305482906001600160a01b038083166101009092041614610c6b5760405162461bcd60e51b81526004016103c390612278565b6000610c75611267565b610135546040516375cdc89760e11b81529192506001600160a01b03169063eb9b912e90610ca79084906004016120f0565b600060405180830381600087803b158015610cc157600080fd5b505af1158015610cd5573d6000803e3d6000fd5b50506101325460405163fd6ceee560e01b8152600093506001600160a01b03909116915063fd6ceee590610d0d9085906004016120f0565b602060405180830381600087803b158015610d2757600080fd5b505af1158015610d3b573d6000803e3d6000fd5b505050506040513d601f19601f82011682018060405250810190610d5f919061205c565b90506000610db68361013160009054906101000a90046001600160a01b03166001600160a01b031663543ce73a6040518163ffffffff1660e01b815260040160206040518083038186803b158015610b0757600080fd5b9050610dc1856113a7565b61013054610dd390849060ff166112e4565b610ddd9083612619565b1215610dfb5760405162461bcd60e51b81526004016103c3906124c3565b6040516370a0823160e01b81526000906001600160a01b038816906370a0823190610e2a9030906004016120f0565b60206040518083038186803b158015610e4257600080fd5b505afa158015610e56573d6000803e3d6000fd5b505050506040513d601f19601f82011682018060405250810190610e7a919061205c565b905085811015610f0e576000610e908288612802565b6101335460405163317afabb60e21b81529192506001600160a01b03169063c5ebeaec90610ec290849060040161214c565b600060405180830381600087803b158015610edc57600080fd5b505af1158015610ef0573d6000803e3d6000fd5b50505050806101366000828254610f07919061265a565b9091555050505b610f3d8488610f1c896113a7565b61013054610f2e90889060ff166112e4565b610f3891906127c3565b611781565b610f488785886117e5565b836001600160a01b0316876001600160a01b03167fd1c19fbcd4551a5edfb66d43d2e337c04837afda3482b42bdf569a8fccdae5fb88604051610f8b919061214c565b60405180910390a35050600180555050505050565b6001600160a01b039081166000908152610137602090815260408083206101305461010090049094168352929052205490565b600054610100900460ff1680610fec575060005460ff16155b6110085760405162461bcd60e51b81526004016103c39061241e565b600054610100900460ff16158015611033576000805460ff1961ff0019909116610100171660011790555b6000856001600160a01b03166321df0da76040518163ffffffff1660e01b815260040160206040518083038186803b15801561106e57600080fd5b505afa158015611082573d6000803e3d6000fd5b505050506040513d601f19601f820116820180604052508101906110a69190611f22565b90506000816001600160a01b031663313ce5676040518163ffffffff1660e01b815260040160206040518083038186803b1580156110e357600080fd5b505afa1580156110f7573d6000803e3d6000fd5b505050506040513d601f19601f8201168201806040525081019061111b91906120b3565b905060128160ff1611156111415760405162461bcd60e51b81526004016103c3906125eb565b611153866001600160a01b03166113ea565b61116f5760405162461bcd60e51b81526004016103c390612218565b611181856001600160a01b03166113ea565b61119d5760405162461bcd60e51b81526004016103c390612297565b6111af846001600160a01b03166113ea565b6111cb5760405162461bcd60e51b81526004016103c39061235d565b6111d3611840565b6111db6118bc565b610130805460ff191660ff9290921691909117610100600160a81b0319166101006001600160a01b039384160217905561013380546001600160a01b031990811688841617909155610131805482168784161790556101328054821686841617905561013480549091169184169190911790558015611260576000805461ff00191690555b5050505050565b600061127161192c565b905090565b61127e6107fb565b61129a5760405162461bcd60e51b81526004016103c3906121ea565b6099805460ff191690557f5db9ee0a495bf2e6ff9c91a7834c1ba4fdd244a5e8aa4e537bd38aeae4b073aa6112cd611267565b6040516112da91906120f0565b60405180910390a1565b60006112f1826012612819565b6112fc90600a6126f2565b6113069084612672565b9392505050565b6101325460405163293a507760e01b815260009182916001600160a01b039091169063293a5077906113439087906004016120f0565b60206040518083038186803b15801561135b57600080fd5b505afa15801561136f573d6000803e3d6000fd5b505050506040513d601f19601f82011682018060405250810190611393919061205c565b905061139f818461195c565b949350505050565b60006001600160ff1b038211156113d05760405162461bcd60e51b81526004016103c3906124e3565b5090565b60008183126113e35781611306565b5090919050565b3b151590565b6113fe8383610f38846113a7565b6040516370a0823160e01b81526000906001600160a01b038416906370a082319061142d9030906004016120f0565b60206040518083038186803b15801561144557600080fd5b505afa158015611459573d6000803e3d6000fd5b505050506040513d601f19601f8201168201806040525081019061147d919061205c565b905061148b83863085611971565b8181846001600160a01b03166370a08231306040518263ffffffff1660e01b81526004016114b991906120f0565b60206040518083038186803b1580156114d157600080fd5b505afa1580156114e5573d6000803e3d6000fd5b505050506040513d601f19601f82011682018060405250810190611509919061205c565b6115139190612802565b146115305760405162461bcd60e51b81526004016103c390612239565b61013154604080516385eacc7760e01b815290516000926001600160a01b0316916385eacc77916004808301926020929190829003018186803b15801561157657600080fd5b505afa15801561158a573d6000803e3d6000fd5b505050506040513d601f19601f820116820180604052508101906115ae919061205c565b905080846001600160a01b03166370a08231306040518263ffffffff1660e01b81526004016115dd91906120f0565b60206040518083038186803b1580156115f557600080fd5b505afa158015611609573d6000803e3d6000fd5b505050506040513d601f19601f8201168201806040525081019061162d919061205c565b111561164b5760405162461bcd60e51b81526004016103c3906123c7565b846001600160a01b0316846001600160a01b03167f8752a472e571a816aea92eec8dae9baf628e840f4929fbcc2d155e6233ff68a78560405161168e919061214c565b60405180910390a3505050505050565b6116a66107fb565b156116c35760405162461bcd60e51b81526004016103c39061239d565b6099805460ff191660011790557f62e78cea01bee320cd4e420270b5ea74000d11b0c9f74754ebdbfc544b05a2586112cd611267565b6000818312156113e35781611306565b6000808212156113d05760405162461bcd60e51b81526004016103c3906123e9565b60fd80546001600160a01b0319166001600160a01b0383161790556040517fa4388ecc389b1390354ae0c65a856c0d7dd4fb648419f5d3ac0b99e38f46fd11906117769083906120f0565b60405180910390a150565b6001600160a01b03808416600090815261013760209081526040808320938616835292905220546117b3908290612619565b6001600160a01b0393841660009081526101376020908152604080832095909616825293909352929091209190915550565b61183b8363a9059cbb60e01b8484604051602401611804929190612128565b60408051601f198184030181529190526020810180516001600160e01b03166001600160e01b031990931692909217909152611998565b505050565b600054610100900460ff1680611859575060005460ff16155b6118755760405162461bcd60e51b81526004016103c39061241e565b600054610100900460ff161580156118a0576000805460ff1961ff0019909116610100171660011790555b6118a8611a27565b8015610be6576000805461ff001916905550565b600054610100900460ff16806118d5575060005460ff16155b6118f15760405162461bcd60e51b81526004016103c39061241e565b600054610100900460ff1615801561191c576000805460ff1961ff0019909116610100171660011790555b611924611a9f565b6118a8611b73565b6000601436108015906119435750611943336107e7565b15611957575060131936013560601c610381565b503390565b6000611306838362ffffff16620f4240611be3565b611992846323b872dd60e01b85858560405160240161180493929190612104565b50505050565b60006119ed826040518060400160405280602081526020017f5361666545524332303a206c6f772d6c6576656c2063616c6c206661696c6564815250856001600160a01b0316611ca99092919063ffffffff16565b80519091501561183b5780806020019051810190611a0b919061203c565b61183b5760405162461bcd60e51b81526004016103c39061252b565b600054610100900460ff1680611a40575060005460ff16155b611a5c5760405162461bcd60e51b81526004016103c39061241e565b600054610100900460ff16158015611a87576000805460ff1961ff0019909116610100171660011790555b600180558015610be6576000805461ff001916905550565b600054610100900460ff1680611ab8575060005460ff16155b611ad45760405162461bcd60e51b81526004016103c39061241e565b600054610100900460ff16158015611aff576000805460ff1961ff0019909116610100171660011790555b611b07611cb8565b6000611b11611267565b606580546001600160a01b0319166001600160a01b038316908117909155604051919250906000907f8be0079c531659141344cd1fd0a4f28419497f9722a3daafe3b4186f6b6457e0908290a3508015610be6576000805461ff001916905550565b600054610100900460ff1680611b8c575060005460ff16155b611ba85760405162461bcd60e51b81526004016103c39061241e565b600054610100900460ff16158015611bd3576000805460ff1961ff0019909116610100171660011790555b611bdb611d1c565b6118a8611d8f565b600080806000198587098587029250828110838203039150508060001415611c305760008411611c255760405162461bcd60e51b81526004016103c390612188565b508290049050611306565b808411611c3c57600080fd5b6000848688096000868103871696879004966002600389028118808a02820302808a02820302808a02820302808a02820302808a02820302808a02909103029181900381900460010186841190950394909402919094039290920491909117919091029150509392505050565b606061139f8484600085611e0d565b600054610100900460ff1680611cd1575060005460ff16155b611ced5760405162461bcd60e51b81526004016103c39061241e565b600054610100900460ff16158015611d18576000805460ff1961ff0019909116610100171660011790555b6118a85b600054610100900460ff1680611d35575060005460ff16155b611d515760405162461bcd60e51b81526004016103c39061241e565b600054610100900460ff161580156118a8576000805460ff1961ff0019909116610100171660011790558015610be6576000805461ff001916905550565b600054610100900460ff1680611da8575060005460ff16155b611dc45760405162461bcd60e51b81526004016103c39061241e565b600054610100900460ff16158015611def576000805460ff1961ff0019909116610100171660011790555b6099805460ff191690558015610be6576000805461ff001916905550565b606082471015611e2f5760405162461bcd60e51b81526004016103c3906122f7565b611e38856113ea565b611e545760405162461bcd60e51b81526004016103c39061248c565b600080866001600160a01b03168587604051611e7091906120d4565b60006040518083038185875af1925050503d8060008114611ead576040519150601f19603f3d011682016040523d82523d6000602084013e611eb2565b606091505b5091509150611ec2828286611ecd565b979650505050505050565b60608315611edc575081611306565b825115611eec5782518084602001fd5b8160405162461bcd60e51b81526004016103c39190612155565b600060208284031215611f17578081fd5b81356113068161287e565b600060208284031215611f33578081fd5b81516113068161287e565b60008060008060808587031215611f53578283fd5b8435611f5e8161287e565b93506020850135611f6e8161287e565b92506040850135611f7e8161287e565b91506060850135611f8e8161287e565b939692955090935050565b600080600060608486031215611fad578283fd5b8335611fb88161287e565b92506020840135611fc88161287e565b929592945050506040919091013590565b60008060408385031215611feb578182fd5b8235611ff68161287e565b9150602083013561200681612893565b809150509250929050565b60008060408385031215612023578182fd5b823561202e8161287e565b946020939093013593505050565b60006020828403121561204d578081fd5b81518015158114611306578182fd5b60006020828403121561206d578081fd5b5051919050565b60008060408385031215612086578182fd5b505080516020909101519092909150565b6000602082840312156120a8578081fd5b815161130681612893565b6000602082840312156120c4578081fd5b815160ff81168114611306578182fd5b600082516120e681846020870161283c565b9190910192915050565b6001600160a01b0391909116815260200190565b6001600160a01b039384168152919092166020820152604081019190915260600190565b6001600160a01b03929092168252602082015260400190565b901515815260200190565b90815260200190565b600060208252825180602084015261217481604085016020870161283c565b601f01601f19169190910160400192915050565b60208082526022908201527f64656e6f6d696e61746f72206d7573742062652067726561746572207468616e604082015261020360f41b606082015260800190565b602080825260069082015265534f5f434e4360d01b604082015260600190565b60208082526014908201527314185d5cd8589b194e881b9bdd081c185d5cd95960621b604082015260600190565b602080825260079082015266565f4348434e4360c81b604082015260600190565b602080825260059082015264565f49424160d81b604082015260600190565b602080825260069082015265534f5f53414360d01b604082015260600190565b6020808252600590820152641597d3d4d560da1b604082015260600190565b602080825260069082015265565f504d4e4360d01b604082015260600190565b602080825260069082015265534f5f53414f60d01b604082015260600190565b602080825260069082015265534f5f434e4f60d01b604082015260600190565b60208082526026908201527f416464726573733a20696e73756666696369656e742062616c616e636520666f6040820152651c8818d85b1b60d21b606082015260800190565b602080825260069082015265565f43484e4360d01b604082015260600190565b602080825260069082015265565f4d544e4360d01b604082015260600190565b602080825260069082015265565f44465a4160d01b604082015260600190565b60208082526010908201526f14185d5cd8589b194e881c185d5cd95960821b604082015260600190565b602080825260089082015267565f47545354424360c01b604082015260600190565b6020808252818101527f53616665436173743a2076616c7565206d75737420626520706f736974697665604082015260600190565b6020808252602e908201527f496e697469616c697a61626c653a20636f6e747261637420697320616c72656160408201526d191e481a5b9a5d1a585b1a5e995960921b606082015260800190565b602080825260069082015265565f54464e4360d01b604082015260600190565b6020808252601d908201527f416464726573733a2063616c6c20746f206e6f6e2d636f6e7472616374000000604082015260600190565b602080825260069082015265565f4e45464360d01b604082015260600190565b60208082526028908201527f53616665436173743a2076616c756520646f65736e27742066697420696e2061604082015267371034b73a191a9b60c11b606082015260800190565b6020808252602a908201527f5361666545524332303a204552433230206f7065726174696f6e20646964206e6040820152691bdd081cdd58d8d9595960b21b606082015260800190565b6020808252600590820152640534f5f43360dc1b604082015260600190565b6020808252601f908201527f5265656e7472616e637947756172643a207265656e7472616e742063616c6c00604082015260600190565b6020808252600690820152650534f5f4e57360d41b604082015260600190565b6020808252600690820152651597d254d51160d21b604082015260600190565b60ff91909116815260200190565b600080821280156001600160ff1b038490038513161561263b5761263b612868565b600160ff1b839003841281161561265457612654612868565b50500190565b6000821982111561266d5761266d612868565b500190565b60008261268d57634e487b7160e01b81526012600452602481fd5b600160ff1b8214600019841416156126a7576126a7612868565b500590565b80825b60018086116126be57506126e9565b8187048211156126d0576126d0612868565b808616156126dd57918102915b9490941c9380026126af565b94509492505050565b600061130660001960ff85168460008261270e57506001611306565b8161271b57506000611306565b8160018114612731576002811461273b57612768565b6001915050611306565b60ff84111561274c5761274c612868565b6001841b91508482111561276257612762612868565b50611306565b5060208310610133831016604e8410600b841016171561279b575081810a8381111561279657612796612868565b611306565b6127a884848460016126ac565b8086048211156127ba576127ba612868565b02949350505050565b60008083128015600160ff1b8501841216156127e1576127e1612868565b6001600160ff1b03840183138116156127fc576127fc612868565b50500390565b60008282101561281457612814612868565b500390565b600060ff821660ff84168082101561283357612833612868565b90039392505050565b60005b8381101561285757818101518382015260200161283f565b838111156119925750506000910152565b634e487b7160e01b600052601160045260246000fd5b6001600160a01b0381168114610be657600080fd5b62ffffff81168114610be657600080fdfea26469706673582212204ccb5734262100bee66e02489774f22cb270f77f52c091cf06460e54d4a154fa64736f6c63430008010033",
    "linkReferences": {},
    "deployedLinkReferences": {}
}