{
    "_format": "hh-sol-artifact-1",
    "contractName": "WrapAmm",
    "sourceName": "contracts/amm/WrapAmm.sol",
    "abi": [
        {
            "anonymous": false,
            "inputs": [
                {
                    "indexed": true,
                    "internalType": "address",
                    "name": "previousOwner",
                    "type": "address"
                },
                {
                    "indexed": true,
                    "internalType": "address",
                    "name": "newOwner",
                    "type": "address"
                }
            ],
            "name": "OwnershipTransferred",
            "type": "event"
        },
        {
            "inputs": [
                {
                    "internalType": "address",
                    "name": "baseToken",
                    "type": "address"
                },
                {
                    "internalType": "uint256",
                    "name": "amount0Desired",
                    "type": "uint256"
                },
                {
                    "internalType": "uint256",
                    "name": "amount1Desired",
                    "type": "uint256"
                },
                {
                    "internalType": "uint256",
                    "name": "minLiquidity",
                    "type": "uint256"
                }
            ],
            "name": "addLiquidity",
            "outputs": [
                {
                    "internalType": "uint256",
                    "name": "",
                    "type": "uint256"
                },
                {
                    "internalType": "uint256",
                    "name": "",
                    "type": "uint256"
                },
                {
                    "internalType": "uint256",
                    "name": "",
                    "type": "uint256"
                }
            ],
            "stateMutability": "nonpayable",
            "type": "function"
        },
        {
            "inputs": [
                {
                    "internalType": "address",
                    "name": "baseToken",
                    "type": "address"
                },
                {
                    "internalType": "uint256",
                    "name": "amount0Desired",
                    "type": "uint256"
                },
                {
                    "internalType": "uint256",
                    "name": "amount1Desired",
                    "type": "uint256"
                }
            ],
            "name": "calcLiquidityByTokenAmounts",
            "outputs": [
                {
                    "internalType": "uint256",
                    "name": "",
                    "type": "uint256"
                }
            ],
            "stateMutability": "view",
            "type": "function"
        },
        {
            "inputs": [
                {
                    "internalType": "address",
                    "name": "baseToken",
                    "type": "address"
                },
                {
                    "internalType": "uint256",
                    "name": "liquidity",
                    "type": "uint256"
                }
            ],
            "name": "calcTokenAmountsByLiquidity",
            "outputs": [
                {
                    "internalType": "uint256",
                    "name": "amount0",
                    "type": "uint256"
                },
                {
                    "internalType": "uint256",
                    "name": "amount1",
                    "type": "uint256"
                }
            ],
            "stateMutability": "view",
            "type": "function"
        },
        {
            "inputs": [],
            "name": "candidate",
            "outputs": [
                {
                    "internalType": "address",
                    "name": "",
                    "type": "address"
                }
            ],
            "stateMutability": "view",
            "type": "function"
        },
        {
            "inputs": [],
            "name": "factory",
            "outputs": [
                {
                    "internalType": "address",
                    "name": "",
                    "type": "address"
                }
            ],
            "stateMutability": "view",
            "type": "function"
        },
        {
            "inputs": [
                {
                    "internalType": "address",
                    "name": "baseToken",
                    "type": "address"
                }
            ],
            "name": "getAdminFeeRatio",
            "outputs": [
                {
                    "internalType": "uint256",
                    "name": "",
                    "type": "uint256"
                }
            ],
            "stateMutability": "view",
            "type": "function"
        },
        {
            "inputs": [],
            "name": "getAdminFeeReceiver",
            "outputs": [
                {
                    "internalType": "address",
                    "name": "",
                    "type": "address"
                }
            ],
            "stateMutability": "view",
            "type": "function"
        },
        {
            "inputs": [
                {
                    "internalType": "address",
                    "name": "baseToken",
                    "type": "address"
                }
            ],
            "name": "getAmmTwapInterval",
            "outputs": [
                {
                    "internalType": "uint256",
                    "name": "",
                    "type": "uint256"
                }
            ],
            "stateMutability": "view",
            "type": "function"
        },
        {
            "inputs": [
                {
                    "internalType": "address",
                    "name": "baseToken",
                    "type": "address"
                },
                {
                    "internalType": "uint256",
                    "name": "i",
                    "type": "uint256"
                }
            ],
            "name": "getBalances",
            "outputs": [
                {
                    "internalType": "uint256",
                    "name": "",
                    "type": "uint256"
                }
            ],
            "stateMutability": "view",
            "type": "function"
        },
        {
            "inputs": [
                {
                    "internalType": "address",
                    "name": "baseToken",
                    "type": "address"
                }
            ],
            "name": "getCoinBalances",
            "outputs": [
                {
                    "internalType": "uint256[2]",
                    "name": "",
                    "type": "uint256[2]"
                }
            ],
            "stateMutability": "view",
            "type": "function"
        },
        {
            "inputs": [
                {
                    "internalType": "address",
                    "name": "baseToken",
                    "type": "address"
                },
                {
                    "internalType": "uint256",
                    "name": "i",
                    "type": "uint256"
                }
            ],
            "name": "getCoins",
            "outputs": [
                {
                    "internalType": "address",
                    "name": "",
                    "type": "address"
                }
            ],
            "stateMutability": "view",
            "type": "function"
        },
        {
            "inputs": [
                {
                    "internalType": "address",
                    "name": "baseToken",
                    "type": "address"
                },
                {
                    "internalType": "uint256",
                    "name": "i",
                    "type": "uint256"
                },
                {
                    "internalType": "uint256",
                    "name": "j",
                    "type": "uint256"
                },
                {
                    "internalType": "uint256",
                    "name": "dy",
                    "type": "uint256"
                }
            ],
            "name": "getDx",
            "outputs": [
                {
                    "internalType": "uint256",
                    "name": "",
                    "type": "uint256"
                },
                {
                    "internalType": "uint256",
                    "name": "",
                    "type": "uint256"
                }
            ],
            "stateMutability": "view",
            "type": "function"
        },
        {
            "inputs": [
                {
                    "internalType": "address",
                    "name": "baseToken",
                    "type": "address"
                },
                {
                    "internalType": "uint256",
                    "name": "i",
                    "type": "uint256"
                },
                {
                    "internalType": "uint256",
                    "name": "j",
                    "type": "uint256"
                },
                {
                    "internalType": "uint256",
                    "name": "dx",
                    "type": "uint256"
                }
            ],
            "name": "getDy",
            "outputs": [
                {
                    "internalType": "uint256",
                    "name": "",
                    "type": "uint256"
                },
                {
                    "internalType": "uint256",
                    "name": "",
                    "type": "uint256"
                }
            ],
            "stateMutability": "view",
            "type": "function"
        },
        {
            "inputs": [
                {
                    "internalType": "address",
                    "name": "baseToken",
                    "type": "address"
                }
            ],
            "name": "getPool",
            "outputs": [
                {
                    "internalType": "address",
                    "name": "",
                    "type": "address"
                }
            ],
            "stateMutability": "view",
            "type": "function"
        },
        {
            "inputs": [
                {
                    "internalType": "address",
                    "name": "baseToken",
                    "type": "address"
                }
            ],
            "name": "getPriceCurrent",
            "outputs": [
                {
                    "internalType": "uint256",
                    "name": "",
                    "type": "uint256"
                }
            ],
            "stateMutability": "view",
            "type": "function"
        },
        {
            "inputs": [
                {
                    "internalType": "address",
                    "name": "baseToken",
                    "type": "address"
                }
            ],
            "name": "getPriceLast",
            "outputs": [
                {
                    "internalType": "uint256",
                    "name": "",
                    "type": "uint256"
                }
            ],
            "stateMutability": "view",
            "type": "function"
        },
        {
            "inputs": [
                {
                    "internalType": "address",
                    "name": "baseToken",
                    "type": "address"
                }
            ],
            "name": "getPriceOracle",
            "outputs": [
                {
                    "internalType": "uint256",
                    "name": "",
                    "type": "uint256"
                }
            ],
            "stateMutability": "view",
            "type": "function"
        },
        {
            "inputs": [
                {
                    "internalType": "address",
                    "name": "baseToken",
                    "type": "address"
                }
            ],
            "name": "getPriceScale",
            "outputs": [
                {
                    "internalType": "uint256",
                    "name": "",
                    "type": "uint256"
                }
            ],
            "stateMutability": "view",
            "type": "function"
        },
        {
            "inputs": [
                {
                    "internalType": "address",
                    "name": "baseToken",
                    "type": "address"
                }
            ],
            "name": "getTotalLiquidity",
            "outputs": [
                {
                    "internalType": "uint256",
                    "name": "",
                    "type": "uint256"
                }
            ],
            "stateMutability": "view",
            "type": "function"
        },
        {
            "inputs": [
                {
                    "internalType": "address",
                    "name": "baseToken",
                    "type": "address"
                }
            ],
            "name": "hasPool",
            "outputs": [
                {
                    "internalType": "bool",
                    "name": "",
                    "type": "bool"
                }
            ],
            "stateMutability": "view",
            "type": "function"
        },
        {
            "inputs": [
                {
                    "internalType": "address",
                    "name": "factoryArg",
                    "type": "address"
                }
            ],
            "name": "initialize",
            "outputs": [],
            "stateMutability": "nonpayable",
            "type": "function"
        },
        {
            "inputs": [],
            "name": "liquidityProvider",
            "outputs": [
                {
                    "internalType": "address",
                    "name": "",
                    "type": "address"
                }
            ],
            "stateMutability": "view",
            "type": "function"
        },
        {
            "inputs": [],
            "name": "marketTaker",
            "outputs": [
                {
                    "internalType": "address",
                    "name": "",
                    "type": "address"
                }
            ],
            "stateMutability": "view",
            "type": "function"
        },
        {
            "inputs": [
                {
                    "internalType": "address",
                    "name": "baseToken",
                    "type": "address"
                }
            ],
            "name": "midFee",
            "outputs": [
                {
                    "internalType": "uint256",
                    "name": "",
                    "type": "uint256"
                }
            ],
            "stateMutability": "view",
            "type": "function"
        },
        {
            "inputs": [],
            "name": "owner",
            "outputs": [
                {
                    "internalType": "address",
                    "name": "",
                    "type": "address"
                }
            ],
            "stateMutability": "view",
            "type": "function"
        },
        {
            "inputs": [
                {
                    "internalType": "address",
                    "name": "baseToken",
                    "type": "address"
                },
                {
                    "internalType": "uint256",
                    "name": "liquidity",
                    "type": "uint256"
                },
                {
                    "internalType": "uint256",
                    "name": "minAmount0",
                    "type": "uint256"
                },
                {
                    "internalType": "uint256",
                    "name": "minAmount1",
                    "type": "uint256"
                }
            ],
            "name": "removeLiquidity",
            "outputs": [
                {
                    "internalType": "uint256",
                    "name": "amount0",
                    "type": "uint256"
                },
                {
                    "internalType": "uint256",
                    "name": "amount1",
                    "type": "uint256"
                }
            ],
            "stateMutability": "nonpayable",
            "type": "function"
        },
        {
            "inputs": [],
            "name": "renounceOwnership",
            "outputs": [],
            "stateMutability": "nonpayable",
            "type": "function"
        },
        {
            "inputs": [
                {
                    "internalType": "address",
                    "name": "liquidityProviderArg",
                    "type": "address"
                }
            ],
            "name": "setLiquidityProvider",
            "outputs": [],
            "stateMutability": "nonpayable",
            "type": "function"
        },
        {
            "inputs": [
                {
                    "internalType": "address",
                    "name": "marketTakerArg",
                    "type": "address"
                }
            ],
            "name": "setMarketTaker",
            "outputs": [],
            "stateMutability": "nonpayable",
            "type": "function"
        },
        {
            "inputs": [
                {
                    "internalType": "address",
                    "name": "newOwner",
                    "type": "address"
                }
            ],
            "name": "setOwner",
            "outputs": [],
            "stateMutability": "nonpayable",
            "type": "function"
        },
        {
            "inputs": [
                {
                    "internalType": "address",
                    "name": "baseToken",
                    "type": "address"
                },
                {
                    "internalType": "uint256",
                    "name": "i",
                    "type": "uint256"
                },
                {
                    "internalType": "uint256",
                    "name": "j",
                    "type": "uint256"
                },
                {
                    "internalType": "uint256",
                    "name": "dx",
                    "type": "uint256"
                }
            ],
            "name": "simulatedSwap",
            "outputs": [
                {
                    "internalType": "uint256",
                    "name": "priceAfter",
                    "type": "uint256"
                },
                {
                    "internalType": "uint256",
                    "name": "amount0",
                    "type": "uint256"
                },
                {
                    "internalType": "uint256",
                    "name": "amount1",
                    "type": "uint256"
                }
            ],
            "stateMutability": "nonpayable",
            "type": "function"
        },
        {
            "inputs": [
                {
                    "internalType": "address",
                    "name": "baseToken",
                    "type": "address"
                },
                {
                    "internalType": "uint256",
                    "name": "i",
                    "type": "uint256"
                },
                {
                    "internalType": "uint256",
                    "name": "j",
                    "type": "uint256"
                },
                {
                    "internalType": "uint256",
                    "name": "dx",
                    "type": "uint256"
                },
                {
                    "internalType": "uint256",
                    "name": "dyLimit",
                    "type": "uint256"
                }
            ],
            "name": "simulatedSwapInternal",
            "outputs": [
                {
                    "internalType": "uint256",
                    "name": "",
                    "type": "uint256"
                },
                {
                    "internalType": "uint256",
                    "name": "",
                    "type": "uint256"
                }
            ],
            "stateMutability": "nonpayable",
            "type": "function"
        },
        {
            "inputs": [
                {
                    "internalType": "address",
                    "name": "baseToken",
                    "type": "address"
                },
                {
                    "internalType": "uint256",
                    "name": "i",
                    "type": "uint256"
                },
                {
                    "internalType": "uint256",
                    "name": "j",
                    "type": "uint256"
                },
                {
                    "internalType": "uint256",
                    "name": "dx",
                    "type": "uint256"
                },
                {
                    "internalType": "uint256",
                    "name": "dyLimit",
                    "type": "uint256"
                }
            ],
            "name": "swap",
            "outputs": [
                {
                    "internalType": "uint256",
                    "name": "",
                    "type": "uint256"
                },
                {
                    "internalType": "uint256",
                    "name": "",
                    "type": "uint256"
                }
            ],
            "stateMutability": "nonpayable",
            "type": "function"
        },
        {
            "inputs": [],
            "name": "totalVauleLockedCap",
            "outputs": [
                {
                    "internalType": "uint256",
                    "name": "",
                    "type": "uint256"
                }
            ],
            "stateMutability": "view",
            "type": "function"
        },
        {
            "inputs": [],
            "name": "updateOwner",
            "outputs": [],
            "stateMutability": "nonpayable",
            "type": "function"
        },
        {
            "inputs": [
                {
                    "internalType": "uint256",
                    "name": "totalVauleLockedCapArg",
                    "type": "uint256"
                }
            ],
            "name": "updateTotalVauleLockedCap",
            "outputs": [],
            "stateMutability": "nonpayable",
            "type": "function"
        }
    ],
    "bytecode": "0x608060405234801561001057600080fd5b50612928806100206000396000f3fe608060405234801561001057600080fd5b506004361061021c5760003560e01c80637fdc9fc811610125578063bbe4f6db116100ad578063cc8409281161007c578063cc84092814610472578063e624c4bc14610485578063e9a387b014610498578063fb39b424146104a0578063fcddb3cc146104b35761021c565b8063bbe4f6db1461043c578063bc5920ba1461044f578063c45a015514610457578063c4d66de81461045f5761021c565b8063993a3a5c116100f4578063993a3a5c146103dd5780639a5f60e5146103f05780639de8ef7914610403578063a27a64b214610416578063a70bba67146104295761021c565b80637fdc9fc8146103a7578063803841b7146103ba5780638da5cb5b146103c257806393ca2f8a146103ca5761021c565b8063564cd092116101a85780636c8381f8116101775780636c8381f814610350578063715018a61461035857806373b53e931461036057806374d6c4a6146103815780637d4dd954146103945761021c565b8063564cd0921461030d5780635b8bec55146103205780635d44444b1461033557806360adc8ab146103485761021c565b80632b7746f1116101ef5780632b7746f1146102a15780633a5ad779146102b457806349cf2a61146102c75780634a4f0db3146102da578063508d501d146102fa5761021c565b80631246dbf51461022157806313af40351461024a5780631987da481461025f5780631ece366a1461027f575b600080fd5b61023461022f366004611f59565b6104c6565b6040516102419190612297565b60405180910390f35b61025d610258366004611f59565b61054f565b005b61027261026d366004611f59565b61063b565b60405161024191906122a2565b61029261028d366004611ff0565b6106b6565b60405161024193929190612773565b6102726102af366004611f59565b61093d565b6102726102c2366004611f59565b610980565b6102926102d5366004611ff0565b6109c3565b6102ed6102e8366004611f59565b610b78565b604051610241919061226e565b610272610308366004611f59565b610ca9565b61027261031b366004611fbc565b610cfa565b610328610f0f565b604051610241919061222c565b610272610343366004611f59565b610f1e565b610328610f61565b610328610f70565b61025d610f7f565b61037361036e366004611ff0565b611014565b604051610241929190612765565b61037361038f36600461202a565b611110565b6103736103a2366004611f91565b61114f565b6102726103b5366004611f91565b611259565b6103286112e8565b61032861136a565b6103736103d8366004611ff0565b611379565b61025d6103eb366004612183565b6114ab565b6103736103fe36600461202a565b6114ef565b610272610411366004611f59565b61152d565b610272610424366004611f59565b61162b565b610328610437366004611f91565b61166e565b61032861044a366004611f59565b6116f4565b61025d611775565b610328611838565b61025d61046d366004611f59565b611847565b610373610480366004611ff0565b61190e565b61025d610493366004611f59565b6119ac565b610272611a0d565b6102726104ae366004611f59565b611a13565b61025d6104c1366004611f59565b611abd565b6067546040516372971b3f60e01b81526000916001600160a01b0316906372971b3f906104f790859060040161222c565b60206040518083038186803b15801561050f57600080fd5b505afa158015610523573d6000803e3d6000fd5b505050506040513d601f19601f8201168201806040525081019061054791906120d3565b90505b919050565b610557611b1e565b6001600160a01b031661056861136a565b6001600160a01b0316146105975760405162461bcd60e51b815260040161058e90612482565b60405180910390fd5b6001600160a01b0381166105bd5760405162461bcd60e51b815260040161058e90612718565b6033546001600160a01b03828116911614156105eb5760405162461bcd60e51b815260040161058e90612442565b6034546001600160a01b03828116911614156106195760405162461bcd60e51b815260040161058e906123e2565b603480546001600160a01b0319166001600160a01b0392909216919091179055565b6000610646826116f4565b6001600160a01b031663662b62746040518163ffffffff1660e01b815260040160206040518083038186803b15801561067e57600080fd5b505afa158015610692573d6000803e3d6000fd5b505050506040513d601f19601f82011682018060405250810190610547919061219b565b606954600090819081906001600160a01b031633146106e75760405162461bcd60e51b815260040161058e90612462565b600086116107075760405162461bcd60e51b815260040161058e90612566565b600085116107275760405162461bcd60e51b815260040161058e90612363565b6040805180820190915286815260208101869052600061074689610b78565b905060006107538a611a13565b8251909150158015906107695750602082015115155b156107e057610789898360005b60200201518460015b6020020151611b22565b60208401819052881061079e578883526107db565b6107b3888360015b602002015184600061077f565b8084528910156107d357634e487b7160e01b600052600160045260246000fd5b602083018890525b610844565b6402540be40061082661080e670de0b6b3a76400006107ff858d61280d565b61080991906127ed565b611b8c565b6108178c611b8c565b610821919061282c565b611bb9565b11156108445760405162461bcd60e51b815260040161058e90612678565b606a5483516020850151670de0b6b3a76400009061086390859061280d565b61086d91906127ed565b61087791906127d5565b106108945760405162461bcd60e51b815260040161058e90612340565b600061089f8b6116f4565b6001600160a01b0316630b4c7e4d858a6040518363ffffffff1660e01b81526004016108cc92919061227c565b602060405180830381600087803b1580156108e657600080fd5b505af11580156108fa573d6000803e3d6000fd5b505050506040513d601f19601f8201168201806040525081019061091e919061219b565b84516020909501519497509395509293505050505b9450945094915050565b6000610948826116f4565b6001600160a01b03166386fc88d36040518163ffffffff1660e01b815260040160206040518083038186803b15801561067e57600080fd5b600061098b826116f4565b6001600160a01b031663b9e8c9fd6040518163ffffffff1660e01b815260040160206040518083038186803b15801561067e57600080fd5b6000806000848614156109e85760405162461bcd60e51b815260040161058e90612610565b60028610610a085760405162461bcd60e51b815260040161058e906122de565b60028510610a285760405162461bcd60e51b815260040161058e906122de565b6000610a3688888888611014565b50604051633a6b625360e11b815290915030906374d6c4a690610a65908b908b908b908b908890600401612240565b6040805180830381600087803b158015610a7e57600080fd5b505af1925050508015610aae575060408051601f3d908101601f19168201909252610aab918101906121b3565b60015b610b6b573d808015610adc576040519150601f19603f3d011682016040523d82523d6000602084013e610ae1565b606091505b508051606014610b4057604481511015610b0d5760405162461bcd60e51b815260040161058e906125a6565b60048101905080806020019051810190610b2791906120f3565b60405162461bcd60e51b815260040161058e91906122ab565b600080600083806020019051810190610b5991906121d6565b91995097509550610933945050505050565b5050509450945094915050565b610b80611f3b565b6000610b8b836116f4565b6001600160a01b0316634903b0d160006040518263ffffffff1660e01b8152600401610bb791906122a2565b60206040518083038186803b158015610bcf57600080fd5b505afa158015610be3573d6000803e3d6000fd5b505050506040513d601f19601f82011682018060405250810190610c07919061219b565b90506000610c14846116f4565b6001600160a01b0316634903b0d160016040518263ffffffff1660e01b8152600401610c4091906122a2565b60206040518083038186803b158015610c5857600080fd5b505afa158015610c6c573d6000803e3d6000fd5b505050506040513d601f19601f82011682018060405250810190610c90919061219b565b6040805180820190915292835260208301525092915050565b6067546000906001600160a01b031663d88bf68d610cc6846116f4565b6040518263ffffffff1660e01b8152600401610ce2919061222c565b60206040518083038186803b15801561067e57600080fd5b6000808311610d1b5760405162461bcd60e51b815260040161058e90612383565b60008211610d3b5760405162461bcd60e51b815260040161058e90612545565b60408051808201909152838152602081018390526000610d5a86610b78565b90506000610d6787611a13565b825190915015801590610d7d5750602082015115155b15610ddc57610d8e86836000610776565b602084018190528510610da357858352610dd7565b610daf858360016107a6565b808452861015610dcf57634e487b7160e01b600052600160045260246000fd5b602083018590525b610e2e565b6402540be400610e04610dfb670de0b6b3a76400006107ff858a61280d565b61081789611b8c565b1115610e225760405162461bcd60e51b815260040161058e90612678565b60009350505050610f08565b606a5483516020850151670de0b6b3a764000090610e4d90859061280d565b610e5791906127ed565b610e6191906127d5565b10610e7e5760405162461bcd60e51b815260040161058e90612340565b610e87876116f4565b6001600160a01b0316638d8ea727846040518263ffffffff1660e01b8152600401610eb2919061226e565b60206040518083038186803b158015610eca57600080fd5b505afa158015610ede573d6000803e3d6000fd5b505050506040513d601f19601f82011682018060405250810190610f02919061219b565b93505050505b9392505050565b6069546001600160a01b031681565b6000610f29826116f4565b6001600160a01b03166392526c0c6040518163ffffffff1660e01b815260040160206040518083038186803b15801561067e57600080fd5b6068546001600160a01b031681565b6034546001600160a01b031690565b610f87611b1e565b6001600160a01b0316610f9861136a565b6001600160a01b031614610fbe5760405162461bcd60e51b815260040161058e90612482565b6033546040516000916001600160a01b0316907f8be0079c531659141344cd1fd0a4f28419497f9722a3daafe3b4186f6b6457e0908390a3603380546001600160a01b0319908116909155603480549091169055565b600080838514156110375760405162461bcd60e51b815260040161058e90612610565b600285106110575760405162461bcd60e51b815260040161058e906122de565b600284106110775760405162461bcd60e51b815260040161058e906122de565b600080611083886116f4565b6001600160a01b031663556d6e9f8888886040518463ffffffff1660e01b81526004016110b293929190612773565b604080518083038186803b1580156110c957600080fd5b505afa1580156110dd573d6000803e3d6000fd5b505050506040513d601f19601f8201168201806040525081019061110191906121b3565b90999098509650505050505050565b6000803330146111325760405162461bcd60e51b815260040161058e906125d0565b61114187878787876001611be2565b915091509550959350505050565b600080600183116111725760405162461bcd60e51b815260040161058e906126b8565b600061117d8561152d565b90506000811161119f5760405162461bcd60e51b815260040161058e90612402565b808411156111bf5760405162461bcd60e51b815260040161058e90612422565b60006111ca866116f4565b6001600160a01b0316633077059f866040518263ffffffff1660e01b81526004016111f591906122a2565b604080518083038186803b15801561120c57600080fd5b505afa158015611220573d6000803e3d6000fd5b505050506040513d601f19601f82011682018060405250810190611244919061206d565b80516020909101519097909650945050505050565b6000611264836116f4565b6001600160a01b0316634903b0d1836040518263ffffffff1660e01b815260040161128f91906122a2565b60206040518083038186803b1580156112a757600080fd5b505afa1580156112bb573d6000803e3d6000fd5b505050506040513d601f19601f820116820180604052508101906112df919061219b565b90505b92915050565b6067546040805163cab4d3db60e01b815290516000926001600160a01b03169163cab4d3db916004808301926020929190829003018186803b15801561132d57600080fd5b505afa158015611341573d6000803e3d6000fd5b505050506040513d601f19601f820116820180604052508101906113659190611f75565b905090565b6033546001600160a01b031690565b60695460009081906001600160a01b031633146113a85760405162461bcd60e51b815260040161058e90612462565b600185116113c85760405162461bcd60e51b815260040161058e906124a2565b60006113d38761152d565b9050808611156113f55760405162461bcd60e51b815260040161058e90612422565b6000611400886116f4565b6001600160a01b0316633eb1719f8860405180604001604052808a815260200189815250306040518463ffffffff1660e01b815260040161144393929190612738565b6040805180830381600087803b15801561145c57600080fd5b505af1158015611470573d6000803e3d6000fd5b505050506040513d601f19601f82011682018060405250810190611494919061206d565b805160209091015190999098509650505050505050565b6114b3611b1e565b6001600160a01b03166114c461136a565b6001600160a01b0316146114ea5760405162461bcd60e51b815260040161058e90612482565b606a55565b60685460009081906001600160a01b0316331461151e5760405162461bcd60e51b815260040161058e906125f0565b61114187878787876000611be2565b60675460009081906001600160a01b031663977d912261154c856116f4565b6040518263ffffffff1660e01b8152600401611568919061222c565b60206040518083038186803b15801561158057600080fd5b505afa158015611594573d6000803e3d6000fd5b505050506040513d601f19601f820116820180604052508101906115b89190611f75565b9050806001600160a01b03166318160ddd6040518163ffffffff1660e01b815260040160206040518083038186803b1580156115f357600080fd5b505afa158015611607573d6000803e3d6000fd5b505050506040513d601f19601f82011682018060405250810190610f08919061219b565b6000611636826116f4565b6001600160a01b031663c146bf946040518163ffffffff1660e01b815260040160206040518083038186803b15801561067e57600080fd5b6000611679836116f4565b6001600160a01b031663c6610657836040518263ffffffff1660e01b81526004016116a491906122a2565b60206040518083038186803b1580156116bc57600080fd5b505afa1580156116d0573d6000803e3d6000fd5b505050506040513d601f19601f820116820180604052508101906112df9190611f75565b6067546040516353eb076960e11b81526000916001600160a01b03169063a7d60ed29061172590859060040161222c565b60206040518083038186803b15801561173d57600080fd5b505afa158015611751573d6000803e3d6000fd5b505050506040513d601f19601f820116820180604052508101906105479190611f75565b6034546001600160a01b031661179d5760405162461bcd60e51b815260040161058e90612699565b6117a5611b1e565b6034546001600160a01b039081169116146117d25760405162461bcd60e51b815260040161058e90612300565b6034546033546040516001600160a01b0392831692909116907f8be0079c531659141344cd1fd0a4f28419497f9722a3daafe3b4186f6b6457e090600090a360348054603380546001600160a01b03199081166001600160a01b03841617909155169055565b6067546001600160a01b031681565b600054610100900460ff1680611860575060005460ff16155b61187c5760405162461bcd60e51b815260040161058e906124f7565b600054610100900460ff161580156118a7576000805460ff1961ff0019909116610100171660011790555b6118af611d21565b6118c1826001600160a01b0316611df6565b6118dd5760405162461bcd60e51b815260040161058e90612586565b606780546001600160a01b0319166001600160a01b038416179055801561190a576000805461ff00191690555b5050565b600080838514156119315760405162461bcd60e51b815260040161058e90612610565b600285106119515760405162461bcd60e51b815260040161058e906122de565b600284106119715760405162461bcd60e51b815260040161058e906122de565b60008061197d886116f4565b6001600160a01b03166337ed3a7a8888886040518463ffffffff1660e01b81526004016110b293929190612773565b6119b4611b1e565b6001600160a01b03166119c561136a565b6001600160a01b0316146119eb5760405162461bcd60e51b815260040161058e90612482565b606980546001600160a01b0319166001600160a01b0392909216919091179055565b606a5481565b600080611a1f8361152d565b90508015611ab4576000611a3c846001600064174876e800611014565b5090506000611a54856000600164174876e80061190e565b509050611a64826298968061280d565b9150611a73816298968061280d565b90506000611a808661162b565b905082811015611a96578294505050505061054a565b81811115611aa95750925061054a915050565b935061054a92505050565b610f0883610980565b611ac5611b1e565b6001600160a01b0316611ad661136a565b6001600160a01b031614611afc5760405162461bcd60e51b815260040161058e90612482565b606880546001600160a01b0319166001600160a01b0392909216919091179055565b3390565b6000808411611b435760405162461bcd60e51b815260040161058e906123a4565b600083118015611b535750600082115b611b6f5760405162461bcd60e51b815260040161058e906123c3565b82611b7a838661280d565b611b8491906127ed565b949350505050565b60006001600160ff1b03821115611bb55760405162461bcd60e51b815260040161058e90612630565b5090565b600080821215611bd957611bd4611bcf83611dfc565b611e2a565b610547565b61054782611e2a565b60008085871415611c055760405162461bcd60e51b815260040161058e90612610565b60028710611c255760405162461bcd60e51b815260040161058e906122de565b60028610611c455760405162461bcd60e51b815260040161058e906122de565b60008511611c655760405162461bcd60e51b815260040161058e90612320565b600080611c718a6116f4565b6001600160a01b0316635b41b9088a8a8a8a6040518563ffffffff1660e01b8152600401611ca29493929190612789565b6040805180830381600087803b158015611cbb57600080fd5b505af1158015611ccf573d6000803e3d6000fd5b505050506040513d601f19601f82011682018060405250810190611cf391906121b3565b915091508415611101576000611d088b611a13565b9050604051818152886020820152836040820152606081fd5b600054610100900460ff1680611d3a575060005460ff16155b611d565760405162461bcd60e51b815260040161058e906124f7565b600054610100900460ff16158015611d81576000805460ff1961ff0019909116610100171660011790555b611d89611e4c565b6000611d93611b1e565b603380546001600160a01b0319166001600160a01b038316908117909155604051919250906000907f8be0079c531659141344cd1fd0a4f28419497f9722a3daafe3b4186f6b6457e0908290a3508015611df3576000805461ff00191690555b50565b3b151590565b6000600160ff1b8213611e215760405162461bcd60e51b815260040161058e906126d7565b61054782612897565b600080821215611bb55760405162461bcd60e51b815260040161058e906124c2565b600054610100900460ff1680611e65575060005460ff16155b611e815760405162461bcd60e51b815260040161058e906124f7565b600054610100900460ff16158015611eac576000805460ff1961ff0019909116610100171660011790555b611eb4611ec8565b8015611df3576000805461ff001916905550565b600054610100900460ff1680611ee1575060005460ff16155b611efd5760405162461bcd60e51b815260040161058e906124f7565b600054610100900460ff16158015611eb4576000805460ff1961ff0019909116610100171660011790558015611df3576000805461ff001916905550565b60405180604001604052806002906020820280368337509192915050565b600060208284031215611f6a578081fd5b8135610f08816128dd565b600060208284031215611f86578081fd5b8151610f08816128dd565b60008060408385031215611fa3578081fd5b8235611fae816128dd565b946020939093013593505050565b600080600060608486031215611fd0578081fd5b8335611fdb816128dd565b95602085013595506040909401359392505050565b60008060008060808587031215612005578081fd5b8435612010816128dd565b966020860135965060408601359560600135945092505050565b600080600080600060a08688031215612041578081fd5b853561204c816128dd565b97602087013597506040870135966060810135965060800135945092505050565b60006040828403121561207e578081fd5b82601f83011261208c578081fd5b61209660406127a4565b8083856040860111156120a7578384fd5b835b60028110156120c85781518452602093840193909101906001016120a9565b509095945050505050565b6000602082840312156120e4578081fd5b81518015158114610f08578182fd5b600060208284031215612104578081fd5b815167ffffffffffffffff8082111561211b578283fd5b818401915084601f83011261212e578283fd5b815181811115612140576121406128c7565b612153601f8201601f19166020016127a4565b9150808252856020828501011115612169578384fd5b61217a81602084016020860161286b565b50949350505050565b600060208284031215612194578081fd5b5035919050565b6000602082840312156121ac578081fd5b5051919050565b600080604083850312156121c5578182fd5b505080516020909101519092909150565b6000806000606084860312156121ea578283fd5b8351925060208401519150604084015190509250925092565b8060005b6002811015612226578151845260209384019390910190600101612207565b50505050565b6001600160a01b0391909116815260200190565b6001600160a01b03959095168552602085019390935260408401919091526060830152608082015260a00190565b604081016112e28284612203565b6060810161228a8285612203565b8260408301529392505050565b901515815260200190565b90815260200190565b60006020825282518060208401526122ca81604085016020870161286b565b601f01601f19169190910160400192915050565b60208082526008908201526720a6afa1a4a7a7a960c11b604082015260600190565b602080825260069082015265534f5f434e4360d01b604082015260600190565b6020808252600690820152650414d5f4149360d41b604082015260600190565b602080825260099082015268414d5f475454564c4360b81b604082015260600190565b6020808252600690820152650414d5f4241360d41b604082015260600190565b6020808252600790820152660414d5f435141360cc1b604082015260600190565b602080825260059082015264414d5f494160d81b604082015260600190565b602080825260059082015264105357d25360da1b604082015260600190565b602080825260069082015265534f5f53414360d01b604082015260600190565b60208082526006908201526520a6afaa262d60d11b604082015260600190565b60208082526006908201526520a6afa627a360d11b604082015260600190565b602080825260069082015265534f5f53414f60d01b604082015260600190565b6020808252600690820152650414d5f4f4c560d41b604082015260600190565b602080825260069082015265534f5f434e4f60d01b604082015260600190565b60208082526006908201526520a6afa624ad60d11b604082015260600190565b6020808252818101527f53616665436173743a2076616c7565206d75737420626520706f736974697665604082015260600190565b6020808252602e908201527f496e697469616c697a61626c653a20636f6e747261637420697320616c72656160408201526d191e481a5b9a5d1a585b1a5e995960921b606082015260800190565b6020808252600790820152660414d5f434241360cc1b604082015260600190565b6020808252600690820152650414d5f5141360d41b604082015260600190565b602080825260069082015265414d5f464e4360d01b604082015260600190565b60208082526010908201526f2ab732bc3832b1ba32b21032b93937b960811b604082015260600190565b602080825260069082015265414d5f4f414d60d01b604082015260600190565b602080825260069082015265105357d3d35560d21b604082015260600190565b602080825260069082015265414d5f53434960d01b604082015260600190565b60208082526028908201527f53616665436173743a2076616c756520646f65736e27742066697420696e2061604082015267371034b73a191a9b60c11b606082015260800190565b602080825260079082015266414d5f4942494160c81b604082015260600190565b6020808252600590820152640534f5f43360dc1b604082015260600190565b60208082526005908201526420a6afa62d60d91b604082015260600190565b60208082526021908201527f4661697274726164654d6174683a20696e76657273696f6e206f766572666c6f6040820152607760f81b606082015260800190565b6020808252600690820152650534f5f4e57360d41b604082015260600190565b8381526080810161274c6020830185612203565b6001600160a01b03929092166060919091015292915050565b918252602082015260400190565b9283526020830191909152604082015260600190565b93845260208401929092526040830152606082015260800190565b604051601f8201601f1916810167ffffffffffffffff811182821017156127cd576127cd6128c7565b604052919050565b600082198211156127e8576127e86128b1565b500190565b60008261280857634e487b7160e01b81526012600452602481fd5b500490565b6000816000190483118215151615612827576128276128b1565b500290565b60008083128015600160ff1b85018412161561284a5761284a6128b1565b6001600160ff1b0384018313811615612865576128656128b1565b50500390565b60005b8381101561288657818101518382015260200161286e565b838111156122265750506000910152565b6000600160ff1b8214156128ad576128ad6128b1565b0390565b634e487b7160e01b600052601160045260246000fd5b634e487b7160e01b600052604160045260246000fd5b6001600160a01b0381168114611df357600080fdfea26469706673582212206a5d61da532767330037106fcc0229e21a644b68be8ec4e7eab25511303a5d5664736f6c63430008010033",
    "linkReferences": {},
    "deployedLinkReferences": {}
}