{
    "_format": "hh-sol-artifact-1",
    "contractName": "WrapAmm",
    "sourceName": "contracts/amm/WrapAmm.sol",
    "abi": [
        {
            "anonymous": false,
            "inputs": [
                {
                    "indexed": true,
                    "internalType": "address",
                    "name": "previousOwner",
                    "type": "address"
                },
                {
                    "indexed": true,
                    "internalType": "address",
                    "name": "newOwner",
                    "type": "address"
                }
            ],
            "name": "OwnershipTransferred",
            "type": "event"
        },
        {
            "inputs": [
                {
                    "internalType": "address",
                    "name": "baseToken",
                    "type": "address"
                },
                {
                    "internalType": "uint256",
                    "name": "amount0Desired",
                    "type": "uint256"
                },
                {
                    "internalType": "uint256",
                    "name": "amount1Desired",
                    "type": "uint256"
                },
                {
                    "internalType": "uint256",
                    "name": "minLiquidity",
                    "type": "uint256"
                }
            ],
            "name": "addLiquidity",
            "outputs": [
                {
                    "internalType": "uint256",
                    "name": "",
                    "type": "uint256"
                },
                {
                    "internalType": "uint256",
                    "name": "",
                    "type": "uint256"
                },
                {
                    "internalType": "uint256",
                    "name": "",
                    "type": "uint256"
                }
            ],
            "stateMutability": "nonpayable",
            "type": "function"
        },
        {
            "inputs": [
                {
                    "internalType": "address",
                    "name": "baseToken",
                    "type": "address"
                },
                {
                    "internalType": "uint256",
                    "name": "amount0Desired",
                    "type": "uint256"
                },
                {
                    "internalType": "uint256",
                    "name": "amount1Desired",
                    "type": "uint256"
                }
            ],
            "name": "calcLiquidityByTokenAmounts",
            "outputs": [
                {
                    "internalType": "uint256",
                    "name": "",
                    "type": "uint256"
                }
            ],
            "stateMutability": "view",
            "type": "function"
        },
        {
            "inputs": [
                {
                    "internalType": "address",
                    "name": "baseToken",
                    "type": "address"
                },
                {
                    "internalType": "uint256",
                    "name": "liquidity",
                    "type": "uint256"
                }
            ],
            "name": "calcTokenAmountsByLiquidity",
            "outputs": [
                {
                    "internalType": "uint256",
                    "name": "amount0",
                    "type": "uint256"
                },
                {
                    "internalType": "uint256",
                    "name": "amount1",
                    "type": "uint256"
                }
            ],
            "stateMutability": "view",
            "type": "function"
        },
        {
            "inputs": [],
            "name": "candidate",
            "outputs": [
                {
                    "internalType": "address",
                    "name": "",
                    "type": "address"
                }
            ],
            "stateMutability": "view",
            "type": "function"
        },
        {
            "inputs": [],
            "name": "factory",
            "outputs": [
                {
                    "internalType": "address",
                    "name": "",
                    "type": "address"
                }
            ],
            "stateMutability": "view",
            "type": "function"
        },
        {
            "inputs": [
                {
                    "internalType": "address",
                    "name": "baseToken",
                    "type": "address"
                }
            ],
            "name": "getAdminFeeRatio",
            "outputs": [
                {
                    "internalType": "uint256",
                    "name": "",
                    "type": "uint256"
                }
            ],
            "stateMutability": "view",
            "type": "function"
        },
        {
            "inputs": [],
            "name": "getAdminFeeReceiver",
            "outputs": [
                {
                    "internalType": "address",
                    "name": "",
                    "type": "address"
                }
            ],
            "stateMutability": "view",
            "type": "function"
        },
        {
            "inputs": [
                {
                    "internalType": "address",
                    "name": "baseToken",
                    "type": "address"
                }
            ],
            "name": "getAmmTwapInterval",
            "outputs": [
                {
                    "internalType": "uint256",
                    "name": "",
                    "type": "uint256"
                }
            ],
            "stateMutability": "view",
            "type": "function"
        },
        {
            "inputs": [
                {
                    "internalType": "address",
                    "name": "baseToken",
                    "type": "address"
                },
                {
                    "internalType": "uint256",
                    "name": "i",
                    "type": "uint256"
                }
            ],
            "name": "getBalances",
            "outputs": [
                {
                    "internalType": "uint256",
                    "name": "",
                    "type": "uint256"
                }
            ],
            "stateMutability": "view",
            "type": "function"
        },
        {
            "inputs": [
                {
                    "internalType": "address",
                    "name": "baseToken",
                    "type": "address"
                }
            ],
            "name": "getCoinBalances",
            "outputs": [
                {
                    "internalType": "uint256[2]",
                    "name": "",
                    "type": "uint256[2]"
                }
            ],
            "stateMutability": "view",
            "type": "function"
        },
        {
            "inputs": [
                {
                    "internalType": "address",
                    "name": "baseToken",
                    "type": "address"
                },
                {
                    "internalType": "uint256",
                    "name": "i",
                    "type": "uint256"
                }
            ],
            "name": "getCoins",
            "outputs": [
                {
                    "internalType": "address",
                    "name": "",
                    "type": "address"
                }
            ],
            "stateMutability": "view",
            "type": "function"
        },
        {
            "inputs": [
                {
                    "internalType": "address",
                    "name": "baseToken",
                    "type": "address"
                },
                {
                    "internalType": "uint256",
                    "name": "i",
                    "type": "uint256"
                },
                {
                    "internalType": "uint256",
                    "name": "j",
                    "type": "uint256"
                },
                {
                    "internalType": "uint256",
                    "name": "dy",
                    "type": "uint256"
                }
            ],
            "name": "getDx",
            "outputs": [
                {
                    "internalType": "uint256",
                    "name": "",
                    "type": "uint256"
                },
                {
                    "internalType": "uint256",
                    "name": "",
                    "type": "uint256"
                }
            ],
            "stateMutability": "view",
            "type": "function"
        },
        {
            "inputs": [
                {
                    "internalType": "address",
                    "name": "baseToken",
                    "type": "address"
                },
                {
                    "internalType": "uint256",
                    "name": "i",
                    "type": "uint256"
                },
                {
                    "internalType": "uint256",
                    "name": "j",
                    "type": "uint256"
                },
                {
                    "internalType": "uint256",
                    "name": "dx",
                    "type": "uint256"
                }
            ],
            "name": "getDy",
            "outputs": [
                {
                    "internalType": "uint256",
                    "name": "",
                    "type": "uint256"
                },
                {
                    "internalType": "uint256",
                    "name": "",
                    "type": "uint256"
                }
            ],
            "stateMutability": "view",
            "type": "function"
        },
        {
            "inputs": [
                {
                    "internalType": "address",
                    "name": "baseToken",
                    "type": "address"
                }
            ],
            "name": "getFee",
            "outputs": [
                {
                    "internalType": "uint256",
                    "name": "",
                    "type": "uint256"
                }
            ],
            "stateMutability": "view",
            "type": "function"
        },
        {
            "inputs": [
                {
                    "internalType": "address",
                    "name": "baseToken",
                    "type": "address"
                }
            ],
            "name": "getPool",
            "outputs": [
                {
                    "internalType": "address",
                    "name": "",
                    "type": "address"
                }
            ],
            "stateMutability": "view",
            "type": "function"
        },
        {
            "inputs": [
                {
                    "internalType": "address",
                    "name": "baseToken",
                    "type": "address"
                }
            ],
            "name": "getPriceCurrent",
            "outputs": [
                {
                    "internalType": "uint256",
                    "name": "",
                    "type": "uint256"
                }
            ],
            "stateMutability": "view",
            "type": "function"
        },
        {
            "inputs": [
                {
                    "internalType": "address",
                    "name": "baseToken",
                    "type": "address"
                }
            ],
            "name": "getPriceLast",
            "outputs": [
                {
                    "internalType": "uint256",
                    "name": "",
                    "type": "uint256"
                }
            ],
            "stateMutability": "view",
            "type": "function"
        },
        {
            "inputs": [
                {
                    "internalType": "address",
                    "name": "baseToken",
                    "type": "address"
                }
            ],
            "name": "getPriceOracle",
            "outputs": [
                {
                    "internalType": "uint256",
                    "name": "",
                    "type": "uint256"
                }
            ],
            "stateMutability": "view",
            "type": "function"
        },
        {
            "inputs": [
                {
                    "internalType": "address",
                    "name": "baseToken",
                    "type": "address"
                }
            ],
            "name": "getPriceScale",
            "outputs": [
                {
                    "internalType": "uint256",
                    "name": "",
                    "type": "uint256"
                }
            ],
            "stateMutability": "view",
            "type": "function"
        },
        {
            "inputs": [
                {
                    "internalType": "address",
                    "name": "baseToken",
                    "type": "address"
                }
            ],
            "name": "getTotalLiquidity",
            "outputs": [
                {
                    "internalType": "uint256",
                    "name": "",
                    "type": "uint256"
                }
            ],
            "stateMutability": "view",
            "type": "function"
        },
        {
            "inputs": [
                {
                    "internalType": "address",
                    "name": "baseToken",
                    "type": "address"
                }
            ],
            "name": "hasPool",
            "outputs": [
                {
                    "internalType": "bool",
                    "name": "",
                    "type": "bool"
                }
            ],
            "stateMutability": "view",
            "type": "function"
        },
        {
            "inputs": [
                {
                    "internalType": "address",
                    "name": "factoryArg",
                    "type": "address"
                }
            ],
            "name": "initialize",
            "outputs": [],
            "stateMutability": "nonpayable",
            "type": "function"
        },
        {
            "inputs": [],
            "name": "liquidityProvider",
            "outputs": [
                {
                    "internalType": "address",
                    "name": "",
                    "type": "address"
                }
            ],
            "stateMutability": "view",
            "type": "function"
        },
        {
            "inputs": [],
            "name": "marketTaker",
            "outputs": [
                {
                    "internalType": "address",
                    "name": "",
                    "type": "address"
                }
            ],
            "stateMutability": "view",
            "type": "function"
        },
        {
            "inputs": [
                {
                    "internalType": "address",
                    "name": "baseToken",
                    "type": "address"
                }
            ],
            "name": "midFee",
            "outputs": [
                {
                    "internalType": "uint256",
                    "name": "",
                    "type": "uint256"
                }
            ],
            "stateMutability": "view",
            "type": "function"
        },
        {
            "inputs": [],
            "name": "owner",
            "outputs": [
                {
                    "internalType": "address",
                    "name": "",
                    "type": "address"
                }
            ],
            "stateMutability": "view",
            "type": "function"
        },
        {
            "inputs": [
                {
                    "internalType": "address",
                    "name": "baseToken",
                    "type": "address"
                },
                {
                    "internalType": "uint256",
                    "name": "liquidity",
                    "type": "uint256"
                },
                {
                    "internalType": "uint256",
                    "name": "minAmount0",
                    "type": "uint256"
                },
                {
                    "internalType": "uint256",
                    "name": "minAmount1",
                    "type": "uint256"
                }
            ],
            "name": "removeLiquidity",
            "outputs": [
                {
                    "internalType": "uint256",
                    "name": "amount0",
                    "type": "uint256"
                },
                {
                    "internalType": "uint256",
                    "name": "amount1",
                    "type": "uint256"
                }
            ],
            "stateMutability": "nonpayable",
            "type": "function"
        },
        {
            "inputs": [],
            "name": "renounceOwnership",
            "outputs": [],
            "stateMutability": "nonpayable",
            "type": "function"
        },
        {
            "inputs": [
                {
                    "internalType": "address",
                    "name": "liquidityProviderArg",
                    "type": "address"
                }
            ],
            "name": "setLiquidityProvider",
            "outputs": [],
            "stateMutability": "nonpayable",
            "type": "function"
        },
        {
            "inputs": [
                {
                    "internalType": "address",
                    "name": "marketTakerArg",
                    "type": "address"
                }
            ],
            "name": "setMarketTaker",
            "outputs": [],
            "stateMutability": "nonpayable",
            "type": "function"
        },
        {
            "inputs": [
                {
                    "internalType": "address",
                    "name": "newOwner",
                    "type": "address"
                }
            ],
            "name": "setOwner",
            "outputs": [],
            "stateMutability": "nonpayable",
            "type": "function"
        },
        {
            "inputs": [
                {
                    "internalType": "address",
                    "name": "baseToken",
                    "type": "address"
                },
                {
                    "internalType": "uint256",
                    "name": "i",
                    "type": "uint256"
                },
                {
                    "internalType": "uint256",
                    "name": "j",
                    "type": "uint256"
                },
                {
                    "internalType": "uint256",
                    "name": "dx",
                    "type": "uint256"
                }
            ],
            "name": "simulatedSwap",
            "outputs": [
                {
                    "internalType": "uint256",
                    "name": "priceAfter",
                    "type": "uint256"
                },
                {
                    "internalType": "uint256",
                    "name": "amount0",
                    "type": "uint256"
                },
                {
                    "internalType": "uint256",
                    "name": "amount1",
                    "type": "uint256"
                }
            ],
            "stateMutability": "nonpayable",
            "type": "function"
        },
        {
            "inputs": [
                {
                    "internalType": "address",
                    "name": "baseToken",
                    "type": "address"
                },
                {
                    "internalType": "uint256",
                    "name": "i",
                    "type": "uint256"
                },
                {
                    "internalType": "uint256",
                    "name": "j",
                    "type": "uint256"
                },
                {
                    "internalType": "uint256",
                    "name": "dx",
                    "type": "uint256"
                },
                {
                    "internalType": "uint256",
                    "name": "dyLimit",
                    "type": "uint256"
                }
            ],
            "name": "simulatedSwapInternal",
            "outputs": [
                {
                    "internalType": "uint256",
                    "name": "",
                    "type": "uint256"
                },
                {
                    "internalType": "uint256",
                    "name": "",
                    "type": "uint256"
                }
            ],
            "stateMutability": "nonpayable",
            "type": "function"
        },
        {
            "inputs": [
                {
                    "internalType": "address",
                    "name": "baseToken",
                    "type": "address"
                },
                {
                    "internalType": "uint256",
                    "name": "i",
                    "type": "uint256"
                },
                {
                    "internalType": "uint256",
                    "name": "j",
                    "type": "uint256"
                },
                {
                    "internalType": "uint256",
                    "name": "dx",
                    "type": "uint256"
                },
                {
                    "internalType": "uint256",
                    "name": "dyLimit",
                    "type": "uint256"
                }
            ],
            "name": "swap",
            "outputs": [
                {
                    "internalType": "uint256",
                    "name": "",
                    "type": "uint256"
                },
                {
                    "internalType": "uint256",
                    "name": "",
                    "type": "uint256"
                }
            ],
            "stateMutability": "nonpayable",
            "type": "function"
        },
        {
            "inputs": [],
            "name": "totalVauleLockedCap",
            "outputs": [
                {
                    "internalType": "uint256",
                    "name": "",
                    "type": "uint256"
                }
            ],
            "stateMutability": "view",
            "type": "function"
        },
        {
            "inputs": [],
            "name": "updateOwner",
            "outputs": [],
            "stateMutability": "nonpayable",
            "type": "function"
        },
        {
            "inputs": [
                {
                    "internalType": "uint256",
                    "name": "totalVauleLockedCapArg",
                    "type": "uint256"
                }
            ],
            "name": "updateTotalVauleLockedCap",
            "outputs": [],
            "stateMutability": "nonpayable",
            "type": "function"
        }
    ],
    "bytecode": "0x608060405234801561001057600080fd5b50612989806100206000396000f3fe608060405234801561001057600080fd5b50600436106102275760003560e01c80637fdc9fc811610130578063b88c9148116100b8578063cc8409281161007c578063cc84092814610490578063e624c4bc146104a3578063e9a387b0146104b6578063fb39b424146104be578063fcddb3cc146104d157610227565b8063b88c914814610447578063bbe4f6db1461045a578063bc5920ba1461046d578063c45a015514610475578063c4d66de81461047d57610227565b8063993a3a5c116100ff578063993a3a5c146103e85780639a5f60e5146103fb5780639de8ef791461040e578063a27a64b214610421578063a70bba671461043457610227565b80637fdc9fc8146103b2578063803841b7146103c55780638da5cb5b146103cd57806393ca2f8a146103d557610227565b8063564cd092116101b35780636c8381f8116101825780636c8381f81461035b578063715018a61461036357806373b53e931461036b57806374d6c4a61461038c5780637d4dd9541461039f57610227565b8063564cd092146103185780635b8bec551461032b5780635d44444b1461034057806360adc8ab1461035357610227565b80632b7746f1116101fa5780632b7746f1146102ac5780633a5ad779146102bf57806349cf2a61146102d25780634a4f0db3146102e5578063508d501d1461030557610227565b80631246dbf51461022c57806313af4035146102555780631987da481461026a5780631ece366a1461028a575b600080fd5b61023f61023a366004611fba565b6104e4565b60405161024c91906122f8565b60405180910390f35b610268610263366004611fba565b61056d565b005b61027d610278366004611fba565b610659565b60405161024c9190612303565b61029d610298366004612051565b6106d4565b60405161024c939291906127d4565b61027d6102ba366004611fba565b61095b565b61027d6102cd366004611fba565b61099e565b61029d6102e0366004612051565b6109e1565b6102f86102f3366004611fba565b610b96565b60405161024c91906122cf565b61027d610313366004611fba565b610cc7565b61027d61032636600461201d565b610d18565b610333610f2d565b60405161024c919061228d565b61027d61034e366004611fba565b610f3c565b610333610f7f565b610333610f8e565b610268610f9d565b61037e610379366004612051565b611032565b60405161024c9291906127c6565b61037e61039a36600461208b565b61112e565b61037e6103ad366004611ff2565b61116d565b61027d6103c0366004611ff2565b611277565b610333611306565b610333611388565b61037e6103e3366004612051565b611397565b6102686103f63660046121e4565b6114c9565b61037e61040936600461208b565b61150d565b61027d61041c366004611fba565b61154b565b61027d61042f366004611fba565b611649565b610333610442366004611ff2565b61168c565b61027d610455366004611fba565b611712565b610333610468366004611fba565b611755565b6102686117d6565b610333611899565b61026861048b366004611fba565b6118a8565b61037e61049e366004612051565b61196f565b6102686104b1366004611fba565b611a0d565b61027d611a6e565b61027d6104cc366004611fba565b611a74565b6102686104df366004611fba565b611b1e565b6067546040516372971b3f60e01b81526000916001600160a01b0316906372971b3f9061051590859060040161228d565b60206040518083038186803b15801561052d57600080fd5b505afa158015610541573d6000803e3d6000fd5b505050506040513d601f19601f820116820180604052508101906105659190612134565b90505b919050565b610575611b7f565b6001600160a01b0316610586611388565b6001600160a01b0316146105b55760405162461bcd60e51b81526004016105ac906124e3565b60405180910390fd5b6001600160a01b0381166105db5760405162461bcd60e51b81526004016105ac90612779565b6033546001600160a01b03828116911614156106095760405162461bcd60e51b81526004016105ac906124a3565b6034546001600160a01b03828116911614156106375760405162461bcd60e51b81526004016105ac90612443565b603480546001600160a01b0319166001600160a01b0392909216919091179055565b600061066482611755565b6001600160a01b031663662b62746040518163ffffffff1660e01b815260040160206040518083038186803b15801561069c57600080fd5b505afa1580156106b0573d6000803e3d6000fd5b505050506040513d601f19601f8201168201806040525081019061056591906121fc565b606954600090819081906001600160a01b031633146107055760405162461bcd60e51b81526004016105ac906124c3565b600086116107255760405162461bcd60e51b81526004016105ac906125c7565b600085116107455760405162461bcd60e51b81526004016105ac906123c4565b6040805180820190915286815260208101869052600061076489610b96565b905060006107718a611a74565b8251909150158015906107875750602082015115155b156107fe576107a7898360005b60200201518460015b6020020151611b83565b6020840181905288106107bc578883526107f9565b6107d1888360015b602002015184600061079d565b8084528910156107f157634e487b7160e01b600052600160045260246000fd5b602083018890525b610862565b6402540be40061084461082c670de0b6b3a764000061081d858d61286e565b610827919061284e565b611bed565b6108358c611bed565b61083f919061288d565b611c1a565b11156108625760405162461bcd60e51b81526004016105ac906126d9565b606a5483516020850151670de0b6b3a76400009061088190859061286e565b61088b919061284e565b6108959190612836565b106108b25760405162461bcd60e51b81526004016105ac906123a1565b60006108bd8b611755565b6001600160a01b0316630b4c7e4d858a6040518363ffffffff1660e01b81526004016108ea9291906122dd565b602060405180830381600087803b15801561090457600080fd5b505af1158015610918573d6000803e3d6000fd5b505050506040513d601f19601f8201168201806040525081019061093c91906121fc565b84516020909501519497509395509293505050505b9450945094915050565b600061096682611755565b6001600160a01b03166386fc88d36040518163ffffffff1660e01b815260040160206040518083038186803b15801561069c57600080fd5b60006109a982611755565b6001600160a01b031663b9e8c9fd6040518163ffffffff1660e01b815260040160206040518083038186803b15801561069c57600080fd5b600080600084861415610a065760405162461bcd60e51b81526004016105ac90612671565b60028610610a265760405162461bcd60e51b81526004016105ac9061233f565b60028510610a465760405162461bcd60e51b81526004016105ac9061233f565b6000610a5488888888611032565b50604051633a6b625360e11b815290915030906374d6c4a690610a83908b908b908b908b9088906004016122a1565b6040805180830381600087803b158015610a9c57600080fd5b505af1925050508015610acc575060408051601f3d908101601f19168201909252610ac991810190612214565b60015b610b89573d808015610afa576040519150601f19603f3d011682016040523d82523d6000602084013e610aff565b606091505b508051606014610b5e57604481511015610b2b5760405162461bcd60e51b81526004016105ac90612607565b60048101905080806020019051810190610b459190612154565b60405162461bcd60e51b81526004016105ac919061230c565b600080600083806020019051810190610b779190612237565b91995097509550610951945050505050565b5050509450945094915050565b610b9e611f9c565b6000610ba983611755565b6001600160a01b0316634903b0d160006040518263ffffffff1660e01b8152600401610bd59190612303565b60206040518083038186803b158015610bed57600080fd5b505afa158015610c01573d6000803e3d6000fd5b505050506040513d601f19601f82011682018060405250810190610c2591906121fc565b90506000610c3284611755565b6001600160a01b0316634903b0d160016040518263ffffffff1660e01b8152600401610c5e9190612303565b60206040518083038186803b158015610c7657600080fd5b505afa158015610c8a573d6000803e3d6000fd5b505050506040513d601f19601f82011682018060405250810190610cae91906121fc565b6040805180820190915292835260208301525092915050565b6067546000906001600160a01b031663d88bf68d610ce484611755565b6040518263ffffffff1660e01b8152600401610d00919061228d565b60206040518083038186803b15801561069c57600080fd5b6000808311610d395760405162461bcd60e51b81526004016105ac906123e4565b60008211610d595760405162461bcd60e51b81526004016105ac906125a6565b60408051808201909152838152602081018390526000610d7886610b96565b90506000610d8587611a74565b825190915015801590610d9b5750602082015115155b15610dfa57610dac86836000610794565b602084018190528510610dc157858352610df5565b610dcd858360016107c4565b808452861015610ded57634e487b7160e01b600052600160045260246000fd5b602083018590525b610e4c565b6402540be400610e22610e19670de0b6b3a764000061081d858a61286e565b61083589611bed565b1115610e405760405162461bcd60e51b81526004016105ac906126d9565b60009350505050610f26565b606a5483516020850151670de0b6b3a764000090610e6b90859061286e565b610e75919061284e565b610e7f9190612836565b10610e9c5760405162461bcd60e51b81526004016105ac906123a1565b610ea587611755565b6001600160a01b0316638d8ea727846040518263ffffffff1660e01b8152600401610ed091906122cf565b60206040518083038186803b158015610ee857600080fd5b505afa158015610efc573d6000803e3d6000fd5b505050506040513d601f19601f82011682018060405250810190610f2091906121fc565b93505050505b9392505050565b6069546001600160a01b031681565b6000610f4782611755565b6001600160a01b03166392526c0c6040518163ffffffff1660e01b815260040160206040518083038186803b15801561069c57600080fd5b6068546001600160a01b031681565b6034546001600160a01b031690565b610fa5611b7f565b6001600160a01b0316610fb6611388565b6001600160a01b031614610fdc5760405162461bcd60e51b81526004016105ac906124e3565b6033546040516000916001600160a01b0316907f8be0079c531659141344cd1fd0a4f28419497f9722a3daafe3b4186f6b6457e0908390a3603380546001600160a01b0319908116909155603480549091169055565b600080838514156110555760405162461bcd60e51b81526004016105ac90612671565b600285106110755760405162461bcd60e51b81526004016105ac9061233f565b600284106110955760405162461bcd60e51b81526004016105ac9061233f565b6000806110a188611755565b6001600160a01b031663556d6e9f8888886040518463ffffffff1660e01b81526004016110d0939291906127d4565b604080518083038186803b1580156110e757600080fd5b505afa1580156110fb573d6000803e3d6000fd5b505050506040513d601f19601f8201168201806040525081019061111f9190612214565b90999098509650505050505050565b6000803330146111505760405162461bcd60e51b81526004016105ac90612631565b61115f87878787876001611c43565b915091509550959350505050565b600080600183116111905760405162461bcd60e51b81526004016105ac90612719565b600061119b8561154b565b9050600081116111bd5760405162461bcd60e51b81526004016105ac90612463565b808411156111dd5760405162461bcd60e51b81526004016105ac90612483565b60006111e886611755565b6001600160a01b0316633077059f866040518263ffffffff1660e01b81526004016112139190612303565b604080518083038186803b15801561122a57600080fd5b505afa15801561123e573d6000803e3d6000fd5b505050506040513d601f19601f8201168201806040525081019061126291906120ce565b80516020909101519097909650945050505050565b600061128283611755565b6001600160a01b0316634903b0d1836040518263ffffffff1660e01b81526004016112ad9190612303565b60206040518083038186803b1580156112c557600080fd5b505afa1580156112d9573d6000803e3d6000fd5b505050506040513d601f19601f820116820180604052508101906112fd91906121fc565b90505b92915050565b6067546040805163cab4d3db60e01b815290516000926001600160a01b03169163cab4d3db916004808301926020929190829003018186803b15801561134b57600080fd5b505afa15801561135f573d6000803e3d6000fd5b505050506040513d601f19601f820116820180604052508101906113839190611fd6565b905090565b6033546001600160a01b031690565b60695460009081906001600160a01b031633146113c65760405162461bcd60e51b81526004016105ac906124c3565b600185116113e65760405162461bcd60e51b81526004016105ac90612503565b60006113f18761154b565b9050808611156114135760405162461bcd60e51b81526004016105ac90612483565b600061141e88611755565b6001600160a01b0316633eb1719f8860405180604001604052808a815260200189815250306040518463ffffffff1660e01b815260040161146193929190612799565b6040805180830381600087803b15801561147a57600080fd5b505af115801561148e573d6000803e3d6000fd5b505050506040513d601f19601f820116820180604052508101906114b291906120ce565b805160209091015190999098509650505050505050565b6114d1611b7f565b6001600160a01b03166114e2611388565b6001600160a01b0316146115085760405162461bcd60e51b81526004016105ac906124e3565b606a55565b60685460009081906001600160a01b0316331461153c5760405162461bcd60e51b81526004016105ac90612651565b61115f87878787876000611c43565b60675460009081906001600160a01b031663977d912261156a85611755565b6040518263ffffffff1660e01b8152600401611586919061228d565b60206040518083038186803b15801561159e57600080fd5b505afa1580156115b2573d6000803e3d6000fd5b505050506040513d601f19601f820116820180604052508101906115d69190611fd6565b9050806001600160a01b03166318160ddd6040518163ffffffff1660e01b815260040160206040518083038186803b15801561161157600080fd5b505afa158015611625573d6000803e3d6000fd5b505050506040513d601f19601f82011682018060405250810190610f2691906121fc565b600061165482611755565b6001600160a01b031663c146bf946040518163ffffffff1660e01b815260040160206040518083038186803b15801561069c57600080fd5b600061169783611755565b6001600160a01b031663c6610657836040518263ffffffff1660e01b81526004016116c29190612303565b60206040518083038186803b1580156116da57600080fd5b505afa1580156116ee573d6000803e3d6000fd5b505050506040513d601f19601f820116820180604052508101906112fd9190611fd6565b600061171d82611755565b6001600160a01b031663ddca3f436040518163ffffffff1660e01b815260040160206040518083038186803b15801561069c57600080fd5b6067546040516353eb076960e11b81526000916001600160a01b03169063a7d60ed29061178690859060040161228d565b60206040518083038186803b15801561179e57600080fd5b505afa1580156117b2573d6000803e3d6000fd5b505050506040513d601f19601f820116820180604052508101906105659190611fd6565b6034546001600160a01b03166117fe5760405162461bcd60e51b81526004016105ac906126fa565b611806611b7f565b6034546001600160a01b039081169116146118335760405162461bcd60e51b81526004016105ac90612361565b6034546033546040516001600160a01b0392831692909116907f8be0079c531659141344cd1fd0a4f28419497f9722a3daafe3b4186f6b6457e090600090a360348054603380546001600160a01b03199081166001600160a01b03841617909155169055565b6067546001600160a01b031681565b600054610100900460ff16806118c1575060005460ff16155b6118dd5760405162461bcd60e51b81526004016105ac90612558565b600054610100900460ff16158015611908576000805460ff1961ff0019909116610100171660011790555b611910611d82565b611922826001600160a01b0316611e57565b61193e5760405162461bcd60e51b81526004016105ac906125e7565b606780546001600160a01b0319166001600160a01b038416179055801561196b576000805461ff00191690555b5050565b600080838514156119925760405162461bcd60e51b81526004016105ac90612671565b600285106119b25760405162461bcd60e51b81526004016105ac9061233f565b600284106119d25760405162461bcd60e51b81526004016105ac9061233f565b6000806119de88611755565b6001600160a01b03166337ed3a7a8888886040518463ffffffff1660e01b81526004016110d0939291906127d4565b611a15611b7f565b6001600160a01b0316611a26611388565b6001600160a01b031614611a4c5760405162461bcd60e51b81526004016105ac906124e3565b606980546001600160a01b0319166001600160a01b0392909216919091179055565b606a5481565b600080611a808361154b565b90508015611b15576000611a9d846001600064174876e800611032565b5090506000611ab5856000600164174876e80061196f565b509050611ac5826298968061286e565b9150611ad4816298968061286e565b90506000611ae186611649565b905082811015611af75782945050505050610568565b81811115611b0a57509250610568915050565b935061056892505050565b610f268361099e565b611b26611b7f565b6001600160a01b0316611b37611388565b6001600160a01b031614611b5d5760405162461bcd60e51b81526004016105ac906124e3565b606880546001600160a01b0319166001600160a01b0392909216919091179055565b3390565b6000808411611ba45760405162461bcd60e51b81526004016105ac90612405565b600083118015611bb45750600082115b611bd05760405162461bcd60e51b81526004016105ac90612424565b82611bdb838661286e565b611be5919061284e565b949350505050565b60006001600160ff1b03821115611c165760405162461bcd60e51b81526004016105ac90612691565b5090565b600080821215611c3a57611c35611c3083611e5d565b611e8b565b610565565b61056582611e8b565b60008085871415611c665760405162461bcd60e51b81526004016105ac90612671565b60028710611c865760405162461bcd60e51b81526004016105ac9061233f565b60028610611ca65760405162461bcd60e51b81526004016105ac9061233f565b60008511611cc65760405162461bcd60e51b81526004016105ac90612381565b600080611cd28a611755565b6001600160a01b0316635b41b9088a8a8a8a6040518563ffffffff1660e01b8152600401611d0394939291906127ea565b6040805180830381600087803b158015611d1c57600080fd5b505af1158015611d30573d6000803e3d6000fd5b505050506040513d601f19601f82011682018060405250810190611d549190612214565b91509150841561111f576000611d698b611a74565b9050604051818152886020820152836040820152606081fd5b600054610100900460ff1680611d9b575060005460ff16155b611db75760405162461bcd60e51b81526004016105ac90612558565b600054610100900460ff16158015611de2576000805460ff1961ff0019909116610100171660011790555b611dea611ead565b6000611df4611b7f565b603380546001600160a01b0319166001600160a01b038316908117909155604051919250906000907f8be0079c531659141344cd1fd0a4f28419497f9722a3daafe3b4186f6b6457e0908290a3508015611e54576000805461ff00191690555b50565b3b151590565b6000600160ff1b8213611e825760405162461bcd60e51b81526004016105ac90612738565b610565826128f8565b600080821215611c165760405162461bcd60e51b81526004016105ac90612523565b600054610100900460ff1680611ec6575060005460ff16155b611ee25760405162461bcd60e51b81526004016105ac90612558565b600054610100900460ff16158015611f0d576000805460ff1961ff0019909116610100171660011790555b611f15611f29565b8015611e54576000805461ff001916905550565b600054610100900460ff1680611f42575060005460ff16155b611f5e5760405162461bcd60e51b81526004016105ac90612558565b600054610100900460ff16158015611f15576000805460ff1961ff0019909116610100171660011790558015611e54576000805461ff001916905550565b60405180604001604052806002906020820280368337509192915050565b600060208284031215611fcb578081fd5b8135610f268161293e565b600060208284031215611fe7578081fd5b8151610f268161293e565b60008060408385031215612004578081fd5b823561200f8161293e565b946020939093013593505050565b600080600060608486031215612031578081fd5b833561203c8161293e565b95602085013595506040909401359392505050565b60008060008060808587031215612066578081fd5b84356120718161293e565b966020860135965060408601359560600135945092505050565b600080600080600060a086880312156120a2578081fd5b85356120ad8161293e565b97602087013597506040870135966060810135965060800135945092505050565b6000604082840312156120df578081fd5b82601f8301126120ed578081fd5b6120f76040612805565b808385604086011115612108578384fd5b835b600281101561212957815184526020938401939091019060010161210a565b509095945050505050565b600060208284031215612145578081fd5b81518015158114610f26578182fd5b600060208284031215612165578081fd5b815167ffffffffffffffff8082111561217c578283fd5b818401915084601f83011261218f578283fd5b8151818111156121a1576121a1612928565b6121b4601f8201601f1916602001612805565b91508082528560208285010111156121ca578384fd5b6121db8160208401602086016128cc565b50949350505050565b6000602082840312156121f5578081fd5b5035919050565b60006020828403121561220d578081fd5b5051919050565b60008060408385031215612226578182fd5b505080516020909101519092909150565b60008060006060848603121561224b578283fd5b8351925060208401519150604084015190509250925092565b8060005b6002811015612287578151845260209384019390910190600101612268565b50505050565b6001600160a01b0391909116815260200190565b6001600160a01b03959095168552602085019390935260408401919091526060830152608082015260a00190565b604081016113008284612264565b606081016122eb8285612264565b8260408301529392505050565b901515815260200190565b90815260200190565b600060208252825180602084015261232b8160408501602087016128cc565b601f01601f19169190910160400192915050565b60208082526008908201526720a6afa1a4a7a7a960c11b604082015260600190565b602080825260069082015265534f5f434e4360d01b604082015260600190565b6020808252600690820152650414d5f4149360d41b604082015260600190565b602080825260099082015268414d5f475454564c4360b81b604082015260600190565b6020808252600690820152650414d5f4241360d41b604082015260600190565b6020808252600790820152660414d5f435141360cc1b604082015260600190565b602080825260059082015264414d5f494160d81b604082015260600190565b602080825260059082015264105357d25360da1b604082015260600190565b602080825260069082015265534f5f53414360d01b604082015260600190565b60208082526006908201526520a6afaa262d60d11b604082015260600190565b60208082526006908201526520a6afa627a360d11b604082015260600190565b602080825260069082015265534f5f53414f60d01b604082015260600190565b6020808252600690820152650414d5f4f4c560d41b604082015260600190565b602080825260069082015265534f5f434e4f60d01b604082015260600190565b60208082526006908201526520a6afa624ad60d11b604082015260600190565b6020808252818101527f53616665436173743a2076616c7565206d75737420626520706f736974697665604082015260600190565b6020808252602e908201527f496e697469616c697a61626c653a20636f6e747261637420697320616c72656160408201526d191e481a5b9a5d1a585b1a5e995960921b606082015260800190565b6020808252600790820152660414d5f434241360cc1b604082015260600190565b6020808252600690820152650414d5f5141360d41b604082015260600190565b602080825260069082015265414d5f464e4360d01b604082015260600190565b60208082526010908201526f2ab732bc3832b1ba32b21032b93937b960811b604082015260600190565b602080825260069082015265414d5f4f414d60d01b604082015260600190565b602080825260069082015265105357d3d35560d21b604082015260600190565b602080825260069082015265414d5f53434960d01b604082015260600190565b60208082526028908201527f53616665436173743a2076616c756520646f65736e27742066697420696e2061604082015267371034b73a191a9b60c11b606082015260800190565b602080825260079082015266414d5f4942494160c81b604082015260600190565b6020808252600590820152640534f5f43360dc1b604082015260600190565b60208082526005908201526420a6afa62d60d91b604082015260600190565b60208082526021908201527f4661697274726164654d6174683a20696e76657273696f6e206f766572666c6f6040820152607760f81b606082015260800190565b6020808252600690820152650534f5f4e57360d41b604082015260600190565b838152608081016127ad6020830185612264565b6001600160a01b03929092166060919091015292915050565b918252602082015260400190565b9283526020830191909152604082015260600190565b93845260208401929092526040830152606082015260800190565b604051601f8201601f1916810167ffffffffffffffff8111828210171561282e5761282e612928565b604052919050565b6000821982111561284957612849612912565b500190565b60008261286957634e487b7160e01b81526012600452602481fd5b500490565b600081600019048311821515161561288857612888612912565b500290565b60008083128015600160ff1b8501841216156128ab576128ab612912565b6001600160ff1b03840183138116156128c6576128c6612912565b50500390565b60005b838110156128e75781810151838201526020016128cf565b838111156122875750506000910152565b6000600160ff1b82141561290e5761290e612912565b0390565b634e487b7160e01b600052601160045260246000fd5b634e487b7160e01b600052604160045260246000fd5b6001600160a01b0381168114611e5457600080fdfea2646970667358221220719e1307d21870b478e49fa4c029a60ab4383bb6d9d74453c4c89a5a13b8d74764736f6c63430008010033",
    "linkReferences": {},
    "deployedLinkReferences": {}
}