{
    "_format": "hh-sol-artifact-1",
    "contractName": "WrapAmm",
    "sourceName": "contracts/amm/WrapAmm.sol",
    "abi": [
        {
            "anonymous": false,
            "inputs": [
                {
                    "indexed": true,
                    "internalType": "address",
                    "name": "previousOwner",
                    "type": "address"
                },
                {
                    "indexed": true,
                    "internalType": "address",
                    "name": "newOwner",
                    "type": "address"
                }
            ],
            "name": "OwnershipTransferred",
            "type": "event"
        },
        {
            "inputs": [
                {
                    "internalType": "address",
                    "name": "baseToken",
                    "type": "address"
                },
                {
                    "internalType": "uint256",
                    "name": "amount0Desired",
                    "type": "uint256"
                },
                {
                    "internalType": "uint256",
                    "name": "amount1Desired",
                    "type": "uint256"
                },
                {
                    "internalType": "uint256",
                    "name": "minLiquidity",
                    "type": "uint256"
                }
            ],
            "name": "addLiquidity",
            "outputs": [
                {
                    "internalType": "uint256",
                    "name": "",
                    "type": "uint256"
                },
                {
                    "internalType": "uint256",
                    "name": "",
                    "type": "uint256"
                },
                {
                    "internalType": "uint256",
                    "name": "",
                    "type": "uint256"
                }
            ],
            "stateMutability": "nonpayable",
            "type": "function"
        },
        {
            "inputs": [
                {
                    "internalType": "address",
                    "name": "baseToken",
                    "type": "address"
                },
                {
                    "internalType": "uint256",
                    "name": "amount0Desired",
                    "type": "uint256"
                },
                {
                    "internalType": "uint256",
                    "name": "amount1Desired",
                    "type": "uint256"
                }
            ],
            "name": "calcLiquidityByTokenAmounts",
            "outputs": [
                {
                    "internalType": "uint256",
                    "name": "",
                    "type": "uint256"
                }
            ],
            "stateMutability": "view",
            "type": "function"
        },
        {
            "inputs": [
                {
                    "internalType": "address",
                    "name": "baseToken",
                    "type": "address"
                },
                {
                    "internalType": "uint256",
                    "name": "liquidity",
                    "type": "uint256"
                }
            ],
            "name": "calcTokenAmountsByLiquidity",
            "outputs": [
                {
                    "internalType": "uint256",
                    "name": "amount0",
                    "type": "uint256"
                },
                {
                    "internalType": "uint256",
                    "name": "amount1",
                    "type": "uint256"
                }
            ],
            "stateMutability": "view",
            "type": "function"
        },
        {
            "inputs": [],
            "name": "candidate",
            "outputs": [
                {
                    "internalType": "address",
                    "name": "",
                    "type": "address"
                }
            ],
            "stateMutability": "view",
            "type": "function"
        },
        {
            "inputs": [],
            "name": "factory",
            "outputs": [
                {
                    "internalType": "address",
                    "name": "",
                    "type": "address"
                }
            ],
            "stateMutability": "view",
            "type": "function"
        },
        {
            "inputs": [
                {
                    "internalType": "address",
                    "name": "baseToken",
                    "type": "address"
                }
            ],
            "name": "getAdminFeeRatio",
            "outputs": [
                {
                    "internalType": "uint256",
                    "name": "",
                    "type": "uint256"
                }
            ],
            "stateMutability": "view",
            "type": "function"
        },
        {
            "inputs": [],
            "name": "getAdminFeeReceiver",
            "outputs": [
                {
                    "internalType": "address",
                    "name": "",
                    "type": "address"
                }
            ],
            "stateMutability": "view",
            "type": "function"
        },
        {
            "inputs": [
                {
                    "internalType": "address",
                    "name": "baseToken",
                    "type": "address"
                }
            ],
            "name": "getAmmTwapInterval",
            "outputs": [
                {
                    "internalType": "uint256",
                    "name": "",
                    "type": "uint256"
                }
            ],
            "stateMutability": "view",
            "type": "function"
        },
        {
            "inputs": [
                {
                    "internalType": "address",
                    "name": "baseToken",
                    "type": "address"
                },
                {
                    "internalType": "uint256",
                    "name": "i",
                    "type": "uint256"
                }
            ],
            "name": "getBalances",
            "outputs": [
                {
                    "internalType": "uint256",
                    "name": "",
                    "type": "uint256"
                }
            ],
            "stateMutability": "view",
            "type": "function"
        },
        {
            "inputs": [
                {
                    "internalType": "address",
                    "name": "baseToken",
                    "type": "address"
                }
            ],
            "name": "getCoinBalances",
            "outputs": [
                {
                    "internalType": "uint256[2]",
                    "name": "",
                    "type": "uint256[2]"
                }
            ],
            "stateMutability": "view",
            "type": "function"
        },
        {
            "inputs": [
                {
                    "internalType": "address",
                    "name": "baseToken",
                    "type": "address"
                },
                {
                    "internalType": "uint256",
                    "name": "i",
                    "type": "uint256"
                }
            ],
            "name": "getCoins",
            "outputs": [
                {
                    "internalType": "address",
                    "name": "",
                    "type": "address"
                }
            ],
            "stateMutability": "view",
            "type": "function"
        },
        {
            "inputs": [
                {
                    "internalType": "address",
                    "name": "baseToken",
                    "type": "address"
                },
                {
                    "internalType": "uint256",
                    "name": "i",
                    "type": "uint256"
                },
                {
                    "internalType": "uint256",
                    "name": "j",
                    "type": "uint256"
                },
                {
                    "internalType": "uint256",
                    "name": "dy",
                    "type": "uint256"
                }
            ],
            "name": "getDx",
            "outputs": [
                {
                    "internalType": "uint256",
                    "name": "",
                    "type": "uint256"
                },
                {
                    "internalType": "uint256",
                    "name": "",
                    "type": "uint256"
                }
            ],
            "stateMutability": "view",
            "type": "function"
        },
        {
            "inputs": [
                {
                    "internalType": "address",
                    "name": "baseToken",
                    "type": "address"
                },
                {
                    "internalType": "uint256",
                    "name": "i",
                    "type": "uint256"
                },
                {
                    "internalType": "uint256",
                    "name": "j",
                    "type": "uint256"
                },
                {
                    "internalType": "uint256",
                    "name": "dx",
                    "type": "uint256"
                }
            ],
            "name": "getDy",
            "outputs": [
                {
                    "internalType": "uint256",
                    "name": "",
                    "type": "uint256"
                },
                {
                    "internalType": "uint256",
                    "name": "",
                    "type": "uint256"
                }
            ],
            "stateMutability": "view",
            "type": "function"
        },
        {
            "inputs": [
                {
                    "internalType": "address",
                    "name": "baseToken",
                    "type": "address"
                }
            ],
            "name": "getFee",
            "outputs": [
                {
                    "internalType": "uint256",
                    "name": "",
                    "type": "uint256"
                }
            ],
            "stateMutability": "view",
            "type": "function"
        },
        {
            "inputs": [
                {
                    "internalType": "address",
                    "name": "baseToken",
                    "type": "address"
                }
            ],
            "name": "getPool",
            "outputs": [
                {
                    "internalType": "address",
                    "name": "",
                    "type": "address"
                }
            ],
            "stateMutability": "view",
            "type": "function"
        },
        {
            "inputs": [
                {
                    "internalType": "address",
                    "name": "baseToken",
                    "type": "address"
                }
            ],
            "name": "getPriceCurrent",
            "outputs": [
                {
                    "internalType": "uint256",
                    "name": "",
                    "type": "uint256"
                }
            ],
            "stateMutability": "view",
            "type": "function"
        },
        {
            "inputs": [
                {
                    "internalType": "address",
                    "name": "baseToken",
                    "type": "address"
                }
            ],
            "name": "getPriceLast",
            "outputs": [
                {
                    "internalType": "uint256",
                    "name": "",
                    "type": "uint256"
                }
            ],
            "stateMutability": "view",
            "type": "function"
        },
        {
            "inputs": [
                {
                    "internalType": "address",
                    "name": "baseToken",
                    "type": "address"
                }
            ],
            "name": "getPriceOracle",
            "outputs": [
                {
                    "internalType": "uint256",
                    "name": "",
                    "type": "uint256"
                }
            ],
            "stateMutability": "view",
            "type": "function"
        },
        {
            "inputs": [
                {
                    "internalType": "address",
                    "name": "baseToken",
                    "type": "address"
                }
            ],
            "name": "getPriceScale",
            "outputs": [
                {
                    "internalType": "uint256",
                    "name": "",
                    "type": "uint256"
                }
            ],
            "stateMutability": "view",
            "type": "function"
        },
        {
            "inputs": [
                {
                    "internalType": "address",
                    "name": "baseToken",
                    "type": "address"
                }
            ],
            "name": "getTotalLiquidity",
            "outputs": [
                {
                    "internalType": "uint256",
                    "name": "",
                    "type": "uint256"
                }
            ],
            "stateMutability": "view",
            "type": "function"
        },
        {
            "inputs": [
                {
                    "internalType": "address",
                    "name": "baseToken",
                    "type": "address"
                }
            ],
            "name": "hasPool",
            "outputs": [
                {
                    "internalType": "bool",
                    "name": "",
                    "type": "bool"
                }
            ],
            "stateMutability": "view",
            "type": "function"
        },
        {
            "inputs": [
                {
                    "internalType": "address",
                    "name": "factoryArg",
                    "type": "address"
                }
            ],
            "name": "initialize",
            "outputs": [],
            "stateMutability": "nonpayable",
            "type": "function"
        },
        {
            "inputs": [],
            "name": "liquidityProvider",
            "outputs": [
                {
                    "internalType": "address",
                    "name": "",
                    "type": "address"
                }
            ],
            "stateMutability": "view",
            "type": "function"
        },
        {
            "inputs": [],
            "name": "marketTaker",
            "outputs": [
                {
                    "internalType": "address",
                    "name": "",
                    "type": "address"
                }
            ],
            "stateMutability": "view",
            "type": "function"
        },
        {
            "inputs": [
                {
                    "internalType": "address",
                    "name": "baseToken",
                    "type": "address"
                }
            ],
            "name": "midFee",
            "outputs": [
                {
                    "internalType": "uint256",
                    "name": "",
                    "type": "uint256"
                }
            ],
            "stateMutability": "view",
            "type": "function"
        },
        {
            "inputs": [],
            "name": "owner",
            "outputs": [
                {
                    "internalType": "address",
                    "name": "",
                    "type": "address"
                }
            ],
            "stateMutability": "view",
            "type": "function"
        },
        {
            "inputs": [
                {
                    "internalType": "address",
                    "name": "baseToken",
                    "type": "address"
                },
                {
                    "internalType": "uint256",
                    "name": "liquidity",
                    "type": "uint256"
                },
                {
                    "internalType": "uint256",
                    "name": "minAmount0",
                    "type": "uint256"
                },
                {
                    "internalType": "uint256",
                    "name": "minAmount1",
                    "type": "uint256"
                }
            ],
            "name": "removeLiquidity",
            "outputs": [
                {
                    "internalType": "uint256",
                    "name": "amount0",
                    "type": "uint256"
                },
                {
                    "internalType": "uint256",
                    "name": "amount1",
                    "type": "uint256"
                }
            ],
            "stateMutability": "nonpayable",
            "type": "function"
        },
        {
            "inputs": [],
            "name": "renounceOwnership",
            "outputs": [],
            "stateMutability": "nonpayable",
            "type": "function"
        },
        {
            "inputs": [
                {
                    "internalType": "address",
                    "name": "liquidityProviderArg",
                    "type": "address"
                }
            ],
            "name": "setLiquidityProvider",
            "outputs": [],
            "stateMutability": "nonpayable",
            "type": "function"
        },
        {
            "inputs": [
                {
                    "internalType": "address",
                    "name": "marketTakerArg",
                    "type": "address"
                }
            ],
            "name": "setMarketTaker",
            "outputs": [],
            "stateMutability": "nonpayable",
            "type": "function"
        },
        {
            "inputs": [
                {
                    "internalType": "address",
                    "name": "newOwner",
                    "type": "address"
                }
            ],
            "name": "setOwner",
            "outputs": [],
            "stateMutability": "nonpayable",
            "type": "function"
        },
        {
            "inputs": [
                {
                    "internalType": "address",
                    "name": "baseToken",
                    "type": "address"
                },
                {
                    "internalType": "uint256",
                    "name": "i",
                    "type": "uint256"
                },
                {
                    "internalType": "uint256",
                    "name": "j",
                    "type": "uint256"
                },
                {
                    "internalType": "uint256",
                    "name": "dx",
                    "type": "uint256"
                }
            ],
            "name": "simulatedSwap",
            "outputs": [
                {
                    "internalType": "uint256",
                    "name": "currentPrice",
                    "type": "uint256"
                },
                {
                    "internalType": "uint256",
                    "name": "amount0",
                    "type": "uint256"
                },
                {
                    "internalType": "uint256",
                    "name": "amount1",
                    "type": "uint256"
                },
                {
                    "internalType": "uint256",
                    "name": "oraclePrice",
                    "type": "uint256"
                }
            ],
            "stateMutability": "nonpayable",
            "type": "function"
        },
        {
            "inputs": [
                {
                    "internalType": "address",
                    "name": "baseToken",
                    "type": "address"
                },
                {
                    "internalType": "uint256",
                    "name": "i",
                    "type": "uint256"
                },
                {
                    "internalType": "uint256",
                    "name": "j",
                    "type": "uint256"
                },
                {
                    "internalType": "uint256",
                    "name": "dx",
                    "type": "uint256"
                },
                {
                    "internalType": "uint256",
                    "name": "dyLimit",
                    "type": "uint256"
                }
            ],
            "name": "simulatedSwapInternal",
            "outputs": [
                {
                    "internalType": "uint256",
                    "name": "",
                    "type": "uint256"
                },
                {
                    "internalType": "uint256",
                    "name": "",
                    "type": "uint256"
                }
            ],
            "stateMutability": "nonpayable",
            "type": "function"
        },
        {
            "inputs": [
                {
                    "internalType": "address",
                    "name": "baseToken",
                    "type": "address"
                },
                {
                    "internalType": "uint256",
                    "name": "i",
                    "type": "uint256"
                },
                {
                    "internalType": "uint256",
                    "name": "j",
                    "type": "uint256"
                },
                {
                    "internalType": "uint256",
                    "name": "dx",
                    "type": "uint256"
                },
                {
                    "internalType": "uint256",
                    "name": "dyLimit",
                    "type": "uint256"
                }
            ],
            "name": "swap",
            "outputs": [
                {
                    "internalType": "uint256",
                    "name": "",
                    "type": "uint256"
                },
                {
                    "internalType": "uint256",
                    "name": "",
                    "type": "uint256"
                }
            ],
            "stateMutability": "nonpayable",
            "type": "function"
        },
        {
            "inputs": [],
            "name": "totalVauleLockedCap",
            "outputs": [
                {
                    "internalType": "uint256",
                    "name": "",
                    "type": "uint256"
                }
            ],
            "stateMutability": "view",
            "type": "function"
        },
        {
            "inputs": [],
            "name": "updateOwner",
            "outputs": [],
            "stateMutability": "nonpayable",
            "type": "function"
        },
        {
            "inputs": [
                {
                    "internalType": "uint256",
                    "name": "totalVauleLockedCapArg",
                    "type": "uint256"
                }
            ],
            "name": "updateTotalVauleLockedCap",
            "outputs": [],
            "stateMutability": "nonpayable",
            "type": "function"
        }
    ],
    "bytecode": "0x608060405234801561001057600080fd5b50612a01806100206000396000f3fe608060405234801561001057600080fd5b50600436106102275760003560e01c80637fdc9fc811610130578063b88c9148116100b8578063cc8409281161007c578063cc840928146104a0578063e624c4bc146104b3578063e9a387b0146104c6578063fb39b424146104ce578063fcddb3cc146104e157610227565b8063b88c914814610457578063bbe4f6db1461046a578063bc5920ba1461047d578063c45a015514610485578063c4d66de81461048d57610227565b8063993a3a5c116100ff578063993a3a5c146103f85780639a5f60e51461040b5780639de8ef791461041e578063a27a64b214610431578063a70bba671461044457610227565b80637fdc9fc8146103c2578063803841b7146103d55780638da5cb5b146103dd57806393ca2f8a146103e557610227565b8063564cd092116101b35780636c8381f8116101825780636c8381f81461036b578063715018a61461037357806373b53e931461037b57806374d6c4a61461039c5780637d4dd954146103af57610227565b8063564cd092146103285780635b8bec551461033b5780635d44444b1461035057806360adc8ab1461036357610227565b80632b7746f1116101fa5780632b7746f1146102ac5780633a5ad779146102bf57806349cf2a61146102d25780634a4f0db3146102f5578063508d501d1461031557610227565b80631246dbf51461022c57806313af4035146102555780631987da481461026a5780631ece366a1461028a575b600080fd5b61023f61023a36600461202a565b6104f4565b60405161024c9190612370565b60405180910390f35b61026861026336600461202a565b61057d565b005b61027d61027836600461202a565b610669565b60405161024c919061237b565b61029d6102983660046120c1565b6106e4565b60405161024c9392919061284c565b61027d6102ba36600461202a565b610967565b61027d6102cd36600461202a565b6109aa565b6102e56102e03660046120c1565b6109ed565b60405161024c9493929190612862565b61030861030336600461202a565b610baa565b60405161024c9190612347565b61027d61032336600461202a565b610cdb565b61027d61033636600461208d565b610d2c565b610343610f41565b60405161024c9190612305565b61027d61035e36600461202a565b610f50565b610343610f93565b610343610fa2565b610268610fb1565b61038e6103893660046120c1565b611046565b60405161024c92919061283e565b61038e6103aa3660046120fb565b611142565b61038e6103bd366004612062565b611181565b61027d6103d0366004612062565b61128b565b61034361131a565b61034361139c565b61038e6103f33660046120c1565b6113ab565b610268610406366004612254565b6114dd565b61038e6104193660046120fb565b611521565b61027d61042c36600461202a565b61155f565b61027d61043f36600461202a565b61165d565b610343610452366004612062565b6116a0565b61027d61046536600461202a565b611726565b61034361047836600461202a565b611769565b6102686117ea565b6103436118ad565b61026861049b36600461202a565b6118bc565b61038e6104ae3660046120c1565b611983565b6102686104c136600461202a565b611a21565b61027d611a82565b61027d6104dc36600461202a565b611a88565b6102686104ef36600461202a565b611b7b565b6067546040516372971b3f60e01b81526000916001600160a01b0316906372971b3f90610525908590600401612305565b60206040518083038186803b15801561053d57600080fd5b505afa158015610551573d6000803e3d6000fd5b505050506040513d601f19601f8201168201806040525081019061057591906121a4565b90505b919050565b610585611bdc565b6001600160a01b031661059661139c565b6001600160a01b0316146105c55760405162461bcd60e51b81526004016105bc9061255b565b60405180910390fd5b6001600160a01b0381166105eb5760405162461bcd60e51b81526004016105bc906127f1565b6033546001600160a01b03828116911614156106195760405162461bcd60e51b81526004016105bc9061251b565b6034546001600160a01b03828116911614156106475760405162461bcd60e51b81526004016105bc906124bb565b603480546001600160a01b0319166001600160a01b0392909216919091179055565b600061067482611769565b6001600160a01b031663662b62746040518163ffffffff1660e01b815260040160206040518083038186803b1580156106ac57600080fd5b505afa1580156106c0573d6000803e3d6000fd5b505050506040513d601f19601f82011682018060405250810190610575919061226c565b606954600090819081906001600160a01b031633146107155760405162461bcd60e51b81526004016105bc9061253b565b600086116107355760405162461bcd60e51b81526004016105bc9061263f565b600085116107555760405162461bcd60e51b81526004016105bc9061243c565b6040805180820190915286815260208101869052600061077489610baa565b905060006107818a611a88565b8251909150158015906107975750602082015115155b1561080e576107b7898360005b60200201518460015b6020020151611be0565b6020840181905288106107cc57888352610809565b6107e1888360015b60200201518460006107ad565b80845289101561080157634e487b7160e01b600052600160045260246000fd5b602083018890525b610872565b6402540be40061085461083c670de0b6b3a764000061082d858d6128e6565b61083791906128c6565b611c4a565b6108458c611c4a565b61084f9190612905565b611c77565b11156108725760405162461bcd60e51b81526004016105bc90612751565b606a5483516020850151670de0b6b3a7640000906108919085906128e6565b61089b91906128c6565b6108a591906128ae565b106108c25760405162461bcd60e51b81526004016105bc90612419565b60006108cd8b611769565b6001600160a01b0316630b4c7e4d858a6040518363ffffffff1660e01b81526004016108fa929190612355565b602060405180830381600087803b15801561091457600080fd5b505af1158015610928573d6000803e3d6000fd5b505050506040513d601f19601f8201168201806040525081019061094c919061226c565b8451602090950151949c949b50995092975050505050505050565b600061097282611769565b6001600160a01b03166386fc88d36040518163ffffffff1660e01b815260040160206040518083038186803b1580156106ac57600080fd5b60006109b582611769565b6001600160a01b031663b9e8c9fd6040518163ffffffff1660e01b815260040160206040518083038186803b1580156106ac57600080fd5b60008060008085871415610a135760405162461bcd60e51b81526004016105bc906126e9565b60028710610a335760405162461bcd60e51b81526004016105bc906123b7565b60028610610a535760405162461bcd60e51b81526004016105bc906123b7565b6000610a6189898989611046565b50604051633a6b625360e11b815290915030906374d6c4a690610a90908c908c908c908c908890600401612319565b6040805180830381600087803b158015610aa957600080fd5b505af1925050508015610ad9575060408051601f3d908101601f19168201909252610ad691810190612284565b60015b610b9b573d808015610b07576040519150601f19603f3d011682016040523d82523d6000602084013e610b0c565b606091505b508051608014610b6b57604481511015610b385760405162461bcd60e51b81526004016105bc9061267f565b60048101905080806020019051810190610b5291906121c4565b60405162461bcd60e51b81526004016105bc9190612384565b60008060008084806020019051810190610b8591906122a7565b929c50909a5098509650610b9f95505050505050565b5050505b945094509450949050565b610bb261200c565b6000610bbd83611769565b6001600160a01b0316634903b0d160006040518263ffffffff1660e01b8152600401610be9919061237b565b60206040518083038186803b158015610c0157600080fd5b505afa158015610c15573d6000803e3d6000fd5b505050506040513d601f19601f82011682018060405250810190610c39919061226c565b90506000610c4684611769565b6001600160a01b0316634903b0d160016040518263ffffffff1660e01b8152600401610c72919061237b565b60206040518083038186803b158015610c8a57600080fd5b505afa158015610c9e573d6000803e3d6000fd5b505050506040513d601f19601f82011682018060405250810190610cc2919061226c565b6040805180820190915292835260208301525092915050565b6067546000906001600160a01b031663d88bf68d610cf884611769565b6040518263ffffffff1660e01b8152600401610d149190612305565b60206040518083038186803b1580156106ac57600080fd5b6000808311610d4d5760405162461bcd60e51b81526004016105bc9061245c565b60008211610d6d5760405162461bcd60e51b81526004016105bc9061261e565b60408051808201909152838152602081018390526000610d8c86610baa565b90506000610d9987611a88565b825190915015801590610daf5750602082015115155b15610e0e57610dc0868360006107a4565b602084018190528510610dd557858352610e09565b610de1858360016107d4565b808452861015610e0157634e487b7160e01b600052600160045260246000fd5b602083018590525b610e60565b6402540be400610e36610e2d670de0b6b3a764000061082d858a6128e6565b61084589611c4a565b1115610e545760405162461bcd60e51b81526004016105bc90612751565b60009350505050610f3a565b606a5483516020850151670de0b6b3a764000090610e7f9085906128e6565b610e8991906128c6565b610e9391906128ae565b10610eb05760405162461bcd60e51b81526004016105bc90612419565b610eb987611769565b6001600160a01b0316638d8ea727846040518263ffffffff1660e01b8152600401610ee49190612347565b60206040518083038186803b158015610efc57600080fd5b505afa158015610f10573d6000803e3d6000fd5b505050506040513d601f19601f82011682018060405250810190610f34919061226c565b93505050505b9392505050565b6069546001600160a01b031681565b6000610f5b82611769565b6001600160a01b03166392526c0c6040518163ffffffff1660e01b815260040160206040518083038186803b1580156106ac57600080fd5b6068546001600160a01b031681565b6034546001600160a01b031690565b610fb9611bdc565b6001600160a01b0316610fca61139c565b6001600160a01b031614610ff05760405162461bcd60e51b81526004016105bc9061255b565b6033546040516000916001600160a01b0316907f8be0079c531659141344cd1fd0a4f28419497f9722a3daafe3b4186f6b6457e0908390a3603380546001600160a01b0319908116909155603480549091169055565b600080838514156110695760405162461bcd60e51b81526004016105bc906126e9565b600285106110895760405162461bcd60e51b81526004016105bc906123b7565b600284106110a95760405162461bcd60e51b81526004016105bc906123b7565b6000806110b588611769565b6001600160a01b031663556d6e9f8888886040518463ffffffff1660e01b81526004016110e49392919061284c565b604080518083038186803b1580156110fb57600080fd5b505afa15801561110f573d6000803e3d6000fd5b505050506040513d601f19601f820116820180604052508101906111339190612284565b90999098509650505050505050565b6000803330146111645760405162461bcd60e51b81526004016105bc906126a9565b61117387878787876001611ca0565b915091509550959350505050565b600080600183116111a45760405162461bcd60e51b81526004016105bc90612791565b60006111af8561155f565b9050600081116111d15760405162461bcd60e51b81526004016105bc906124db565b808411156111f15760405162461bcd60e51b81526004016105bc906124fb565b60006111fc86611769565b6001600160a01b0316633077059f866040518263ffffffff1660e01b8152600401611227919061237b565b604080518083038186803b15801561123e57600080fd5b505afa158015611252573d6000803e3d6000fd5b505050506040513d601f19601f82011682018060405250810190611276919061213e565b80516020909101519097909650945050505050565b600061129683611769565b6001600160a01b0316634903b0d1836040518263ffffffff1660e01b81526004016112c1919061237b565b60206040518083038186803b1580156112d957600080fd5b505afa1580156112ed573d6000803e3d6000fd5b505050506040513d601f19601f82011682018060405250810190611311919061226c565b90505b92915050565b6067546040805163cab4d3db60e01b815290516000926001600160a01b03169163cab4d3db916004808301926020929190829003018186803b15801561135f57600080fd5b505afa158015611373573d6000803e3d6000fd5b505050506040513d601f19601f820116820180604052508101906113979190612046565b905090565b6033546001600160a01b031690565b60695460009081906001600160a01b031633146113da5760405162461bcd60e51b81526004016105bc9061253b565b600185116113fa5760405162461bcd60e51b81526004016105bc9061257b565b60006114058761155f565b9050808611156114275760405162461bcd60e51b81526004016105bc906124fb565b600061143288611769565b6001600160a01b0316633eb1719f8860405180604001604052808a815260200189815250306040518463ffffffff1660e01b815260040161147593929190612811565b6040805180830381600087803b15801561148e57600080fd5b505af11580156114a2573d6000803e3d6000fd5b505050506040513d601f19601f820116820180604052508101906114c6919061213e565b805160209091015190999098509650505050505050565b6114e5611bdc565b6001600160a01b03166114f661139c565b6001600160a01b03161461151c5760405162461bcd60e51b81526004016105bc9061255b565b606a55565b60685460009081906001600160a01b031633146115505760405162461bcd60e51b81526004016105bc906126c9565b61117387878787876000611ca0565b60675460009081906001600160a01b031663977d912261157e85611769565b6040518263ffffffff1660e01b815260040161159a9190612305565b60206040518083038186803b1580156115b257600080fd5b505afa1580156115c6573d6000803e3d6000fd5b505050506040513d601f19601f820116820180604052508101906115ea9190612046565b9050806001600160a01b03166318160ddd6040518163ffffffff1660e01b815260040160206040518083038186803b15801561162557600080fd5b505afa158015611639573d6000803e3d6000fd5b505050506040513d601f19601f82011682018060405250810190610f3a919061226c565b600061166882611769565b6001600160a01b031663c146bf946040518163ffffffff1660e01b815260040160206040518083038186803b1580156106ac57600080fd5b60006116ab83611769565b6001600160a01b031663c6610657836040518263ffffffff1660e01b81526004016116d6919061237b565b60206040518083038186803b1580156116ee57600080fd5b505afa158015611702573d6000803e3d6000fd5b505050506040513d601f19601f820116820180604052508101906113119190612046565b600061173182611769565b6001600160a01b031663ddca3f436040518163ffffffff1660e01b815260040160206040518083038186803b1580156106ac57600080fd5b6067546040516353eb076960e11b81526000916001600160a01b03169063a7d60ed29061179a908590600401612305565b60206040518083038186803b1580156117b257600080fd5b505afa1580156117c6573d6000803e3d6000fd5b505050506040513d601f19601f820116820180604052508101906105759190612046565b6034546001600160a01b03166118125760405162461bcd60e51b81526004016105bc90612772565b61181a611bdc565b6034546001600160a01b039081169116146118475760405162461bcd60e51b81526004016105bc906123d9565b6034546033546040516001600160a01b0392831692909116907f8be0079c531659141344cd1fd0a4f28419497f9722a3daafe3b4186f6b6457e090600090a360348054603380546001600160a01b03199081166001600160a01b03841617909155169055565b6067546001600160a01b031681565b600054610100900460ff16806118d5575060005460ff16155b6118f15760405162461bcd60e51b81526004016105bc906125d0565b600054610100900460ff1615801561191c576000805460ff1961ff0019909116610100171660011790555b611924611df2565b611936826001600160a01b0316611ec7565b6119525760405162461bcd60e51b81526004016105bc9061265f565b606780546001600160a01b0319166001600160a01b038416179055801561197f576000805461ff00191690555b5050565b600080838514156119a65760405162461bcd60e51b81526004016105bc906126e9565b600285106119c65760405162461bcd60e51b81526004016105bc906123b7565b600284106119e65760405162461bcd60e51b81526004016105bc906123b7565b6000806119f288611769565b6001600160a01b03166337ed3a7a8888886040518463ffffffff1660e01b81526004016110e49392919061284c565b611a29611bdc565b6001600160a01b0316611a3a61139c565b6001600160a01b031614611a605760405162461bcd60e51b81526004016105bc9061255b565b606980546001600160a01b0319166001600160a01b0392909216919091179055565b606a5481565b600080611a948361155f565b90508015611b7257600080611ab2856001600064174876e800611046565b91509150600080611acc876000600164174876e800611983565b909250905064174876e800611ae184866128ae565b611af390670de0b6b3a76400006128e6565b611afd91906128c6565b9350611b0e8164174876e8006128ae565b611b2083670de0b6b3a76400006128e6565b611b2a91906128c6565b91506000611b378861165d565b905084811015611b4f57849650505050505050610578565b82811115611b6557829650505050505050610578565b9550610578945050505050565b610f3a8361165d565b611b83611bdc565b6001600160a01b0316611b9461139c565b6001600160a01b031614611bba5760405162461bcd60e51b81526004016105bc9061255b565b606880546001600160a01b0319166001600160a01b0392909216919091179055565b3390565b6000808411611c015760405162461bcd60e51b81526004016105bc9061247d565b600083118015611c115750600082115b611c2d5760405162461bcd60e51b81526004016105bc9061249c565b82611c3883866128e6565b611c4291906128c6565b949350505050565b60006001600160ff1b03821115611c735760405162461bcd60e51b81526004016105bc90612709565b5090565b600080821215611c9757611c92611c8d83611ecd565b611efb565b610575565b61057582611efb565b60008085871415611cc35760405162461bcd60e51b81526004016105bc906126e9565b60028710611ce35760405162461bcd60e51b81526004016105bc906123b7565b60028610611d035760405162461bcd60e51b81526004016105bc906123b7565b60008511611d235760405162461bcd60e51b81526004016105bc906123f9565b600080611d2f8a611769565b6001600160a01b0316635b41b9088a8a8a8a6040518563ffffffff1660e01b8152600401611d609493929190612862565b6040805180830381600087803b158015611d7957600080fd5b505af1158015611d8d573d6000803e3d6000fd5b505050506040513d601f19601f82011682018060405250810190611db19190612284565b915091508415611133576000611dc68b611a88565b90506000611dd38c610967565b9050604051828152896020820152846040820152816060820152608081fd5b600054610100900460ff1680611e0b575060005460ff16155b611e275760405162461bcd60e51b81526004016105bc906125d0565b600054610100900460ff16158015611e52576000805460ff1961ff0019909116610100171660011790555b611e5a611f1d565b6000611e64611bdc565b603380546001600160a01b0319166001600160a01b038316908117909155604051919250906000907f8be0079c531659141344cd1fd0a4f28419497f9722a3daafe3b4186f6b6457e0908290a3508015611ec4576000805461ff00191690555b50565b3b151590565b6000600160ff1b8213611ef25760405162461bcd60e51b81526004016105bc906127b0565b61057582612970565b600080821215611c735760405162461bcd60e51b81526004016105bc9061259b565b600054610100900460ff1680611f36575060005460ff16155b611f525760405162461bcd60e51b81526004016105bc906125d0565b600054610100900460ff16158015611f7d576000805460ff1961ff0019909116610100171660011790555b611f85611f99565b8015611ec4576000805461ff001916905550565b600054610100900460ff1680611fb2575060005460ff16155b611fce5760405162461bcd60e51b81526004016105bc906125d0565b600054610100900460ff16158015611f85576000805460ff1961ff0019909116610100171660011790558015611ec4576000805461ff001916905550565b60405180604001604052806002906020820280368337509192915050565b60006020828403121561203b578081fd5b8135610f3a816129b6565b600060208284031215612057578081fd5b8151610f3a816129b6565b60008060408385031215612074578081fd5b823561207f816129b6565b946020939093013593505050565b6000806000606084860312156120a1578081fd5b83356120ac816129b6565b95602085013595506040909401359392505050565b600080600080608085870312156120d6578081fd5b84356120e1816129b6565b966020860135965060408601359560600135945092505050565b600080600080600060a08688031215612112578081fd5b853561211d816129b6565b97602087013597506040870135966060810135965060800135945092505050565b60006040828403121561214f578081fd5b82601f83011261215d578081fd5b612167604061287d565b808385604086011115612178578384fd5b835b600281101561219957815184526020938401939091019060010161217a565b509095945050505050565b6000602082840312156121b5578081fd5b81518015158114610f3a578182fd5b6000602082840312156121d5578081fd5b815167ffffffffffffffff808211156121ec578283fd5b818401915084601f8301126121ff578283fd5b815181811115612211576122116129a0565b612224601f8201601f191660200161287d565b915080825285602082850101111561223a578384fd5b61224b816020840160208601612944565b50949350505050565b600060208284031215612265578081fd5b5035919050565b60006020828403121561227d578081fd5b5051919050565b60008060408385031215612296578182fd5b505080516020909101519092909150565b600080600080608085870312156122bc578384fd5b505082516020840151604085015160609095015191969095509092509050565b8060005b60028110156122ff5781518452602093840193909101906001016122e0565b50505050565b6001600160a01b0391909116815260200190565b6001600160a01b03959095168552602085019390935260408401919091526060830152608082015260a00190565b6040810161131482846122dc565b6060810161236382856122dc565b8260408301529392505050565b901515815260200190565b90815260200190565b60006020825282518060208401526123a3816040850160208701612944565b601f01601f19169190910160400192915050565b60208082526008908201526720a6afa1a4a7a7a960c11b604082015260600190565b602080825260069082015265534f5f434e4360d01b604082015260600190565b6020808252600690820152650414d5f4149360d41b604082015260600190565b602080825260099082015268414d5f475454564c4360b81b604082015260600190565b6020808252600690820152650414d5f4241360d41b604082015260600190565b6020808252600790820152660414d5f435141360cc1b604082015260600190565b602080825260059082015264414d5f494160d81b604082015260600190565b602080825260059082015264105357d25360da1b604082015260600190565b602080825260069082015265534f5f53414360d01b604082015260600190565b60208082526006908201526520a6afaa262d60d11b604082015260600190565b60208082526006908201526520a6afa627a360d11b604082015260600190565b602080825260069082015265534f5f53414f60d01b604082015260600190565b6020808252600690820152650414d5f4f4c560d41b604082015260600190565b602080825260069082015265534f5f434e4f60d01b604082015260600190565b60208082526006908201526520a6afa624ad60d11b604082015260600190565b6020808252818101527f53616665436173743a2076616c7565206d75737420626520706f736974697665604082015260600190565b6020808252602e908201527f496e697469616c697a61626c653a20636f6e747261637420697320616c72656160408201526d191e481a5b9a5d1a585b1a5e995960921b606082015260800190565b6020808252600790820152660414d5f434241360cc1b604082015260600190565b6020808252600690820152650414d5f5141360d41b604082015260600190565b602080825260069082015265414d5f464e4360d01b604082015260600190565b60208082526010908201526f2ab732bc3832b1ba32b21032b93937b960811b604082015260600190565b602080825260069082015265414d5f4f414d60d01b604082015260600190565b602080825260069082015265105357d3d35560d21b604082015260600190565b602080825260069082015265414d5f53434960d01b604082015260600190565b60208082526028908201527f53616665436173743a2076616c756520646f65736e27742066697420696e2061604082015267371034b73a191a9b60c11b606082015260800190565b602080825260079082015266414d5f4942494160c81b604082015260600190565b6020808252600590820152640534f5f43360dc1b604082015260600190565b60208082526005908201526420a6afa62d60d91b604082015260600190565b60208082526021908201527f4661697274726164654d6174683a20696e76657273696f6e206f766572666c6f6040820152607760f81b606082015260800190565b6020808252600690820152650534f5f4e57360d41b604082015260600190565b8381526080810161282560208301856122dc565b6001600160a01b03929092166060919091015292915050565b918252602082015260400190565b9283526020830191909152604082015260600190565b93845260208401929092526040830152606082015260800190565b604051601f8201601f1916810167ffffffffffffffff811182821017156128a6576128a66129a0565b604052919050565b600082198211156128c1576128c161298a565b500190565b6000826128e157634e487b7160e01b81526012600452602481fd5b500490565b60008160001904831182151516156129005761290061298a565b500290565b60008083128015600160ff1b8501841216156129235761292361298a565b6001600160ff1b038401831381161561293e5761293e61298a565b50500390565b60005b8381101561295f578181015183820152602001612947565b838111156122ff5750506000910152565b6000600160ff1b8214156129865761298661298a565b0390565b634e487b7160e01b600052601160045260246000fd5b634e487b7160e01b600052604160045260246000fd5b6001600160a01b0381168114611ec457600080fdfea2646970667358221220326d582ab316c09f9775965a096f7b8e06314a31a2b2097cb42b1266d74adb9864736f6c63430008010033",
    "linkReferences": {},
    "deployedLinkReferences": {}
}